{
	"data": {
		"bytecode": {
			"linkReferences": {},
			"object": "60806040526008805460ff191690553480156200001a575f80fd5b506001603f55604080518082019091526005815264436865636b60d81b6020820152603c906200004b908262000129565b5060408051808201909152600381526243484b60e81b6020820152603d9062000075908262000129565b50603e805460ff19166012179055620001f1565b634e487b7160e01b5f52604160045260245ffd5b600181811c90821680620000b257607f821691505b602082108103620000d157634e487b7160e01b5f52602260045260245ffd5b50919050565b601f82111562000124575f81815260208120601f850160051c81016020861015620000ff5750805b601f850160051c820191505b8181101562000120578281556001016200010b565b5050505b505050565b81516001600160401b0381111562000145576200014562000089565b6200015d816200015684546200009d565b84620000d7565b602080601f83116001811462000193575f84156200017b5750858301515b5f19600386901b1c1916600185901b17855562000120565b5f85815260208120601f198616915b82811015620001c357888601518255948401946001909101908401620001a2565b5085821015620001e157878501515f19600388901b60f8161c191681555b5050505050600190811b01905550565b61408980620001ff5f395ff3fe60806040526004361061025f575f3560e01c806370a082311161013f578063a167dd55116100b3578063bff2612611610078578063bff2612614610734578063c87b56dd14610753578063e345e0bc14610772578063e8a3d48514610791578063e985e9c5146107a5578063f2fde38b146107f0575f80fd5b8063a167dd5514610659578063a22cb46514610684578063a7263665146106a3578063aa5965ae146106ce578063b88d4fde14610721575f80fd5b80638cb0a511116101045780638cb0a511146105995780638da5cb5b146105ac5780638e9e5114146105e857806395d89b411461060757806397a6278e1461061b5780639cc7f7081461063a575f80fd5b806370a0823114610509578063715018a614610528578063735c699d1461053c578063840f71131461055b57806384e798421461057a575f80fd5b8063263f3e7e116101d65780633e7e86691161019b5780633e7e86691461045757806342842e0e146104785780634f6ccce71461048b5780636285bfcf146104aa5780636352211e146104cb5780636408dcba146104ea575f80fd5b8063263f3e7e146103c85780632847637a146103e75780632f745c5914610406578063310ed7f014610425578063394b212214610438575f80fd5b806309c3dd871161022757806309c3dd87146103235780630f485c021461034257806318160ddd1461036357806318de611d146103775780631ffbb0641461039657806323b872dd146103b5575f80fd5b8063016d58071461026357806301ffc9a71461028457806306fdde03146102b8578063081812fc146102d9578063095ea7b314610310575b5f80fd5b34801561026e575f80fd5b5061028261027d366004613369565b61080f565b005b34801561028f575f80fd5b506102a361029e3660046133b4565b61093e565b60405190151581526020015b60405180910390f35b3480156102c3575f80fd5b506102cc6109e0565b6040516102af919061341c565b3480156102e4575f80fd5b506102f86102f336600461342e565b610a70565b6040516001600160a01b0390911681526020016102af565b61028261031e366004613445565b610abf565b34801561032e575f80fd5b506102cc61033d36600461342e565b610b99565b61035561035036600461346d565b610c82565b6040519081526020016102af565b34801561036e575f80fd5b50604654610355565b348015610382575f80fd5b5061028261039136600461349f565b610cb8565b3480156103a1575f80fd5b506102a36103b03660046134bf565b610cdf565b6102826103c33660046134d8565b610ceb565b3480156103d3575f80fd5b506103556103e236600461342e565b610e13565b3480156103f2575f80fd5b5061035561040136600461342e565b610e57565b348015610411575f80fd5b50610355610420366004613445565b610eca565b610282610433366004613501565b610f67565b348015610443575f80fd5b5061028261045236600461349f565b610f7d565b348015610462575f80fd5b50603e5460405160ff90911681526020016102af565b6102826104863660046134d8565b610fb3565b348015610496575f80fd5b506103556104a536600461342e565b610fcd565b3480156104b5575f80fd5b506104be61105a565b6040516102af919061352a565b3480156104d6575f80fd5b506102f86104e536600461342e565b6110af565b3480156104f5575f80fd5b5061028261050436600461349f565b611148565b348015610514575f80fd5b506103556105233660046134bf565b6111a4565b348015610533575f80fd5b5061028261122a565b348015610547575f80fd5b5061035561055636600461356d565b61123d565b348015610566575f80fd5b506049546102f8906001600160a01b031681565b348015610585575f80fd5b506102826105943660046134bf565b6113b4565b6102826105a736600461346d565b611453565b3480156105b7575f80fd5b507f9016d09d72d40fdae2fd8ceac6b6234c7706214fd39c1cd1e609a0528c199300546001600160a01b03166102f8565b3480156105f3575f80fd5b50610355610602366004613644565b61150b565b348015610612575f80fd5b506102cc6115d3565b348015610626575f80fd5b506102826106353660046134bf565b6115e2565b348015610645575f80fd5b5061035561065436600461342e565b611681565b348015610664575f80fd5b5061035561067336600461342e565b60456020525f908152604090205481565b34801561068f575f80fd5b5061028261069e3660046136b7565b6116c5565b3480156106ae575f80fd5b506103556106bd36600461342e565b60476020525f908152604090205481565b3480156106d9575f80fd5b506106ed6106e836600461342e565b6116d4565b604080519586526020860194909452928401919091526001600160a01b03908116606084015216608082015260a0016102af565b61028261072f3660046136ec565b611720565b34801561073f575f80fd5b506102cc61074e36600461342e565b611752565b34801561075e575f80fd5b506102cc61076d36600461342e565b6117e2565b34801561077d575f80fd5b5061035561078c366004613763565b611844565b34801561079c575f80fd5b506102cc611876565b3480156107b0575f80fd5b506102a36107bf36600461378d565b6001600160a01b039182165f9081526048602090815260408083209390941682526002909201909152205460ff1690565b3480156107fb575f80fd5b5061028261080a3660046134bf565b611967565b6001600160a01b0384166108745760405162461bcd60e51b815260206004820152602160248201527f455243333532353a206d696e7420746f20746865207a65726f206164647265736044820152607360f81b60648201526084015b60405180910390fd5b825f036108cd5760405162461bcd60e51b815260206004820152602160248201527f455243333532353a2063616e6e6f74206d696e74207a65726f20746f6b656e496044820152601960fa1b606482015260840161086b565b6108d6836119a4565b156109235760405162461bcd60e51b815260206004820152601d60248201527f455243333532353a20746f6b656e20616c7265616479206d696e746564000000604482015260640161086b565b61092e8484846119f3565b6109388382611ab6565b50505050565b5f6001600160e01b031982166301ffc9a760e01b148061096e57506001600160e01b03198216630354d60560e61b145b8061098957506001600160e01b031982166380ac58cd60e01b145b806109a457506001600160e01b031982166370b0048160e11b145b806109bf57506001600160e01b0319821663780e9d6360e01b145b806109da57506001600160e01b03198216635b5e139f60e01b145b92915050565b6060603c80546109ef906137b5565b80601f0160208091040260200160405190810160405280929190818152602001828054610a1b906137b5565b8015610a665780601f10610a3d57610100808354040283529160200191610a66565b820191905f5260205f20905b815481529060010190602001808311610a4957829003601f168201915b5050505050905090565b5f610a7a82611b36565b5f82815260476020526040902054604680549091908110610a9d57610a9d6137ed565b5f9182526020909120600460069092020101546001600160a01b031692915050565b5f610ac9826110af565b9050806001600160a01b0316836001600160a01b031603610afc5760405162461bcd60e51b815260040161086b90613801565b336001600160a01b0382161480610b185750610b1881336107bf565b610b8a5760405162461bcd60e51b815260206004820152603960248201527f455243333532353a20617070726f76652063616c6c6572206973206e6f74206f60448201527f776e6572206e6f7220617070726f76656420666f7220616c6c00000000000000606482015260840161086b565b610b948383611b87565b505050565b60605f610bb060408051602081019091525f815290565b6049549091506001600160a01b0316610c0e575f815111610bdf5760405180602001604052805f815250610c7b565b80610be984611c1c565b604051602001610bfa92919061385e565b604051602081830303815290604052610c7b565b604954604051633601bfc560e11b8152600481018590526001600160a01b0390911690636c037f8a906024015f60405180830381865afa158015610c54573d5f803e3d5ffd5b505050506040513d5f823e601f3d908101601f19168201604052610c7b919081019061389d565b9392505050565b5f610c8e338584611cac565b610c9784611d3a565b9050610cad8382610ca787610e13565b5f61080f565b610c7b848284611d43565b5f610cc2836110af565b90505f610cce84610e13565b9050610cda8484611ab6565b610938565b5f6109da603b83612030565b610cf533826120b1565b610d115760405162461bcd60e51b815260040161086b9061390f565b60085460405163b9209e3360e01b81526001600160a01b0384811660048301526101009092049091169063b9209e3390602401602060405180830381865afa158015610d5f573d5f803e3d5ffd5b505050506040513d601f19601f82011682018060405250810190610d839190613961565b8015610e0357506009546040516372331c7360e11b81523360048201526001600160a01b038481166024830152600160448301529091169063e46638e690606401602060405180830381865afa158015610ddf573d5f803e3d5ffd5b505050506040513d601f19601f82011682018060405250810190610e039190613961565b15610b9457610b94838383612132565b5f610e1d82611b36565b5f82815260476020526040902054604680549091908110610e4057610e406137ed565b905f5260205f209060060201600101549050919050565b5f610e6182612290565b610eb85760405162461bcd60e51b815260206004820152602260248201527f4c656173696e67436f6e74726163743a204e6f6e6578697374656e7420746f6b60448201526132b760f11b606482015260840161086b565b505f9081526045602052604090205490565b5f610ed4836111a4565b8210610f2d5760405162461bcd60e51b815260206004820152602260248201527f455243333532353a206f776e657220696e646578206f7574206f6620626f756e604482015261647360f01b606482015260840161086b565b6001600160a01b0383165f908152604860205260409020805483908110610f5657610f566137ed565b905f5260205f200154905092915050565b610f72338483611cac565b610b94838383611d43565b610f8682612290565b610fa25760405162461bcd60e51b815260040161086b9061397c565b5f9182526041602052604090912055565b610b9483838360405180602001604052805f815250611720565b5f610fd760465490565b82106110315760405162461bcd60e51b815260206004820152602360248201527f455243333532353a20676c6f62616c20696e646578206f7574206f6620626f756044820152626e647360e81b606482015260840161086b565b60468281548110611044576110446137ed565b905f5260205f2090600602015f01549050919050565b60606042805480602002602001604051908101604052809291908181526020018280548015610a6657602002820191905f5260205f20905b815481526020019060010190808311611092575050505050905090565b5f6110b982611b36565b5f828152604760205260409020546046805490919081106110dc576110dc6137ed565b5f9182526020909120600360069092020101546001600160a01b03169050806111435760405162461bcd60e51b8152602060048201526019602482015278115490cccd4c8d4e881a5b9d985b1a59081d1bdad95b881251603a1b604482015260640161086b565b919050565b61115182612290565b6111935760405162461bcd60e51b8152602060048201526013602482015272105cdcd95d08191bd95cdb89dd08195e1a5cdd606a1b604482015260640161086b565b5f9182526045602052604090912055565b5f6001600160a01b03821661120f5760405162461bcd60e51b815260206004820152602b60248201527f455243333532353a2062616c616e636520717565727920666f7220746865207a60448201526a65726f206164647265737360a81b606482015260840161086b565b506001600160a01b03165f9081526048602052604090205490565b6112326122e2565b61123b5f61233d565b565b5f61124783612290565b6112635760405162461bcd60e51b815260040161086b9061397c565b5f8381526041602090815260408083205491819052909120546112879084906139d1565b11156112d55760405162461bcd60e51b815260206004820152601860248201527f455243333532353a20546f6b656e7320736f6c64206f75740000000000000000604482015260640161086b565b6112dd6123ad565b90506112eb8482858561080f565b5f838152604360205260409020805461138a918391611309906137b5565b80601f0160208091040260200160405190810160405280929190818152602001828054611335906137b5565b80156113805780601f1061135757610100808354040283529160200191611380565b820191905f5260205f20905b81548152906001019060200180831161136357829003601f168201915b50505050506123c6565b5f83815260406020819052812080548492906113a79084906139d1565b9091555090949350505050565b6113bc6122e2565b6001600160a01b0381166114125760405162461bcd60e51b815260206004820152601f60248201527f696e76616c696420617267756d656e74202d207a65726f206164647265737300604482015260640161086b565b61141d603b82612440565b6040516001600160a01b038216907ff68e73cec97f2d70aa641fb26e87a4383686e2efacb648f2165aeb02ac562ec5905f90a250565b5f61145d846110af565b9050806001600160a01b0316836001600160a01b0316036114905760405162461bcd60e51b815260040161086b90613801565b61149a33856120b1565b6115005760405162461bcd60e51b815260206004820152603160248201527f455243333532353a20617070726f76652063616c6c6572206973206e6f74206f6044820152701ddb995c881b9bdc88185c1c1c9bdd9959607a1b606482015260840161086b565b6109388484846124bb565b5f61151583612290565b1561156c5760405162461bcd60e51b815260206004820152602160248201527f455243333532353a20417373657420616c7265616479207265676973746572656044820152601960fa1b606482015260840161086b565b5f8381526043602052604090208054611584906137b5565b90505f036115965761159683836125f0565b61159e6123ad565b90506115ac8482855f61080f565b6115b583612607565b5f8381526043602052604090208054610c7b918391611309906137b5565b6060603d80546109ef906137b5565b6115ea6122e2565b6001600160a01b0381166116405760405162461bcd60e51b815260206004820152601f60248201527f696e76616c696420617267756d656e74202d207a65726f206164647265737300604482015260640161086b565b61164b603b8261264f565b6040516001600160a01b038216907fed9c8ad8d5a0a66898ea49d2956929c93ae2e8bd50281b2ed897c5d1a6737e0b905f90a250565b5f61168b82611b36565b5f828152604760205260409020546046805490919081106116ae576116ae6137ed565b905f5260205f209060060201600201549050919050565b6116d03383836126d0565b5050565b604681815481106116e3575f80fd5b5f91825260209091206006909102018054600182015460028301546003840154600490940154929450909290916001600160a01b03918216911685565b61172a33836120b1565b6117465760405162461bcd60e51b815260040161086b9061390f565b61093884848484612799565b60605f61175e83610e13565b90505f61176a84611681565b90505f61177682611c1c565b61177f86611c1c565b61178885611c1c565b60405160200161179a939291906139e4565b60408051601f198184030181529190529050805f6117b78261280c565b6040516020016117c79190613c87565b60408051601f19818403018152919052979650505050505050565b606061181e6117f083611c1c565b6117f984611752565b60405160200161180a929190613ccb565b60405160208183030381529060405261280c565b60405160200161182e9190613d77565b6040516020818303038152906040529050919050565b5f61184e83611b36565b505f9182526044602090815260408084206001600160a01b0393909316845291905290205490565b60605f61188d60408051602081019091525f815290565b6049549091506001600160a01b03166118eb575f8151116118bc5760405180602001604052805f815250611961565b806118c63061295b565b6040516020016118d7929190613dbb565b604051602081830303815290604052611961565b60495f9054906101000a90046001600160a01b03166001600160a01b031663725fa09c6040518163ffffffff1660e01b81526004015f60405180830381865afa15801561193a573d5f803e3d5ffd5b505050506040513d5f823e601f3d908101601f19168201604052611961919081019061389d565b91505090565b61196f6122e2565b6001600160a01b03811661199857604051631e4fbdf760e01b81525f600482015260240161086b565b6119a18161233d565b50565b6046545f90158015906109da57505f828152604760205260409020546046805484929081106119d5576119d56137ed565b905f5260205f2090600602015f01541492915050565b505050505050565b6040805160c08101825283815260208082018490525f8284018190526001600160a01b038716606084015260808301819052835181815291820190935260a08201529050611a4081612971565b611a4a8484612ac2565b60405183906001600160a01b038616905f907fddf252ad1be2c89b69c2b068fc378daa952ba7f163c4a11628f55a4df523b3ef908290a4815f847fe4f48c240d3b994948aa54f3e2f5fca59263dfe1d52b6e4cf39a5d249b5ccb6560405160405180910390a450505050565b5f82815260476020526040902054604680548392908110611ad957611ad96137ed565b905f5260205f2090600602016002015f828254611af691906139d1565b909155505060405181815282905f907f0b2aac84f3ec956911fd78eae5311062972ff949f38412e8da39069d9f068cc69060200160405180910390a35050565b611b3f816119a4565b6119a15760405162461bcd60e51b8152602060048201526019602482015278115490cccd4c8d4e881a5b9d985b1a59081d1bdad95b881251603a1b604482015260640161086b565b5f81815260476020526040902054604680548492908110611baa57611baa6137ed565b5f918252602090912060069091020160040180546001600160a01b0319166001600160a01b0392831617905581908316611be3826110af565b6001600160a01b03167f8c5be1e5ebec7d5bd14f71427d1e84f3dd0314c0f7b2291e5b200ac8c7c3b92560405160405180910390a45050565b60605f611c2883612b49565b60010190505f8167ffffffffffffffff811115611c4757611c4761359d565b6040519080825280601f01601f191660200182016040528015611c71576020820181803683370190505b5090508181016020015b5f19016f181899199a1a9b1b9c1cb0b131b232b360811b600a86061a8153600a8504945084611c7b57509392505050565b5f611cb78385611844565b9050611cc384846120b1565b158015611cd157505f198114155b156109385781811015611d265760405162461bcd60e51b815260206004820152601f60248201527f455243333532353a20696e73756666696369656e7420616c6c6f77616e636500604482015260640161086b565b6109388385611d358585613dfe565b6124bb565b5f6109da6123ad565b611d4c836119a4565b611da85760405162461bcd60e51b815260206004820152602760248201527f455243333532353a207472616e736665722066726f6d20696e76616c696420746044820152661bdad95b88125160ca1b606482015260840161086b565b611db1826119a4565b611e0b5760405162461bcd60e51b815260206004820152602560248201527f455243333532353a207472616e7366657220746f20696e76616c696420746f6b604482015264195b88125160da1b606482015260840161086b565b5f83815260476020526040812054604680549091908110611e2e57611e2e6137ed565b905f5260205f20906006020190505f604660475f8681526020019081526020015f205481548110611e6157611e616137ed565b905f5260205f20906006020190508282600201541015611ed65760405162461bcd60e51b815260206004820152602a60248201527f455243333532353a20696e73756666696369656e742062616c616e636520666f60448201526939103a3930b739b332b960b11b606482015260840161086b565b8060010154826001015414611f445760405162461bcd60e51b815260206004820152602e60248201527f455243333532353a207472616e7366657220746f20746f6b656e20776974682060448201526d191a5999995c995b9d081cdb1bdd60921b606482015260840161086b565b82826002015f828254611f579190613dfe565b9250508190555082816002015f828254611f7191906139d1565b9091555050604051838152849086907f0b2aac84f3ec956911fd78eae5311062972ff949f38412e8da39069d9f068cc69060200160405180910390a3611fc785858560405180602001604052805f815250612c20565b6120295760405162461bcd60e51b815260206004820152602d60248201527f455243333532353a207472616e736665722072656a656374656420627920455260448201526c21999a991aa932b1b2b4bb32b960991b606482015260840161086b565b5050505050565b5f6001600160a01b0382166120925760405162461bcd60e51b815260206004820152602260248201527f526f6c65733a206163636f756e7420697320746865207a65726f206164647265604482015261737360f01b606482015260840161086b565b506001600160a01b03165f908152602091909152604090205460ff1690565b5f806120bc836110af565b9050806001600160a01b0316846001600160a01b0316148061210657506001600160a01b038082165f908152604860209081526040808320938816835260029093019052205460ff165b8061212a5750836001600160a01b031661211f84610a70565b6001600160a01b0316145b949350505050565b826001600160a01b0316612145826110af565b6001600160a01b0316146121a75760405162461bcd60e51b8152602060048201526024808201527f455243333532353a207472616e736665722066726f6d20696e76616c6964206f6044820152633bb732b960e11b606482015260840161086b565b6001600160a01b03821661220b5760405162461bcd60e51b815260206004820152602560248201527f455243333532353a207472616e7366657220746f20746865207a65726f206164604482015264647265737360d81b606482015260840161086b565b5f61221582610e13565b90505f61222183611681565b905061222d5f84611b87565b61223683612d8c565b6122408584612e32565b61224a8484612ac2565b82846001600160a01b0316866001600160a01b03167fddf252ad1be2c89b69c2b068fc378daa952ba7f163c4a11628f55a4df523b3ef60405160405180910390a4612029565b5f805b6042548110156122da5782604282815481106122b1576122b16137ed565b905f5260205f200154036122c85750600192915050565b806122d281613e11565b915050612293565b505f92915050565b336123147f9016d09d72d40fdae2fd8ceac6b6234c7706214fd39c1cd1e609a0528c199300546001600160a01b031690565b6001600160a01b03161461123b5760405163118cdaa760e01b815233600482015260240161086b565b7f9016d09d72d40fdae2fd8ceac6b6234c7706214fd39c1cd1e609a0528c19930080546001600160a01b031981166001600160a01b03848116918217845560405192169182907f8be0079c531659141344cd1fd0a4f28419497f9722a3daafe3b4186f6b6457e0905f90a3505050565b603f80545f91826123bd83613e11565b91905055905090565b6123cf826119a4565b6124295760405162461bcd60e51b815260206004820152602560248201527f455243333532353a2055524920736574206f66206e6f6e6578697374656e74206044820152643a37b5b2b760d91b606482015260840161086b565b5f828152604a60205260409020610b948282613e6e565b61244a8282612030565b156124975760405162461bcd60e51b815260206004820152601f60248201527f526f6c65733a206163636f756e7420616c72656164792068617320726f6c6500604482015260640161086b565b6001600160a01b03165f90815260209190915260409020805460ff19166001179055565b6001600160a01b0382166125245760405162461bcd60e51b815260206004820152602a60248201527f455243333532353a20617070726f76652076616c756520746f20746865207a65604482015269726f206164647265737360b01b606482015260840161086b565b61252e8284612f45565b612592575f83815260476020526040902054604680549091908110612555576125556137ed565b5f9182526020808320600692909202909101600501805460018101825590835291200180546001600160a01b0319166001600160a01b0384161790555b5f8381526044602090815260408083206001600160a01b038616808552908352928190208490555183815285917f621b050de0ad08b51d19b48b3e6df75348c4de6bdd93e81b252ca62e28265b1b91015b60405180910390a3505050565b5f828152604360205260409020610b948282613e6e565b5f8181526040602081905281205490036119a157604280546001810182555f919091527f38dfe4635b27babeca8be38d3b448cb5161a639b899a14825ba9c8d7892eb8c30155565b6126598282612030565b6126af5760405162461bcd60e51b815260206004820152602160248201527f526f6c65733a206163636f756e7420646f6573206e6f74206861766520726f6c6044820152606560f81b606482015260840161086b565b6001600160a01b03165f90815260209190915260409020805460ff19169055565b816001600160a01b0316836001600160a01b0316036127315760405162461bcd60e51b815260206004820152601a60248201527f455243333532353a20617070726f766520746f2063616c6c6572000000000000604482015260640161086b565b6001600160a01b038381165f8181526048602090815260408083209487168084526002909501825291829020805460ff191686151590811790915591519182527f17307eab39ab6107e8899845ad3d59bd9653f200f220920489ca2b5937696c3191016125e3565b6127a4848484612132565b6127b084848484613011565b6109385760405162461bcd60e51b815260206004820152602760248201527f455243333532353a207472616e7366657220746f206e6f6e204552433732315260448201526632b1b2b4bb32b960c91b606482015260840161086b565b606081515f0361282957505060408051602081019091525f815290565b5f6040518060600160405280604081526020016140146040913990505f60038451600261285691906139d1565b6128609190613f2a565b61286b906004613f49565b67ffffffffffffffff8111156128835761288361359d565b6040519080825280601f01601f1916602001820160405280156128ad576020820181803683370190505b509050600182016020820185865187015b80821015612919576003820191508151603f8160121c168501518453600184019350603f81600c1c168501518453600184019350603f8160061c168501518453600184019350603f81168501518453506001830192506128be565b5050600386510660018114612935576002811461294857612950565b603d6001830353603d6002830353612950565b603d60018303535b509195945050505050565b60606109da6001600160a01b0383166014613153565b6046805482515f90815260476020908152604080832084905560018401855593909152835160069092027f128667f541fed74a8429f9d592c26c2c6a4beb9ae5ead9912c98b2595c8423108101928355818501517f128667f541fed74a8429f9d592c26c2c6a4beb9ae5ead9912c98b2595c842311820155928401517f128667f541fed74a8429f9d592c26c2c6a4beb9ae5ead9912c98b2595c84231284015560608401517f128667f541fed74a8429f9d592c26c2c6a4beb9ae5ead9912c98b2595c842313840180546001600160a01b039283166001600160a01b03199182161790915560808601517f128667f541fed74a8429f9d592c26c2c6a4beb9ae5ead9912c98b2595c8423148601805491909316911617905560a084015180518594610938937f128667f541fed74a8429f9d592c26c2c6a4beb9ae5ead9912c98b2595c8423159091019201906132c5565b5f81815260476020526040902054604680548492908110612ae557612ae56137ed565b5f918252602080832060069290920290910160030180546001600160a01b0319166001600160a01b03948516179055939091168152604880845260408083208054858552600182810188529285208190559286529082018155825292902090910155565b5f8072184f03e93ff9f4daa797ed6e38ed64bf6a1f0160401b8310612b875772184f03e93ff9f4daa797ed6e38ed64bf6a1f0160401b830492506040015b6d04ee2d6d415b85acef81000000008310612bb3576d04ee2d6d415b85acef8100000000830492506020015b662386f26fc100008310612bd157662386f26fc10000830492506010015b6305f5e1008310612be9576305f5e100830492506008015b6127108310612bfd57612710830492506004015b60648310612c0f576064830492506002015b600a83106109da5760010192915050565b5f80612c2b856110af565b9050803b63ffffffff1615612d80576040516301ffc9a760e01b8152629ce20b60e01b60048201526001600160a01b038216906301ffc9a790602401602060405180830381865afa925050508015612ca0575060408051601f3d908101601f19168201909252612c9d91810190613961565b60015b612cde573d808015612ccd576040519150601f19603f3d011682016040523d82523d5f602084013e612cd2565b606091505b5060019250505061212a565b8015612d7557604051629ce20b60e01b81525f906001600160a01b03841690629ce20b90612d189033908c908c908c908c90600401613f60565b6020604051808303815f875af1158015612d34573d5f803e3d5ffd5b505050506040513d601f19601f82011682018060405250810190612d589190613f9d565b6001600160e01b031916629ce20b60e01b14935061212a92505050565b60019250505061212a565b50600195945050505050565b5f81815260476020526040812054604680549091908110612daf57612daf6137ed565b5f91825260208220600560069092020190810154909250905b81811015612e24575f836005018281548110612de657612de66137ed565b5f9182526020808320909101548783526044825260408084206001600160a01b03909216845291528120555080612e1c81613e11565b915050612dc8565b50610b94600583015f613328565b5f81815260476020526040812054604680549091908110612e5557612e556137ed565b5f918252602080832060069290920290910160030180546001600160a01b0319166001600160a01b0394851617905591841681526048909152604081208054909190612ea390600190613dfe565b90505f825f018281548110612eba57612eba6137ed565b905f5260205f20015490505f836001015f8681526020019081526020015f2054905081845f018281548110612ef157612ef16137ed565b5f9182526020808320909101929092558381526001860190915260408082208390558682528120558354849080612f2a57612f2a613fb8565b600190038181905f5260205f20015f90559055505050505050565b5f81815260476020526040812054604680548392908110612f6857612f686137ed565b5f918252602082206005600690920201015491505b81811015613007575f84815260476020526040902054604680546001600160a01b03881692908110612fb157612fb16137ed565b905f5260205f2090600602016005018281548110612fd157612fd16137ed565b5f918252602090912001546001600160a01b031603612ff5576001925050506109da565b80612fff81613e11565b915050612f7d565b505f949350505050565b5f833b63ffffffff161561314b57604051630a85bd0160e11b81526001600160a01b0385169063150b7a0290613051903390899088908890600401613fcc565b6020604051808303815f875af192505050801561308b575060408051601f3d908101601f1916820190925261308891810190613f9d565b60015b613131573d8080156130b8576040519150601f19603f3d011682016040523d82523d5f602084013e6130bd565b606091505b5080515f036131295760405162461bcd60e51b815260206004820152603260248201527f4552433732313a207472616e7366657220746f206e6f6e20455243373231526560448201527131b2b4bb32b91034b6b83632b6b2b73a32b960711b606482015260840161086b565b805181602001fd5b6001600160e01b031916630a85bd0160e11b14905061212a565b50600161212a565b6060825f613162846002613f49565b61316d9060026139d1565b67ffffffffffffffff8111156131855761318561359d565b6040519080825280601f01601f1916602001820160405280156131af576020820181803683370190505b509050600360fc1b815f815181106131c9576131c96137ed565b60200101906001600160f81b03191690815f1a905350600f60fb1b816001815181106131f7576131f76137ed565b60200101906001600160f81b03191690815f1a9053505f613219856002613f49565b6132249060016139d1565b90505b600181111561329b576f181899199a1a9b1b9c1cb0b131b232b360811b83600f1660108110613258576132586137ed565b1a60f81b82828151811061326e5761326e6137ed565b60200101906001600160f81b03191690815f1a90535060049290921c9161329481613ffe565b9050613227565b50811561212a5760405163e22e27eb60e01b8152600481018690526024810185905260440161086b565b828054828255905f5260205f20908101928215613318579160200282015b8281111561331857825182546001600160a01b0319166001600160a01b039091161782556020909201916001909101906132e3565b5061332492915061333f565b5090565b5080545f8255905f5260205f20908101906119a191905b5b80821115613324575f8155600101613340565b80356001600160a01b0381168114611143575f80fd5b5f805f806080858703121561337c575f80fd5b61338585613353565b966020860135965060408601359560600135945092505050565b6001600160e01b0319811681146119a1575f80fd5b5f602082840312156133c4575f80fd5b8135610c7b8161339f565b5f5b838110156133e95781810151838201526020016133d1565b50505f910152565b5f81518084526134088160208601602086016133cf565b601f01601f19169290920160200192915050565b602081525f610c7b60208301846133f1565b5f6020828403121561343e575f80fd5b5035919050565b5f8060408385031215613456575f80fd5b61345f83613353565b946020939093013593505050565b5f805f6060848603121561347f575f80fd5b8335925061348f60208501613353565b9150604084013590509250925092565b5f80604083850312156134b0575f80fd5b50508035926020909101359150565b5f602082840312156134cf575f80fd5b610c7b82613353565b5f805f606084860312156134ea575f80fd5b6134f384613353565b925061348f60208501613353565b5f805f60608486031215613513575f80fd5b505081359360208301359350604090920135919050565b602080825282518282018190525f9190848201906040850190845b8181101561356157835183529284019291840191600101613545565b50909695505050505050565b5f805f6060848603121561357f575f80fd5b61358884613353565b95602085013595506040909401359392505050565b634e487b7160e01b5f52604160045260245ffd5b604051601f8201601f1916810167ffffffffffffffff811182821017156135da576135da61359d565b604052919050565b5f67ffffffffffffffff8211156135fb576135fb61359d565b50601f01601f191660200190565b5f61361b613616846135e2565b6135b1565b905082815283838301111561362e575f80fd5b828260208301375f602084830101529392505050565b5f805f60608486031215613656575f80fd5b61365f84613353565b925060208401359150604084013567ffffffffffffffff811115613681575f80fd5b8401601f81018613613691575f80fd5b6136a086823560208401613609565b9150509250925092565b80151581146119a1575f80fd5b5f80604083850312156136c8575f80fd5b6136d183613353565b915060208301356136e1816136aa565b809150509250929050565b5f805f80608085870312156136ff575f80fd5b61370885613353565b935061371660208601613353565b925060408501359150606085013567ffffffffffffffff811115613738575f80fd5b8501601f81018713613748575f80fd5b61375787823560208401613609565b91505092959194509250565b5f8060408385031215613774575f80fd5b8235915061378460208401613353565b90509250929050565b5f806040838503121561379e575f80fd5b6137a783613353565b915061378460208401613353565b600181811c908216806137c957607f821691505b6020821081036137e757634e487b7160e01b5f52602260045260245ffd5b50919050565b634e487b7160e01b5f52603260045260245ffd5b60208082526022908201527f455243333532353a20617070726f76616c20746f2063757272656e74206f776e60408201526132b960f11b606082015260800190565b5f81516138548185602086016133cf565b9290920192915050565b5f835161386f8184602088016133cf565b64736c6f742f60d81b90830190815283516138918160058401602088016133cf565b01600501949350505050565b5f602082840312156138ad575f80fd5b815167ffffffffffffffff8111156138c3575f80fd5b8201601f810184136138d3575f80fd5b80516138e1613616826135e2565b8181528560208385010111156138f5575f80fd5b6139068260208301602086016133cf565b95945050505050565b60208082526032908201527f455243333532353a207472616e736665722063616c6c6572206973206e6f74206040820152711bdddb995c881b9bdc88185c1c1c9bdd995960721b606082015260800190565b5f60208284031215613971575f80fd5b8151610c7b816136aa565b60208082526021908201527f455243333532353a204173736574206e6f7420726567697374657265642079656040820152601d60fa1b606082015260800190565b634e487b7160e01b5f52601160045260245ffd5b808201808211156109da576109da6139bd565b7f3c73766720786d6c6e733d22687474703a2f2f7777772e77332e6f72672f323081527f30302f737667222077696474683d2234303022206865696768743d223430302260208201527f207374796c653d226261636b67726f756e642d636f6c6f723a2023454145414560408201527f413b20626f726465723a2031707820736f6c6964207472616e73706172656e7460608201527f3b20626f726465722d7261646975733a20353070783b223e000000000000000060808201527f3c7465787420783d2233302220793d223134302220666f6e742d73697a653d2260988201526f1a9a91103334b6361e91119a9a9a911f60811b60b88201525f8451613af28160c88501602089016133cf565b67101e17ba32bc3a1f60c11b60c891840191820152613c7d613c6b613c1c613bbb613c16613bce82613bb5613b7360d08a017f3c7465787420783d2233302220793d223230302220666f6e742d73697a653d2281527f3330222066696c6c3d2223353535223e233c2f746578743e0000000000000000602082015260380190565b7f3c7465787420783d2235302220793d223230302220666f6e742d73697a653d2281526f199811103334b6361e91119a9a9a911f60811b602082015260300190565b8c613843565b661e17ba32bc3a1f60c91b815260070190565b7f3c7465787420783d2233302220793d223331302220666f6e742d73697a653d228152750191811103334b6361e91119a9a9a911f29b637ba1d160551b602082015260360190565b88613843565b7f3c7465787420783d2233302220793d223334302220666f6e742d73697a653d2281527f3135222066696c6c3d2223353535223e56494d414e204e46543c2f746578743e602082015260400190565b651e17b9bb339f60d11b815260060190565b9695505050505050565b7f646174613a696d6167652f7376672b786d6c3b6261736536342c00000000000081525f8251613cbe81601a8501602087016133cf565b91909101601a0192915050565b727b226e616d65223a2022564d414e4e4654202360681b815282515f90613cf98160138501602088016133cf565b7f222c20226465736372697074696f6e223a2022564d414e4e4654222c202261746013918401918201527f7472696275746573223a2022222c2022696d616765223a22000000000000000060338201528351613d5c81604b8401602088016133cf565b61227d60f01b604b9290910191820152604d01949350505050565b7f646174613a6170706c69636174696f6e2f6a736f6e3b6261736536342c00000081525f8251613dae81601d8501602087016133cf565b91909101601d0192915050565b5f8351613dcc8184602088016133cf565b68636f6e74726163742f60b81b9083019081528351613df28160098401602088016133cf565b01600901949350505050565b818103818111156109da576109da6139bd565b5f60018201613e2257613e226139bd565b5060010190565b601f821115610b94575f81815260208120601f850160051c81016020861015613e4f5750805b601f850160051c820191505b818110156119eb57828155600101613e5b565b815167ffffffffffffffff811115613e8857613e8861359d565b613e9c81613e9684546137b5565b84613e29565b602080601f831160018114613ecf575f8415613eb85750858301515b5f19600386901b1c1916600185901b1785556119eb565b5f85815260208120601f198616915b82811015613efd57888601518255948401946001909101908401613ede565b5085821015613f1a57878501515f19600388901b60f8161c191681555b5050505050600190811b01905550565b5f82613f4457634e487b7160e01b5f52601260045260245ffd5b500490565b80820281158282048414176109da576109da6139bd565b60018060a01b038616815284602082015283604082015282606082015260a060808201525f613f9260a08301846133f1565b979650505050505050565b5f60208284031215613fad575f80fd5b8151610c7b8161339f565b634e487b7160e01b5f52603160045260245ffd5b6001600160a01b03858116825284166020820152604081018390526080606082018190525f90613c7d908301846133f1565b5f8161400c5761400c6139bd565b505f19019056fe4142434445464748494a4b4c4d4e4f505152535455565758595a6162636465666768696a6b6c6d6e6f707172737475767778797a303132333435363738392b2fa2646970667358221220dd853d6b01b1734bf8cba66d63d4549926556e0d833a29d11e4a3e0ece76c41a64736f6c63430008140033",
			"opcodes": "PUSH1 0x80 PUSH1 0x40 MSTORE PUSH1 0x8 DUP1 SLOAD PUSH1 0xFF NOT AND SWAP1 SSTORE CALLVALUE DUP1 ISZERO PUSH3 0x1A JUMPI PUSH0 DUP1 REVERT JUMPDEST POP PUSH1 0x1 PUSH1 0x3F SSTORE PUSH1 0x40 DUP1 MLOAD DUP1 DUP3 ADD SWAP1 SWAP2 MSTORE PUSH1 0x5 DUP2 MSTORE PUSH5 0x436865636B PUSH1 0xD8 SHL PUSH1 0x20 DUP3 ADD MSTORE PUSH1 0x3C SWAP1 PUSH3 0x4B SWAP1 DUP3 PUSH3 0x129 JUMP JUMPDEST POP PUSH1 0x40 DUP1 MLOAD DUP1 DUP3 ADD SWAP1 SWAP2 MSTORE PUSH1 0x3 DUP2 MSTORE PUSH3 0x43484B PUSH1 0xE8 SHL PUSH1 0x20 DUP3 ADD MSTORE PUSH1 0x3D SWAP1 PUSH3 0x75 SWAP1 DUP3 PUSH3 0x129 JUMP JUMPDEST POP PUSH1 0x3E DUP1 SLOAD PUSH1 0xFF NOT AND PUSH1 0x12 OR SWAP1 SSTORE PUSH3 0x1F1 JUMP JUMPDEST PUSH4 0x4E487B71 PUSH1 0xE0 SHL PUSH0 MSTORE PUSH1 0x41 PUSH1 0x4 MSTORE PUSH1 0x24 PUSH0 REVERT JUMPDEST PUSH1 0x1 DUP2 DUP2 SHR SWAP1 DUP3 AND DUP1 PUSH3 0xB2 JUMPI PUSH1 0x7F DUP3 AND SWAP2 POP JUMPDEST PUSH1 0x20 DUP3 LT DUP2 SUB PUSH3 0xD1 JUMPI PUSH4 0x4E487B71 PUSH1 0xE0 SHL PUSH0 MSTORE PUSH1 0x22 PUSH1 0x4 MSTORE PUSH1 0x24 PUSH0 REVERT JUMPDEST POP SWAP2 SWAP1 POP JUMP JUMPDEST PUSH1 0x1F DUP3 GT ISZERO PUSH3 0x124 JUMPI PUSH0 DUP2 DUP2 MSTORE PUSH1 0x20 DUP2 KECCAK256 PUSH1 0x1F DUP6 ADD PUSH1 0x5 SHR DUP2 ADD PUSH1 0x20 DUP7 LT ISZERO PUSH3 0xFF JUMPI POP DUP1 JUMPDEST PUSH1 0x1F DUP6 ADD PUSH1 0x5 SHR DUP3 ADD SWAP2 POP JUMPDEST DUP2 DUP2 LT ISZERO PUSH3 0x120 JUMPI DUP3 DUP2 SSTORE PUSH1 0x1 ADD PUSH3 0x10B JUMP JUMPDEST POP POP POP JUMPDEST POP POP POP JUMP JUMPDEST DUP2 MLOAD PUSH1 0x1 PUSH1 0x1 PUSH1 0x40 SHL SUB DUP2 GT ISZERO PUSH3 0x145 JUMPI PUSH3 0x145 PUSH3 0x89 JUMP JUMPDEST PUSH3 0x15D DUP2 PUSH3 0x156 DUP5 SLOAD PUSH3 0x9D JUMP JUMPDEST DUP5 PUSH3 0xD7 JUMP JUMPDEST PUSH1 0x20 DUP1 PUSH1 0x1F DUP4 GT PUSH1 0x1 DUP2 EQ PUSH3 0x193 JUMPI PUSH0 DUP5 ISZERO PUSH3 0x17B JUMPI POP DUP6 DUP4 ADD MLOAD JUMPDEST PUSH0 NOT PUSH1 0x3 DUP7 SWAP1 SHL SHR NOT AND PUSH1 0x1 DUP6 SWAP1 SHL OR DUP6 SSTORE PUSH3 0x120 JUMP JUMPDEST PUSH0 DUP6 DUP2 MSTORE PUSH1 0x20 DUP2 KECCAK256 PUSH1 0x1F NOT DUP7 AND SWAP2 JUMPDEST DUP3 DUP2 LT ISZERO PUSH3 0x1C3 JUMPI DUP9 DUP7 ADD MLOAD DUP3 SSTORE SWAP5 DUP5 ADD SWAP5 PUSH1 0x1 SWAP1 SWAP2 ADD SWAP1 DUP5 ADD PUSH3 0x1A2 JUMP JUMPDEST POP DUP6 DUP3 LT ISZERO PUSH3 0x1E1 JUMPI DUP8 DUP6 ADD MLOAD PUSH0 NOT PUSH1 0x3 DUP9 SWAP1 SHL PUSH1 0xF8 AND SHR NOT AND DUP2 SSTORE JUMPDEST POP POP POP POP POP PUSH1 0x1 SWAP1 DUP2 SHL ADD SWAP1 SSTORE POP JUMP JUMPDEST PUSH2 0x4089 DUP1 PUSH3 0x1FF PUSH0 CODECOPY PUSH0 RETURN INVALID PUSH1 0x80 PUSH1 0x40 MSTORE PUSH1 0x4 CALLDATASIZE LT PUSH2 0x25F JUMPI PUSH0 CALLDATALOAD PUSH1 0xE0 SHR DUP1 PUSH4 0x70A08231 GT PUSH2 0x13F JUMPI DUP1 PUSH4 0xA167DD55 GT PUSH2 0xB3 JUMPI DUP1 PUSH4 0xBFF26126 GT PUSH2 0x78 JUMPI DUP1 PUSH4 0xBFF26126 EQ PUSH2 0x734 JUMPI DUP1 PUSH4 0xC87B56DD EQ PUSH2 0x753 JUMPI DUP1 PUSH4 0xE345E0BC EQ PUSH2 0x772 JUMPI DUP1 PUSH4 0xE8A3D485 EQ PUSH2 0x791 JUMPI DUP1 PUSH4 0xE985E9C5 EQ PUSH2 0x7A5 JUMPI DUP1 PUSH4 0xF2FDE38B EQ PUSH2 0x7F0 JUMPI PUSH0 DUP1 REVERT JUMPDEST DUP1 PUSH4 0xA167DD55 EQ PUSH2 0x659 JUMPI DUP1 PUSH4 0xA22CB465 EQ PUSH2 0x684 JUMPI DUP1 PUSH4 0xA7263665 EQ PUSH2 0x6A3 JUMPI DUP1 PUSH4 0xAA5965AE EQ PUSH2 0x6CE JUMPI DUP1 PUSH4 0xB88D4FDE EQ PUSH2 0x721 JUMPI PUSH0 DUP1 REVERT JUMPDEST DUP1 PUSH4 0x8CB0A511 GT PUSH2 0x104 JUMPI DUP1 PUSH4 0x8CB0A511 EQ PUSH2 0x599 JUMPI DUP1 PUSH4 0x8DA5CB5B EQ PUSH2 0x5AC JUMPI DUP1 PUSH4 0x8E9E5114 EQ PUSH2 0x5E8 JUMPI DUP1 PUSH4 0x95D89B41 EQ PUSH2 0x607 JUMPI DUP1 PUSH4 0x97A6278E EQ PUSH2 0x61B JUMPI DUP1 PUSH4 0x9CC7F708 EQ PUSH2 0x63A JUMPI PUSH0 DUP1 REVERT JUMPDEST DUP1 PUSH4 0x70A08231 EQ PUSH2 0x509 JUMPI DUP1 PUSH4 0x715018A6 EQ PUSH2 0x528 JUMPI DUP1 PUSH4 0x735C699D EQ PUSH2 0x53C JUMPI DUP1 PUSH4 0x840F7113 EQ PUSH2 0x55B JUMPI DUP1 PUSH4 0x84E79842 EQ PUSH2 0x57A JUMPI PUSH0 DUP1 REVERT JUMPDEST DUP1 PUSH4 0x263F3E7E GT PUSH2 0x1D6 JUMPI DUP1 PUSH4 0x3E7E8669 GT PUSH2 0x19B JUMPI DUP1 PUSH4 0x3E7E8669 EQ PUSH2 0x457 JUMPI DUP1 PUSH4 0x42842E0E EQ PUSH2 0x478 JUMPI DUP1 PUSH4 0x4F6CCCE7 EQ PUSH2 0x48B JUMPI DUP1 PUSH4 0x6285BFCF EQ PUSH2 0x4AA JUMPI DUP1 PUSH4 0x6352211E EQ PUSH2 0x4CB JUMPI DUP1 PUSH4 0x6408DCBA EQ PUSH2 0x4EA JUMPI PUSH0 DUP1 REVERT JUMPDEST DUP1 PUSH4 0x263F3E7E EQ PUSH2 0x3C8 JUMPI DUP1 PUSH4 0x2847637A EQ PUSH2 0x3E7 JUMPI DUP1 PUSH4 0x2F745C59 EQ PUSH2 0x406 JUMPI DUP1 PUSH4 0x310ED7F0 EQ PUSH2 0x425 JUMPI DUP1 PUSH4 0x394B2122 EQ PUSH2 0x438 JUMPI PUSH0 DUP1 REVERT JUMPDEST DUP1 PUSH4 0x9C3DD87 GT PUSH2 0x227 JUMPI DUP1 PUSH4 0x9C3DD87 EQ PUSH2 0x323 JUMPI DUP1 PUSH4 0xF485C02 EQ PUSH2 0x342 JUMPI DUP1 PUSH4 0x18160DDD EQ PUSH2 0x363 JUMPI DUP1 PUSH4 0x18DE611D EQ PUSH2 0x377 JUMPI DUP1 PUSH4 0x1FFBB064 EQ PUSH2 0x396 JUMPI DUP1 PUSH4 0x23B872DD EQ PUSH2 0x3B5 JUMPI PUSH0 DUP1 REVERT JUMPDEST DUP1 PUSH4 0x16D5807 EQ PUSH2 0x263 JUMPI DUP1 PUSH4 0x1FFC9A7 EQ PUSH2 0x284 JUMPI DUP1 PUSH4 0x6FDDE03 EQ PUSH2 0x2B8 JUMPI DUP1 PUSH4 0x81812FC EQ PUSH2 0x2D9 JUMPI DUP1 PUSH4 0x95EA7B3 EQ PUSH2 0x310 JUMPI JUMPDEST PUSH0 DUP1 REVERT JUMPDEST CALLVALUE DUP1 ISZERO PUSH2 0x26E JUMPI PUSH0 DUP1 REVERT JUMPDEST POP PUSH2 0x282 PUSH2 0x27D CALLDATASIZE PUSH1 0x4 PUSH2 0x3369 JUMP JUMPDEST PUSH2 0x80F JUMP JUMPDEST STOP JUMPDEST CALLVALUE DUP1 ISZERO PUSH2 0x28F JUMPI PUSH0 DUP1 REVERT JUMPDEST POP PUSH2 0x2A3 PUSH2 0x29E CALLDATASIZE PUSH1 0x4 PUSH2 0x33B4 JUMP JUMPDEST PUSH2 0x93E JUMP JUMPDEST PUSH1 0x40 MLOAD SWAP1 ISZERO ISZERO DUP2 MSTORE PUSH1 0x20 ADD JUMPDEST PUSH1 0x40 MLOAD DUP1 SWAP2 SUB SWAP1 RETURN JUMPDEST CALLVALUE DUP1 ISZERO PUSH2 0x2C3 JUMPI PUSH0 DUP1 REVERT JUMPDEST POP PUSH2 0x2CC PUSH2 0x9E0 JUMP JUMPDEST PUSH1 0x40 MLOAD PUSH2 0x2AF SWAP2 SWAP1 PUSH2 0x341C JUMP JUMPDEST CALLVALUE DUP1 ISZERO PUSH2 0x2E4 JUMPI PUSH0 DUP1 REVERT JUMPDEST POP PUSH2 0x2F8 PUSH2 0x2F3 CALLDATASIZE PUSH1 0x4 PUSH2 0x342E JUMP JUMPDEST PUSH2 0xA70 JUMP JUMPDEST PUSH1 0x40 MLOAD PUSH1 0x1 PUSH1 0x1 PUSH1 0xA0 SHL SUB SWAP1 SWAP2 AND DUP2 MSTORE PUSH1 0x20 ADD PUSH2 0x2AF JUMP JUMPDEST PUSH2 0x282 PUSH2 0x31E CALLDATASIZE PUSH1 0x4 PUSH2 0x3445 JUMP JUMPDEST PUSH2 0xABF JUMP JUMPDEST CALLVALUE DUP1 ISZERO PUSH2 0x32E JUMPI PUSH0 DUP1 REVERT JUMPDEST POP PUSH2 0x2CC PUSH2 0x33D CALLDATASIZE PUSH1 0x4 PUSH2 0x342E JUMP JUMPDEST PUSH2 0xB99 JUMP JUMPDEST PUSH2 0x355 PUSH2 0x350 CALLDATASIZE PUSH1 0x4 PUSH2 0x346D JUMP JUMPDEST PUSH2 0xC82 JUMP JUMPDEST PUSH1 0x40 MLOAD SWAP1 DUP2 MSTORE PUSH1 0x20 ADD PUSH2 0x2AF JUMP JUMPDEST CALLVALUE DUP1 ISZERO PUSH2 0x36E JUMPI PUSH0 DUP1 REVERT JUMPDEST POP PUSH1 0x46 SLOAD PUSH2 0x355 JUMP JUMPDEST CALLVALUE DUP1 ISZERO PUSH2 0x382 JUMPI PUSH0 DUP1 REVERT JUMPDEST POP PUSH2 0x282 PUSH2 0x391 CALLDATASIZE PUSH1 0x4 PUSH2 0x349F JUMP JUMPDEST PUSH2 0xCB8 JUMP JUMPDEST CALLVALUE DUP1 ISZERO PUSH2 0x3A1 JUMPI PUSH0 DUP1 REVERT JUMPDEST POP PUSH2 0x2A3 PUSH2 0x3B0 CALLDATASIZE PUSH1 0x4 PUSH2 0x34BF JUMP JUMPDEST PUSH2 0xCDF JUMP JUMPDEST PUSH2 0x282 PUSH2 0x3C3 CALLDATASIZE PUSH1 0x4 PUSH2 0x34D8 JUMP JUMPDEST PUSH2 0xCEB JUMP JUMPDEST CALLVALUE DUP1 ISZERO PUSH2 0x3D3 JUMPI PUSH0 DUP1 REVERT JUMPDEST POP PUSH2 0x355 PUSH2 0x3E2 CALLDATASIZE PUSH1 0x4 PUSH2 0x342E JUMP JUMPDEST PUSH2 0xE13 JUMP JUMPDEST CALLVALUE DUP1 ISZERO PUSH2 0x3F2 JUMPI PUSH0 DUP1 REVERT JUMPDEST POP PUSH2 0x355 PUSH2 0x401 CALLDATASIZE PUSH1 0x4 PUSH2 0x342E JUMP JUMPDEST PUSH2 0xE57 JUMP JUMPDEST CALLVALUE DUP1 ISZERO PUSH2 0x411 JUMPI PUSH0 DUP1 REVERT JUMPDEST POP PUSH2 0x355 PUSH2 0x420 CALLDATASIZE PUSH1 0x4 PUSH2 0x3445 JUMP JUMPDEST PUSH2 0xECA JUMP JUMPDEST PUSH2 0x282 PUSH2 0x433 CALLDATASIZE PUSH1 0x4 PUSH2 0x3501 JUMP JUMPDEST PUSH2 0xF67 JUMP JUMPDEST CALLVALUE DUP1 ISZERO PUSH2 0x443 JUMPI PUSH0 DUP1 REVERT JUMPDEST POP PUSH2 0x282 PUSH2 0x452 CALLDATASIZE PUSH1 0x4 PUSH2 0x349F JUMP JUMPDEST PUSH2 0xF7D JUMP JUMPDEST CALLVALUE DUP1 ISZERO PUSH2 0x462 JUMPI PUSH0 DUP1 REVERT JUMPDEST POP PUSH1 0x3E SLOAD PUSH1 0x40 MLOAD PUSH1 0xFF SWAP1 SWAP2 AND DUP2 MSTORE PUSH1 0x20 ADD PUSH2 0x2AF JUMP JUMPDEST PUSH2 0x282 PUSH2 0x486 CALLDATASIZE PUSH1 0x4 PUSH2 0x34D8 JUMP JUMPDEST PUSH2 0xFB3 JUMP JUMPDEST CALLVALUE DUP1 ISZERO PUSH2 0x496 JUMPI PUSH0 DUP1 REVERT JUMPDEST POP PUSH2 0x355 PUSH2 0x4A5 CALLDATASIZE PUSH1 0x4 PUSH2 0x342E JUMP JUMPDEST PUSH2 0xFCD JUMP JUMPDEST CALLVALUE DUP1 ISZERO PUSH2 0x4B5 JUMPI PUSH0 DUP1 REVERT JUMPDEST POP PUSH2 0x4BE PUSH2 0x105A JUMP JUMPDEST PUSH1 0x40 MLOAD PUSH2 0x2AF SWAP2 SWAP1 PUSH2 0x352A JUMP JUMPDEST CALLVALUE DUP1 ISZERO PUSH2 0x4D6 JUMPI PUSH0 DUP1 REVERT JUMPDEST POP PUSH2 0x2F8 PUSH2 0x4E5 CALLDATASIZE PUSH1 0x4 PUSH2 0x342E JUMP JUMPDEST PUSH2 0x10AF JUMP JUMPDEST CALLVALUE DUP1 ISZERO PUSH2 0x4F5 JUMPI PUSH0 DUP1 REVERT JUMPDEST POP PUSH2 0x282 PUSH2 0x504 CALLDATASIZE PUSH1 0x4 PUSH2 0x349F JUMP JUMPDEST PUSH2 0x1148 JUMP JUMPDEST CALLVALUE DUP1 ISZERO PUSH2 0x514 JUMPI PUSH0 DUP1 REVERT JUMPDEST POP PUSH2 0x355 PUSH2 0x523 CALLDATASIZE PUSH1 0x4 PUSH2 0x34BF JUMP JUMPDEST PUSH2 0x11A4 JUMP JUMPDEST CALLVALUE DUP1 ISZERO PUSH2 0x533 JUMPI PUSH0 DUP1 REVERT JUMPDEST POP PUSH2 0x282 PUSH2 0x122A JUMP JUMPDEST CALLVALUE DUP1 ISZERO PUSH2 0x547 JUMPI PUSH0 DUP1 REVERT JUMPDEST POP PUSH2 0x355 PUSH2 0x556 CALLDATASIZE PUSH1 0x4 PUSH2 0x356D JUMP JUMPDEST PUSH2 0x123D JUMP JUMPDEST CALLVALUE DUP1 ISZERO PUSH2 0x566 JUMPI PUSH0 DUP1 REVERT JUMPDEST POP PUSH1 0x49 SLOAD PUSH2 0x2F8 SWAP1 PUSH1 0x1 PUSH1 0x1 PUSH1 0xA0 SHL SUB AND DUP2 JUMP JUMPDEST CALLVALUE DUP1 ISZERO PUSH2 0x585 JUMPI PUSH0 DUP1 REVERT JUMPDEST POP PUSH2 0x282 PUSH2 0x594 CALLDATASIZE PUSH1 0x4 PUSH2 0x34BF JUMP JUMPDEST PUSH2 0x13B4 JUMP JUMPDEST PUSH2 0x282 PUSH2 0x5A7 CALLDATASIZE PUSH1 0x4 PUSH2 0x346D JUMP JUMPDEST PUSH2 0x1453 JUMP JUMPDEST CALLVALUE DUP1 ISZERO PUSH2 0x5B7 JUMPI PUSH0 DUP1 REVERT JUMPDEST POP PUSH32 0x9016D09D72D40FDAE2FD8CEAC6B6234C7706214FD39C1CD1E609A0528C199300 SLOAD PUSH1 0x1 PUSH1 0x1 PUSH1 0xA0 SHL SUB AND PUSH2 0x2F8 JUMP JUMPDEST CALLVALUE DUP1 ISZERO PUSH2 0x5F3 JUMPI PUSH0 DUP1 REVERT JUMPDEST POP PUSH2 0x355 PUSH2 0x602 CALLDATASIZE PUSH1 0x4 PUSH2 0x3644 JUMP JUMPDEST PUSH2 0x150B JUMP JUMPDEST CALLVALUE DUP1 ISZERO PUSH2 0x612 JUMPI PUSH0 DUP1 REVERT JUMPDEST POP PUSH2 0x2CC PUSH2 0x15D3 JUMP JUMPDEST CALLVALUE DUP1 ISZERO PUSH2 0x626 JUMPI PUSH0 DUP1 REVERT JUMPDEST POP PUSH2 0x282 PUSH2 0x635 CALLDATASIZE PUSH1 0x4 PUSH2 0x34BF JUMP JUMPDEST PUSH2 0x15E2 JUMP JUMPDEST CALLVALUE DUP1 ISZERO PUSH2 0x645 JUMPI PUSH0 DUP1 REVERT JUMPDEST POP PUSH2 0x355 PUSH2 0x654 CALLDATASIZE PUSH1 0x4 PUSH2 0x342E JUMP JUMPDEST PUSH2 0x1681 JUMP JUMPDEST CALLVALUE DUP1 ISZERO PUSH2 0x664 JUMPI PUSH0 DUP1 REVERT JUMPDEST POP PUSH2 0x355 PUSH2 0x673 CALLDATASIZE PUSH1 0x4 PUSH2 0x342E JUMP JUMPDEST PUSH1 0x45 PUSH1 0x20 MSTORE PUSH0 SWAP1 DUP2 MSTORE PUSH1 0x40 SWAP1 KECCAK256 SLOAD DUP2 JUMP JUMPDEST CALLVALUE DUP1 ISZERO PUSH2 0x68F JUMPI PUSH0 DUP1 REVERT JUMPDEST POP PUSH2 0x282 PUSH2 0x69E CALLDATASIZE PUSH1 0x4 PUSH2 0x36B7 JUMP JUMPDEST PUSH2 0x16C5 JUMP JUMPDEST CALLVALUE DUP1 ISZERO PUSH2 0x6AE JUMPI PUSH0 DUP1 REVERT JUMPDEST POP PUSH2 0x355 PUSH2 0x6BD CALLDATASIZE PUSH1 0x4 PUSH2 0x342E JUMP JUMPDEST PUSH1 0x47 PUSH1 0x20 MSTORE PUSH0 SWAP1 DUP2 MSTORE PUSH1 0x40 SWAP1 KECCAK256 SLOAD DUP2 JUMP JUMPDEST CALLVALUE DUP1 ISZERO PUSH2 0x6D9 JUMPI PUSH0 DUP1 REVERT JUMPDEST POP PUSH2 0x6ED PUSH2 0x6E8 CALLDATASIZE PUSH1 0x4 PUSH2 0x342E JUMP JUMPDEST PUSH2 0x16D4 JUMP JUMPDEST PUSH1 0x40 DUP1 MLOAD SWAP6 DUP7 MSTORE PUSH1 0x20 DUP7 ADD SWAP5 SWAP1 SWAP5 MSTORE SWAP3 DUP5 ADD SWAP2 SWAP1 SWAP2 MSTORE PUSH1 0x1 PUSH1 0x1 PUSH1 0xA0 SHL SUB SWAP1 DUP2 AND PUSH1 0x60 DUP5 ADD MSTORE AND PUSH1 0x80 DUP3 ADD MSTORE PUSH1 0xA0 ADD PUSH2 0x2AF JUMP JUMPDEST PUSH2 0x282 PUSH2 0x72F CALLDATASIZE PUSH1 0x4 PUSH2 0x36EC JUMP JUMPDEST PUSH2 0x1720 JUMP JUMPDEST CALLVALUE DUP1 ISZERO PUSH2 0x73F JUMPI PUSH0 DUP1 REVERT JUMPDEST POP PUSH2 0x2CC PUSH2 0x74E CALLDATASIZE PUSH1 0x4 PUSH2 0x342E JUMP JUMPDEST PUSH2 0x1752 JUMP JUMPDEST CALLVALUE DUP1 ISZERO PUSH2 0x75E JUMPI PUSH0 DUP1 REVERT JUMPDEST POP PUSH2 0x2CC PUSH2 0x76D CALLDATASIZE PUSH1 0x4 PUSH2 0x342E JUMP JUMPDEST PUSH2 0x17E2 JUMP JUMPDEST CALLVALUE DUP1 ISZERO PUSH2 0x77D JUMPI PUSH0 DUP1 REVERT JUMPDEST POP PUSH2 0x355 PUSH2 0x78C CALLDATASIZE PUSH1 0x4 PUSH2 0x3763 JUMP JUMPDEST PUSH2 0x1844 JUMP JUMPDEST CALLVALUE DUP1 ISZERO PUSH2 0x79C JUMPI PUSH0 DUP1 REVERT JUMPDEST POP PUSH2 0x2CC PUSH2 0x1876 JUMP JUMPDEST CALLVALUE DUP1 ISZERO PUSH2 0x7B0 JUMPI PUSH0 DUP1 REVERT JUMPDEST POP PUSH2 0x2A3 PUSH2 0x7BF CALLDATASIZE PUSH1 0x4 PUSH2 0x378D JUMP JUMPDEST PUSH1 0x1 PUSH1 0x1 PUSH1 0xA0 SHL SUB SWAP2 DUP3 AND PUSH0 SWAP1 DUP2 MSTORE PUSH1 0x48 PUSH1 0x20 SWAP1 DUP2 MSTORE PUSH1 0x40 DUP1 DUP4 KECCAK256 SWAP4 SWAP1 SWAP5 AND DUP3 MSTORE PUSH1 0x2 SWAP1 SWAP3 ADD SWAP1 SWAP2 MSTORE KECCAK256 SLOAD PUSH1 0xFF AND SWAP1 JUMP JUMPDEST CALLVALUE DUP1 ISZERO PUSH2 0x7FB JUMPI PUSH0 DUP1 REVERT JUMPDEST POP PUSH2 0x282 PUSH2 0x80A CALLDATASIZE PUSH1 0x4 PUSH2 0x34BF JUMP JUMPDEST PUSH2 0x1967 JUMP JUMPDEST PUSH1 0x1 PUSH1 0x1 PUSH1 0xA0 SHL SUB DUP5 AND PUSH2 0x874 JUMPI PUSH1 0x40 MLOAD PUSH3 0x461BCD PUSH1 0xE5 SHL DUP2 MSTORE PUSH1 0x20 PUSH1 0x4 DUP3 ADD MSTORE PUSH1 0x21 PUSH1 0x24 DUP3 ADD MSTORE PUSH32 0x455243333532353A206D696E7420746F20746865207A65726F20616464726573 PUSH1 0x44 DUP3 ADD MSTORE PUSH1 0x73 PUSH1 0xF8 SHL PUSH1 0x64 DUP3 ADD MSTORE PUSH1 0x84 ADD JUMPDEST PUSH1 0x40 MLOAD DUP1 SWAP2 SUB SWAP1 REVERT JUMPDEST DUP3 PUSH0 SUB PUSH2 0x8CD JUMPI PUSH1 0x40 MLOAD PUSH3 0x461BCD PUSH1 0xE5 SHL DUP2 MSTORE PUSH1 0x20 PUSH1 0x4 DUP3 ADD MSTORE PUSH1 0x21 PUSH1 0x24 DUP3 ADD MSTORE PUSH32 0x455243333532353A2063616E6E6F74206D696E74207A65726F20746F6B656E49 PUSH1 0x44 DUP3 ADD MSTORE PUSH1 0x19 PUSH1 0xFA SHL PUSH1 0x64 DUP3 ADD MSTORE PUSH1 0x84 ADD PUSH2 0x86B JUMP JUMPDEST PUSH2 0x8D6 DUP4 PUSH2 0x19A4 JUMP JUMPDEST ISZERO PUSH2 0x923 JUMPI PUSH1 0x40 MLOAD PUSH3 0x461BCD PUSH1 0xE5 SHL DUP2 MSTORE PUSH1 0x20 PUSH1 0x4 DUP3 ADD MSTORE PUSH1 0x1D PUSH1 0x24 DUP3 ADD MSTORE PUSH32 0x455243333532353A20746F6B656E20616C7265616479206D696E746564000000 PUSH1 0x44 DUP3 ADD MSTORE PUSH1 0x64 ADD PUSH2 0x86B JUMP JUMPDEST PUSH2 0x92E DUP5 DUP5 DUP5 PUSH2 0x19F3 JUMP JUMPDEST PUSH2 0x938 DUP4 DUP3 PUSH2 0x1AB6 JUMP JUMPDEST POP POP POP POP JUMP JUMPDEST PUSH0 PUSH1 0x1 PUSH1 0x1 PUSH1 0xE0 SHL SUB NOT DUP3 AND PUSH4 0x1FFC9A7 PUSH1 0xE0 SHL EQ DUP1 PUSH2 0x96E JUMPI POP PUSH1 0x1 PUSH1 0x1 PUSH1 0xE0 SHL SUB NOT DUP3 AND PUSH4 0x354D605 PUSH1 0xE6 SHL EQ JUMPDEST DUP1 PUSH2 0x989 JUMPI POP PUSH1 0x1 PUSH1 0x1 PUSH1 0xE0 SHL SUB NOT DUP3 AND PUSH4 0x80AC58CD PUSH1 0xE0 SHL EQ JUMPDEST DUP1 PUSH2 0x9A4 JUMPI POP PUSH1 0x1 PUSH1 0x1 PUSH1 0xE0 SHL SUB NOT DUP3 AND PUSH4 0x70B00481 PUSH1 0xE1 SHL EQ JUMPDEST DUP1 PUSH2 0x9BF JUMPI POP PUSH1 0x1 PUSH1 0x1 PUSH1 0xE0 SHL SUB NOT DUP3 AND PUSH4 0x780E9D63 PUSH1 0xE0 SHL EQ JUMPDEST DUP1 PUSH2 0x9DA JUMPI POP PUSH1 0x1 PUSH1 0x1 PUSH1 0xE0 SHL SUB NOT DUP3 AND PUSH4 0x5B5E139F PUSH1 0xE0 SHL EQ JUMPDEST SWAP3 SWAP2 POP POP JUMP JUMPDEST PUSH1 0x60 PUSH1 0x3C DUP1 SLOAD PUSH2 0x9EF SWAP1 PUSH2 0x37B5 JUMP JUMPDEST DUP1 PUSH1 0x1F ADD PUSH1 0x20 DUP1 SWAP2 DIV MUL PUSH1 0x20 ADD PUSH1 0x40 MLOAD SWAP1 DUP2 ADD PUSH1 0x40 MSTORE DUP1 SWAP3 SWAP2 SWAP1 DUP2 DUP2 MSTORE PUSH1 0x20 ADD DUP3 DUP1 SLOAD PUSH2 0xA1B SWAP1 PUSH2 0x37B5 JUMP JUMPDEST DUP1 ISZERO PUSH2 0xA66 JUMPI DUP1 PUSH1 0x1F LT PUSH2 0xA3D JUMPI PUSH2 0x100 DUP1 DUP4 SLOAD DIV MUL DUP4 MSTORE SWAP2 PUSH1 0x20 ADD SWAP2 PUSH2 0xA66 JUMP JUMPDEST DUP3 ADD SWAP2 SWAP1 PUSH0 MSTORE PUSH1 0x20 PUSH0 KECCAK256 SWAP1 JUMPDEST DUP2 SLOAD DUP2 MSTORE SWAP1 PUSH1 0x1 ADD SWAP1 PUSH1 0x20 ADD DUP1 DUP4 GT PUSH2 0xA49 JUMPI DUP3 SWAP1 SUB PUSH1 0x1F AND DUP3 ADD SWAP2 JUMPDEST POP POP POP POP POP SWAP1 POP SWAP1 JUMP JUMPDEST PUSH0 PUSH2 0xA7A DUP3 PUSH2 0x1B36 JUMP JUMPDEST PUSH0 DUP3 DUP2 MSTORE PUSH1 0x47 PUSH1 0x20 MSTORE PUSH1 0x40 SWAP1 KECCAK256 SLOAD PUSH1 0x46 DUP1 SLOAD SWAP1 SWAP2 SWAP1 DUP2 LT PUSH2 0xA9D JUMPI PUSH2 0xA9D PUSH2 0x37ED JUMP JUMPDEST PUSH0 SWAP2 DUP3 MSTORE PUSH1 0x20 SWAP1 SWAP2 KECCAK256 PUSH1 0x4 PUSH1 0x6 SWAP1 SWAP3 MUL ADD ADD SLOAD PUSH1 0x1 PUSH1 0x1 PUSH1 0xA0 SHL SUB AND SWAP3 SWAP2 POP POP JUMP JUMPDEST PUSH0 PUSH2 0xAC9 DUP3 PUSH2 0x10AF JUMP JUMPDEST SWAP1 POP DUP1 PUSH1 0x1 PUSH1 0x1 PUSH1 0xA0 SHL SUB AND DUP4 PUSH1 0x1 PUSH1 0x1 PUSH1 0xA0 SHL SUB AND SUB PUSH2 0xAFC JUMPI PUSH1 0x40 MLOAD PUSH3 0x461BCD PUSH1 0xE5 SHL DUP2 MSTORE PUSH1 0x4 ADD PUSH2 0x86B SWAP1 PUSH2 0x3801 JUMP JUMPDEST CALLER PUSH1 0x1 PUSH1 0x1 PUSH1 0xA0 SHL SUB DUP3 AND EQ DUP1 PUSH2 0xB18 JUMPI POP PUSH2 0xB18 DUP2 CALLER PUSH2 0x7BF JUMP JUMPDEST PUSH2 0xB8A JUMPI PUSH1 0x40 MLOAD PUSH3 0x461BCD PUSH1 0xE5 SHL DUP2 MSTORE PUSH1 0x20 PUSH1 0x4 DUP3 ADD MSTORE PUSH1 0x39 PUSH1 0x24 DUP3 ADD MSTORE PUSH32 0x455243333532353A20617070726F76652063616C6C6572206973206E6F74206F PUSH1 0x44 DUP3 ADD MSTORE PUSH32 0x776E6572206E6F7220617070726F76656420666F7220616C6C00000000000000 PUSH1 0x64 DUP3 ADD MSTORE PUSH1 0x84 ADD PUSH2 0x86B JUMP JUMPDEST PUSH2 0xB94 DUP4 DUP4 PUSH2 0x1B87 JUMP JUMPDEST POP POP POP JUMP JUMPDEST PUSH1 0x60 PUSH0 PUSH2 0xBB0 PUSH1 0x40 DUP1 MLOAD PUSH1 0x20 DUP2 ADD SWAP1 SWAP2 MSTORE PUSH0 DUP2 MSTORE SWAP1 JUMP JUMPDEST PUSH1 0x49 SLOAD SWAP1 SWAP2 POP PUSH1 0x1 PUSH1 0x1 PUSH1 0xA0 SHL SUB AND PUSH2 0xC0E JUMPI PUSH0 DUP2 MLOAD GT PUSH2 0xBDF JUMPI PUSH1 0x40 MLOAD DUP1 PUSH1 0x20 ADD PUSH1 0x40 MSTORE DUP1 PUSH0 DUP2 MSTORE POP PUSH2 0xC7B JUMP JUMPDEST DUP1 PUSH2 0xBE9 DUP5 PUSH2 0x1C1C JUMP JUMPDEST PUSH1 0x40 MLOAD PUSH1 0x20 ADD PUSH2 0xBFA SWAP3 SWAP2 SWAP1 PUSH2 0x385E JUMP JUMPDEST PUSH1 0x40 MLOAD PUSH1 0x20 DUP2 DUP4 SUB SUB DUP2 MSTORE SWAP1 PUSH1 0x40 MSTORE PUSH2 0xC7B JUMP JUMPDEST PUSH1 0x49 SLOAD PUSH1 0x40 MLOAD PUSH4 0x3601BFC5 PUSH1 0xE1 SHL DUP2 MSTORE PUSH1 0x4 DUP2 ADD DUP6 SWAP1 MSTORE PUSH1 0x1 PUSH1 0x1 PUSH1 0xA0 SHL SUB SWAP1 SWAP2 AND SWAP1 PUSH4 0x6C037F8A SWAP1 PUSH1 0x24 ADD PUSH0 PUSH1 0x40 MLOAD DUP1 DUP4 SUB DUP2 DUP7 GAS STATICCALL ISZERO DUP1 ISZERO PUSH2 0xC54 JUMPI RETURNDATASIZE PUSH0 DUP1 RETURNDATACOPY RETURNDATASIZE PUSH0 REVERT JUMPDEST POP POP POP POP PUSH1 0x40 MLOAD RETURNDATASIZE PUSH0 DUP3 RETURNDATACOPY PUSH1 0x1F RETURNDATASIZE SWAP1 DUP2 ADD PUSH1 0x1F NOT AND DUP3 ADD PUSH1 0x40 MSTORE PUSH2 0xC7B SWAP2 SWAP1 DUP2 ADD SWAP1 PUSH2 0x389D JUMP JUMPDEST SWAP4 SWAP3 POP POP POP JUMP JUMPDEST PUSH0 PUSH2 0xC8E CALLER DUP6 DUP5 PUSH2 0x1CAC JUMP JUMPDEST PUSH2 0xC97 DUP5 PUSH2 0x1D3A JUMP JUMPDEST SWAP1 POP PUSH2 0xCAD DUP4 DUP3 PUSH2 0xCA7 DUP8 PUSH2 0xE13 JUMP JUMPDEST PUSH0 PUSH2 0x80F JUMP JUMPDEST PUSH2 0xC7B DUP5 DUP3 DUP5 PUSH2 0x1D43 JUMP JUMPDEST PUSH0 PUSH2 0xCC2 DUP4 PUSH2 0x10AF JUMP JUMPDEST SWAP1 POP PUSH0 PUSH2 0xCCE DUP5 PUSH2 0xE13 JUMP JUMPDEST SWAP1 POP PUSH2 0xCDA DUP5 DUP5 PUSH2 0x1AB6 JUMP JUMPDEST PUSH2 0x938 JUMP JUMPDEST PUSH0 PUSH2 0x9DA PUSH1 0x3B DUP4 PUSH2 0x2030 JUMP JUMPDEST PUSH2 0xCF5 CALLER DUP3 PUSH2 0x20B1 JUMP JUMPDEST PUSH2 0xD11 JUMPI PUSH1 0x40 MLOAD PUSH3 0x461BCD PUSH1 0xE5 SHL DUP2 MSTORE PUSH1 0x4 ADD PUSH2 0x86B SWAP1 PUSH2 0x390F JUMP JUMPDEST PUSH1 0x8 SLOAD PUSH1 0x40 MLOAD PUSH4 0xB9209E33 PUSH1 0xE0 SHL DUP2 MSTORE PUSH1 0x1 PUSH1 0x1 PUSH1 0xA0 SHL SUB DUP5 DUP2 AND PUSH1 0x4 DUP4 ADD MSTORE PUSH2 0x100 SWAP1 SWAP3 DIV SWAP1 SWAP2 AND SWAP1 PUSH4 0xB9209E33 SWAP1 PUSH1 0x24 ADD PUSH1 0x20 PUSH1 0x40 MLOAD DUP1 DUP4 SUB DUP2 DUP7 GAS STATICCALL ISZERO DUP1 ISZERO PUSH2 0xD5F JUMPI RETURNDATASIZE PUSH0 DUP1 RETURNDATACOPY RETURNDATASIZE PUSH0 REVERT JUMPDEST POP POP POP POP PUSH1 0x40 MLOAD RETURNDATASIZE PUSH1 0x1F NOT PUSH1 0x1F DUP3 ADD AND DUP3 ADD DUP1 PUSH1 0x40 MSTORE POP DUP2 ADD SWAP1 PUSH2 0xD83 SWAP2 SWAP1 PUSH2 0x3961 JUMP JUMPDEST DUP1 ISZERO PUSH2 0xE03 JUMPI POP PUSH1 0x9 SLOAD PUSH1 0x40 MLOAD PUSH4 0x72331C73 PUSH1 0xE1 SHL DUP2 MSTORE CALLER PUSH1 0x4 DUP3 ADD MSTORE PUSH1 0x1 PUSH1 0x1 PUSH1 0xA0 SHL SUB DUP5 DUP2 AND PUSH1 0x24 DUP4 ADD MSTORE PUSH1 0x1 PUSH1 0x44 DUP4 ADD MSTORE SWAP1 SWAP2 AND SWAP1 PUSH4 0xE46638E6 SWAP1 PUSH1 0x64 ADD PUSH1 0x20 PUSH1 0x40 MLOAD DUP1 DUP4 SUB DUP2 DUP7 GAS STATICCALL ISZERO DUP1 ISZERO PUSH2 0xDDF JUMPI RETURNDATASIZE PUSH0 DUP1 RETURNDATACOPY RETURNDATASIZE PUSH0 REVERT JUMPDEST POP POP POP POP PUSH1 0x40 MLOAD RETURNDATASIZE PUSH1 0x1F NOT PUSH1 0x1F DUP3 ADD AND DUP3 ADD DUP1 PUSH1 0x40 MSTORE POP DUP2 ADD SWAP1 PUSH2 0xE03 SWAP2 SWAP1 PUSH2 0x3961 JUMP JUMPDEST ISZERO PUSH2 0xB94 JUMPI PUSH2 0xB94 DUP4 DUP4 DUP4 PUSH2 0x2132 JUMP JUMPDEST PUSH0 PUSH2 0xE1D DUP3 PUSH2 0x1B36 JUMP JUMPDEST PUSH0 DUP3 DUP2 MSTORE PUSH1 0x47 PUSH1 0x20 MSTORE PUSH1 0x40 SWAP1 KECCAK256 SLOAD PUSH1 0x46 DUP1 SLOAD SWAP1 SWAP2 SWAP1 DUP2 LT PUSH2 0xE40 JUMPI PUSH2 0xE40 PUSH2 0x37ED JUMP JUMPDEST SWAP1 PUSH0 MSTORE PUSH1 0x20 PUSH0 KECCAK256 SWAP1 PUSH1 0x6 MUL ADD PUSH1 0x1 ADD SLOAD SWAP1 POP SWAP2 SWAP1 POP JUMP JUMPDEST PUSH0 PUSH2 0xE61 DUP3 PUSH2 0x2290 JUMP JUMPDEST PUSH2 0xEB8 JUMPI PUSH1 0x40 MLOAD PUSH3 0x461BCD PUSH1 0xE5 SHL DUP2 MSTORE PUSH1 0x20 PUSH1 0x4 DUP3 ADD MSTORE PUSH1 0x22 PUSH1 0x24 DUP3 ADD MSTORE PUSH32 0x4C656173696E67436F6E74726163743A204E6F6E6578697374656E7420746F6B PUSH1 0x44 DUP3 ADD MSTORE PUSH2 0x32B7 PUSH1 0xF1 SHL PUSH1 0x64 DUP3 ADD MSTORE PUSH1 0x84 ADD PUSH2 0x86B JUMP JUMPDEST POP PUSH0 SWAP1 DUP2 MSTORE PUSH1 0x45 PUSH1 0x20 MSTORE PUSH1 0x40 SWAP1 KECCAK256 SLOAD SWAP1 JUMP JUMPDEST PUSH0 PUSH2 0xED4 DUP4 PUSH2 0x11A4 JUMP JUMPDEST DUP3 LT PUSH2 0xF2D JUMPI PUSH1 0x40 MLOAD PUSH3 0x461BCD PUSH1 0xE5 SHL DUP2 MSTORE PUSH1 0x20 PUSH1 0x4 DUP3 ADD MSTORE PUSH1 0x22 PUSH1 0x24 DUP3 ADD MSTORE PUSH32 0x455243333532353A206F776E657220696E646578206F7574206F6620626F756E PUSH1 0x44 DUP3 ADD MSTORE PUSH2 0x6473 PUSH1 0xF0 SHL PUSH1 0x64 DUP3 ADD MSTORE PUSH1 0x84 ADD PUSH2 0x86B JUMP JUMPDEST PUSH1 0x1 PUSH1 0x1 PUSH1 0xA0 SHL SUB DUP4 AND PUSH0 SWAP1 DUP2 MSTORE PUSH1 0x48 PUSH1 0x20 MSTORE PUSH1 0x40 SWAP1 KECCAK256 DUP1 SLOAD DUP4 SWAP1 DUP2 LT PUSH2 0xF56 JUMPI PUSH2 0xF56 PUSH2 0x37ED JUMP JUMPDEST SWAP1 PUSH0 MSTORE PUSH1 0x20 PUSH0 KECCAK256 ADD SLOAD SWAP1 POP SWAP3 SWAP2 POP POP JUMP JUMPDEST PUSH2 0xF72 CALLER DUP5 DUP4 PUSH2 0x1CAC JUMP JUMPDEST PUSH2 0xB94 DUP4 DUP4 DUP4 PUSH2 0x1D43 JUMP JUMPDEST PUSH2 0xF86 DUP3 PUSH2 0x2290 JUMP JUMPDEST PUSH2 0xFA2 JUMPI PUSH1 0x40 MLOAD PUSH3 0x461BCD PUSH1 0xE5 SHL DUP2 MSTORE PUSH1 0x4 ADD PUSH2 0x86B SWAP1 PUSH2 0x397C JUMP JUMPDEST PUSH0 SWAP2 DUP3 MSTORE PUSH1 0x41 PUSH1 0x20 MSTORE PUSH1 0x40 SWAP1 SWAP2 KECCAK256 SSTORE JUMP JUMPDEST PUSH2 0xB94 DUP4 DUP4 DUP4 PUSH1 0x40 MLOAD DUP1 PUSH1 0x20 ADD PUSH1 0x40 MSTORE DUP1 PUSH0 DUP2 MSTORE POP PUSH2 0x1720 JUMP JUMPDEST PUSH0 PUSH2 0xFD7 PUSH1 0x46 SLOAD SWAP1 JUMP JUMPDEST DUP3 LT PUSH2 0x1031 JUMPI PUSH1 0x40 MLOAD PUSH3 0x461BCD PUSH1 0xE5 SHL DUP2 MSTORE PUSH1 0x20 PUSH1 0x4 DUP3 ADD MSTORE PUSH1 0x23 PUSH1 0x24 DUP3 ADD MSTORE PUSH32 0x455243333532353A20676C6F62616C20696E646578206F7574206F6620626F75 PUSH1 0x44 DUP3 ADD MSTORE PUSH3 0x6E6473 PUSH1 0xE8 SHL PUSH1 0x64 DUP3 ADD MSTORE PUSH1 0x84 ADD PUSH2 0x86B JUMP JUMPDEST PUSH1 0x46 DUP3 DUP2 SLOAD DUP2 LT PUSH2 0x1044 JUMPI PUSH2 0x1044 PUSH2 0x37ED JUMP JUMPDEST SWAP1 PUSH0 MSTORE PUSH1 0x20 PUSH0 KECCAK256 SWAP1 PUSH1 0x6 MUL ADD PUSH0 ADD SLOAD SWAP1 POP SWAP2 SWAP1 POP JUMP JUMPDEST PUSH1 0x60 PUSH1 0x42 DUP1 SLOAD DUP1 PUSH1 0x20 MUL PUSH1 0x20 ADD PUSH1 0x40 MLOAD SWAP1 DUP2 ADD PUSH1 0x40 MSTORE DUP1 SWAP3 SWAP2 SWAP1 DUP2 DUP2 MSTORE PUSH1 0x20 ADD DUP3 DUP1 SLOAD DUP1 ISZERO PUSH2 0xA66 JUMPI PUSH1 0x20 MUL DUP3 ADD SWAP2 SWAP1 PUSH0 MSTORE PUSH1 0x20 PUSH0 KECCAK256 SWAP1 JUMPDEST DUP2 SLOAD DUP2 MSTORE PUSH1 0x20 ADD SWAP1 PUSH1 0x1 ADD SWAP1 DUP1 DUP4 GT PUSH2 0x1092 JUMPI POP POP POP POP POP SWAP1 POP SWAP1 JUMP JUMPDEST PUSH0 PUSH2 0x10B9 DUP3 PUSH2 0x1B36 JUMP JUMPDEST PUSH0 DUP3 DUP2 MSTORE PUSH1 0x47 PUSH1 0x20 MSTORE PUSH1 0x40 SWAP1 KECCAK256 SLOAD PUSH1 0x46 DUP1 SLOAD SWAP1 SWAP2 SWAP1 DUP2 LT PUSH2 0x10DC JUMPI PUSH2 0x10DC PUSH2 0x37ED JUMP JUMPDEST PUSH0 SWAP2 DUP3 MSTORE PUSH1 0x20 SWAP1 SWAP2 KECCAK256 PUSH1 0x3 PUSH1 0x6 SWAP1 SWAP3 MUL ADD ADD SLOAD PUSH1 0x1 PUSH1 0x1 PUSH1 0xA0 SHL SUB AND SWAP1 POP DUP1 PUSH2 0x1143 JUMPI PUSH1 0x40 MLOAD PUSH3 0x461BCD PUSH1 0xE5 SHL DUP2 MSTORE PUSH1 0x20 PUSH1 0x4 DUP3 ADD MSTORE PUSH1 0x19 PUSH1 0x24 DUP3 ADD MSTORE PUSH25 0x115490CCCD4C8D4E881A5B9D985B1A59081D1BDAD95B881251 PUSH1 0x3A SHL PUSH1 0x44 DUP3 ADD MSTORE PUSH1 0x64 ADD PUSH2 0x86B JUMP JUMPDEST SWAP2 SWAP1 POP JUMP JUMPDEST PUSH2 0x1151 DUP3 PUSH2 0x2290 JUMP JUMPDEST PUSH2 0x1193 JUMPI PUSH1 0x40 MLOAD PUSH3 0x461BCD PUSH1 0xE5 SHL DUP2 MSTORE PUSH1 0x20 PUSH1 0x4 DUP3 ADD MSTORE PUSH1 0x13 PUSH1 0x24 DUP3 ADD MSTORE PUSH19 0x105CDCD95D08191BD95CDB89DD08195E1A5CDD PUSH1 0x6A SHL PUSH1 0x44 DUP3 ADD MSTORE PUSH1 0x64 ADD PUSH2 0x86B JUMP JUMPDEST PUSH0 SWAP2 DUP3 MSTORE PUSH1 0x45 PUSH1 0x20 MSTORE PUSH1 0x40 SWAP1 SWAP2 KECCAK256 SSTORE JUMP JUMPDEST PUSH0 PUSH1 0x1 PUSH1 0x1 PUSH1 0xA0 SHL SUB DUP3 AND PUSH2 0x120F JUMPI PUSH1 0x40 MLOAD PUSH3 0x461BCD PUSH1 0xE5 SHL DUP2 MSTORE PUSH1 0x20 PUSH1 0x4 DUP3 ADD MSTORE PUSH1 0x2B PUSH1 0x24 DUP3 ADD MSTORE PUSH32 0x455243333532353A2062616C616E636520717565727920666F7220746865207A PUSH1 0x44 DUP3 ADD MSTORE PUSH11 0x65726F2061646472657373 PUSH1 0xA8 SHL PUSH1 0x64 DUP3 ADD MSTORE PUSH1 0x84 ADD PUSH2 0x86B JUMP JUMPDEST POP PUSH1 0x1 PUSH1 0x1 PUSH1 0xA0 SHL SUB AND PUSH0 SWAP1 DUP2 MSTORE PUSH1 0x48 PUSH1 0x20 MSTORE PUSH1 0x40 SWAP1 KECCAK256 SLOAD SWAP1 JUMP JUMPDEST PUSH2 0x1232 PUSH2 0x22E2 JUMP JUMPDEST PUSH2 0x123B PUSH0 PUSH2 0x233D JUMP JUMPDEST JUMP JUMPDEST PUSH0 PUSH2 0x1247 DUP4 PUSH2 0x2290 JUMP JUMPDEST PUSH2 0x1263 JUMPI PUSH1 0x40 MLOAD PUSH3 0x461BCD PUSH1 0xE5 SHL DUP2 MSTORE PUSH1 0x4 ADD PUSH2 0x86B SWAP1 PUSH2 0x397C JUMP JUMPDEST PUSH0 DUP4 DUP2 MSTORE PUSH1 0x41 PUSH1 0x20 SWAP1 DUP2 MSTORE PUSH1 0x40 DUP1 DUP4 KECCAK256 SLOAD SWAP2 DUP2 SWAP1 MSTORE SWAP1 SWAP2 KECCAK256 SLOAD PUSH2 0x1287 SWAP1 DUP5 SWAP1 PUSH2 0x39D1 JUMP JUMPDEST GT ISZERO PUSH2 0x12D5 JUMPI PUSH1 0x40 MLOAD PUSH3 0x461BCD PUSH1 0xE5 SHL DUP2 MSTORE PUSH1 0x20 PUSH1 0x4 DUP3 ADD MSTORE PUSH1 0x18 PUSH1 0x24 DUP3 ADD MSTORE PUSH32 0x455243333532353A20546F6B656E7320736F6C64206F75740000000000000000 PUSH1 0x44 DUP3 ADD MSTORE PUSH1 0x64 ADD PUSH2 0x86B JUMP JUMPDEST PUSH2 0x12DD PUSH2 0x23AD JUMP JUMPDEST SWAP1 POP PUSH2 0x12EB DUP5 DUP3 DUP6 DUP6 PUSH2 0x80F JUMP JUMPDEST PUSH0 DUP4 DUP2 MSTORE PUSH1 0x43 PUSH1 0x20 MSTORE PUSH1 0x40 SWAP1 KECCAK256 DUP1 SLOAD PUSH2 0x138A SWAP2 DUP4 SWAP2 PUSH2 0x1309 SWAP1 PUSH2 0x37B5 JUMP JUMPDEST DUP1 PUSH1 0x1F ADD PUSH1 0x20 DUP1 SWAP2 DIV MUL PUSH1 0x20 ADD PUSH1 0x40 MLOAD SWAP1 DUP2 ADD PUSH1 0x40 MSTORE DUP1 SWAP3 SWAP2 SWAP1 DUP2 DUP2 MSTORE PUSH1 0x20 ADD DUP3 DUP1 SLOAD PUSH2 0x1335 SWAP1 PUSH2 0x37B5 JUMP JUMPDEST DUP1 ISZERO PUSH2 0x1380 JUMPI DUP1 PUSH1 0x1F LT PUSH2 0x1357 JUMPI PUSH2 0x100 DUP1 DUP4 SLOAD DIV MUL DUP4 MSTORE SWAP2 PUSH1 0x20 ADD SWAP2 PUSH2 0x1380 JUMP JUMPDEST DUP3 ADD SWAP2 SWAP1 PUSH0 MSTORE PUSH1 0x20 PUSH0 KECCAK256 SWAP1 JUMPDEST DUP2 SLOAD DUP2 MSTORE SWAP1 PUSH1 0x1 ADD SWAP1 PUSH1 0x20 ADD DUP1 DUP4 GT PUSH2 0x1363 JUMPI DUP3 SWAP1 SUB PUSH1 0x1F AND DUP3 ADD SWAP2 JUMPDEST POP POP POP POP POP PUSH2 0x23C6 JUMP JUMPDEST PUSH0 DUP4 DUP2 MSTORE PUSH1 0x40 PUSH1 0x20 DUP2 SWAP1 MSTORE DUP2 KECCAK256 DUP1 SLOAD DUP5 SWAP3 SWAP1 PUSH2 0x13A7 SWAP1 DUP5 SWAP1 PUSH2 0x39D1 JUMP JUMPDEST SWAP1 SWAP2 SSTORE POP SWAP1 SWAP5 SWAP4 POP POP POP POP JUMP JUMPDEST PUSH2 0x13BC PUSH2 0x22E2 JUMP JUMPDEST PUSH1 0x1 PUSH1 0x1 PUSH1 0xA0 SHL SUB DUP2 AND PUSH2 0x1412 JUMPI PUSH1 0x40 MLOAD PUSH3 0x461BCD PUSH1 0xE5 SHL DUP2 MSTORE PUSH1 0x20 PUSH1 0x4 DUP3 ADD MSTORE PUSH1 0x1F PUSH1 0x24 DUP3 ADD MSTORE PUSH32 0x696E76616C696420617267756D656E74202D207A65726F206164647265737300 PUSH1 0x44 DUP3 ADD MSTORE PUSH1 0x64 ADD PUSH2 0x86B JUMP JUMPDEST PUSH2 0x141D PUSH1 0x3B DUP3 PUSH2 0x2440 JUMP JUMPDEST PUSH1 0x40 MLOAD PUSH1 0x1 PUSH1 0x1 PUSH1 0xA0 SHL SUB DUP3 AND SWAP1 PUSH32 0xF68E73CEC97F2D70AA641FB26E87A4383686E2EFACB648F2165AEB02AC562EC5 SWAP1 PUSH0 SWAP1 LOG2 POP JUMP JUMPDEST PUSH0 PUSH2 0x145D DUP5 PUSH2 0x10AF JUMP JUMPDEST SWAP1 POP DUP1 PUSH1 0x1 PUSH1 0x1 PUSH1 0xA0 SHL SUB AND DUP4 PUSH1 0x1 PUSH1 0x1 PUSH1 0xA0 SHL SUB AND SUB PUSH2 0x1490 JUMPI PUSH1 0x40 MLOAD PUSH3 0x461BCD PUSH1 0xE5 SHL DUP2 MSTORE PUSH1 0x4 ADD PUSH2 0x86B SWAP1 PUSH2 0x3801 JUMP JUMPDEST PUSH2 0x149A CALLER DUP6 PUSH2 0x20B1 JUMP JUMPDEST PUSH2 0x1500 JUMPI PUSH1 0x40 MLOAD PUSH3 0x461BCD PUSH1 0xE5 SHL DUP2 MSTORE PUSH1 0x20 PUSH1 0x4 DUP3 ADD MSTORE PUSH1 0x31 PUSH1 0x24 DUP3 ADD MSTORE PUSH32 0x455243333532353A20617070726F76652063616C6C6572206973206E6F74206F PUSH1 0x44 DUP3 ADD MSTORE PUSH17 0x1DDB995C881B9BDC88185C1C1C9BDD9959 PUSH1 0x7A SHL PUSH1 0x64 DUP3 ADD MSTORE PUSH1 0x84 ADD PUSH2 0x86B JUMP JUMPDEST PUSH2 0x938 DUP5 DUP5 DUP5 PUSH2 0x24BB JUMP JUMPDEST PUSH0 PUSH2 0x1515 DUP4 PUSH2 0x2290 JUMP JUMPDEST ISZERO PUSH2 0x156C JUMPI PUSH1 0x40 MLOAD PUSH3 0x461BCD PUSH1 0xE5 SHL DUP2 MSTORE PUSH1 0x20 PUSH1 0x4 DUP3 ADD MSTORE PUSH1 0x21 PUSH1 0x24 DUP3 ADD MSTORE PUSH32 0x455243333532353A20417373657420616C726561647920726567697374657265 PUSH1 0x44 DUP3 ADD MSTORE PUSH1 0x19 PUSH1 0xFA SHL PUSH1 0x64 DUP3 ADD MSTORE PUSH1 0x84 ADD PUSH2 0x86B JUMP JUMPDEST PUSH0 DUP4 DUP2 MSTORE PUSH1 0x43 PUSH1 0x20 MSTORE PUSH1 0x40 SWAP1 KECCAK256 DUP1 SLOAD PUSH2 0x1584 SWAP1 PUSH2 0x37B5 JUMP JUMPDEST SWAP1 POP PUSH0 SUB PUSH2 0x1596 JUMPI PUSH2 0x1596 DUP4 DUP4 PUSH2 0x25F0 JUMP JUMPDEST PUSH2 0x159E PUSH2 0x23AD JUMP JUMPDEST SWAP1 POP PUSH2 0x15AC DUP5 DUP3 DUP6 PUSH0 PUSH2 0x80F JUMP JUMPDEST PUSH2 0x15B5 DUP4 PUSH2 0x2607 JUMP JUMPDEST PUSH0 DUP4 DUP2 MSTORE PUSH1 0x43 PUSH1 0x20 MSTORE PUSH1 0x40 SWAP1 KECCAK256 DUP1 SLOAD PUSH2 0xC7B SWAP2 DUP4 SWAP2 PUSH2 0x1309 SWAP1 PUSH2 0x37B5 JUMP JUMPDEST PUSH1 0x60 PUSH1 0x3D DUP1 SLOAD PUSH2 0x9EF SWAP1 PUSH2 0x37B5 JUMP JUMPDEST PUSH2 0x15EA PUSH2 0x22E2 JUMP JUMPDEST PUSH1 0x1 PUSH1 0x1 PUSH1 0xA0 SHL SUB DUP2 AND PUSH2 0x1640 JUMPI PUSH1 0x40 MLOAD PUSH3 0x461BCD PUSH1 0xE5 SHL DUP2 MSTORE PUSH1 0x20 PUSH1 0x4 DUP3 ADD MSTORE PUSH1 0x1F PUSH1 0x24 DUP3 ADD MSTORE PUSH32 0x696E76616C696420617267756D656E74202D207A65726F206164647265737300 PUSH1 0x44 DUP3 ADD MSTORE PUSH1 0x64 ADD PUSH2 0x86B JUMP JUMPDEST PUSH2 0x164B PUSH1 0x3B DUP3 PUSH2 0x264F JUMP JUMPDEST PUSH1 0x40 MLOAD PUSH1 0x1 PUSH1 0x1 PUSH1 0xA0 SHL SUB DUP3 AND SWAP1 PUSH32 0xED9C8AD8D5A0A66898EA49D2956929C93AE2E8BD50281B2ED897C5D1A6737E0B SWAP1 PUSH0 SWAP1 LOG2 POP JUMP JUMPDEST PUSH0 PUSH2 0x168B DUP3 PUSH2 0x1B36 JUMP JUMPDEST PUSH0 DUP3 DUP2 MSTORE PUSH1 0x47 PUSH1 0x20 MSTORE PUSH1 0x40 SWAP1 KECCAK256 SLOAD PUSH1 0x46 DUP1 SLOAD SWAP1 SWAP2 SWAP1 DUP2 LT PUSH2 0x16AE JUMPI PUSH2 0x16AE PUSH2 0x37ED JUMP JUMPDEST SWAP1 PUSH0 MSTORE PUSH1 0x20 PUSH0 KECCAK256 SWAP1 PUSH1 0x6 MUL ADD PUSH1 0x2 ADD SLOAD SWAP1 POP SWAP2 SWAP1 POP JUMP JUMPDEST PUSH2 0x16D0 CALLER DUP4 DUP4 PUSH2 0x26D0 JUMP JUMPDEST POP POP JUMP JUMPDEST PUSH1 0x46 DUP2 DUP2 SLOAD DUP2 LT PUSH2 0x16E3 JUMPI PUSH0 DUP1 REVERT JUMPDEST PUSH0 SWAP2 DUP3 MSTORE PUSH1 0x20 SWAP1 SWAP2 KECCAK256 PUSH1 0x6 SWAP1 SWAP2 MUL ADD DUP1 SLOAD PUSH1 0x1 DUP3 ADD SLOAD PUSH1 0x2 DUP4 ADD SLOAD PUSH1 0x3 DUP5 ADD SLOAD PUSH1 0x4 SWAP1 SWAP5 ADD SLOAD SWAP3 SWAP5 POP SWAP1 SWAP3 SWAP1 SWAP2 PUSH1 0x1 PUSH1 0x1 PUSH1 0xA0 SHL SUB SWAP2 DUP3 AND SWAP2 AND DUP6 JUMP JUMPDEST PUSH2 0x172A CALLER DUP4 PUSH2 0x20B1 JUMP JUMPDEST PUSH2 0x1746 JUMPI PUSH1 0x40 MLOAD PUSH3 0x461BCD PUSH1 0xE5 SHL DUP2 MSTORE PUSH1 0x4 ADD PUSH2 0x86B SWAP1 PUSH2 0x390F JUMP JUMPDEST PUSH2 0x938 DUP5 DUP5 DUP5 DUP5 PUSH2 0x2799 JUMP JUMPDEST PUSH1 0x60 PUSH0 PUSH2 0x175E DUP4 PUSH2 0xE13 JUMP JUMPDEST SWAP1 POP PUSH0 PUSH2 0x176A DUP5 PUSH2 0x1681 JUMP JUMPDEST SWAP1 POP PUSH0 PUSH2 0x1776 DUP3 PUSH2 0x1C1C JUMP JUMPDEST PUSH2 0x177F DUP7 PUSH2 0x1C1C JUMP JUMPDEST PUSH2 0x1788 DUP6 PUSH2 0x1C1C JUMP JUMPDEST PUSH1 0x40 MLOAD PUSH1 0x20 ADD PUSH2 0x179A SWAP4 SWAP3 SWAP2 SWAP1 PUSH2 0x39E4 JUMP JUMPDEST PUSH1 0x40 DUP1 MLOAD PUSH1 0x1F NOT DUP2 DUP5 SUB ADD DUP2 MSTORE SWAP2 SWAP1 MSTORE SWAP1 POP DUP1 PUSH0 PUSH2 0x17B7 DUP3 PUSH2 0x280C JUMP JUMPDEST PUSH1 0x40 MLOAD PUSH1 0x20 ADD PUSH2 0x17C7 SWAP2 SWAP1 PUSH2 0x3C87 JUMP JUMPDEST PUSH1 0x40 DUP1 MLOAD PUSH1 0x1F NOT DUP2 DUP5 SUB ADD DUP2 MSTORE SWAP2 SWAP1 MSTORE SWAP8 SWAP7 POP POP POP POP POP POP POP JUMP JUMPDEST PUSH1 0x60 PUSH2 0x181E PUSH2 0x17F0 DUP4 PUSH2 0x1C1C JUMP JUMPDEST PUSH2 0x17F9 DUP5 PUSH2 0x1752 JUMP JUMPDEST PUSH1 0x40 MLOAD PUSH1 0x20 ADD PUSH2 0x180A SWAP3 SWAP2 SWAP1 PUSH2 0x3CCB JUMP JUMPDEST PUSH1 0x40 MLOAD PUSH1 0x20 DUP2 DUP4 SUB SUB DUP2 MSTORE SWAP1 PUSH1 0x40 MSTORE PUSH2 0x280C JUMP JUMPDEST PUSH1 0x40 MLOAD PUSH1 0x20 ADD PUSH2 0x182E SWAP2 SWAP1 PUSH2 0x3D77 JUMP JUMPDEST PUSH1 0x40 MLOAD PUSH1 0x20 DUP2 DUP4 SUB SUB DUP2 MSTORE SWAP1 PUSH1 0x40 MSTORE SWAP1 POP SWAP2 SWAP1 POP JUMP JUMPDEST PUSH0 PUSH2 0x184E DUP4 PUSH2 0x1B36 JUMP JUMPDEST POP PUSH0 SWAP2 DUP3 MSTORE PUSH1 0x44 PUSH1 0x20 SWAP1 DUP2 MSTORE PUSH1 0x40 DUP1 DUP5 KECCAK256 PUSH1 0x1 PUSH1 0x1 PUSH1 0xA0 SHL SUB SWAP4 SWAP1 SWAP4 AND DUP5 MSTORE SWAP2 SWAP1 MSTORE SWAP1 KECCAK256 SLOAD SWAP1 JUMP JUMPDEST PUSH1 0x60 PUSH0 PUSH2 0x188D PUSH1 0x40 DUP1 MLOAD PUSH1 0x20 DUP2 ADD SWAP1 SWAP2 MSTORE PUSH0 DUP2 MSTORE SWAP1 JUMP JUMPDEST PUSH1 0x49 SLOAD SWAP1 SWAP2 POP PUSH1 0x1 PUSH1 0x1 PUSH1 0xA0 SHL SUB AND PUSH2 0x18EB JUMPI PUSH0 DUP2 MLOAD GT PUSH2 0x18BC JUMPI PUSH1 0x40 MLOAD DUP1 PUSH1 0x20 ADD PUSH1 0x40 MSTORE DUP1 PUSH0 DUP2 MSTORE POP PUSH2 0x1961 JUMP JUMPDEST DUP1 PUSH2 0x18C6 ADDRESS PUSH2 0x295B JUMP JUMPDEST PUSH1 0x40 MLOAD PUSH1 0x20 ADD PUSH2 0x18D7 SWAP3 SWAP2 SWAP1 PUSH2 0x3DBB JUMP JUMPDEST PUSH1 0x40 MLOAD PUSH1 0x20 DUP2 DUP4 SUB SUB DUP2 MSTORE SWAP1 PUSH1 0x40 MSTORE PUSH2 0x1961 JUMP JUMPDEST PUSH1 0x49 PUSH0 SWAP1 SLOAD SWAP1 PUSH2 0x100 EXP SWAP1 DIV PUSH1 0x1 PUSH1 0x1 PUSH1 0xA0 SHL SUB AND PUSH1 0x1 PUSH1 0x1 PUSH1 0xA0 SHL SUB AND PUSH4 0x725FA09C PUSH1 0x40 MLOAD DUP2 PUSH4 0xFFFFFFFF AND PUSH1 0xE0 SHL DUP2 MSTORE PUSH1 0x4 ADD PUSH0 PUSH1 0x40 MLOAD DUP1 DUP4 SUB DUP2 DUP7 GAS STATICCALL ISZERO DUP1 ISZERO PUSH2 0x193A JUMPI RETURNDATASIZE PUSH0 DUP1 RETURNDATACOPY RETURNDATASIZE PUSH0 REVERT JUMPDEST POP POP POP POP PUSH1 0x40 MLOAD RETURNDATASIZE PUSH0 DUP3 RETURNDATACOPY PUSH1 0x1F RETURNDATASIZE SWAP1 DUP2 ADD PUSH1 0x1F NOT AND DUP3 ADD PUSH1 0x40 MSTORE PUSH2 0x1961 SWAP2 SWAP1 DUP2 ADD SWAP1 PUSH2 0x389D JUMP JUMPDEST SWAP2 POP POP SWAP1 JUMP JUMPDEST PUSH2 0x196F PUSH2 0x22E2 JUMP JUMPDEST PUSH1 0x1 PUSH1 0x1 PUSH1 0xA0 SHL SUB DUP2 AND PUSH2 0x1998 JUMPI PUSH1 0x40 MLOAD PUSH4 0x1E4FBDF7 PUSH1 0xE0 SHL DUP2 MSTORE PUSH0 PUSH1 0x4 DUP3 ADD MSTORE PUSH1 0x24 ADD PUSH2 0x86B JUMP JUMPDEST PUSH2 0x19A1 DUP2 PUSH2 0x233D JUMP JUMPDEST POP JUMP JUMPDEST PUSH1 0x46 SLOAD PUSH0 SWAP1 ISZERO DUP1 ISZERO SWAP1 PUSH2 0x9DA JUMPI POP PUSH0 DUP3 DUP2 MSTORE PUSH1 0x47 PUSH1 0x20 MSTORE PUSH1 0x40 SWAP1 KECCAK256 SLOAD PUSH1 0x46 DUP1 SLOAD DUP5 SWAP3 SWAP1 DUP2 LT PUSH2 0x19D5 JUMPI PUSH2 0x19D5 PUSH2 0x37ED JUMP JUMPDEST SWAP1 PUSH0 MSTORE PUSH1 0x20 PUSH0 KECCAK256 SWAP1 PUSH1 0x6 MUL ADD PUSH0 ADD SLOAD EQ SWAP3 SWAP2 POP POP JUMP JUMPDEST POP POP POP POP POP POP JUMP JUMPDEST PUSH1 0x40 DUP1 MLOAD PUSH1 0xC0 DUP2 ADD DUP3 MSTORE DUP4 DUP2 MSTORE PUSH1 0x20 DUP1 DUP3 ADD DUP5 SWAP1 MSTORE PUSH0 DUP3 DUP5 ADD DUP2 SWAP1 MSTORE PUSH1 0x1 PUSH1 0x1 PUSH1 0xA0 SHL SUB DUP8 AND PUSH1 0x60 DUP5 ADD MSTORE PUSH1 0x80 DUP4 ADD DUP2 SWAP1 MSTORE DUP4 MLOAD DUP2 DUP2 MSTORE SWAP2 DUP3 ADD SWAP1 SWAP4 MSTORE PUSH1 0xA0 DUP3 ADD MSTORE SWAP1 POP PUSH2 0x1A40 DUP2 PUSH2 0x2971 JUMP JUMPDEST PUSH2 0x1A4A DUP5 DUP5 PUSH2 0x2AC2 JUMP JUMPDEST PUSH1 0x40 MLOAD DUP4 SWAP1 PUSH1 0x1 PUSH1 0x1 PUSH1 0xA0 SHL SUB DUP7 AND SWAP1 PUSH0 SWAP1 PUSH32 0xDDF252AD1BE2C89B69C2B068FC378DAA952BA7F163C4A11628F55A4DF523B3EF SWAP1 DUP3 SWAP1 LOG4 DUP2 PUSH0 DUP5 PUSH32 0xE4F48C240D3B994948AA54F3E2F5FCA59263DFE1D52B6E4CF39A5D249B5CCB65 PUSH1 0x40 MLOAD PUSH1 0x40 MLOAD DUP1 SWAP2 SUB SWAP1 LOG4 POP POP POP POP JUMP JUMPDEST PUSH0 DUP3 DUP2 MSTORE PUSH1 0x47 PUSH1 0x20 MSTORE PUSH1 0x40 SWAP1 KECCAK256 SLOAD PUSH1 0x46 DUP1 SLOAD DUP4 SWAP3 SWAP1 DUP2 LT PUSH2 0x1AD9 JUMPI PUSH2 0x1AD9 PUSH2 0x37ED JUMP JUMPDEST SWAP1 PUSH0 MSTORE PUSH1 0x20 PUSH0 KECCAK256 SWAP1 PUSH1 0x6 MUL ADD PUSH1 0x2 ADD PUSH0 DUP3 DUP3 SLOAD PUSH2 0x1AF6 SWAP2 SWAP1 PUSH2 0x39D1 JUMP JUMPDEST SWAP1 SWAP2 SSTORE POP POP PUSH1 0x40 MLOAD DUP2 DUP2 MSTORE DUP3 SWAP1 PUSH0 SWAP1 PUSH32 0xB2AAC84F3EC956911FD78EAE5311062972FF949F38412E8DA39069D9F068CC6 SWAP1 PUSH1 0x20 ADD PUSH1 0x40 MLOAD DUP1 SWAP2 SUB SWAP1 LOG3 POP POP JUMP JUMPDEST PUSH2 0x1B3F DUP2 PUSH2 0x19A4 JUMP JUMPDEST PUSH2 0x19A1 JUMPI PUSH1 0x40 MLOAD PUSH3 0x461BCD PUSH1 0xE5 SHL DUP2 MSTORE PUSH1 0x20 PUSH1 0x4 DUP3 ADD MSTORE PUSH1 0x19 PUSH1 0x24 DUP3 ADD MSTORE PUSH25 0x115490CCCD4C8D4E881A5B9D985B1A59081D1BDAD95B881251 PUSH1 0x3A SHL PUSH1 0x44 DUP3 ADD MSTORE PUSH1 0x64 ADD PUSH2 0x86B JUMP JUMPDEST PUSH0 DUP2 DUP2 MSTORE PUSH1 0x47 PUSH1 0x20 MSTORE PUSH1 0x40 SWAP1 KECCAK256 SLOAD PUSH1 0x46 DUP1 SLOAD DUP5 SWAP3 SWAP1 DUP2 LT PUSH2 0x1BAA JUMPI PUSH2 0x1BAA PUSH2 0x37ED JUMP JUMPDEST PUSH0 SWAP2 DUP3 MSTORE PUSH1 0x20 SWAP1 SWAP2 KECCAK256 PUSH1 0x6 SWAP1 SWAP2 MUL ADD PUSH1 0x4 ADD DUP1 SLOAD PUSH1 0x1 PUSH1 0x1 PUSH1 0xA0 SHL SUB NOT AND PUSH1 0x1 PUSH1 0x1 PUSH1 0xA0 SHL SUB SWAP3 DUP4 AND OR SWAP1 SSTORE DUP2 SWAP1 DUP4 AND PUSH2 0x1BE3 DUP3 PUSH2 0x10AF JUMP JUMPDEST PUSH1 0x1 PUSH1 0x1 PUSH1 0xA0 SHL SUB AND PUSH32 0x8C5BE1E5EBEC7D5BD14F71427D1E84F3DD0314C0F7B2291E5B200AC8C7C3B925 PUSH1 0x40 MLOAD PUSH1 0x40 MLOAD DUP1 SWAP2 SUB SWAP1 LOG4 POP POP JUMP JUMPDEST PUSH1 0x60 PUSH0 PUSH2 0x1C28 DUP4 PUSH2 0x2B49 JUMP JUMPDEST PUSH1 0x1 ADD SWAP1 POP PUSH0 DUP2 PUSH8 0xFFFFFFFFFFFFFFFF DUP2 GT ISZERO PUSH2 0x1C47 JUMPI PUSH2 0x1C47 PUSH2 0x359D JUMP JUMPDEST PUSH1 0x40 MLOAD SWAP1 DUP1 DUP3 MSTORE DUP1 PUSH1 0x1F ADD PUSH1 0x1F NOT AND PUSH1 0x20 ADD DUP3 ADD PUSH1 0x40 MSTORE DUP1 ISZERO PUSH2 0x1C71 JUMPI PUSH1 0x20 DUP3 ADD DUP2 DUP1 CALLDATASIZE DUP4 CALLDATACOPY ADD SWAP1 POP JUMPDEST POP SWAP1 POP DUP2 DUP2 ADD PUSH1 0x20 ADD JUMPDEST PUSH0 NOT ADD PUSH16 0x181899199A1A9B1B9C1CB0B131B232B3 PUSH1 0x81 SHL PUSH1 0xA DUP7 MOD BYTE DUP2 MSTORE8 PUSH1 0xA DUP6 DIV SWAP5 POP DUP5 PUSH2 0x1C7B JUMPI POP SWAP4 SWAP3 POP POP POP JUMP JUMPDEST PUSH0 PUSH2 0x1CB7 DUP4 DUP6 PUSH2 0x1844 JUMP JUMPDEST SWAP1 POP PUSH2 0x1CC3 DUP5 DUP5 PUSH2 0x20B1 JUMP JUMPDEST ISZERO DUP1 ISZERO PUSH2 0x1CD1 JUMPI POP PUSH0 NOT DUP2 EQ ISZERO JUMPDEST ISZERO PUSH2 0x938 JUMPI DUP2 DUP2 LT ISZERO PUSH2 0x1D26 JUMPI PUSH1 0x40 MLOAD PUSH3 0x461BCD PUSH1 0xE5 SHL DUP2 MSTORE PUSH1 0x20 PUSH1 0x4 DUP3 ADD MSTORE PUSH1 0x1F PUSH1 0x24 DUP3 ADD MSTORE PUSH32 0x455243333532353A20696E73756666696369656E7420616C6C6F77616E636500 PUSH1 0x44 DUP3 ADD MSTORE PUSH1 0x64 ADD PUSH2 0x86B JUMP JUMPDEST PUSH2 0x938 DUP4 DUP6 PUSH2 0x1D35 DUP6 DUP6 PUSH2 0x3DFE JUMP JUMPDEST PUSH2 0x24BB JUMP JUMPDEST PUSH0 PUSH2 0x9DA PUSH2 0x23AD JUMP JUMPDEST PUSH2 0x1D4C DUP4 PUSH2 0x19A4 JUMP JUMPDEST PUSH2 0x1DA8 JUMPI PUSH1 0x40 MLOAD PUSH3 0x461BCD PUSH1 0xE5 SHL DUP2 MSTORE PUSH1 0x20 PUSH1 0x4 DUP3 ADD MSTORE PUSH1 0x27 PUSH1 0x24 DUP3 ADD MSTORE PUSH32 0x455243333532353A207472616E736665722066726F6D20696E76616C69642074 PUSH1 0x44 DUP3 ADD MSTORE PUSH7 0x1BDAD95B881251 PUSH1 0xCA SHL PUSH1 0x64 DUP3 ADD MSTORE PUSH1 0x84 ADD PUSH2 0x86B JUMP JUMPDEST PUSH2 0x1DB1 DUP3 PUSH2 0x19A4 JUMP JUMPDEST PUSH2 0x1E0B JUMPI PUSH1 0x40 MLOAD PUSH3 0x461BCD PUSH1 0xE5 SHL DUP2 MSTORE PUSH1 0x20 PUSH1 0x4 DUP3 ADD MSTORE PUSH1 0x25 PUSH1 0x24 DUP3 ADD MSTORE PUSH32 0x455243333532353A207472616E7366657220746F20696E76616C696420746F6B PUSH1 0x44 DUP3 ADD MSTORE PUSH5 0x195B881251 PUSH1 0xDA SHL PUSH1 0x64 DUP3 ADD MSTORE PUSH1 0x84 ADD PUSH2 0x86B JUMP JUMPDEST PUSH0 DUP4 DUP2 MSTORE PUSH1 0x47 PUSH1 0x20 MSTORE PUSH1 0x40 DUP2 KECCAK256 SLOAD PUSH1 0x46 DUP1 SLOAD SWAP1 SWAP2 SWAP1 DUP2 LT PUSH2 0x1E2E JUMPI PUSH2 0x1E2E PUSH2 0x37ED JUMP JUMPDEST SWAP1 PUSH0 MSTORE PUSH1 0x20 PUSH0 KECCAK256 SWAP1 PUSH1 0x6 MUL ADD SWAP1 POP PUSH0 PUSH1 0x46 PUSH1 0x47 PUSH0 DUP7 DUP2 MSTORE PUSH1 0x20 ADD SWAP1 DUP2 MSTORE PUSH1 0x20 ADD PUSH0 KECCAK256 SLOAD DUP2 SLOAD DUP2 LT PUSH2 0x1E61 JUMPI PUSH2 0x1E61 PUSH2 0x37ED JUMP JUMPDEST SWAP1 PUSH0 MSTORE PUSH1 0x20 PUSH0 KECCAK256 SWAP1 PUSH1 0x6 MUL ADD SWAP1 POP DUP3 DUP3 PUSH1 0x2 ADD SLOAD LT ISZERO PUSH2 0x1ED6 JUMPI PUSH1 0x40 MLOAD PUSH3 0x461BCD PUSH1 0xE5 SHL DUP2 MSTORE PUSH1 0x20 PUSH1 0x4 DUP3 ADD MSTORE PUSH1 0x2A PUSH1 0x24 DUP3 ADD MSTORE PUSH32 0x455243333532353A20696E73756666696369656E742062616C616E636520666F PUSH1 0x44 DUP3 ADD MSTORE PUSH10 0x39103A3930B739B332B9 PUSH1 0xB1 SHL PUSH1 0x64 DUP3 ADD MSTORE PUSH1 0x84 ADD PUSH2 0x86B JUMP JUMPDEST DUP1 PUSH1 0x1 ADD SLOAD DUP3 PUSH1 0x1 ADD SLOAD EQ PUSH2 0x1F44 JUMPI PUSH1 0x40 MLOAD PUSH3 0x461BCD PUSH1 0xE5 SHL DUP2 MSTORE PUSH1 0x20 PUSH1 0x4 DUP3 ADD MSTORE PUSH1 0x2E PUSH1 0x24 DUP3 ADD MSTORE PUSH32 0x455243333532353A207472616E7366657220746F20746F6B656E207769746820 PUSH1 0x44 DUP3 ADD MSTORE PUSH14 0x191A5999995C995B9D081CDB1BDD PUSH1 0x92 SHL PUSH1 0x64 DUP3 ADD MSTORE PUSH1 0x84 ADD PUSH2 0x86B JUMP JUMPDEST DUP3 DUP3 PUSH1 0x2 ADD PUSH0 DUP3 DUP3 SLOAD PUSH2 0x1F57 SWAP2 SWAP1 PUSH2 0x3DFE JUMP JUMPDEST SWAP3 POP POP DUP2 SWAP1 SSTORE POP DUP3 DUP2 PUSH1 0x2 ADD PUSH0 DUP3 DUP3 SLOAD PUSH2 0x1F71 SWAP2 SWAP1 PUSH2 0x39D1 JUMP JUMPDEST SWAP1 SWAP2 SSTORE POP POP PUSH1 0x40 MLOAD DUP4 DUP2 MSTORE DUP5 SWAP1 DUP7 SWAP1 PUSH32 0xB2AAC84F3EC956911FD78EAE5311062972FF949F38412E8DA39069D9F068CC6 SWAP1 PUSH1 0x20 ADD PUSH1 0x40 MLOAD DUP1 SWAP2 SUB SWAP1 LOG3 PUSH2 0x1FC7 DUP6 DUP6 DUP6 PUSH1 0x40 MLOAD DUP1 PUSH1 0x20 ADD PUSH1 0x40 MSTORE DUP1 PUSH0 DUP2 MSTORE POP PUSH2 0x2C20 JUMP JUMPDEST PUSH2 0x2029 JUMPI PUSH1 0x40 MLOAD PUSH3 0x461BCD PUSH1 0xE5 SHL DUP2 MSTORE PUSH1 0x20 PUSH1 0x4 DUP3 ADD MSTORE PUSH1 0x2D PUSH1 0x24 DUP3 ADD MSTORE PUSH32 0x455243333532353A207472616E736665722072656A6563746564206279204552 PUSH1 0x44 DUP3 ADD MSTORE PUSH13 0x21999A991AA932B1B2B4BB32B9 PUSH1 0x99 SHL PUSH1 0x64 DUP3 ADD MSTORE PUSH1 0x84 ADD PUSH2 0x86B JUMP JUMPDEST POP POP POP POP POP JUMP JUMPDEST PUSH0 PUSH1 0x1 PUSH1 0x1 PUSH1 0xA0 SHL SUB DUP3 AND PUSH2 0x2092 JUMPI PUSH1 0x40 MLOAD PUSH3 0x461BCD PUSH1 0xE5 SHL DUP2 MSTORE PUSH1 0x20 PUSH1 0x4 DUP3 ADD MSTORE PUSH1 0x22 PUSH1 0x24 DUP3 ADD MSTORE PUSH32 0x526F6C65733A206163636F756E7420697320746865207A65726F206164647265 PUSH1 0x44 DUP3 ADD MSTORE PUSH2 0x7373 PUSH1 0xF0 SHL PUSH1 0x64 DUP3 ADD MSTORE PUSH1 0x84 ADD PUSH2 0x86B JUMP JUMPDEST POP PUSH1 0x1 PUSH1 0x1 PUSH1 0xA0 SHL SUB AND PUSH0 SWAP1 DUP2 MSTORE PUSH1 0x20 SWAP2 SWAP1 SWAP2 MSTORE PUSH1 0x40 SWAP1 KECCAK256 SLOAD PUSH1 0xFF AND SWAP1 JUMP JUMPDEST PUSH0 DUP1 PUSH2 0x20BC DUP4 PUSH2 0x10AF JUMP JUMPDEST SWAP1 POP DUP1 PUSH1 0x1 PUSH1 0x1 PUSH1 0xA0 SHL SUB AND DUP5 PUSH1 0x1 PUSH1 0x1 PUSH1 0xA0 SHL SUB AND EQ DUP1 PUSH2 0x2106 JUMPI POP PUSH1 0x1 PUSH1 0x1 PUSH1 0xA0 SHL SUB DUP1 DUP3 AND PUSH0 SWAP1 DUP2 MSTORE PUSH1 0x48 PUSH1 0x20 SWAP1 DUP2 MSTORE PUSH1 0x40 DUP1 DUP4 KECCAK256 SWAP4 DUP9 AND DUP4 MSTORE PUSH1 0x2 SWAP1 SWAP4 ADD SWAP1 MSTORE KECCAK256 SLOAD PUSH1 0xFF AND JUMPDEST DUP1 PUSH2 0x212A JUMPI POP DUP4 PUSH1 0x1 PUSH1 0x1 PUSH1 0xA0 SHL SUB AND PUSH2 0x211F DUP5 PUSH2 0xA70 JUMP JUMPDEST PUSH1 0x1 PUSH1 0x1 PUSH1 0xA0 SHL SUB AND EQ JUMPDEST SWAP5 SWAP4 POP POP POP POP JUMP JUMPDEST DUP3 PUSH1 0x1 PUSH1 0x1 PUSH1 0xA0 SHL SUB AND PUSH2 0x2145 DUP3 PUSH2 0x10AF JUMP JUMPDEST PUSH1 0x1 PUSH1 0x1 PUSH1 0xA0 SHL SUB AND EQ PUSH2 0x21A7 JUMPI PUSH1 0x40 MLOAD PUSH3 0x461BCD PUSH1 0xE5 SHL DUP2 MSTORE PUSH1 0x20 PUSH1 0x4 DUP3 ADD MSTORE PUSH1 0x24 DUP1 DUP3 ADD MSTORE PUSH32 0x455243333532353A207472616E736665722066726F6D20696E76616C6964206F PUSH1 0x44 DUP3 ADD MSTORE PUSH4 0x3BB732B9 PUSH1 0xE1 SHL PUSH1 0x64 DUP3 ADD MSTORE PUSH1 0x84 ADD PUSH2 0x86B JUMP JUMPDEST PUSH1 0x1 PUSH1 0x1 PUSH1 0xA0 SHL SUB DUP3 AND PUSH2 0x220B JUMPI PUSH1 0x40 MLOAD PUSH3 0x461BCD PUSH1 0xE5 SHL DUP2 MSTORE PUSH1 0x20 PUSH1 0x4 DUP3 ADD MSTORE PUSH1 0x25 PUSH1 0x24 DUP3 ADD MSTORE PUSH32 0x455243333532353A207472616E7366657220746F20746865207A65726F206164 PUSH1 0x44 DUP3 ADD MSTORE PUSH5 0x6472657373 PUSH1 0xD8 SHL PUSH1 0x64 DUP3 ADD MSTORE PUSH1 0x84 ADD PUSH2 0x86B JUMP JUMPDEST PUSH0 PUSH2 0x2215 DUP3 PUSH2 0xE13 JUMP JUMPDEST SWAP1 POP PUSH0 PUSH2 0x2221 DUP4 PUSH2 0x1681 JUMP JUMPDEST SWAP1 POP PUSH2 0x222D PUSH0 DUP5 PUSH2 0x1B87 JUMP JUMPDEST PUSH2 0x2236 DUP4 PUSH2 0x2D8C JUMP JUMPDEST PUSH2 0x2240 DUP6 DUP5 PUSH2 0x2E32 JUMP JUMPDEST PUSH2 0x224A DUP5 DUP5 PUSH2 0x2AC2 JUMP JUMPDEST DUP3 DUP5 PUSH1 0x1 PUSH1 0x1 PUSH1 0xA0 SHL SUB AND DUP7 PUSH1 0x1 PUSH1 0x1 PUSH1 0xA0 SHL SUB AND PUSH32 0xDDF252AD1BE2C89B69C2B068FC378DAA952BA7F163C4A11628F55A4DF523B3EF PUSH1 0x40 MLOAD PUSH1 0x40 MLOAD DUP1 SWAP2 SUB SWAP1 LOG4 PUSH2 0x2029 JUMP JUMPDEST PUSH0 DUP1 JUMPDEST PUSH1 0x42 SLOAD DUP2 LT ISZERO PUSH2 0x22DA JUMPI DUP3 PUSH1 0x42 DUP3 DUP2 SLOAD DUP2 LT PUSH2 0x22B1 JUMPI PUSH2 0x22B1 PUSH2 0x37ED JUMP JUMPDEST SWAP1 PUSH0 MSTORE PUSH1 0x20 PUSH0 KECCAK256 ADD SLOAD SUB PUSH2 0x22C8 JUMPI POP PUSH1 0x1 SWAP3 SWAP2 POP POP JUMP JUMPDEST DUP1 PUSH2 0x22D2 DUP2 PUSH2 0x3E11 JUMP JUMPDEST SWAP2 POP POP PUSH2 0x2293 JUMP JUMPDEST POP PUSH0 SWAP3 SWAP2 POP POP JUMP JUMPDEST CALLER PUSH2 0x2314 PUSH32 0x9016D09D72D40FDAE2FD8CEAC6B6234C7706214FD39C1CD1E609A0528C199300 SLOAD PUSH1 0x1 PUSH1 0x1 PUSH1 0xA0 SHL SUB AND SWAP1 JUMP JUMPDEST PUSH1 0x1 PUSH1 0x1 PUSH1 0xA0 SHL SUB AND EQ PUSH2 0x123B JUMPI PUSH1 0x40 MLOAD PUSH4 0x118CDAA7 PUSH1 0xE0 SHL DUP2 MSTORE CALLER PUSH1 0x4 DUP3 ADD MSTORE PUSH1 0x24 ADD PUSH2 0x86B JUMP JUMPDEST PUSH32 0x9016D09D72D40FDAE2FD8CEAC6B6234C7706214FD39C1CD1E609A0528C199300 DUP1 SLOAD PUSH1 0x1 PUSH1 0x1 PUSH1 0xA0 SHL SUB NOT DUP2 AND PUSH1 0x1 PUSH1 0x1 PUSH1 0xA0 SHL SUB DUP5 DUP2 AND SWAP2 DUP3 OR DUP5 SSTORE PUSH1 0x40 MLOAD SWAP3 AND SWAP2 DUP3 SWAP1 PUSH32 0x8BE0079C531659141344CD1FD0A4F28419497F9722A3DAAFE3B4186F6B6457E0 SWAP1 PUSH0 SWAP1 LOG3 POP POP POP JUMP JUMPDEST PUSH1 0x3F DUP1 SLOAD PUSH0 SWAP2 DUP3 PUSH2 0x23BD DUP4 PUSH2 0x3E11 JUMP JUMPDEST SWAP2 SWAP1 POP SSTORE SWAP1 POP SWAP1 JUMP JUMPDEST PUSH2 0x23CF DUP3 PUSH2 0x19A4 JUMP JUMPDEST PUSH2 0x2429 JUMPI PUSH1 0x40 MLOAD PUSH3 0x461BCD PUSH1 0xE5 SHL DUP2 MSTORE PUSH1 0x20 PUSH1 0x4 DUP3 ADD MSTORE PUSH1 0x25 PUSH1 0x24 DUP3 ADD MSTORE PUSH32 0x455243333532353A2055524920736574206F66206E6F6E6578697374656E7420 PUSH1 0x44 DUP3 ADD MSTORE PUSH5 0x3A37B5B2B7 PUSH1 0xD9 SHL PUSH1 0x64 DUP3 ADD MSTORE PUSH1 0x84 ADD PUSH2 0x86B JUMP JUMPDEST PUSH0 DUP3 DUP2 MSTORE PUSH1 0x4A PUSH1 0x20 MSTORE PUSH1 0x40 SWAP1 KECCAK256 PUSH2 0xB94 DUP3 DUP3 PUSH2 0x3E6E JUMP JUMPDEST PUSH2 0x244A DUP3 DUP3 PUSH2 0x2030 JUMP JUMPDEST ISZERO PUSH2 0x2497 JUMPI PUSH1 0x40 MLOAD PUSH3 0x461BCD PUSH1 0xE5 SHL DUP2 MSTORE PUSH1 0x20 PUSH1 0x4 DUP3 ADD MSTORE PUSH1 0x1F PUSH1 0x24 DUP3 ADD MSTORE PUSH32 0x526F6C65733A206163636F756E7420616C72656164792068617320726F6C6500 PUSH1 0x44 DUP3 ADD MSTORE PUSH1 0x64 ADD PUSH2 0x86B JUMP JUMPDEST PUSH1 0x1 PUSH1 0x1 PUSH1 0xA0 SHL SUB AND PUSH0 SWAP1 DUP2 MSTORE PUSH1 0x20 SWAP2 SWAP1 SWAP2 MSTORE PUSH1 0x40 SWAP1 KECCAK256 DUP1 SLOAD PUSH1 0xFF NOT AND PUSH1 0x1 OR SWAP1 SSTORE JUMP JUMPDEST PUSH1 0x1 PUSH1 0x1 PUSH1 0xA0 SHL SUB DUP3 AND PUSH2 0x2524 JUMPI PUSH1 0x40 MLOAD PUSH3 0x461BCD PUSH1 0xE5 SHL DUP2 MSTORE PUSH1 0x20 PUSH1 0x4 DUP3 ADD MSTORE PUSH1 0x2A PUSH1 0x24 DUP3 ADD MSTORE PUSH32 0x455243333532353A20617070726F76652076616C756520746F20746865207A65 PUSH1 0x44 DUP3 ADD MSTORE PUSH10 0x726F2061646472657373 PUSH1 0xB0 SHL PUSH1 0x64 DUP3 ADD MSTORE PUSH1 0x84 ADD PUSH2 0x86B JUMP JUMPDEST PUSH2 0x252E DUP3 DUP5 PUSH2 0x2F45 JUMP JUMPDEST PUSH2 0x2592 JUMPI PUSH0 DUP4 DUP2 MSTORE PUSH1 0x47 PUSH1 0x20 MSTORE PUSH1 0x40 SWAP1 KECCAK256 SLOAD PUSH1 0x46 DUP1 SLOAD SWAP1 SWAP2 SWAP1 DUP2 LT PUSH2 0x2555 JUMPI PUSH2 0x2555 PUSH2 0x37ED JUMP JUMPDEST PUSH0 SWAP2 DUP3 MSTORE PUSH1 0x20 DUP1 DUP4 KECCAK256 PUSH1 0x6 SWAP3 SWAP1 SWAP3 MUL SWAP1 SWAP2 ADD PUSH1 0x5 ADD DUP1 SLOAD PUSH1 0x1 DUP2 ADD DUP3 SSTORE SWAP1 DUP4 MSTORE SWAP2 KECCAK256 ADD DUP1 SLOAD PUSH1 0x1 PUSH1 0x1 PUSH1 0xA0 SHL SUB NOT AND PUSH1 0x1 PUSH1 0x1 PUSH1 0xA0 SHL SUB DUP5 AND OR SWAP1 SSTORE JUMPDEST PUSH0 DUP4 DUP2 MSTORE PUSH1 0x44 PUSH1 0x20 SWAP1 DUP2 MSTORE PUSH1 0x40 DUP1 DUP4 KECCAK256 PUSH1 0x1 PUSH1 0x1 PUSH1 0xA0 SHL SUB DUP7 AND DUP1 DUP6 MSTORE SWAP1 DUP4 MSTORE SWAP3 DUP2 SWAP1 KECCAK256 DUP5 SWAP1 SSTORE MLOAD DUP4 DUP2 MSTORE DUP6 SWAP2 PUSH32 0x621B050DE0AD08B51D19B48B3E6DF75348C4DE6BDD93E81B252CA62E28265B1B SWAP2 ADD JUMPDEST PUSH1 0x40 MLOAD DUP1 SWAP2 SUB SWAP1 LOG3 POP POP POP JUMP JUMPDEST PUSH0 DUP3 DUP2 MSTORE PUSH1 0x43 PUSH1 0x20 MSTORE PUSH1 0x40 SWAP1 KECCAK256 PUSH2 0xB94 DUP3 DUP3 PUSH2 0x3E6E JUMP JUMPDEST PUSH0 DUP2 DUP2 MSTORE PUSH1 0x40 PUSH1 0x20 DUP2 SWAP1 MSTORE DUP2 KECCAK256 SLOAD SWAP1 SUB PUSH2 0x19A1 JUMPI PUSH1 0x42 DUP1 SLOAD PUSH1 0x1 DUP2 ADD DUP3 SSTORE PUSH0 SWAP2 SWAP1 SWAP2 MSTORE PUSH32 0x38DFE4635B27BABECA8BE38D3B448CB5161A639B899A14825BA9C8D7892EB8C3 ADD SSTORE JUMP JUMPDEST PUSH2 0x2659 DUP3 DUP3 PUSH2 0x2030 JUMP JUMPDEST PUSH2 0x26AF JUMPI PUSH1 0x40 MLOAD PUSH3 0x461BCD PUSH1 0xE5 SHL DUP2 MSTORE PUSH1 0x20 PUSH1 0x4 DUP3 ADD MSTORE PUSH1 0x21 PUSH1 0x24 DUP3 ADD MSTORE PUSH32 0x526F6C65733A206163636F756E7420646F6573206E6F74206861766520726F6C PUSH1 0x44 DUP3 ADD MSTORE PUSH1 0x65 PUSH1 0xF8 SHL PUSH1 0x64 DUP3 ADD MSTORE PUSH1 0x84 ADD PUSH2 0x86B JUMP JUMPDEST PUSH1 0x1 PUSH1 0x1 PUSH1 0xA0 SHL SUB AND PUSH0 SWAP1 DUP2 MSTORE PUSH1 0x20 SWAP2 SWAP1 SWAP2 MSTORE PUSH1 0x40 SWAP1 KECCAK256 DUP1 SLOAD PUSH1 0xFF NOT AND SWAP1 SSTORE JUMP JUMPDEST DUP2 PUSH1 0x1 PUSH1 0x1 PUSH1 0xA0 SHL SUB AND DUP4 PUSH1 0x1 PUSH1 0x1 PUSH1 0xA0 SHL SUB AND SUB PUSH2 0x2731 JUMPI PUSH1 0x40 MLOAD PUSH3 0x461BCD PUSH1 0xE5 SHL DUP2 MSTORE PUSH1 0x20 PUSH1 0x4 DUP3 ADD MSTORE PUSH1 0x1A PUSH1 0x24 DUP3 ADD MSTORE PUSH32 0x455243333532353A20617070726F766520746F2063616C6C6572000000000000 PUSH1 0x44 DUP3 ADD MSTORE PUSH1 0x64 ADD PUSH2 0x86B JUMP JUMPDEST PUSH1 0x1 PUSH1 0x1 PUSH1 0xA0 SHL SUB DUP4 DUP2 AND PUSH0 DUP2 DUP2 MSTORE PUSH1 0x48 PUSH1 0x20 SWAP1 DUP2 MSTORE PUSH1 0x40 DUP1 DUP4 KECCAK256 SWAP5 DUP8 AND DUP1 DUP5 MSTORE PUSH1 0x2 SWAP1 SWAP6 ADD DUP3 MSTORE SWAP2 DUP3 SWAP1 KECCAK256 DUP1 SLOAD PUSH1 0xFF NOT AND DUP7 ISZERO ISZERO SWAP1 DUP2 OR SWAP1 SWAP2 SSTORE SWAP2 MLOAD SWAP2 DUP3 MSTORE PUSH32 0x17307EAB39AB6107E8899845AD3D59BD9653F200F220920489CA2B5937696C31 SWAP2 ADD PUSH2 0x25E3 JUMP JUMPDEST PUSH2 0x27A4 DUP5 DUP5 DUP5 PUSH2 0x2132 JUMP JUMPDEST PUSH2 0x27B0 DUP5 DUP5 DUP5 DUP5 PUSH2 0x3011 JUMP JUMPDEST PUSH2 0x938 JUMPI PUSH1 0x40 MLOAD PUSH3 0x461BCD PUSH1 0xE5 SHL DUP2 MSTORE PUSH1 0x20 PUSH1 0x4 DUP3 ADD MSTORE PUSH1 0x27 PUSH1 0x24 DUP3 ADD MSTORE PUSH32 0x455243333532353A207472616E7366657220746F206E6F6E2045524337323152 PUSH1 0x44 DUP3 ADD MSTORE PUSH7 0x32B1B2B4BB32B9 PUSH1 0xC9 SHL PUSH1 0x64 DUP3 ADD MSTORE PUSH1 0x84 ADD PUSH2 0x86B JUMP JUMPDEST PUSH1 0x60 DUP2 MLOAD PUSH0 SUB PUSH2 0x2829 JUMPI POP POP PUSH1 0x40 DUP1 MLOAD PUSH1 0x20 DUP2 ADD SWAP1 SWAP2 MSTORE PUSH0 DUP2 MSTORE SWAP1 JUMP JUMPDEST PUSH0 PUSH1 0x40 MLOAD DUP1 PUSH1 0x60 ADD PUSH1 0x40 MSTORE DUP1 PUSH1 0x40 DUP2 MSTORE PUSH1 0x20 ADD PUSH2 0x4014 PUSH1 0x40 SWAP2 CODECOPY SWAP1 POP PUSH0 PUSH1 0x3 DUP5 MLOAD PUSH1 0x2 PUSH2 0x2856 SWAP2 SWAP1 PUSH2 0x39D1 JUMP JUMPDEST PUSH2 0x2860 SWAP2 SWAP1 PUSH2 0x3F2A JUMP JUMPDEST PUSH2 0x286B SWAP1 PUSH1 0x4 PUSH2 0x3F49 JUMP JUMPDEST PUSH8 0xFFFFFFFFFFFFFFFF DUP2 GT ISZERO PUSH2 0x2883 JUMPI PUSH2 0x2883 PUSH2 0x359D JUMP JUMPDEST PUSH1 0x40 MLOAD SWAP1 DUP1 DUP3 MSTORE DUP1 PUSH1 0x1F ADD PUSH1 0x1F NOT AND PUSH1 0x20 ADD DUP3 ADD PUSH1 0x40 MSTORE DUP1 ISZERO PUSH2 0x28AD JUMPI PUSH1 0x20 DUP3 ADD DUP2 DUP1 CALLDATASIZE DUP4 CALLDATACOPY ADD SWAP1 POP JUMPDEST POP SWAP1 POP PUSH1 0x1 DUP3 ADD PUSH1 0x20 DUP3 ADD DUP6 DUP7 MLOAD DUP8 ADD JUMPDEST DUP1 DUP3 LT ISZERO PUSH2 0x2919 JUMPI PUSH1 0x3 DUP3 ADD SWAP2 POP DUP2 MLOAD PUSH1 0x3F DUP2 PUSH1 0x12 SHR AND DUP6 ADD MLOAD DUP5 MSTORE8 PUSH1 0x1 DUP5 ADD SWAP4 POP PUSH1 0x3F DUP2 PUSH1 0xC SHR AND DUP6 ADD MLOAD DUP5 MSTORE8 PUSH1 0x1 DUP5 ADD SWAP4 POP PUSH1 0x3F DUP2 PUSH1 0x6 SHR AND DUP6 ADD MLOAD DUP5 MSTORE8 PUSH1 0x1 DUP5 ADD SWAP4 POP PUSH1 0x3F DUP2 AND DUP6 ADD MLOAD DUP5 MSTORE8 POP PUSH1 0x1 DUP4 ADD SWAP3 POP PUSH2 0x28BE JUMP JUMPDEST POP POP PUSH1 0x3 DUP7 MLOAD MOD PUSH1 0x1 DUP2 EQ PUSH2 0x2935 JUMPI PUSH1 0x2 DUP2 EQ PUSH2 0x2948 JUMPI PUSH2 0x2950 JUMP JUMPDEST PUSH1 0x3D PUSH1 0x1 DUP4 SUB MSTORE8 PUSH1 0x3D PUSH1 0x2 DUP4 SUB MSTORE8 PUSH2 0x2950 JUMP JUMPDEST PUSH1 0x3D PUSH1 0x1 DUP4 SUB MSTORE8 JUMPDEST POP SWAP2 SWAP6 SWAP5 POP POP POP POP POP JUMP JUMPDEST PUSH1 0x60 PUSH2 0x9DA PUSH1 0x1 PUSH1 0x1 PUSH1 0xA0 SHL SUB DUP4 AND PUSH1 0x14 PUSH2 0x3153 JUMP JUMPDEST PUSH1 0x46 DUP1 SLOAD DUP3 MLOAD PUSH0 SWAP1 DUP2 MSTORE PUSH1 0x47 PUSH1 0x20 SWAP1 DUP2 MSTORE PUSH1 0x40 DUP1 DUP4 KECCAK256 DUP5 SWAP1 SSTORE PUSH1 0x1 DUP5 ADD DUP6 SSTORE SWAP4 SWAP1 SWAP2 MSTORE DUP4 MLOAD PUSH1 0x6 SWAP1 SWAP3 MUL PUSH32 0x128667F541FED74A8429F9D592C26C2C6A4BEB9AE5EAD9912C98B2595C842310 DUP2 ADD SWAP3 DUP4 SSTORE DUP2 DUP6 ADD MLOAD PUSH32 0x128667F541FED74A8429F9D592C26C2C6A4BEB9AE5EAD9912C98B2595C842311 DUP3 ADD SSTORE SWAP3 DUP5 ADD MLOAD PUSH32 0x128667F541FED74A8429F9D592C26C2C6A4BEB9AE5EAD9912C98B2595C842312 DUP5 ADD SSTORE PUSH1 0x60 DUP5 ADD MLOAD PUSH32 0x128667F541FED74A8429F9D592C26C2C6A4BEB9AE5EAD9912C98B2595C842313 DUP5 ADD DUP1 SLOAD PUSH1 0x1 PUSH1 0x1 PUSH1 0xA0 SHL SUB SWAP3 DUP4 AND PUSH1 0x1 PUSH1 0x1 PUSH1 0xA0 SHL SUB NOT SWAP2 DUP3 AND OR SWAP1 SWAP2 SSTORE PUSH1 0x80 DUP7 ADD MLOAD PUSH32 0x128667F541FED74A8429F9D592C26C2C6A4BEB9AE5EAD9912C98B2595C842314 DUP7 ADD DUP1 SLOAD SWAP2 SWAP1 SWAP4 AND SWAP2 AND OR SWAP1 SSTORE PUSH1 0xA0 DUP5 ADD MLOAD DUP1 MLOAD DUP6 SWAP5 PUSH2 0x938 SWAP4 PUSH32 0x128667F541FED74A8429F9D592C26C2C6A4BEB9AE5EAD9912C98B2595C842315 SWAP1 SWAP2 ADD SWAP3 ADD SWAP1 PUSH2 0x32C5 JUMP JUMPDEST PUSH0 DUP2 DUP2 MSTORE PUSH1 0x47 PUSH1 0x20 MSTORE PUSH1 0x40 SWAP1 KECCAK256 SLOAD PUSH1 0x46 DUP1 SLOAD DUP5 SWAP3 SWAP1 DUP2 LT PUSH2 0x2AE5 JUMPI PUSH2 0x2AE5 PUSH2 0x37ED JUMP JUMPDEST PUSH0 SWAP2 DUP3 MSTORE PUSH1 0x20 DUP1 DUP4 KECCAK256 PUSH1 0x6 SWAP3 SWAP1 SWAP3 MUL SWAP1 SWAP2 ADD PUSH1 0x3 ADD DUP1 SLOAD PUSH1 0x1 PUSH1 0x1 PUSH1 0xA0 SHL SUB NOT AND PUSH1 0x1 PUSH1 0x1 PUSH1 0xA0 SHL SUB SWAP5 DUP6 AND OR SWAP1 SSTORE SWAP4 SWAP1 SWAP2 AND DUP2 MSTORE PUSH1 0x48 DUP1 DUP5 MSTORE PUSH1 0x40 DUP1 DUP4 KECCAK256 DUP1 SLOAD DUP6 DUP6 MSTORE PUSH1 0x1 DUP3 DUP2 ADD DUP9 MSTORE SWAP3 DUP6 KECCAK256 DUP2 SWAP1 SSTORE SWAP3 DUP7 MSTORE SWAP1 DUP3 ADD DUP2 SSTORE DUP3 MSTORE SWAP3 SWAP1 KECCAK256 SWAP1 SWAP2 ADD SSTORE JUMP JUMPDEST PUSH0 DUP1 PUSH19 0x184F03E93FF9F4DAA797ED6E38ED64BF6A1F01 PUSH1 0x40 SHL DUP4 LT PUSH2 0x2B87 JUMPI PUSH19 0x184F03E93FF9F4DAA797ED6E38ED64BF6A1F01 PUSH1 0x40 SHL DUP4 DIV SWAP3 POP PUSH1 0x40 ADD JUMPDEST PUSH14 0x4EE2D6D415B85ACEF8100000000 DUP4 LT PUSH2 0x2BB3 JUMPI PUSH14 0x4EE2D6D415B85ACEF8100000000 DUP4 DIV SWAP3 POP PUSH1 0x20 ADD JUMPDEST PUSH7 0x2386F26FC10000 DUP4 LT PUSH2 0x2BD1 JUMPI PUSH7 0x2386F26FC10000 DUP4 DIV SWAP3 POP PUSH1 0x10 ADD JUMPDEST PUSH4 0x5F5E100 DUP4 LT PUSH2 0x2BE9 JUMPI PUSH4 0x5F5E100 DUP4 DIV SWAP3 POP PUSH1 0x8 ADD JUMPDEST PUSH2 0x2710 DUP4 LT PUSH2 0x2BFD JUMPI PUSH2 0x2710 DUP4 DIV SWAP3 POP PUSH1 0x4 ADD JUMPDEST PUSH1 0x64 DUP4 LT PUSH2 0x2C0F JUMPI PUSH1 0x64 DUP4 DIV SWAP3 POP PUSH1 0x2 ADD JUMPDEST PUSH1 0xA DUP4 LT PUSH2 0x9DA JUMPI PUSH1 0x1 ADD SWAP3 SWAP2 POP POP JUMP JUMPDEST PUSH0 DUP1 PUSH2 0x2C2B DUP6 PUSH2 0x10AF JUMP JUMPDEST SWAP1 POP DUP1 EXTCODESIZE PUSH4 0xFFFFFFFF AND ISZERO PUSH2 0x2D80 JUMPI PUSH1 0x40 MLOAD PUSH4 0x1FFC9A7 PUSH1 0xE0 SHL DUP2 MSTORE PUSH3 0x9CE20B PUSH1 0xE0 SHL PUSH1 0x4 DUP3 ADD MSTORE PUSH1 0x1 PUSH1 0x1 PUSH1 0xA0 SHL SUB DUP3 AND SWAP1 PUSH4 0x1FFC9A7 SWAP1 PUSH1 0x24 ADD PUSH1 0x20 PUSH1 0x40 MLOAD DUP1 DUP4 SUB DUP2 DUP7 GAS STATICCALL SWAP3 POP POP POP DUP1 ISZERO PUSH2 0x2CA0 JUMPI POP PUSH1 0x40 DUP1 MLOAD PUSH1 0x1F RETURNDATASIZE SWAP1 DUP2 ADD PUSH1 0x1F NOT AND DUP3 ADD SWAP1 SWAP3 MSTORE PUSH2 0x2C9D SWAP2 DUP2 ADD SWAP1 PUSH2 0x3961 JUMP JUMPDEST PUSH1 0x1 JUMPDEST PUSH2 0x2CDE JUMPI RETURNDATASIZE DUP1 DUP1 ISZERO PUSH2 0x2CCD JUMPI PUSH1 0x40 MLOAD SWAP2 POP PUSH1 0x1F NOT PUSH1 0x3F RETURNDATASIZE ADD AND DUP3 ADD PUSH1 0x40 MSTORE RETURNDATASIZE DUP3 MSTORE RETURNDATASIZE PUSH0 PUSH1 0x20 DUP5 ADD RETURNDATACOPY PUSH2 0x2CD2 JUMP JUMPDEST PUSH1 0x60 SWAP2 POP JUMPDEST POP PUSH1 0x1 SWAP3 POP POP POP PUSH2 0x212A JUMP JUMPDEST DUP1 ISZERO PUSH2 0x2D75 JUMPI PUSH1 0x40 MLOAD PUSH3 0x9CE20B PUSH1 0xE0 SHL DUP2 MSTORE PUSH0 SWAP1 PUSH1 0x1 PUSH1 0x1 PUSH1 0xA0 SHL SUB DUP5 AND SWAP1 PUSH3 0x9CE20B SWAP1 PUSH2 0x2D18 SWAP1 CALLER SWAP1 DUP13 SWAP1 DUP13 SWAP1 DUP13 SWAP1 DUP13 SWAP1 PUSH1 0x4 ADD PUSH2 0x3F60 JUMP JUMPDEST PUSH1 0x20 PUSH1 0x40 MLOAD DUP1 DUP4 SUB DUP2 PUSH0 DUP8 GAS CALL ISZERO DUP1 ISZERO PUSH2 0x2D34 JUMPI RETURNDATASIZE PUSH0 DUP1 RETURNDATACOPY RETURNDATASIZE PUSH0 REVERT JUMPDEST POP POP POP POP PUSH1 0x40 MLOAD RETURNDATASIZE PUSH1 0x1F NOT PUSH1 0x1F DUP3 ADD AND DUP3 ADD DUP1 PUSH1 0x40 MSTORE POP DUP2 ADD SWAP1 PUSH2 0x2D58 SWAP2 SWAP1 PUSH2 0x3F9D JUMP JUMPDEST PUSH1 0x1 PUSH1 0x1 PUSH1 0xE0 SHL SUB NOT AND PUSH3 0x9CE20B PUSH1 0xE0 SHL EQ SWAP4 POP PUSH2 0x212A SWAP3 POP POP POP JUMP JUMPDEST PUSH1 0x1 SWAP3 POP POP POP PUSH2 0x212A JUMP JUMPDEST POP PUSH1 0x1 SWAP6 SWAP5 POP POP POP POP POP JUMP JUMPDEST PUSH0 DUP2 DUP2 MSTORE PUSH1 0x47 PUSH1 0x20 MSTORE PUSH1 0x40 DUP2 KECCAK256 SLOAD PUSH1 0x46 DUP1 SLOAD SWAP1 SWAP2 SWAP1 DUP2 LT PUSH2 0x2DAF JUMPI PUSH2 0x2DAF PUSH2 0x37ED JUMP JUMPDEST PUSH0 SWAP2 DUP3 MSTORE PUSH1 0x20 DUP3 KECCAK256 PUSH1 0x5 PUSH1 0x6 SWAP1 SWAP3 MUL ADD SWAP1 DUP2 ADD SLOAD SWAP1 SWAP3 POP SWAP1 JUMPDEST DUP2 DUP2 LT ISZERO PUSH2 0x2E24 JUMPI PUSH0 DUP4 PUSH1 0x5 ADD DUP3 DUP2 SLOAD DUP2 LT PUSH2 0x2DE6 JUMPI PUSH2 0x2DE6 PUSH2 0x37ED JUMP JUMPDEST PUSH0 SWAP2 DUP3 MSTORE PUSH1 0x20 DUP1 DUP4 KECCAK256 SWAP1 SWAP2 ADD SLOAD DUP8 DUP4 MSTORE PUSH1 0x44 DUP3 MSTORE PUSH1 0x40 DUP1 DUP5 KECCAK256 PUSH1 0x1 PUSH1 0x1 PUSH1 0xA0 SHL SUB SWAP1 SWAP3 AND DUP5 MSTORE SWAP2 MSTORE DUP2 KECCAK256 SSTORE POP DUP1 PUSH2 0x2E1C DUP2 PUSH2 0x3E11 JUMP JUMPDEST SWAP2 POP POP PUSH2 0x2DC8 JUMP JUMPDEST POP PUSH2 0xB94 PUSH1 0x5 DUP4 ADD PUSH0 PUSH2 0x3328 JUMP JUMPDEST PUSH0 DUP2 DUP2 MSTORE PUSH1 0x47 PUSH1 0x20 MSTORE PUSH1 0x40 DUP2 KECCAK256 SLOAD PUSH1 0x46 DUP1 SLOAD SWAP1 SWAP2 SWAP1 DUP2 LT PUSH2 0x2E55 JUMPI PUSH2 0x2E55 PUSH2 0x37ED JUMP JUMPDEST PUSH0 SWAP2 DUP3 MSTORE PUSH1 0x20 DUP1 DUP4 KECCAK256 PUSH1 0x6 SWAP3 SWAP1 SWAP3 MUL SWAP1 SWAP2 ADD PUSH1 0x3 ADD DUP1 SLOAD PUSH1 0x1 PUSH1 0x1 PUSH1 0xA0 SHL SUB NOT AND PUSH1 0x1 PUSH1 0x1 PUSH1 0xA0 SHL SUB SWAP5 DUP6 AND OR SWAP1 SSTORE SWAP2 DUP5 AND DUP2 MSTORE PUSH1 0x48 SWAP1 SWAP2 MSTORE PUSH1 0x40 DUP2 KECCAK256 DUP1 SLOAD SWAP1 SWAP2 SWAP1 PUSH2 0x2EA3 SWAP1 PUSH1 0x1 SWAP1 PUSH2 0x3DFE JUMP JUMPDEST SWAP1 POP PUSH0 DUP3 PUSH0 ADD DUP3 DUP2 SLOAD DUP2 LT PUSH2 0x2EBA JUMPI PUSH2 0x2EBA PUSH2 0x37ED JUMP JUMPDEST SWAP1 PUSH0 MSTORE PUSH1 0x20 PUSH0 KECCAK256 ADD SLOAD SWAP1 POP PUSH0 DUP4 PUSH1 0x1 ADD PUSH0 DUP7 DUP2 MSTORE PUSH1 0x20 ADD SWAP1 DUP2 MSTORE PUSH1 0x20 ADD PUSH0 KECCAK256 SLOAD SWAP1 POP DUP2 DUP5 PUSH0 ADD DUP3 DUP2 SLOAD DUP2 LT PUSH2 0x2EF1 JUMPI PUSH2 0x2EF1 PUSH2 0x37ED JUMP JUMPDEST PUSH0 SWAP2 DUP3 MSTORE PUSH1 0x20 DUP1 DUP4 KECCAK256 SWAP1 SWAP2 ADD SWAP3 SWAP1 SWAP3 SSTORE DUP4 DUP2 MSTORE PUSH1 0x1 DUP7 ADD SWAP1 SWAP2 MSTORE PUSH1 0x40 DUP1 DUP3 KECCAK256 DUP4 SWAP1 SSTORE DUP7 DUP3 MSTORE DUP2 KECCAK256 SSTORE DUP4 SLOAD DUP5 SWAP1 DUP1 PUSH2 0x2F2A JUMPI PUSH2 0x2F2A PUSH2 0x3FB8 JUMP JUMPDEST PUSH1 0x1 SWAP1 SUB DUP2 DUP2 SWAP1 PUSH0 MSTORE PUSH1 0x20 PUSH0 KECCAK256 ADD PUSH0 SWAP1 SSTORE SWAP1 SSTORE POP POP POP POP POP POP JUMP JUMPDEST PUSH0 DUP2 DUP2 MSTORE PUSH1 0x47 PUSH1 0x20 MSTORE PUSH1 0x40 DUP2 KECCAK256 SLOAD PUSH1 0x46 DUP1 SLOAD DUP4 SWAP3 SWAP1 DUP2 LT PUSH2 0x2F68 JUMPI PUSH2 0x2F68 PUSH2 0x37ED JUMP JUMPDEST PUSH0 SWAP2 DUP3 MSTORE PUSH1 0x20 DUP3 KECCAK256 PUSH1 0x5 PUSH1 0x6 SWAP1 SWAP3 MUL ADD ADD SLOAD SWAP2 POP JUMPDEST DUP2 DUP2 LT ISZERO PUSH2 0x3007 JUMPI PUSH0 DUP5 DUP2 MSTORE PUSH1 0x47 PUSH1 0x20 MSTORE PUSH1 0x40 SWAP1 KECCAK256 SLOAD PUSH1 0x46 DUP1 SLOAD PUSH1 0x1 PUSH1 0x1 PUSH1 0xA0 SHL SUB DUP9 AND SWAP3 SWAP1 DUP2 LT PUSH2 0x2FB1 JUMPI PUSH2 0x2FB1 PUSH2 0x37ED JUMP JUMPDEST SWAP1 PUSH0 MSTORE PUSH1 0x20 PUSH0 KECCAK256 SWAP1 PUSH1 0x6 MUL ADD PUSH1 0x5 ADD DUP3 DUP2 SLOAD DUP2 LT PUSH2 0x2FD1 JUMPI PUSH2 0x2FD1 PUSH2 0x37ED JUMP JUMPDEST PUSH0 SWAP2 DUP3 MSTORE PUSH1 0x20 SWAP1 SWAP2 KECCAK256 ADD SLOAD PUSH1 0x1 PUSH1 0x1 PUSH1 0xA0 SHL SUB AND SUB PUSH2 0x2FF5 JUMPI PUSH1 0x1 SWAP3 POP POP POP PUSH2 0x9DA JUMP JUMPDEST DUP1 PUSH2 0x2FFF DUP2 PUSH2 0x3E11 JUMP JUMPDEST SWAP2 POP POP PUSH2 0x2F7D JUMP JUMPDEST POP PUSH0 SWAP5 SWAP4 POP POP POP POP JUMP JUMPDEST PUSH0 DUP4 EXTCODESIZE PUSH4 0xFFFFFFFF AND ISZERO PUSH2 0x314B JUMPI PUSH1 0x40 MLOAD PUSH4 0xA85BD01 PUSH1 0xE1 SHL DUP2 MSTORE PUSH1 0x1 PUSH1 0x1 PUSH1 0xA0 SHL SUB DUP6 AND SWAP1 PUSH4 0x150B7A02 SWAP1 PUSH2 0x3051 SWAP1 CALLER SWAP1 DUP10 SWAP1 DUP9 SWAP1 DUP9 SWAP1 PUSH1 0x4 ADD PUSH2 0x3FCC JUMP JUMPDEST PUSH1 0x20 PUSH1 0x40 MLOAD DUP1 DUP4 SUB DUP2 PUSH0 DUP8 GAS CALL SWAP3 POP POP POP DUP1 ISZERO PUSH2 0x308B JUMPI POP PUSH1 0x40 DUP1 MLOAD PUSH1 0x1F RETURNDATASIZE SWAP1 DUP2 ADD PUSH1 0x1F NOT AND DUP3 ADD SWAP1 SWAP3 MSTORE PUSH2 0x3088 SWAP2 DUP2 ADD SWAP1 PUSH2 0x3F9D JUMP JUMPDEST PUSH1 0x1 JUMPDEST PUSH2 0x3131 JUMPI RETURNDATASIZE DUP1 DUP1 ISZERO PUSH2 0x30B8 JUMPI PUSH1 0x40 MLOAD SWAP2 POP PUSH1 0x1F NOT PUSH1 0x3F RETURNDATASIZE ADD AND DUP3 ADD PUSH1 0x40 MSTORE RETURNDATASIZE DUP3 MSTORE RETURNDATASIZE PUSH0 PUSH1 0x20 DUP5 ADD RETURNDATACOPY PUSH2 0x30BD JUMP JUMPDEST PUSH1 0x60 SWAP2 POP JUMPDEST POP DUP1 MLOAD PUSH0 SUB PUSH2 0x3129 JUMPI PUSH1 0x40 MLOAD PUSH3 0x461BCD PUSH1 0xE5 SHL DUP2 MSTORE PUSH1 0x20 PUSH1 0x4 DUP3 ADD MSTORE PUSH1 0x32 PUSH1 0x24 DUP3 ADD MSTORE PUSH32 0x4552433732313A207472616E7366657220746F206E6F6E204552433732315265 PUSH1 0x44 DUP3 ADD MSTORE PUSH18 0x31B2B4BB32B91034B6B83632B6B2B73A32B9 PUSH1 0x71 SHL PUSH1 0x64 DUP3 ADD MSTORE PUSH1 0x84 ADD PUSH2 0x86B JUMP JUMPDEST DUP1 MLOAD DUP2 PUSH1 0x20 ADD REVERT JUMPDEST PUSH1 0x1 PUSH1 0x1 PUSH1 0xE0 SHL SUB NOT AND PUSH4 0xA85BD01 PUSH1 0xE1 SHL EQ SWAP1 POP PUSH2 0x212A JUMP JUMPDEST POP PUSH1 0x1 PUSH2 0x212A JUMP JUMPDEST PUSH1 0x60 DUP3 PUSH0 PUSH2 0x3162 DUP5 PUSH1 0x2 PUSH2 0x3F49 JUMP JUMPDEST PUSH2 0x316D SWAP1 PUSH1 0x2 PUSH2 0x39D1 JUMP JUMPDEST PUSH8 0xFFFFFFFFFFFFFFFF DUP2 GT ISZERO PUSH2 0x3185 JUMPI PUSH2 0x3185 PUSH2 0x359D JUMP JUMPDEST PUSH1 0x40 MLOAD SWAP1 DUP1 DUP3 MSTORE DUP1 PUSH1 0x1F ADD PUSH1 0x1F NOT AND PUSH1 0x20 ADD DUP3 ADD PUSH1 0x40 MSTORE DUP1 ISZERO PUSH2 0x31AF JUMPI PUSH1 0x20 DUP3 ADD DUP2 DUP1 CALLDATASIZE DUP4 CALLDATACOPY ADD SWAP1 POP JUMPDEST POP SWAP1 POP PUSH1 0x3 PUSH1 0xFC SHL DUP2 PUSH0 DUP2 MLOAD DUP2 LT PUSH2 0x31C9 JUMPI PUSH2 0x31C9 PUSH2 0x37ED JUMP JUMPDEST PUSH1 0x20 ADD ADD SWAP1 PUSH1 0x1 PUSH1 0x1 PUSH1 0xF8 SHL SUB NOT AND SWAP1 DUP2 PUSH0 BYTE SWAP1 MSTORE8 POP PUSH1 0xF PUSH1 0xFB SHL DUP2 PUSH1 0x1 DUP2 MLOAD DUP2 LT PUSH2 0x31F7 JUMPI PUSH2 0x31F7 PUSH2 0x37ED JUMP JUMPDEST PUSH1 0x20 ADD ADD SWAP1 PUSH1 0x1 PUSH1 0x1 PUSH1 0xF8 SHL SUB NOT AND SWAP1 DUP2 PUSH0 BYTE SWAP1 MSTORE8 POP PUSH0 PUSH2 0x3219 DUP6 PUSH1 0x2 PUSH2 0x3F49 JUMP JUMPDEST PUSH2 0x3224 SWAP1 PUSH1 0x1 PUSH2 0x39D1 JUMP JUMPDEST SWAP1 POP JUMPDEST PUSH1 0x1 DUP2 GT ISZERO PUSH2 0x329B JUMPI PUSH16 0x181899199A1A9B1B9C1CB0B131B232B3 PUSH1 0x81 SHL DUP4 PUSH1 0xF AND PUSH1 0x10 DUP2 LT PUSH2 0x3258 JUMPI PUSH2 0x3258 PUSH2 0x37ED JUMP JUMPDEST BYTE PUSH1 0xF8 SHL DUP3 DUP3 DUP2 MLOAD DUP2 LT PUSH2 0x326E JUMPI PUSH2 0x326E PUSH2 0x37ED JUMP JUMPDEST PUSH1 0x20 ADD ADD SWAP1 PUSH1 0x1 PUSH1 0x1 PUSH1 0xF8 SHL SUB NOT AND SWAP1 DUP2 PUSH0 BYTE SWAP1 MSTORE8 POP PUSH1 0x4 SWAP3 SWAP1 SWAP3 SHR SWAP2 PUSH2 0x3294 DUP2 PUSH2 0x3FFE JUMP JUMPDEST SWAP1 POP PUSH2 0x3227 JUMP JUMPDEST POP DUP2 ISZERO PUSH2 0x212A JUMPI PUSH1 0x40 MLOAD PUSH4 0xE22E27EB PUSH1 0xE0 SHL DUP2 MSTORE PUSH1 0x4 DUP2 ADD DUP7 SWAP1 MSTORE PUSH1 0x24 DUP2 ADD DUP6 SWAP1 MSTORE PUSH1 0x44 ADD PUSH2 0x86B JUMP JUMPDEST DUP3 DUP1 SLOAD DUP3 DUP3 SSTORE SWAP1 PUSH0 MSTORE PUSH1 0x20 PUSH0 KECCAK256 SWAP1 DUP2 ADD SWAP3 DUP3 ISZERO PUSH2 0x3318 JUMPI SWAP2 PUSH1 0x20 MUL DUP3 ADD JUMPDEST DUP3 DUP2 GT ISZERO PUSH2 0x3318 JUMPI DUP3 MLOAD DUP3 SLOAD PUSH1 0x1 PUSH1 0x1 PUSH1 0xA0 SHL SUB NOT AND PUSH1 0x1 PUSH1 0x1 PUSH1 0xA0 SHL SUB SWAP1 SWAP2 AND OR DUP3 SSTORE PUSH1 0x20 SWAP1 SWAP3 ADD SWAP2 PUSH1 0x1 SWAP1 SWAP2 ADD SWAP1 PUSH2 0x32E3 JUMP JUMPDEST POP PUSH2 0x3324 SWAP3 SWAP2 POP PUSH2 0x333F JUMP JUMPDEST POP SWAP1 JUMP JUMPDEST POP DUP1 SLOAD PUSH0 DUP3 SSTORE SWAP1 PUSH0 MSTORE PUSH1 0x20 PUSH0 KECCAK256 SWAP1 DUP2 ADD SWAP1 PUSH2 0x19A1 SWAP2 SWAP1 JUMPDEST JUMPDEST DUP1 DUP3 GT ISZERO PUSH2 0x3324 JUMPI PUSH0 DUP2 SSTORE PUSH1 0x1 ADD PUSH2 0x3340 JUMP JUMPDEST DUP1 CALLDATALOAD PUSH1 0x1 PUSH1 0x1 PUSH1 0xA0 SHL SUB DUP2 AND DUP2 EQ PUSH2 0x1143 JUMPI PUSH0 DUP1 REVERT JUMPDEST PUSH0 DUP1 PUSH0 DUP1 PUSH1 0x80 DUP6 DUP8 SUB SLT ISZERO PUSH2 0x337C JUMPI PUSH0 DUP1 REVERT JUMPDEST PUSH2 0x3385 DUP6 PUSH2 0x3353 JUMP JUMPDEST SWAP7 PUSH1 0x20 DUP7 ADD CALLDATALOAD SWAP7 POP PUSH1 0x40 DUP7 ADD CALLDATALOAD SWAP6 PUSH1 0x60 ADD CALLDATALOAD SWAP5 POP SWAP3 POP POP POP JUMP JUMPDEST PUSH1 0x1 PUSH1 0x1 PUSH1 0xE0 SHL SUB NOT DUP2 AND DUP2 EQ PUSH2 0x19A1 JUMPI PUSH0 DUP1 REVERT JUMPDEST PUSH0 PUSH1 0x20 DUP3 DUP5 SUB SLT ISZERO PUSH2 0x33C4 JUMPI PUSH0 DUP1 REVERT JUMPDEST DUP2 CALLDATALOAD PUSH2 0xC7B DUP2 PUSH2 0x339F JUMP JUMPDEST PUSH0 JUMPDEST DUP4 DUP2 LT ISZERO PUSH2 0x33E9 JUMPI DUP2 DUP2 ADD MLOAD DUP4 DUP3 ADD MSTORE PUSH1 0x20 ADD PUSH2 0x33D1 JUMP JUMPDEST POP POP PUSH0 SWAP2 ADD MSTORE JUMP JUMPDEST PUSH0 DUP2 MLOAD DUP1 DUP5 MSTORE PUSH2 0x3408 DUP2 PUSH1 0x20 DUP7 ADD PUSH1 0x20 DUP7 ADD PUSH2 0x33CF JUMP JUMPDEST PUSH1 0x1F ADD PUSH1 0x1F NOT AND SWAP3 SWAP1 SWAP3 ADD PUSH1 0x20 ADD SWAP3 SWAP2 POP POP JUMP JUMPDEST PUSH1 0x20 DUP2 MSTORE PUSH0 PUSH2 0xC7B PUSH1 0x20 DUP4 ADD DUP5 PUSH2 0x33F1 JUMP JUMPDEST PUSH0 PUSH1 0x20 DUP3 DUP5 SUB SLT ISZERO PUSH2 0x343E JUMPI PUSH0 DUP1 REVERT JUMPDEST POP CALLDATALOAD SWAP2 SWAP1 POP JUMP JUMPDEST PUSH0 DUP1 PUSH1 0x40 DUP4 DUP6 SUB SLT ISZERO PUSH2 0x3456 JUMPI PUSH0 DUP1 REVERT JUMPDEST PUSH2 0x345F DUP4 PUSH2 0x3353 JUMP JUMPDEST SWAP5 PUSH1 0x20 SWAP4 SWAP1 SWAP4 ADD CALLDATALOAD SWAP4 POP POP POP JUMP JUMPDEST PUSH0 DUP1 PUSH0 PUSH1 0x60 DUP5 DUP7 SUB SLT ISZERO PUSH2 0x347F JUMPI PUSH0 DUP1 REVERT JUMPDEST DUP4 CALLDATALOAD SWAP3 POP PUSH2 0x348F PUSH1 0x20 DUP6 ADD PUSH2 0x3353 JUMP JUMPDEST SWAP2 POP PUSH1 0x40 DUP5 ADD CALLDATALOAD SWAP1 POP SWAP3 POP SWAP3 POP SWAP3 JUMP JUMPDEST PUSH0 DUP1 PUSH1 0x40 DUP4 DUP6 SUB SLT ISZERO PUSH2 0x34B0 JUMPI PUSH0 DUP1 REVERT JUMPDEST POP POP DUP1 CALLDATALOAD SWAP3 PUSH1 0x20 SWAP1 SWAP2 ADD CALLDATALOAD SWAP2 POP JUMP JUMPDEST PUSH0 PUSH1 0x20 DUP3 DUP5 SUB SLT ISZERO PUSH2 0x34CF JUMPI PUSH0 DUP1 REVERT JUMPDEST PUSH2 0xC7B DUP3 PUSH2 0x3353 JUMP JUMPDEST PUSH0 DUP1 PUSH0 PUSH1 0x60 DUP5 DUP7 SUB SLT ISZERO PUSH2 0x34EA JUMPI PUSH0 DUP1 REVERT JUMPDEST PUSH2 0x34F3 DUP5 PUSH2 0x3353 JUMP JUMPDEST SWAP3 POP PUSH2 0x348F PUSH1 0x20 DUP6 ADD PUSH2 0x3353 JUMP JUMPDEST PUSH0 DUP1 PUSH0 PUSH1 0x60 DUP5 DUP7 SUB SLT ISZERO PUSH2 0x3513 JUMPI PUSH0 DUP1 REVERT JUMPDEST POP POP DUP2 CALLDATALOAD SWAP4 PUSH1 0x20 DUP4 ADD CALLDATALOAD SWAP4 POP PUSH1 0x40 SWAP1 SWAP3 ADD CALLDATALOAD SWAP2 SWAP1 POP JUMP JUMPDEST PUSH1 0x20 DUP1 DUP3 MSTORE DUP3 MLOAD DUP3 DUP3 ADD DUP2 SWAP1 MSTORE PUSH0 SWAP2 SWAP1 DUP5 DUP3 ADD SWAP1 PUSH1 0x40 DUP6 ADD SWAP1 DUP5 JUMPDEST DUP2 DUP2 LT ISZERO PUSH2 0x3561 JUMPI DUP4 MLOAD DUP4 MSTORE SWAP3 DUP5 ADD SWAP3 SWAP2 DUP5 ADD SWAP2 PUSH1 0x1 ADD PUSH2 0x3545 JUMP JUMPDEST POP SWAP1 SWAP7 SWAP6 POP POP POP POP POP POP JUMP JUMPDEST PUSH0 DUP1 PUSH0 PUSH1 0x60 DUP5 DUP7 SUB SLT ISZERO PUSH2 0x357F JUMPI PUSH0 DUP1 REVERT JUMPDEST PUSH2 0x3588 DUP5 PUSH2 0x3353 JUMP JUMPDEST SWAP6 PUSH1 0x20 DUP6 ADD CALLDATALOAD SWAP6 POP PUSH1 0x40 SWAP1 SWAP5 ADD CALLDATALOAD SWAP4 SWAP3 POP POP POP JUMP JUMPDEST PUSH4 0x4E487B71 PUSH1 0xE0 SHL PUSH0 MSTORE PUSH1 0x41 PUSH1 0x4 MSTORE PUSH1 0x24 PUSH0 REVERT JUMPDEST PUSH1 0x40 MLOAD PUSH1 0x1F DUP3 ADD PUSH1 0x1F NOT AND DUP2 ADD PUSH8 0xFFFFFFFFFFFFFFFF DUP2 GT DUP3 DUP3 LT OR ISZERO PUSH2 0x35DA JUMPI PUSH2 0x35DA PUSH2 0x359D JUMP JUMPDEST PUSH1 0x40 MSTORE SWAP2 SWAP1 POP JUMP JUMPDEST PUSH0 PUSH8 0xFFFFFFFFFFFFFFFF DUP3 GT ISZERO PUSH2 0x35FB JUMPI PUSH2 0x35FB PUSH2 0x359D JUMP JUMPDEST POP PUSH1 0x1F ADD PUSH1 0x1F NOT AND PUSH1 0x20 ADD SWAP1 JUMP JUMPDEST PUSH0 PUSH2 0x361B PUSH2 0x3616 DUP5 PUSH2 0x35E2 JUMP JUMPDEST PUSH2 0x35B1 JUMP JUMPDEST SWAP1 POP DUP3 DUP2 MSTORE DUP4 DUP4 DUP4 ADD GT ISZERO PUSH2 0x362E JUMPI PUSH0 DUP1 REVERT JUMPDEST DUP3 DUP3 PUSH1 0x20 DUP4 ADD CALLDATACOPY PUSH0 PUSH1 0x20 DUP5 DUP4 ADD ADD MSTORE SWAP4 SWAP3 POP POP POP JUMP JUMPDEST PUSH0 DUP1 PUSH0 PUSH1 0x60 DUP5 DUP7 SUB SLT ISZERO PUSH2 0x3656 JUMPI PUSH0 DUP1 REVERT JUMPDEST PUSH2 0x365F DUP5 PUSH2 0x3353 JUMP JUMPDEST SWAP3 POP PUSH1 0x20 DUP5 ADD CALLDATALOAD SWAP2 POP PUSH1 0x40 DUP5 ADD CALLDATALOAD PUSH8 0xFFFFFFFFFFFFFFFF DUP2 GT ISZERO PUSH2 0x3681 JUMPI PUSH0 DUP1 REVERT JUMPDEST DUP5 ADD PUSH1 0x1F DUP2 ADD DUP7 SGT PUSH2 0x3691 JUMPI PUSH0 DUP1 REVERT JUMPDEST PUSH2 0x36A0 DUP7 DUP3 CALLDATALOAD PUSH1 0x20 DUP5 ADD PUSH2 0x3609 JUMP JUMPDEST SWAP2 POP POP SWAP3 POP SWAP3 POP SWAP3 JUMP JUMPDEST DUP1 ISZERO ISZERO DUP2 EQ PUSH2 0x19A1 JUMPI PUSH0 DUP1 REVERT JUMPDEST PUSH0 DUP1 PUSH1 0x40 DUP4 DUP6 SUB SLT ISZERO PUSH2 0x36C8 JUMPI PUSH0 DUP1 REVERT JUMPDEST PUSH2 0x36D1 DUP4 PUSH2 0x3353 JUMP JUMPDEST SWAP2 POP PUSH1 0x20 DUP4 ADD CALLDATALOAD PUSH2 0x36E1 DUP2 PUSH2 0x36AA JUMP JUMPDEST DUP1 SWAP2 POP POP SWAP3 POP SWAP3 SWAP1 POP JUMP JUMPDEST PUSH0 DUP1 PUSH0 DUP1 PUSH1 0x80 DUP6 DUP8 SUB SLT ISZERO PUSH2 0x36FF JUMPI PUSH0 DUP1 REVERT JUMPDEST PUSH2 0x3708 DUP6 PUSH2 0x3353 JUMP JUMPDEST SWAP4 POP PUSH2 0x3716 PUSH1 0x20 DUP7 ADD PUSH2 0x3353 JUMP JUMPDEST SWAP3 POP PUSH1 0x40 DUP6 ADD CALLDATALOAD SWAP2 POP PUSH1 0x60 DUP6 ADD CALLDATALOAD PUSH8 0xFFFFFFFFFFFFFFFF DUP2 GT ISZERO PUSH2 0x3738 JUMPI PUSH0 DUP1 REVERT JUMPDEST DUP6 ADD PUSH1 0x1F DUP2 ADD DUP8 SGT PUSH2 0x3748 JUMPI PUSH0 DUP1 REVERT JUMPDEST PUSH2 0x3757 DUP8 DUP3 CALLDATALOAD PUSH1 0x20 DUP5 ADD PUSH2 0x3609 JUMP JUMPDEST SWAP2 POP POP SWAP3 SWAP6 SWAP2 SWAP5 POP SWAP3 POP JUMP JUMPDEST PUSH0 DUP1 PUSH1 0x40 DUP4 DUP6 SUB SLT ISZERO PUSH2 0x3774 JUMPI PUSH0 DUP1 REVERT JUMPDEST DUP3 CALLDATALOAD SWAP2 POP PUSH2 0x3784 PUSH1 0x20 DUP5 ADD PUSH2 0x3353 JUMP JUMPDEST SWAP1 POP SWAP3 POP SWAP3 SWAP1 POP JUMP JUMPDEST PUSH0 DUP1 PUSH1 0x40 DUP4 DUP6 SUB SLT ISZERO PUSH2 0x379E JUMPI PUSH0 DUP1 REVERT JUMPDEST PUSH2 0x37A7 DUP4 PUSH2 0x3353 JUMP JUMPDEST SWAP2 POP PUSH2 0x3784 PUSH1 0x20 DUP5 ADD PUSH2 0x3353 JUMP JUMPDEST PUSH1 0x1 DUP2 DUP2 SHR SWAP1 DUP3 AND DUP1 PUSH2 0x37C9 JUMPI PUSH1 0x7F DUP3 AND SWAP2 POP JUMPDEST PUSH1 0x20 DUP3 LT DUP2 SUB PUSH2 0x37E7 JUMPI PUSH4 0x4E487B71 PUSH1 0xE0 SHL PUSH0 MSTORE PUSH1 0x22 PUSH1 0x4 MSTORE PUSH1 0x24 PUSH0 REVERT JUMPDEST POP SWAP2 SWAP1 POP JUMP JUMPDEST PUSH4 0x4E487B71 PUSH1 0xE0 SHL PUSH0 MSTORE PUSH1 0x32 PUSH1 0x4 MSTORE PUSH1 0x24 PUSH0 REVERT JUMPDEST PUSH1 0x20 DUP1 DUP3 MSTORE PUSH1 0x22 SWAP1 DUP3 ADD MSTORE PUSH32 0x455243333532353A20617070726F76616C20746F2063757272656E74206F776E PUSH1 0x40 DUP3 ADD MSTORE PUSH2 0x32B9 PUSH1 0xF1 SHL PUSH1 0x60 DUP3 ADD MSTORE PUSH1 0x80 ADD SWAP1 JUMP JUMPDEST PUSH0 DUP2 MLOAD PUSH2 0x3854 DUP2 DUP6 PUSH1 0x20 DUP7 ADD PUSH2 0x33CF JUMP JUMPDEST SWAP3 SWAP1 SWAP3 ADD SWAP3 SWAP2 POP POP JUMP JUMPDEST PUSH0 DUP4 MLOAD PUSH2 0x386F DUP2 DUP5 PUSH1 0x20 DUP9 ADD PUSH2 0x33CF JUMP JUMPDEST PUSH5 0x736C6F742F PUSH1 0xD8 SHL SWAP1 DUP4 ADD SWAP1 DUP2 MSTORE DUP4 MLOAD PUSH2 0x3891 DUP2 PUSH1 0x5 DUP5 ADD PUSH1 0x20 DUP9 ADD PUSH2 0x33CF JUMP JUMPDEST ADD PUSH1 0x5 ADD SWAP5 SWAP4 POP POP POP POP JUMP JUMPDEST PUSH0 PUSH1 0x20 DUP3 DUP5 SUB SLT ISZERO PUSH2 0x38AD JUMPI PUSH0 DUP1 REVERT JUMPDEST DUP2 MLOAD PUSH8 0xFFFFFFFFFFFFFFFF DUP2 GT ISZERO PUSH2 0x38C3 JUMPI PUSH0 DUP1 REVERT JUMPDEST DUP3 ADD PUSH1 0x1F DUP2 ADD DUP5 SGT PUSH2 0x38D3 JUMPI PUSH0 DUP1 REVERT JUMPDEST DUP1 MLOAD PUSH2 0x38E1 PUSH2 0x3616 DUP3 PUSH2 0x35E2 JUMP JUMPDEST DUP2 DUP2 MSTORE DUP6 PUSH1 0x20 DUP4 DUP6 ADD ADD GT ISZERO PUSH2 0x38F5 JUMPI PUSH0 DUP1 REVERT JUMPDEST PUSH2 0x3906 DUP3 PUSH1 0x20 DUP4 ADD PUSH1 0x20 DUP7 ADD PUSH2 0x33CF JUMP JUMPDEST SWAP6 SWAP5 POP POP POP POP POP JUMP JUMPDEST PUSH1 0x20 DUP1 DUP3 MSTORE PUSH1 0x32 SWAP1 DUP3 ADD MSTORE PUSH32 0x455243333532353A207472616E736665722063616C6C6572206973206E6F7420 PUSH1 0x40 DUP3 ADD MSTORE PUSH18 0x1BDDDB995C881B9BDC88185C1C1C9BDD9959 PUSH1 0x72 SHL PUSH1 0x60 DUP3 ADD MSTORE PUSH1 0x80 ADD SWAP1 JUMP JUMPDEST PUSH0 PUSH1 0x20 DUP3 DUP5 SUB SLT ISZERO PUSH2 0x3971 JUMPI PUSH0 DUP1 REVERT JUMPDEST DUP2 MLOAD PUSH2 0xC7B DUP2 PUSH2 0x36AA JUMP JUMPDEST PUSH1 0x20 DUP1 DUP3 MSTORE PUSH1 0x21 SWAP1 DUP3 ADD MSTORE PUSH32 0x455243333532353A204173736574206E6F742072656769737465726564207965 PUSH1 0x40 DUP3 ADD MSTORE PUSH1 0x1D PUSH1 0xFA SHL PUSH1 0x60 DUP3 ADD MSTORE PUSH1 0x80 ADD SWAP1 JUMP JUMPDEST PUSH4 0x4E487B71 PUSH1 0xE0 SHL PUSH0 MSTORE PUSH1 0x11 PUSH1 0x4 MSTORE PUSH1 0x24 PUSH0 REVERT JUMPDEST DUP1 DUP3 ADD DUP1 DUP3 GT ISZERO PUSH2 0x9DA JUMPI PUSH2 0x9DA PUSH2 0x39BD JUMP JUMPDEST PUSH32 0x3C73766720786D6C6E733D22687474703A2F2F7777772E77332E6F72672F3230 DUP2 MSTORE PUSH32 0x30302F737667222077696474683D2234303022206865696768743D2234303022 PUSH1 0x20 DUP3 ADD MSTORE PUSH32 0x207374796C653D226261636B67726F756E642D636F6C6F723A20234541454145 PUSH1 0x40 DUP3 ADD MSTORE PUSH32 0x413B20626F726465723A2031707820736F6C6964207472616E73706172656E74 PUSH1 0x60 DUP3 ADD MSTORE PUSH32 0x3B20626F726465722D7261646975733A20353070783B223E0000000000000000 PUSH1 0x80 DUP3 ADD MSTORE PUSH32 0x3C7465787420783D2233302220793D223134302220666F6E742D73697A653D22 PUSH1 0x98 DUP3 ADD MSTORE PUSH16 0x1A9A91103334B6361E91119A9A9A911F PUSH1 0x81 SHL PUSH1 0xB8 DUP3 ADD MSTORE PUSH0 DUP5 MLOAD PUSH2 0x3AF2 DUP2 PUSH1 0xC8 DUP6 ADD PUSH1 0x20 DUP10 ADD PUSH2 0x33CF JUMP JUMPDEST PUSH8 0x101E17BA32BC3A1F PUSH1 0xC1 SHL PUSH1 0xC8 SWAP2 DUP5 ADD SWAP2 DUP3 ADD MSTORE PUSH2 0x3C7D PUSH2 0x3C6B PUSH2 0x3C1C PUSH2 0x3BBB PUSH2 0x3C16 PUSH2 0x3BCE DUP3 PUSH2 0x3BB5 PUSH2 0x3B73 PUSH1 0xD0 DUP11 ADD PUSH32 0x3C7465787420783D2233302220793D223230302220666F6E742D73697A653D22 DUP2 MSTORE PUSH32 0x3330222066696C6C3D2223353535223E233C2F746578743E0000000000000000 PUSH1 0x20 DUP3 ADD MSTORE PUSH1 0x38 ADD SWAP1 JUMP JUMPDEST PUSH32 0x3C7465787420783D2235302220793D223230302220666F6E742D73697A653D22 DUP2 MSTORE PUSH16 0x199811103334B6361E91119A9A9A911F PUSH1 0x81 SHL PUSH1 0x20 DUP3 ADD MSTORE PUSH1 0x30 ADD SWAP1 JUMP JUMPDEST DUP13 PUSH2 0x3843 JUMP JUMPDEST PUSH7 0x1E17BA32BC3A1F PUSH1 0xC9 SHL DUP2 MSTORE PUSH1 0x7 ADD SWAP1 JUMP JUMPDEST PUSH32 0x3C7465787420783D2233302220793D223331302220666F6E742D73697A653D22 DUP2 MSTORE PUSH22 0x191811103334B6361E91119A9A9A911F29B637BA1D1 PUSH1 0x55 SHL PUSH1 0x20 DUP3 ADD MSTORE PUSH1 0x36 ADD SWAP1 JUMP JUMPDEST DUP9 PUSH2 0x3843 JUMP JUMPDEST PUSH32 0x3C7465787420783D2233302220793D223334302220666F6E742D73697A653D22 DUP2 MSTORE PUSH32 0x3135222066696C6C3D2223353535223E56494D414E204E46543C2F746578743E PUSH1 0x20 DUP3 ADD MSTORE PUSH1 0x40 ADD SWAP1 JUMP JUMPDEST PUSH6 0x1E17B9BB339F PUSH1 0xD1 SHL DUP2 MSTORE PUSH1 0x6 ADD SWAP1 JUMP JUMPDEST SWAP7 SWAP6 POP POP POP POP POP POP JUMP JUMPDEST PUSH32 0x646174613A696D6167652F7376672B786D6C3B6261736536342C000000000000 DUP2 MSTORE PUSH0 DUP3 MLOAD PUSH2 0x3CBE DUP2 PUSH1 0x1A DUP6 ADD PUSH1 0x20 DUP8 ADD PUSH2 0x33CF JUMP JUMPDEST SWAP2 SWAP1 SWAP2 ADD PUSH1 0x1A ADD SWAP3 SWAP2 POP POP JUMP JUMPDEST PUSH19 0x7B226E616D65223A2022564D414E4E46542023 PUSH1 0x68 SHL DUP2 MSTORE DUP3 MLOAD PUSH0 SWAP1 PUSH2 0x3CF9 DUP2 PUSH1 0x13 DUP6 ADD PUSH1 0x20 DUP9 ADD PUSH2 0x33CF JUMP JUMPDEST PUSH32 0x222C20226465736372697074696F6E223A2022564D414E4E4654222C20226174 PUSH1 0x13 SWAP2 DUP5 ADD SWAP2 DUP3 ADD MSTORE PUSH32 0x7472696275746573223A2022222C2022696D616765223A220000000000000000 PUSH1 0x33 DUP3 ADD MSTORE DUP4 MLOAD PUSH2 0x3D5C DUP2 PUSH1 0x4B DUP5 ADD PUSH1 0x20 DUP9 ADD PUSH2 0x33CF JUMP JUMPDEST PUSH2 0x227D PUSH1 0xF0 SHL PUSH1 0x4B SWAP3 SWAP1 SWAP2 ADD SWAP2 DUP3 ADD MSTORE PUSH1 0x4D ADD SWAP5 SWAP4 POP POP POP POP JUMP JUMPDEST PUSH32 0x646174613A6170706C69636174696F6E2F6A736F6E3B6261736536342C000000 DUP2 MSTORE PUSH0 DUP3 MLOAD PUSH2 0x3DAE DUP2 PUSH1 0x1D DUP6 ADD PUSH1 0x20 DUP8 ADD PUSH2 0x33CF JUMP JUMPDEST SWAP2 SWAP1 SWAP2 ADD PUSH1 0x1D ADD SWAP3 SWAP2 POP POP JUMP JUMPDEST PUSH0 DUP4 MLOAD PUSH2 0x3DCC DUP2 DUP5 PUSH1 0x20 DUP9 ADD PUSH2 0x33CF JUMP JUMPDEST PUSH9 0x636F6E74726163742F PUSH1 0xB8 SHL SWAP1 DUP4 ADD SWAP1 DUP2 MSTORE DUP4 MLOAD PUSH2 0x3DF2 DUP2 PUSH1 0x9 DUP5 ADD PUSH1 0x20 DUP9 ADD PUSH2 0x33CF JUMP JUMPDEST ADD PUSH1 0x9 ADD SWAP5 SWAP4 POP POP POP POP JUMP JUMPDEST DUP2 DUP2 SUB DUP2 DUP2 GT ISZERO PUSH2 0x9DA JUMPI PUSH2 0x9DA PUSH2 0x39BD JUMP JUMPDEST PUSH0 PUSH1 0x1 DUP3 ADD PUSH2 0x3E22 JUMPI PUSH2 0x3E22 PUSH2 0x39BD JUMP JUMPDEST POP PUSH1 0x1 ADD SWAP1 JUMP JUMPDEST PUSH1 0x1F DUP3 GT ISZERO PUSH2 0xB94 JUMPI PUSH0 DUP2 DUP2 MSTORE PUSH1 0x20 DUP2 KECCAK256 PUSH1 0x1F DUP6 ADD PUSH1 0x5 SHR DUP2 ADD PUSH1 0x20 DUP7 LT ISZERO PUSH2 0x3E4F JUMPI POP DUP1 JUMPDEST PUSH1 0x1F DUP6 ADD PUSH1 0x5 SHR DUP3 ADD SWAP2 POP JUMPDEST DUP2 DUP2 LT ISZERO PUSH2 0x19EB JUMPI DUP3 DUP2 SSTORE PUSH1 0x1 ADD PUSH2 0x3E5B JUMP JUMPDEST DUP2 MLOAD PUSH8 0xFFFFFFFFFFFFFFFF DUP2 GT ISZERO PUSH2 0x3E88 JUMPI PUSH2 0x3E88 PUSH2 0x359D JUMP JUMPDEST PUSH2 0x3E9C DUP2 PUSH2 0x3E96 DUP5 SLOAD PUSH2 0x37B5 JUMP JUMPDEST DUP5 PUSH2 0x3E29 JUMP JUMPDEST PUSH1 0x20 DUP1 PUSH1 0x1F DUP4 GT PUSH1 0x1 DUP2 EQ PUSH2 0x3ECF JUMPI PUSH0 DUP5 ISZERO PUSH2 0x3EB8 JUMPI POP DUP6 DUP4 ADD MLOAD JUMPDEST PUSH0 NOT PUSH1 0x3 DUP7 SWAP1 SHL SHR NOT AND PUSH1 0x1 DUP6 SWAP1 SHL OR DUP6 SSTORE PUSH2 0x19EB JUMP JUMPDEST PUSH0 DUP6 DUP2 MSTORE PUSH1 0x20 DUP2 KECCAK256 PUSH1 0x1F NOT DUP7 AND SWAP2 JUMPDEST DUP3 DUP2 LT ISZERO PUSH2 0x3EFD JUMPI DUP9 DUP7 ADD MLOAD DUP3 SSTORE SWAP5 DUP5 ADD SWAP5 PUSH1 0x1 SWAP1 SWAP2 ADD SWAP1 DUP5 ADD PUSH2 0x3EDE JUMP JUMPDEST POP DUP6 DUP3 LT ISZERO PUSH2 0x3F1A JUMPI DUP8 DUP6 ADD MLOAD PUSH0 NOT PUSH1 0x3 DUP9 SWAP1 SHL PUSH1 0xF8 AND SHR NOT AND DUP2 SSTORE JUMPDEST POP POP POP POP POP PUSH1 0x1 SWAP1 DUP2 SHL ADD SWAP1 SSTORE POP JUMP JUMPDEST PUSH0 DUP3 PUSH2 0x3F44 JUMPI PUSH4 0x4E487B71 PUSH1 0xE0 SHL PUSH0 MSTORE PUSH1 0x12 PUSH1 0x4 MSTORE PUSH1 0x24 PUSH0 REVERT JUMPDEST POP DIV SWAP1 JUMP JUMPDEST DUP1 DUP3 MUL DUP2 ISZERO DUP3 DUP3 DIV DUP5 EQ OR PUSH2 0x9DA JUMPI PUSH2 0x9DA PUSH2 0x39BD JUMP JUMPDEST PUSH1 0x1 DUP1 PUSH1 0xA0 SHL SUB DUP7 AND DUP2 MSTORE DUP5 PUSH1 0x20 DUP3 ADD MSTORE DUP4 PUSH1 0x40 DUP3 ADD MSTORE DUP3 PUSH1 0x60 DUP3 ADD MSTORE PUSH1 0xA0 PUSH1 0x80 DUP3 ADD MSTORE PUSH0 PUSH2 0x3F92 PUSH1 0xA0 DUP4 ADD DUP5 PUSH2 0x33F1 JUMP JUMPDEST SWAP8 SWAP7 POP POP POP POP POP POP POP JUMP JUMPDEST PUSH0 PUSH1 0x20 DUP3 DUP5 SUB SLT ISZERO PUSH2 0x3FAD JUMPI PUSH0 DUP1 REVERT JUMPDEST DUP2 MLOAD PUSH2 0xC7B DUP2 PUSH2 0x339F JUMP JUMPDEST PUSH4 0x4E487B71 PUSH1 0xE0 SHL PUSH0 MSTORE PUSH1 0x31 PUSH1 0x4 MSTORE PUSH1 0x24 PUSH0 REVERT JUMPDEST PUSH1 0x1 PUSH1 0x1 PUSH1 0xA0 SHL SUB DUP6 DUP2 AND DUP3 MSTORE DUP5 AND PUSH1 0x20 DUP3 ADD MSTORE PUSH1 0x40 DUP2 ADD DUP4 SWAP1 MSTORE PUSH1 0x80 PUSH1 0x60 DUP3 ADD DUP2 SWAP1 MSTORE PUSH0 SWAP1 PUSH2 0x3C7D SWAP1 DUP4 ADD DUP5 PUSH2 0x33F1 JUMP JUMPDEST PUSH0 DUP2 PUSH2 0x400C JUMPI PUSH2 0x400C PUSH2 0x39BD JUMP JUMPDEST POP PUSH0 NOT ADD SWAP1 JUMP INVALID COINBASE TIMESTAMP NUMBER PREVRANDAO GASLIMIT CHAINID SELFBALANCE BASEFEE 0x49 0x4A 0x4B 0x4C 0x4D 0x4E 0x4F POP MLOAD MSTORE MSTORE8 SLOAD SSTORE JUMP JUMPI PC MSIZE GAS PUSH2 0x6263 PUSH5 0x6566676869 PUSH11 0x6B6C6D6E6F707172737475 PUSH23 0x7778797A303132333435363738392B2FA2646970667358 0x22 SLT KECCAK256 0xDD DUP6 RETURNDATASIZE PUSH12 0x1B1734BF8CBA66D63D45499 0x26 SSTORE PUSH15 0xD833A29D11E4A3E0ECE76C41A6473 PUSH16 0x6C634300081400330000000000000000 "
		},
		"gasEstimates": {
			"creation": {
				"codeDepositCost": "3304200",
				"executionCost": "infinite",
				"totalCost": "infinite"
			},
			"external": {
				"_allTokens(uint256)": "13292",
				"_allTokensIndex(uint256)": "2524",
				"_mint(address,uint256,uint256,uint256)": "infinite",
				"_mintValue(uint256,uint256)": "infinite",
				"addAgent(address)": "30464",
				"allowance(uint256,address)": "11431",
				"approve(address,uint256)": "infinite",
				"approve(uint256,address,uint256)": "infinite",
				"assetFractionalPriceUSD(uint256)": "2480",
				"balanceOf(address)": "2631",
				"balanceOf(uint256)": "15607",
				"contractURI()": "infinite",
				"fractionalizeAsset(uint256,uint256)": "infinite",
				"getAllSlots()": "infinite",
				"getApproved(uint256)": "15611",
				"getAssetFractionalPriceUSD(uint256)": "infinite",
				"isAgent(address)": "2768",
				"isApprovedForAll(address,address)": "infinite",
				"metadataDescriptor()": "2448",
				"mintAsset(address,uint256,uint256)": "infinite",
				"name()": "infinite",
				"owner()": "2397",
				"ownerOf(uint256)": "15678",
				"registerAsset(address,uint256,string)": "infinite",
				"removeAgent(address)": "30454",
				"renounceOwnership()": "infinite",
				"safeTransferFrom(address,address,uint256)": "infinite",
				"safeTransferFrom(address,address,uint256,bytes)": "infinite",
				"setApprovalForAll(address,bool)": "26797",
				"setAssetFractionalPriceUSD(uint256,uint256)": "infinite",
				"setTokenURI(uint256)": "infinite",
				"slotOf(uint256)": "15498",
				"slotURI(uint256)": "infinite",
				"supportsInterface(bytes4)": "741",
				"symbol()": "infinite",
				"tokenByIndex(uint256)": "6815",
				"tokenOfOwnerByIndex(address,uint256)": "7130",
				"tokenURI(uint256)": "infinite",
				"totalSupply()": "2381",
				"transferFrom(address,address,uint256)": "infinite",
				"transferFrom(uint256,address,uint256)": "infinite",
				"transferFrom(uint256,uint256,uint256)": "infinite",
				"transferOwnership(address)": "28519",
				"valueDecimals()": "2333"
			},
			"internal": {
				"__mintToken(address,uint256,uint256)": "infinite",
				"__mintValue(uint256,uint256)": "infinite",
				"_addSlot(uint256)": "48543",
				"_addTokenToAllTokensEnumeration(struct ERC3525.AssetData memory)": "infinite",
				"_addTokenToOwnerEnumeration(address,uint256)": "97303",
				"_afterValueTransfer(address,address,uint256,uint256,uint256,uint256)": "infinite",
				"_approve(address,uint256)": "infinite",
				"_approveValue(uint256,address,uint256)": "infinite",
				"_baseURI()": "infinite",
				"_beforeValueTransfer(address,address,uint256,uint256,uint256,uint256)": "21",
				"_burn(uint256)": "infinite",
				"_burnValue(uint256,uint256)": "infinite",
				"_checkOnERC3525Received(uint256,uint256,uint256,bytes memory)": "infinite",
				"_checkOnERC721Received(address,address,uint256,bytes memory)": "infinite",
				"_clearApprovedValues(uint256)": "infinite",
				"_createDerivedTokenId(uint256)": "24338",
				"_createOriginalTokenId()": "24302",
				"_existApproveValue(address,uint256)": "infinite",
				"_exists(uint256)": "8634",
				"_isApprovedOrOwner(address,uint256)": "infinite",
				"_isContract(address)": "infinite",
				"_removeTokenFromAllTokensEnumeration(uint256)": "infinite",
				"_removeTokenFromOwnerEnumeration(address,uint256)": "118277",
				"_requireMinted(uint256)": "infinite",
				"_safeTransferTokenId(address,address,uint256,bytes memory)": "infinite",
				"_setApprovalForAll(address,address,bool)": "infinite",
				"_setMetadataDescriptor(address)": "infinite",
				"_setSlotURI(uint256,string memory)": "infinite",
				"_setTokenURI(uint256,string memory)": "infinite",
				"_slotExists(uint256)": "infinite",
				"_spendAllowance(address,uint256,uint256)": "infinite",
				"_transferTokenId(address,address,uint256)": "infinite",
				"_transferValue(uint256,uint256,uint256)": "infinite"
			}
		},
		"methodIdentifiers": {
			"_allTokens(uint256)": "aa5965ae",
			"_allTokensIndex(uint256)": "a7263665",
			"_mint(address,uint256,uint256,uint256)": "016d5807",
			"_mintValue(uint256,uint256)": "18de611d",
			"addAgent(address)": "84e79842",
			"allowance(uint256,address)": "e345e0bc",
			"approve(address,uint256)": "095ea7b3",
			"approve(uint256,address,uint256)": "8cb0a511",
			"assetFractionalPriceUSD(uint256)": "a167dd55",
			"balanceOf(address)": "70a08231",
			"balanceOf(uint256)": "9cc7f708",
			"contractURI()": "e8a3d485",
			"fractionalizeAsset(uint256,uint256)": "394b2122",
			"getAllSlots()": "6285bfcf",
			"getApproved(uint256)": "081812fc",
			"getAssetFractionalPriceUSD(uint256)": "2847637a",
			"isAgent(address)": "1ffbb064",
			"isApprovedForAll(address,address)": "e985e9c5",
			"metadataDescriptor()": "840f7113",
			"mintAsset(address,uint256,uint256)": "735c699d",
			"name()": "06fdde03",
			"owner()": "8da5cb5b",
			"ownerOf(uint256)": "6352211e",
			"registerAsset(address,uint256,string)": "8e9e5114",
			"removeAgent(address)": "97a6278e",
			"renounceOwnership()": "715018a6",
			"safeTransferFrom(address,address,uint256)": "42842e0e",
			"safeTransferFrom(address,address,uint256,bytes)": "b88d4fde",
			"setApprovalForAll(address,bool)": "a22cb465",
			"setAssetFractionalPriceUSD(uint256,uint256)": "6408dcba",
			"setTokenURI(uint256)": "bff26126",
			"slotOf(uint256)": "263f3e7e",
			"slotURI(uint256)": "09c3dd87",
			"supportsInterface(bytes4)": "01ffc9a7",
			"symbol()": "95d89b41",
			"tokenByIndex(uint256)": "4f6ccce7",
			"tokenOfOwnerByIndex(address,uint256)": "2f745c59",
			"tokenURI(uint256)": "c87b56dd",
			"totalSupply()": "18160ddd",
			"transferFrom(address,address,uint256)": "23b872dd",
			"transferFrom(uint256,address,uint256)": "0f485c02",
			"transferFrom(uint256,uint256,uint256)": "310ed7f0",
			"transferOwnership(address)": "f2fde38b",
			"valueDecimals()": "3e7e8669"
		}
	},
	"abi": [
		{
			"inputs": [],
			"stateMutability": "nonpayable",
			"type": "constructor"
		},
		{
			"inputs": [],
			"name": "InvalidInitialization",
			"type": "error"
		},
		{
			"inputs": [],
			"name": "NotInitializing",
			"type": "error"
		},
		{
			"inputs": [
				{
					"internalType": "address",
					"name": "owner",
					"type": "address"
				}
			],
			"name": "OwnableInvalidOwner",
			"type": "error"
		},
		{
			"inputs": [
				{
					"internalType": "address",
					"name": "account",
					"type": "address"
				}
			],
			"name": "OwnableUnauthorizedAccount",
			"type": "error"
		},
		{
			"inputs": [
				{
					"internalType": "uint256",
					"name": "value",
					"type": "uint256"
				},
				{
					"internalType": "uint256",
					"name": "length",
					"type": "uint256"
				}
			],
			"name": "StringsInsufficientHexLength",
			"type": "error"
		},
		{
			"anonymous": false,
			"inputs": [
				{
					"indexed": true,
					"internalType": "address",
					"name": "_agent",
					"type": "address"
				}
			],
			"name": "AgentAdded",
			"type": "event"
		},
		{
			"anonymous": false,
			"inputs": [
				{
					"indexed": true,
					"internalType": "address",
					"name": "_agent",
					"type": "address"
				}
			],
			"name": "AgentRemoved",
			"type": "event"
		},
		{
			"anonymous": false,
			"inputs": [
				{
					"indexed": true,
					"internalType": "address",
					"name": "_owner",
					"type": "address"
				},
				{
					"indexed": true,
					"internalType": "address",
					"name": "_approved",
					"type": "address"
				},
				{
					"indexed": true,
					"internalType": "uint256",
					"name": "_tokenId",
					"type": "uint256"
				}
			],
			"name": "Approval",
			"type": "event"
		},
		{
			"anonymous": false,
			"inputs": [
				{
					"indexed": true,
					"internalType": "address",
					"name": "_owner",
					"type": "address"
				},
				{
					"indexed": true,
					"internalType": "address",
					"name": "_operator",
					"type": "address"
				},
				{
					"indexed": false,
					"internalType": "bool",
					"name": "_approved",
					"type": "bool"
				}
			],
			"name": "ApprovalForAll",
			"type": "event"
		},
		{
			"anonymous": false,
			"inputs": [
				{
					"indexed": true,
					"internalType": "uint256",
					"name": "_tokenId",
					"type": "uint256"
				},
				{
					"indexed": true,
					"internalType": "address",
					"name": "_operator",
					"type": "address"
				},
				{
					"indexed": false,
					"internalType": "uint256",
					"name": "_value",
					"type": "uint256"
				}
			],
			"name": "ApprovalValue",
			"type": "event"
		},
		{
			"anonymous": false,
			"inputs": [
				{
					"indexed": false,
					"internalType": "uint64",
					"name": "version",
					"type": "uint64"
				}
			],
			"name": "Initialized",
			"type": "event"
		},
		{
			"anonymous": false,
			"inputs": [
				{
					"indexed": true,
					"internalType": "address",
					"name": "previousOwner",
					"type": "address"
				},
				{
					"indexed": true,
					"internalType": "address",
					"name": "newOwner",
					"type": "address"
				}
			],
			"name": "OwnershipTransferred",
			"type": "event"
		},
		{
			"anonymous": false,
			"inputs": [
				{
					"indexed": true,
					"internalType": "address",
					"name": "metadataDescriptor",
					"type": "address"
				}
			],
			"name": "SetMetadataDescriptor",
			"type": "event"
		},
		{
			"anonymous": false,
			"inputs": [
				{
					"indexed": true,
					"internalType": "uint256",
					"name": "_tokenId",
					"type": "uint256"
				},
				{
					"indexed": true,
					"internalType": "uint256",
					"name": "_oldSlot",
					"type": "uint256"
				},
				{
					"indexed": true,
					"internalType": "uint256",
					"name": "_newSlot",
					"type": "uint256"
				}
			],
			"name": "SlotChanged",
			"type": "event"
		},
		{
			"anonymous": false,
			"inputs": [
				{
					"indexed": true,
					"internalType": "address",
					"name": "_from",
					"type": "address"
				},
				{
					"indexed": true,
					"internalType": "address",
					"name": "_to",
					"type": "address"
				},
				{
					"indexed": true,
					"internalType": "uint256",
					"name": "_tokenId",
					"type": "uint256"
				}
			],
			"name": "Transfer",
			"type": "event"
		},
		{
			"anonymous": false,
			"inputs": [
				{
					"indexed": true,
					"internalType": "uint256",
					"name": "_fromTokenId",
					"type": "uint256"
				},
				{
					"indexed": true,
					"internalType": "uint256",
					"name": "_toTokenId",
					"type": "uint256"
				},
				{
					"indexed": false,
					"internalType": "uint256",
					"name": "_value",
					"type": "uint256"
				}
			],
			"name": "TransferValue",
			"type": "event"
		},
		{
			"inputs": [
				{
					"internalType": "uint256",
					"name": "",
					"type": "uint256"
				}
			],
			"name": "_allTokens",
			"outputs": [
				{
					"internalType": "uint256",
					"name": "id",
					"type": "uint256"
				},
				{
					"internalType": "uint256",
					"name": "slot",
					"type": "uint256"
				},
				{
					"internalType": "uint256",
					"name": "balance",
					"type": "uint256"
				},
				{
					"internalType": "address",
					"name": "owner",
					"type": "address"
				},
				{
					"internalType": "address",
					"name": "approved",
					"type": "address"
				}
			],
			"stateMutability": "view",
			"type": "function"
		},
		{
			"inputs": [
				{
					"internalType": "uint256",
					"name": "",
					"type": "uint256"
				}
			],
			"name": "_allTokensIndex",
			"outputs": [
				{
					"internalType": "uint256",
					"name": "",
					"type": "uint256"
				}
			],
			"stateMutability": "view",
			"type": "function"
		},
		{
			"inputs": [
				{
					"internalType": "address",
					"name": "to_",
					"type": "address"
				},
				{
					"internalType": "uint256",
					"name": "tokenId_",
					"type": "uint256"
				},
				{
					"internalType": "uint256",
					"name": "slot_",
					"type": "uint256"
				},
				{
					"internalType": "uint256",
					"name": "value_",
					"type": "uint256"
				}
			],
			"name": "_mint",
			"outputs": [],
			"stateMutability": "nonpayable",
			"type": "function"
		},
		{
			"inputs": [
				{
					"internalType": "uint256",
					"name": "tokenId_",
					"type": "uint256"
				},
				{
					"internalType": "uint256",
					"name": "value_",
					"type": "uint256"
				}
			],
			"name": "_mintValue",
			"outputs": [],
			"stateMutability": "nonpayable",
			"type": "function"
		},
		{
			"inputs": [
				{
					"internalType": "address",
					"name": "_agent",
					"type": "address"
				}
			],
			"name": "addAgent",
			"outputs": [],
			"stateMutability": "nonpayable",
			"type": "function"
		},
		{
			"inputs": [
				{
					"internalType": "uint256",
					"name": "tokenId_",
					"type": "uint256"
				},
				{
					"internalType": "address",
					"name": "operator_",
					"type": "address"
				}
			],
			"name": "allowance",
			"outputs": [
				{
					"internalType": "uint256",
					"name": "",
					"type": "uint256"
				}
			],
			"stateMutability": "view",
			"type": "function"
		},
		{
			"inputs": [
				{
					"internalType": "address",
					"name": "to_",
					"type": "address"
				},
				{
					"internalType": "uint256",
					"name": "tokenId_",
					"type": "uint256"
				}
			],
			"name": "approve",
			"outputs": [],
			"stateMutability": "payable",
			"type": "function"
		},
		{
			"inputs": [
				{
					"internalType": "uint256",
					"name": "tokenId_",
					"type": "uint256"
				},
				{
					"internalType": "address",
					"name": "to_",
					"type": "address"
				},
				{
					"internalType": "uint256",
					"name": "value_",
					"type": "uint256"
				}
			],
			"name": "approve",
			"outputs": [],
			"stateMutability": "payable",
			"type": "function"
		},
		{
			"inputs": [
				{
					"internalType": "uint256",
					"name": "",
					"type": "uint256"
				}
			],
			"name": "assetFractionalPriceUSD",
			"outputs": [
				{
					"internalType": "uint256",
					"name": "",
					"type": "uint256"
				}
			],
			"stateMutability": "view",
			"type": "function"
		},
		{
			"inputs": [
				{
					"internalType": "address",
					"name": "owner_",
					"type": "address"
				}
			],
			"name": "balanceOf",
			"outputs": [
				{
					"internalType": "uint256",
					"name": "balance",
					"type": "uint256"
				}
			],
			"stateMutability": "view",
			"type": "function"
		},
		{
			"inputs": [
				{
					"internalType": "uint256",
					"name": "tokenId_",
					"type": "uint256"
				}
			],
			"name": "balanceOf",
			"outputs": [
				{
					"internalType": "uint256",
					"name": "",
					"type": "uint256"
				}
			],
			"stateMutability": "view",
			"type": "function"
		},
		{
			"inputs": [],
			"name": "contractURI",
			"outputs": [
				{
					"internalType": "string",
					"name": "",
					"type": "string"
				}
			],
			"stateMutability": "view",
			"type": "function"
		},
		{
			"inputs": [
				{
					"internalType": "uint256",
					"name": "slot_",
					"type": "uint256"
				},
				{
					"internalType": "uint256",
					"name": "totalSupply_",
					"type": "uint256"
				}
			],
			"name": "fractionalizeAsset",
			"outputs": [],
			"stateMutability": "nonpayable",
			"type": "function"
		},
		{
			"inputs": [],
			"name": "getAllSlots",
			"outputs": [
				{
					"internalType": "uint256[]",
					"name": "",
					"type": "uint256[]"
				}
			],
			"stateMutability": "view",
			"type": "function"
		},
		{
			"inputs": [
				{
					"internalType": "uint256",
					"name": "tokenId_",
					"type": "uint256"
				}
			],
			"name": "getApproved",
			"outputs": [
				{
					"internalType": "address",
					"name": "",
					"type": "address"
				}
			],
			"stateMutability": "view",
			"type": "function"
		},
		{
			"inputs": [
				{
					"internalType": "uint256",
					"name": "_slotId",
					"type": "uint256"
				}
			],
			"name": "getAssetFractionalPriceUSD",
			"outputs": [
				{
					"internalType": "uint256",
					"name": "",
					"type": "uint256"
				}
			],
			"stateMutability": "view",
			"type": "function"
		},
		{
			"inputs": [
				{
					"internalType": "address",
					"name": "_agent",
					"type": "address"
				}
			],
			"name": "isAgent",
			"outputs": [
				{
					"internalType": "bool",
					"name": "",
					"type": "bool"
				}
			],
			"stateMutability": "view",
			"type": "function"
		},
		{
			"inputs": [
				{
					"internalType": "address",
					"name": "owner_",
					"type": "address"
				},
				{
					"internalType": "address",
					"name": "operator_",
					"type": "address"
				}
			],
			"name": "isApprovedForAll",
			"outputs": [
				{
					"internalType": "bool",
					"name": "",
					"type": "bool"
				}
			],
			"stateMutability": "view",
			"type": "function"
		},
		{
			"inputs": [],
			"name": "metadataDescriptor",
			"outputs": [
				{
					"internalType": "contract IERC3525MetadataDescriptor",
					"name": "",
					"type": "address"
				}
			],
			"stateMutability": "view",
			"type": "function"
		},
		{
			"inputs": [
				{
					"internalType": "address",
					"name": "to_",
					"type": "address"
				},
				{
					"internalType": "uint256",
					"name": "slot_",
					"type": "uint256"
				},
				{
					"internalType": "uint256",
					"name": "value_",
					"type": "uint256"
				}
			],
			"name": "mintAsset",
			"outputs": [
				{
					"internalType": "uint256",
					"name": "tokenId",
					"type": "uint256"
				}
			],
			"stateMutability": "nonpayable",
			"type": "function"
		},
		{
			"inputs": [],
			"name": "name",
			"outputs": [
				{
					"internalType": "string",
					"name": "",
					"type": "string"
				}
			],
			"stateMutability": "view",
			"type": "function"
		},
		{
			"inputs": [],
			"name": "owner",
			"outputs": [
				{
					"internalType": "address",
					"name": "",
					"type": "address"
				}
			],
			"stateMutability": "view",
			"type": "function"
		},
		{
			"inputs": [
				{
					"internalType": "uint256",
					"name": "tokenId_",
					"type": "uint256"
				}
			],
			"name": "ownerOf",
			"outputs": [
				{
					"internalType": "address",
					"name": "owner_",
					"type": "address"
				}
			],
			"stateMutability": "view",
			"type": "function"
		},
		{
			"inputs": [
				{
					"internalType": "address",
					"name": "to_",
					"type": "address"
				},
				{
					"internalType": "uint256",
					"name": "slot_",
					"type": "uint256"
				},
				{
					"internalType": "string",
					"name": "uri",
					"type": "string"
				}
			],
			"name": "registerAsset",
			"outputs": [
				{
					"internalType": "uint256",
					"name": "tokenId",
					"type": "uint256"
				}
			],
			"stateMutability": "nonpayable",
			"type": "function"
		},
		{
			"inputs": [
				{
					"internalType": "address",
					"name": "_agent",
					"type": "address"
				}
			],
			"name": "removeAgent",
			"outputs": [],
			"stateMutability": "nonpayable",
			"type": "function"
		},
		{
			"inputs": [],
			"name": "renounceOwnership",
			"outputs": [],
			"stateMutability": "nonpayable",
			"type": "function"
		},
		{
			"inputs": [
				{
					"internalType": "address",
					"name": "from_",
					"type": "address"
				},
				{
					"internalType": "address",
					"name": "to_",
					"type": "address"
				},
				{
					"internalType": "uint256",
					"name": "tokenId_",
					"type": "uint256"
				}
			],
			"name": "safeTransferFrom",
			"outputs": [],
			"stateMutability": "payable",
			"type": "function"
		},
		{
			"inputs": [
				{
					"internalType": "address",
					"name": "from_",
					"type": "address"
				},
				{
					"internalType": "address",
					"name": "to_",
					"type": "address"
				},
				{
					"internalType": "uint256",
					"name": "tokenId_",
					"type": "uint256"
				},
				{
					"internalType": "bytes",
					"name": "data_",
					"type": "bytes"
				}
			],
			"name": "safeTransferFrom",
			"outputs": [],
			"stateMutability": "payable",
			"type": "function"
		},
		{
			"inputs": [
				{
					"internalType": "address",
					"name": "operator_",
					"type": "address"
				},
				{
					"internalType": "bool",
					"name": "approved_",
					"type": "bool"
				}
			],
			"name": "setApprovalForAll",
			"outputs": [],
			"stateMutability": "nonpayable",
			"type": "function"
		},
		{
			"inputs": [
				{
					"internalType": "uint256",
					"name": "_slotId",
					"type": "uint256"
				},
				{
					"internalType": "uint256",
					"name": "priceUSD",
					"type": "uint256"
				}
			],
			"name": "setAssetFractionalPriceUSD",
			"outputs": [],
			"stateMutability": "nonpayable",
			"type": "function"
		},
		{
			"inputs": [
				{
					"internalType": "uint256",
					"name": "tokenId",
					"type": "uint256"
				}
			],
			"name": "setTokenURI",
			"outputs": [
				{
					"internalType": "bytes",
					"name": "",
					"type": "bytes"
				}
			],
			"stateMutability": "view",
			"type": "function"
		},
		{
			"inputs": [
				{
					"internalType": "uint256",
					"name": "tokenId_",
					"type": "uint256"
				}
			],
			"name": "slotOf",
			"outputs": [
				{
					"internalType": "uint256",
					"name": "",
					"type": "uint256"
				}
			],
			"stateMutability": "view",
			"type": "function"
		},
		{
			"inputs": [
				{
					"internalType": "uint256",
					"name": "slot_",
					"type": "uint256"
				}
			],
			"name": "slotURI",
			"outputs": [
				{
					"internalType": "string",
					"name": "",
					"type": "string"
				}
			],
			"stateMutability": "view",
			"type": "function"
		},
		{
			"inputs": [
				{
					"internalType": "bytes4",
					"name": "interfaceId",
					"type": "bytes4"
				}
			],
			"name": "supportsInterface",
			"outputs": [
				{
					"internalType": "bool",
					"name": "",
					"type": "bool"
				}
			],
			"stateMutability": "view",
			"type": "function"
		},
		{
			"inputs": [],
			"name": "symbol",
			"outputs": [
				{
					"internalType": "string",
					"name": "",
					"type": "string"
				}
			],
			"stateMutability": "view",
			"type": "function"
		},
		{
			"inputs": [
				{
					"internalType": "uint256",
					"name": "index_",
					"type": "uint256"
				}
			],
			"name": "tokenByIndex",
			"outputs": [
				{
					"internalType": "uint256",
					"name": "",
					"type": "uint256"
				}
			],
			"stateMutability": "view",
			"type": "function"
		},
		{
			"inputs": [
				{
					"internalType": "address",
					"name": "owner_",
					"type": "address"
				},
				{
					"internalType": "uint256",
					"name": "index_",
					"type": "uint256"
				}
			],
			"name": "tokenOfOwnerByIndex",
			"outputs": [
				{
					"internalType": "uint256",
					"name": "",
					"type": "uint256"
				}
			],
			"stateMutability": "view",
			"type": "function"
		},
		{
			"inputs": [
				{
					"internalType": "uint256",
					"name": "tokenId_",
					"type": "uint256"
				}
			],
			"name": "tokenURI",
			"outputs": [
				{
					"internalType": "string",
					"name": "",
					"type": "string"
				}
			],
			"stateMutability": "view",
			"type": "function"
		},
		{
			"inputs": [],
			"name": "totalSupply",
			"outputs": [
				{
					"internalType": "uint256",
					"name": "",
					"type": "uint256"
				}
			],
			"stateMutability": "view",
			"type": "function"
		},
		{
			"inputs": [
				{
					"internalType": "uint256",
					"name": "fromTokenId_",
					"type": "uint256"
				},
				{
					"internalType": "address",
					"name": "to_",
					"type": "address"
				},
				{
					"internalType": "uint256",
					"name": "value_",
					"type": "uint256"
				}
			],
			"name": "transferFrom",
			"outputs": [
				{
					"internalType": "uint256",
					"name": "newTokenId",
					"type": "uint256"
				}
			],
			"stateMutability": "payable",
			"type": "function"
		},
		{
			"inputs": [
				{
					"internalType": "address",
					"name": "from_",
					"type": "address"
				},
				{
					"internalType": "address",
					"name": "to_",
					"type": "address"
				},
				{
					"internalType": "uint256",
					"name": "tokenId_",
					"type": "uint256"
				}
			],
			"name": "transferFrom",
			"outputs": [],
			"stateMutability": "payable",
			"type": "function"
		},
		{
			"inputs": [
				{
					"internalType": "uint256",
					"name": "fromTokenId_",
					"type": "uint256"
				},
				{
					"internalType": "uint256",
					"name": "toTokenId_",
					"type": "uint256"
				},
				{
					"internalType": "uint256",
					"name": "value_",
					"type": "uint256"
				}
			],
			"name": "transferFrom",
			"outputs": [],
			"stateMutability": "payable",
			"type": "function"
		},
		{
			"inputs": [
				{
					"internalType": "address",
					"name": "newOwner",
					"type": "address"
				}
			],
			"name": "transferOwnership",
			"outputs": [],
			"stateMutability": "nonpayable",
			"type": "function"
		},
		{
			"inputs": [],
			"name": "valueDecimals",
			"outputs": [
				{
					"internalType": "uint8",
					"name": "",
					"type": "uint8"
				}
			],
			"stateMutability": "view",
			"type": "function"
		}
	]
}