{
	"data": {
		"bytecode": {
			"linkReferences": {},
			"object": "60806040526009805460ff19169055348015610019575f80fd5b50613645806100275f395ff3fe608060405234801561000f575f80fd5b5060043610610281575f3560e01c8063715018a611610156578063a9059cbb116100ca578063dd62ed3e11610084578063dd62ed3e1461059b578063e5839836146105d3578063f2fde38b146105fe578063f898178914610611578063f91b619c14610624578063fc7e5fa814610637575f80fd5b8063a9059cbb14610526578063aba6370514610539578063b84c82461461054f578063c47f002714610562578063c69c09cf14610575578063cbf3f86114610588575f80fd5b80639285948a1161011b5780639285948a146104bf57806395d89b41146104d257806397a6278e146104da5780639dc29fac146104ed5780639fc1d0e714610500578063a457c2d714610513575f80fd5b8063715018a6146104815780638456cb591461048957806384e798421461049157806388d695b2146104a45780638da5cb5b146104b7575f80fd5b806339509351116101f85780634a6cc677116101b25780634a6cc6771461040b57806354fd4d501461041e5780635c975abb1461043f5780636290865d1461044a578063685731071461045b57806370a082311461046e575f80fd5b806339509351146103a45780633d1ddc5b146103b75780633f4ba83a146103ca57806340c10f19146103d257806342a47abc146103e55780634710362d146103f8575f80fd5b806318160ddd1161024957806318160ddd1461033b5780631a7af379146103435780631fe56f7d146103565780631ffbb0641461036957806323b872dd1461037c578063313ce5671461038f575f80fd5b806306fdde0314610285578063095ea7b3146102a3578063125c4a33146102c6578063134e18f4146102db578063158b1a5714610305575b5f80fd5b61028d61064a565b60405161029a9190612d46565b60405180910390f35b6102b66102b1366004612d73565b6106da565b604051901515815260200161029a565b6102d96102d4366004612d73565b6106f0565b005b60095461010090046001600160a01b03165b6040516001600160a01b03909116815260200161029a565b61032d610313366004612d9b565b6001600160a01b03165f9081526008602052604090205490565b60405190815260200161029a565b60035461032d565b6102d9610351366004612dfc565b61081b565b6102d9610364366004612d73565b61088f565b6102b6610377366004612d9b565b6109b5565b6102b661038a366004612e63565b6109c0565b60065460405160ff909116815260200161029a565b6102b66103b2366004612d73565b610cbc565b6102d96103c5366004612d9b565b610cf2565b6102d9610db0565b6102d96103e0366004612d73565b610e5e565b6102d96103f3366004612e9c565b61106f565b6102d9610406366004612dfc565b611104565b6102d9610419366004612dfc565b611168565b604080518082019091526005815264342e312e3160d81b602082015261028d565b60095460ff166102b6565b600a546001600160a01b03166102ed565b6102d9610469366004612dfc565b6111cc565b61032d61047c366004612d9b565b611230565b6102d961124a565b6102d961125d565b6102d961049f366004612d9b565b6112e2565b6102d96104b2366004612dfc565b611350565b6102ed6113b5565b6102b66104cd366004612f2f565b6113e3565b61028d61173e565b6102d96104e8366004612d9b565b61174d565b6102d96104fb366004612d73565b6117bb565b6102b661050e366004612e63565b61195d565b6102b6610521366004612d73565b611b7f565b6102b6610534366004612d73565b611bb5565b60065461010090046001600160a01b03166102ed565b6102d961055d366004612f6f565b611e1f565b6102d9610570366004612f6f565b611f4a565b6102d9610583366004612fe8565b611fd5565b6102d9610596366004612d9b565b61204e565b61032d6105a936600461301d565b6001600160a01b039182165f90815260026020908152604080832093909416825291909152205490565b6102b66105e1366004612d9b565b6001600160a01b03165f9081526007602052604090205460ff1690565b6102d961060c366004612d9b565b6120a7565b6102d961061f366004612d9b565b6120e4565b6102d96106323660046130eb565b6121f3565b6102d9610645366004612dfc565b6125bb565b60606004805461065990613191565b80601f016020809104026020016040519081016040528092919081815260200182805461068590613191565b80156106d05780601f106106a7576101008083540402835291602001916106d0565b820191905f5260205f20905b8154815290600101906020018083116106b357829003601f168201915b5050505050905090565b5f6106e633848461261f565b5060015b92915050565b6106f9336109b5565b61071e5760405162461bcd60e51b8152600401610715906131c9565b60405180910390fd5b5f61072883611230565b6001600160a01b0384165f9081526008602052604090205490915061074e90839061322b565b81101561079d5760405162461bcd60e51b815260206004820181905260248201527f416d6f756e74206578636565647320617661696c61626c652062616c616e63656044820152606401610715565b6001600160a01b0383165f908152600860205260409020546107c090839061322b565b6001600160a01b0384165f81815260086020526040908190209290925590517fa065e63c631c86f1b9f66a4a2f63f2093bf1c2168d23290259dbd969e0222a459061080e9085815260200190565b60405180910390a2505050565b5f5b838110156108885761087685858381811061083a5761083a61323e565b905060200201602081019061084f9190612d9b565b8484848181106108615761086161323e565b90506020020160208101906105839190613252565b806108808161326d565b91505061081d565b5050505050565b610898336109b5565b6108b45760405162461bcd60e51b8152600401610715906131c9565b6001600160a01b0382165f908152600860205260409020548111156109385760405162461bcd60e51b815260206004820152603460248201527f416d6f756e742073686f756c64206265206c657373207468616e206f7220657160448201527375616c20746f2066726f7a656e20746f6b656e7360601b6064820152608401610715565b6001600160a01b0382165f9081526008602052604090205461095b908290613285565b6001600160a01b0383165f81815260086020526040908190209290925590517f9bed35cb62ad0dba04f9d5bfee4b5bc91443e77da8a65c4c84834c51bb08b0d6906109a99084815260200190565b60405180910390a25050565b5f6106ea8183612743565b6009545f9060ff16156109e55760405162461bcd60e51b815260040161071590613298565b6001600160a01b0383165f9081526007602052604090205460ff16158015610a2557506001600160a01b0384165f9081526007602052604090205460ff16155b610a645760405162461bcd60e51b815260206004820152601060248201526f3bb0b63632ba1034b990333937bd32b760811b6044820152606401610715565b6001600160a01b0384165f90815260086020526040902054610a8585611230565b610a8f9190613285565b821115610ad55760405162461bcd60e51b8152602060048201526014602482015273496e73756666696369656e742042616c616e636560601b6044820152606401610715565b60095460405163b9209e3360e01b81526001600160a01b0385811660048301526101009092049091169063b9209e3390602401602060405180830381865afa158015610b23573d5f803e3d5ffd5b505050506040513d601f19601f82011682018060405250810190610b4791906132c2565b8015610bc15750600a546040516372331c7360e11b81526001600160a01b039091169063e46638e690610b82908790879087906004016132dd565b602060405180830381865afa158015610b9d573d5f803e3d5ffd5b505050506040513d601f19601f82011682018060405250810190610bc191906132c2565b15610c75576001600160a01b0384165f90815260026020908152604080832033808552925290912054610c00918691610bfb908690613285565b61261f565b610c0b8484846127c4565b600a546040516322ebca6d60e21b81526001600160a01b0390911690638baf29b490610c3f908790879087906004016132dd565b5f604051808303815f87803b158015610c56575f80fd5b505af1158015610c68573d5f803e3d5ffd5b5050505060019050610cb5565b60405162461bcd60e51b81526020600482015260156024820152745472616e73666572206e6f7420706f737369626c6560581b6044820152606401610715565b9392505050565b335f8181526002602090815260408083206001600160a01b038716845290915281205490916106e6918590610bfb90869061322b565b610cfa61292f565b60068054610100600160a81b0319166101006001600160a01b038481168202929092179283905560405192041690610d3490600590613301565b60405180910390206004604051610d4b9190613301565b6040805191829003822060065483830183526005845264342e312e3160d81b6020850152915190927f6a1105ac8148a3c319adbc369f9072573e8a11d3a3d195e067e7c40767ec54d192610da59260ff9091169190613373565b60405180910390a450565b610db9336109b5565b610dd55760405162461bcd60e51b8152600401610715906131c9565b60095460ff16610e1e5760405162461bcd60e51b815260206004820152601460248201527314185d5cd8589b194e881b9bdd081c185d5cd95960621b6044820152606401610715565b6009805460ff191690556040513381527f5db9ee0a495bf2e6ff9c91a7834c1ba4fdd244a5e8aa4e537bd38aeae4b073aa906020015b60405180910390a1565b610e67336109b5565b610e835760405162461bcd60e51b8152600401610715906131c9565b60095460405163b9209e3360e01b81526001600160a01b0384811660048301526101009092049091169063b9209e3390602401602060405180830381865afa158015610ed1573d5f803e3d5ffd5b505050506040513d601f19601f82011682018060405250810190610ef591906132c2565b610f415760405162461bcd60e51b815260206004820152601960248201527f4964656e74697479206973206e6f742076657269666965642e000000000000006044820152606401610715565b600a546040516372331c7360e11b81526001600160a01b039091169063e46638e690610f75905f90869086906004016132dd565b602060405180830381865afa158015610f90573d5f803e3d5ffd5b505050506040513d601f19601f82011682018060405250810190610fb491906132c2565b6110005760405162461bcd60e51b815260206004820152601760248201527f436f6d706c69616e6365206e6f7420666f6c6c6f7765640000000000000000006044820152606401610715565b61100a8282612961565b600a54604051635f8dead360e01b81526001600160a01b0384811660048301526024820184905290911690635f8dead3906044015f604051808303815f87803b158015611055575f80fd5b505af1158015611067573d5f803e3d5ffd5b505050505050565b5f5b858110156110fb576110e887878381811061108e5761108e61323e565b90506020020160208101906110a39190612d9b565b8686848181106110b5576110b561323e565b90506020020160208101906110ca9190612d9b565b8585858181106110dc576110dc61323e565b9050602002013561195d565b50806110f38161326d565b915050611071565b50505050505050565b5f5b83811015610888576111568585838181106111235761112361323e565b90506020020160208101906111389190612d9b565b84848481811061114a5761114a61323e565b9050602002013561088f565b806111608161326d565b915050611106565b5f5b83811015610888576111ba8585838181106111875761118761323e565b905060200201602081019061119c9190612d9b565b8484848181106111ae576111ae61323e565b905060200201356117bb565b806111c48161326d565b91505061116a565b5f5b838110156108885761121e8585838181106111eb576111eb61323e565b90506020020160208101906112009190612d9b565b8484848181106112125761121261323e565b90506020020135610e5e565b806112288161326d565b9150506111ce565b6001600160a01b03165f9081526001602052604090205490565b61125261292f565b61125b5f612a47565b565b611266336109b5565b6112825760405162461bcd60e51b8152600401610715906131c9565b60095460ff16156112a55760405162461bcd60e51b815260040161071590613298565b6009805460ff191660011790556040513381527f62e78cea01bee320cd4e420270b5ea74000d11b0c9f74754ebdbfc544b05a25890602001610e54565b6112ea61292f565b6001600160a01b0381166113105760405162461bcd60e51b815260040161071590613396565b61131a5f82612ab7565b6040516001600160a01b038216907ff68e73cec97f2d70aa641fb26e87a4383686e2efacb648f2165aeb02ac562ec5905f90a250565b5f5b83811015610888576113a285858381811061136f5761136f61323e565b90506020020160208101906113849190612d9b565b8484848181106113965761139661323e565b90506020020135611bb5565b50806113ad8161326d565b915050611352565b7f9016d09d72d40fdae2fd8ceac6b6234c7706214fd39c1cd1e609a0528c199300546001600160a01b031690565b5f6113ed336109b5565b6114095760405162461bcd60e51b8152600401610715906131c9565b61141284611230565b5f036114575760405162461bcd60e51b81526020600482015260146024820152733737903a37b5b2b739903a37903932b1b7bb32b960611b6044820152606401610715565b604080516001600160a01b038516602082015283915f910160408051808303601f1901815290829052805160209091012063d202158d60e01b8252600482018190526001602483015291506001600160a01b0383169063d202158d90604401602060405180830381865afa1580156114d1573d5f803e3d5ffd5b505050506040513d601f19601f820116820180604052508101906114f591906132c2565b156116fe575f61150487611230565b6001600160a01b038881165f8181526008602052604090819020546009549151637e42683b60e01b8152600481019390935293945061010090049091169063454a03e090899087908490637e42683b90602401602060405180830381865afa158015611572573d5f803e3d5ffd5b505050506040513d601f19601f8201168201806040525081019061159691906133cd565b6040516001600160e01b031960e086901b1681526001600160a01b03938416600482015292909116602483015261ffff1660448201526064015f604051808303815f87803b1580156115e6575f80fd5b505af11580156115f8573d5f803e3d5ffd5b5050505061160788888461195d565b5080156116185761161887826106f0565b6001600160a01b0388165f9081526007602052604090205460ff16151560010361164757611647876001611fd5565b60095460405163a8d29d1d60e01b81526001600160a01b038a811660048301526101009092049091169063a8d29d1d906024015f604051808303815f87803b158015611691575f80fd5b505af11580156116a3573d5f803e3d5ffd5b50505050856001600160a01b0316876001600160a01b0316896001600160a01b03167ff0c9129a94f30f1caaceb63e44b9811d0a3edf1d6c23757f346093af5553fed060405160405180910390a46001945050505050610cb5565b60405162461bcd60e51b81526020600482015260156024820152745265636f76657279206e6f7420706f737369626c6560581b6044820152606401610715565b60606005805461065990613191565b61175561292f565b6001600160a01b03811661177b5760405162461bcd60e51b815260040161071590613396565b6117855f82612b32565b6040516001600160a01b038216907fed9c8ad8d5a0a66898ea49d2956929c93ae2e8bd50281b2ed897c5d1a6737e0b905f90a250565b6117c4336109b5565b6117e05760405162461bcd60e51b8152600401610715906131c9565b806117ea83611230565b10156118385760405162461bcd60e51b815260206004820152601d60248201527f63616e6e6f74206275726e206d6f7265207468616e2062616c616e63650000006044820152606401610715565b6001600160a01b0382165f9081526008602052604081205461185984611230565b6118639190613285565b9050808211156118f6575f6118788284613285565b6001600160a01b0385165f9081526008602052604090205490915061189e908290613285565b6001600160a01b0385165f81815260086020526040908190209290925590517f9bed35cb62ad0dba04f9d5bfee4b5bc91443e77da8a65c4c84834c51bb08b0d6906118ec9084815260200190565b60405180910390a2505b6119008383612bb3565b600a5460405163469753b960e11b81526001600160a01b0385811660048301526024820185905290911690638d2ea772906044015f604051808303815f87803b15801561194b575f80fd5b505af11580156110fb573d5f803e3d5ffd5b5f611967336109b5565b6119835760405162461bcd60e51b8152600401610715906131c9565b8161198d85611230565b10156119d45760405162461bcd60e51b815260206004820152601660248201527573656e6465722062616c616e636520746f6f206c6f7760501b6044820152606401610715565b6001600160a01b0384165f908152600860205260408120546119f586611230565b6119ff9190613285565b905080831115611a92575f611a148285613285565b6001600160a01b0387165f90815260086020526040902054909150611a3a908290613285565b6001600160a01b0387165f81815260086020526040908190209290925590517f9bed35cb62ad0dba04f9d5bfee4b5bc91443e77da8a65c4c84834c51bb08b0d690611a889084815260200190565b60405180910390a2505b60095460405163b9209e3360e01b81526001600160a01b0386811660048301526101009092049091169063b9209e3390602401602060405180830381865afa158015611ae0573d5f803e3d5ffd5b505050506040513d601f19601f82011682018060405250810190611b0491906132c2565b15610c7557611b148585856127c4565b600a546040516322ebca6d60e21b81526001600160a01b0390911690638baf29b490611b48908890889088906004016132dd565b5f604051808303815f87803b158015611b5f575f80fd5b505af1158015611b71573d5f803e3d5ffd5b505050506001915050610cb5565b335f8181526002602090815260408083206001600160a01b038716845290915281205490916106e6918590610bfb908690613285565b6009545f9060ff1615611bda5760405162461bcd60e51b815260040161071590613298565b6001600160a01b0383165f9081526007602052604090205460ff16158015611c115750335f9081526007602052604090205460ff16155b611c505760405162461bcd60e51b815260206004820152601060248201526f3bb0b63632ba1034b990333937bd32b760811b6044820152606401610715565b335f8181526008602052604090205490611c6990611230565b611c739190613285565b821115611cb95760405162461bcd60e51b8152602060048201526014602482015273496e73756666696369656e742042616c616e636560601b6044820152606401610715565b60095460405163b9209e3360e01b81526001600160a01b0385811660048301526101009092049091169063b9209e3390602401602060405180830381865afa158015611d07573d5f803e3d5ffd5b505050506040513d601f19601f82011682018060405250810190611d2b91906132c2565b8015611da55750600a546040516372331c7360e11b81526001600160a01b039091169063e46638e690611d66903390879087906004016132dd565b602060405180830381865afa158015611d81573d5f803e3d5ffd5b505050506040513d601f19601f82011682018060405250810190611da591906132c2565b15610c7557611db53384846127c4565b600a546040516322ebca6d60e21b81526001600160a01b0390911690638baf29b490611de9903390879087906004016132dd565b5f604051808303815f87803b158015611e00575f80fd5b505af1158015611e12573d5f803e3d5ffd5b50505050600190506106ea565b611e2761292f565b604051602001611e419060208082525f9082015260400190565b604051602081830303815290604052805190602001208282604051602001611e6a9291906133ee565b6040516020818303038152906040528051906020012003611e9d5760405162461bcd60e51b81526004016107159061341c565b6005611eaa828483613498565b506006546040516101009091046001600160a01b031690611ecd90600590613301565b60405180910390206004604051611ee49190613301565b6040805191829003822060065483830183526005845264342e312e3160d81b6020850152915190927f6a1105ac8148a3c319adbc369f9072573e8a11d3a3d195e067e7c40767ec54d192611f3e9260ff9091169190613373565b60405180910390a45050565b611f5261292f565b604051602001611f6c9060208082525f9082015260400190565b604051602081830303815290604052805190602001208282604051602001611f959291906133ee565b6040516020818303038152906040528051906020012003611fc85760405162461bcd60e51b81526004016107159061341c565b6004611eaa828483613498565b611fde336109b5565b611ffa5760405162461bcd60e51b8152600401610715906131c9565b6001600160a01b0382165f81815260076020526040808220805460ff19168515159081179091559051339391927f7fa523c84ab8d7fc5b72f08b9e46dbbf10c39e119a075b3e317002d14bc9f43691a45050565b61205661292f565b60098054610100600160a81b0319166101006001600160a01b038416908102919091179091556040517fd2be862d755bca7e0d39772b2cab3a5578da9c285f69199f4c063c2294a7f36c905f90a250565b6120af61292f565b6001600160a01b0381166120d857604051631e4fbdf760e01b81525f6004820152602401610715565b6120e181612a47565b50565b6120ec61292f565b600a546001600160a01b03161561215657600a5460405163040db3b560e41b81523060048201526001600160a01b03909116906340db3b50906024015f604051808303815f87803b15801561213f575f80fd5b505af1158015612151573d5f803e3d5ffd5b505050505b600a80546001600160a01b0319166001600160a01b038316908117909155604051631ffad50160e11b8152306004820152633ff5aa02906024015f604051808303815f87803b1580156121a7575f80fd5b505af11580156121b9573d5f803e3d5ffd5b50506040516001600160a01b03841692507f7f3a888862559648ec01d97deb7b5012bff86dc91e654a1de397170db40e35b691505f90a250565b7ff0c57e16840df040f15088dc2f81fe391c3923bec73e23a9662efc9c229c6a008054600160401b810460ff16159067ffffffffffffffff165f811580156122385750825b90505f8267ffffffffffffffff1660011480156122545750303b155b905081158015612262575080155b156122805760405163f92ee8a960e01b815260040160405180910390fd5b845467ffffffffffffffff1916600117855583156122aa57845460ff60401b1916600160401b1785555b5f6122b36113b5565b6001600160a01b0316146122ff5760405162461bcd60e51b8152602060048201526013602482015272185b1c9958591e481a5b9a5d1a585b1a5e9959606a1b6044820152606401610715565b6001600160a01b038b161580159061231f57506001600160a01b038a1615155b61233b5760405162461bcd60e51b815260040161071590613396565b6040516020016123559060208082525f9082015260400190565b604051602081830303815290604052805190602001208960405160200161237c9190612d46565b60405160208183030381529060405280519060200120141580156123f557506040516020016123b59060208082525f9082015260400190565b60405160208183030381529060405280519060200120886040516020016123dc9190612d46565b6040516020818303038152906040528051906020012014155b6124115760405162461bcd60e51b81526004016107159061341c565b60128760ff1611156124655760405162461bcd60e51b815260206004820152601960248201527f646563696d616c73206265747765656e203020616e64203138000000000000006044820152606401610715565b61246e33612c9c565b600461247a8a82613553565b5060056124878982613553565b50600680546001600160a01b038816610100026001600160a81b031990911660ff8a16171790556009805460ff191660011790556124c48b61204e565b6124cd8a6120e4565b6006546040516101009091046001600160a01b0316906124ef90600590613301565b604051809103902060046040516125069190613301565b6040805191829003822060065483830183526005845264342e312e3160d81b6020850152915190927f6a1105ac8148a3c319adbc369f9072573e8a11d3a3d195e067e7c40767ec54d1926125609260ff9091169190613373565b60405180910390a483156125ae57845460ff60401b19168555604051600181527fc7f505b2f371ae2175ee4913f4499e1f2633a7b5936321eed1cdaeb6115181d29060200160405180910390a15b5050505050505050505050565b5f5b838110156108885761260d8585838181106125da576125da61323e565b90506020020160208101906125ef9190612d9b565b8484848181106126015761260161323e565b905060200201356106f0565b806126178161326d565b9150506125bd565b6001600160a01b0383166126815760405162461bcd60e51b8152602060048201526024808201527f45524332303a20617070726f76652066726f6d20746865207a65726f206164646044820152637265737360e01b6064820152608401610715565b6001600160a01b0382166126e25760405162461bcd60e51b815260206004820152602260248201527f45524332303a20617070726f766520746f20746865207a65726f206164647265604482015261737360f01b6064820152608401610715565b6001600160a01b038381165f8181526002602090815260408083209487168084529482529182902085905590518481527f8c5be1e5ebec7d5bd14f71427d1e84f3dd0314c0f7b2291e5b200ac8c7c3b92591015b60405180910390a3505050565b5f6001600160a01b0382166127a55760405162461bcd60e51b815260206004820152602260248201527f526f6c65733a206163636f756e7420697320746865207a65726f206164647265604482015261737360f01b6064820152608401610715565b506001600160a01b03165f908152602091909152604090205460ff1690565b6001600160a01b0383166128285760405162461bcd60e51b815260206004820152602560248201527f45524332303a207472616e736665722066726f6d20746865207a65726f206164604482015264647265737360d81b6064820152608401610715565b6001600160a01b03821661288a5760405162461bcd60e51b815260206004820152602360248201527f45524332303a207472616e7366657220746f20746865207a65726f206164647260448201526265737360e81b6064820152608401610715565b6001600160a01b0383165f908152600160205260409020546128ad908290613285565b6001600160a01b038085165f9081526001602052604080822093909355908416815220546128dc90829061322b565b6001600160a01b038084165f8181526001602052604090819020939093559151908516907fddf252ad1be2c89b69c2b068fc378daa952ba7f163c4a11628f55a4df523b3ef906127369085815260200190565b336129386113b5565b6001600160a01b03161461125b5760405163118cdaa760e01b8152336004820152602401610715565b6001600160a01b0382166129b75760405162461bcd60e51b815260206004820152601f60248201527f45524332303a206d696e7420746f20746865207a65726f2061646472657373006044820152606401610715565b806003546129c5919061322b565b6003556001600160a01b0382165f908152600160205260409020546129eb90829061322b565b6001600160a01b0383165f818152600160205260408082209390935591519091907fddf252ad1be2c89b69c2b068fc378daa952ba7f163c4a11628f55a4df523b3ef90612a3b9085815260200190565b60405180910390a35050565b7f9016d09d72d40fdae2fd8ceac6b6234c7706214fd39c1cd1e609a0528c19930080546001600160a01b031981166001600160a01b03848116918217845560405192169182907f8be0079c531659141344cd1fd0a4f28419497f9722a3daafe3b4186f6b6457e0905f90a3505050565b612ac18282612743565b15612b0e5760405162461bcd60e51b815260206004820152601f60248201527f526f6c65733a206163636f756e7420616c72656164792068617320726f6c65006044820152606401610715565b6001600160a01b03165f90815260209190915260409020805460ff19166001179055565b612b3c8282612743565b612b925760405162461bcd60e51b815260206004820152602160248201527f526f6c65733a206163636f756e7420646f6573206e6f74206861766520726f6c6044820152606560f81b6064820152608401610715565b6001600160a01b03165f90815260209190915260409020805460ff19169055565b6001600160a01b038216612c135760405162461bcd60e51b815260206004820152602160248201527f45524332303a206275726e2066726f6d20746865207a65726f206164647265736044820152607360f81b6064820152608401610715565b6001600160a01b0382165f90815260016020526040902054612c36908290613285565b6001600160a01b0383165f90815260016020526040902055600354612c5c908290613285565b6003556040518181525f906001600160a01b038416907fddf252ad1be2c89b69c2b068fc378daa952ba7f163c4a11628f55a4df523b3ef90602001612a3b565b612ca4612cb2565b6120e181612cfb565b505050565b7ff0c57e16840df040f15088dc2f81fe391c3923bec73e23a9662efc9c229c6a0054600160401b900460ff1661125b57604051631afcd79f60e31b815260040160405180910390fd5b6120af612cb2565b5f81518084525f5b81811015612d2757602081850181015186830182015201612d0b565b505f602082860101526020601f19601f83011685010191505092915050565b602081525f610cb56020830184612d03565b80356001600160a01b0381168114612d6e575f80fd5b919050565b5f8060408385031215612d84575f80fd5b612d8d83612d58565b946020939093013593505050565b5f60208284031215612dab575f80fd5b610cb582612d58565b5f8083601f840112612dc4575f80fd5b50813567ffffffffffffffff811115612ddb575f80fd5b6020830191508360208260051b8501011115612df5575f80fd5b9250929050565b5f805f8060408587031215612e0f575f80fd5b843567ffffffffffffffff80821115612e26575f80fd5b612e3288838901612db4565b90965094506020870135915080821115612e4a575f80fd5b50612e5787828801612db4565b95989497509550505050565b5f805f60608486031215612e75575f80fd5b612e7e84612d58565b9250612e8c60208501612d58565b9150604084013590509250925092565b5f805f805f8060608789031215612eb1575f80fd5b863567ffffffffffffffff80821115612ec8575f80fd5b612ed48a838b01612db4565b90985096506020890135915080821115612eec575f80fd5b612ef88a838b01612db4565b90965094506040890135915080821115612f10575f80fd5b50612f1d89828a01612db4565b979a9699509497509295939492505050565b5f805f60608486031215612f41575f80fd5b612f4a84612d58565b9250612f5860208501612d58565b9150612f6660408501612d58565b90509250925092565b5f8060208385031215612f80575f80fd5b823567ffffffffffffffff80821115612f97575f80fd5b818501915085601f830112612faa575f80fd5b813581811115612fb8575f80fd5b866020828501011115612fc9575f80fd5b60209290920196919550909350505050565b80151581146120e1575f80fd5b5f8060408385031215612ff9575f80fd5b61300283612d58565b9150602083013561301281612fdb565b809150509250929050565b5f806040838503121561302e575f80fd5b61303783612d58565b915061304560208401612d58565b90509250929050565b634e487b7160e01b5f52604160045260245ffd5b5f82601f830112613071575f80fd5b813567ffffffffffffffff8082111561308c5761308c61304e565b604051601f8301601f19908116603f011681019082821181831017156130b4576130b461304e565b816040528381528660208588010111156130cc575f80fd5b836020870160208301375f602085830101528094505050505092915050565b5f805f805f8060c08789031215613100575f80fd5b61310987612d58565b955061311760208801612d58565b9450604087013567ffffffffffffffff80821115613133575f80fd5b61313f8a838b01613062565b95506060890135915080821115613154575f80fd5b5061316189828a01613062565b935050608087013560ff81168114613177575f80fd5b915061318560a08801612d58565b90509295509295509295565b600181811c908216806131a557607f821691505b6020821081036131c357634e487b7160e01b5f52602260045260245ffd5b50919050565b6020808252602e908201527f4167656e74526f6c653a2063616c6c657220646f6573206e6f7420686176652060408201526d746865204167656e7420726f6c6560901b606082015260800190565b634e487b7160e01b5f52601160045260245ffd5b808201808211156106ea576106ea613217565b634e487b7160e01b5f52603260045260245ffd5b5f60208284031215613262575f80fd5b8135610cb581612fdb565b5f6001820161327e5761327e613217565b5060010190565b818103818111156106ea576106ea613217565b60208082526010908201526f14185d5cd8589b194e881c185d5cd95960821b604082015260600190565b5f602082840312156132d2575f80fd5b8151610cb581612fdb565b6001600160a01b039384168152919092166020820152604081019190915260600190565b5f80835461330e81613191565b60018281168015613326576001811461333b57613367565b60ff1984168752821515830287019450613367565b875f526020805f205f5b8581101561335e5781548a820152908401908201613345565b50505082870194505b50929695505050505050565b60ff83168152604060208201525f61338e6040830184612d03565b949350505050565b6020808252601f908201527f696e76616c696420617267756d656e74202d207a65726f206164647265737300604082015260600190565b5f602082840312156133dd575f80fd5b815161ffff81168114610cb5575f80fd5b60208152816020820152818360408301375f818301604090810191909152601f909201601f19160101919050565b6020808252601f908201527f696e76616c696420617267756d656e74202d20656d70747920737472696e6700604082015260600190565b601f821115612cad575f81815260208120601f850160051c810160208610156134795750805b601f850160051c820191505b8181101561106757828155600101613485565b67ffffffffffffffff8311156134b0576134b061304e565b6134c4836134be8354613191565b83613453565b5f601f8411600181146134f5575f85156134de5750838201355b5f19600387901b1c1916600186901b178355610888565b5f83815260209020601f19861690835b828110156135255786850135825560209485019460019092019101613505565b5086821015613541575f1960f88860031b161c19848701351681555b505060018560011b0183555050505050565b815167ffffffffffffffff81111561356d5761356d61304e565b6135818161357b8454613191565b84613453565b602080601f8311600181146135b4575f841561359d5750858301515b5f19600386901b1c1916600185901b178555611067565b5f85815260208120601f198616915b828110156135e2578886015182559484019460019091019084016135c3565b50858210156135ff57878501515f19600388901b60f8161c191681555b5050505050600190811b0190555056fea26469706673582212207f2b4eb001bff7e28d0c62017b71a77bfe3a1e952b277d6b5a23902598fa2d0264736f6c63430008140033",
			"opcodes": "PUSH1 0x80 PUSH1 0x40 MSTORE PUSH1 0x9 DUP1 SLOAD PUSH1 0xFF NOT AND SWAP1 SSTORE CALLVALUE DUP1 ISZERO PUSH2 0x19 JUMPI PUSH0 DUP1 REVERT JUMPDEST POP PUSH2 0x3645 DUP1 PUSH2 0x27 PUSH0 CODECOPY PUSH0 RETURN INVALID PUSH1 0x80 PUSH1 0x40 MSTORE CALLVALUE DUP1 ISZERO PUSH2 0xF JUMPI PUSH0 DUP1 REVERT JUMPDEST POP PUSH1 0x4 CALLDATASIZE LT PUSH2 0x281 JUMPI PUSH0 CALLDATALOAD PUSH1 0xE0 SHR DUP1 PUSH4 0x715018A6 GT PUSH2 0x156 JUMPI DUP1 PUSH4 0xA9059CBB GT PUSH2 0xCA JUMPI DUP1 PUSH4 0xDD62ED3E GT PUSH2 0x84 JUMPI DUP1 PUSH4 0xDD62ED3E EQ PUSH2 0x59B JUMPI DUP1 PUSH4 0xE5839836 EQ PUSH2 0x5D3 JUMPI DUP1 PUSH4 0xF2FDE38B EQ PUSH2 0x5FE JUMPI DUP1 PUSH4 0xF8981789 EQ PUSH2 0x611 JUMPI DUP1 PUSH4 0xF91B619C EQ PUSH2 0x624 JUMPI DUP1 PUSH4 0xFC7E5FA8 EQ PUSH2 0x637 JUMPI PUSH0 DUP1 REVERT JUMPDEST DUP1 PUSH4 0xA9059CBB EQ PUSH2 0x526 JUMPI DUP1 PUSH4 0xABA63705 EQ PUSH2 0x539 JUMPI DUP1 PUSH4 0xB84C8246 EQ PUSH2 0x54F JUMPI DUP1 PUSH4 0xC47F0027 EQ PUSH2 0x562 JUMPI DUP1 PUSH4 0xC69C09CF EQ PUSH2 0x575 JUMPI DUP1 PUSH4 0xCBF3F861 EQ PUSH2 0x588 JUMPI PUSH0 DUP1 REVERT JUMPDEST DUP1 PUSH4 0x9285948A GT PUSH2 0x11B JUMPI DUP1 PUSH4 0x9285948A EQ PUSH2 0x4BF JUMPI DUP1 PUSH4 0x95D89B41 EQ PUSH2 0x4D2 JUMPI DUP1 PUSH4 0x97A6278E EQ PUSH2 0x4DA JUMPI DUP1 PUSH4 0x9DC29FAC EQ PUSH2 0x4ED JUMPI DUP1 PUSH4 0x9FC1D0E7 EQ PUSH2 0x500 JUMPI DUP1 PUSH4 0xA457C2D7 EQ PUSH2 0x513 JUMPI PUSH0 DUP1 REVERT JUMPDEST DUP1 PUSH4 0x715018A6 EQ PUSH2 0x481 JUMPI DUP1 PUSH4 0x8456CB59 EQ PUSH2 0x489 JUMPI DUP1 PUSH4 0x84E79842 EQ PUSH2 0x491 JUMPI DUP1 PUSH4 0x88D695B2 EQ PUSH2 0x4A4 JUMPI DUP1 PUSH4 0x8DA5CB5B EQ PUSH2 0x4B7 JUMPI PUSH0 DUP1 REVERT JUMPDEST DUP1 PUSH4 0x39509351 GT PUSH2 0x1F8 JUMPI DUP1 PUSH4 0x4A6CC677 GT PUSH2 0x1B2 JUMPI DUP1 PUSH4 0x4A6CC677 EQ PUSH2 0x40B JUMPI DUP1 PUSH4 0x54FD4D50 EQ PUSH2 0x41E JUMPI DUP1 PUSH4 0x5C975ABB EQ PUSH2 0x43F JUMPI DUP1 PUSH4 0x6290865D EQ PUSH2 0x44A JUMPI DUP1 PUSH4 0x68573107 EQ PUSH2 0x45B JUMPI DUP1 PUSH4 0x70A08231 EQ PUSH2 0x46E JUMPI PUSH0 DUP1 REVERT JUMPDEST DUP1 PUSH4 0x39509351 EQ PUSH2 0x3A4 JUMPI DUP1 PUSH4 0x3D1DDC5B EQ PUSH2 0x3B7 JUMPI DUP1 PUSH4 0x3F4BA83A EQ PUSH2 0x3CA JUMPI DUP1 PUSH4 0x40C10F19 EQ PUSH2 0x3D2 JUMPI DUP1 PUSH4 0x42A47ABC EQ PUSH2 0x3E5 JUMPI DUP1 PUSH4 0x4710362D EQ PUSH2 0x3F8 JUMPI PUSH0 DUP1 REVERT JUMPDEST DUP1 PUSH4 0x18160DDD GT PUSH2 0x249 JUMPI DUP1 PUSH4 0x18160DDD EQ PUSH2 0x33B JUMPI DUP1 PUSH4 0x1A7AF379 EQ PUSH2 0x343 JUMPI DUP1 PUSH4 0x1FE56F7D EQ PUSH2 0x356 JUMPI DUP1 PUSH4 0x1FFBB064 EQ PUSH2 0x369 JUMPI DUP1 PUSH4 0x23B872DD EQ PUSH2 0x37C JUMPI DUP1 PUSH4 0x313CE567 EQ PUSH2 0x38F JUMPI PUSH0 DUP1 REVERT JUMPDEST DUP1 PUSH4 0x6FDDE03 EQ PUSH2 0x285 JUMPI DUP1 PUSH4 0x95EA7B3 EQ PUSH2 0x2A3 JUMPI DUP1 PUSH4 0x125C4A33 EQ PUSH2 0x2C6 JUMPI DUP1 PUSH4 0x134E18F4 EQ PUSH2 0x2DB JUMPI DUP1 PUSH4 0x158B1A57 EQ PUSH2 0x305 JUMPI JUMPDEST PUSH0 DUP1 REVERT JUMPDEST PUSH2 0x28D PUSH2 0x64A JUMP JUMPDEST PUSH1 0x40 MLOAD PUSH2 0x29A SWAP2 SWAP1 PUSH2 0x2D46 JUMP JUMPDEST PUSH1 0x40 MLOAD DUP1 SWAP2 SUB SWAP1 RETURN JUMPDEST PUSH2 0x2B6 PUSH2 0x2B1 CALLDATASIZE PUSH1 0x4 PUSH2 0x2D73 JUMP JUMPDEST PUSH2 0x6DA JUMP JUMPDEST PUSH1 0x40 MLOAD SWAP1 ISZERO ISZERO DUP2 MSTORE PUSH1 0x20 ADD PUSH2 0x29A JUMP JUMPDEST PUSH2 0x2D9 PUSH2 0x2D4 CALLDATASIZE PUSH1 0x4 PUSH2 0x2D73 JUMP JUMPDEST PUSH2 0x6F0 JUMP JUMPDEST STOP JUMPDEST PUSH1 0x9 SLOAD PUSH2 0x100 SWAP1 DIV PUSH1 0x1 PUSH1 0x1 PUSH1 0xA0 SHL SUB AND JUMPDEST PUSH1 0x40 MLOAD PUSH1 0x1 PUSH1 0x1 PUSH1 0xA0 SHL SUB SWAP1 SWAP2 AND DUP2 MSTORE PUSH1 0x20 ADD PUSH2 0x29A JUMP JUMPDEST PUSH2 0x32D PUSH2 0x313 CALLDATASIZE PUSH1 0x4 PUSH2 0x2D9B JUMP JUMPDEST PUSH1 0x1 PUSH1 0x1 PUSH1 0xA0 SHL SUB AND PUSH0 SWAP1 DUP2 MSTORE PUSH1 0x8 PUSH1 0x20 MSTORE PUSH1 0x40 SWAP1 KECCAK256 SLOAD SWAP1 JUMP JUMPDEST PUSH1 0x40 MLOAD SWAP1 DUP2 MSTORE PUSH1 0x20 ADD PUSH2 0x29A JUMP JUMPDEST PUSH1 0x3 SLOAD PUSH2 0x32D JUMP JUMPDEST PUSH2 0x2D9 PUSH2 0x351 CALLDATASIZE PUSH1 0x4 PUSH2 0x2DFC JUMP JUMPDEST PUSH2 0x81B JUMP JUMPDEST PUSH2 0x2D9 PUSH2 0x364 CALLDATASIZE PUSH1 0x4 PUSH2 0x2D73 JUMP JUMPDEST PUSH2 0x88F JUMP JUMPDEST PUSH2 0x2B6 PUSH2 0x377 CALLDATASIZE PUSH1 0x4 PUSH2 0x2D9B JUMP JUMPDEST PUSH2 0x9B5 JUMP JUMPDEST PUSH2 0x2B6 PUSH2 0x38A CALLDATASIZE PUSH1 0x4 PUSH2 0x2E63 JUMP JUMPDEST PUSH2 0x9C0 JUMP JUMPDEST PUSH1 0x6 SLOAD PUSH1 0x40 MLOAD PUSH1 0xFF SWAP1 SWAP2 AND DUP2 MSTORE PUSH1 0x20 ADD PUSH2 0x29A JUMP JUMPDEST PUSH2 0x2B6 PUSH2 0x3B2 CALLDATASIZE PUSH1 0x4 PUSH2 0x2D73 JUMP JUMPDEST PUSH2 0xCBC JUMP JUMPDEST PUSH2 0x2D9 PUSH2 0x3C5 CALLDATASIZE PUSH1 0x4 PUSH2 0x2D9B JUMP JUMPDEST PUSH2 0xCF2 JUMP JUMPDEST PUSH2 0x2D9 PUSH2 0xDB0 JUMP JUMPDEST PUSH2 0x2D9 PUSH2 0x3E0 CALLDATASIZE PUSH1 0x4 PUSH2 0x2D73 JUMP JUMPDEST PUSH2 0xE5E JUMP JUMPDEST PUSH2 0x2D9 PUSH2 0x3F3 CALLDATASIZE PUSH1 0x4 PUSH2 0x2E9C JUMP JUMPDEST PUSH2 0x106F JUMP JUMPDEST PUSH2 0x2D9 PUSH2 0x406 CALLDATASIZE PUSH1 0x4 PUSH2 0x2DFC JUMP JUMPDEST PUSH2 0x1104 JUMP JUMPDEST PUSH2 0x2D9 PUSH2 0x419 CALLDATASIZE PUSH1 0x4 PUSH2 0x2DFC JUMP JUMPDEST PUSH2 0x1168 JUMP JUMPDEST PUSH1 0x40 DUP1 MLOAD DUP1 DUP3 ADD SWAP1 SWAP2 MSTORE PUSH1 0x5 DUP2 MSTORE PUSH5 0x342E312E31 PUSH1 0xD8 SHL PUSH1 0x20 DUP3 ADD MSTORE PUSH2 0x28D JUMP JUMPDEST PUSH1 0x9 SLOAD PUSH1 0xFF AND PUSH2 0x2B6 JUMP JUMPDEST PUSH1 0xA SLOAD PUSH1 0x1 PUSH1 0x1 PUSH1 0xA0 SHL SUB AND PUSH2 0x2ED JUMP JUMPDEST PUSH2 0x2D9 PUSH2 0x469 CALLDATASIZE PUSH1 0x4 PUSH2 0x2DFC JUMP JUMPDEST PUSH2 0x11CC JUMP JUMPDEST PUSH2 0x32D PUSH2 0x47C CALLDATASIZE PUSH1 0x4 PUSH2 0x2D9B JUMP JUMPDEST PUSH2 0x1230 JUMP JUMPDEST PUSH2 0x2D9 PUSH2 0x124A JUMP JUMPDEST PUSH2 0x2D9 PUSH2 0x125D JUMP JUMPDEST PUSH2 0x2D9 PUSH2 0x49F CALLDATASIZE PUSH1 0x4 PUSH2 0x2D9B JUMP JUMPDEST PUSH2 0x12E2 JUMP JUMPDEST PUSH2 0x2D9 PUSH2 0x4B2 CALLDATASIZE PUSH1 0x4 PUSH2 0x2DFC JUMP JUMPDEST PUSH2 0x1350 JUMP JUMPDEST PUSH2 0x2ED PUSH2 0x13B5 JUMP JUMPDEST PUSH2 0x2B6 PUSH2 0x4CD CALLDATASIZE PUSH1 0x4 PUSH2 0x2F2F JUMP JUMPDEST PUSH2 0x13E3 JUMP JUMPDEST PUSH2 0x28D PUSH2 0x173E JUMP JUMPDEST PUSH2 0x2D9 PUSH2 0x4E8 CALLDATASIZE PUSH1 0x4 PUSH2 0x2D9B JUMP JUMPDEST PUSH2 0x174D JUMP JUMPDEST PUSH2 0x2D9 PUSH2 0x4FB CALLDATASIZE PUSH1 0x4 PUSH2 0x2D73 JUMP JUMPDEST PUSH2 0x17BB JUMP JUMPDEST PUSH2 0x2B6 PUSH2 0x50E CALLDATASIZE PUSH1 0x4 PUSH2 0x2E63 JUMP JUMPDEST PUSH2 0x195D JUMP JUMPDEST PUSH2 0x2B6 PUSH2 0x521 CALLDATASIZE PUSH1 0x4 PUSH2 0x2D73 JUMP JUMPDEST PUSH2 0x1B7F JUMP JUMPDEST PUSH2 0x2B6 PUSH2 0x534 CALLDATASIZE PUSH1 0x4 PUSH2 0x2D73 JUMP JUMPDEST PUSH2 0x1BB5 JUMP JUMPDEST PUSH1 0x6 SLOAD PUSH2 0x100 SWAP1 DIV PUSH1 0x1 PUSH1 0x1 PUSH1 0xA0 SHL SUB AND PUSH2 0x2ED JUMP JUMPDEST PUSH2 0x2D9 PUSH2 0x55D CALLDATASIZE PUSH1 0x4 PUSH2 0x2F6F JUMP JUMPDEST PUSH2 0x1E1F JUMP JUMPDEST PUSH2 0x2D9 PUSH2 0x570 CALLDATASIZE PUSH1 0x4 PUSH2 0x2F6F JUMP JUMPDEST PUSH2 0x1F4A JUMP JUMPDEST PUSH2 0x2D9 PUSH2 0x583 CALLDATASIZE PUSH1 0x4 PUSH2 0x2FE8 JUMP JUMPDEST PUSH2 0x1FD5 JUMP JUMPDEST PUSH2 0x2D9 PUSH2 0x596 CALLDATASIZE PUSH1 0x4 PUSH2 0x2D9B JUMP JUMPDEST PUSH2 0x204E JUMP JUMPDEST PUSH2 0x32D PUSH2 0x5A9 CALLDATASIZE PUSH1 0x4 PUSH2 0x301D JUMP JUMPDEST PUSH1 0x1 PUSH1 0x1 PUSH1 0xA0 SHL SUB SWAP2 DUP3 AND PUSH0 SWAP1 DUP2 MSTORE PUSH1 0x2 PUSH1 0x20 SWAP1 DUP2 MSTORE PUSH1 0x40 DUP1 DUP4 KECCAK256 SWAP4 SWAP1 SWAP5 AND DUP3 MSTORE SWAP2 SWAP1 SWAP2 MSTORE KECCAK256 SLOAD SWAP1 JUMP JUMPDEST PUSH2 0x2B6 PUSH2 0x5E1 CALLDATASIZE PUSH1 0x4 PUSH2 0x2D9B JUMP JUMPDEST PUSH1 0x1 PUSH1 0x1 PUSH1 0xA0 SHL SUB AND PUSH0 SWAP1 DUP2 MSTORE PUSH1 0x7 PUSH1 0x20 MSTORE PUSH1 0x40 SWAP1 KECCAK256 SLOAD PUSH1 0xFF AND SWAP1 JUMP JUMPDEST PUSH2 0x2D9 PUSH2 0x60C CALLDATASIZE PUSH1 0x4 PUSH2 0x2D9B JUMP JUMPDEST PUSH2 0x20A7 JUMP JUMPDEST PUSH2 0x2D9 PUSH2 0x61F CALLDATASIZE PUSH1 0x4 PUSH2 0x2D9B JUMP JUMPDEST PUSH2 0x20E4 JUMP JUMPDEST PUSH2 0x2D9 PUSH2 0x632 CALLDATASIZE PUSH1 0x4 PUSH2 0x30EB JUMP JUMPDEST PUSH2 0x21F3 JUMP JUMPDEST PUSH2 0x2D9 PUSH2 0x645 CALLDATASIZE PUSH1 0x4 PUSH2 0x2DFC JUMP JUMPDEST PUSH2 0x25BB JUMP JUMPDEST PUSH1 0x60 PUSH1 0x4 DUP1 SLOAD PUSH2 0x659 SWAP1 PUSH2 0x3191 JUMP JUMPDEST DUP1 PUSH1 0x1F ADD PUSH1 0x20 DUP1 SWAP2 DIV MUL PUSH1 0x20 ADD PUSH1 0x40 MLOAD SWAP1 DUP2 ADD PUSH1 0x40 MSTORE DUP1 SWAP3 SWAP2 SWAP1 DUP2 DUP2 MSTORE PUSH1 0x20 ADD DUP3 DUP1 SLOAD PUSH2 0x685 SWAP1 PUSH2 0x3191 JUMP JUMPDEST DUP1 ISZERO PUSH2 0x6D0 JUMPI DUP1 PUSH1 0x1F LT PUSH2 0x6A7 JUMPI PUSH2 0x100 DUP1 DUP4 SLOAD DIV MUL DUP4 MSTORE SWAP2 PUSH1 0x20 ADD SWAP2 PUSH2 0x6D0 JUMP JUMPDEST DUP3 ADD SWAP2 SWAP1 PUSH0 MSTORE PUSH1 0x20 PUSH0 KECCAK256 SWAP1 JUMPDEST DUP2 SLOAD DUP2 MSTORE SWAP1 PUSH1 0x1 ADD SWAP1 PUSH1 0x20 ADD DUP1 DUP4 GT PUSH2 0x6B3 JUMPI DUP3 SWAP1 SUB PUSH1 0x1F AND DUP3 ADD SWAP2 JUMPDEST POP POP POP POP POP SWAP1 POP SWAP1 JUMP JUMPDEST PUSH0 PUSH2 0x6E6 CALLER DUP5 DUP5 PUSH2 0x261F JUMP JUMPDEST POP PUSH1 0x1 JUMPDEST SWAP3 SWAP2 POP POP JUMP JUMPDEST PUSH2 0x6F9 CALLER PUSH2 0x9B5 JUMP JUMPDEST PUSH2 0x71E JUMPI PUSH1 0x40 MLOAD PUSH3 0x461BCD PUSH1 0xE5 SHL DUP2 MSTORE PUSH1 0x4 ADD PUSH2 0x715 SWAP1 PUSH2 0x31C9 JUMP JUMPDEST PUSH1 0x40 MLOAD DUP1 SWAP2 SUB SWAP1 REVERT JUMPDEST PUSH0 PUSH2 0x728 DUP4 PUSH2 0x1230 JUMP JUMPDEST PUSH1 0x1 PUSH1 0x1 PUSH1 0xA0 SHL SUB DUP5 AND PUSH0 SWAP1 DUP2 MSTORE PUSH1 0x8 PUSH1 0x20 MSTORE PUSH1 0x40 SWAP1 KECCAK256 SLOAD SWAP1 SWAP2 POP PUSH2 0x74E SWAP1 DUP4 SWAP1 PUSH2 0x322B JUMP JUMPDEST DUP2 LT ISZERO PUSH2 0x79D JUMPI PUSH1 0x40 MLOAD PUSH3 0x461BCD PUSH1 0xE5 SHL DUP2 MSTORE PUSH1 0x20 PUSH1 0x4 DUP3 ADD DUP2 SWAP1 MSTORE PUSH1 0x24 DUP3 ADD MSTORE PUSH32 0x416D6F756E74206578636565647320617661696C61626C652062616C616E6365 PUSH1 0x44 DUP3 ADD MSTORE PUSH1 0x64 ADD PUSH2 0x715 JUMP JUMPDEST PUSH1 0x1 PUSH1 0x1 PUSH1 0xA0 SHL SUB DUP4 AND PUSH0 SWAP1 DUP2 MSTORE PUSH1 0x8 PUSH1 0x20 MSTORE PUSH1 0x40 SWAP1 KECCAK256 SLOAD PUSH2 0x7C0 SWAP1 DUP4 SWAP1 PUSH2 0x322B JUMP JUMPDEST PUSH1 0x1 PUSH1 0x1 PUSH1 0xA0 SHL SUB DUP5 AND PUSH0 DUP2 DUP2 MSTORE PUSH1 0x8 PUSH1 0x20 MSTORE PUSH1 0x40 SWAP1 DUP2 SWAP1 KECCAK256 SWAP3 SWAP1 SWAP3 SSTORE SWAP1 MLOAD PUSH32 0xA065E63C631C86F1B9F66A4A2F63F2093BF1C2168D23290259DBD969E0222A45 SWAP1 PUSH2 0x80E SWAP1 DUP6 DUP2 MSTORE PUSH1 0x20 ADD SWAP1 JUMP JUMPDEST PUSH1 0x40 MLOAD DUP1 SWAP2 SUB SWAP1 LOG2 POP POP POP JUMP JUMPDEST PUSH0 JUMPDEST DUP4 DUP2 LT ISZERO PUSH2 0x888 JUMPI PUSH2 0x876 DUP6 DUP6 DUP4 DUP2 DUP2 LT PUSH2 0x83A JUMPI PUSH2 0x83A PUSH2 0x323E JUMP JUMPDEST SWAP1 POP PUSH1 0x20 MUL ADD PUSH1 0x20 DUP2 ADD SWAP1 PUSH2 0x84F SWAP2 SWAP1 PUSH2 0x2D9B JUMP JUMPDEST DUP5 DUP5 DUP5 DUP2 DUP2 LT PUSH2 0x861 JUMPI PUSH2 0x861 PUSH2 0x323E JUMP JUMPDEST SWAP1 POP PUSH1 0x20 MUL ADD PUSH1 0x20 DUP2 ADD SWAP1 PUSH2 0x583 SWAP2 SWAP1 PUSH2 0x3252 JUMP JUMPDEST DUP1 PUSH2 0x880 DUP2 PUSH2 0x326D JUMP JUMPDEST SWAP2 POP POP PUSH2 0x81D JUMP JUMPDEST POP POP POP POP POP JUMP JUMPDEST PUSH2 0x898 CALLER PUSH2 0x9B5 JUMP JUMPDEST PUSH2 0x8B4 JUMPI PUSH1 0x40 MLOAD PUSH3 0x461BCD PUSH1 0xE5 SHL DUP2 MSTORE PUSH1 0x4 ADD PUSH2 0x715 SWAP1 PUSH2 0x31C9 JUMP JUMPDEST PUSH1 0x1 PUSH1 0x1 PUSH1 0xA0 SHL SUB DUP3 AND PUSH0 SWAP1 DUP2 MSTORE PUSH1 0x8 PUSH1 0x20 MSTORE PUSH1 0x40 SWAP1 KECCAK256 SLOAD DUP2 GT ISZERO PUSH2 0x938 JUMPI PUSH1 0x40 MLOAD PUSH3 0x461BCD PUSH1 0xE5 SHL DUP2 MSTORE PUSH1 0x20 PUSH1 0x4 DUP3 ADD MSTORE PUSH1 0x34 PUSH1 0x24 DUP3 ADD MSTORE PUSH32 0x416D6F756E742073686F756C64206265206C657373207468616E206F72206571 PUSH1 0x44 DUP3 ADD MSTORE PUSH20 0x75616C20746F2066726F7A656E20746F6B656E73 PUSH1 0x60 SHL PUSH1 0x64 DUP3 ADD MSTORE PUSH1 0x84 ADD PUSH2 0x715 JUMP JUMPDEST PUSH1 0x1 PUSH1 0x1 PUSH1 0xA0 SHL SUB DUP3 AND PUSH0 SWAP1 DUP2 MSTORE PUSH1 0x8 PUSH1 0x20 MSTORE PUSH1 0x40 SWAP1 KECCAK256 SLOAD PUSH2 0x95B SWAP1 DUP3 SWAP1 PUSH2 0x3285 JUMP JUMPDEST PUSH1 0x1 PUSH1 0x1 PUSH1 0xA0 SHL SUB DUP4 AND PUSH0 DUP2 DUP2 MSTORE PUSH1 0x8 PUSH1 0x20 MSTORE PUSH1 0x40 SWAP1 DUP2 SWAP1 KECCAK256 SWAP3 SWAP1 SWAP3 SSTORE SWAP1 MLOAD PUSH32 0x9BED35CB62AD0DBA04F9D5BFEE4B5BC91443E77DA8A65C4C84834C51BB08B0D6 SWAP1 PUSH2 0x9A9 SWAP1 DUP5 DUP2 MSTORE PUSH1 0x20 ADD SWAP1 JUMP JUMPDEST PUSH1 0x40 MLOAD DUP1 SWAP2 SUB SWAP1 LOG2 POP POP JUMP JUMPDEST PUSH0 PUSH2 0x6EA DUP2 DUP4 PUSH2 0x2743 JUMP JUMPDEST PUSH1 0x9 SLOAD PUSH0 SWAP1 PUSH1 0xFF AND ISZERO PUSH2 0x9E5 JUMPI PUSH1 0x40 MLOAD PUSH3 0x461BCD PUSH1 0xE5 SHL DUP2 MSTORE PUSH1 0x4 ADD PUSH2 0x715 SWAP1 PUSH2 0x3298 JUMP JUMPDEST PUSH1 0x1 PUSH1 0x1 PUSH1 0xA0 SHL SUB DUP4 AND PUSH0 SWAP1 DUP2 MSTORE PUSH1 0x7 PUSH1 0x20 MSTORE PUSH1 0x40 SWAP1 KECCAK256 SLOAD PUSH1 0xFF AND ISZERO DUP1 ISZERO PUSH2 0xA25 JUMPI POP PUSH1 0x1 PUSH1 0x1 PUSH1 0xA0 SHL SUB DUP5 AND PUSH0 SWAP1 DUP2 MSTORE PUSH1 0x7 PUSH1 0x20 MSTORE PUSH1 0x40 SWAP1 KECCAK256 SLOAD PUSH1 0xFF AND ISZERO JUMPDEST PUSH2 0xA64 JUMPI PUSH1 0x40 MLOAD PUSH3 0x461BCD PUSH1 0xE5 SHL DUP2 MSTORE PUSH1 0x20 PUSH1 0x4 DUP3 ADD MSTORE PUSH1 0x10 PUSH1 0x24 DUP3 ADD MSTORE PUSH16 0x3BB0B63632BA1034B990333937BD32B7 PUSH1 0x81 SHL PUSH1 0x44 DUP3 ADD MSTORE PUSH1 0x64 ADD PUSH2 0x715 JUMP JUMPDEST PUSH1 0x1 PUSH1 0x1 PUSH1 0xA0 SHL SUB DUP5 AND PUSH0 SWAP1 DUP2 MSTORE PUSH1 0x8 PUSH1 0x20 MSTORE PUSH1 0x40 SWAP1 KECCAK256 SLOAD PUSH2 0xA85 DUP6 PUSH2 0x1230 JUMP JUMPDEST PUSH2 0xA8F SWAP2 SWAP1 PUSH2 0x3285 JUMP JUMPDEST DUP3 GT ISZERO PUSH2 0xAD5 JUMPI PUSH1 0x40 MLOAD PUSH3 0x461BCD PUSH1 0xE5 SHL DUP2 MSTORE PUSH1 0x20 PUSH1 0x4 DUP3 ADD MSTORE PUSH1 0x14 PUSH1 0x24 DUP3 ADD MSTORE PUSH20 0x496E73756666696369656E742042616C616E6365 PUSH1 0x60 SHL PUSH1 0x44 DUP3 ADD MSTORE PUSH1 0x64 ADD PUSH2 0x715 JUMP JUMPDEST PUSH1 0x9 SLOAD PUSH1 0x40 MLOAD PUSH4 0xB9209E33 PUSH1 0xE0 SHL DUP2 MSTORE PUSH1 0x1 PUSH1 0x1 PUSH1 0xA0 SHL SUB DUP6 DUP2 AND PUSH1 0x4 DUP4 ADD MSTORE PUSH2 0x100 SWAP1 SWAP3 DIV SWAP1 SWAP2 AND SWAP1 PUSH4 0xB9209E33 SWAP1 PUSH1 0x24 ADD PUSH1 0x20 PUSH1 0x40 MLOAD DUP1 DUP4 SUB DUP2 DUP7 GAS STATICCALL ISZERO DUP1 ISZERO PUSH2 0xB23 JUMPI RETURNDATASIZE PUSH0 DUP1 RETURNDATACOPY RETURNDATASIZE PUSH0 REVERT JUMPDEST POP POP POP POP PUSH1 0x40 MLOAD RETURNDATASIZE PUSH1 0x1F NOT PUSH1 0x1F DUP3 ADD AND DUP3 ADD DUP1 PUSH1 0x40 MSTORE POP DUP2 ADD SWAP1 PUSH2 0xB47 SWAP2 SWAP1 PUSH2 0x32C2 JUMP JUMPDEST DUP1 ISZERO PUSH2 0xBC1 JUMPI POP PUSH1 0xA SLOAD PUSH1 0x40 MLOAD PUSH4 0x72331C73 PUSH1 0xE1 SHL DUP2 MSTORE PUSH1 0x1 PUSH1 0x1 PUSH1 0xA0 SHL SUB SWAP1 SWAP2 AND SWAP1 PUSH4 0xE46638E6 SWAP1 PUSH2 0xB82 SWAP1 DUP8 SWAP1 DUP8 SWAP1 DUP8 SWAP1 PUSH1 0x4 ADD PUSH2 0x32DD JUMP JUMPDEST PUSH1 0x20 PUSH1 0x40 MLOAD DUP1 DUP4 SUB DUP2 DUP7 GAS STATICCALL ISZERO DUP1 ISZERO PUSH2 0xB9D JUMPI RETURNDATASIZE PUSH0 DUP1 RETURNDATACOPY RETURNDATASIZE PUSH0 REVERT JUMPDEST POP POP POP POP PUSH1 0x40 MLOAD RETURNDATASIZE PUSH1 0x1F NOT PUSH1 0x1F DUP3 ADD AND DUP3 ADD DUP1 PUSH1 0x40 MSTORE POP DUP2 ADD SWAP1 PUSH2 0xBC1 SWAP2 SWAP1 PUSH2 0x32C2 JUMP JUMPDEST ISZERO PUSH2 0xC75 JUMPI PUSH1 0x1 PUSH1 0x1 PUSH1 0xA0 SHL SUB DUP5 AND PUSH0 SWAP1 DUP2 MSTORE PUSH1 0x2 PUSH1 0x20 SWAP1 DUP2 MSTORE PUSH1 0x40 DUP1 DUP4 KECCAK256 CALLER DUP1 DUP6 MSTORE SWAP3 MSTORE SWAP1 SWAP2 KECCAK256 SLOAD PUSH2 0xC00 SWAP2 DUP7 SWAP2 PUSH2 0xBFB SWAP1 DUP7 SWAP1 PUSH2 0x3285 JUMP JUMPDEST PUSH2 0x261F JUMP JUMPDEST PUSH2 0xC0B DUP5 DUP5 DUP5 PUSH2 0x27C4 JUMP JUMPDEST PUSH1 0xA SLOAD PUSH1 0x40 MLOAD PUSH4 0x22EBCA6D PUSH1 0xE2 SHL DUP2 MSTORE PUSH1 0x1 PUSH1 0x1 PUSH1 0xA0 SHL SUB SWAP1 SWAP2 AND SWAP1 PUSH4 0x8BAF29B4 SWAP1 PUSH2 0xC3F SWAP1 DUP8 SWAP1 DUP8 SWAP1 DUP8 SWAP1 PUSH1 0x4 ADD PUSH2 0x32DD JUMP JUMPDEST PUSH0 PUSH1 0x40 MLOAD DUP1 DUP4 SUB DUP2 PUSH0 DUP8 DUP1 EXTCODESIZE ISZERO DUP1 ISZERO PUSH2 0xC56 JUMPI PUSH0 DUP1 REVERT JUMPDEST POP GAS CALL ISZERO DUP1 ISZERO PUSH2 0xC68 JUMPI RETURNDATASIZE PUSH0 DUP1 RETURNDATACOPY RETURNDATASIZE PUSH0 REVERT JUMPDEST POP POP POP POP PUSH1 0x1 SWAP1 POP PUSH2 0xCB5 JUMP JUMPDEST PUSH1 0x40 MLOAD PUSH3 0x461BCD PUSH1 0xE5 SHL DUP2 MSTORE PUSH1 0x20 PUSH1 0x4 DUP3 ADD MSTORE PUSH1 0x15 PUSH1 0x24 DUP3 ADD MSTORE PUSH21 0x5472616E73666572206E6F7420706F737369626C65 PUSH1 0x58 SHL PUSH1 0x44 DUP3 ADD MSTORE PUSH1 0x64 ADD PUSH2 0x715 JUMP JUMPDEST SWAP4 SWAP3 POP POP POP JUMP JUMPDEST CALLER PUSH0 DUP2 DUP2 MSTORE PUSH1 0x2 PUSH1 0x20 SWAP1 DUP2 MSTORE PUSH1 0x40 DUP1 DUP4 KECCAK256 PUSH1 0x1 PUSH1 0x1 PUSH1 0xA0 SHL SUB DUP8 AND DUP5 MSTORE SWAP1 SWAP2 MSTORE DUP2 KECCAK256 SLOAD SWAP1 SWAP2 PUSH2 0x6E6 SWAP2 DUP6 SWAP1 PUSH2 0xBFB SWAP1 DUP7 SWAP1 PUSH2 0x322B JUMP JUMPDEST PUSH2 0xCFA PUSH2 0x292F JUMP JUMPDEST PUSH1 0x6 DUP1 SLOAD PUSH2 0x100 PUSH1 0x1 PUSH1 0xA8 SHL SUB NOT AND PUSH2 0x100 PUSH1 0x1 PUSH1 0x1 PUSH1 0xA0 SHL SUB DUP5 DUP2 AND DUP3 MUL SWAP3 SWAP1 SWAP3 OR SWAP3 DUP4 SWAP1 SSTORE PUSH1 0x40 MLOAD SWAP3 DIV AND SWAP1 PUSH2 0xD34 SWAP1 PUSH1 0x5 SWAP1 PUSH2 0x3301 JUMP JUMPDEST PUSH1 0x40 MLOAD DUP1 SWAP2 SUB SWAP1 KECCAK256 PUSH1 0x4 PUSH1 0x40 MLOAD PUSH2 0xD4B SWAP2 SWAP1 PUSH2 0x3301 JUMP JUMPDEST PUSH1 0x40 DUP1 MLOAD SWAP2 DUP3 SWAP1 SUB DUP3 KECCAK256 PUSH1 0x6 SLOAD DUP4 DUP4 ADD DUP4 MSTORE PUSH1 0x5 DUP5 MSTORE PUSH5 0x342E312E31 PUSH1 0xD8 SHL PUSH1 0x20 DUP6 ADD MSTORE SWAP2 MLOAD SWAP1 SWAP3 PUSH32 0x6A1105AC8148A3C319ADBC369F9072573E8A11D3A3D195E067E7C40767EC54D1 SWAP3 PUSH2 0xDA5 SWAP3 PUSH1 0xFF SWAP1 SWAP2 AND SWAP2 SWAP1 PUSH2 0x3373 JUMP JUMPDEST PUSH1 0x40 MLOAD DUP1 SWAP2 SUB SWAP1 LOG4 POP JUMP JUMPDEST PUSH2 0xDB9 CALLER PUSH2 0x9B5 JUMP JUMPDEST PUSH2 0xDD5 JUMPI PUSH1 0x40 MLOAD PUSH3 0x461BCD PUSH1 0xE5 SHL DUP2 MSTORE PUSH1 0x4 ADD PUSH2 0x715 SWAP1 PUSH2 0x31C9 JUMP JUMPDEST PUSH1 0x9 SLOAD PUSH1 0xFF AND PUSH2 0xE1E JUMPI PUSH1 0x40 MLOAD PUSH3 0x461BCD PUSH1 0xE5 SHL DUP2 MSTORE PUSH1 0x20 PUSH1 0x4 DUP3 ADD MSTORE PUSH1 0x14 PUSH1 0x24 DUP3 ADD MSTORE PUSH20 0x14185D5CD8589B194E881B9BDD081C185D5CD959 PUSH1 0x62 SHL PUSH1 0x44 DUP3 ADD MSTORE PUSH1 0x64 ADD PUSH2 0x715 JUMP JUMPDEST PUSH1 0x9 DUP1 SLOAD PUSH1 0xFF NOT AND SWAP1 SSTORE PUSH1 0x40 MLOAD CALLER DUP2 MSTORE PUSH32 0x5DB9EE0A495BF2E6FF9C91A7834C1BA4FDD244A5E8AA4E537BD38AEAE4B073AA SWAP1 PUSH1 0x20 ADD JUMPDEST PUSH1 0x40 MLOAD DUP1 SWAP2 SUB SWAP1 LOG1 JUMP JUMPDEST PUSH2 0xE67 CALLER PUSH2 0x9B5 JUMP JUMPDEST PUSH2 0xE83 JUMPI PUSH1 0x40 MLOAD PUSH3 0x461BCD PUSH1 0xE5 SHL DUP2 MSTORE PUSH1 0x4 ADD PUSH2 0x715 SWAP1 PUSH2 0x31C9 JUMP JUMPDEST PUSH1 0x9 SLOAD PUSH1 0x40 MLOAD PUSH4 0xB9209E33 PUSH1 0xE0 SHL DUP2 MSTORE PUSH1 0x1 PUSH1 0x1 PUSH1 0xA0 SHL SUB DUP5 DUP2 AND PUSH1 0x4 DUP4 ADD MSTORE PUSH2 0x100 SWAP1 SWAP3 DIV SWAP1 SWAP2 AND SWAP1 PUSH4 0xB9209E33 SWAP1 PUSH1 0x24 ADD PUSH1 0x20 PUSH1 0x40 MLOAD DUP1 DUP4 SUB DUP2 DUP7 GAS STATICCALL ISZERO DUP1 ISZERO PUSH2 0xED1 JUMPI RETURNDATASIZE PUSH0 DUP1 RETURNDATACOPY RETURNDATASIZE PUSH0 REVERT JUMPDEST POP POP POP POP PUSH1 0x40 MLOAD RETURNDATASIZE PUSH1 0x1F NOT PUSH1 0x1F DUP3 ADD AND DUP3 ADD DUP1 PUSH1 0x40 MSTORE POP DUP2 ADD SWAP1 PUSH2 0xEF5 SWAP2 SWAP1 PUSH2 0x32C2 JUMP JUMPDEST PUSH2 0xF41 JUMPI PUSH1 0x40 MLOAD PUSH3 0x461BCD PUSH1 0xE5 SHL DUP2 MSTORE PUSH1 0x20 PUSH1 0x4 DUP3 ADD MSTORE PUSH1 0x19 PUSH1 0x24 DUP3 ADD MSTORE PUSH32 0x4964656E74697479206973206E6F742076657269666965642E00000000000000 PUSH1 0x44 DUP3 ADD MSTORE PUSH1 0x64 ADD PUSH2 0x715 JUMP JUMPDEST PUSH1 0xA SLOAD PUSH1 0x40 MLOAD PUSH4 0x72331C73 PUSH1 0xE1 SHL DUP2 MSTORE PUSH1 0x1 PUSH1 0x1 PUSH1 0xA0 SHL SUB SWAP1 SWAP2 AND SWAP1 PUSH4 0xE46638E6 SWAP1 PUSH2 0xF75 SWAP1 PUSH0 SWAP1 DUP7 SWAP1 DUP7 SWAP1 PUSH1 0x4 ADD PUSH2 0x32DD JUMP JUMPDEST PUSH1 0x20 PUSH1 0x40 MLOAD DUP1 DUP4 SUB DUP2 DUP7 GAS STATICCALL ISZERO DUP1 ISZERO PUSH2 0xF90 JUMPI RETURNDATASIZE PUSH0 DUP1 RETURNDATACOPY RETURNDATASIZE PUSH0 REVERT JUMPDEST POP POP POP POP PUSH1 0x40 MLOAD RETURNDATASIZE PUSH1 0x1F NOT PUSH1 0x1F DUP3 ADD AND DUP3 ADD DUP1 PUSH1 0x40 MSTORE POP DUP2 ADD SWAP1 PUSH2 0xFB4 SWAP2 SWAP1 PUSH2 0x32C2 JUMP JUMPDEST PUSH2 0x1000 JUMPI PUSH1 0x40 MLOAD PUSH3 0x461BCD PUSH1 0xE5 SHL DUP2 MSTORE PUSH1 0x20 PUSH1 0x4 DUP3 ADD MSTORE PUSH1 0x17 PUSH1 0x24 DUP3 ADD MSTORE PUSH32 0x436F6D706C69616E6365206E6F7420666F6C6C6F776564000000000000000000 PUSH1 0x44 DUP3 ADD MSTORE PUSH1 0x64 ADD PUSH2 0x715 JUMP JUMPDEST PUSH2 0x100A DUP3 DUP3 PUSH2 0x2961 JUMP JUMPDEST PUSH1 0xA SLOAD PUSH1 0x40 MLOAD PUSH4 0x5F8DEAD3 PUSH1 0xE0 SHL DUP2 MSTORE PUSH1 0x1 PUSH1 0x1 PUSH1 0xA0 SHL SUB DUP5 DUP2 AND PUSH1 0x4 DUP4 ADD MSTORE PUSH1 0x24 DUP3 ADD DUP5 SWAP1 MSTORE SWAP1 SWAP2 AND SWAP1 PUSH4 0x5F8DEAD3 SWAP1 PUSH1 0x44 ADD PUSH0 PUSH1 0x40 MLOAD DUP1 DUP4 SUB DUP2 PUSH0 DUP8 DUP1 EXTCODESIZE ISZERO DUP1 ISZERO PUSH2 0x1055 JUMPI PUSH0 DUP1 REVERT JUMPDEST POP GAS CALL ISZERO DUP1 ISZERO PUSH2 0x1067 JUMPI RETURNDATASIZE PUSH0 DUP1 RETURNDATACOPY RETURNDATASIZE PUSH0 REVERT JUMPDEST POP POP POP POP POP POP JUMP JUMPDEST PUSH0 JUMPDEST DUP6 DUP2 LT ISZERO PUSH2 0x10FB JUMPI PUSH2 0x10E8 DUP8 DUP8 DUP4 DUP2 DUP2 LT PUSH2 0x108E JUMPI PUSH2 0x108E PUSH2 0x323E JUMP JUMPDEST SWAP1 POP PUSH1 0x20 MUL ADD PUSH1 0x20 DUP2 ADD SWAP1 PUSH2 0x10A3 SWAP2 SWAP1 PUSH2 0x2D9B JUMP JUMPDEST DUP7 DUP7 DUP5 DUP2 DUP2 LT PUSH2 0x10B5 JUMPI PUSH2 0x10B5 PUSH2 0x323E JUMP JUMPDEST SWAP1 POP PUSH1 0x20 MUL ADD PUSH1 0x20 DUP2 ADD SWAP1 PUSH2 0x10CA SWAP2 SWAP1 PUSH2 0x2D9B JUMP JUMPDEST DUP6 DUP6 DUP6 DUP2 DUP2 LT PUSH2 0x10DC JUMPI PUSH2 0x10DC PUSH2 0x323E JUMP JUMPDEST SWAP1 POP PUSH1 0x20 MUL ADD CALLDATALOAD PUSH2 0x195D JUMP JUMPDEST POP DUP1 PUSH2 0x10F3 DUP2 PUSH2 0x326D JUMP JUMPDEST SWAP2 POP POP PUSH2 0x1071 JUMP JUMPDEST POP POP POP POP POP POP POP JUMP JUMPDEST PUSH0 JUMPDEST DUP4 DUP2 LT ISZERO PUSH2 0x888 JUMPI PUSH2 0x1156 DUP6 DUP6 DUP4 DUP2 DUP2 LT PUSH2 0x1123 JUMPI PUSH2 0x1123 PUSH2 0x323E JUMP JUMPDEST SWAP1 POP PUSH1 0x20 MUL ADD PUSH1 0x20 DUP2 ADD SWAP1 PUSH2 0x1138 SWAP2 SWAP1 PUSH2 0x2D9B JUMP JUMPDEST DUP5 DUP5 DUP5 DUP2 DUP2 LT PUSH2 0x114A JUMPI PUSH2 0x114A PUSH2 0x323E JUMP JUMPDEST SWAP1 POP PUSH1 0x20 MUL ADD CALLDATALOAD PUSH2 0x88F JUMP JUMPDEST DUP1 PUSH2 0x1160 DUP2 PUSH2 0x326D JUMP JUMPDEST SWAP2 POP POP PUSH2 0x1106 JUMP JUMPDEST PUSH0 JUMPDEST DUP4 DUP2 LT ISZERO PUSH2 0x888 JUMPI PUSH2 0x11BA DUP6 DUP6 DUP4 DUP2 DUP2 LT PUSH2 0x1187 JUMPI PUSH2 0x1187 PUSH2 0x323E JUMP JUMPDEST SWAP1 POP PUSH1 0x20 MUL ADD PUSH1 0x20 DUP2 ADD SWAP1 PUSH2 0x119C SWAP2 SWAP1 PUSH2 0x2D9B JUMP JUMPDEST DUP5 DUP5 DUP5 DUP2 DUP2 LT PUSH2 0x11AE JUMPI PUSH2 0x11AE PUSH2 0x323E JUMP JUMPDEST SWAP1 POP PUSH1 0x20 MUL ADD CALLDATALOAD PUSH2 0x17BB JUMP JUMPDEST DUP1 PUSH2 0x11C4 DUP2 PUSH2 0x326D JUMP JUMPDEST SWAP2 POP POP PUSH2 0x116A JUMP JUMPDEST PUSH0 JUMPDEST DUP4 DUP2 LT ISZERO PUSH2 0x888 JUMPI PUSH2 0x121E DUP6 DUP6 DUP4 DUP2 DUP2 LT PUSH2 0x11EB JUMPI PUSH2 0x11EB PUSH2 0x323E JUMP JUMPDEST SWAP1 POP PUSH1 0x20 MUL ADD PUSH1 0x20 DUP2 ADD SWAP1 PUSH2 0x1200 SWAP2 SWAP1 PUSH2 0x2D9B JUMP JUMPDEST DUP5 DUP5 DUP5 DUP2 DUP2 LT PUSH2 0x1212 JUMPI PUSH2 0x1212 PUSH2 0x323E JUMP JUMPDEST SWAP1 POP PUSH1 0x20 MUL ADD CALLDATALOAD PUSH2 0xE5E JUMP JUMPDEST DUP1 PUSH2 0x1228 DUP2 PUSH2 0x326D JUMP JUMPDEST SWAP2 POP POP PUSH2 0x11CE JUMP JUMPDEST PUSH1 0x1 PUSH1 0x1 PUSH1 0xA0 SHL SUB AND PUSH0 SWAP1 DUP2 MSTORE PUSH1 0x1 PUSH1 0x20 MSTORE PUSH1 0x40 SWAP1 KECCAK256 SLOAD SWAP1 JUMP JUMPDEST PUSH2 0x1252 PUSH2 0x292F JUMP JUMPDEST PUSH2 0x125B PUSH0 PUSH2 0x2A47 JUMP JUMPDEST JUMP JUMPDEST PUSH2 0x1266 CALLER PUSH2 0x9B5 JUMP JUMPDEST PUSH2 0x1282 JUMPI PUSH1 0x40 MLOAD PUSH3 0x461BCD PUSH1 0xE5 SHL DUP2 MSTORE PUSH1 0x4 ADD PUSH2 0x715 SWAP1 PUSH2 0x31C9 JUMP JUMPDEST PUSH1 0x9 SLOAD PUSH1 0xFF AND ISZERO PUSH2 0x12A5 JUMPI PUSH1 0x40 MLOAD PUSH3 0x461BCD PUSH1 0xE5 SHL DUP2 MSTORE PUSH1 0x4 ADD PUSH2 0x715 SWAP1 PUSH2 0x3298 JUMP JUMPDEST PUSH1 0x9 DUP1 SLOAD PUSH1 0xFF NOT AND PUSH1 0x1 OR SWAP1 SSTORE PUSH1 0x40 MLOAD CALLER DUP2 MSTORE PUSH32 0x62E78CEA01BEE320CD4E420270B5EA74000D11B0C9F74754EBDBFC544B05A258 SWAP1 PUSH1 0x20 ADD PUSH2 0xE54 JUMP JUMPDEST PUSH2 0x12EA PUSH2 0x292F JUMP JUMPDEST PUSH1 0x1 PUSH1 0x1 PUSH1 0xA0 SHL SUB DUP2 AND PUSH2 0x1310 JUMPI PUSH1 0x40 MLOAD PUSH3 0x461BCD PUSH1 0xE5 SHL DUP2 MSTORE PUSH1 0x4 ADD PUSH2 0x715 SWAP1 PUSH2 0x3396 JUMP JUMPDEST PUSH2 0x131A PUSH0 DUP3 PUSH2 0x2AB7 JUMP JUMPDEST PUSH1 0x40 MLOAD PUSH1 0x1 PUSH1 0x1 PUSH1 0xA0 SHL SUB DUP3 AND SWAP1 PUSH32 0xF68E73CEC97F2D70AA641FB26E87A4383686E2EFACB648F2165AEB02AC562EC5 SWAP1 PUSH0 SWAP1 LOG2 POP JUMP JUMPDEST PUSH0 JUMPDEST DUP4 DUP2 LT ISZERO PUSH2 0x888 JUMPI PUSH2 0x13A2 DUP6 DUP6 DUP4 DUP2 DUP2 LT PUSH2 0x136F JUMPI PUSH2 0x136F PUSH2 0x323E JUMP JUMPDEST SWAP1 POP PUSH1 0x20 MUL ADD PUSH1 0x20 DUP2 ADD SWAP1 PUSH2 0x1384 SWAP2 SWAP1 PUSH2 0x2D9B JUMP JUMPDEST DUP5 DUP5 DUP5 DUP2 DUP2 LT PUSH2 0x1396 JUMPI PUSH2 0x1396 PUSH2 0x323E JUMP JUMPDEST SWAP1 POP PUSH1 0x20 MUL ADD CALLDATALOAD PUSH2 0x1BB5 JUMP JUMPDEST POP DUP1 PUSH2 0x13AD DUP2 PUSH2 0x326D JUMP JUMPDEST SWAP2 POP POP PUSH2 0x1352 JUMP JUMPDEST PUSH32 0x9016D09D72D40FDAE2FD8CEAC6B6234C7706214FD39C1CD1E609A0528C199300 SLOAD PUSH1 0x1 PUSH1 0x1 PUSH1 0xA0 SHL SUB AND SWAP1 JUMP JUMPDEST PUSH0 PUSH2 0x13ED CALLER PUSH2 0x9B5 JUMP JUMPDEST PUSH2 0x1409 JUMPI PUSH1 0x40 MLOAD PUSH3 0x461BCD PUSH1 0xE5 SHL DUP2 MSTORE PUSH1 0x4 ADD PUSH2 0x715 SWAP1 PUSH2 0x31C9 JUMP JUMPDEST PUSH2 0x1412 DUP5 PUSH2 0x1230 JUMP JUMPDEST PUSH0 SUB PUSH2 0x1457 JUMPI PUSH1 0x40 MLOAD PUSH3 0x461BCD PUSH1 0xE5 SHL DUP2 MSTORE PUSH1 0x20 PUSH1 0x4 DUP3 ADD MSTORE PUSH1 0x14 PUSH1 0x24 DUP3 ADD MSTORE PUSH20 0x3737903A37B5B2B739903A37903932B1B7BB32B9 PUSH1 0x61 SHL PUSH1 0x44 DUP3 ADD MSTORE PUSH1 0x64 ADD PUSH2 0x715 JUMP JUMPDEST PUSH1 0x40 DUP1 MLOAD PUSH1 0x1 PUSH1 0x1 PUSH1 0xA0 SHL SUB DUP6 AND PUSH1 0x20 DUP3 ADD MSTORE DUP4 SWAP2 PUSH0 SWAP2 ADD PUSH1 0x40 DUP1 MLOAD DUP1 DUP4 SUB PUSH1 0x1F NOT ADD DUP2 MSTORE SWAP1 DUP3 SWAP1 MSTORE DUP1 MLOAD PUSH1 0x20 SWAP1 SWAP2 ADD KECCAK256 PUSH4 0xD202158D PUSH1 0xE0 SHL DUP3 MSTORE PUSH1 0x4 DUP3 ADD DUP2 SWAP1 MSTORE PUSH1 0x1 PUSH1 0x24 DUP4 ADD MSTORE SWAP2 POP PUSH1 0x1 PUSH1 0x1 PUSH1 0xA0 SHL SUB DUP4 AND SWAP1 PUSH4 0xD202158D SWAP1 PUSH1 0x44 ADD PUSH1 0x20 PUSH1 0x40 MLOAD DUP1 DUP4 SUB DUP2 DUP7 GAS STATICCALL ISZERO DUP1 ISZERO PUSH2 0x14D1 JUMPI RETURNDATASIZE PUSH0 DUP1 RETURNDATACOPY RETURNDATASIZE PUSH0 REVERT JUMPDEST POP POP POP POP PUSH1 0x40 MLOAD RETURNDATASIZE PUSH1 0x1F NOT PUSH1 0x1F DUP3 ADD AND DUP3 ADD DUP1 PUSH1 0x40 MSTORE POP DUP2 ADD SWAP1 PUSH2 0x14F5 SWAP2 SWAP1 PUSH2 0x32C2 JUMP JUMPDEST ISZERO PUSH2 0x16FE JUMPI PUSH0 PUSH2 0x1504 DUP8 PUSH2 0x1230 JUMP JUMPDEST PUSH1 0x1 PUSH1 0x1 PUSH1 0xA0 SHL SUB DUP9 DUP2 AND PUSH0 DUP2 DUP2 MSTORE PUSH1 0x8 PUSH1 0x20 MSTORE PUSH1 0x40 SWAP1 DUP2 SWAP1 KECCAK256 SLOAD PUSH1 0x9 SLOAD SWAP2 MLOAD PUSH4 0x7E42683B PUSH1 0xE0 SHL DUP2 MSTORE PUSH1 0x4 DUP2 ADD SWAP4 SWAP1 SWAP4 MSTORE SWAP4 SWAP5 POP PUSH2 0x100 SWAP1 DIV SWAP1 SWAP2 AND SWAP1 PUSH4 0x454A03E0 SWAP1 DUP10 SWAP1 DUP8 SWAP1 DUP5 SWAP1 PUSH4 0x7E42683B SWAP1 PUSH1 0x24 ADD PUSH1 0x20 PUSH1 0x40 MLOAD DUP1 DUP4 SUB DUP2 DUP7 GAS STATICCALL ISZERO DUP1 ISZERO PUSH2 0x1572 JUMPI RETURNDATASIZE PUSH0 DUP1 RETURNDATACOPY RETURNDATASIZE PUSH0 REVERT JUMPDEST POP POP POP POP PUSH1 0x40 MLOAD RETURNDATASIZE PUSH1 0x1F NOT PUSH1 0x1F DUP3 ADD AND DUP3 ADD DUP1 PUSH1 0x40 MSTORE POP DUP2 ADD SWAP1 PUSH2 0x1596 SWAP2 SWAP1 PUSH2 0x33CD JUMP JUMPDEST PUSH1 0x40 MLOAD PUSH1 0x1 PUSH1 0x1 PUSH1 0xE0 SHL SUB NOT PUSH1 0xE0 DUP7 SWAP1 SHL AND DUP2 MSTORE PUSH1 0x1 PUSH1 0x1 PUSH1 0xA0 SHL SUB SWAP4 DUP5 AND PUSH1 0x4 DUP3 ADD MSTORE SWAP3 SWAP1 SWAP2 AND PUSH1 0x24 DUP4 ADD MSTORE PUSH2 0xFFFF AND PUSH1 0x44 DUP3 ADD MSTORE PUSH1 0x64 ADD PUSH0 PUSH1 0x40 MLOAD DUP1 DUP4 SUB DUP2 PUSH0 DUP8 DUP1 EXTCODESIZE ISZERO DUP1 ISZERO PUSH2 0x15E6 JUMPI PUSH0 DUP1 REVERT JUMPDEST POP GAS CALL ISZERO DUP1 ISZERO PUSH2 0x15F8 JUMPI RETURNDATASIZE PUSH0 DUP1 RETURNDATACOPY RETURNDATASIZE PUSH0 REVERT JUMPDEST POP POP POP POP PUSH2 0x1607 DUP9 DUP9 DUP5 PUSH2 0x195D JUMP JUMPDEST POP DUP1 ISZERO PUSH2 0x1618 JUMPI PUSH2 0x1618 DUP8 DUP3 PUSH2 0x6F0 JUMP JUMPDEST PUSH1 0x1 PUSH1 0x1 PUSH1 0xA0 SHL SUB DUP9 AND PUSH0 SWAP1 DUP2 MSTORE PUSH1 0x7 PUSH1 0x20 MSTORE PUSH1 0x40 SWAP1 KECCAK256 SLOAD PUSH1 0xFF AND ISZERO ISZERO PUSH1 0x1 SUB PUSH2 0x1647 JUMPI PUSH2 0x1647 DUP8 PUSH1 0x1 PUSH2 0x1FD5 JUMP JUMPDEST PUSH1 0x9 SLOAD PUSH1 0x40 MLOAD PUSH4 0xA8D29D1D PUSH1 0xE0 SHL DUP2 MSTORE PUSH1 0x1 PUSH1 0x1 PUSH1 0xA0 SHL SUB DUP11 DUP2 AND PUSH1 0x4 DUP4 ADD MSTORE PUSH2 0x100 SWAP1 SWAP3 DIV SWAP1 SWAP2 AND SWAP1 PUSH4 0xA8D29D1D SWAP1 PUSH1 0x24 ADD PUSH0 PUSH1 0x40 MLOAD DUP1 DUP4 SUB DUP2 PUSH0 DUP8 DUP1 EXTCODESIZE ISZERO DUP1 ISZERO PUSH2 0x1691 JUMPI PUSH0 DUP1 REVERT JUMPDEST POP GAS CALL ISZERO DUP1 ISZERO PUSH2 0x16A3 JUMPI RETURNDATASIZE PUSH0 DUP1 RETURNDATACOPY RETURNDATASIZE PUSH0 REVERT JUMPDEST POP POP POP POP DUP6 PUSH1 0x1 PUSH1 0x1 PUSH1 0xA0 SHL SUB AND DUP8 PUSH1 0x1 PUSH1 0x1 PUSH1 0xA0 SHL SUB AND DUP10 PUSH1 0x1 PUSH1 0x1 PUSH1 0xA0 SHL SUB AND PUSH32 0xF0C9129A94F30F1CAACEB63E44B9811D0A3EDF1D6C23757F346093AF5553FED0 PUSH1 0x40 MLOAD PUSH1 0x40 MLOAD DUP1 SWAP2 SUB SWAP1 LOG4 PUSH1 0x1 SWAP5 POP POP POP POP POP PUSH2 0xCB5 JUMP JUMPDEST PUSH1 0x40 MLOAD PUSH3 0x461BCD PUSH1 0xE5 SHL DUP2 MSTORE PUSH1 0x20 PUSH1 0x4 DUP3 ADD MSTORE PUSH1 0x15 PUSH1 0x24 DUP3 ADD MSTORE PUSH21 0x5265636F76657279206E6F7420706F737369626C65 PUSH1 0x58 SHL PUSH1 0x44 DUP3 ADD MSTORE PUSH1 0x64 ADD PUSH2 0x715 JUMP JUMPDEST PUSH1 0x60 PUSH1 0x5 DUP1 SLOAD PUSH2 0x659 SWAP1 PUSH2 0x3191 JUMP JUMPDEST PUSH2 0x1755 PUSH2 0x292F JUMP JUMPDEST PUSH1 0x1 PUSH1 0x1 PUSH1 0xA0 SHL SUB DUP2 AND PUSH2 0x177B JUMPI PUSH1 0x40 MLOAD PUSH3 0x461BCD PUSH1 0xE5 SHL DUP2 MSTORE PUSH1 0x4 ADD PUSH2 0x715 SWAP1 PUSH2 0x3396 JUMP JUMPDEST PUSH2 0x1785 PUSH0 DUP3 PUSH2 0x2B32 JUMP JUMPDEST PUSH1 0x40 MLOAD PUSH1 0x1 PUSH1 0x1 PUSH1 0xA0 SHL SUB DUP3 AND SWAP1 PUSH32 0xED9C8AD8D5A0A66898EA49D2956929C93AE2E8BD50281B2ED897C5D1A6737E0B SWAP1 PUSH0 SWAP1 LOG2 POP JUMP JUMPDEST PUSH2 0x17C4 CALLER PUSH2 0x9B5 JUMP JUMPDEST PUSH2 0x17E0 JUMPI PUSH1 0x40 MLOAD PUSH3 0x461BCD PUSH1 0xE5 SHL DUP2 MSTORE PUSH1 0x4 ADD PUSH2 0x715 SWAP1 PUSH2 0x31C9 JUMP JUMPDEST DUP1 PUSH2 0x17EA DUP4 PUSH2 0x1230 JUMP JUMPDEST LT ISZERO PUSH2 0x1838 JUMPI PUSH1 0x40 MLOAD PUSH3 0x461BCD PUSH1 0xE5 SHL DUP2 MSTORE PUSH1 0x20 PUSH1 0x4 DUP3 ADD MSTORE PUSH1 0x1D PUSH1 0x24 DUP3 ADD MSTORE PUSH32 0x63616E6E6F74206275726E206D6F7265207468616E2062616C616E6365000000 PUSH1 0x44 DUP3 ADD MSTORE PUSH1 0x64 ADD PUSH2 0x715 JUMP JUMPDEST PUSH1 0x1 PUSH1 0x1 PUSH1 0xA0 SHL SUB DUP3 AND PUSH0 SWAP1 DUP2 MSTORE PUSH1 0x8 PUSH1 0x20 MSTORE PUSH1 0x40 DUP2 KECCAK256 SLOAD PUSH2 0x1859 DUP5 PUSH2 0x1230 JUMP JUMPDEST PUSH2 0x1863 SWAP2 SWAP1 PUSH2 0x3285 JUMP JUMPDEST SWAP1 POP DUP1 DUP3 GT ISZERO PUSH2 0x18F6 JUMPI PUSH0 PUSH2 0x1878 DUP3 DUP5 PUSH2 0x3285 JUMP JUMPDEST PUSH1 0x1 PUSH1 0x1 PUSH1 0xA0 SHL SUB DUP6 AND PUSH0 SWAP1 DUP2 MSTORE PUSH1 0x8 PUSH1 0x20 MSTORE PUSH1 0x40 SWAP1 KECCAK256 SLOAD SWAP1 SWAP2 POP PUSH2 0x189E SWAP1 DUP3 SWAP1 PUSH2 0x3285 JUMP JUMPDEST PUSH1 0x1 PUSH1 0x1 PUSH1 0xA0 SHL SUB DUP6 AND PUSH0 DUP2 DUP2 MSTORE PUSH1 0x8 PUSH1 0x20 MSTORE PUSH1 0x40 SWAP1 DUP2 SWAP1 KECCAK256 SWAP3 SWAP1 SWAP3 SSTORE SWAP1 MLOAD PUSH32 0x9BED35CB62AD0DBA04F9D5BFEE4B5BC91443E77DA8A65C4C84834C51BB08B0D6 SWAP1 PUSH2 0x18EC SWAP1 DUP5 DUP2 MSTORE PUSH1 0x20 ADD SWAP1 JUMP JUMPDEST PUSH1 0x40 MLOAD DUP1 SWAP2 SUB SWAP1 LOG2 POP JUMPDEST PUSH2 0x1900 DUP4 DUP4 PUSH2 0x2BB3 JUMP JUMPDEST PUSH1 0xA SLOAD PUSH1 0x40 MLOAD PUSH4 0x469753B9 PUSH1 0xE1 SHL DUP2 MSTORE PUSH1 0x1 PUSH1 0x1 PUSH1 0xA0 SHL SUB DUP6 DUP2 AND PUSH1 0x4 DUP4 ADD MSTORE PUSH1 0x24 DUP3 ADD DUP6 SWAP1 MSTORE SWAP1 SWAP2 AND SWAP1 PUSH4 0x8D2EA772 SWAP1 PUSH1 0x44 ADD PUSH0 PUSH1 0x40 MLOAD DUP1 DUP4 SUB DUP2 PUSH0 DUP8 DUP1 EXTCODESIZE ISZERO DUP1 ISZERO PUSH2 0x194B JUMPI PUSH0 DUP1 REVERT JUMPDEST POP GAS CALL ISZERO DUP1 ISZERO PUSH2 0x10FB JUMPI RETURNDATASIZE PUSH0 DUP1 RETURNDATACOPY RETURNDATASIZE PUSH0 REVERT JUMPDEST PUSH0 PUSH2 0x1967 CALLER PUSH2 0x9B5 JUMP JUMPDEST PUSH2 0x1983 JUMPI PUSH1 0x40 MLOAD PUSH3 0x461BCD PUSH1 0xE5 SHL DUP2 MSTORE PUSH1 0x4 ADD PUSH2 0x715 SWAP1 PUSH2 0x31C9 JUMP JUMPDEST DUP2 PUSH2 0x198D DUP6 PUSH2 0x1230 JUMP JUMPDEST LT ISZERO PUSH2 0x19D4 JUMPI PUSH1 0x40 MLOAD PUSH3 0x461BCD PUSH1 0xE5 SHL DUP2 MSTORE PUSH1 0x20 PUSH1 0x4 DUP3 ADD MSTORE PUSH1 0x16 PUSH1 0x24 DUP3 ADD MSTORE PUSH22 0x73656E6465722062616C616E636520746F6F206C6F77 PUSH1 0x50 SHL PUSH1 0x44 DUP3 ADD MSTORE PUSH1 0x64 ADD PUSH2 0x715 JUMP JUMPDEST PUSH1 0x1 PUSH1 0x1 PUSH1 0xA0 SHL SUB DUP5 AND PUSH0 SWAP1 DUP2 MSTORE PUSH1 0x8 PUSH1 0x20 MSTORE PUSH1 0x40 DUP2 KECCAK256 SLOAD PUSH2 0x19F5 DUP7 PUSH2 0x1230 JUMP JUMPDEST PUSH2 0x19FF SWAP2 SWAP1 PUSH2 0x3285 JUMP JUMPDEST SWAP1 POP DUP1 DUP4 GT ISZERO PUSH2 0x1A92 JUMPI PUSH0 PUSH2 0x1A14 DUP3 DUP6 PUSH2 0x3285 JUMP JUMPDEST PUSH1 0x1 PUSH1 0x1 PUSH1 0xA0 SHL SUB DUP8 AND PUSH0 SWAP1 DUP2 MSTORE PUSH1 0x8 PUSH1 0x20 MSTORE PUSH1 0x40 SWAP1 KECCAK256 SLOAD SWAP1 SWAP2 POP PUSH2 0x1A3A SWAP1 DUP3 SWAP1 PUSH2 0x3285 JUMP JUMPDEST PUSH1 0x1 PUSH1 0x1 PUSH1 0xA0 SHL SUB DUP8 AND PUSH0 DUP2 DUP2 MSTORE PUSH1 0x8 PUSH1 0x20 MSTORE PUSH1 0x40 SWAP1 DUP2 SWAP1 KECCAK256 SWAP3 SWAP1 SWAP3 SSTORE SWAP1 MLOAD PUSH32 0x9BED35CB62AD0DBA04F9D5BFEE4B5BC91443E77DA8A65C4C84834C51BB08B0D6 SWAP1 PUSH2 0x1A88 SWAP1 DUP5 DUP2 MSTORE PUSH1 0x20 ADD SWAP1 JUMP JUMPDEST PUSH1 0x40 MLOAD DUP1 SWAP2 SUB SWAP1 LOG2 POP JUMPDEST PUSH1 0x9 SLOAD PUSH1 0x40 MLOAD PUSH4 0xB9209E33 PUSH1 0xE0 SHL DUP2 MSTORE PUSH1 0x1 PUSH1 0x1 PUSH1 0xA0 SHL SUB DUP7 DUP2 AND PUSH1 0x4 DUP4 ADD MSTORE PUSH2 0x100 SWAP1 SWAP3 DIV SWAP1 SWAP2 AND SWAP1 PUSH4 0xB9209E33 SWAP1 PUSH1 0x24 ADD PUSH1 0x20 PUSH1 0x40 MLOAD DUP1 DUP4 SUB DUP2 DUP7 GAS STATICCALL ISZERO DUP1 ISZERO PUSH2 0x1AE0 JUMPI RETURNDATASIZE PUSH0 DUP1 RETURNDATACOPY RETURNDATASIZE PUSH0 REVERT JUMPDEST POP POP POP POP PUSH1 0x40 MLOAD RETURNDATASIZE PUSH1 0x1F NOT PUSH1 0x1F DUP3 ADD AND DUP3 ADD DUP1 PUSH1 0x40 MSTORE POP DUP2 ADD SWAP1 PUSH2 0x1B04 SWAP2 SWAP1 PUSH2 0x32C2 JUMP JUMPDEST ISZERO PUSH2 0xC75 JUMPI PUSH2 0x1B14 DUP6 DUP6 DUP6 PUSH2 0x27C4 JUMP JUMPDEST PUSH1 0xA SLOAD PUSH1 0x40 MLOAD PUSH4 0x22EBCA6D PUSH1 0xE2 SHL DUP2 MSTORE PUSH1 0x1 PUSH1 0x1 PUSH1 0xA0 SHL SUB SWAP1 SWAP2 AND SWAP1 PUSH4 0x8BAF29B4 SWAP1 PUSH2 0x1B48 SWAP1 DUP9 SWAP1 DUP9 SWAP1 DUP9 SWAP1 PUSH1 0x4 ADD PUSH2 0x32DD JUMP JUMPDEST PUSH0 PUSH1 0x40 MLOAD DUP1 DUP4 SUB DUP2 PUSH0 DUP8 DUP1 EXTCODESIZE ISZERO DUP1 ISZERO PUSH2 0x1B5F JUMPI PUSH0 DUP1 REVERT JUMPDEST POP GAS CALL ISZERO DUP1 ISZERO PUSH2 0x1B71 JUMPI RETURNDATASIZE PUSH0 DUP1 RETURNDATACOPY RETURNDATASIZE PUSH0 REVERT JUMPDEST POP POP POP POP PUSH1 0x1 SWAP2 POP POP PUSH2 0xCB5 JUMP JUMPDEST CALLER PUSH0 DUP2 DUP2 MSTORE PUSH1 0x2 PUSH1 0x20 SWAP1 DUP2 MSTORE PUSH1 0x40 DUP1 DUP4 KECCAK256 PUSH1 0x1 PUSH1 0x1 PUSH1 0xA0 SHL SUB DUP8 AND DUP5 MSTORE SWAP1 SWAP2 MSTORE DUP2 KECCAK256 SLOAD SWAP1 SWAP2 PUSH2 0x6E6 SWAP2 DUP6 SWAP1 PUSH2 0xBFB SWAP1 DUP7 SWAP1 PUSH2 0x3285 JUMP JUMPDEST PUSH1 0x9 SLOAD PUSH0 SWAP1 PUSH1 0xFF AND ISZERO PUSH2 0x1BDA JUMPI PUSH1 0x40 MLOAD PUSH3 0x461BCD PUSH1 0xE5 SHL DUP2 MSTORE PUSH1 0x4 ADD PUSH2 0x715 SWAP1 PUSH2 0x3298 JUMP JUMPDEST PUSH1 0x1 PUSH1 0x1 PUSH1 0xA0 SHL SUB DUP4 AND PUSH0 SWAP1 DUP2 MSTORE PUSH1 0x7 PUSH1 0x20 MSTORE PUSH1 0x40 SWAP1 KECCAK256 SLOAD PUSH1 0xFF AND ISZERO DUP1 ISZERO PUSH2 0x1C11 JUMPI POP CALLER PUSH0 SWAP1 DUP2 MSTORE PUSH1 0x7 PUSH1 0x20 MSTORE PUSH1 0x40 SWAP1 KECCAK256 SLOAD PUSH1 0xFF AND ISZERO JUMPDEST PUSH2 0x1C50 JUMPI PUSH1 0x40 MLOAD PUSH3 0x461BCD PUSH1 0xE5 SHL DUP2 MSTORE PUSH1 0x20 PUSH1 0x4 DUP3 ADD MSTORE PUSH1 0x10 PUSH1 0x24 DUP3 ADD MSTORE PUSH16 0x3BB0B63632BA1034B990333937BD32B7 PUSH1 0x81 SHL PUSH1 0x44 DUP3 ADD MSTORE PUSH1 0x64 ADD PUSH2 0x715 JUMP JUMPDEST CALLER PUSH0 DUP2 DUP2 MSTORE PUSH1 0x8 PUSH1 0x20 MSTORE PUSH1 0x40 SWAP1 KECCAK256 SLOAD SWAP1 PUSH2 0x1C69 SWAP1 PUSH2 0x1230 JUMP JUMPDEST PUSH2 0x1C73 SWAP2 SWAP1 PUSH2 0x3285 JUMP JUMPDEST DUP3 GT ISZERO PUSH2 0x1CB9 JUMPI PUSH1 0x40 MLOAD PUSH3 0x461BCD PUSH1 0xE5 SHL DUP2 MSTORE PUSH1 0x20 PUSH1 0x4 DUP3 ADD MSTORE PUSH1 0x14 PUSH1 0x24 DUP3 ADD MSTORE PUSH20 0x496E73756666696369656E742042616C616E6365 PUSH1 0x60 SHL PUSH1 0x44 DUP3 ADD MSTORE PUSH1 0x64 ADD PUSH2 0x715 JUMP JUMPDEST PUSH1 0x9 SLOAD PUSH1 0x40 MLOAD PUSH4 0xB9209E33 PUSH1 0xE0 SHL DUP2 MSTORE PUSH1 0x1 PUSH1 0x1 PUSH1 0xA0 SHL SUB DUP6 DUP2 AND PUSH1 0x4 DUP4 ADD MSTORE PUSH2 0x100 SWAP1 SWAP3 DIV SWAP1 SWAP2 AND SWAP1 PUSH4 0xB9209E33 SWAP1 PUSH1 0x24 ADD PUSH1 0x20 PUSH1 0x40 MLOAD DUP1 DUP4 SUB DUP2 DUP7 GAS STATICCALL ISZERO DUP1 ISZERO PUSH2 0x1D07 JUMPI RETURNDATASIZE PUSH0 DUP1 RETURNDATACOPY RETURNDATASIZE PUSH0 REVERT JUMPDEST POP POP POP POP PUSH1 0x40 MLOAD RETURNDATASIZE PUSH1 0x1F NOT PUSH1 0x1F DUP3 ADD AND DUP3 ADD DUP1 PUSH1 0x40 MSTORE POP DUP2 ADD SWAP1 PUSH2 0x1D2B SWAP2 SWAP1 PUSH2 0x32C2 JUMP JUMPDEST DUP1 ISZERO PUSH2 0x1DA5 JUMPI POP PUSH1 0xA SLOAD PUSH1 0x40 MLOAD PUSH4 0x72331C73 PUSH1 0xE1 SHL DUP2 MSTORE PUSH1 0x1 PUSH1 0x1 PUSH1 0xA0 SHL SUB SWAP1 SWAP2 AND SWAP1 PUSH4 0xE46638E6 SWAP1 PUSH2 0x1D66 SWAP1 CALLER SWAP1 DUP8 SWAP1 DUP8 SWAP1 PUSH1 0x4 ADD PUSH2 0x32DD JUMP JUMPDEST PUSH1 0x20 PUSH1 0x40 MLOAD DUP1 DUP4 SUB DUP2 DUP7 GAS STATICCALL ISZERO DUP1 ISZERO PUSH2 0x1D81 JUMPI RETURNDATASIZE PUSH0 DUP1 RETURNDATACOPY RETURNDATASIZE PUSH0 REVERT JUMPDEST POP POP POP POP PUSH1 0x40 MLOAD RETURNDATASIZE PUSH1 0x1F NOT PUSH1 0x1F DUP3 ADD AND DUP3 ADD DUP1 PUSH1 0x40 MSTORE POP DUP2 ADD SWAP1 PUSH2 0x1DA5 SWAP2 SWAP1 PUSH2 0x32C2 JUMP JUMPDEST ISZERO PUSH2 0xC75 JUMPI PUSH2 0x1DB5 CALLER DUP5 DUP5 PUSH2 0x27C4 JUMP JUMPDEST PUSH1 0xA SLOAD PUSH1 0x40 MLOAD PUSH4 0x22EBCA6D PUSH1 0xE2 SHL DUP2 MSTORE PUSH1 0x1 PUSH1 0x1 PUSH1 0xA0 SHL SUB SWAP1 SWAP2 AND SWAP1 PUSH4 0x8BAF29B4 SWAP1 PUSH2 0x1DE9 SWAP1 CALLER SWAP1 DUP8 SWAP1 DUP8 SWAP1 PUSH1 0x4 ADD PUSH2 0x32DD JUMP JUMPDEST PUSH0 PUSH1 0x40 MLOAD DUP1 DUP4 SUB DUP2 PUSH0 DUP8 DUP1 EXTCODESIZE ISZERO DUP1 ISZERO PUSH2 0x1E00 JUMPI PUSH0 DUP1 REVERT JUMPDEST POP GAS CALL ISZERO DUP1 ISZERO PUSH2 0x1E12 JUMPI RETURNDATASIZE PUSH0 DUP1 RETURNDATACOPY RETURNDATASIZE PUSH0 REVERT JUMPDEST POP POP POP POP PUSH1 0x1 SWAP1 POP PUSH2 0x6EA JUMP JUMPDEST PUSH2 0x1E27 PUSH2 0x292F JUMP JUMPDEST PUSH1 0x40 MLOAD PUSH1 0x20 ADD PUSH2 0x1E41 SWAP1 PUSH1 0x20 DUP1 DUP3 MSTORE PUSH0 SWAP1 DUP3 ADD MSTORE PUSH1 0x40 ADD SWAP1 JUMP JUMPDEST PUSH1 0x40 MLOAD PUSH1 0x20 DUP2 DUP4 SUB SUB DUP2 MSTORE SWAP1 PUSH1 0x40 MSTORE DUP1 MLOAD SWAP1 PUSH1 0x20 ADD KECCAK256 DUP3 DUP3 PUSH1 0x40 MLOAD PUSH1 0x20 ADD PUSH2 0x1E6A SWAP3 SWAP2 SWAP1 PUSH2 0x33EE JUMP JUMPDEST PUSH1 0x40 MLOAD PUSH1 0x20 DUP2 DUP4 SUB SUB DUP2 MSTORE SWAP1 PUSH1 0x40 MSTORE DUP1 MLOAD SWAP1 PUSH1 0x20 ADD KECCAK256 SUB PUSH2 0x1E9D JUMPI PUSH1 0x40 MLOAD PUSH3 0x461BCD PUSH1 0xE5 SHL DUP2 MSTORE PUSH1 0x4 ADD PUSH2 0x715 SWAP1 PUSH2 0x341C JUMP JUMPDEST PUSH1 0x5 PUSH2 0x1EAA DUP3 DUP5 DUP4 PUSH2 0x3498 JUMP JUMPDEST POP PUSH1 0x6 SLOAD PUSH1 0x40 MLOAD PUSH2 0x100 SWAP1 SWAP2 DIV PUSH1 0x1 PUSH1 0x1 PUSH1 0xA0 SHL SUB AND SWAP1 PUSH2 0x1ECD SWAP1 PUSH1 0x5 SWAP1 PUSH2 0x3301 JUMP JUMPDEST PUSH1 0x40 MLOAD DUP1 SWAP2 SUB SWAP1 KECCAK256 PUSH1 0x4 PUSH1 0x40 MLOAD PUSH2 0x1EE4 SWAP2 SWAP1 PUSH2 0x3301 JUMP JUMPDEST PUSH1 0x40 DUP1 MLOAD SWAP2 DUP3 SWAP1 SUB DUP3 KECCAK256 PUSH1 0x6 SLOAD DUP4 DUP4 ADD DUP4 MSTORE PUSH1 0x5 DUP5 MSTORE PUSH5 0x342E312E31 PUSH1 0xD8 SHL PUSH1 0x20 DUP6 ADD MSTORE SWAP2 MLOAD SWAP1 SWAP3 PUSH32 0x6A1105AC8148A3C319ADBC369F9072573E8A11D3A3D195E067E7C40767EC54D1 SWAP3 PUSH2 0x1F3E SWAP3 PUSH1 0xFF SWAP1 SWAP2 AND SWAP2 SWAP1 PUSH2 0x3373 JUMP JUMPDEST PUSH1 0x40 MLOAD DUP1 SWAP2 SUB SWAP1 LOG4 POP POP JUMP JUMPDEST PUSH2 0x1F52 PUSH2 0x292F JUMP JUMPDEST PUSH1 0x40 MLOAD PUSH1 0x20 ADD PUSH2 0x1F6C SWAP1 PUSH1 0x20 DUP1 DUP3 MSTORE PUSH0 SWAP1 DUP3 ADD MSTORE PUSH1 0x40 ADD SWAP1 JUMP JUMPDEST PUSH1 0x40 MLOAD PUSH1 0x20 DUP2 DUP4 SUB SUB DUP2 MSTORE SWAP1 PUSH1 0x40 MSTORE DUP1 MLOAD SWAP1 PUSH1 0x20 ADD KECCAK256 DUP3 DUP3 PUSH1 0x40 MLOAD PUSH1 0x20 ADD PUSH2 0x1F95 SWAP3 SWAP2 SWAP1 PUSH2 0x33EE JUMP JUMPDEST PUSH1 0x40 MLOAD PUSH1 0x20 DUP2 DUP4 SUB SUB DUP2 MSTORE SWAP1 PUSH1 0x40 MSTORE DUP1 MLOAD SWAP1 PUSH1 0x20 ADD KECCAK256 SUB PUSH2 0x1FC8 JUMPI PUSH1 0x40 MLOAD PUSH3 0x461BCD PUSH1 0xE5 SHL DUP2 MSTORE PUSH1 0x4 ADD PUSH2 0x715 SWAP1 PUSH2 0x341C JUMP JUMPDEST PUSH1 0x4 PUSH2 0x1EAA DUP3 DUP5 DUP4 PUSH2 0x3498 JUMP JUMPDEST PUSH2 0x1FDE CALLER PUSH2 0x9B5 JUMP JUMPDEST PUSH2 0x1FFA JUMPI PUSH1 0x40 MLOAD PUSH3 0x461BCD PUSH1 0xE5 SHL DUP2 MSTORE PUSH1 0x4 ADD PUSH2 0x715 SWAP1 PUSH2 0x31C9 JUMP JUMPDEST PUSH1 0x1 PUSH1 0x1 PUSH1 0xA0 SHL SUB DUP3 AND PUSH0 DUP2 DUP2 MSTORE PUSH1 0x7 PUSH1 0x20 MSTORE PUSH1 0x40 DUP1 DUP3 KECCAK256 DUP1 SLOAD PUSH1 0xFF NOT AND DUP6 ISZERO ISZERO SWAP1 DUP2 OR SWAP1 SWAP2 SSTORE SWAP1 MLOAD CALLER SWAP4 SWAP2 SWAP3 PUSH32 0x7FA523C84AB8D7FC5B72F08B9E46DBBF10C39E119A075B3E317002D14BC9F436 SWAP2 LOG4 POP POP JUMP JUMPDEST PUSH2 0x2056 PUSH2 0x292F JUMP JUMPDEST PUSH1 0x9 DUP1 SLOAD PUSH2 0x100 PUSH1 0x1 PUSH1 0xA8 SHL SUB NOT AND PUSH2 0x100 PUSH1 0x1 PUSH1 0x1 PUSH1 0xA0 SHL SUB DUP5 AND SWAP1 DUP2 MUL SWAP2 SWAP1 SWAP2 OR SWAP1 SWAP2 SSTORE PUSH1 0x40 MLOAD PUSH32 0xD2BE862D755BCA7E0D39772B2CAB3A5578DA9C285F69199F4C063C2294A7F36C SWAP1 PUSH0 SWAP1 LOG2 POP JUMP JUMPDEST PUSH2 0x20AF PUSH2 0x292F JUMP JUMPDEST PUSH1 0x1 PUSH1 0x1 PUSH1 0xA0 SHL SUB DUP2 AND PUSH2 0x20D8 JUMPI PUSH1 0x40 MLOAD PUSH4 0x1E4FBDF7 PUSH1 0xE0 SHL DUP2 MSTORE PUSH0 PUSH1 0x4 DUP3 ADD MSTORE PUSH1 0x24 ADD PUSH2 0x715 JUMP JUMPDEST PUSH2 0x20E1 DUP2 PUSH2 0x2A47 JUMP JUMPDEST POP JUMP JUMPDEST PUSH2 0x20EC PUSH2 0x292F JUMP JUMPDEST PUSH1 0xA SLOAD PUSH1 0x1 PUSH1 0x1 PUSH1 0xA0 SHL SUB AND ISZERO PUSH2 0x2156 JUMPI PUSH1 0xA SLOAD PUSH1 0x40 MLOAD PUSH4 0x40DB3B5 PUSH1 0xE4 SHL DUP2 MSTORE ADDRESS PUSH1 0x4 DUP3 ADD MSTORE PUSH1 0x1 PUSH1 0x1 PUSH1 0xA0 SHL SUB SWAP1 SWAP2 AND SWAP1 PUSH4 0x40DB3B50 SWAP1 PUSH1 0x24 ADD PUSH0 PUSH1 0x40 MLOAD DUP1 DUP4 SUB DUP2 PUSH0 DUP8 DUP1 EXTCODESIZE ISZERO DUP1 ISZERO PUSH2 0x213F JUMPI PUSH0 DUP1 REVERT JUMPDEST POP GAS CALL ISZERO DUP1 ISZERO PUSH2 0x2151 JUMPI RETURNDATASIZE PUSH0 DUP1 RETURNDATACOPY RETURNDATASIZE PUSH0 REVERT JUMPDEST POP POP POP POP JUMPDEST PUSH1 0xA DUP1 SLOAD PUSH1 0x1 PUSH1 0x1 PUSH1 0xA0 SHL SUB NOT AND PUSH1 0x1 PUSH1 0x1 PUSH1 0xA0 SHL SUB DUP4 AND SWAP1 DUP2 OR SWAP1 SWAP2 SSTORE PUSH1 0x40 MLOAD PUSH4 0x1FFAD501 PUSH1 0xE1 SHL DUP2 MSTORE ADDRESS PUSH1 0x4 DUP3 ADD MSTORE PUSH4 0x3FF5AA02 SWAP1 PUSH1 0x24 ADD PUSH0 PUSH1 0x40 MLOAD DUP1 DUP4 SUB DUP2 PUSH0 DUP8 DUP1 EXTCODESIZE ISZERO DUP1 ISZERO PUSH2 0x21A7 JUMPI PUSH0 DUP1 REVERT JUMPDEST POP GAS CALL ISZERO DUP1 ISZERO PUSH2 0x21B9 JUMPI RETURNDATASIZE PUSH0 DUP1 RETURNDATACOPY RETURNDATASIZE PUSH0 REVERT JUMPDEST POP POP PUSH1 0x40 MLOAD PUSH1 0x1 PUSH1 0x1 PUSH1 0xA0 SHL SUB DUP5 AND SWAP3 POP PUSH32 0x7F3A888862559648EC01D97DEB7B5012BFF86DC91E654A1DE397170DB40E35B6 SWAP2 POP PUSH0 SWAP1 LOG2 POP JUMP JUMPDEST PUSH32 0xF0C57E16840DF040F15088DC2F81FE391C3923BEC73E23A9662EFC9C229C6A00 DUP1 SLOAD PUSH1 0x1 PUSH1 0x40 SHL DUP2 DIV PUSH1 0xFF AND ISZERO SWAP1 PUSH8 0xFFFFFFFFFFFFFFFF AND PUSH0 DUP2 ISZERO DUP1 ISZERO PUSH2 0x2238 JUMPI POP DUP3 JUMPDEST SWAP1 POP PUSH0 DUP3 PUSH8 0xFFFFFFFFFFFFFFFF AND PUSH1 0x1 EQ DUP1 ISZERO PUSH2 0x2254 JUMPI POP ADDRESS EXTCODESIZE ISZERO JUMPDEST SWAP1 POP DUP2 ISZERO DUP1 ISZERO PUSH2 0x2262 JUMPI POP DUP1 ISZERO JUMPDEST ISZERO PUSH2 0x2280 JUMPI PUSH1 0x40 MLOAD PUSH4 0xF92EE8A9 PUSH1 0xE0 SHL DUP2 MSTORE PUSH1 0x4 ADD PUSH1 0x40 MLOAD DUP1 SWAP2 SUB SWAP1 REVERT JUMPDEST DUP5 SLOAD PUSH8 0xFFFFFFFFFFFFFFFF NOT AND PUSH1 0x1 OR DUP6 SSTORE DUP4 ISZERO PUSH2 0x22AA JUMPI DUP5 SLOAD PUSH1 0xFF PUSH1 0x40 SHL NOT AND PUSH1 0x1 PUSH1 0x40 SHL OR DUP6 SSTORE JUMPDEST PUSH0 PUSH2 0x22B3 PUSH2 0x13B5 JUMP JUMPDEST PUSH1 0x1 PUSH1 0x1 PUSH1 0xA0 SHL SUB AND EQ PUSH2 0x22FF JUMPI PUSH1 0x40 MLOAD PUSH3 0x461BCD PUSH1 0xE5 SHL DUP2 MSTORE PUSH1 0x20 PUSH1 0x4 DUP3 ADD MSTORE PUSH1 0x13 PUSH1 0x24 DUP3 ADD MSTORE PUSH19 0x185B1C9958591E481A5B9A5D1A585B1A5E9959 PUSH1 0x6A SHL PUSH1 0x44 DUP3 ADD MSTORE PUSH1 0x64 ADD PUSH2 0x715 JUMP JUMPDEST PUSH1 0x1 PUSH1 0x1 PUSH1 0xA0 SHL SUB DUP12 AND ISZERO DUP1 ISZERO SWAP1 PUSH2 0x231F JUMPI POP PUSH1 0x1 PUSH1 0x1 PUSH1 0xA0 SHL SUB DUP11 AND ISZERO ISZERO JUMPDEST PUSH2 0x233B JUMPI PUSH1 0x40 MLOAD PUSH3 0x461BCD PUSH1 0xE5 SHL DUP2 MSTORE PUSH1 0x4 ADD PUSH2 0x715 SWAP1 PUSH2 0x3396 JUMP JUMPDEST PUSH1 0x40 MLOAD PUSH1 0x20 ADD PUSH2 0x2355 SWAP1 PUSH1 0x20 DUP1 DUP3 MSTORE PUSH0 SWAP1 DUP3 ADD MSTORE PUSH1 0x40 ADD SWAP1 JUMP JUMPDEST PUSH1 0x40 MLOAD PUSH1 0x20 DUP2 DUP4 SUB SUB DUP2 MSTORE SWAP1 PUSH1 0x40 MSTORE DUP1 MLOAD SWAP1 PUSH1 0x20 ADD KECCAK256 DUP10 PUSH1 0x40 MLOAD PUSH1 0x20 ADD PUSH2 0x237C SWAP2 SWAP1 PUSH2 0x2D46 JUMP JUMPDEST PUSH1 0x40 MLOAD PUSH1 0x20 DUP2 DUP4 SUB SUB DUP2 MSTORE SWAP1 PUSH1 0x40 MSTORE DUP1 MLOAD SWAP1 PUSH1 0x20 ADD KECCAK256 EQ ISZERO DUP1 ISZERO PUSH2 0x23F5 JUMPI POP PUSH1 0x40 MLOAD PUSH1 0x20 ADD PUSH2 0x23B5 SWAP1 PUSH1 0x20 DUP1 DUP3 MSTORE PUSH0 SWAP1 DUP3 ADD MSTORE PUSH1 0x40 ADD SWAP1 JUMP JUMPDEST PUSH1 0x40 MLOAD PUSH1 0x20 DUP2 DUP4 SUB SUB DUP2 MSTORE SWAP1 PUSH1 0x40 MSTORE DUP1 MLOAD SWAP1 PUSH1 0x20 ADD KECCAK256 DUP9 PUSH1 0x40 MLOAD PUSH1 0x20 ADD PUSH2 0x23DC SWAP2 SWAP1 PUSH2 0x2D46 JUMP JUMPDEST PUSH1 0x40 MLOAD PUSH1 0x20 DUP2 DUP4 SUB SUB DUP2 MSTORE SWAP1 PUSH1 0x40 MSTORE DUP1 MLOAD SWAP1 PUSH1 0x20 ADD KECCAK256 EQ ISZERO JUMPDEST PUSH2 0x2411 JUMPI PUSH1 0x40 MLOAD PUSH3 0x461BCD PUSH1 0xE5 SHL DUP2 MSTORE PUSH1 0x4 ADD PUSH2 0x715 SWAP1 PUSH2 0x341C JUMP JUMPDEST PUSH1 0x12 DUP8 PUSH1 0xFF AND GT ISZERO PUSH2 0x2465 JUMPI PUSH1 0x40 MLOAD PUSH3 0x461BCD PUSH1 0xE5 SHL DUP2 MSTORE PUSH1 0x20 PUSH1 0x4 DUP3 ADD MSTORE PUSH1 0x19 PUSH1 0x24 DUP3 ADD MSTORE PUSH32 0x646563696D616C73206265747765656E203020616E6420313800000000000000 PUSH1 0x44 DUP3 ADD MSTORE PUSH1 0x64 ADD PUSH2 0x715 JUMP JUMPDEST PUSH2 0x246E CALLER PUSH2 0x2C9C JUMP JUMPDEST PUSH1 0x4 PUSH2 0x247A DUP11 DUP3 PUSH2 0x3553 JUMP JUMPDEST POP PUSH1 0x5 PUSH2 0x2487 DUP10 DUP3 PUSH2 0x3553 JUMP JUMPDEST POP PUSH1 0x6 DUP1 SLOAD PUSH1 0x1 PUSH1 0x1 PUSH1 0xA0 SHL SUB DUP9 AND PUSH2 0x100 MUL PUSH1 0x1 PUSH1 0x1 PUSH1 0xA8 SHL SUB NOT SWAP1 SWAP2 AND PUSH1 0xFF DUP11 AND OR OR SWAP1 SSTORE PUSH1 0x9 DUP1 SLOAD PUSH1 0xFF NOT AND PUSH1 0x1 OR SWAP1 SSTORE PUSH2 0x24C4 DUP12 PUSH2 0x204E JUMP JUMPDEST PUSH2 0x24CD DUP11 PUSH2 0x20E4 JUMP JUMPDEST PUSH1 0x6 SLOAD PUSH1 0x40 MLOAD PUSH2 0x100 SWAP1 SWAP2 DIV PUSH1 0x1 PUSH1 0x1 PUSH1 0xA0 SHL SUB AND SWAP1 PUSH2 0x24EF SWAP1 PUSH1 0x5 SWAP1 PUSH2 0x3301 JUMP JUMPDEST PUSH1 0x40 MLOAD DUP1 SWAP2 SUB SWAP1 KECCAK256 PUSH1 0x4 PUSH1 0x40 MLOAD PUSH2 0x2506 SWAP2 SWAP1 PUSH2 0x3301 JUMP JUMPDEST PUSH1 0x40 DUP1 MLOAD SWAP2 DUP3 SWAP1 SUB DUP3 KECCAK256 PUSH1 0x6 SLOAD DUP4 DUP4 ADD DUP4 MSTORE PUSH1 0x5 DUP5 MSTORE PUSH5 0x342E312E31 PUSH1 0xD8 SHL PUSH1 0x20 DUP6 ADD MSTORE SWAP2 MLOAD SWAP1 SWAP3 PUSH32 0x6A1105AC8148A3C319ADBC369F9072573E8A11D3A3D195E067E7C40767EC54D1 SWAP3 PUSH2 0x2560 SWAP3 PUSH1 0xFF SWAP1 SWAP2 AND SWAP2 SWAP1 PUSH2 0x3373 JUMP JUMPDEST PUSH1 0x40 MLOAD DUP1 SWAP2 SUB SWAP1 LOG4 DUP4 ISZERO PUSH2 0x25AE JUMPI DUP5 SLOAD PUSH1 0xFF PUSH1 0x40 SHL NOT AND DUP6 SSTORE PUSH1 0x40 MLOAD PUSH1 0x1 DUP2 MSTORE PUSH32 0xC7F505B2F371AE2175EE4913F4499E1F2633A7B5936321EED1CDAEB6115181D2 SWAP1 PUSH1 0x20 ADD PUSH1 0x40 MLOAD DUP1 SWAP2 SUB SWAP1 LOG1 JUMPDEST POP POP POP POP POP POP POP POP POP POP POP JUMP JUMPDEST PUSH0 JUMPDEST DUP4 DUP2 LT ISZERO PUSH2 0x888 JUMPI PUSH2 0x260D DUP6 DUP6 DUP4 DUP2 DUP2 LT PUSH2 0x25DA JUMPI PUSH2 0x25DA PUSH2 0x323E JUMP JUMPDEST SWAP1 POP PUSH1 0x20 MUL ADD PUSH1 0x20 DUP2 ADD SWAP1 PUSH2 0x25EF SWAP2 SWAP1 PUSH2 0x2D9B JUMP JUMPDEST DUP5 DUP5 DUP5 DUP2 DUP2 LT PUSH2 0x2601 JUMPI PUSH2 0x2601 PUSH2 0x323E JUMP JUMPDEST SWAP1 POP PUSH1 0x20 MUL ADD CALLDATALOAD PUSH2 0x6F0 JUMP JUMPDEST DUP1 PUSH2 0x2617 DUP2 PUSH2 0x326D JUMP JUMPDEST SWAP2 POP POP PUSH2 0x25BD JUMP JUMPDEST PUSH1 0x1 PUSH1 0x1 PUSH1 0xA0 SHL SUB DUP4 AND PUSH2 0x2681 JUMPI PUSH1 0x40 MLOAD PUSH3 0x461BCD PUSH1 0xE5 SHL DUP2 MSTORE PUSH1 0x20 PUSH1 0x4 DUP3 ADD MSTORE PUSH1 0x24 DUP1 DUP3 ADD MSTORE PUSH32 0x45524332303A20617070726F76652066726F6D20746865207A65726F20616464 PUSH1 0x44 DUP3 ADD MSTORE PUSH4 0x72657373 PUSH1 0xE0 SHL PUSH1 0x64 DUP3 ADD MSTORE PUSH1 0x84 ADD PUSH2 0x715 JUMP JUMPDEST PUSH1 0x1 PUSH1 0x1 PUSH1 0xA0 SHL SUB DUP3 AND PUSH2 0x26E2 JUMPI PUSH1 0x40 MLOAD PUSH3 0x461BCD PUSH1 0xE5 SHL DUP2 MSTORE PUSH1 0x20 PUSH1 0x4 DUP3 ADD MSTORE PUSH1 0x22 PUSH1 0x24 DUP3 ADD MSTORE PUSH32 0x45524332303A20617070726F766520746F20746865207A65726F206164647265 PUSH1 0x44 DUP3 ADD MSTORE PUSH2 0x7373 PUSH1 0xF0 SHL PUSH1 0x64 DUP3 ADD MSTORE PUSH1 0x84 ADD PUSH2 0x715 JUMP JUMPDEST PUSH1 0x1 PUSH1 0x1 PUSH1 0xA0 SHL SUB DUP4 DUP2 AND PUSH0 DUP2 DUP2 MSTORE PUSH1 0x2 PUSH1 0x20 SWAP1 DUP2 MSTORE PUSH1 0x40 DUP1 DUP4 KECCAK256 SWAP5 DUP8 AND DUP1 DUP5 MSTORE SWAP5 DUP3 MSTORE SWAP2 DUP3 SWAP1 KECCAK256 DUP6 SWAP1 SSTORE SWAP1 MLOAD DUP5 DUP2 MSTORE PUSH32 0x8C5BE1E5EBEC7D5BD14F71427D1E84F3DD0314C0F7B2291E5B200AC8C7C3B925 SWAP2 ADD JUMPDEST PUSH1 0x40 MLOAD DUP1 SWAP2 SUB SWAP1 LOG3 POP POP POP JUMP JUMPDEST PUSH0 PUSH1 0x1 PUSH1 0x1 PUSH1 0xA0 SHL SUB DUP3 AND PUSH2 0x27A5 JUMPI PUSH1 0x40 MLOAD PUSH3 0x461BCD PUSH1 0xE5 SHL DUP2 MSTORE PUSH1 0x20 PUSH1 0x4 DUP3 ADD MSTORE PUSH1 0x22 PUSH1 0x24 DUP3 ADD MSTORE PUSH32 0x526F6C65733A206163636F756E7420697320746865207A65726F206164647265 PUSH1 0x44 DUP3 ADD MSTORE PUSH2 0x7373 PUSH1 0xF0 SHL PUSH1 0x64 DUP3 ADD MSTORE PUSH1 0x84 ADD PUSH2 0x715 JUMP JUMPDEST POP PUSH1 0x1 PUSH1 0x1 PUSH1 0xA0 SHL SUB AND PUSH0 SWAP1 DUP2 MSTORE PUSH1 0x20 SWAP2 SWAP1 SWAP2 MSTORE PUSH1 0x40 SWAP1 KECCAK256 SLOAD PUSH1 0xFF AND SWAP1 JUMP JUMPDEST PUSH1 0x1 PUSH1 0x1 PUSH1 0xA0 SHL SUB DUP4 AND PUSH2 0x2828 JUMPI PUSH1 0x40 MLOAD PUSH3 0x461BCD PUSH1 0xE5 SHL DUP2 MSTORE PUSH1 0x20 PUSH1 0x4 DUP3 ADD MSTORE PUSH1 0x25 PUSH1 0x24 DUP3 ADD MSTORE PUSH32 0x45524332303A207472616E736665722066726F6D20746865207A65726F206164 PUSH1 0x44 DUP3 ADD MSTORE PUSH5 0x6472657373 PUSH1 0xD8 SHL PUSH1 0x64 DUP3 ADD MSTORE PUSH1 0x84 ADD PUSH2 0x715 JUMP JUMPDEST PUSH1 0x1 PUSH1 0x1 PUSH1 0xA0 SHL SUB DUP3 AND PUSH2 0x288A JUMPI PUSH1 0x40 MLOAD PUSH3 0x461BCD PUSH1 0xE5 SHL DUP2 MSTORE PUSH1 0x20 PUSH1 0x4 DUP3 ADD MSTORE PUSH1 0x23 PUSH1 0x24 DUP3 ADD MSTORE PUSH32 0x45524332303A207472616E7366657220746F20746865207A65726F2061646472 PUSH1 0x44 DUP3 ADD MSTORE PUSH3 0x657373 PUSH1 0xE8 SHL PUSH1 0x64 DUP3 ADD MSTORE PUSH1 0x84 ADD PUSH2 0x715 JUMP JUMPDEST PUSH1 0x1 PUSH1 0x1 PUSH1 0xA0 SHL SUB DUP4 AND PUSH0 SWAP1 DUP2 MSTORE PUSH1 0x1 PUSH1 0x20 MSTORE PUSH1 0x40 SWAP1 KECCAK256 SLOAD PUSH2 0x28AD SWAP1 DUP3 SWAP1 PUSH2 0x3285 JUMP JUMPDEST PUSH1 0x1 PUSH1 0x1 PUSH1 0xA0 SHL SUB DUP1 DUP6 AND PUSH0 SWAP1 DUP2 MSTORE PUSH1 0x1 PUSH1 0x20 MSTORE PUSH1 0x40 DUP1 DUP3 KECCAK256 SWAP4 SWAP1 SWAP4 SSTORE SWAP1 DUP5 AND DUP2 MSTORE KECCAK256 SLOAD PUSH2 0x28DC SWAP1 DUP3 SWAP1 PUSH2 0x322B JUMP JUMPDEST PUSH1 0x1 PUSH1 0x1 PUSH1 0xA0 SHL SUB DUP1 DUP5 AND PUSH0 DUP2 DUP2 MSTORE PUSH1 0x1 PUSH1 0x20 MSTORE PUSH1 0x40 SWAP1 DUP2 SWAP1 KECCAK256 SWAP4 SWAP1 SWAP4 SSTORE SWAP2 MLOAD SWAP1 DUP6 AND SWAP1 PUSH32 0xDDF252AD1BE2C89B69C2B068FC378DAA952BA7F163C4A11628F55A4DF523B3EF SWAP1 PUSH2 0x2736 SWAP1 DUP6 DUP2 MSTORE PUSH1 0x20 ADD SWAP1 JUMP JUMPDEST CALLER PUSH2 0x2938 PUSH2 0x13B5 JUMP JUMPDEST PUSH1 0x1 PUSH1 0x1 PUSH1 0xA0 SHL SUB AND EQ PUSH2 0x125B JUMPI PUSH1 0x40 MLOAD PUSH4 0x118CDAA7 PUSH1 0xE0 SHL DUP2 MSTORE CALLER PUSH1 0x4 DUP3 ADD MSTORE PUSH1 0x24 ADD PUSH2 0x715 JUMP JUMPDEST PUSH1 0x1 PUSH1 0x1 PUSH1 0xA0 SHL SUB DUP3 AND PUSH2 0x29B7 JUMPI PUSH1 0x40 MLOAD PUSH3 0x461BCD PUSH1 0xE5 SHL DUP2 MSTORE PUSH1 0x20 PUSH1 0x4 DUP3 ADD MSTORE PUSH1 0x1F PUSH1 0x24 DUP3 ADD MSTORE PUSH32 0x45524332303A206D696E7420746F20746865207A65726F206164647265737300 PUSH1 0x44 DUP3 ADD MSTORE PUSH1 0x64 ADD PUSH2 0x715 JUMP JUMPDEST DUP1 PUSH1 0x3 SLOAD PUSH2 0x29C5 SWAP2 SWAP1 PUSH2 0x322B JUMP JUMPDEST PUSH1 0x3 SSTORE PUSH1 0x1 PUSH1 0x1 PUSH1 0xA0 SHL SUB DUP3 AND PUSH0 SWAP1 DUP2 MSTORE PUSH1 0x1 PUSH1 0x20 MSTORE PUSH1 0x40 SWAP1 KECCAK256 SLOAD PUSH2 0x29EB SWAP1 DUP3 SWAP1 PUSH2 0x322B JUMP JUMPDEST PUSH1 0x1 PUSH1 0x1 PUSH1 0xA0 SHL SUB DUP4 AND PUSH0 DUP2 DUP2 MSTORE PUSH1 0x1 PUSH1 0x20 MSTORE PUSH1 0x40 DUP1 DUP3 KECCAK256 SWAP4 SWAP1 SWAP4 SSTORE SWAP2 MLOAD SWAP1 SWAP2 SWAP1 PUSH32 0xDDF252AD1BE2C89B69C2B068FC378DAA952BA7F163C4A11628F55A4DF523B3EF SWAP1 PUSH2 0x2A3B SWAP1 DUP6 DUP2 MSTORE PUSH1 0x20 ADD SWAP1 JUMP JUMPDEST PUSH1 0x40 MLOAD DUP1 SWAP2 SUB SWAP1 LOG3 POP POP JUMP JUMPDEST PUSH32 0x9016D09D72D40FDAE2FD8CEAC6B6234C7706214FD39C1CD1E609A0528C199300 DUP1 SLOAD PUSH1 0x1 PUSH1 0x1 PUSH1 0xA0 SHL SUB NOT DUP2 AND PUSH1 0x1 PUSH1 0x1 PUSH1 0xA0 SHL SUB DUP5 DUP2 AND SWAP2 DUP3 OR DUP5 SSTORE PUSH1 0x40 MLOAD SWAP3 AND SWAP2 DUP3 SWAP1 PUSH32 0x8BE0079C531659141344CD1FD0A4F28419497F9722A3DAAFE3B4186F6B6457E0 SWAP1 PUSH0 SWAP1 LOG3 POP POP POP JUMP JUMPDEST PUSH2 0x2AC1 DUP3 DUP3 PUSH2 0x2743 JUMP JUMPDEST ISZERO PUSH2 0x2B0E JUMPI PUSH1 0x40 MLOAD PUSH3 0x461BCD PUSH1 0xE5 SHL DUP2 MSTORE PUSH1 0x20 PUSH1 0x4 DUP3 ADD MSTORE PUSH1 0x1F PUSH1 0x24 DUP3 ADD MSTORE PUSH32 0x526F6C65733A206163636F756E7420616C72656164792068617320726F6C6500 PUSH1 0x44 DUP3 ADD MSTORE PUSH1 0x64 ADD PUSH2 0x715 JUMP JUMPDEST PUSH1 0x1 PUSH1 0x1 PUSH1 0xA0 SHL SUB AND PUSH0 SWAP1 DUP2 MSTORE PUSH1 0x20 SWAP2 SWAP1 SWAP2 MSTORE PUSH1 0x40 SWAP1 KECCAK256 DUP1 SLOAD PUSH1 0xFF NOT AND PUSH1 0x1 OR SWAP1 SSTORE JUMP JUMPDEST PUSH2 0x2B3C DUP3 DUP3 PUSH2 0x2743 JUMP JUMPDEST PUSH2 0x2B92 JUMPI PUSH1 0x40 MLOAD PUSH3 0x461BCD PUSH1 0xE5 SHL DUP2 MSTORE PUSH1 0x20 PUSH1 0x4 DUP3 ADD MSTORE PUSH1 0x21 PUSH1 0x24 DUP3 ADD MSTORE PUSH32 0x526F6C65733A206163636F756E7420646F6573206E6F74206861766520726F6C PUSH1 0x44 DUP3 ADD MSTORE PUSH1 0x65 PUSH1 0xF8 SHL PUSH1 0x64 DUP3 ADD MSTORE PUSH1 0x84 ADD PUSH2 0x715 JUMP JUMPDEST PUSH1 0x1 PUSH1 0x1 PUSH1 0xA0 SHL SUB AND PUSH0 SWAP1 DUP2 MSTORE PUSH1 0x20 SWAP2 SWAP1 SWAP2 MSTORE PUSH1 0x40 SWAP1 KECCAK256 DUP1 SLOAD PUSH1 0xFF NOT AND SWAP1 SSTORE JUMP JUMPDEST PUSH1 0x1 PUSH1 0x1 PUSH1 0xA0 SHL SUB DUP3 AND PUSH2 0x2C13 JUMPI PUSH1 0x40 MLOAD PUSH3 0x461BCD PUSH1 0xE5 SHL DUP2 MSTORE PUSH1 0x20 PUSH1 0x4 DUP3 ADD MSTORE PUSH1 0x21 PUSH1 0x24 DUP3 ADD MSTORE PUSH32 0x45524332303A206275726E2066726F6D20746865207A65726F20616464726573 PUSH1 0x44 DUP3 ADD MSTORE PUSH1 0x73 PUSH1 0xF8 SHL PUSH1 0x64 DUP3 ADD MSTORE PUSH1 0x84 ADD PUSH2 0x715 JUMP JUMPDEST PUSH1 0x1 PUSH1 0x1 PUSH1 0xA0 SHL SUB DUP3 AND PUSH0 SWAP1 DUP2 MSTORE PUSH1 0x1 PUSH1 0x20 MSTORE PUSH1 0x40 SWAP1 KECCAK256 SLOAD PUSH2 0x2C36 SWAP1 DUP3 SWAP1 PUSH2 0x3285 JUMP JUMPDEST PUSH1 0x1 PUSH1 0x1 PUSH1 0xA0 SHL SUB DUP4 AND PUSH0 SWAP1 DUP2 MSTORE PUSH1 0x1 PUSH1 0x20 MSTORE PUSH1 0x40 SWAP1 KECCAK256 SSTORE PUSH1 0x3 SLOAD PUSH2 0x2C5C SWAP1 DUP3 SWAP1 PUSH2 0x3285 JUMP JUMPDEST PUSH1 0x3 SSTORE PUSH1 0x40 MLOAD DUP2 DUP2 MSTORE PUSH0 SWAP1 PUSH1 0x1 PUSH1 0x1 PUSH1 0xA0 SHL SUB DUP5 AND SWAP1 PUSH32 0xDDF252AD1BE2C89B69C2B068FC378DAA952BA7F163C4A11628F55A4DF523B3EF SWAP1 PUSH1 0x20 ADD PUSH2 0x2A3B JUMP JUMPDEST PUSH2 0x2CA4 PUSH2 0x2CB2 JUMP JUMPDEST PUSH2 0x20E1 DUP2 PUSH2 0x2CFB JUMP JUMPDEST POP POP POP JUMP JUMPDEST PUSH32 0xF0C57E16840DF040F15088DC2F81FE391C3923BEC73E23A9662EFC9C229C6A00 SLOAD PUSH1 0x1 PUSH1 0x40 SHL SWAP1 DIV PUSH1 0xFF AND PUSH2 0x125B JUMPI PUSH1 0x40 MLOAD PUSH4 0x1AFCD79F PUSH1 0xE3 SHL DUP2 MSTORE PUSH1 0x4 ADD PUSH1 0x40 MLOAD DUP1 SWAP2 SUB SWAP1 REVERT JUMPDEST PUSH2 0x20AF PUSH2 0x2CB2 JUMP JUMPDEST PUSH0 DUP2 MLOAD DUP1 DUP5 MSTORE PUSH0 JUMPDEST DUP2 DUP2 LT ISZERO PUSH2 0x2D27 JUMPI PUSH1 0x20 DUP2 DUP6 ADD DUP2 ADD MLOAD DUP7 DUP4 ADD DUP3 ADD MSTORE ADD PUSH2 0x2D0B JUMP JUMPDEST POP PUSH0 PUSH1 0x20 DUP3 DUP7 ADD ADD MSTORE PUSH1 0x20 PUSH1 0x1F NOT PUSH1 0x1F DUP4 ADD AND DUP6 ADD ADD SWAP2 POP POP SWAP3 SWAP2 POP POP JUMP JUMPDEST PUSH1 0x20 DUP2 MSTORE PUSH0 PUSH2 0xCB5 PUSH1 0x20 DUP4 ADD DUP5 PUSH2 0x2D03 JUMP JUMPDEST DUP1 CALLDATALOAD PUSH1 0x1 PUSH1 0x1 PUSH1 0xA0 SHL SUB DUP2 AND DUP2 EQ PUSH2 0x2D6E JUMPI PUSH0 DUP1 REVERT JUMPDEST SWAP2 SWAP1 POP JUMP JUMPDEST PUSH0 DUP1 PUSH1 0x40 DUP4 DUP6 SUB SLT ISZERO PUSH2 0x2D84 JUMPI PUSH0 DUP1 REVERT JUMPDEST PUSH2 0x2D8D DUP4 PUSH2 0x2D58 JUMP JUMPDEST SWAP5 PUSH1 0x20 SWAP4 SWAP1 SWAP4 ADD CALLDATALOAD SWAP4 POP POP POP JUMP JUMPDEST PUSH0 PUSH1 0x20 DUP3 DUP5 SUB SLT ISZERO PUSH2 0x2DAB JUMPI PUSH0 DUP1 REVERT JUMPDEST PUSH2 0xCB5 DUP3 PUSH2 0x2D58 JUMP JUMPDEST PUSH0 DUP1 DUP4 PUSH1 0x1F DUP5 ADD SLT PUSH2 0x2DC4 JUMPI PUSH0 DUP1 REVERT JUMPDEST POP DUP2 CALLDATALOAD PUSH8 0xFFFFFFFFFFFFFFFF DUP2 GT ISZERO PUSH2 0x2DDB JUMPI PUSH0 DUP1 REVERT JUMPDEST PUSH1 0x20 DUP4 ADD SWAP2 POP DUP4 PUSH1 0x20 DUP3 PUSH1 0x5 SHL DUP6 ADD ADD GT ISZERO PUSH2 0x2DF5 JUMPI PUSH0 DUP1 REVERT JUMPDEST SWAP3 POP SWAP3 SWAP1 POP JUMP JUMPDEST PUSH0 DUP1 PUSH0 DUP1 PUSH1 0x40 DUP6 DUP8 SUB SLT ISZERO PUSH2 0x2E0F JUMPI PUSH0 DUP1 REVERT JUMPDEST DUP5 CALLDATALOAD PUSH8 0xFFFFFFFFFFFFFFFF DUP1 DUP3 GT ISZERO PUSH2 0x2E26 JUMPI PUSH0 DUP1 REVERT JUMPDEST PUSH2 0x2E32 DUP9 DUP4 DUP10 ADD PUSH2 0x2DB4 JUMP JUMPDEST SWAP1 SWAP7 POP SWAP5 POP PUSH1 0x20 DUP8 ADD CALLDATALOAD SWAP2 POP DUP1 DUP3 GT ISZERO PUSH2 0x2E4A JUMPI PUSH0 DUP1 REVERT JUMPDEST POP PUSH2 0x2E57 DUP8 DUP3 DUP9 ADD PUSH2 0x2DB4 JUMP JUMPDEST SWAP6 SWAP9 SWAP5 SWAP8 POP SWAP6 POP POP POP POP JUMP JUMPDEST PUSH0 DUP1 PUSH0 PUSH1 0x60 DUP5 DUP7 SUB SLT ISZERO PUSH2 0x2E75 JUMPI PUSH0 DUP1 REVERT JUMPDEST PUSH2 0x2E7E DUP5 PUSH2 0x2D58 JUMP JUMPDEST SWAP3 POP PUSH2 0x2E8C PUSH1 0x20 DUP6 ADD PUSH2 0x2D58 JUMP JUMPDEST SWAP2 POP PUSH1 0x40 DUP5 ADD CALLDATALOAD SWAP1 POP SWAP3 POP SWAP3 POP SWAP3 JUMP JUMPDEST PUSH0 DUP1 PUSH0 DUP1 PUSH0 DUP1 PUSH1 0x60 DUP8 DUP10 SUB SLT ISZERO PUSH2 0x2EB1 JUMPI PUSH0 DUP1 REVERT JUMPDEST DUP7 CALLDATALOAD PUSH8 0xFFFFFFFFFFFFFFFF DUP1 DUP3 GT ISZERO PUSH2 0x2EC8 JUMPI PUSH0 DUP1 REVERT JUMPDEST PUSH2 0x2ED4 DUP11 DUP4 DUP12 ADD PUSH2 0x2DB4 JUMP JUMPDEST SWAP1 SWAP9 POP SWAP7 POP PUSH1 0x20 DUP10 ADD CALLDATALOAD SWAP2 POP DUP1 DUP3 GT ISZERO PUSH2 0x2EEC JUMPI PUSH0 DUP1 REVERT JUMPDEST PUSH2 0x2EF8 DUP11 DUP4 DUP12 ADD PUSH2 0x2DB4 JUMP JUMPDEST SWAP1 SWAP7 POP SWAP5 POP PUSH1 0x40 DUP10 ADD CALLDATALOAD SWAP2 POP DUP1 DUP3 GT ISZERO PUSH2 0x2F10 JUMPI PUSH0 DUP1 REVERT JUMPDEST POP PUSH2 0x2F1D DUP10 DUP3 DUP11 ADD PUSH2 0x2DB4 JUMP JUMPDEST SWAP8 SWAP11 SWAP7 SWAP10 POP SWAP5 SWAP8 POP SWAP3 SWAP6 SWAP4 SWAP5 SWAP3 POP POP POP JUMP JUMPDEST PUSH0 DUP1 PUSH0 PUSH1 0x60 DUP5 DUP7 SUB SLT ISZERO PUSH2 0x2F41 JUMPI PUSH0 DUP1 REVERT JUMPDEST PUSH2 0x2F4A DUP5 PUSH2 0x2D58 JUMP JUMPDEST SWAP3 POP PUSH2 0x2F58 PUSH1 0x20 DUP6 ADD PUSH2 0x2D58 JUMP JUMPDEST SWAP2 POP PUSH2 0x2F66 PUSH1 0x40 DUP6 ADD PUSH2 0x2D58 JUMP JUMPDEST SWAP1 POP SWAP3 POP SWAP3 POP SWAP3 JUMP JUMPDEST PUSH0 DUP1 PUSH1 0x20 DUP4 DUP6 SUB SLT ISZERO PUSH2 0x2F80 JUMPI PUSH0 DUP1 REVERT JUMPDEST DUP3 CALLDATALOAD PUSH8 0xFFFFFFFFFFFFFFFF DUP1 DUP3 GT ISZERO PUSH2 0x2F97 JUMPI PUSH0 DUP1 REVERT JUMPDEST DUP2 DUP6 ADD SWAP2 POP DUP6 PUSH1 0x1F DUP4 ADD SLT PUSH2 0x2FAA JUMPI PUSH0 DUP1 REVERT JUMPDEST DUP2 CALLDATALOAD DUP2 DUP2 GT ISZERO PUSH2 0x2FB8 JUMPI PUSH0 DUP1 REVERT JUMPDEST DUP7 PUSH1 0x20 DUP3 DUP6 ADD ADD GT ISZERO PUSH2 0x2FC9 JUMPI PUSH0 DUP1 REVERT JUMPDEST PUSH1 0x20 SWAP3 SWAP1 SWAP3 ADD SWAP7 SWAP2 SWAP6 POP SWAP1 SWAP4 POP POP POP POP JUMP JUMPDEST DUP1 ISZERO ISZERO DUP2 EQ PUSH2 0x20E1 JUMPI PUSH0 DUP1 REVERT JUMPDEST PUSH0 DUP1 PUSH1 0x40 DUP4 DUP6 SUB SLT ISZERO PUSH2 0x2FF9 JUMPI PUSH0 DUP1 REVERT JUMPDEST PUSH2 0x3002 DUP4 PUSH2 0x2D58 JUMP JUMPDEST SWAP2 POP PUSH1 0x20 DUP4 ADD CALLDATALOAD PUSH2 0x3012 DUP2 PUSH2 0x2FDB JUMP JUMPDEST DUP1 SWAP2 POP POP SWAP3 POP SWAP3 SWAP1 POP JUMP JUMPDEST PUSH0 DUP1 PUSH1 0x40 DUP4 DUP6 SUB SLT ISZERO PUSH2 0x302E JUMPI PUSH0 DUP1 REVERT JUMPDEST PUSH2 0x3037 DUP4 PUSH2 0x2D58 JUMP JUMPDEST SWAP2 POP PUSH2 0x3045 PUSH1 0x20 DUP5 ADD PUSH2 0x2D58 JUMP JUMPDEST SWAP1 POP SWAP3 POP SWAP3 SWAP1 POP JUMP JUMPDEST PUSH4 0x4E487B71 PUSH1 0xE0 SHL PUSH0 MSTORE PUSH1 0x41 PUSH1 0x4 MSTORE PUSH1 0x24 PUSH0 REVERT JUMPDEST PUSH0 DUP3 PUSH1 0x1F DUP4 ADD SLT PUSH2 0x3071 JUMPI PUSH0 DUP1 REVERT JUMPDEST DUP2 CALLDATALOAD PUSH8 0xFFFFFFFFFFFFFFFF DUP1 DUP3 GT ISZERO PUSH2 0x308C JUMPI PUSH2 0x308C PUSH2 0x304E JUMP JUMPDEST PUSH1 0x40 MLOAD PUSH1 0x1F DUP4 ADD PUSH1 0x1F NOT SWAP1 DUP2 AND PUSH1 0x3F ADD AND DUP2 ADD SWAP1 DUP3 DUP3 GT DUP2 DUP4 LT OR ISZERO PUSH2 0x30B4 JUMPI PUSH2 0x30B4 PUSH2 0x304E JUMP JUMPDEST DUP2 PUSH1 0x40 MSTORE DUP4 DUP2 MSTORE DUP7 PUSH1 0x20 DUP6 DUP9 ADD ADD GT ISZERO PUSH2 0x30CC JUMPI PUSH0 DUP1 REVERT JUMPDEST DUP4 PUSH1 0x20 DUP8 ADD PUSH1 0x20 DUP4 ADD CALLDATACOPY PUSH0 PUSH1 0x20 DUP6 DUP4 ADD ADD MSTORE DUP1 SWAP5 POP POP POP POP POP SWAP3 SWAP2 POP POP JUMP JUMPDEST PUSH0 DUP1 PUSH0 DUP1 PUSH0 DUP1 PUSH1 0xC0 DUP8 DUP10 SUB SLT ISZERO PUSH2 0x3100 JUMPI PUSH0 DUP1 REVERT JUMPDEST PUSH2 0x3109 DUP8 PUSH2 0x2D58 JUMP JUMPDEST SWAP6 POP PUSH2 0x3117 PUSH1 0x20 DUP9 ADD PUSH2 0x2D58 JUMP JUMPDEST SWAP5 POP PUSH1 0x40 DUP8 ADD CALLDATALOAD PUSH8 0xFFFFFFFFFFFFFFFF DUP1 DUP3 GT ISZERO PUSH2 0x3133 JUMPI PUSH0 DUP1 REVERT JUMPDEST PUSH2 0x313F DUP11 DUP4 DUP12 ADD PUSH2 0x3062 JUMP JUMPDEST SWAP6 POP PUSH1 0x60 DUP10 ADD CALLDATALOAD SWAP2 POP DUP1 DUP3 GT ISZERO PUSH2 0x3154 JUMPI PUSH0 DUP1 REVERT JUMPDEST POP PUSH2 0x3161 DUP10 DUP3 DUP11 ADD PUSH2 0x3062 JUMP JUMPDEST SWAP4 POP POP PUSH1 0x80 DUP8 ADD CALLDATALOAD PUSH1 0xFF DUP2 AND DUP2 EQ PUSH2 0x3177 JUMPI PUSH0 DUP1 REVERT JUMPDEST SWAP2 POP PUSH2 0x3185 PUSH1 0xA0 DUP9 ADD PUSH2 0x2D58 JUMP JUMPDEST SWAP1 POP SWAP3 SWAP6 POP SWAP3 SWAP6 POP SWAP3 SWAP6 JUMP JUMPDEST PUSH1 0x1 DUP2 DUP2 SHR SWAP1 DUP3 AND DUP1 PUSH2 0x31A5 JUMPI PUSH1 0x7F DUP3 AND SWAP2 POP JUMPDEST PUSH1 0x20 DUP3 LT DUP2 SUB PUSH2 0x31C3 JUMPI PUSH4 0x4E487B71 PUSH1 0xE0 SHL PUSH0 MSTORE PUSH1 0x22 PUSH1 0x4 MSTORE PUSH1 0x24 PUSH0 REVERT JUMPDEST POP SWAP2 SWAP1 POP JUMP JUMPDEST PUSH1 0x20 DUP1 DUP3 MSTORE PUSH1 0x2E SWAP1 DUP3 ADD MSTORE PUSH32 0x4167656E74526F6C653A2063616C6C657220646F6573206E6F74206861766520 PUSH1 0x40 DUP3 ADD MSTORE PUSH14 0x746865204167656E7420726F6C65 PUSH1 0x90 SHL PUSH1 0x60 DUP3 ADD MSTORE PUSH1 0x80 ADD SWAP1 JUMP JUMPDEST PUSH4 0x4E487B71 PUSH1 0xE0 SHL PUSH0 MSTORE PUSH1 0x11 PUSH1 0x4 MSTORE PUSH1 0x24 PUSH0 REVERT JUMPDEST DUP1 DUP3 ADD DUP1 DUP3 GT ISZERO PUSH2 0x6EA JUMPI PUSH2 0x6EA PUSH2 0x3217 JUMP JUMPDEST PUSH4 0x4E487B71 PUSH1 0xE0 SHL PUSH0 MSTORE PUSH1 0x32 PUSH1 0x4 MSTORE PUSH1 0x24 PUSH0 REVERT JUMPDEST PUSH0 PUSH1 0x20 DUP3 DUP5 SUB SLT ISZERO PUSH2 0x3262 JUMPI PUSH0 DUP1 REVERT JUMPDEST DUP2 CALLDATALOAD PUSH2 0xCB5 DUP2 PUSH2 0x2FDB JUMP JUMPDEST PUSH0 PUSH1 0x1 DUP3 ADD PUSH2 0x327E JUMPI PUSH2 0x327E PUSH2 0x3217 JUMP JUMPDEST POP PUSH1 0x1 ADD SWAP1 JUMP JUMPDEST DUP2 DUP2 SUB DUP2 DUP2 GT ISZERO PUSH2 0x6EA JUMPI PUSH2 0x6EA PUSH2 0x3217 JUMP JUMPDEST PUSH1 0x20 DUP1 DUP3 MSTORE PUSH1 0x10 SWAP1 DUP3 ADD MSTORE PUSH16 0x14185D5CD8589B194E881C185D5CD959 PUSH1 0x82 SHL PUSH1 0x40 DUP3 ADD MSTORE PUSH1 0x60 ADD SWAP1 JUMP JUMPDEST PUSH0 PUSH1 0x20 DUP3 DUP5 SUB SLT ISZERO PUSH2 0x32D2 JUMPI PUSH0 DUP1 REVERT JUMPDEST DUP2 MLOAD PUSH2 0xCB5 DUP2 PUSH2 0x2FDB JUMP JUMPDEST PUSH1 0x1 PUSH1 0x1 PUSH1 0xA0 SHL SUB SWAP4 DUP5 AND DUP2 MSTORE SWAP2 SWAP1 SWAP3 AND PUSH1 0x20 DUP3 ADD MSTORE PUSH1 0x40 DUP2 ADD SWAP2 SWAP1 SWAP2 MSTORE PUSH1 0x60 ADD SWAP1 JUMP JUMPDEST PUSH0 DUP1 DUP4 SLOAD PUSH2 0x330E DUP2 PUSH2 0x3191 JUMP JUMPDEST PUSH1 0x1 DUP3 DUP2 AND DUP1 ISZERO PUSH2 0x3326 JUMPI PUSH1 0x1 DUP2 EQ PUSH2 0x333B JUMPI PUSH2 0x3367 JUMP JUMPDEST PUSH1 0xFF NOT DUP5 AND DUP8 MSTORE DUP3 ISZERO ISZERO DUP4 MUL DUP8 ADD SWAP5 POP PUSH2 0x3367 JUMP JUMPDEST DUP8 PUSH0 MSTORE PUSH1 0x20 DUP1 PUSH0 KECCAK256 PUSH0 JUMPDEST DUP6 DUP2 LT ISZERO PUSH2 0x335E JUMPI DUP2 SLOAD DUP11 DUP3 ADD MSTORE SWAP1 DUP5 ADD SWAP1 DUP3 ADD PUSH2 0x3345 JUMP JUMPDEST POP POP POP DUP3 DUP8 ADD SWAP5 POP JUMPDEST POP SWAP3 SWAP7 SWAP6 POP POP POP POP POP POP JUMP JUMPDEST PUSH1 0xFF DUP4 AND DUP2 MSTORE PUSH1 0x40 PUSH1 0x20 DUP3 ADD MSTORE PUSH0 PUSH2 0x338E PUSH1 0x40 DUP4 ADD DUP5 PUSH2 0x2D03 JUMP JUMPDEST SWAP5 SWAP4 POP POP POP POP JUMP JUMPDEST PUSH1 0x20 DUP1 DUP3 MSTORE PUSH1 0x1F SWAP1 DUP3 ADD MSTORE PUSH32 0x696E76616C696420617267756D656E74202D207A65726F206164647265737300 PUSH1 0x40 DUP3 ADD MSTORE PUSH1 0x60 ADD SWAP1 JUMP JUMPDEST PUSH0 PUSH1 0x20 DUP3 DUP5 SUB SLT ISZERO PUSH2 0x33DD JUMPI PUSH0 DUP1 REVERT JUMPDEST DUP2 MLOAD PUSH2 0xFFFF DUP2 AND DUP2 EQ PUSH2 0xCB5 JUMPI PUSH0 DUP1 REVERT JUMPDEST PUSH1 0x20 DUP2 MSTORE DUP2 PUSH1 0x20 DUP3 ADD MSTORE DUP2 DUP4 PUSH1 0x40 DUP4 ADD CALLDATACOPY PUSH0 DUP2 DUP4 ADD PUSH1 0x40 SWAP1 DUP2 ADD SWAP2 SWAP1 SWAP2 MSTORE PUSH1 0x1F SWAP1 SWAP3 ADD PUSH1 0x1F NOT AND ADD ADD SWAP2 SWAP1 POP JUMP JUMPDEST PUSH1 0x20 DUP1 DUP3 MSTORE PUSH1 0x1F SWAP1 DUP3 ADD MSTORE PUSH32 0x696E76616C696420617267756D656E74202D20656D70747920737472696E6700 PUSH1 0x40 DUP3 ADD MSTORE PUSH1 0x60 ADD SWAP1 JUMP JUMPDEST PUSH1 0x1F DUP3 GT ISZERO PUSH2 0x2CAD JUMPI PUSH0 DUP2 DUP2 MSTORE PUSH1 0x20 DUP2 KECCAK256 PUSH1 0x1F DUP6 ADD PUSH1 0x5 SHR DUP2 ADD PUSH1 0x20 DUP7 LT ISZERO PUSH2 0x3479 JUMPI POP DUP1 JUMPDEST PUSH1 0x1F DUP6 ADD PUSH1 0x5 SHR DUP3 ADD SWAP2 POP JUMPDEST DUP2 DUP2 LT ISZERO PUSH2 0x1067 JUMPI DUP3 DUP2 SSTORE PUSH1 0x1 ADD PUSH2 0x3485 JUMP JUMPDEST PUSH8 0xFFFFFFFFFFFFFFFF DUP4 GT ISZERO PUSH2 0x34B0 JUMPI PUSH2 0x34B0 PUSH2 0x304E JUMP JUMPDEST PUSH2 0x34C4 DUP4 PUSH2 0x34BE DUP4 SLOAD PUSH2 0x3191 JUMP JUMPDEST DUP4 PUSH2 0x3453 JUMP JUMPDEST PUSH0 PUSH1 0x1F DUP5 GT PUSH1 0x1 DUP2 EQ PUSH2 0x34F5 JUMPI PUSH0 DUP6 ISZERO PUSH2 0x34DE JUMPI POP DUP4 DUP3 ADD CALLDATALOAD JUMPDEST PUSH0 NOT PUSH1 0x3 DUP8 SWAP1 SHL SHR NOT AND PUSH1 0x1 DUP7 SWAP1 SHL OR DUP4 SSTORE PUSH2 0x888 JUMP JUMPDEST PUSH0 DUP4 DUP2 MSTORE PUSH1 0x20 SWAP1 KECCAK256 PUSH1 0x1F NOT DUP7 AND SWAP1 DUP4 JUMPDEST DUP3 DUP2 LT ISZERO PUSH2 0x3525 JUMPI DUP7 DUP6 ADD CALLDATALOAD DUP3 SSTORE PUSH1 0x20 SWAP5 DUP6 ADD SWAP5 PUSH1 0x1 SWAP1 SWAP3 ADD SWAP2 ADD PUSH2 0x3505 JUMP JUMPDEST POP DUP7 DUP3 LT ISZERO PUSH2 0x3541 JUMPI PUSH0 NOT PUSH1 0xF8 DUP9 PUSH1 0x3 SHL AND SHR NOT DUP5 DUP8 ADD CALLDATALOAD AND DUP2 SSTORE JUMPDEST POP POP PUSH1 0x1 DUP6 PUSH1 0x1 SHL ADD DUP4 SSTORE POP POP POP POP POP JUMP JUMPDEST DUP2 MLOAD PUSH8 0xFFFFFFFFFFFFFFFF DUP2 GT ISZERO PUSH2 0x356D JUMPI PUSH2 0x356D PUSH2 0x304E JUMP JUMPDEST PUSH2 0x3581 DUP2 PUSH2 0x357B DUP5 SLOAD PUSH2 0x3191 JUMP JUMPDEST DUP5 PUSH2 0x3453 JUMP JUMPDEST PUSH1 0x20 DUP1 PUSH1 0x1F DUP4 GT PUSH1 0x1 DUP2 EQ PUSH2 0x35B4 JUMPI PUSH0 DUP5 ISZERO PUSH2 0x359D JUMPI POP DUP6 DUP4 ADD MLOAD JUMPDEST PUSH0 NOT PUSH1 0x3 DUP7 SWAP1 SHL SHR NOT AND PUSH1 0x1 DUP6 SWAP1 SHL OR DUP6 SSTORE PUSH2 0x1067 JUMP JUMPDEST PUSH0 DUP6 DUP2 MSTORE PUSH1 0x20 DUP2 KECCAK256 PUSH1 0x1F NOT DUP7 AND SWAP2 JUMPDEST DUP3 DUP2 LT ISZERO PUSH2 0x35E2 JUMPI DUP9 DUP7 ADD MLOAD DUP3 SSTORE SWAP5 DUP5 ADD SWAP5 PUSH1 0x1 SWAP1 SWAP2 ADD SWAP1 DUP5 ADD PUSH2 0x35C3 JUMP JUMPDEST POP DUP6 DUP3 LT ISZERO PUSH2 0x35FF JUMPI DUP8 DUP6 ADD MLOAD PUSH0 NOT PUSH1 0x3 DUP9 SWAP1 SHL PUSH1 0xF8 AND SHR NOT AND DUP2 SSTORE JUMPDEST POP POP POP POP POP PUSH1 0x1 SWAP1 DUP2 SHL ADD SWAP1 SSTORE POP JUMP INVALID LOG2 PUSH5 0x6970667358 0x22 SLT KECCAK256 PUSH32 0x2B4EB001BFF7E28D0C62017B71A77BFE3A1E952B277D6B5A23902598FA2D0264 PUSH20 0x6F6C634300081400330000000000000000000000 "
		},
		"gasEstimates": {
			"creation": {
				"codeDepositCost": "2778600",
				"executionCost": "27246",
				"totalCost": "2805846"
			},
			"external": {
				"addAgent(address)": "30431",
				"allowance(address,address)": "infinite",
				"approve(address,uint256)": "24663",
				"balanceOf(address)": "2701",
				"batchBurn(address[],uint256[])": "infinite",
				"batchForcedTransfer(address[],address[],uint256[])": "infinite",
				"batchFreezePartialTokens(address[],uint256[])": "infinite",
				"batchMint(address[],uint256[])": "infinite",
				"batchSetAddressFrozen(address[],bool[])": "infinite",
				"batchTransfer(address[],uint256[])": "infinite",
				"batchUnfreezePartialTokens(address[],uint256[])": "infinite",
				"burn(address,uint256)": "infinite",
				"compliance()": "2441",
				"decimals()": "2444",
				"decreaseAllowance(address,uint256)": "infinite",
				"forcedTransfer(address,address,uint256)": "infinite",
				"freezePartialTokens(address,uint256)": "infinite",
				"getFrozenTokens(address)": "2669",
				"identityRegistry()": "2443",
				"increaseAllowance(address,uint256)": "infinite",
				"init(address,address,string,string,uint8,address)": "infinite",
				"isAgent(address)": "2757",
				"isFrozen(address)": "2612",
				"mint(address,uint256)": "infinite",
				"name()": "infinite",
				"onchainID()": "2408",
				"owner()": "2479",
				"pause()": "29951",
				"paused()": "2392",
				"recoveryAddress(address,address,address)": "infinite",
				"removeAgent(address)": "30421",
				"renounceOwnership()": "infinite",
				"setAddressFrozen(address,bool)": "29074",
				"setCompliance(address)": "infinite",
				"setIdentityRegistry(address)": "28088",
				"setName(string)": "infinite",
				"setOnchainID(address)": "infinite",
				"setSymbol(string)": "infinite",
				"symbol()": "infinite",
				"totalSupply()": "2337",
				"transfer(address,uint256)": "infinite",
				"transferFrom(address,address,uint256)": "infinite",
				"transferOwnership(address)": "28465",
				"unfreezePartialTokens(address,uint256)": "infinite",
				"unpause()": "29953",
				"version()": "infinite"
			},
			"internal": {
				"_approve(address,address,uint256)": "infinite",
				"_beforeTokenTransfer(address,address,uint256)": "15",
				"_burn(address,uint256)": "infinite",
				"_mint(address,uint256)": "infinite",
				"_transfer(address,address,uint256)": "infinite"
			}
		},
		"methodIdentifiers": {
			"addAgent(address)": "84e79842",
			"allowance(address,address)": "dd62ed3e",
			"approve(address,uint256)": "095ea7b3",
			"balanceOf(address)": "70a08231",
			"batchBurn(address[],uint256[])": "4a6cc677",
			"batchForcedTransfer(address[],address[],uint256[])": "42a47abc",
			"batchFreezePartialTokens(address[],uint256[])": "fc7e5fa8",
			"batchMint(address[],uint256[])": "68573107",
			"batchSetAddressFrozen(address[],bool[])": "1a7af379",
			"batchTransfer(address[],uint256[])": "88d695b2",
			"batchUnfreezePartialTokens(address[],uint256[])": "4710362d",
			"burn(address,uint256)": "9dc29fac",
			"compliance()": "6290865d",
			"decimals()": "313ce567",
			"decreaseAllowance(address,uint256)": "a457c2d7",
			"forcedTransfer(address,address,uint256)": "9fc1d0e7",
			"freezePartialTokens(address,uint256)": "125c4a33",
			"getFrozenTokens(address)": "158b1a57",
			"identityRegistry()": "134e18f4",
			"increaseAllowance(address,uint256)": "39509351",
			"init(address,address,string,string,uint8,address)": "f91b619c",
			"isAgent(address)": "1ffbb064",
			"isFrozen(address)": "e5839836",
			"mint(address,uint256)": "40c10f19",
			"name()": "06fdde03",
			"onchainID()": "aba63705",
			"owner()": "8da5cb5b",
			"pause()": "8456cb59",
			"paused()": "5c975abb",
			"recoveryAddress(address,address,address)": "9285948a",
			"removeAgent(address)": "97a6278e",
			"renounceOwnership()": "715018a6",
			"setAddressFrozen(address,bool)": "c69c09cf",
			"setCompliance(address)": "f8981789",
			"setIdentityRegistry(address)": "cbf3f861",
			"setName(string)": "c47f0027",
			"setOnchainID(address)": "3d1ddc5b",
			"setSymbol(string)": "b84c8246",
			"symbol()": "95d89b41",
			"totalSupply()": "18160ddd",
			"transfer(address,uint256)": "a9059cbb",
			"transferFrom(address,address,uint256)": "23b872dd",
			"transferOwnership(address)": "f2fde38b",
			"unfreezePartialTokens(address,uint256)": "1fe56f7d",
			"unpause()": "3f4ba83a",
			"version()": "54fd4d50"
		}
	},
	"abi": [
		{
			"inputs": [],
			"name": "InvalidInitialization",
			"type": "error"
		},
		{
			"inputs": [],
			"name": "NotInitializing",
			"type": "error"
		},
		{
			"inputs": [
				{
					"internalType": "address",
					"name": "owner",
					"type": "address"
				}
			],
			"name": "OwnableInvalidOwner",
			"type": "error"
		},
		{
			"inputs": [
				{
					"internalType": "address",
					"name": "account",
					"type": "address"
				}
			],
			"name": "OwnableUnauthorizedAccount",
			"type": "error"
		},
		{
			"anonymous": false,
			"inputs": [
				{
					"indexed": true,
					"internalType": "address",
					"name": "_userAddress",
					"type": "address"
				},
				{
					"indexed": true,
					"internalType": "bool",
					"name": "_isFrozen",
					"type": "bool"
				},
				{
					"indexed": true,
					"internalType": "address",
					"name": "_owner",
					"type": "address"
				}
			],
			"name": "AddressFrozen",
			"type": "event"
		},
		{
			"anonymous": false,
			"inputs": [
				{
					"indexed": true,
					"internalType": "address",
					"name": "_agent",
					"type": "address"
				}
			],
			"name": "AgentAdded",
			"type": "event"
		},
		{
			"anonymous": false,
			"inputs": [
				{
					"indexed": true,
					"internalType": "address",
					"name": "_agent",
					"type": "address"
				}
			],
			"name": "AgentRemoved",
			"type": "event"
		},
		{
			"anonymous": false,
			"inputs": [
				{
					"indexed": true,
					"internalType": "address",
					"name": "owner",
					"type": "address"
				},
				{
					"indexed": true,
					"internalType": "address",
					"name": "spender",
					"type": "address"
				},
				{
					"indexed": false,
					"internalType": "uint256",
					"name": "value",
					"type": "uint256"
				}
			],
			"name": "Approval",
			"type": "event"
		},
		{
			"anonymous": false,
			"inputs": [
				{
					"indexed": true,
					"internalType": "address",
					"name": "_compliance",
					"type": "address"
				}
			],
			"name": "ComplianceAdded",
			"type": "event"
		},
		{
			"anonymous": false,
			"inputs": [
				{
					"indexed": true,
					"internalType": "address",
					"name": "_identityRegistry",
					"type": "address"
				}
			],
			"name": "IdentityRegistryAdded",
			"type": "event"
		},
		{
			"anonymous": false,
			"inputs": [
				{
					"indexed": false,
					"internalType": "uint64",
					"name": "version",
					"type": "uint64"
				}
			],
			"name": "Initialized",
			"type": "event"
		},
		{
			"anonymous": false,
			"inputs": [
				{
					"indexed": true,
					"internalType": "address",
					"name": "previousOwner",
					"type": "address"
				},
				{
					"indexed": true,
					"internalType": "address",
					"name": "newOwner",
					"type": "address"
				}
			],
			"name": "OwnershipTransferred",
			"type": "event"
		},
		{
			"anonymous": false,
			"inputs": [
				{
					"indexed": false,
					"internalType": "address",
					"name": "_userAddress",
					"type": "address"
				}
			],
			"name": "Paused",
			"type": "event"
		},
		{
			"anonymous": false,
			"inputs": [
				{
					"indexed": true,
					"internalType": "address",
					"name": "_lostWallet",
					"type": "address"
				},
				{
					"indexed": true,
					"internalType": "address",
					"name": "_newWallet",
					"type": "address"
				},
				{
					"indexed": true,
					"internalType": "address",
					"name": "_investorOnchainID",
					"type": "address"
				}
			],
			"name": "RecoverySuccess",
			"type": "event"
		},
		{
			"anonymous": false,
			"inputs": [
				{
					"indexed": true,
					"internalType": "address",
					"name": "_userAddress",
					"type": "address"
				},
				{
					"indexed": false,
					"internalType": "uint256",
					"name": "_amount",
					"type": "uint256"
				}
			],
			"name": "TokensFrozen",
			"type": "event"
		},
		{
			"anonymous": false,
			"inputs": [
				{
					"indexed": true,
					"internalType": "address",
					"name": "_userAddress",
					"type": "address"
				},
				{
					"indexed": false,
					"internalType": "uint256",
					"name": "_amount",
					"type": "uint256"
				}
			],
			"name": "TokensUnfrozen",
			"type": "event"
		},
		{
			"anonymous": false,
			"inputs": [
				{
					"indexed": true,
					"internalType": "address",
					"name": "from",
					"type": "address"
				},
				{
					"indexed": true,
					"internalType": "address",
					"name": "to",
					"type": "address"
				},
				{
					"indexed": false,
					"internalType": "uint256",
					"name": "value",
					"type": "uint256"
				}
			],
			"name": "Transfer",
			"type": "event"
		},
		{
			"anonymous": false,
			"inputs": [
				{
					"indexed": false,
					"internalType": "address",
					"name": "_userAddress",
					"type": "address"
				}
			],
			"name": "Unpaused",
			"type": "event"
		},
		{
			"anonymous": false,
			"inputs": [
				{
					"indexed": true,
					"internalType": "string",
					"name": "_newName",
					"type": "string"
				},
				{
					"indexed": true,
					"internalType": "string",
					"name": "_newSymbol",
					"type": "string"
				},
				{
					"indexed": false,
					"internalType": "uint8",
					"name": "_newDecimals",
					"type": "uint8"
				},
				{
					"indexed": false,
					"internalType": "string",
					"name": "_newVersion",
					"type": "string"
				},
				{
					"indexed": true,
					"internalType": "address",
					"name": "_newOnchainID",
					"type": "address"
				}
			],
			"name": "UpdatedTokenInformation",
			"type": "event"
		},
		{
			"inputs": [
				{
					"internalType": "address",
					"name": "_agent",
					"type": "address"
				}
			],
			"name": "addAgent",
			"outputs": [],
			"stateMutability": "nonpayable",
			"type": "function"
		},
		{
			"inputs": [
				{
					"internalType": "address",
					"name": "_owner",
					"type": "address"
				},
				{
					"internalType": "address",
					"name": "_spender",
					"type": "address"
				}
			],
			"name": "allowance",
			"outputs": [
				{
					"internalType": "uint256",
					"name": "",
					"type": "uint256"
				}
			],
			"stateMutability": "view",
			"type": "function"
		},
		{
			"inputs": [
				{
					"internalType": "address",
					"name": "_spender",
					"type": "address"
				},
				{
					"internalType": "uint256",
					"name": "_amount",
					"type": "uint256"
				}
			],
			"name": "approve",
			"outputs": [
				{
					"internalType": "bool",
					"name": "",
					"type": "bool"
				}
			],
			"stateMutability": "nonpayable",
			"type": "function"
		},
		{
			"inputs": [
				{
					"internalType": "address",
					"name": "_userAddress",
					"type": "address"
				}
			],
			"name": "balanceOf",
			"outputs": [
				{
					"internalType": "uint256",
					"name": "",
					"type": "uint256"
				}
			],
			"stateMutability": "view",
			"type": "function"
		},
		{
			"inputs": [
				{
					"internalType": "address[]",
					"name": "_userAddresses",
					"type": "address[]"
				},
				{
					"internalType": "uint256[]",
					"name": "_amounts",
					"type": "uint256[]"
				}
			],
			"name": "batchBurn",
			"outputs": [],
			"stateMutability": "nonpayable",
			"type": "function"
		},
		{
			"inputs": [
				{
					"internalType": "address[]",
					"name": "_fromList",
					"type": "address[]"
				},
				{
					"internalType": "address[]",
					"name": "_toList",
					"type": "address[]"
				},
				{
					"internalType": "uint256[]",
					"name": "_amounts",
					"type": "uint256[]"
				}
			],
			"name": "batchForcedTransfer",
			"outputs": [],
			"stateMutability": "nonpayable",
			"type": "function"
		},
		{
			"inputs": [
				{
					"internalType": "address[]",
					"name": "_userAddresses",
					"type": "address[]"
				},
				{
					"internalType": "uint256[]",
					"name": "_amounts",
					"type": "uint256[]"
				}
			],
			"name": "batchFreezePartialTokens",
			"outputs": [],
			"stateMutability": "nonpayable",
			"type": "function"
		},
		{
			"inputs": [
				{
					"internalType": "address[]",
					"name": "_toList",
					"type": "address[]"
				},
				{
					"internalType": "uint256[]",
					"name": "_amounts",
					"type": "uint256[]"
				}
			],
			"name": "batchMint",
			"outputs": [],
			"stateMutability": "nonpayable",
			"type": "function"
		},
		{
			"inputs": [
				{
					"internalType": "address[]",
					"name": "_userAddresses",
					"type": "address[]"
				},
				{
					"internalType": "bool[]",
					"name": "_freeze",
					"type": "bool[]"
				}
			],
			"name": "batchSetAddressFrozen",
			"outputs": [],
			"stateMutability": "nonpayable",
			"type": "function"
		},
		{
			"inputs": [
				{
					"internalType": "address[]",
					"name": "_toList",
					"type": "address[]"
				},
				{
					"internalType": "uint256[]",
					"name": "_amounts",
					"type": "uint256[]"
				}
			],
			"name": "batchTransfer",
			"outputs": [],
			"stateMutability": "nonpayable",
			"type": "function"
		},
		{
			"inputs": [
				{
					"internalType": "address[]",
					"name": "_userAddresses",
					"type": "address[]"
				},
				{
					"internalType": "uint256[]",
					"name": "_amounts",
					"type": "uint256[]"
				}
			],
			"name": "batchUnfreezePartialTokens",
			"outputs": [],
			"stateMutability": "nonpayable",
			"type": "function"
		},
		{
			"inputs": [
				{
					"internalType": "address",
					"name": "_userAddress",
					"type": "address"
				},
				{
					"internalType": "uint256",
					"name": "_amount",
					"type": "uint256"
				}
			],
			"name": "burn",
			"outputs": [],
			"stateMutability": "nonpayable",
			"type": "function"
		},
		{
			"inputs": [],
			"name": "compliance",
			"outputs": [
				{
					"internalType": "contract IModularCompliance",
					"name": "",
					"type": "address"
				}
			],
			"stateMutability": "view",
			"type": "function"
		},
		{
			"inputs": [],
			"name": "decimals",
			"outputs": [
				{
					"internalType": "uint8",
					"name": "",
					"type": "uint8"
				}
			],
			"stateMutability": "view",
			"type": "function"
		},
		{
			"inputs": [
				{
					"internalType": "address",
					"name": "_spender",
					"type": "address"
				},
				{
					"internalType": "uint256",
					"name": "_subtractedValue",
					"type": "uint256"
				}
			],
			"name": "decreaseAllowance",
			"outputs": [
				{
					"internalType": "bool",
					"name": "",
					"type": "bool"
				}
			],
			"stateMutability": "nonpayable",
			"type": "function"
		},
		{
			"inputs": [
				{
					"internalType": "address",
					"name": "_from",
					"type": "address"
				},
				{
					"internalType": "address",
					"name": "_to",
					"type": "address"
				},
				{
					"internalType": "uint256",
					"name": "_amount",
					"type": "uint256"
				}
			],
			"name": "forcedTransfer",
			"outputs": [
				{
					"internalType": "bool",
					"name": "",
					"type": "bool"
				}
			],
			"stateMutability": "nonpayable",
			"type": "function"
		},
		{
			"inputs": [
				{
					"internalType": "address",
					"name": "_userAddress",
					"type": "address"
				},
				{
					"internalType": "uint256",
					"name": "_amount",
					"type": "uint256"
				}
			],
			"name": "freezePartialTokens",
			"outputs": [],
			"stateMutability": "nonpayable",
			"type": "function"
		},
		{
			"inputs": [
				{
					"internalType": "address",
					"name": "_userAddress",
					"type": "address"
				}
			],
			"name": "getFrozenTokens",
			"outputs": [
				{
					"internalType": "uint256",
					"name": "",
					"type": "uint256"
				}
			],
			"stateMutability": "view",
			"type": "function"
		},
		{
			"inputs": [],
			"name": "identityRegistry",
			"outputs": [
				{
					"internalType": "contract IIdentityRegistry",
					"name": "",
					"type": "address"
				}
			],
			"stateMutability": "view",
			"type": "function"
		},
		{
			"inputs": [
				{
					"internalType": "address",
					"name": "_spender",
					"type": "address"
				},
				{
					"internalType": "uint256",
					"name": "_addedValue",
					"type": "uint256"
				}
			],
			"name": "increaseAllowance",
			"outputs": [
				{
					"internalType": "bool",
					"name": "",
					"type": "bool"
				}
			],
			"stateMutability": "nonpayable",
			"type": "function"
		},
		{
			"inputs": [
				{
					"internalType": "address",
					"name": "_identityRegistry",
					"type": "address"
				},
				{
					"internalType": "address",
					"name": "_compliance",
					"type": "address"
				},
				{
					"internalType": "string",
					"name": "_name",
					"type": "string"
				},
				{
					"internalType": "string",
					"name": "_symbol",
					"type": "string"
				},
				{
					"internalType": "uint8",
					"name": "_decimals",
					"type": "uint8"
				},
				{
					"internalType": "address",
					"name": "_onchainID",
					"type": "address"
				}
			],
			"name": "init",
			"outputs": [],
			"stateMutability": "nonpayable",
			"type": "function"
		},
		{
			"inputs": [
				{
					"internalType": "address",
					"name": "_agent",
					"type": "address"
				}
			],
			"name": "isAgent",
			"outputs": [
				{
					"internalType": "bool",
					"name": "",
					"type": "bool"
				}
			],
			"stateMutability": "view",
			"type": "function"
		},
		{
			"inputs": [
				{
					"internalType": "address",
					"name": "_userAddress",
					"type": "address"
				}
			],
			"name": "isFrozen",
			"outputs": [
				{
					"internalType": "bool",
					"name": "",
					"type": "bool"
				}
			],
			"stateMutability": "view",
			"type": "function"
		},
		{
			"inputs": [
				{
					"internalType": "address",
					"name": "_to",
					"type": "address"
				},
				{
					"internalType": "uint256",
					"name": "_amount",
					"type": "uint256"
				}
			],
			"name": "mint",
			"outputs": [],
			"stateMutability": "nonpayable",
			"type": "function"
		},
		{
			"inputs": [],
			"name": "name",
			"outputs": [
				{
					"internalType": "string",
					"name": "",
					"type": "string"
				}
			],
			"stateMutability": "view",
			"type": "function"
		},
		{
			"inputs": [],
			"name": "onchainID",
			"outputs": [
				{
					"internalType": "address",
					"name": "",
					"type": "address"
				}
			],
			"stateMutability": "view",
			"type": "function"
		},
		{
			"inputs": [],
			"name": "owner",
			"outputs": [
				{
					"internalType": "address",
					"name": "",
					"type": "address"
				}
			],
			"stateMutability": "view",
			"type": "function"
		},
		{
			"inputs": [],
			"name": "pause",
			"outputs": [],
			"stateMutability": "nonpayable",
			"type": "function"
		},
		{
			"inputs": [],
			"name": "paused",
			"outputs": [
				{
					"internalType": "bool",
					"name": "",
					"type": "bool"
				}
			],
			"stateMutability": "view",
			"type": "function"
		},
		{
			"inputs": [
				{
					"internalType": "address",
					"name": "_lostWallet",
					"type": "address"
				},
				{
					"internalType": "address",
					"name": "_newWallet",
					"type": "address"
				},
				{
					"internalType": "address",
					"name": "_investorOnchainID",
					"type": "address"
				}
			],
			"name": "recoveryAddress",
			"outputs": [
				{
					"internalType": "bool",
					"name": "",
					"type": "bool"
				}
			],
			"stateMutability": "nonpayable",
			"type": "function"
		},
		{
			"inputs": [
				{
					"internalType": "address",
					"name": "_agent",
					"type": "address"
				}
			],
			"name": "removeAgent",
			"outputs": [],
			"stateMutability": "nonpayable",
			"type": "function"
		},
		{
			"inputs": [],
			"name": "renounceOwnership",
			"outputs": [],
			"stateMutability": "nonpayable",
			"type": "function"
		},
		{
			"inputs": [
				{
					"internalType": "address",
					"name": "_userAddress",
					"type": "address"
				},
				{
					"internalType": "bool",
					"name": "_freeze",
					"type": "bool"
				}
			],
			"name": "setAddressFrozen",
			"outputs": [],
			"stateMutability": "nonpayable",
			"type": "function"
		},
		{
			"inputs": [
				{
					"internalType": "address",
					"name": "_compliance",
					"type": "address"
				}
			],
			"name": "setCompliance",
			"outputs": [],
			"stateMutability": "nonpayable",
			"type": "function"
		},
		{
			"inputs": [
				{
					"internalType": "address",
					"name": "_identityRegistry",
					"type": "address"
				}
			],
			"name": "setIdentityRegistry",
			"outputs": [],
			"stateMutability": "nonpayable",
			"type": "function"
		},
		{
			"inputs": [
				{
					"internalType": "string",
					"name": "_name",
					"type": "string"
				}
			],
			"name": "setName",
			"outputs": [],
			"stateMutability": "nonpayable",
			"type": "function"
		},
		{
			"inputs": [
				{
					"internalType": "address",
					"name": "_onchainID",
					"type": "address"
				}
			],
			"name": "setOnchainID",
			"outputs": [],
			"stateMutability": "nonpayable",
			"type": "function"
		},
		{
			"inputs": [
				{
					"internalType": "string",
					"name": "_symbol",
					"type": "string"
				}
			],
			"name": "setSymbol",
			"outputs": [],
			"stateMutability": "nonpayable",
			"type": "function"
		},
		{
			"inputs": [],
			"name": "symbol",
			"outputs": [
				{
					"internalType": "string",
					"name": "",
					"type": "string"
				}
			],
			"stateMutability": "view",
			"type": "function"
		},
		{
			"inputs": [],
			"name": "totalSupply",
			"outputs": [
				{
					"internalType": "uint256",
					"name": "",
					"type": "uint256"
				}
			],
			"stateMutability": "view",
			"type": "function"
		},
		{
			"inputs": [
				{
					"internalType": "address",
					"name": "_to",
					"type": "address"
				},
				{
					"internalType": "uint256",
					"name": "_amount",
					"type": "uint256"
				}
			],
			"name": "transfer",
			"outputs": [
				{
					"internalType": "bool",
					"name": "",
					"type": "bool"
				}
			],
			"stateMutability": "nonpayable",
			"type": "function"
		},
		{
			"inputs": [
				{
					"internalType": "address",
					"name": "_from",
					"type": "address"
				},
				{
					"internalType": "address",
					"name": "_to",
					"type": "address"
				},
				{
					"internalType": "uint256",
					"name": "_amount",
					"type": "uint256"
				}
			],
			"name": "transferFrom",
			"outputs": [
				{
					"internalType": "bool",
					"name": "",
					"type": "bool"
				}
			],
			"stateMutability": "nonpayable",
			"type": "function"
		},
		{
			"inputs": [
				{
					"internalType": "address",
					"name": "newOwner",
					"type": "address"
				}
			],
			"name": "transferOwnership",
			"outputs": [],
			"stateMutability": "nonpayable",
			"type": "function"
		},
		{
			"inputs": [
				{
					"internalType": "address",
					"name": "_userAddress",
					"type": "address"
				},
				{
					"internalType": "uint256",
					"name": "_amount",
					"type": "uint256"
				}
			],
			"name": "unfreezePartialTokens",
			"outputs": [],
			"stateMutability": "nonpayable",
			"type": "function"
		},
		{
			"inputs": [],
			"name": "unpause",
			"outputs": [],
			"stateMutability": "nonpayable",
			"type": "function"
		},
		{
			"inputs": [],
			"name": "version",
			"outputs": [
				{
					"internalType": "string",
					"name": "",
					"type": "string"
				}
			],
			"stateMutability": "pure",
			"type": "function"
		}
	]
}