{
	"data": {
		"bytecode": {
			"linkReferences": {},
			"object": "608060405234801561001057600080fd5b50611abb806100206000396000f3fe608060405234801561001057600080fd5b50600436106101425760003560e01c806384e79842116100b8578063b4f3fcb71161007c578063b4f3fcb7146102c5578063b9209e33146102d6578063e744d789146102e9578063f0eb5e54146102fc578063f11abfd81461030f578063f2fde38b1461032057600080fd5b806384e79842146102495780638da5cb5b1461025c5780638e098ca11461028c57806397a6278e1461029f578063a8d29d1d146102b257600080fd5b8063454a03e01161010a578063454a03e0146101cf5780635dbe47e8146101e2578063653dc9f1146101f5578063670af6a914610208578063715018a61461021b5780637e42683b1461022357600080fd5b8063184b9559146101475780631ffbb0641461015c57806326d941ae146101845780633b239a7f146101975780633b3e12f4146101aa575b600080fd5b61015a6101553660046113d9565b610333565b005b61016f61016a366004611424565b61056a565b60405190151581526020015b60405180910390f35b61015a610192366004611424565b61057c565b61015a6101a5366004611458565b6105ce565b6001546001600160a01b03165b6040516001600160a01b03909116815260200161017b565b61015a6101dd366004611491565b61069a565b61016f6101f0366004611424565b61076d565b61015a61020336600461151d565b610797565b61015a610216366004611424565b610835565b61015a610887565b610236610231366004611424565b61089b565b60405161ffff909116815260200161017b565b61015a610257366004611424565b61090a565b7f9016d09d72d40fdae2fd8ceac6b6234c7706214fd39c1cd1e609a0528c199300546001600160a01b03166101b7565b61015a61029a3660046115b7565b61097a565b61015a6102ad366004611424565b610a50565b61015a6102c0366004611424565b610ac0565b6002546001600160a01b03166101b7565b61016f6102e4366004611424565b610b8d565b61015a6102f7366004611424565b611016565b6101b761030a366004611424565b611068565b6003546001600160a01b03166101b7565b61015a61032e366004611424565b6110d7565b7ff0c57e16840df040f15088dc2f81fe391c3923bec73e23a9662efc9c229c6a008054600160401b810460ff16159067ffffffffffffffff166000811580156103795750825b905060008267ffffffffffffffff1660011480156103965750303b155b9050811580156103a4575080155b156103c25760405163f92ee8a960e01b815260040160405180910390fd5b845467ffffffffffffffff1916600117855583156103ec57845460ff60401b1916600160401b1785555b6001600160a01b0388161580159061040c57506001600160a01b03871615155b801561042057506001600160a01b03861615155b6104455760405162461bcd60e51b815260040161043c906115e5565b60405180910390fd5b600180546001600160a01b03808a166001600160a01b03199283168117909355600280548c831690841617905560038054918a16919092161790556040517f7170bf15b246e880b2369cd7c67d057760d8a35149e8c64dde91efa22bcc76d090600090a26040516001600160a01b038916907f1b98cb79e6f73020175fe87333f1b91ad6a881519c0afe30340c2599b2b4bde090600090a26040516001600160a01b038716907f2fa8b95c1db7afe99e3398f3792f008135cedc1fa26b0bb2ecd2352cd166d53c90600090a261051a33611115565b831561056057845460ff60401b19168555604051600181527fc7f505b2f371ae2175ee4913f4499e1f2633a7b5936321eed1cdaeb6115181d29060200160405180910390a15b5050505050505050565b60006105768183611126565b92915050565b6105846111a9565b600380546001600160a01b0319166001600160a01b0383169081179091556040517f2fa8b95c1db7afe99e3398f3792f008135cedc1fa26b0bb2ecd2352cd166d53c90600090a250565b6105d73361056a565b6105f35760405162461bcd60e51b815260040161043c9061161c565b600354604051639f3418d560e01b81526001600160a01b03848116600483015261ffff8416602483015290911690639f3418d590604401600060405180830381600087803b15801561064457600080fd5b505af1158015610658573d6000803e3d6000fd5b505060405161ffff841692506001600160a01b03851691507f04ed3b726495c2dca1ff1215d9ca54e1a4030abb5e82b0f6ce55702416cee85390600090a35050565b6106a33361056a565b6106bf5760405162461bcd60e51b815260040161043c9061161c565b60035460405163a53410dd60e01b81526001600160a01b038581166004830152848116602483015261ffff841660448301529091169063a53410dd90606401600060405180830381600087803b15801561071857600080fd5b505af115801561072c573d6000803e3d6000fd5b50506040516001600160a01b038086169350861691507f6ae73635c50d24a45af6fbd5e016ac4bed179addbc8bf24e04ff0fcc6d33af1990600090a3505050565b60008061077983611068565b6001600160a01b03160361078f57506000919050565b506001919050565b60005b8581101561082c5761081a8787838181106107b7576107b761166a565b90506020020160208101906107cc9190611424565b8686848181106107de576107de61166a565b90506020020160208101906107f39190611424565b8585858181106108055761080561166a565b90506020020160208101906101dd9190611680565b80610824816116b3565b91505061079a565b50505050505050565b61083d6111a9565b600180546001600160a01b0319166001600160a01b0383169081179091556040517f7170bf15b246e880b2369cd7c67d057760d8a35149e8c64dde91efa22bcc76d090600090a250565b61088f6111a9565b6108996000611204565b565b600354604051631c9f84ef60e21b81526001600160a01b038381166004830152600092169063727e13bc90602401602060405180830381865afa1580156108e6573d6000803e3d6000fd5b505050506040513d601f19601f8201168201806040525081019061057691906116cc565b6109126111a9565b6001600160a01b0381166109385760405162461bcd60e51b815260040161043c906115e5565b610943600082611275565b6040516001600160a01b038216907ff68e73cec97f2d70aa641fb26e87a4383686e2efacb648f2165aeb02ac562ec590600090a250565b6109833361056a565b61099f5760405162461bcd60e51b815260040161043c9061161c565b60006109aa83611068565b600354604051637402e7c360e11b81526001600160a01b038681166004830152858116602483015292935091169063e805cf8690604401600060405180830381600087803b1580156109fb57600080fd5b505af1158015610a0f573d6000803e3d6000fd5b50506040516001600160a01b038086169350841691507fe98082932c8056a0f514da9104e4a66bc2cbaef102ad59d90c4b24220ebf601090600090a3505050565b610a586111a9565b6001600160a01b038116610a7e5760405162461bcd60e51b815260040161043c906115e5565b610a896000826112f1565b6040516001600160a01b038216907fed9c8ad8d5a0a66898ea49d2956929c93ae2e8bd50281b2ed897c5d1a6737e0b90600090a250565b610ac93361056a565b610ae55760405162461bcd60e51b815260040161043c9061161c565b6000610af082611068565b60035460405163cf191bcd60e01b81526001600160a01b03858116600483015292935091169063cf191bcd90602401600060405180830381600087803b158015610b3957600080fd5b505af1158015610b4d573d6000803e3d6000fd5b50506040516001600160a01b038085169350851691507f59d6590e225b81befe259af056324092801080acbb7feab310eb34678871f32790600090a35050565b600080610b9983611068565b6001600160a01b031603610baf57506000919050565b600154604080516337c2758160e21b815290516000926001600160a01b03169163df09d60491600480830192869291908290030181865afa158015610bf8573d6000803e3d6000fd5b505050506040513d6000823e601f3d908101601f19168201604052610c209190810190611754565b90508051600003610c345750600192915050565b600080600060608060005b86518110156110075760025487516000916001600160a01b0316906352c111d1908a9085908110610c7257610c7261166a565b60200260200101516040518263ffffffff1660e01b8152600401610c9891815260200190565b600060405180830381865afa158015610cb5573d6000803e3d6000fd5b505050506040513d6000823e601f3d908101601f19168201604052610cdd91908101906117ea565b90508051600003610cf8575060009998505050505050505050565b6000815167ffffffffffffffff811115610d1457610d146116e9565b604051908082528060200260200182016040528015610d3d578160200160208202803683370190505b50905060005b8251811015610dea57828181518110610d5e57610d5e61166a565b60200260200101518a8581518110610d7857610d7861166a565b6020026020010151604051602001610da59291906001600160a01b03929092168252602082015260400190565b60405160208183030381529060405280519060200120828281518110610dcd57610dcd61166a565b602090810291909101015280610de2816116b3565b915050610d43565b5060005b8151811015610ff157610e008c611068565b6001600160a01b031663c9100bcb838381518110610e2057610e2061166a565b60200260200101516040518263ffffffff1660e01b8152600401610e4691815260200190565b600060405180830381865afa158015610e63573d6000803e3d6000fd5b505050506040513d6000823e601f3d908101601f19168201604052610e8b919081019061190c565b508e51949d50929b50909950975095508a9085908110610ead57610ead61166a565b60200260200101518903610fb957866001600160a01b031663c0969a6e610ed38e611068565b8c8781518110610ee557610ee561166a565b602002602001015189896040518563ffffffff1660e01b8152600401610f0e94939291906119fa565b602060405180830381865afa925050508015610f47575060408051601f3d908101601f19168201909252610f4491810190611a33565b60015b610f765760018251610f599190611a55565b8103610f71575060009b9a5050505050505050505050565b610fdf565b8015610f8157825191505b80158015610f9b575060018351610f989190611a55565b82145b15610fb3575060009c9b505050505050505050505050565b50610fdf565b60018251610fc79190611a55565b8103610fdf575060009b9a5050505050505050505050565b80610fe9816116b3565b915050610dee565b5050508080610fff906116b3565b915050610c3f565b50600198975050505050505050565b61101e6111a9565b600280546001600160a01b0319166001600160a01b0383169081179091556040517f1b98cb79e6f73020175fe87333f1b91ad6a881519c0afe30340c2599b2b4bde090600090a250565b600354604051637988d3a560e01b81526001600160a01b0383811660048301526000921690637988d3a590602401602060405180830381865afa1580156110b3573d6000803e3d6000fd5b505050506040513d601f19601f820116820180604052508101906105769190611a68565b6110df6111a9565b6001600160a01b03811661110957604051631e4fbdf760e01b81526000600482015260240161043c565b61111281611204565b50565b61111d611373565b611112816113bc565b60006001600160a01b0382166111895760405162461bcd60e51b815260206004820152602260248201527f526f6c65733a206163636f756e7420697320746865207a65726f206164647265604482015261737360f01b606482015260840161043c565b506001600160a01b03166000908152602091909152604090205460ff1690565b336111db7f9016d09d72d40fdae2fd8ceac6b6234c7706214fd39c1cd1e609a0528c199300546001600160a01b031690565b6001600160a01b0316146108995760405163118cdaa760e01b815233600482015260240161043c565b7f9016d09d72d40fdae2fd8ceac6b6234c7706214fd39c1cd1e609a0528c19930080546001600160a01b031981166001600160a01b03848116918217845560405192169182907f8be0079c531659141344cd1fd0a4f28419497f9722a3daafe3b4186f6b6457e090600090a3505050565b61127f8282611126565b156112cc5760405162461bcd60e51b815260206004820152601f60248201527f526f6c65733a206163636f756e7420616c72656164792068617320726f6c6500604482015260640161043c565b6001600160a01b0316600090815260209190915260409020805460ff19166001179055565b6112fb8282611126565b6113515760405162461bcd60e51b815260206004820152602160248201527f526f6c65733a206163636f756e7420646f6573206e6f74206861766520726f6c6044820152606560f81b606482015260840161043c565b6001600160a01b0316600090815260209190915260409020805460ff19169055565b7ff0c57e16840df040f15088dc2f81fe391c3923bec73e23a9662efc9c229c6a0054600160401b900460ff1661089957604051631afcd79f60e31b815260040160405180910390fd5b6110df611373565b6001600160a01b038116811461111257600080fd5b6000806000606084860312156113ee57600080fd5b83356113f9816113c4565b92506020840135611409816113c4565b91506040840135611419816113c4565b809150509250925092565b60006020828403121561143657600080fd5b8135611441816113c4565b9392505050565b61ffff8116811461111257600080fd5b6000806040838503121561146b57600080fd5b8235611476816113c4565b9150602083013561148681611448565b809150509250929050565b6000806000606084860312156114a657600080fd5b83356114b1816113c4565b925060208401356114c1816113c4565b9150604084013561141981611448565b60008083601f8401126114e357600080fd5b50813567ffffffffffffffff8111156114fb57600080fd5b6020830191508360208260051b850101111561151657600080fd5b9250929050565b6000806000806000806060878903121561153657600080fd5b863567ffffffffffffffff8082111561154e57600080fd5b61155a8a838b016114d1565b9098509650602089013591508082111561157357600080fd5b61157f8a838b016114d1565b9096509450604089013591508082111561159857600080fd5b506115a589828a016114d1565b979a9699509497509295939492505050565b600080604083850312156115ca57600080fd5b82356115d5816113c4565b91506020830135611486816113c4565b6020808252601f908201527f696e76616c696420617267756d656e74202d207a65726f206164647265737300604082015260600190565b6020808252602e908201527f4167656e74526f6c653a2063616c6c657220646f6573206e6f7420686176652060408201526d746865204167656e7420726f6c6560901b606082015260800190565b634e487b7160e01b600052603260045260246000fd5b60006020828403121561169257600080fd5b813561144181611448565b634e487b7160e01b600052601160045260246000fd5b6000600182016116c5576116c561169d565b5060010190565b6000602082840312156116de57600080fd5b815161144181611448565b634e487b7160e01b600052604160045260246000fd5b604051601f8201601f1916810167ffffffffffffffff81118282101715611728576117286116e9565b604052919050565b600067ffffffffffffffff82111561174a5761174a6116e9565b5060051b60200190565b6000602080838503121561176757600080fd5b825167ffffffffffffffff81111561177e57600080fd5b8301601f8101851361178f57600080fd5b80516117a261179d82611730565b6116ff565b81815260059190911b820183019083810190878311156117c157600080fd5b928401925b828410156117df578351825292840192908401906117c6565b979650505050505050565b600060208083850312156117fd57600080fd5b825167ffffffffffffffff81111561181457600080fd5b8301601f8101851361182557600080fd5b805161183361179d82611730565b81815260059190911b8201830190838101908783111561185257600080fd5b928401925b828410156117df57835161186a816113c4565b82529284019290840190611857565b60005b8381101561189457818101518382015260200161187c565b50506000910152565b600067ffffffffffffffff8311156118b7576118b76116e9565b6118ca601f8401601f19166020016116ff565b90508281528383830111156118de57600080fd5b611441836020830184611879565b600082601f8301126118fd57600080fd5b6114418383516020850161189d565b60008060008060008060c0878903121561192557600080fd5b8651955060208701519450604087015161193e816113c4565b606088015190945067ffffffffffffffff8082111561195c57600080fd5b6119688a838b016118ec565b9450608089015191508082111561197e57600080fd5b61198a8a838b016118ec565b935060a08901519150808211156119a057600080fd5b508701601f810189136119b257600080fd5b6119c18982516020840161189d565b9150509295509295509295565b600081518084526119e6816020860160208601611879565b601f01601f19169290920160200192915050565b60018060a01b0385168152836020820152608060408201526000611a2160808301856119ce565b82810360608401526117df81856119ce565b600060208284031215611a4557600080fd5b8151801515811461144157600080fd5b818103818111156105765761057661169d565b600060208284031215611a7a57600080fd5b8151611441816113c456fea26469706673582212207121dd261cccd5df3ed945917028fcad6bed79bbf8c7bd85d55a95cd8cbf183b64736f6c63430008110033",
			"opcodes": "PUSH1 0x80 PUSH1 0x40 MSTORE CALLVALUE DUP1 ISZERO PUSH2 0x10 JUMPI PUSH1 0x0 DUP1 REVERT JUMPDEST POP PUSH2 0x1ABB DUP1 PUSH2 0x20 PUSH1 0x0 CODECOPY PUSH1 0x0 RETURN INVALID PUSH1 0x80 PUSH1 0x40 MSTORE CALLVALUE DUP1 ISZERO PUSH2 0x10 JUMPI PUSH1 0x0 DUP1 REVERT JUMPDEST POP PUSH1 0x4 CALLDATASIZE LT PUSH2 0x142 JUMPI PUSH1 0x0 CALLDATALOAD PUSH1 0xE0 SHR DUP1 PUSH4 0x84E79842 GT PUSH2 0xB8 JUMPI DUP1 PUSH4 0xB4F3FCB7 GT PUSH2 0x7C JUMPI DUP1 PUSH4 0xB4F3FCB7 EQ PUSH2 0x2C5 JUMPI DUP1 PUSH4 0xB9209E33 EQ PUSH2 0x2D6 JUMPI DUP1 PUSH4 0xE744D789 EQ PUSH2 0x2E9 JUMPI DUP1 PUSH4 0xF0EB5E54 EQ PUSH2 0x2FC JUMPI DUP1 PUSH4 0xF11ABFD8 EQ PUSH2 0x30F JUMPI DUP1 PUSH4 0xF2FDE38B EQ PUSH2 0x320 JUMPI PUSH1 0x0 DUP1 REVERT JUMPDEST DUP1 PUSH4 0x84E79842 EQ PUSH2 0x249 JUMPI DUP1 PUSH4 0x8DA5CB5B EQ PUSH2 0x25C JUMPI DUP1 PUSH4 0x8E098CA1 EQ PUSH2 0x28C JUMPI DUP1 PUSH4 0x97A6278E EQ PUSH2 0x29F JUMPI DUP1 PUSH4 0xA8D29D1D EQ PUSH2 0x2B2 JUMPI PUSH1 0x0 DUP1 REVERT JUMPDEST DUP1 PUSH4 0x454A03E0 GT PUSH2 0x10A JUMPI DUP1 PUSH4 0x454A03E0 EQ PUSH2 0x1CF JUMPI DUP1 PUSH4 0x5DBE47E8 EQ PUSH2 0x1E2 JUMPI DUP1 PUSH4 0x653DC9F1 EQ PUSH2 0x1F5 JUMPI DUP1 PUSH4 0x670AF6A9 EQ PUSH2 0x208 JUMPI DUP1 PUSH4 0x715018A6 EQ PUSH2 0x21B JUMPI DUP1 PUSH4 0x7E42683B EQ PUSH2 0x223 JUMPI PUSH1 0x0 DUP1 REVERT JUMPDEST DUP1 PUSH4 0x184B9559 EQ PUSH2 0x147 JUMPI DUP1 PUSH4 0x1FFBB064 EQ PUSH2 0x15C JUMPI DUP1 PUSH4 0x26D941AE EQ PUSH2 0x184 JUMPI DUP1 PUSH4 0x3B239A7F EQ PUSH2 0x197 JUMPI DUP1 PUSH4 0x3B3E12F4 EQ PUSH2 0x1AA JUMPI JUMPDEST PUSH1 0x0 DUP1 REVERT JUMPDEST PUSH2 0x15A PUSH2 0x155 CALLDATASIZE PUSH1 0x4 PUSH2 0x13D9 JUMP JUMPDEST PUSH2 0x333 JUMP JUMPDEST STOP JUMPDEST PUSH2 0x16F PUSH2 0x16A CALLDATASIZE PUSH1 0x4 PUSH2 0x1424 JUMP JUMPDEST PUSH2 0x56A JUMP JUMPDEST PUSH1 0x40 MLOAD SWAP1 ISZERO ISZERO DUP2 MSTORE PUSH1 0x20 ADD JUMPDEST PUSH1 0x40 MLOAD DUP1 SWAP2 SUB SWAP1 RETURN JUMPDEST PUSH2 0x15A PUSH2 0x192 CALLDATASIZE PUSH1 0x4 PUSH2 0x1424 JUMP JUMPDEST PUSH2 0x57C JUMP JUMPDEST PUSH2 0x15A PUSH2 0x1A5 CALLDATASIZE PUSH1 0x4 PUSH2 0x1458 JUMP JUMPDEST PUSH2 0x5CE JUMP JUMPDEST PUSH1 0x1 SLOAD PUSH1 0x1 PUSH1 0x1 PUSH1 0xA0 SHL SUB AND JUMPDEST PUSH1 0x40 MLOAD PUSH1 0x1 PUSH1 0x1 PUSH1 0xA0 SHL SUB SWAP1 SWAP2 AND DUP2 MSTORE PUSH1 0x20 ADD PUSH2 0x17B JUMP JUMPDEST PUSH2 0x15A PUSH2 0x1DD CALLDATASIZE PUSH1 0x4 PUSH2 0x1491 JUMP JUMPDEST PUSH2 0x69A JUMP JUMPDEST PUSH2 0x16F PUSH2 0x1F0 CALLDATASIZE PUSH1 0x4 PUSH2 0x1424 JUMP JUMPDEST PUSH2 0x76D JUMP JUMPDEST PUSH2 0x15A PUSH2 0x203 CALLDATASIZE PUSH1 0x4 PUSH2 0x151D JUMP JUMPDEST PUSH2 0x797 JUMP JUMPDEST PUSH2 0x15A PUSH2 0x216 CALLDATASIZE PUSH1 0x4 PUSH2 0x1424 JUMP JUMPDEST PUSH2 0x835 JUMP JUMPDEST PUSH2 0x15A PUSH2 0x887 JUMP JUMPDEST PUSH2 0x236 PUSH2 0x231 CALLDATASIZE PUSH1 0x4 PUSH2 0x1424 JUMP JUMPDEST PUSH2 0x89B JUMP JUMPDEST PUSH1 0x40 MLOAD PUSH2 0xFFFF SWAP1 SWAP2 AND DUP2 MSTORE PUSH1 0x20 ADD PUSH2 0x17B JUMP JUMPDEST PUSH2 0x15A PUSH2 0x257 CALLDATASIZE PUSH1 0x4 PUSH2 0x1424 JUMP JUMPDEST PUSH2 0x90A JUMP JUMPDEST PUSH32 0x9016D09D72D40FDAE2FD8CEAC6B6234C7706214FD39C1CD1E609A0528C199300 SLOAD PUSH1 0x1 PUSH1 0x1 PUSH1 0xA0 SHL SUB AND PUSH2 0x1B7 JUMP JUMPDEST PUSH2 0x15A PUSH2 0x29A CALLDATASIZE PUSH1 0x4 PUSH2 0x15B7 JUMP JUMPDEST PUSH2 0x97A JUMP JUMPDEST PUSH2 0x15A PUSH2 0x2AD CALLDATASIZE PUSH1 0x4 PUSH2 0x1424 JUMP JUMPDEST PUSH2 0xA50 JUMP JUMPDEST PUSH2 0x15A PUSH2 0x2C0 CALLDATASIZE PUSH1 0x4 PUSH2 0x1424 JUMP JUMPDEST PUSH2 0xAC0 JUMP JUMPDEST PUSH1 0x2 SLOAD PUSH1 0x1 PUSH1 0x1 PUSH1 0xA0 SHL SUB AND PUSH2 0x1B7 JUMP JUMPDEST PUSH2 0x16F PUSH2 0x2E4 CALLDATASIZE PUSH1 0x4 PUSH2 0x1424 JUMP JUMPDEST PUSH2 0xB8D JUMP JUMPDEST PUSH2 0x15A PUSH2 0x2F7 CALLDATASIZE PUSH1 0x4 PUSH2 0x1424 JUMP JUMPDEST PUSH2 0x1016 JUMP JUMPDEST PUSH2 0x1B7 PUSH2 0x30A CALLDATASIZE PUSH1 0x4 PUSH2 0x1424 JUMP JUMPDEST PUSH2 0x1068 JUMP JUMPDEST PUSH1 0x3 SLOAD PUSH1 0x1 PUSH1 0x1 PUSH1 0xA0 SHL SUB AND PUSH2 0x1B7 JUMP JUMPDEST PUSH2 0x15A PUSH2 0x32E CALLDATASIZE PUSH1 0x4 PUSH2 0x1424 JUMP JUMPDEST PUSH2 0x10D7 JUMP JUMPDEST PUSH32 0xF0C57E16840DF040F15088DC2F81FE391C3923BEC73E23A9662EFC9C229C6A00 DUP1 SLOAD PUSH1 0x1 PUSH1 0x40 SHL DUP2 DIV PUSH1 0xFF AND ISZERO SWAP1 PUSH8 0xFFFFFFFFFFFFFFFF AND PUSH1 0x0 DUP2 ISZERO DUP1 ISZERO PUSH2 0x379 JUMPI POP DUP3 JUMPDEST SWAP1 POP PUSH1 0x0 DUP3 PUSH8 0xFFFFFFFFFFFFFFFF AND PUSH1 0x1 EQ DUP1 ISZERO PUSH2 0x396 JUMPI POP ADDRESS EXTCODESIZE ISZERO JUMPDEST SWAP1 POP DUP2 ISZERO DUP1 ISZERO PUSH2 0x3A4 JUMPI POP DUP1 ISZERO JUMPDEST ISZERO PUSH2 0x3C2 JUMPI PUSH1 0x40 MLOAD PUSH4 0xF92EE8A9 PUSH1 0xE0 SHL DUP2 MSTORE PUSH1 0x4 ADD PUSH1 0x40 MLOAD DUP1 SWAP2 SUB SWAP1 REVERT JUMPDEST DUP5 SLOAD PUSH8 0xFFFFFFFFFFFFFFFF NOT AND PUSH1 0x1 OR DUP6 SSTORE DUP4 ISZERO PUSH2 0x3EC JUMPI DUP5 SLOAD PUSH1 0xFF PUSH1 0x40 SHL NOT AND PUSH1 0x1 PUSH1 0x40 SHL OR DUP6 SSTORE JUMPDEST PUSH1 0x1 PUSH1 0x1 PUSH1 0xA0 SHL SUB DUP9 AND ISZERO DUP1 ISZERO SWAP1 PUSH2 0x40C JUMPI POP PUSH1 0x1 PUSH1 0x1 PUSH1 0xA0 SHL SUB DUP8 AND ISZERO ISZERO JUMPDEST DUP1 ISZERO PUSH2 0x420 JUMPI POP PUSH1 0x1 PUSH1 0x1 PUSH1 0xA0 SHL SUB DUP7 AND ISZERO ISZERO JUMPDEST PUSH2 0x445 JUMPI PUSH1 0x40 MLOAD PUSH3 0x461BCD PUSH1 0xE5 SHL DUP2 MSTORE PUSH1 0x4 ADD PUSH2 0x43C SWAP1 PUSH2 0x15E5 JUMP JUMPDEST PUSH1 0x40 MLOAD DUP1 SWAP2 SUB SWAP1 REVERT JUMPDEST PUSH1 0x1 DUP1 SLOAD PUSH1 0x1 PUSH1 0x1 PUSH1 0xA0 SHL SUB DUP1 DUP11 AND PUSH1 0x1 PUSH1 0x1 PUSH1 0xA0 SHL SUB NOT SWAP3 DUP4 AND DUP2 OR SWAP1 SWAP4 SSTORE PUSH1 0x2 DUP1 SLOAD DUP13 DUP4 AND SWAP1 DUP5 AND OR SWAP1 SSTORE PUSH1 0x3 DUP1 SLOAD SWAP2 DUP11 AND SWAP2 SWAP1 SWAP3 AND OR SWAP1 SSTORE PUSH1 0x40 MLOAD PUSH32 0x7170BF15B246E880B2369CD7C67D057760D8A35149E8C64DDE91EFA22BCC76D0 SWAP1 PUSH1 0x0 SWAP1 LOG2 PUSH1 0x40 MLOAD PUSH1 0x1 PUSH1 0x1 PUSH1 0xA0 SHL SUB DUP10 AND SWAP1 PUSH32 0x1B98CB79E6F73020175FE87333F1B91AD6A881519C0AFE30340C2599B2B4BDE0 SWAP1 PUSH1 0x0 SWAP1 LOG2 PUSH1 0x40 MLOAD PUSH1 0x1 PUSH1 0x1 PUSH1 0xA0 SHL SUB DUP8 AND SWAP1 PUSH32 0x2FA8B95C1DB7AFE99E3398F3792F008135CEDC1FA26B0BB2ECD2352CD166D53C SWAP1 PUSH1 0x0 SWAP1 LOG2 PUSH2 0x51A CALLER PUSH2 0x1115 JUMP JUMPDEST DUP4 ISZERO PUSH2 0x560 JUMPI DUP5 SLOAD PUSH1 0xFF PUSH1 0x40 SHL NOT AND DUP6 SSTORE PUSH1 0x40 MLOAD PUSH1 0x1 DUP2 MSTORE PUSH32 0xC7F505B2F371AE2175EE4913F4499E1F2633A7B5936321EED1CDAEB6115181D2 SWAP1 PUSH1 0x20 ADD PUSH1 0x40 MLOAD DUP1 SWAP2 SUB SWAP1 LOG1 JUMPDEST POP POP POP POP POP POP POP POP JUMP JUMPDEST PUSH1 0x0 PUSH2 0x576 DUP2 DUP4 PUSH2 0x1126 JUMP JUMPDEST SWAP3 SWAP2 POP POP JUMP JUMPDEST PUSH2 0x584 PUSH2 0x11A9 JUMP JUMPDEST PUSH1 0x3 DUP1 SLOAD PUSH1 0x1 PUSH1 0x1 PUSH1 0xA0 SHL SUB NOT AND PUSH1 0x1 PUSH1 0x1 PUSH1 0xA0 SHL SUB DUP4 AND SWAP1 DUP2 OR SWAP1 SWAP2 SSTORE PUSH1 0x40 MLOAD PUSH32 0x2FA8B95C1DB7AFE99E3398F3792F008135CEDC1FA26B0BB2ECD2352CD166D53C SWAP1 PUSH1 0x0 SWAP1 LOG2 POP JUMP JUMPDEST PUSH2 0x5D7 CALLER PUSH2 0x56A JUMP JUMPDEST PUSH2 0x5F3 JUMPI PUSH1 0x40 MLOAD PUSH3 0x461BCD PUSH1 0xE5 SHL DUP2 MSTORE PUSH1 0x4 ADD PUSH2 0x43C SWAP1 PUSH2 0x161C JUMP JUMPDEST PUSH1 0x3 SLOAD PUSH1 0x40 MLOAD PUSH4 0x9F3418D5 PUSH1 0xE0 SHL DUP2 MSTORE PUSH1 0x1 PUSH1 0x1 PUSH1 0xA0 SHL SUB DUP5 DUP2 AND PUSH1 0x4 DUP4 ADD MSTORE PUSH2 0xFFFF DUP5 AND PUSH1 0x24 DUP4 ADD MSTORE SWAP1 SWAP2 AND SWAP1 PUSH4 0x9F3418D5 SWAP1 PUSH1 0x44 ADD PUSH1 0x0 PUSH1 0x40 MLOAD DUP1 DUP4 SUB DUP2 PUSH1 0x0 DUP8 DUP1 EXTCODESIZE ISZERO DUP1 ISZERO PUSH2 0x644 JUMPI PUSH1 0x0 DUP1 REVERT JUMPDEST POP GAS CALL ISZERO DUP1 ISZERO PUSH2 0x658 JUMPI RETURNDATASIZE PUSH1 0x0 DUP1 RETURNDATACOPY RETURNDATASIZE PUSH1 0x0 REVERT JUMPDEST POP POP PUSH1 0x40 MLOAD PUSH2 0xFFFF DUP5 AND SWAP3 POP PUSH1 0x1 PUSH1 0x1 PUSH1 0xA0 SHL SUB DUP6 AND SWAP2 POP PUSH32 0x4ED3B726495C2DCA1FF1215D9CA54E1A4030ABB5E82B0F6CE55702416CEE853 SWAP1 PUSH1 0x0 SWAP1 LOG3 POP POP JUMP JUMPDEST PUSH2 0x6A3 CALLER PUSH2 0x56A JUMP JUMPDEST PUSH2 0x6BF JUMPI PUSH1 0x40 MLOAD PUSH3 0x461BCD PUSH1 0xE5 SHL DUP2 MSTORE PUSH1 0x4 ADD PUSH2 0x43C SWAP1 PUSH2 0x161C JUMP JUMPDEST PUSH1 0x3 SLOAD PUSH1 0x40 MLOAD PUSH4 0xA53410DD PUSH1 0xE0 SHL DUP2 MSTORE PUSH1 0x1 PUSH1 0x1 PUSH1 0xA0 SHL SUB DUP6 DUP2 AND PUSH1 0x4 DUP4 ADD MSTORE DUP5 DUP2 AND PUSH1 0x24 DUP4 ADD MSTORE PUSH2 0xFFFF DUP5 AND PUSH1 0x44 DUP4 ADD MSTORE SWAP1 SWAP2 AND SWAP1 PUSH4 0xA53410DD SWAP1 PUSH1 0x64 ADD PUSH1 0x0 PUSH1 0x40 MLOAD DUP1 DUP4 SUB DUP2 PUSH1 0x0 DUP8 DUP1 EXTCODESIZE ISZERO DUP1 ISZERO PUSH2 0x718 JUMPI PUSH1 0x0 DUP1 REVERT JUMPDEST POP GAS CALL ISZERO DUP1 ISZERO PUSH2 0x72C JUMPI RETURNDATASIZE PUSH1 0x0 DUP1 RETURNDATACOPY RETURNDATASIZE PUSH1 0x0 REVERT JUMPDEST POP POP PUSH1 0x40 MLOAD PUSH1 0x1 PUSH1 0x1 PUSH1 0xA0 SHL SUB DUP1 DUP7 AND SWAP4 POP DUP7 AND SWAP2 POP PUSH32 0x6AE73635C50D24A45AF6FBD5E016AC4BED179ADDBC8BF24E04FF0FCC6D33AF19 SWAP1 PUSH1 0x0 SWAP1 LOG3 POP POP POP JUMP JUMPDEST PUSH1 0x0 DUP1 PUSH2 0x779 DUP4 PUSH2 0x1068 JUMP JUMPDEST PUSH1 0x1 PUSH1 0x1 PUSH1 0xA0 SHL SUB AND SUB PUSH2 0x78F JUMPI POP PUSH1 0x0 SWAP2 SWAP1 POP JUMP JUMPDEST POP PUSH1 0x1 SWAP2 SWAP1 POP JUMP JUMPDEST PUSH1 0x0 JUMPDEST DUP6 DUP2 LT ISZERO PUSH2 0x82C JUMPI PUSH2 0x81A DUP8 DUP8 DUP4 DUP2 DUP2 LT PUSH2 0x7B7 JUMPI PUSH2 0x7B7 PUSH2 0x166A JUMP JUMPDEST SWAP1 POP PUSH1 0x20 MUL ADD PUSH1 0x20 DUP2 ADD SWAP1 PUSH2 0x7CC SWAP2 SWAP1 PUSH2 0x1424 JUMP JUMPDEST DUP7 DUP7 DUP5 DUP2 DUP2 LT PUSH2 0x7DE JUMPI PUSH2 0x7DE PUSH2 0x166A JUMP JUMPDEST SWAP1 POP PUSH1 0x20 MUL ADD PUSH1 0x20 DUP2 ADD SWAP1 PUSH2 0x7F3 SWAP2 SWAP1 PUSH2 0x1424 JUMP JUMPDEST DUP6 DUP6 DUP6 DUP2 DUP2 LT PUSH2 0x805 JUMPI PUSH2 0x805 PUSH2 0x166A JUMP JUMPDEST SWAP1 POP PUSH1 0x20 MUL ADD PUSH1 0x20 DUP2 ADD SWAP1 PUSH2 0x1DD SWAP2 SWAP1 PUSH2 0x1680 JUMP JUMPDEST DUP1 PUSH2 0x824 DUP2 PUSH2 0x16B3 JUMP JUMPDEST SWAP2 POP POP PUSH2 0x79A JUMP JUMPDEST POP POP POP POP POP POP POP JUMP JUMPDEST PUSH2 0x83D PUSH2 0x11A9 JUMP JUMPDEST PUSH1 0x1 DUP1 SLOAD PUSH1 0x1 PUSH1 0x1 PUSH1 0xA0 SHL SUB NOT AND PUSH1 0x1 PUSH1 0x1 PUSH1 0xA0 SHL SUB DUP4 AND SWAP1 DUP2 OR SWAP1 SWAP2 SSTORE PUSH1 0x40 MLOAD PUSH32 0x7170BF15B246E880B2369CD7C67D057760D8A35149E8C64DDE91EFA22BCC76D0 SWAP1 PUSH1 0x0 SWAP1 LOG2 POP JUMP JUMPDEST PUSH2 0x88F PUSH2 0x11A9 JUMP JUMPDEST PUSH2 0x899 PUSH1 0x0 PUSH2 0x1204 JUMP JUMPDEST JUMP JUMPDEST PUSH1 0x3 SLOAD PUSH1 0x40 MLOAD PUSH4 0x1C9F84EF PUSH1 0xE2 SHL DUP2 MSTORE PUSH1 0x1 PUSH1 0x1 PUSH1 0xA0 SHL SUB DUP4 DUP2 AND PUSH1 0x4 DUP4 ADD MSTORE PUSH1 0x0 SWAP3 AND SWAP1 PUSH4 0x727E13BC SWAP1 PUSH1 0x24 ADD PUSH1 0x20 PUSH1 0x40 MLOAD DUP1 DUP4 SUB DUP2 DUP7 GAS STATICCALL ISZERO DUP1 ISZERO PUSH2 0x8E6 JUMPI RETURNDATASIZE PUSH1 0x0 DUP1 RETURNDATACOPY RETURNDATASIZE PUSH1 0x0 REVERT JUMPDEST POP POP POP POP PUSH1 0x40 MLOAD RETURNDATASIZE PUSH1 0x1F NOT PUSH1 0x1F DUP3 ADD AND DUP3 ADD DUP1 PUSH1 0x40 MSTORE POP DUP2 ADD SWAP1 PUSH2 0x576 SWAP2 SWAP1 PUSH2 0x16CC JUMP JUMPDEST PUSH2 0x912 PUSH2 0x11A9 JUMP JUMPDEST PUSH1 0x1 PUSH1 0x1 PUSH1 0xA0 SHL SUB DUP2 AND PUSH2 0x938 JUMPI PUSH1 0x40 MLOAD PUSH3 0x461BCD PUSH1 0xE5 SHL DUP2 MSTORE PUSH1 0x4 ADD PUSH2 0x43C SWAP1 PUSH2 0x15E5 JUMP JUMPDEST PUSH2 0x943 PUSH1 0x0 DUP3 PUSH2 0x1275 JUMP JUMPDEST PUSH1 0x40 MLOAD PUSH1 0x1 PUSH1 0x1 PUSH1 0xA0 SHL SUB DUP3 AND SWAP1 PUSH32 0xF68E73CEC97F2D70AA641FB26E87A4383686E2EFACB648F2165AEB02AC562EC5 SWAP1 PUSH1 0x0 SWAP1 LOG2 POP JUMP JUMPDEST PUSH2 0x983 CALLER PUSH2 0x56A JUMP JUMPDEST PUSH2 0x99F JUMPI PUSH1 0x40 MLOAD PUSH3 0x461BCD PUSH1 0xE5 SHL DUP2 MSTORE PUSH1 0x4 ADD PUSH2 0x43C SWAP1 PUSH2 0x161C JUMP JUMPDEST PUSH1 0x0 PUSH2 0x9AA DUP4 PUSH2 0x1068 JUMP JUMPDEST PUSH1 0x3 SLOAD PUSH1 0x40 MLOAD PUSH4 0x7402E7C3 PUSH1 0xE1 SHL DUP2 MSTORE PUSH1 0x1 PUSH1 0x1 PUSH1 0xA0 SHL SUB DUP7 DUP2 AND PUSH1 0x4 DUP4 ADD MSTORE DUP6 DUP2 AND PUSH1 0x24 DUP4 ADD MSTORE SWAP3 SWAP4 POP SWAP2 AND SWAP1 PUSH4 0xE805CF86 SWAP1 PUSH1 0x44 ADD PUSH1 0x0 PUSH1 0x40 MLOAD DUP1 DUP4 SUB DUP2 PUSH1 0x0 DUP8 DUP1 EXTCODESIZE ISZERO DUP1 ISZERO PUSH2 0x9FB JUMPI PUSH1 0x0 DUP1 REVERT JUMPDEST POP GAS CALL ISZERO DUP1 ISZERO PUSH2 0xA0F JUMPI RETURNDATASIZE PUSH1 0x0 DUP1 RETURNDATACOPY RETURNDATASIZE PUSH1 0x0 REVERT JUMPDEST POP POP PUSH1 0x40 MLOAD PUSH1 0x1 PUSH1 0x1 PUSH1 0xA0 SHL SUB DUP1 DUP7 AND SWAP4 POP DUP5 AND SWAP2 POP PUSH32 0xE98082932C8056A0F514DA9104E4A66BC2CBAEF102AD59D90C4B24220EBF6010 SWAP1 PUSH1 0x0 SWAP1 LOG3 POP POP POP JUMP JUMPDEST PUSH2 0xA58 PUSH2 0x11A9 JUMP JUMPDEST PUSH1 0x1 PUSH1 0x1 PUSH1 0xA0 SHL SUB DUP2 AND PUSH2 0xA7E JUMPI PUSH1 0x40 MLOAD PUSH3 0x461BCD PUSH1 0xE5 SHL DUP2 MSTORE PUSH1 0x4 ADD PUSH2 0x43C SWAP1 PUSH2 0x15E5 JUMP JUMPDEST PUSH2 0xA89 PUSH1 0x0 DUP3 PUSH2 0x12F1 JUMP JUMPDEST PUSH1 0x40 MLOAD PUSH1 0x1 PUSH1 0x1 PUSH1 0xA0 SHL SUB DUP3 AND SWAP1 PUSH32 0xED9C8AD8D5A0A66898EA49D2956929C93AE2E8BD50281B2ED897C5D1A6737E0B SWAP1 PUSH1 0x0 SWAP1 LOG2 POP JUMP JUMPDEST PUSH2 0xAC9 CALLER PUSH2 0x56A JUMP JUMPDEST PUSH2 0xAE5 JUMPI PUSH1 0x40 MLOAD PUSH3 0x461BCD PUSH1 0xE5 SHL DUP2 MSTORE PUSH1 0x4 ADD PUSH2 0x43C SWAP1 PUSH2 0x161C JUMP JUMPDEST PUSH1 0x0 PUSH2 0xAF0 DUP3 PUSH2 0x1068 JUMP JUMPDEST PUSH1 0x3 SLOAD PUSH1 0x40 MLOAD PUSH4 0xCF191BCD PUSH1 0xE0 SHL DUP2 MSTORE PUSH1 0x1 PUSH1 0x1 PUSH1 0xA0 SHL SUB DUP6 DUP2 AND PUSH1 0x4 DUP4 ADD MSTORE SWAP3 SWAP4 POP SWAP2 AND SWAP1 PUSH4 0xCF191BCD SWAP1 PUSH1 0x24 ADD PUSH1 0x0 PUSH1 0x40 MLOAD DUP1 DUP4 SUB DUP2 PUSH1 0x0 DUP8 DUP1 EXTCODESIZE ISZERO DUP1 ISZERO PUSH2 0xB39 JUMPI PUSH1 0x0 DUP1 REVERT JUMPDEST POP GAS CALL ISZERO DUP1 ISZERO PUSH2 0xB4D JUMPI RETURNDATASIZE PUSH1 0x0 DUP1 RETURNDATACOPY RETURNDATASIZE PUSH1 0x0 REVERT JUMPDEST POP POP PUSH1 0x40 MLOAD PUSH1 0x1 PUSH1 0x1 PUSH1 0xA0 SHL SUB DUP1 DUP6 AND SWAP4 POP DUP6 AND SWAP2 POP PUSH32 0x59D6590E225B81BEFE259AF056324092801080ACBB7FEAB310EB34678871F327 SWAP1 PUSH1 0x0 SWAP1 LOG3 POP POP JUMP JUMPDEST PUSH1 0x0 DUP1 PUSH2 0xB99 DUP4 PUSH2 0x1068 JUMP JUMPDEST PUSH1 0x1 PUSH1 0x1 PUSH1 0xA0 SHL SUB AND SUB PUSH2 0xBAF JUMPI POP PUSH1 0x0 SWAP2 SWAP1 POP JUMP JUMPDEST PUSH1 0x1 SLOAD PUSH1 0x40 DUP1 MLOAD PUSH4 0x37C27581 PUSH1 0xE2 SHL DUP2 MSTORE SWAP1 MLOAD PUSH1 0x0 SWAP3 PUSH1 0x1 PUSH1 0x1 PUSH1 0xA0 SHL SUB AND SWAP2 PUSH4 0xDF09D604 SWAP2 PUSH1 0x4 DUP1 DUP4 ADD SWAP3 DUP7 SWAP3 SWAP2 SWAP1 DUP3 SWAP1 SUB ADD DUP2 DUP7 GAS STATICCALL ISZERO DUP1 ISZERO PUSH2 0xBF8 JUMPI RETURNDATASIZE PUSH1 0x0 DUP1 RETURNDATACOPY RETURNDATASIZE PUSH1 0x0 REVERT JUMPDEST POP POP POP POP PUSH1 0x40 MLOAD RETURNDATASIZE PUSH1 0x0 DUP3 RETURNDATACOPY PUSH1 0x1F RETURNDATASIZE SWAP1 DUP2 ADD PUSH1 0x1F NOT AND DUP3 ADD PUSH1 0x40 MSTORE PUSH2 0xC20 SWAP2 SWAP1 DUP2 ADD SWAP1 PUSH2 0x1754 JUMP JUMPDEST SWAP1 POP DUP1 MLOAD PUSH1 0x0 SUB PUSH2 0xC34 JUMPI POP PUSH1 0x1 SWAP3 SWAP2 POP POP JUMP JUMPDEST PUSH1 0x0 DUP1 PUSH1 0x0 PUSH1 0x60 DUP1 PUSH1 0x0 JUMPDEST DUP7 MLOAD DUP2 LT ISZERO PUSH2 0x1007 JUMPI PUSH1 0x2 SLOAD DUP8 MLOAD PUSH1 0x0 SWAP2 PUSH1 0x1 PUSH1 0x1 PUSH1 0xA0 SHL SUB AND SWAP1 PUSH4 0x52C111D1 SWAP1 DUP11 SWAP1 DUP6 SWAP1 DUP2 LT PUSH2 0xC72 JUMPI PUSH2 0xC72 PUSH2 0x166A JUMP JUMPDEST PUSH1 0x20 MUL PUSH1 0x20 ADD ADD MLOAD PUSH1 0x40 MLOAD DUP3 PUSH4 0xFFFFFFFF AND PUSH1 0xE0 SHL DUP2 MSTORE PUSH1 0x4 ADD PUSH2 0xC98 SWAP2 DUP2 MSTORE PUSH1 0x20 ADD SWAP1 JUMP JUMPDEST PUSH1 0x0 PUSH1 0x40 MLOAD DUP1 DUP4 SUB DUP2 DUP7 GAS STATICCALL ISZERO DUP1 ISZERO PUSH2 0xCB5 JUMPI RETURNDATASIZE PUSH1 0x0 DUP1 RETURNDATACOPY RETURNDATASIZE PUSH1 0x0 REVERT JUMPDEST POP POP POP POP PUSH1 0x40 MLOAD RETURNDATASIZE PUSH1 0x0 DUP3 RETURNDATACOPY PUSH1 0x1F RETURNDATASIZE SWAP1 DUP2 ADD PUSH1 0x1F NOT AND DUP3 ADD PUSH1 0x40 MSTORE PUSH2 0xCDD SWAP2 SWAP1 DUP2 ADD SWAP1 PUSH2 0x17EA JUMP JUMPDEST SWAP1 POP DUP1 MLOAD PUSH1 0x0 SUB PUSH2 0xCF8 JUMPI POP PUSH1 0x0 SWAP10 SWAP9 POP POP POP POP POP POP POP POP POP JUMP JUMPDEST PUSH1 0x0 DUP2 MLOAD PUSH8 0xFFFFFFFFFFFFFFFF DUP2 GT ISZERO PUSH2 0xD14 JUMPI PUSH2 0xD14 PUSH2 0x16E9 JUMP JUMPDEST PUSH1 0x40 MLOAD SWAP1 DUP1 DUP3 MSTORE DUP1 PUSH1 0x20 MUL PUSH1 0x20 ADD DUP3 ADD PUSH1 0x40 MSTORE DUP1 ISZERO PUSH2 0xD3D JUMPI DUP2 PUSH1 0x20 ADD PUSH1 0x20 DUP3 MUL DUP1 CALLDATASIZE DUP4 CALLDATACOPY ADD SWAP1 POP JUMPDEST POP SWAP1 POP PUSH1 0x0 JUMPDEST DUP3 MLOAD DUP2 LT ISZERO PUSH2 0xDEA JUMPI DUP3 DUP2 DUP2 MLOAD DUP2 LT PUSH2 0xD5E JUMPI PUSH2 0xD5E PUSH2 0x166A JUMP JUMPDEST PUSH1 0x20 MUL PUSH1 0x20 ADD ADD MLOAD DUP11 DUP6 DUP2 MLOAD DUP2 LT PUSH2 0xD78 JUMPI PUSH2 0xD78 PUSH2 0x166A JUMP JUMPDEST PUSH1 0x20 MUL PUSH1 0x20 ADD ADD MLOAD PUSH1 0x40 MLOAD PUSH1 0x20 ADD PUSH2 0xDA5 SWAP3 SWAP2 SWAP1 PUSH1 0x1 PUSH1 0x1 PUSH1 0xA0 SHL SUB SWAP3 SWAP1 SWAP3 AND DUP3 MSTORE PUSH1 0x20 DUP3 ADD MSTORE PUSH1 0x40 ADD SWAP1 JUMP JUMPDEST PUSH1 0x40 MLOAD PUSH1 0x20 DUP2 DUP4 SUB SUB DUP2 MSTORE SWAP1 PUSH1 0x40 MSTORE DUP1 MLOAD SWAP1 PUSH1 0x20 ADD KECCAK256 DUP3 DUP3 DUP2 MLOAD DUP2 LT PUSH2 0xDCD JUMPI PUSH2 0xDCD PUSH2 0x166A JUMP JUMPDEST PUSH1 0x20 SWAP1 DUP2 MUL SWAP2 SWAP1 SWAP2 ADD ADD MSTORE DUP1 PUSH2 0xDE2 DUP2 PUSH2 0x16B3 JUMP JUMPDEST SWAP2 POP POP PUSH2 0xD43 JUMP JUMPDEST POP PUSH1 0x0 JUMPDEST DUP2 MLOAD DUP2 LT ISZERO PUSH2 0xFF1 JUMPI PUSH2 0xE00 DUP13 PUSH2 0x1068 JUMP JUMPDEST PUSH1 0x1 PUSH1 0x1 PUSH1 0xA0 SHL SUB AND PUSH4 0xC9100BCB DUP4 DUP4 DUP2 MLOAD DUP2 LT PUSH2 0xE20 JUMPI PUSH2 0xE20 PUSH2 0x166A JUMP JUMPDEST PUSH1 0x20 MUL PUSH1 0x20 ADD ADD MLOAD PUSH1 0x40 MLOAD DUP3 PUSH4 0xFFFFFFFF AND PUSH1 0xE0 SHL DUP2 MSTORE PUSH1 0x4 ADD PUSH2 0xE46 SWAP2 DUP2 MSTORE PUSH1 0x20 ADD SWAP1 JUMP JUMPDEST PUSH1 0x0 PUSH1 0x40 MLOAD DUP1 DUP4 SUB DUP2 DUP7 GAS STATICCALL ISZERO DUP1 ISZERO PUSH2 0xE63 JUMPI RETURNDATASIZE PUSH1 0x0 DUP1 RETURNDATACOPY RETURNDATASIZE PUSH1 0x0 REVERT JUMPDEST POP POP POP POP PUSH1 0x40 MLOAD RETURNDATASIZE PUSH1 0x0 DUP3 RETURNDATACOPY PUSH1 0x1F RETURNDATASIZE SWAP1 DUP2 ADD PUSH1 0x1F NOT AND DUP3 ADD PUSH1 0x40 MSTORE PUSH2 0xE8B SWAP2 SWAP1 DUP2 ADD SWAP1 PUSH2 0x190C JUMP JUMPDEST POP DUP15 MLOAD SWAP5 SWAP14 POP SWAP3 SWAP12 POP SWAP1 SWAP10 POP SWAP8 POP SWAP6 POP DUP11 SWAP1 DUP6 SWAP1 DUP2 LT PUSH2 0xEAD JUMPI PUSH2 0xEAD PUSH2 0x166A JUMP JUMPDEST PUSH1 0x20 MUL PUSH1 0x20 ADD ADD MLOAD DUP10 SUB PUSH2 0xFB9 JUMPI DUP7 PUSH1 0x1 PUSH1 0x1 PUSH1 0xA0 SHL SUB AND PUSH4 0xC0969A6E PUSH2 0xED3 DUP15 PUSH2 0x1068 JUMP JUMPDEST DUP13 DUP8 DUP2 MLOAD DUP2 LT PUSH2 0xEE5 JUMPI PUSH2 0xEE5 PUSH2 0x166A JUMP JUMPDEST PUSH1 0x20 MUL PUSH1 0x20 ADD ADD MLOAD DUP10 DUP10 PUSH1 0x40 MLOAD DUP6 PUSH4 0xFFFFFFFF AND PUSH1 0xE0 SHL DUP2 MSTORE PUSH1 0x4 ADD PUSH2 0xF0E SWAP5 SWAP4 SWAP3 SWAP2 SWAP1 PUSH2 0x19FA JUMP JUMPDEST PUSH1 0x20 PUSH1 0x40 MLOAD DUP1 DUP4 SUB DUP2 DUP7 GAS STATICCALL SWAP3 POP POP POP DUP1 ISZERO PUSH2 0xF47 JUMPI POP PUSH1 0x40 DUP1 MLOAD PUSH1 0x1F RETURNDATASIZE SWAP1 DUP2 ADD PUSH1 0x1F NOT AND DUP3 ADD SWAP1 SWAP3 MSTORE PUSH2 0xF44 SWAP2 DUP2 ADD SWAP1 PUSH2 0x1A33 JUMP JUMPDEST PUSH1 0x1 JUMPDEST PUSH2 0xF76 JUMPI PUSH1 0x1 DUP3 MLOAD PUSH2 0xF59 SWAP2 SWAP1 PUSH2 0x1A55 JUMP JUMPDEST DUP2 SUB PUSH2 0xF71 JUMPI POP PUSH1 0x0 SWAP12 SWAP11 POP POP POP POP POP POP POP POP POP POP POP JUMP JUMPDEST PUSH2 0xFDF JUMP JUMPDEST DUP1 ISZERO PUSH2 0xF81 JUMPI DUP3 MLOAD SWAP2 POP JUMPDEST DUP1 ISZERO DUP1 ISZERO PUSH2 0xF9B JUMPI POP PUSH1 0x1 DUP4 MLOAD PUSH2 0xF98 SWAP2 SWAP1 PUSH2 0x1A55 JUMP JUMPDEST DUP3 EQ JUMPDEST ISZERO PUSH2 0xFB3 JUMPI POP PUSH1 0x0 SWAP13 SWAP12 POP POP POP POP POP POP POP POP POP POP POP POP JUMP JUMPDEST POP PUSH2 0xFDF JUMP JUMPDEST PUSH1 0x1 DUP3 MLOAD PUSH2 0xFC7 SWAP2 SWAP1 PUSH2 0x1A55 JUMP JUMPDEST DUP2 SUB PUSH2 0xFDF JUMPI POP PUSH1 0x0 SWAP12 SWAP11 POP POP POP POP POP POP POP POP POP POP POP JUMP JUMPDEST DUP1 PUSH2 0xFE9 DUP2 PUSH2 0x16B3 JUMP JUMPDEST SWAP2 POP POP PUSH2 0xDEE JUMP JUMPDEST POP POP POP DUP1 DUP1 PUSH2 0xFFF SWAP1 PUSH2 0x16B3 JUMP JUMPDEST SWAP2 POP POP PUSH2 0xC3F JUMP JUMPDEST POP PUSH1 0x1 SWAP9 SWAP8 POP POP POP POP POP POP POP POP JUMP JUMPDEST PUSH2 0x101E PUSH2 0x11A9 JUMP JUMPDEST PUSH1 0x2 DUP1 SLOAD PUSH1 0x1 PUSH1 0x1 PUSH1 0xA0 SHL SUB NOT AND PUSH1 0x1 PUSH1 0x1 PUSH1 0xA0 SHL SUB DUP4 AND SWAP1 DUP2 OR SWAP1 SWAP2 SSTORE PUSH1 0x40 MLOAD PUSH32 0x1B98CB79E6F73020175FE87333F1B91AD6A881519C0AFE30340C2599B2B4BDE0 SWAP1 PUSH1 0x0 SWAP1 LOG2 POP JUMP JUMPDEST PUSH1 0x3 SLOAD PUSH1 0x40 MLOAD PUSH4 0x7988D3A5 PUSH1 0xE0 SHL DUP2 MSTORE PUSH1 0x1 PUSH1 0x1 PUSH1 0xA0 SHL SUB DUP4 DUP2 AND PUSH1 0x4 DUP4 ADD MSTORE PUSH1 0x0 SWAP3 AND SWAP1 PUSH4 0x7988D3A5 SWAP1 PUSH1 0x24 ADD PUSH1 0x20 PUSH1 0x40 MLOAD DUP1 DUP4 SUB DUP2 DUP7 GAS STATICCALL ISZERO DUP1 ISZERO PUSH2 0x10B3 JUMPI RETURNDATASIZE PUSH1 0x0 DUP1 RETURNDATACOPY RETURNDATASIZE PUSH1 0x0 REVERT JUMPDEST POP POP POP POP PUSH1 0x40 MLOAD RETURNDATASIZE PUSH1 0x1F NOT PUSH1 0x1F DUP3 ADD AND DUP3 ADD DUP1 PUSH1 0x40 MSTORE POP DUP2 ADD SWAP1 PUSH2 0x576 SWAP2 SWAP1 PUSH2 0x1A68 JUMP JUMPDEST PUSH2 0x10DF PUSH2 0x11A9 JUMP JUMPDEST PUSH1 0x1 PUSH1 0x1 PUSH1 0xA0 SHL SUB DUP2 AND PUSH2 0x1109 JUMPI PUSH1 0x40 MLOAD PUSH4 0x1E4FBDF7 PUSH1 0xE0 SHL DUP2 MSTORE PUSH1 0x0 PUSH1 0x4 DUP3 ADD MSTORE PUSH1 0x24 ADD PUSH2 0x43C JUMP JUMPDEST PUSH2 0x1112 DUP2 PUSH2 0x1204 JUMP JUMPDEST POP JUMP JUMPDEST PUSH2 0x111D PUSH2 0x1373 JUMP JUMPDEST PUSH2 0x1112 DUP2 PUSH2 0x13BC JUMP JUMPDEST PUSH1 0x0 PUSH1 0x1 PUSH1 0x1 PUSH1 0xA0 SHL SUB DUP3 AND PUSH2 0x1189 JUMPI PUSH1 0x40 MLOAD PUSH3 0x461BCD PUSH1 0xE5 SHL DUP2 MSTORE PUSH1 0x20 PUSH1 0x4 DUP3 ADD MSTORE PUSH1 0x22 PUSH1 0x24 DUP3 ADD MSTORE PUSH32 0x526F6C65733A206163636F756E7420697320746865207A65726F206164647265 PUSH1 0x44 DUP3 ADD MSTORE PUSH2 0x7373 PUSH1 0xF0 SHL PUSH1 0x64 DUP3 ADD MSTORE PUSH1 0x84 ADD PUSH2 0x43C JUMP JUMPDEST POP PUSH1 0x1 PUSH1 0x1 PUSH1 0xA0 SHL SUB AND PUSH1 0x0 SWAP1 DUP2 MSTORE PUSH1 0x20 SWAP2 SWAP1 SWAP2 MSTORE PUSH1 0x40 SWAP1 KECCAK256 SLOAD PUSH1 0xFF AND SWAP1 JUMP JUMPDEST CALLER PUSH2 0x11DB PUSH32 0x9016D09D72D40FDAE2FD8CEAC6B6234C7706214FD39C1CD1E609A0528C199300 SLOAD PUSH1 0x1 PUSH1 0x1 PUSH1 0xA0 SHL SUB AND SWAP1 JUMP JUMPDEST PUSH1 0x1 PUSH1 0x1 PUSH1 0xA0 SHL SUB AND EQ PUSH2 0x899 JUMPI PUSH1 0x40 MLOAD PUSH4 0x118CDAA7 PUSH1 0xE0 SHL DUP2 MSTORE CALLER PUSH1 0x4 DUP3 ADD MSTORE PUSH1 0x24 ADD PUSH2 0x43C JUMP JUMPDEST PUSH32 0x9016D09D72D40FDAE2FD8CEAC6B6234C7706214FD39C1CD1E609A0528C199300 DUP1 SLOAD PUSH1 0x1 PUSH1 0x1 PUSH1 0xA0 SHL SUB NOT DUP2 AND PUSH1 0x1 PUSH1 0x1 PUSH1 0xA0 SHL SUB DUP5 DUP2 AND SWAP2 DUP3 OR DUP5 SSTORE PUSH1 0x40 MLOAD SWAP3 AND SWAP2 DUP3 SWAP1 PUSH32 0x8BE0079C531659141344CD1FD0A4F28419497F9722A3DAAFE3B4186F6B6457E0 SWAP1 PUSH1 0x0 SWAP1 LOG3 POP POP POP JUMP JUMPDEST PUSH2 0x127F DUP3 DUP3 PUSH2 0x1126 JUMP JUMPDEST ISZERO PUSH2 0x12CC JUMPI PUSH1 0x40 MLOAD PUSH3 0x461BCD PUSH1 0xE5 SHL DUP2 MSTORE PUSH1 0x20 PUSH1 0x4 DUP3 ADD MSTORE PUSH1 0x1F PUSH1 0x24 DUP3 ADD MSTORE PUSH32 0x526F6C65733A206163636F756E7420616C72656164792068617320726F6C6500 PUSH1 0x44 DUP3 ADD MSTORE PUSH1 0x64 ADD PUSH2 0x43C JUMP JUMPDEST PUSH1 0x1 PUSH1 0x1 PUSH1 0xA0 SHL SUB AND PUSH1 0x0 SWAP1 DUP2 MSTORE PUSH1 0x20 SWAP2 SWAP1 SWAP2 MSTORE PUSH1 0x40 SWAP1 KECCAK256 DUP1 SLOAD PUSH1 0xFF NOT AND PUSH1 0x1 OR SWAP1 SSTORE JUMP JUMPDEST PUSH2 0x12FB DUP3 DUP3 PUSH2 0x1126 JUMP JUMPDEST PUSH2 0x1351 JUMPI PUSH1 0x40 MLOAD PUSH3 0x461BCD PUSH1 0xE5 SHL DUP2 MSTORE PUSH1 0x20 PUSH1 0x4 DUP3 ADD MSTORE PUSH1 0x21 PUSH1 0x24 DUP3 ADD MSTORE PUSH32 0x526F6C65733A206163636F756E7420646F6573206E6F74206861766520726F6C PUSH1 0x44 DUP3 ADD MSTORE PUSH1 0x65 PUSH1 0xF8 SHL PUSH1 0x64 DUP3 ADD MSTORE PUSH1 0x84 ADD PUSH2 0x43C JUMP JUMPDEST PUSH1 0x1 PUSH1 0x1 PUSH1 0xA0 SHL SUB AND PUSH1 0x0 SWAP1 DUP2 MSTORE PUSH1 0x20 SWAP2 SWAP1 SWAP2 MSTORE PUSH1 0x40 SWAP1 KECCAK256 DUP1 SLOAD PUSH1 0xFF NOT AND SWAP1 SSTORE JUMP JUMPDEST PUSH32 0xF0C57E16840DF040F15088DC2F81FE391C3923BEC73E23A9662EFC9C229C6A00 SLOAD PUSH1 0x1 PUSH1 0x40 SHL SWAP1 DIV PUSH1 0xFF AND PUSH2 0x899 JUMPI PUSH1 0x40 MLOAD PUSH4 0x1AFCD79F PUSH1 0xE3 SHL DUP2 MSTORE PUSH1 0x4 ADD PUSH1 0x40 MLOAD DUP1 SWAP2 SUB SWAP1 REVERT JUMPDEST PUSH2 0x10DF PUSH2 0x1373 JUMP JUMPDEST PUSH1 0x1 PUSH1 0x1 PUSH1 0xA0 SHL SUB DUP2 AND DUP2 EQ PUSH2 0x1112 JUMPI PUSH1 0x0 DUP1 REVERT JUMPDEST PUSH1 0x0 DUP1 PUSH1 0x0 PUSH1 0x60 DUP5 DUP7 SUB SLT ISZERO PUSH2 0x13EE JUMPI PUSH1 0x0 DUP1 REVERT JUMPDEST DUP4 CALLDATALOAD PUSH2 0x13F9 DUP2 PUSH2 0x13C4 JUMP JUMPDEST SWAP3 POP PUSH1 0x20 DUP5 ADD CALLDATALOAD PUSH2 0x1409 DUP2 PUSH2 0x13C4 JUMP JUMPDEST SWAP2 POP PUSH1 0x40 DUP5 ADD CALLDATALOAD PUSH2 0x1419 DUP2 PUSH2 0x13C4 JUMP JUMPDEST DUP1 SWAP2 POP POP SWAP3 POP SWAP3 POP SWAP3 JUMP JUMPDEST PUSH1 0x0 PUSH1 0x20 DUP3 DUP5 SUB SLT ISZERO PUSH2 0x1436 JUMPI PUSH1 0x0 DUP1 REVERT JUMPDEST DUP2 CALLDATALOAD PUSH2 0x1441 DUP2 PUSH2 0x13C4 JUMP JUMPDEST SWAP4 SWAP3 POP POP POP JUMP JUMPDEST PUSH2 0xFFFF DUP2 AND DUP2 EQ PUSH2 0x1112 JUMPI PUSH1 0x0 DUP1 REVERT JUMPDEST PUSH1 0x0 DUP1 PUSH1 0x40 DUP4 DUP6 SUB SLT ISZERO PUSH2 0x146B JUMPI PUSH1 0x0 DUP1 REVERT JUMPDEST DUP3 CALLDATALOAD PUSH2 0x1476 DUP2 PUSH2 0x13C4 JUMP JUMPDEST SWAP2 POP PUSH1 0x20 DUP4 ADD CALLDATALOAD PUSH2 0x1486 DUP2 PUSH2 0x1448 JUMP JUMPDEST DUP1 SWAP2 POP POP SWAP3 POP SWAP3 SWAP1 POP JUMP JUMPDEST PUSH1 0x0 DUP1 PUSH1 0x0 PUSH1 0x60 DUP5 DUP7 SUB SLT ISZERO PUSH2 0x14A6 JUMPI PUSH1 0x0 DUP1 REVERT JUMPDEST DUP4 CALLDATALOAD PUSH2 0x14B1 DUP2 PUSH2 0x13C4 JUMP JUMPDEST SWAP3 POP PUSH1 0x20 DUP5 ADD CALLDATALOAD PUSH2 0x14C1 DUP2 PUSH2 0x13C4 JUMP JUMPDEST SWAP2 POP PUSH1 0x40 DUP5 ADD CALLDATALOAD PUSH2 0x1419 DUP2 PUSH2 0x1448 JUMP JUMPDEST PUSH1 0x0 DUP1 DUP4 PUSH1 0x1F DUP5 ADD SLT PUSH2 0x14E3 JUMPI PUSH1 0x0 DUP1 REVERT JUMPDEST POP DUP2 CALLDATALOAD PUSH8 0xFFFFFFFFFFFFFFFF DUP2 GT ISZERO PUSH2 0x14FB JUMPI PUSH1 0x0 DUP1 REVERT JUMPDEST PUSH1 0x20 DUP4 ADD SWAP2 POP DUP4 PUSH1 0x20 DUP3 PUSH1 0x5 SHL DUP6 ADD ADD GT ISZERO PUSH2 0x1516 JUMPI PUSH1 0x0 DUP1 REVERT JUMPDEST SWAP3 POP SWAP3 SWAP1 POP JUMP JUMPDEST PUSH1 0x0 DUP1 PUSH1 0x0 DUP1 PUSH1 0x0 DUP1 PUSH1 0x60 DUP8 DUP10 SUB SLT ISZERO PUSH2 0x1536 JUMPI PUSH1 0x0 DUP1 REVERT JUMPDEST DUP7 CALLDATALOAD PUSH8 0xFFFFFFFFFFFFFFFF DUP1 DUP3 GT ISZERO PUSH2 0x154E JUMPI PUSH1 0x0 DUP1 REVERT JUMPDEST PUSH2 0x155A DUP11 DUP4 DUP12 ADD PUSH2 0x14D1 JUMP JUMPDEST SWAP1 SWAP9 POP SWAP7 POP PUSH1 0x20 DUP10 ADD CALLDATALOAD SWAP2 POP DUP1 DUP3 GT ISZERO PUSH2 0x1573 JUMPI PUSH1 0x0 DUP1 REVERT JUMPDEST PUSH2 0x157F DUP11 DUP4 DUP12 ADD PUSH2 0x14D1 JUMP JUMPDEST SWAP1 SWAP7 POP SWAP5 POP PUSH1 0x40 DUP10 ADD CALLDATALOAD SWAP2 POP DUP1 DUP3 GT ISZERO PUSH2 0x1598 JUMPI PUSH1 0x0 DUP1 REVERT JUMPDEST POP PUSH2 0x15A5 DUP10 DUP3 DUP11 ADD PUSH2 0x14D1 JUMP JUMPDEST SWAP8 SWAP11 SWAP7 SWAP10 POP SWAP5 SWAP8 POP SWAP3 SWAP6 SWAP4 SWAP5 SWAP3 POP POP POP JUMP JUMPDEST PUSH1 0x0 DUP1 PUSH1 0x40 DUP4 DUP6 SUB SLT ISZERO PUSH2 0x15CA JUMPI PUSH1 0x0 DUP1 REVERT JUMPDEST DUP3 CALLDATALOAD PUSH2 0x15D5 DUP2 PUSH2 0x13C4 JUMP JUMPDEST SWAP2 POP PUSH1 0x20 DUP4 ADD CALLDATALOAD PUSH2 0x1486 DUP2 PUSH2 0x13C4 JUMP JUMPDEST PUSH1 0x20 DUP1 DUP3 MSTORE PUSH1 0x1F SWAP1 DUP3 ADD MSTORE PUSH32 0x696E76616C696420617267756D656E74202D207A65726F206164647265737300 PUSH1 0x40 DUP3 ADD MSTORE PUSH1 0x60 ADD SWAP1 JUMP JUMPDEST PUSH1 0x20 DUP1 DUP3 MSTORE PUSH1 0x2E SWAP1 DUP3 ADD MSTORE PUSH32 0x4167656E74526F6C653A2063616C6C657220646F6573206E6F74206861766520 PUSH1 0x40 DUP3 ADD MSTORE PUSH14 0x746865204167656E7420726F6C65 PUSH1 0x90 SHL PUSH1 0x60 DUP3 ADD MSTORE PUSH1 0x80 ADD SWAP1 JUMP JUMPDEST PUSH4 0x4E487B71 PUSH1 0xE0 SHL PUSH1 0x0 MSTORE PUSH1 0x32 PUSH1 0x4 MSTORE PUSH1 0x24 PUSH1 0x0 REVERT JUMPDEST PUSH1 0x0 PUSH1 0x20 DUP3 DUP5 SUB SLT ISZERO PUSH2 0x1692 JUMPI PUSH1 0x0 DUP1 REVERT JUMPDEST DUP2 CALLDATALOAD PUSH2 0x1441 DUP2 PUSH2 0x1448 JUMP JUMPDEST PUSH4 0x4E487B71 PUSH1 0xE0 SHL PUSH1 0x0 MSTORE PUSH1 0x11 PUSH1 0x4 MSTORE PUSH1 0x24 PUSH1 0x0 REVERT JUMPDEST PUSH1 0x0 PUSH1 0x1 DUP3 ADD PUSH2 0x16C5 JUMPI PUSH2 0x16C5 PUSH2 0x169D JUMP JUMPDEST POP PUSH1 0x1 ADD SWAP1 JUMP JUMPDEST PUSH1 0x0 PUSH1 0x20 DUP3 DUP5 SUB SLT ISZERO PUSH2 0x16DE JUMPI PUSH1 0x0 DUP1 REVERT JUMPDEST DUP2 MLOAD PUSH2 0x1441 DUP2 PUSH2 0x1448 JUMP JUMPDEST PUSH4 0x4E487B71 PUSH1 0xE0 SHL PUSH1 0x0 MSTORE PUSH1 0x41 PUSH1 0x4 MSTORE PUSH1 0x24 PUSH1 0x0 REVERT JUMPDEST PUSH1 0x40 MLOAD PUSH1 0x1F DUP3 ADD PUSH1 0x1F NOT AND DUP2 ADD PUSH8 0xFFFFFFFFFFFFFFFF DUP2 GT DUP3 DUP3 LT OR ISZERO PUSH2 0x1728 JUMPI PUSH2 0x1728 PUSH2 0x16E9 JUMP JUMPDEST PUSH1 0x40 MSTORE SWAP2 SWAP1 POP JUMP JUMPDEST PUSH1 0x0 PUSH8 0xFFFFFFFFFFFFFFFF DUP3 GT ISZERO PUSH2 0x174A JUMPI PUSH2 0x174A PUSH2 0x16E9 JUMP JUMPDEST POP PUSH1 0x5 SHL PUSH1 0x20 ADD SWAP1 JUMP JUMPDEST PUSH1 0x0 PUSH1 0x20 DUP1 DUP4 DUP6 SUB SLT ISZERO PUSH2 0x1767 JUMPI PUSH1 0x0 DUP1 REVERT JUMPDEST DUP3 MLOAD PUSH8 0xFFFFFFFFFFFFFFFF DUP2 GT ISZERO PUSH2 0x177E JUMPI PUSH1 0x0 DUP1 REVERT JUMPDEST DUP4 ADD PUSH1 0x1F DUP2 ADD DUP6 SGT PUSH2 0x178F JUMPI PUSH1 0x0 DUP1 REVERT JUMPDEST DUP1 MLOAD PUSH2 0x17A2 PUSH2 0x179D DUP3 PUSH2 0x1730 JUMP JUMPDEST PUSH2 0x16FF JUMP JUMPDEST DUP2 DUP2 MSTORE PUSH1 0x5 SWAP2 SWAP1 SWAP2 SHL DUP3 ADD DUP4 ADD SWAP1 DUP4 DUP2 ADD SWAP1 DUP8 DUP4 GT ISZERO PUSH2 0x17C1 JUMPI PUSH1 0x0 DUP1 REVERT JUMPDEST SWAP3 DUP5 ADD SWAP3 JUMPDEST DUP3 DUP5 LT ISZERO PUSH2 0x17DF JUMPI DUP4 MLOAD DUP3 MSTORE SWAP3 DUP5 ADD SWAP3 SWAP1 DUP5 ADD SWAP1 PUSH2 0x17C6 JUMP JUMPDEST SWAP8 SWAP7 POP POP POP POP POP POP POP JUMP JUMPDEST PUSH1 0x0 PUSH1 0x20 DUP1 DUP4 DUP6 SUB SLT ISZERO PUSH2 0x17FD JUMPI PUSH1 0x0 DUP1 REVERT JUMPDEST DUP3 MLOAD PUSH8 0xFFFFFFFFFFFFFFFF DUP2 GT ISZERO PUSH2 0x1814 JUMPI PUSH1 0x0 DUP1 REVERT JUMPDEST DUP4 ADD PUSH1 0x1F DUP2 ADD DUP6 SGT PUSH2 0x1825 JUMPI PUSH1 0x0 DUP1 REVERT JUMPDEST DUP1 MLOAD PUSH2 0x1833 PUSH2 0x179D DUP3 PUSH2 0x1730 JUMP JUMPDEST DUP2 DUP2 MSTORE PUSH1 0x5 SWAP2 SWAP1 SWAP2 SHL DUP3 ADD DUP4 ADD SWAP1 DUP4 DUP2 ADD SWAP1 DUP8 DUP4 GT ISZERO PUSH2 0x1852 JUMPI PUSH1 0x0 DUP1 REVERT JUMPDEST SWAP3 DUP5 ADD SWAP3 JUMPDEST DUP3 DUP5 LT ISZERO PUSH2 0x17DF JUMPI DUP4 MLOAD PUSH2 0x186A DUP2 PUSH2 0x13C4 JUMP JUMPDEST DUP3 MSTORE SWAP3 DUP5 ADD SWAP3 SWAP1 DUP5 ADD SWAP1 PUSH2 0x1857 JUMP JUMPDEST PUSH1 0x0 JUMPDEST DUP4 DUP2 LT ISZERO PUSH2 0x1894 JUMPI DUP2 DUP2 ADD MLOAD DUP4 DUP3 ADD MSTORE PUSH1 0x20 ADD PUSH2 0x187C JUMP JUMPDEST POP POP PUSH1 0x0 SWAP2 ADD MSTORE JUMP JUMPDEST PUSH1 0x0 PUSH8 0xFFFFFFFFFFFFFFFF DUP4 GT ISZERO PUSH2 0x18B7 JUMPI PUSH2 0x18B7 PUSH2 0x16E9 JUMP JUMPDEST PUSH2 0x18CA PUSH1 0x1F DUP5 ADD PUSH1 0x1F NOT AND PUSH1 0x20 ADD PUSH2 0x16FF JUMP JUMPDEST SWAP1 POP DUP3 DUP2 MSTORE DUP4 DUP4 DUP4 ADD GT ISZERO PUSH2 0x18DE JUMPI PUSH1 0x0 DUP1 REVERT JUMPDEST PUSH2 0x1441 DUP4 PUSH1 0x20 DUP4 ADD DUP5 PUSH2 0x1879 JUMP JUMPDEST PUSH1 0x0 DUP3 PUSH1 0x1F DUP4 ADD SLT PUSH2 0x18FD JUMPI PUSH1 0x0 DUP1 REVERT JUMPDEST PUSH2 0x1441 DUP4 DUP4 MLOAD PUSH1 0x20 DUP6 ADD PUSH2 0x189D JUMP JUMPDEST PUSH1 0x0 DUP1 PUSH1 0x0 DUP1 PUSH1 0x0 DUP1 PUSH1 0xC0 DUP8 DUP10 SUB SLT ISZERO PUSH2 0x1925 JUMPI PUSH1 0x0 DUP1 REVERT JUMPDEST DUP7 MLOAD SWAP6 POP PUSH1 0x20 DUP8 ADD MLOAD SWAP5 POP PUSH1 0x40 DUP8 ADD MLOAD PUSH2 0x193E DUP2 PUSH2 0x13C4 JUMP JUMPDEST PUSH1 0x60 DUP9 ADD MLOAD SWAP1 SWAP5 POP PUSH8 0xFFFFFFFFFFFFFFFF DUP1 DUP3 GT ISZERO PUSH2 0x195C JUMPI PUSH1 0x0 DUP1 REVERT JUMPDEST PUSH2 0x1968 DUP11 DUP4 DUP12 ADD PUSH2 0x18EC JUMP JUMPDEST SWAP5 POP PUSH1 0x80 DUP10 ADD MLOAD SWAP2 POP DUP1 DUP3 GT ISZERO PUSH2 0x197E JUMPI PUSH1 0x0 DUP1 REVERT JUMPDEST PUSH2 0x198A DUP11 DUP4 DUP12 ADD PUSH2 0x18EC JUMP JUMPDEST SWAP4 POP PUSH1 0xA0 DUP10 ADD MLOAD SWAP2 POP DUP1 DUP3 GT ISZERO PUSH2 0x19A0 JUMPI PUSH1 0x0 DUP1 REVERT JUMPDEST POP DUP8 ADD PUSH1 0x1F DUP2 ADD DUP10 SGT PUSH2 0x19B2 JUMPI PUSH1 0x0 DUP1 REVERT JUMPDEST PUSH2 0x19C1 DUP10 DUP3 MLOAD PUSH1 0x20 DUP5 ADD PUSH2 0x189D JUMP JUMPDEST SWAP2 POP POP SWAP3 SWAP6 POP SWAP3 SWAP6 POP SWAP3 SWAP6 JUMP JUMPDEST PUSH1 0x0 DUP2 MLOAD DUP1 DUP5 MSTORE PUSH2 0x19E6 DUP2 PUSH1 0x20 DUP7 ADD PUSH1 0x20 DUP7 ADD PUSH2 0x1879 JUMP JUMPDEST PUSH1 0x1F ADD PUSH1 0x1F NOT AND SWAP3 SWAP1 SWAP3 ADD PUSH1 0x20 ADD SWAP3 SWAP2 POP POP JUMP JUMPDEST PUSH1 0x1 DUP1 PUSH1 0xA0 SHL SUB DUP6 AND DUP2 MSTORE DUP4 PUSH1 0x20 DUP3 ADD MSTORE PUSH1 0x80 PUSH1 0x40 DUP3 ADD MSTORE PUSH1 0x0 PUSH2 0x1A21 PUSH1 0x80 DUP4 ADD DUP6 PUSH2 0x19CE JUMP JUMPDEST DUP3 DUP2 SUB PUSH1 0x60 DUP5 ADD MSTORE PUSH2 0x17DF DUP2 DUP6 PUSH2 0x19CE JUMP JUMPDEST PUSH1 0x0 PUSH1 0x20 DUP3 DUP5 SUB SLT ISZERO PUSH2 0x1A45 JUMPI PUSH1 0x0 DUP1 REVERT JUMPDEST DUP2 MLOAD DUP1 ISZERO ISZERO DUP2 EQ PUSH2 0x1441 JUMPI PUSH1 0x0 DUP1 REVERT JUMPDEST DUP2 DUP2 SUB DUP2 DUP2 GT ISZERO PUSH2 0x576 JUMPI PUSH2 0x576 PUSH2 0x169D JUMP JUMPDEST PUSH1 0x0 PUSH1 0x20 DUP3 DUP5 SUB SLT ISZERO PUSH2 0x1A7A JUMPI PUSH1 0x0 DUP1 REVERT JUMPDEST DUP2 MLOAD PUSH2 0x1441 DUP2 PUSH2 0x13C4 JUMP INVALID LOG2 PUSH5 0x6970667358 0x22 SLT KECCAK256 PUSH18 0x21DD261CCCD5DF3ED945917028FCAD6BED79 0xBB 0xF8 0xC7 0xBD DUP6 0xD5 GAS SWAP6 0xCD DUP13 0xBF XOR EXTCODESIZE PUSH5 0x736F6C6343 STOP ADDMOD GT STOP CALLER "
		},
		"gasEstimates": {
			"creation": {
				"codeDepositCost": "1368600",
				"executionCost": "1424",
				"totalCost": "1370024"
			},
			"external": {
				"addAgent(address)": "30353",
				"batchRegisterIdentity(address[],address[],uint16[])": "infinite",
				"contains(address)": "infinite",
				"deleteIdentity(address)": "infinite",
				"identity(address)": "infinite",
				"identityStorage()": "2441",
				"init(address,address,address)": "infinite",
				"investorCountry(address)": "infinite",
				"isAgent(address)": "2679",
				"isVerified(address)": "infinite",
				"issuersRegistry()": "2353",
				"owner()": "2376",
				"registerIdentity(address,address,uint16)": "infinite",
				"removeAgent(address)": "30410",
				"renounceOwnership()": "infinite",
				"setClaimTopicsRegistry(address)": "27990",
				"setIdentityRegistryStorage(address)": "27969",
				"setTrustedIssuersRegistry(address)": "27967",
				"topicsRegistry()": "2432",
				"transferOwnership(address)": "infinite",
				"updateCountry(address,uint16)": "infinite",
				"updateIdentity(address,address)": "infinite"
			}
		},
		"methodIdentifiers": {
			"addAgent(address)": "84e79842",
			"batchRegisterIdentity(address[],address[],uint16[])": "653dc9f1",
			"contains(address)": "5dbe47e8",
			"deleteIdentity(address)": "a8d29d1d",
			"identity(address)": "f0eb5e54",
			"identityStorage()": "f11abfd8",
			"init(address,address,address)": "184b9559",
			"investorCountry(address)": "7e42683b",
			"isAgent(address)": "1ffbb064",
			"isVerified(address)": "b9209e33",
			"issuersRegistry()": "b4f3fcb7",
			"owner()": "8da5cb5b",
			"registerIdentity(address,address,uint16)": "454a03e0",
			"removeAgent(address)": "97a6278e",
			"renounceOwnership()": "715018a6",
			"setClaimTopicsRegistry(address)": "670af6a9",
			"setIdentityRegistryStorage(address)": "26d941ae",
			"setTrustedIssuersRegistry(address)": "e744d789",
			"topicsRegistry()": "3b3e12f4",
			"transferOwnership(address)": "f2fde38b",
			"updateCountry(address,uint16)": "3b239a7f",
			"updateIdentity(address,address)": "8e098ca1"
		}
	},
	"abi": [
		{
			"inputs": [],
			"name": "InvalidInitialization",
			"type": "error"
		},
		{
			"inputs": [],
			"name": "NotInitializing",
			"type": "error"
		},
		{
			"inputs": [
				{
					"internalType": "address",
					"name": "owner",
					"type": "address"
				}
			],
			"name": "OwnableInvalidOwner",
			"type": "error"
		},
		{
			"inputs": [
				{
					"internalType": "address",
					"name": "account",
					"type": "address"
				}
			],
			"name": "OwnableUnauthorizedAccount",
			"type": "error"
		},
		{
			"anonymous": false,
			"inputs": [
				{
					"indexed": true,
					"internalType": "address",
					"name": "_agent",
					"type": "address"
				}
			],
			"name": "AgentAdded",
			"type": "event"
		},
		{
			"anonymous": false,
			"inputs": [
				{
					"indexed": true,
					"internalType": "address",
					"name": "_agent",
					"type": "address"
				}
			],
			"name": "AgentRemoved",
			"type": "event"
		},
		{
			"anonymous": false,
			"inputs": [
				{
					"indexed": true,
					"internalType": "address",
					"name": "claimTopicsRegistry",
					"type": "address"
				}
			],
			"name": "ClaimTopicsRegistrySet",
			"type": "event"
		},
		{
			"anonymous": false,
			"inputs": [
				{
					"indexed": true,
					"internalType": "address",
					"name": "investorAddress",
					"type": "address"
				},
				{
					"indexed": true,
					"internalType": "uint16",
					"name": "country",
					"type": "uint16"
				}
			],
			"name": "CountryUpdated",
			"type": "event"
		},
		{
			"anonymous": false,
			"inputs": [
				{
					"indexed": true,
					"internalType": "address",
					"name": "investorAddress",
					"type": "address"
				},
				{
					"indexed": true,
					"internalType": "contract IIdentity",
					"name": "identity",
					"type": "address"
				}
			],
			"name": "IdentityRegistered",
			"type": "event"
		},
		{
			"anonymous": false,
			"inputs": [
				{
					"indexed": true,
					"internalType": "address",
					"name": "investorAddress",
					"type": "address"
				},
				{
					"indexed": true,
					"internalType": "contract IIdentity",
					"name": "identity",
					"type": "address"
				}
			],
			"name": "IdentityRemoved",
			"type": "event"
		},
		{
			"anonymous": false,
			"inputs": [
				{
					"indexed": true,
					"internalType": "address",
					"name": "identityStorage",
					"type": "address"
				}
			],
			"name": "IdentityStorageSet",
			"type": "event"
		},
		{
			"anonymous": false,
			"inputs": [
				{
					"indexed": true,
					"internalType": "contract IIdentity",
					"name": "oldIdentity",
					"type": "address"
				},
				{
					"indexed": true,
					"internalType": "contract IIdentity",
					"name": "newIdentity",
					"type": "address"
				}
			],
			"name": "IdentityUpdated",
			"type": "event"
		},
		{
			"anonymous": false,
			"inputs": [
				{
					"indexed": false,
					"internalType": "uint64",
					"name": "version",
					"type": "uint64"
				}
			],
			"name": "Initialized",
			"type": "event"
		},
		{
			"anonymous": false,
			"inputs": [
				{
					"indexed": true,
					"internalType": "address",
					"name": "previousOwner",
					"type": "address"
				},
				{
					"indexed": true,
					"internalType": "address",
					"name": "newOwner",
					"type": "address"
				}
			],
			"name": "OwnershipTransferred",
			"type": "event"
		},
		{
			"anonymous": false,
			"inputs": [
				{
					"indexed": true,
					"internalType": "address",
					"name": "trustedIssuersRegistry",
					"type": "address"
				}
			],
			"name": "TrustedIssuersRegistrySet",
			"type": "event"
		},
		{
			"inputs": [
				{
					"internalType": "address",
					"name": "_agent",
					"type": "address"
				}
			],
			"name": "addAgent",
			"outputs": [],
			"stateMutability": "nonpayable",
			"type": "function"
		},
		{
			"inputs": [
				{
					"internalType": "address[]",
					"name": "_userAddresses",
					"type": "address[]"
				},
				{
					"internalType": "contract IIdentity[]",
					"name": "_identities",
					"type": "address[]"
				},
				{
					"internalType": "uint16[]",
					"name": "_countries",
					"type": "uint16[]"
				}
			],
			"name": "batchRegisterIdentity",
			"outputs": [],
			"stateMutability": "nonpayable",
			"type": "function"
		},
		{
			"inputs": [
				{
					"internalType": "address",
					"name": "_userAddress",
					"type": "address"
				}
			],
			"name": "contains",
			"outputs": [
				{
					"internalType": "bool",
					"name": "",
					"type": "bool"
				}
			],
			"stateMutability": "view",
			"type": "function"
		},
		{
			"inputs": [
				{
					"internalType": "address",
					"name": "_userAddress",
					"type": "address"
				}
			],
			"name": "deleteIdentity",
			"outputs": [],
			"stateMutability": "nonpayable",
			"type": "function"
		},
		{
			"inputs": [
				{
					"internalType": "address",
					"name": "_userAddress",
					"type": "address"
				}
			],
			"name": "identity",
			"outputs": [
				{
					"internalType": "contract IIdentity",
					"name": "",
					"type": "address"
				}
			],
			"stateMutability": "view",
			"type": "function"
		},
		{
			"inputs": [],
			"name": "identityStorage",
			"outputs": [
				{
					"internalType": "contract IIdentityRegistryStorage",
					"name": "",
					"type": "address"
				}
			],
			"stateMutability": "view",
			"type": "function"
		},
		{
			"inputs": [
				{
					"internalType": "address",
					"name": "_trustedIssuersRegistry",
					"type": "address"
				},
				{
					"internalType": "address",
					"name": "_claimTopicsRegistry",
					"type": "address"
				},
				{
					"internalType": "address",
					"name": "_identityStorage",
					"type": "address"
				}
			],
			"name": "init",
			"outputs": [],
			"stateMutability": "nonpayable",
			"type": "function"
		},
		{
			"inputs": [
				{
					"internalType": "address",
					"name": "_userAddress",
					"type": "address"
				}
			],
			"name": "investorCountry",
			"outputs": [
				{
					"internalType": "uint16",
					"name": "",
					"type": "uint16"
				}
			],
			"stateMutability": "view",
			"type": "function"
		},
		{
			"inputs": [
				{
					"internalType": "address",
					"name": "_agent",
					"type": "address"
				}
			],
			"name": "isAgent",
			"outputs": [
				{
					"internalType": "bool",
					"name": "",
					"type": "bool"
				}
			],
			"stateMutability": "view",
			"type": "function"
		},
		{
			"inputs": [
				{
					"internalType": "address",
					"name": "_userAddress",
					"type": "address"
				}
			],
			"name": "isVerified",
			"outputs": [
				{
					"internalType": "bool",
					"name": "",
					"type": "bool"
				}
			],
			"stateMutability": "view",
			"type": "function"
		},
		{
			"inputs": [],
			"name": "issuersRegistry",
			"outputs": [
				{
					"internalType": "contract ITrustedIssuersRegistry",
					"name": "",
					"type": "address"
				}
			],
			"stateMutability": "view",
			"type": "function"
		},
		{
			"inputs": [],
			"name": "owner",
			"outputs": [
				{
					"internalType": "address",
					"name": "",
					"type": "address"
				}
			],
			"stateMutability": "view",
			"type": "function"
		},
		{
			"inputs": [
				{
					"internalType": "address",
					"name": "_userAddress",
					"type": "address"
				},
				{
					"internalType": "contract IIdentity",
					"name": "_identity",
					"type": "address"
				},
				{
					"internalType": "uint16",
					"name": "_country",
					"type": "uint16"
				}
			],
			"name": "registerIdentity",
			"outputs": [],
			"stateMutability": "nonpayable",
			"type": "function"
		},
		{
			"inputs": [
				{
					"internalType": "address",
					"name": "_agent",
					"type": "address"
				}
			],
			"name": "removeAgent",
			"outputs": [],
			"stateMutability": "nonpayable",
			"type": "function"
		},
		{
			"inputs": [],
			"name": "renounceOwnership",
			"outputs": [],
			"stateMutability": "nonpayable",
			"type": "function"
		},
		{
			"inputs": [
				{
					"internalType": "address",
					"name": "_claimTopicsRegistry",
					"type": "address"
				}
			],
			"name": "setClaimTopicsRegistry",
			"outputs": [],
			"stateMutability": "nonpayable",
			"type": "function"
		},
		{
			"inputs": [
				{
					"internalType": "address",
					"name": "_identityRegistryStorage",
					"type": "address"
				}
			],
			"name": "setIdentityRegistryStorage",
			"outputs": [],
			"stateMutability": "nonpayable",
			"type": "function"
		},
		{
			"inputs": [
				{
					"internalType": "address",
					"name": "_trustedIssuersRegistry",
					"type": "address"
				}
			],
			"name": "setTrustedIssuersRegistry",
			"outputs": [],
			"stateMutability": "nonpayable",
			"type": "function"
		},
		{
			"inputs": [],
			"name": "topicsRegistry",
			"outputs": [
				{
					"internalType": "contract IClaimTopicsRegistry",
					"name": "",
					"type": "address"
				}
			],
			"stateMutability": "view",
			"type": "function"
		},
		{
			"inputs": [
				{
					"internalType": "address",
					"name": "newOwner",
					"type": "address"
				}
			],
			"name": "transferOwnership",
			"outputs": [],
			"stateMutability": "nonpayable",
			"type": "function"
		},
		{
			"inputs": [
				{
					"internalType": "address",
					"name": "_userAddress",
					"type": "address"
				},
				{
					"internalType": "uint16",
					"name": "_country",
					"type": "uint16"
				}
			],
			"name": "updateCountry",
			"outputs": [],
			"stateMutability": "nonpayable",
			"type": "function"
		},
		{
			"inputs": [
				{
					"internalType": "address",
					"name": "_userAddress",
					"type": "address"
				},
				{
					"internalType": "contract IIdentity",
					"name": "_identity",
					"type": "address"
				}
			],
			"name": "updateIdentity",
			"outputs": [],
			"stateMutability": "nonpayable",
			"type": "function"
		}
	]
}