{
	"data": {
		"bytecode": {
			"linkReferences": {},
			"object": "608060405234801561001057600080fd5b50610dfb806100206000396000f3fe608060405234801561001057600080fd5b50600436106100415760003560e01c80636c037f8a14610046578063725fa09c1461006f578063894b4c2e14610077575b600080fd5b6100596100543660046106ea565b61008a565b6040516100669190610727565b60405180910390f35b61005961011c565b6100596100853660046106ea565b61024f565b60606100f66100a460408051602081019091526000815290565b60408051602080820183526000808352835180830185529081528351808501855260028152615b5d60f01b8184015293516100e29594919201610776565b60405160208183030381529060405261036f565b6040516020016101069190610844565b6040516020818303038152906040529050919050565b6060600033905061022a816001600160a01b03166306fdde036040518163ffffffff1660e01b8152600401600060405180830381865afa158015610164573d6000803e3d6000fd5b505050506040513d6000823e601f3d908101601f1916820160405261018c919081019061089f565b604080516020810190915260008152604080516020810190915260008152610217856001600160a01b0316633e7e86696040518163ffffffff1660e01b8152600401602060405180830381865afa1580156101eb573d6000803e3d6000fd5b505050506040513d601f19601f8201168201806040525081019061020f919061094c565b60ff166104c2565b6040516020016100e29493929190610976565b60405160200161023a9190610844565b60405160208183030381529060405291505090565b60603361034861025e84610555565b604080516020810190915260008152610276866105d7565b604051631398fee160e31b8152600481018890526102e9906001600160a01b03871690639cc7f708906024015b602060405180830381865afa1580156102c0573d6000803e3d6000fd5b505050506040513d601f19601f820116820180604052508101906102e49190610a49565b6104c2565b60405163131f9f3f60e11b81526004810189905261031a906001600160a01b0388169063263f3e7e906024016102a3565b6040805180820190915260028152617b7d60f01b60208201526040516020016100e296959493929190610a62565b6040516020016103589190610844565b604051602081830303815290604052915050919050565b6060815160000361038e57505060408051602081019091526000815290565b6000604051806060016040528060408152602001610d8660409139905060006003845160026103bd9190610b9e565b6103c79190610bb1565b6103d2906004610bd3565b67ffffffffffffffff8111156103ea576103ea610889565b6040519080825280601f01601f191660200182016040528015610414576020820181803683370190505b509050600182016020820185865187015b80821015610480576003820191508151603f8160121c168501518453600184019350603f81600c1c168501518453600184019350603f8160061c168501518453600184019350603f8116850151845350600183019250610425565b505060038651066001811461049c57600281146104af576104b7565b603d6001830353603d60028303536104b7565b603d60018303535b509195945050505050565b606060006104cf83610611565b600101905060008167ffffffffffffffff8111156104ef576104ef610889565b6040519080825280601f01601f191660200182016040528015610519576020820181803683370190505b5090508181016020015b600019016f181899199a1a9b1b9c1cb0b131b232b360811b600a86061a8153600a850494508461052357509392505050565b6060336001600160a01b03166306fdde036040518163ffffffff1660e01b8152600401600060405180830381865afa158015610595573d6000803e3d6000fd5b505050506040513d6000823e601f3d908101601f191682016040526105bd919081019061089f565b6105c6836104c2565b604051602001610106929190610bea565b606060006105e4836104c2565b90506000816040516020016105f99190610c27565b60408051601f19818403018152919052949350505050565b60008072184f03e93ff9f4daa797ed6e38ed64bf6a1f0160401b83106106505772184f03e93ff9f4daa797ed6e38ed64bf6a1f0160401b830492506040015b6d04ee2d6d415b85acef8100000000831061067c576d04ee2d6d415b85acef8100000000830492506020015b662386f26fc10000831061069a57662386f26fc10000830492506010015b6305f5e10083106106b2576305f5e100830492506008015b61271083106106c657612710830492506004015b606483106106d8576064830492506002015b600a83106106e4576001015b92915050565b6000602082840312156106fc57600080fd5b5035919050565b60005b8381101561071e578181015183820152602001610706565b50506000910152565b6020815260008251806020840152610746816040850160208701610703565b601f01601f19169190910160400192915050565b6000815161076c818560208601610703565b9290920192915050565b683d913730b6b2911d1160b91b8152845160009061079b816009850160208a01610703565b701116113232b9b1b934b83a34b7b7111d1160791b60099184019182015285516107cc81601a840160208a01610703565b6a11161134b6b0b3b2911d1160a91b601a929091019182015284516107f8816025840160208901610703565b6e111611383937b832b93a34b2b9911d60891b602592909101918201528351610828816034840160208801610703565b607d60f81b603492909101918201526035019695505050505050565b7f646174613a6170706c69636174696f6e2f6a736f6e3b6261736536342c00000081526000825161087c81601d850160208701610703565b91909101601d0192915050565b634e487b7160e01b600052604160045260246000fd5b6000602082840312156108b157600080fd5b815167ffffffffffffffff808211156108c957600080fd5b818401915084601f8301126108dd57600080fd5b8151818111156108ef576108ef610889565b604051601f8201601f19908116603f0116810190838211818310171561091757610917610889565b8160405282815287602084870101111561093057600080fd5b610941836020830160208801610703565b979650505050505050565b60006020828403121561095e57600080fd5b815160ff8116811461096f57600080fd5b9392505050565b683d913730b6b2911d1160b91b8152845160009061099b816009850160208a01610703565b701116113232b9b1b934b83a34b7b7111d1160791b60099184019182015285516109cc81601a840160208a01610703565b6a11161134b6b0b3b2911d1160a91b601a929091019182015284516109f8816025840160208901610703565b721116113b30b63ab2a232b1b4b6b0b639911d1160691b602592909101918201528351610a2c816038840160208801610703565b61227d60f01b60389290910191820152603a019695505050505050565b600060208284031215610a5b57600080fd5b5051919050565b683d913730b6b2911d1160b91b81528651600090610a87816009850160208c01610703565b701116113232b9b1b934b83a34b7b7111d1160791b6009918401918201528751610ab881601a840160208c01610703565b6a11161134b6b0b3b2911d1160a91b601a92909101918201528651610ae4816025840160208b01610703565b6c1116113130b630b731b2911d1160991b602592909101918201528551610b12816032840160208a01610703565b6911161139b637ba111d1160b11b603292909101918201528451610b3d81603c840160208901610703565b610b7a610b6d610b67603c848601016e111611383937b832b93a34b2b9911d60891b8152600f0190565b8761075a565b607d60f81b815260010190565b9a9950505050505050505050565b634e487b7160e01b600052601160045260246000fd5b808201808211156106e4576106e4610b88565b600082610bce57634e487b7160e01b600052601260045260246000fd5b500490565b80820281158282048414176106e4576106e4610b88565b60008351610bfc818460208801610703565b61202360f01b9083019081528351610c1b816002840160208801610703565b01600201949350505050565b7f3c7376672077696474683d2231303022206865696768743d223130302220786d81527f6c6e733d22687474703a2f2f7777772e77332e6f72672f323030302f737667226020820152601f60f91b60408201527f3c726563742077696474683d223130302522206865696768743d223130302522604182015273103334b6361e913634b3b43a31363ab29110179f60611b60618201527f3c7465787420783d223530252220793d223530252220616c69676e6d656e742d60758201527f626173656c696e653d226d6964646c652220746578742d616e63686f723d226d60958201527f6964646c652220666f6e742d73697a653d223136222066696c6c3d22626c616360b58201526235911f60e91b60d582015260008251610d508160d8850160208701610703565b661e17ba32bc3a1f60c91b60d891840191820152610d7d60df8201651e17b9bb339f60d11b815260060190565b94935050505056fe4142434445464748494a4b4c4d4e4f505152535455565758595a6162636465666768696a6b6c6d6e6f707172737475767778797a303132333435363738392b2fa2646970667358221220a3bfb69edf38738310086646d8d94599808783388f16f6a801e8b8a1f15e0d6264736f6c63430008140033",
			"opcodes": "PUSH1 0x80 PUSH1 0x40 MSTORE CALLVALUE DUP1 ISZERO PUSH2 0x10 JUMPI PUSH1 0x0 DUP1 REVERT JUMPDEST POP PUSH2 0xDFB DUP1 PUSH2 0x20 PUSH1 0x0 CODECOPY PUSH1 0x0 RETURN INVALID PUSH1 0x80 PUSH1 0x40 MSTORE CALLVALUE DUP1 ISZERO PUSH2 0x10 JUMPI PUSH1 0x0 DUP1 REVERT JUMPDEST POP PUSH1 0x4 CALLDATASIZE LT PUSH2 0x41 JUMPI PUSH1 0x0 CALLDATALOAD PUSH1 0xE0 SHR DUP1 PUSH4 0x6C037F8A EQ PUSH2 0x46 JUMPI DUP1 PUSH4 0x725FA09C EQ PUSH2 0x6F JUMPI DUP1 PUSH4 0x894B4C2E EQ PUSH2 0x77 JUMPI JUMPDEST PUSH1 0x0 DUP1 REVERT JUMPDEST PUSH2 0x59 PUSH2 0x54 CALLDATASIZE PUSH1 0x4 PUSH2 0x6EA JUMP JUMPDEST PUSH2 0x8A JUMP JUMPDEST PUSH1 0x40 MLOAD PUSH2 0x66 SWAP2 SWAP1 PUSH2 0x727 JUMP JUMPDEST PUSH1 0x40 MLOAD DUP1 SWAP2 SUB SWAP1 RETURN JUMPDEST PUSH2 0x59 PUSH2 0x11C JUMP JUMPDEST PUSH2 0x59 PUSH2 0x85 CALLDATASIZE PUSH1 0x4 PUSH2 0x6EA JUMP JUMPDEST PUSH2 0x24F JUMP JUMPDEST PUSH1 0x60 PUSH2 0xF6 PUSH2 0xA4 PUSH1 0x40 DUP1 MLOAD PUSH1 0x20 DUP2 ADD SWAP1 SWAP2 MSTORE PUSH1 0x0 DUP2 MSTORE SWAP1 JUMP JUMPDEST PUSH1 0x40 DUP1 MLOAD PUSH1 0x20 DUP1 DUP3 ADD DUP4 MSTORE PUSH1 0x0 DUP1 DUP4 MSTORE DUP4 MLOAD DUP1 DUP4 ADD DUP6 MSTORE SWAP1 DUP2 MSTORE DUP4 MLOAD DUP1 DUP6 ADD DUP6 MSTORE PUSH1 0x2 DUP2 MSTORE PUSH2 0x5B5D PUSH1 0xF0 SHL DUP2 DUP5 ADD MSTORE SWAP4 MLOAD PUSH2 0xE2 SWAP6 SWAP5 SWAP2 SWAP3 ADD PUSH2 0x776 JUMP JUMPDEST PUSH1 0x40 MLOAD PUSH1 0x20 DUP2 DUP4 SUB SUB DUP2 MSTORE SWAP1 PUSH1 0x40 MSTORE PUSH2 0x36F JUMP JUMPDEST PUSH1 0x40 MLOAD PUSH1 0x20 ADD PUSH2 0x106 SWAP2 SWAP1 PUSH2 0x844 JUMP JUMPDEST PUSH1 0x40 MLOAD PUSH1 0x20 DUP2 DUP4 SUB SUB DUP2 MSTORE SWAP1 PUSH1 0x40 MSTORE SWAP1 POP SWAP2 SWAP1 POP JUMP JUMPDEST PUSH1 0x60 PUSH1 0x0 CALLER SWAP1 POP PUSH2 0x22A DUP2 PUSH1 0x1 PUSH1 0x1 PUSH1 0xA0 SHL SUB AND PUSH4 0x6FDDE03 PUSH1 0x40 MLOAD DUP2 PUSH4 0xFFFFFFFF AND PUSH1 0xE0 SHL DUP2 MSTORE PUSH1 0x4 ADD PUSH1 0x0 PUSH1 0x40 MLOAD DUP1 DUP4 SUB DUP2 DUP7 GAS STATICCALL ISZERO DUP1 ISZERO PUSH2 0x164 JUMPI RETURNDATASIZE PUSH1 0x0 DUP1 RETURNDATACOPY RETURNDATASIZE PUSH1 0x0 REVERT JUMPDEST POP POP POP POP PUSH1 0x40 MLOAD RETURNDATASIZE PUSH1 0x0 DUP3 RETURNDATACOPY PUSH1 0x1F RETURNDATASIZE SWAP1 DUP2 ADD PUSH1 0x1F NOT AND DUP3 ADD PUSH1 0x40 MSTORE PUSH2 0x18C SWAP2 SWAP1 DUP2 ADD SWAP1 PUSH2 0x89F JUMP JUMPDEST PUSH1 0x40 DUP1 MLOAD PUSH1 0x20 DUP2 ADD SWAP1 SWAP2 MSTORE PUSH1 0x0 DUP2 MSTORE PUSH1 0x40 DUP1 MLOAD PUSH1 0x20 DUP2 ADD SWAP1 SWAP2 MSTORE PUSH1 0x0 DUP2 MSTORE PUSH2 0x217 DUP6 PUSH1 0x1 PUSH1 0x1 PUSH1 0xA0 SHL SUB AND PUSH4 0x3E7E8669 PUSH1 0x40 MLOAD DUP2 PUSH4 0xFFFFFFFF AND PUSH1 0xE0 SHL DUP2 MSTORE PUSH1 0x4 ADD PUSH1 0x20 PUSH1 0x40 MLOAD DUP1 DUP4 SUB DUP2 DUP7 GAS STATICCALL ISZERO DUP1 ISZERO PUSH2 0x1EB JUMPI RETURNDATASIZE PUSH1 0x0 DUP1 RETURNDATACOPY RETURNDATASIZE PUSH1 0x0 REVERT JUMPDEST POP POP POP POP PUSH1 0x40 MLOAD RETURNDATASIZE PUSH1 0x1F NOT PUSH1 0x1F DUP3 ADD AND DUP3 ADD DUP1 PUSH1 0x40 MSTORE POP DUP2 ADD SWAP1 PUSH2 0x20F SWAP2 SWAP1 PUSH2 0x94C JUMP JUMPDEST PUSH1 0xFF AND PUSH2 0x4C2 JUMP JUMPDEST PUSH1 0x40 MLOAD PUSH1 0x20 ADD PUSH2 0xE2 SWAP5 SWAP4 SWAP3 SWAP2 SWAP1 PUSH2 0x976 JUMP JUMPDEST PUSH1 0x40 MLOAD PUSH1 0x20 ADD PUSH2 0x23A SWAP2 SWAP1 PUSH2 0x844 JUMP JUMPDEST PUSH1 0x40 MLOAD PUSH1 0x20 DUP2 DUP4 SUB SUB DUP2 MSTORE SWAP1 PUSH1 0x40 MSTORE SWAP2 POP POP SWAP1 JUMP JUMPDEST PUSH1 0x60 CALLER PUSH2 0x348 PUSH2 0x25E DUP5 PUSH2 0x555 JUMP JUMPDEST PUSH1 0x40 DUP1 MLOAD PUSH1 0x20 DUP2 ADD SWAP1 SWAP2 MSTORE PUSH1 0x0 DUP2 MSTORE PUSH2 0x276 DUP7 PUSH2 0x5D7 JUMP JUMPDEST PUSH1 0x40 MLOAD PUSH4 0x1398FEE1 PUSH1 0xE3 SHL DUP2 MSTORE PUSH1 0x4 DUP2 ADD DUP9 SWAP1 MSTORE PUSH2 0x2E9 SWAP1 PUSH1 0x1 PUSH1 0x1 PUSH1 0xA0 SHL SUB DUP8 AND SWAP1 PUSH4 0x9CC7F708 SWAP1 PUSH1 0x24 ADD JUMPDEST PUSH1 0x20 PUSH1 0x40 MLOAD DUP1 DUP4 SUB DUP2 DUP7 GAS STATICCALL ISZERO DUP1 ISZERO PUSH2 0x2C0 JUMPI RETURNDATASIZE PUSH1 0x0 DUP1 RETURNDATACOPY RETURNDATASIZE PUSH1 0x0 REVERT JUMPDEST POP POP POP POP PUSH1 0x40 MLOAD RETURNDATASIZE PUSH1 0x1F NOT PUSH1 0x1F DUP3 ADD AND DUP3 ADD DUP1 PUSH1 0x40 MSTORE POP DUP2 ADD SWAP1 PUSH2 0x2E4 SWAP2 SWAP1 PUSH2 0xA49 JUMP JUMPDEST PUSH2 0x4C2 JUMP JUMPDEST PUSH1 0x40 MLOAD PUSH4 0x131F9F3F PUSH1 0xE1 SHL DUP2 MSTORE PUSH1 0x4 DUP2 ADD DUP10 SWAP1 MSTORE PUSH2 0x31A SWAP1 PUSH1 0x1 PUSH1 0x1 PUSH1 0xA0 SHL SUB DUP9 AND SWAP1 PUSH4 0x263F3E7E SWAP1 PUSH1 0x24 ADD PUSH2 0x2A3 JUMP JUMPDEST PUSH1 0x40 DUP1 MLOAD DUP1 DUP3 ADD SWAP1 SWAP2 MSTORE PUSH1 0x2 DUP2 MSTORE PUSH2 0x7B7D PUSH1 0xF0 SHL PUSH1 0x20 DUP3 ADD MSTORE PUSH1 0x40 MLOAD PUSH1 0x20 ADD PUSH2 0xE2 SWAP7 SWAP6 SWAP5 SWAP4 SWAP3 SWAP2 SWAP1 PUSH2 0xA62 JUMP JUMPDEST PUSH1 0x40 MLOAD PUSH1 0x20 ADD PUSH2 0x358 SWAP2 SWAP1 PUSH2 0x844 JUMP JUMPDEST PUSH1 0x40 MLOAD PUSH1 0x20 DUP2 DUP4 SUB SUB DUP2 MSTORE SWAP1 PUSH1 0x40 MSTORE SWAP2 POP POP SWAP2 SWAP1 POP JUMP JUMPDEST PUSH1 0x60 DUP2 MLOAD PUSH1 0x0 SUB PUSH2 0x38E JUMPI POP POP PUSH1 0x40 DUP1 MLOAD PUSH1 0x20 DUP2 ADD SWAP1 SWAP2 MSTORE PUSH1 0x0 DUP2 MSTORE SWAP1 JUMP JUMPDEST PUSH1 0x0 PUSH1 0x40 MLOAD DUP1 PUSH1 0x60 ADD PUSH1 0x40 MSTORE DUP1 PUSH1 0x40 DUP2 MSTORE PUSH1 0x20 ADD PUSH2 0xD86 PUSH1 0x40 SWAP2 CODECOPY SWAP1 POP PUSH1 0x0 PUSH1 0x3 DUP5 MLOAD PUSH1 0x2 PUSH2 0x3BD SWAP2 SWAP1 PUSH2 0xB9E JUMP JUMPDEST PUSH2 0x3C7 SWAP2 SWAP1 PUSH2 0xBB1 JUMP JUMPDEST PUSH2 0x3D2 SWAP1 PUSH1 0x4 PUSH2 0xBD3 JUMP JUMPDEST PUSH8 0xFFFFFFFFFFFFFFFF DUP2 GT ISZERO PUSH2 0x3EA JUMPI PUSH2 0x3EA PUSH2 0x889 JUMP JUMPDEST PUSH1 0x40 MLOAD SWAP1 DUP1 DUP3 MSTORE DUP1 PUSH1 0x1F ADD PUSH1 0x1F NOT AND PUSH1 0x20 ADD DUP3 ADD PUSH1 0x40 MSTORE DUP1 ISZERO PUSH2 0x414 JUMPI PUSH1 0x20 DUP3 ADD DUP2 DUP1 CALLDATASIZE DUP4 CALLDATACOPY ADD SWAP1 POP JUMPDEST POP SWAP1 POP PUSH1 0x1 DUP3 ADD PUSH1 0x20 DUP3 ADD DUP6 DUP7 MLOAD DUP8 ADD JUMPDEST DUP1 DUP3 LT ISZERO PUSH2 0x480 JUMPI PUSH1 0x3 DUP3 ADD SWAP2 POP DUP2 MLOAD PUSH1 0x3F DUP2 PUSH1 0x12 SHR AND DUP6 ADD MLOAD DUP5 MSTORE8 PUSH1 0x1 DUP5 ADD SWAP4 POP PUSH1 0x3F DUP2 PUSH1 0xC SHR AND DUP6 ADD MLOAD DUP5 MSTORE8 PUSH1 0x1 DUP5 ADD SWAP4 POP PUSH1 0x3F DUP2 PUSH1 0x6 SHR AND DUP6 ADD MLOAD DUP5 MSTORE8 PUSH1 0x1 DUP5 ADD SWAP4 POP PUSH1 0x3F DUP2 AND DUP6 ADD MLOAD DUP5 MSTORE8 POP PUSH1 0x1 DUP4 ADD SWAP3 POP PUSH2 0x425 JUMP JUMPDEST POP POP PUSH1 0x3 DUP7 MLOAD MOD PUSH1 0x1 DUP2 EQ PUSH2 0x49C JUMPI PUSH1 0x2 DUP2 EQ PUSH2 0x4AF JUMPI PUSH2 0x4B7 JUMP JUMPDEST PUSH1 0x3D PUSH1 0x1 DUP4 SUB MSTORE8 PUSH1 0x3D PUSH1 0x2 DUP4 SUB MSTORE8 PUSH2 0x4B7 JUMP JUMPDEST PUSH1 0x3D PUSH1 0x1 DUP4 SUB MSTORE8 JUMPDEST POP SWAP2 SWAP6 SWAP5 POP POP POP POP POP JUMP JUMPDEST PUSH1 0x60 PUSH1 0x0 PUSH2 0x4CF DUP4 PUSH2 0x611 JUMP JUMPDEST PUSH1 0x1 ADD SWAP1 POP PUSH1 0x0 DUP2 PUSH8 0xFFFFFFFFFFFFFFFF DUP2 GT ISZERO PUSH2 0x4EF JUMPI PUSH2 0x4EF PUSH2 0x889 JUMP JUMPDEST PUSH1 0x40 MLOAD SWAP1 DUP1 DUP3 MSTORE DUP1 PUSH1 0x1F ADD PUSH1 0x1F NOT AND PUSH1 0x20 ADD DUP3 ADD PUSH1 0x40 MSTORE DUP1 ISZERO PUSH2 0x519 JUMPI PUSH1 0x20 DUP3 ADD DUP2 DUP1 CALLDATASIZE DUP4 CALLDATACOPY ADD SWAP1 POP JUMPDEST POP SWAP1 POP DUP2 DUP2 ADD PUSH1 0x20 ADD JUMPDEST PUSH1 0x0 NOT ADD PUSH16 0x181899199A1A9B1B9C1CB0B131B232B3 PUSH1 0x81 SHL PUSH1 0xA DUP7 MOD BYTE DUP2 MSTORE8 PUSH1 0xA DUP6 DIV SWAP5 POP DUP5 PUSH2 0x523 JUMPI POP SWAP4 SWAP3 POP POP POP JUMP JUMPDEST PUSH1 0x60 CALLER PUSH1 0x1 PUSH1 0x1 PUSH1 0xA0 SHL SUB AND PUSH4 0x6FDDE03 PUSH1 0x40 MLOAD DUP2 PUSH4 0xFFFFFFFF AND PUSH1 0xE0 SHL DUP2 MSTORE PUSH1 0x4 ADD PUSH1 0x0 PUSH1 0x40 MLOAD DUP1 DUP4 SUB DUP2 DUP7 GAS STATICCALL ISZERO DUP1 ISZERO PUSH2 0x595 JUMPI RETURNDATASIZE PUSH1 0x0 DUP1 RETURNDATACOPY RETURNDATASIZE PUSH1 0x0 REVERT JUMPDEST POP POP POP POP PUSH1 0x40 MLOAD RETURNDATASIZE PUSH1 0x0 DUP3 RETURNDATACOPY PUSH1 0x1F RETURNDATASIZE SWAP1 DUP2 ADD PUSH1 0x1F NOT AND DUP3 ADD PUSH1 0x40 MSTORE PUSH2 0x5BD SWAP2 SWAP1 DUP2 ADD SWAP1 PUSH2 0x89F JUMP JUMPDEST PUSH2 0x5C6 DUP4 PUSH2 0x4C2 JUMP JUMPDEST PUSH1 0x40 MLOAD PUSH1 0x20 ADD PUSH2 0x106 SWAP3 SWAP2 SWAP1 PUSH2 0xBEA JUMP JUMPDEST PUSH1 0x60 PUSH1 0x0 PUSH2 0x5E4 DUP4 PUSH2 0x4C2 JUMP JUMPDEST SWAP1 POP PUSH1 0x0 DUP2 PUSH1 0x40 MLOAD PUSH1 0x20 ADD PUSH2 0x5F9 SWAP2 SWAP1 PUSH2 0xC27 JUMP JUMPDEST PUSH1 0x40 DUP1 MLOAD PUSH1 0x1F NOT DUP2 DUP5 SUB ADD DUP2 MSTORE SWAP2 SWAP1 MSTORE SWAP5 SWAP4 POP POP POP POP JUMP JUMPDEST PUSH1 0x0 DUP1 PUSH19 0x184F03E93FF9F4DAA797ED6E38ED64BF6A1F01 PUSH1 0x40 SHL DUP4 LT PUSH2 0x650 JUMPI PUSH19 0x184F03E93FF9F4DAA797ED6E38ED64BF6A1F01 PUSH1 0x40 SHL DUP4 DIV SWAP3 POP PUSH1 0x40 ADD JUMPDEST PUSH14 0x4EE2D6D415B85ACEF8100000000 DUP4 LT PUSH2 0x67C JUMPI PUSH14 0x4EE2D6D415B85ACEF8100000000 DUP4 DIV SWAP3 POP PUSH1 0x20 ADD JUMPDEST PUSH7 0x2386F26FC10000 DUP4 LT PUSH2 0x69A JUMPI PUSH7 0x2386F26FC10000 DUP4 DIV SWAP3 POP PUSH1 0x10 ADD JUMPDEST PUSH4 0x5F5E100 DUP4 LT PUSH2 0x6B2 JUMPI PUSH4 0x5F5E100 DUP4 DIV SWAP3 POP PUSH1 0x8 ADD JUMPDEST PUSH2 0x2710 DUP4 LT PUSH2 0x6C6 JUMPI PUSH2 0x2710 DUP4 DIV SWAP3 POP PUSH1 0x4 ADD JUMPDEST PUSH1 0x64 DUP4 LT PUSH2 0x6D8 JUMPI PUSH1 0x64 DUP4 DIV SWAP3 POP PUSH1 0x2 ADD JUMPDEST PUSH1 0xA DUP4 LT PUSH2 0x6E4 JUMPI PUSH1 0x1 ADD JUMPDEST SWAP3 SWAP2 POP POP JUMP JUMPDEST PUSH1 0x0 PUSH1 0x20 DUP3 DUP5 SUB SLT ISZERO PUSH2 0x6FC JUMPI PUSH1 0x0 DUP1 REVERT JUMPDEST POP CALLDATALOAD SWAP2 SWAP1 POP JUMP JUMPDEST PUSH1 0x0 JUMPDEST DUP4 DUP2 LT ISZERO PUSH2 0x71E JUMPI DUP2 DUP2 ADD MLOAD DUP4 DUP3 ADD MSTORE PUSH1 0x20 ADD PUSH2 0x706 JUMP JUMPDEST POP POP PUSH1 0x0 SWAP2 ADD MSTORE JUMP JUMPDEST PUSH1 0x20 DUP2 MSTORE PUSH1 0x0 DUP3 MLOAD DUP1 PUSH1 0x20 DUP5 ADD MSTORE PUSH2 0x746 DUP2 PUSH1 0x40 DUP6 ADD PUSH1 0x20 DUP8 ADD PUSH2 0x703 JUMP JUMPDEST PUSH1 0x1F ADD PUSH1 0x1F NOT AND SWAP2 SWAP1 SWAP2 ADD PUSH1 0x40 ADD SWAP3 SWAP2 POP POP JUMP JUMPDEST PUSH1 0x0 DUP2 MLOAD PUSH2 0x76C DUP2 DUP6 PUSH1 0x20 DUP7 ADD PUSH2 0x703 JUMP JUMPDEST SWAP3 SWAP1 SWAP3 ADD SWAP3 SWAP2 POP POP JUMP JUMPDEST PUSH9 0x3D913730B6B2911D11 PUSH1 0xB9 SHL DUP2 MSTORE DUP5 MLOAD PUSH1 0x0 SWAP1 PUSH2 0x79B DUP2 PUSH1 0x9 DUP6 ADD PUSH1 0x20 DUP11 ADD PUSH2 0x703 JUMP JUMPDEST PUSH17 0x1116113232B9B1B934B83A34B7B7111D11 PUSH1 0x79 SHL PUSH1 0x9 SWAP2 DUP5 ADD SWAP2 DUP3 ADD MSTORE DUP6 MLOAD PUSH2 0x7CC DUP2 PUSH1 0x1A DUP5 ADD PUSH1 0x20 DUP11 ADD PUSH2 0x703 JUMP JUMPDEST PUSH11 0x11161134B6B0B3B2911D11 PUSH1 0xA9 SHL PUSH1 0x1A SWAP3 SWAP1 SWAP2 ADD SWAP2 DUP3 ADD MSTORE DUP5 MLOAD PUSH2 0x7F8 DUP2 PUSH1 0x25 DUP5 ADD PUSH1 0x20 DUP10 ADD PUSH2 0x703 JUMP JUMPDEST PUSH15 0x111611383937B832B93A34B2B9911D PUSH1 0x89 SHL PUSH1 0x25 SWAP3 SWAP1 SWAP2 ADD SWAP2 DUP3 ADD MSTORE DUP4 MLOAD PUSH2 0x828 DUP2 PUSH1 0x34 DUP5 ADD PUSH1 0x20 DUP9 ADD PUSH2 0x703 JUMP JUMPDEST PUSH1 0x7D PUSH1 0xF8 SHL PUSH1 0x34 SWAP3 SWAP1 SWAP2 ADD SWAP2 DUP3 ADD MSTORE PUSH1 0x35 ADD SWAP7 SWAP6 POP POP POP POP POP POP JUMP JUMPDEST PUSH32 0x646174613A6170706C69636174696F6E2F6A736F6E3B6261736536342C000000 DUP2 MSTORE PUSH1 0x0 DUP3 MLOAD PUSH2 0x87C DUP2 PUSH1 0x1D DUP6 ADD PUSH1 0x20 DUP8 ADD PUSH2 0x703 JUMP JUMPDEST SWAP2 SWAP1 SWAP2 ADD PUSH1 0x1D ADD SWAP3 SWAP2 POP POP JUMP JUMPDEST PUSH4 0x4E487B71 PUSH1 0xE0 SHL PUSH1 0x0 MSTORE PUSH1 0x41 PUSH1 0x4 MSTORE PUSH1 0x24 PUSH1 0x0 REVERT JUMPDEST PUSH1 0x0 PUSH1 0x20 DUP3 DUP5 SUB SLT ISZERO PUSH2 0x8B1 JUMPI PUSH1 0x0 DUP1 REVERT JUMPDEST DUP2 MLOAD PUSH8 0xFFFFFFFFFFFFFFFF DUP1 DUP3 GT ISZERO PUSH2 0x8C9 JUMPI PUSH1 0x0 DUP1 REVERT JUMPDEST DUP2 DUP5 ADD SWAP2 POP DUP5 PUSH1 0x1F DUP4 ADD SLT PUSH2 0x8DD JUMPI PUSH1 0x0 DUP1 REVERT JUMPDEST DUP2 MLOAD DUP2 DUP2 GT ISZERO PUSH2 0x8EF JUMPI PUSH2 0x8EF PUSH2 0x889 JUMP JUMPDEST PUSH1 0x40 MLOAD PUSH1 0x1F DUP3 ADD PUSH1 0x1F NOT SWAP1 DUP2 AND PUSH1 0x3F ADD AND DUP2 ADD SWAP1 DUP4 DUP3 GT DUP2 DUP4 LT OR ISZERO PUSH2 0x917 JUMPI PUSH2 0x917 PUSH2 0x889 JUMP JUMPDEST DUP2 PUSH1 0x40 MSTORE DUP3 DUP2 MSTORE DUP8 PUSH1 0x20 DUP5 DUP8 ADD ADD GT ISZERO PUSH2 0x930 JUMPI PUSH1 0x0 DUP1 REVERT JUMPDEST PUSH2 0x941 DUP4 PUSH1 0x20 DUP4 ADD PUSH1 0x20 DUP9 ADD PUSH2 0x703 JUMP JUMPDEST SWAP8 SWAP7 POP POP POP POP POP POP POP JUMP JUMPDEST PUSH1 0x0 PUSH1 0x20 DUP3 DUP5 SUB SLT ISZERO PUSH2 0x95E JUMPI PUSH1 0x0 DUP1 REVERT JUMPDEST DUP2 MLOAD PUSH1 0xFF DUP2 AND DUP2 EQ PUSH2 0x96F JUMPI PUSH1 0x0 DUP1 REVERT JUMPDEST SWAP4 SWAP3 POP POP POP JUMP JUMPDEST PUSH9 0x3D913730B6B2911D11 PUSH1 0xB9 SHL DUP2 MSTORE DUP5 MLOAD PUSH1 0x0 SWAP1 PUSH2 0x99B DUP2 PUSH1 0x9 DUP6 ADD PUSH1 0x20 DUP11 ADD PUSH2 0x703 JUMP JUMPDEST PUSH17 0x1116113232B9B1B934B83A34B7B7111D11 PUSH1 0x79 SHL PUSH1 0x9 SWAP2 DUP5 ADD SWAP2 DUP3 ADD MSTORE DUP6 MLOAD PUSH2 0x9CC DUP2 PUSH1 0x1A DUP5 ADD PUSH1 0x20 DUP11 ADD PUSH2 0x703 JUMP JUMPDEST PUSH11 0x11161134B6B0B3B2911D11 PUSH1 0xA9 SHL PUSH1 0x1A SWAP3 SWAP1 SWAP2 ADD SWAP2 DUP3 ADD MSTORE DUP5 MLOAD PUSH2 0x9F8 DUP2 PUSH1 0x25 DUP5 ADD PUSH1 0x20 DUP10 ADD PUSH2 0x703 JUMP JUMPDEST PUSH19 0x1116113B30B63AB2A232B1B4B6B0B639911D11 PUSH1 0x69 SHL PUSH1 0x25 SWAP3 SWAP1 SWAP2 ADD SWAP2 DUP3 ADD MSTORE DUP4 MLOAD PUSH2 0xA2C DUP2 PUSH1 0x38 DUP5 ADD PUSH1 0x20 DUP9 ADD PUSH2 0x703 JUMP JUMPDEST PUSH2 0x227D PUSH1 0xF0 SHL PUSH1 0x38 SWAP3 SWAP1 SWAP2 ADD SWAP2 DUP3 ADD MSTORE PUSH1 0x3A ADD SWAP7 SWAP6 POP POP POP POP POP POP JUMP JUMPDEST PUSH1 0x0 PUSH1 0x20 DUP3 DUP5 SUB SLT ISZERO PUSH2 0xA5B JUMPI PUSH1 0x0 DUP1 REVERT JUMPDEST POP MLOAD SWAP2 SWAP1 POP JUMP JUMPDEST PUSH9 0x3D913730B6B2911D11 PUSH1 0xB9 SHL DUP2 MSTORE DUP7 MLOAD PUSH1 0x0 SWAP1 PUSH2 0xA87 DUP2 PUSH1 0x9 DUP6 ADD PUSH1 0x20 DUP13 ADD PUSH2 0x703 JUMP JUMPDEST PUSH17 0x1116113232B9B1B934B83A34B7B7111D11 PUSH1 0x79 SHL PUSH1 0x9 SWAP2 DUP5 ADD SWAP2 DUP3 ADD MSTORE DUP8 MLOAD PUSH2 0xAB8 DUP2 PUSH1 0x1A DUP5 ADD PUSH1 0x20 DUP13 ADD PUSH2 0x703 JUMP JUMPDEST PUSH11 0x11161134B6B0B3B2911D11 PUSH1 0xA9 SHL PUSH1 0x1A SWAP3 SWAP1 SWAP2 ADD SWAP2 DUP3 ADD MSTORE DUP7 MLOAD PUSH2 0xAE4 DUP2 PUSH1 0x25 DUP5 ADD PUSH1 0x20 DUP12 ADD PUSH2 0x703 JUMP JUMPDEST PUSH13 0x1116113130B630B731B2911D11 PUSH1 0x99 SHL PUSH1 0x25 SWAP3 SWAP1 SWAP2 ADD SWAP2 DUP3 ADD MSTORE DUP6 MLOAD PUSH2 0xB12 DUP2 PUSH1 0x32 DUP5 ADD PUSH1 0x20 DUP11 ADD PUSH2 0x703 JUMP JUMPDEST PUSH10 0x11161139B637BA111D11 PUSH1 0xB1 SHL PUSH1 0x32 SWAP3 SWAP1 SWAP2 ADD SWAP2 DUP3 ADD MSTORE DUP5 MLOAD PUSH2 0xB3D DUP2 PUSH1 0x3C DUP5 ADD PUSH1 0x20 DUP10 ADD PUSH2 0x703 JUMP JUMPDEST PUSH2 0xB7A PUSH2 0xB6D PUSH2 0xB67 PUSH1 0x3C DUP5 DUP7 ADD ADD PUSH15 0x111611383937B832B93A34B2B9911D PUSH1 0x89 SHL DUP2 MSTORE PUSH1 0xF ADD SWAP1 JUMP JUMPDEST DUP8 PUSH2 0x75A JUMP JUMPDEST PUSH1 0x7D PUSH1 0xF8 SHL DUP2 MSTORE PUSH1 0x1 ADD SWAP1 JUMP JUMPDEST SWAP11 SWAP10 POP POP POP POP POP POP POP POP POP POP JUMP JUMPDEST PUSH4 0x4E487B71 PUSH1 0xE0 SHL PUSH1 0x0 MSTORE PUSH1 0x11 PUSH1 0x4 MSTORE PUSH1 0x24 PUSH1 0x0 REVERT JUMPDEST DUP1 DUP3 ADD DUP1 DUP3 GT ISZERO PUSH2 0x6E4 JUMPI PUSH2 0x6E4 PUSH2 0xB88 JUMP JUMPDEST PUSH1 0x0 DUP3 PUSH2 0xBCE JUMPI PUSH4 0x4E487B71 PUSH1 0xE0 SHL PUSH1 0x0 MSTORE PUSH1 0x12 PUSH1 0x4 MSTORE PUSH1 0x24 PUSH1 0x0 REVERT JUMPDEST POP DIV SWAP1 JUMP JUMPDEST DUP1 DUP3 MUL DUP2 ISZERO DUP3 DUP3 DIV DUP5 EQ OR PUSH2 0x6E4 JUMPI PUSH2 0x6E4 PUSH2 0xB88 JUMP JUMPDEST PUSH1 0x0 DUP4 MLOAD PUSH2 0xBFC DUP2 DUP5 PUSH1 0x20 DUP9 ADD PUSH2 0x703 JUMP JUMPDEST PUSH2 0x2023 PUSH1 0xF0 SHL SWAP1 DUP4 ADD SWAP1 DUP2 MSTORE DUP4 MLOAD PUSH2 0xC1B DUP2 PUSH1 0x2 DUP5 ADD PUSH1 0x20 DUP9 ADD PUSH2 0x703 JUMP JUMPDEST ADD PUSH1 0x2 ADD SWAP5 SWAP4 POP POP POP POP JUMP JUMPDEST PUSH32 0x3C7376672077696474683D2231303022206865696768743D223130302220786D DUP2 MSTORE PUSH32 0x6C6E733D22687474703A2F2F7777772E77332E6F72672F323030302F73766722 PUSH1 0x20 DUP3 ADD MSTORE PUSH1 0x1F PUSH1 0xF9 SHL PUSH1 0x40 DUP3 ADD MSTORE PUSH32 0x3C726563742077696474683D223130302522206865696768743D223130302522 PUSH1 0x41 DUP3 ADD MSTORE PUSH20 0x103334B6361E913634B3B43A31363AB29110179F PUSH1 0x61 SHL PUSH1 0x61 DUP3 ADD MSTORE PUSH32 0x3C7465787420783D223530252220793D223530252220616C69676E6D656E742D PUSH1 0x75 DUP3 ADD MSTORE PUSH32 0x626173656C696E653D226D6964646C652220746578742D616E63686F723D226D PUSH1 0x95 DUP3 ADD MSTORE PUSH32 0x6964646C652220666F6E742D73697A653D223136222066696C6C3D22626C6163 PUSH1 0xB5 DUP3 ADD MSTORE PUSH3 0x35911F PUSH1 0xE9 SHL PUSH1 0xD5 DUP3 ADD MSTORE PUSH1 0x0 DUP3 MLOAD PUSH2 0xD50 DUP2 PUSH1 0xD8 DUP6 ADD PUSH1 0x20 DUP8 ADD PUSH2 0x703 JUMP JUMPDEST PUSH7 0x1E17BA32BC3A1F PUSH1 0xC9 SHL PUSH1 0xD8 SWAP2 DUP5 ADD SWAP2 DUP3 ADD MSTORE PUSH2 0xD7D PUSH1 0xDF DUP3 ADD PUSH6 0x1E17B9BB339F PUSH1 0xD1 SHL DUP2 MSTORE PUSH1 0x6 ADD SWAP1 JUMP JUMPDEST SWAP5 SWAP4 POP POP POP POP JUMP INVALID COINBASE TIMESTAMP NUMBER DIFFICULTY GASLIMIT CHAINID SELFBALANCE BASEFEE 0x49 0x4A 0x4B 0x4C 0x4D 0x4E 0x4F POP MLOAD MSTORE MSTORE8 SLOAD SSTORE JUMP JUMPI PC MSIZE GAS PUSH2 0x6263 PUSH5 0x6566676869 PUSH11 0x6B6C6D6E6F707172737475 PUSH23 0x7778797A303132333435363738392B2FA2646970667358 0x22 SLT KECCAK256 LOG3 0xBF 0xB6 SWAP15 0xDF CODESIZE PUSH20 0x8310086646D8D94599808783388F16F6A801E8B8 LOG1 CALL 0x5E 0xD PUSH3 0x64736F PUSH13 0x63430008140033000000000000 "
		},
		"gasEstimates": {
			"creation": {
				"codeDepositCost": "715800",
				"executionCost": "747",
				"totalCost": "716547"
			},
			"external": {
				"constructContractURI()": "infinite",
				"constructSlotURI(uint256)": "infinite",
				"constructTokenURI(uint256)": "infinite"
			},
			"internal": {
				"_contractDescription()": "infinite",
				"_contractImage()": "infinite",
				"_slotDescription(uint256)": "infinite",
				"_slotImage(uint256)": "infinite",
				"_slotName(uint256)": "infinite",
				"_slotProperties(uint256)": "infinite",
				"_tokenDescription(uint256)": "infinite",
				"_tokenImage(uint256)": "infinite",
				"_tokenName(uint256)": "infinite",
				"_tokenProperties(uint256)": "infinite"
			}
		},
		"methodIdentifiers": {
			"constructContractURI()": "725fa09c",
			"constructSlotURI(uint256)": "6c037f8a",
			"constructTokenURI(uint256)": "894b4c2e"
		}
	},
	"abi": [
		{
			"inputs": [],
			"name": "constructContractURI",
			"outputs": [
				{
					"internalType": "string",
					"name": "",
					"type": "string"
				}
			],
			"stateMutability": "view",
			"type": "function"
		},
		{
			"inputs": [
				{
					"internalType": "uint256",
					"name": "slot_",
					"type": "uint256"
				}
			],
			"name": "constructSlotURI",
			"outputs": [
				{
					"internalType": "string",
					"name": "",
					"type": "string"
				}
			],
			"stateMutability": "view",
			"type": "function"
		},
		{
			"inputs": [
				{
					"internalType": "uint256",
					"name": "tokenId_",
					"type": "uint256"
				}
			],
			"name": "constructTokenURI",
			"outputs": [
				{
					"internalType": "string",
					"name": "",
					"type": "string"
				}
			],
			"stateMutability": "view",
			"type": "function"
		}
	]
}