{
	"contracts t-rex/registry/implementation/TrustedIssuersRegistry.sol": {
		"TrustedIssuersRegistry": {
			"abi": [
				{
					"inputs": [],
					"name": "InvalidInitialization",
					"type": "error"
				},
				{
					"inputs": [],
					"name": "NotInitializing",
					"type": "error"
				},
				{
					"inputs": [
						{
							"internalType": "address",
							"name": "owner",
							"type": "address"
						}
					],
					"name": "OwnableInvalidOwner",
					"type": "error"
				},
				{
					"inputs": [
						{
							"internalType": "address",
							"name": "account",
							"type": "address"
						}
					],
					"name": "OwnableUnauthorizedAccount",
					"type": "error"
				},
				{
					"anonymous": false,
					"inputs": [
						{
							"indexed": true,
							"internalType": "contract IClaimIssuer",
							"name": "trustedIssuer",
							"type": "address"
						},
						{
							"indexed": false,
							"internalType": "uint256[]",
							"name": "claimTopics",
							"type": "uint256[]"
						}
					],
					"name": "ClaimTopicsUpdated",
					"type": "event"
				},
				{
					"anonymous": false,
					"inputs": [
						{
							"indexed": false,
							"internalType": "uint64",
							"name": "version",
							"type": "uint64"
						}
					],
					"name": "Initialized",
					"type": "event"
				},
				{
					"anonymous": false,
					"inputs": [
						{
							"indexed": true,
							"internalType": "address",
							"name": "previousOwner",
							"type": "address"
						},
						{
							"indexed": true,
							"internalType": "address",
							"name": "newOwner",
							"type": "address"
						}
					],
					"name": "OwnershipTransferred",
					"type": "event"
				},
				{
					"anonymous": false,
					"inputs": [
						{
							"indexed": true,
							"internalType": "contract IClaimIssuer",
							"name": "trustedIssuer",
							"type": "address"
						},
						{
							"indexed": false,
							"internalType": "uint256[]",
							"name": "claimTopics",
							"type": "uint256[]"
						}
					],
					"name": "TrustedIssuerAdded",
					"type": "event"
				},
				{
					"anonymous": false,
					"inputs": [
						{
							"indexed": true,
							"internalType": "contract IClaimIssuer",
							"name": "trustedIssuer",
							"type": "address"
						}
					],
					"name": "TrustedIssuerRemoved",
					"type": "event"
				},
				{
					"inputs": [
						{
							"internalType": "contract IClaimIssuer",
							"name": "_trustedIssuer",
							"type": "address"
						},
						{
							"internalType": "uint256[]",
							"name": "_claimTopics",
							"type": "uint256[]"
						}
					],
					"name": "addTrustedIssuer",
					"outputs": [],
					"stateMutability": "nonpayable",
					"type": "function"
				},
				{
					"inputs": [
						{
							"internalType": "contract IClaimIssuer",
							"name": "_trustedIssuer",
							"type": "address"
						}
					],
					"name": "getTrustedIssuerClaimTopics",
					"outputs": [
						{
							"internalType": "uint256[]",
							"name": "",
							"type": "uint256[]"
						}
					],
					"stateMutability": "view",
					"type": "function"
				},
				{
					"inputs": [],
					"name": "getTrustedIssuers",
					"outputs": [
						{
							"internalType": "contract IClaimIssuer[]",
							"name": "",
							"type": "address[]"
						}
					],
					"stateMutability": "view",
					"type": "function"
				},
				{
					"inputs": [
						{
							"internalType": "uint256",
							"name": "claimTopic",
							"type": "uint256"
						}
					],
					"name": "getTrustedIssuersForClaimTopic",
					"outputs": [
						{
							"internalType": "contract IClaimIssuer[]",
							"name": "",
							"type": "address[]"
						}
					],
					"stateMutability": "view",
					"type": "function"
				},
				{
					"inputs": [
						{
							"internalType": "address",
							"name": "_issuer",
							"type": "address"
						},
						{
							"internalType": "uint256",
							"name": "_claimTopic",
							"type": "uint256"
						}
					],
					"name": "hasClaimTopic",
					"outputs": [
						{
							"internalType": "bool",
							"name": "",
							"type": "bool"
						}
					],
					"stateMutability": "view",
					"type": "function"
				},
				{
					"inputs": [],
					"name": "init",
					"outputs": [],
					"stateMutability": "nonpayable",
					"type": "function"
				},
				{
					"inputs": [
						{
							"internalType": "address",
							"name": "_issuer",
							"type": "address"
						}
					],
					"name": "isTrustedIssuer",
					"outputs": [
						{
							"internalType": "bool",
							"name": "",
							"type": "bool"
						}
					],
					"stateMutability": "view",
					"type": "function"
				},
				{
					"inputs": [],
					"name": "owner",
					"outputs": [
						{
							"internalType": "address",
							"name": "",
							"type": "address"
						}
					],
					"stateMutability": "view",
					"type": "function"
				},
				{
					"inputs": [
						{
							"internalType": "contract IClaimIssuer",
							"name": "_trustedIssuer",
							"type": "address"
						}
					],
					"name": "removeTrustedIssuer",
					"outputs": [],
					"stateMutability": "nonpayable",
					"type": "function"
				},
				{
					"inputs": [],
					"name": "renounceOwnership",
					"outputs": [],
					"stateMutability": "nonpayable",
					"type": "function"
				},
				{
					"inputs": [
						{
							"internalType": "address",
							"name": "newOwner",
							"type": "address"
						}
					],
					"name": "transferOwnership",
					"outputs": [],
					"stateMutability": "nonpayable",
					"type": "function"
				},
				{
					"inputs": [
						{
							"internalType": "contract IClaimIssuer",
							"name": "_trustedIssuer",
							"type": "address"
						},
						{
							"internalType": "uint256[]",
							"name": "_claimTopics",
							"type": "uint256[]"
						}
					],
					"name": "updateIssuerClaimTopics",
					"outputs": [],
					"stateMutability": "nonpayable",
					"type": "function"
				}
			],
			"devdoc": {
				"errors": {
					"InvalidInitialization()": [
						{
							"details": "The contract is already initialized."
						}
					],
					"NotInitializing()": [
						{
							"details": "The contract is not initializing."
						}
					],
					"OwnableInvalidOwner(address)": [
						{
							"details": "The owner is not a valid owner account. (eg. `address(0)`)"
						}
					],
					"OwnableUnauthorizedAccount(address)": [
						{
							"details": "The caller account is not authorized to perform an operation."
						}
					]
				},
				"kind": "dev",
				"methods": {
					"addTrustedIssuer(address,uint256[])": {
						"details": "See {ITrustedIssuersRegistry-addTrustedIssuer}."
					},
					"getTrustedIssuerClaimTopics(address)": {
						"details": "See {ITrustedIssuersRegistry-getTrustedIssuerClaimTopics}."
					},
					"getTrustedIssuers()": {
						"details": "See {ITrustedIssuersRegistry-getTrustedIssuers}."
					},
					"getTrustedIssuersForClaimTopic(uint256)": {
						"details": "See {ITrustedIssuersRegistry-getTrustedIssuersForClaimTopic}."
					},
					"hasClaimTopic(address,uint256)": {
						"details": "See {ITrustedIssuersRegistry-hasClaimTopic}."
					},
					"isTrustedIssuer(address)": {
						"details": "See {ITrustedIssuersRegistry-isTrustedIssuer}."
					},
					"owner()": {
						"details": "Returns the address of the current owner."
					},
					"removeTrustedIssuer(address)": {
						"details": "See {ITrustedIssuersRegistry-removeTrustedIssuer}."
					},
					"renounceOwnership()": {
						"details": "Leaves the contract without owner. It will not be possible to call `onlyOwner` functions. Can only be called by the current owner. NOTE: Renouncing ownership will leave the contract without an owner, thereby disabling any functionality that is only available to the owner."
					},
					"transferOwnership(address)": {
						"details": "Transfers ownership of the contract to a new account (`newOwner`). Can only be called by the current owner."
					},
					"updateIssuerClaimTopics(address,uint256[])": {
						"details": "See {ITrustedIssuersRegistry-updateIssuerClaimTopics}."
					}
				},
				"version": 1
			},
			"evm": {
				"assembly": "    /* \"contracts t-rex/registry/implementation/TrustedIssuersRegistry.sol\":4076:10069  contract TrustedIssuersRegistry is ITrustedIssuersRegistry, OwnableUpgradeable, TIRStorage {... */\n  mstore(0x40, 0x80)\n  callvalue\n  dup1\n  iszero\n  tag_1\n  jumpi\n  0x00\n  dup1\n  revert\ntag_1:\n  pop\n  dataSize(sub_0)\n  dup1\n  dataOffset(sub_0)\n  0x00\n  codecopy\n  0x00\n  return\nstop\n\nsub_0: assembly {\n        /* \"contracts t-rex/registry/implementation/TrustedIssuersRegistry.sol\":4076:10069  contract TrustedIssuersRegistry is ITrustedIssuersRegistry, OwnableUpgradeable, TIRStorage {... */\n      mstore(0x40, 0x80)\n      callvalue\n      dup1\n      iszero\n      tag_1\n      jumpi\n      0x00\n      dup1\n      revert\n    tag_1:\n      pop\n      jumpi(tag_2, lt(calldatasize, 0x04))\n      shr(0xe0, calldataload(0x00))\n      dup1\n      0x04bc7e84\n      eq\n      tag_3\n      jumpi\n      dup1\n      0x34a89987\n      eq\n      tag_4\n      jumpi\n      dup1\n      0x52c111d1\n      eq\n      tag_5\n      jumpi\n      dup1\n      0x715018a6\n      eq\n      tag_6\n      jumpi\n      dup1\n      0x8da5cb5b\n      eq\n      tag_7\n      jumpi\n      dup1\n      0x9f63ea98\n      eq\n      tag_8\n      jumpi\n      dup1\n      0xb93d28eb\n      eq\n      tag_9\n      jumpi\n      dup1\n      0xc28fb278\n      eq\n      tag_10\n      jumpi\n      dup1\n      0xd9dd24c5\n      eq\n      tag_11\n      jumpi\n      dup1\n      0xe1c7392a\n      eq\n      tag_12\n      jumpi\n      dup1\n      0xef2ed1a4\n      eq\n      tag_13\n      jumpi\n      dup1\n      0xf2fde38b\n      eq\n      tag_14\n      jumpi\n    tag_2:\n      0x00\n      dup1\n      revert\n        /* \"contracts t-rex/registry/implementation/TrustedIssuersRegistry.sol\":6931:8400  function updateIssuerClaimTopics(IClaimIssuer _trustedIssuer, uint256[] calldata _claimTopics) external override onlyOwner {... */\n    tag_3:\n      tag_15\n      tag_16\n      calldatasize\n      0x04\n      tag_17\n      jump\t// in\n    tag_16:\n      tag_18\n      jump\t// in\n    tag_15:\n      stop\n        /* \"contracts t-rex/registry/implementation/TrustedIssuersRegistry.sol\":9647:10067  function hasClaimTopic(address _issuer, uint256 _claimTopic) external view override returns (bool) {... */\n    tag_4:\n      tag_19\n      tag_20\n      calldatasize\n      0x04\n      tag_21\n      jump\t// in\n    tag_20:\n      tag_22\n      jump\t// in\n    tag_19:\n      mload(0x40)\n        /* \"#utility.yul\":1451:1465   */\n      swap1\n      iszero\n        /* \"#utility.yul\":1444:1466   */\n      iszero\n        /* \"#utility.yul\":1426:1467   */\n      dup2\n      mstore\n        /* \"#utility.yul\":1414:1416   */\n      0x20\n        /* \"#utility.yul\":1399:1417   */\n      add\n        /* \"contracts t-rex/registry/implementation/TrustedIssuersRegistry.sol\":9647:10067  function hasClaimTopic(address _issuer, uint256 _claimTopic) external view override returns (bool) {... */\n    tag_23:\n      mload(0x40)\n      dup1\n      swap2\n      sub\n      swap1\n      return\n        /* \"contracts t-rex/registry/implementation/TrustedIssuersRegistry.sol\":8704:8883  function getTrustedIssuersForClaimTopic(uint256 claimTopic) external view override returns (IClaimIssuer[] memory) {... */\n    tag_5:\n      tag_25\n      tag_26\n      calldatasize\n      0x04\n      tag_27\n      jump\t// in\n    tag_26:\n      tag_28\n      jump\t// in\n    tag_25:\n      mload(0x40)\n      tag_23\n      swap2\n      swap1\n      tag_30\n      jump\t// in\n        /* \"@openzeppelin/contracts-upgradeable/access/OwnableUpgradeable.sol\":3165:3266  function renounceOwnership() public virtual onlyOwner {... */\n    tag_6:\n      tag_15\n      tag_32\n      jump\t// in\n        /* \"@openzeppelin/contracts-upgradeable/access/OwnableUpgradeable.sol\":2451:2595  function owner() public view virtual returns (address) {... */\n    tag_7:\n      tag_33\n      tag_34\n      jump\t// in\n    tag_33:\n      mload(0x40)\n      tag_23\n      swap2\n      swap1\n      tag_36\n      jump\t// in\n        /* \"contracts t-rex/registry/implementation/TrustedIssuersRegistry.sol\":4337:5256  function addTrustedIssuer(IClaimIssuer _trustedIssuer, uint256[] calldata _claimTopics) external override onlyOwner {... */\n    tag_8:\n      tag_15\n      tag_38\n      calldatasize\n      0x04\n      tag_17\n      jump\t// in\n    tag_38:\n      tag_39\n      jump\t// in\n        /* \"contracts t-rex/registry/implementation/TrustedIssuersRegistry.sol\":5342:6841  function removeTrustedIssuer(IClaimIssuer _trustedIssuer) external override onlyOwner {... */\n    tag_9:\n      tag_15\n      tag_41\n      calldatasize\n      0x04\n      tag_42\n      jump\t// in\n    tag_41:\n      tag_43\n      jump\t// in\n        /* \"contracts t-rex/registry/implementation/TrustedIssuersRegistry.sol\":9263:9567  function getTrustedIssuerClaimTopics(IClaimIssuer _trustedIssuer) external view override returns (uint256[] memory) {... */\n    tag_10:\n      tag_44\n      tag_45\n      calldatasize\n      0x04\n      tag_42\n      jump\t// in\n    tag_45:\n      tag_46\n      jump\t// in\n    tag_44:\n      mload(0x40)\n      tag_23\n      swap2\n      swap1\n      tag_48\n      jump\t// in\n        /* \"contracts t-rex/registry/implementation/TrustedIssuersRegistry.sol\":8484:8607  function getTrustedIssuers() external view override returns (IClaimIssuer[] memory) {... */\n    tag_11:\n      tag_25\n      tag_50\n      jump\t// in\n        /* \"contracts t-rex/registry/implementation/TrustedIssuersRegistry.sol\":4174:4254  function init() external initializer {... */\n    tag_12:\n      tag_15\n      tag_53\n      jump\t// in\n        /* \"contracts t-rex/registry/implementation/TrustedIssuersRegistry.sol\":8965:9169  function isTrustedIssuer(address _issuer) external view override returns (bool) {... */\n    tag_13:\n      tag_19\n      tag_55\n      calldatasize\n      0x04\n      tag_42\n      jump\t// in\n    tag_55:\n      tag_57\n      jump\t// in\n        /* \"@openzeppelin/contracts-upgradeable/access/OwnableUpgradeable.sol\":3415:3630  function transferOwnership(address newOwner) public virtual onlyOwner {... */\n    tag_14:\n      tag_15\n      tag_60\n      calldatasize\n      0x04\n      tag_42\n      jump\t// in\n    tag_60:\n      tag_61\n      jump\t// in\n        /* \"contracts t-rex/registry/implementation/TrustedIssuersRegistry.sol\":6931:8400  function updateIssuerClaimTopics(IClaimIssuer _trustedIssuer, uint256[] calldata _claimTopics) external override onlyOwner {... */\n    tag_18:\n        /* \"@openzeppelin/contracts-upgradeable/access/OwnableUpgradeable.sol\":2344:2357  _checkOwner() */\n      tag_63\n        /* \"@openzeppelin/contracts-upgradeable/access/OwnableUpgradeable.sol\":2344:2355  _checkOwner */\n      tag_64\n        /* \"@openzeppelin/contracts-upgradeable/access/OwnableUpgradeable.sol\":2344:2357  _checkOwner() */\n      jump\t// in\n    tag_63:\n      sub(shl(0xa0, 0x01), 0x01)\n        /* \"contracts t-rex/registry/implementation/TrustedIssuersRegistry.sol\":7072:7109  address(_trustedIssuer) != address(0) */\n      dup4\n      and\n        /* \"contracts t-rex/registry/implementation/TrustedIssuersRegistry.sol\":7064:7145  require(address(_trustedIssuer) != address(0), \"invalid argument - zero address\") */\n      tag_66\n      jumpi\n      mload(0x40)\n      shl(0xe5, 0x461bcd)\n      dup2\n      mstore\n      0x04\n      add\n      tag_67\n      swap1\n      tag_68\n      jump\t// in\n    tag_67:\n      mload(0x40)\n      dup1\n      swap2\n      sub\n      swap1\n      revert\n    tag_66:\n      sub(shl(0xa0, 0x01), 0x01)\n        /* \"contracts t-rex/registry/implementation/TrustedIssuersRegistry.sol\":7163:7213  _trustedIssuerClaimTopics[address(_trustedIssuer)] */\n      dup4\n      and\n      0x00\n      swap1\n      dup2\n      mstore\n        /* \"contracts t-rex/registry/implementation/TrustedIssuersRegistry.sol\":7163:7188  _trustedIssuerClaimTopics */\n      0x01\n        /* \"contracts t-rex/registry/implementation/TrustedIssuersRegistry.sol\":7163:7213  _trustedIssuerClaimTopics[address(_trustedIssuer)] */\n      0x20\n      mstore\n      0x40\n      dup2\n      keccak256\n        /* \"contracts t-rex/registry/implementation/TrustedIssuersRegistry.sol\":7163:7220  _trustedIssuerClaimTopics[address(_trustedIssuer)].length */\n      sload\n        /* \"contracts t-rex/registry/implementation/TrustedIssuersRegistry.sol\":7163:7225  _trustedIssuerClaimTopics[address(_trustedIssuer)].length != 0 */\n      swap1\n      sub\n        /* \"contracts t-rex/registry/implementation/TrustedIssuersRegistry.sol\":7155:7250  require(_trustedIssuerClaimTopics[address(_trustedIssuer)].length != 0, \"NOT a trusted issuer\") */\n      tag_69\n      jumpi\n      mload(0x40)\n      shl(0xe5, 0x461bcd)\n      dup2\n      mstore\n      0x04\n      add\n      tag_67\n      swap1\n      tag_71\n      jump\t// in\n    tag_69:\n        /* \"contracts t-rex/registry/implementation/TrustedIssuersRegistry.sol\":7291:7293  15 */\n      0x0f\n        /* \"contracts t-rex/registry/implementation/TrustedIssuersRegistry.sol\":7268:7293  _claimTopics.length <= 15 */\n      dup2\n      gt\n      iszero\n        /* \"contracts t-rex/registry/implementation/TrustedIssuersRegistry.sol\":7260:7335  require(_claimTopics.length <= 15, \"cannot have more than 15 claim topics\") */\n      tag_72\n      jumpi\n      mload(0x40)\n      shl(0xe5, 0x461bcd)\n      dup2\n      mstore\n      0x04\n      add\n      tag_67\n      swap1\n      tag_74\n      jump\t// in\n    tag_72:\n        /* \"contracts t-rex/registry/implementation/TrustedIssuersRegistry.sol\":7353:7376  _claimTopics.length > 0 */\n      dup1\n        /* \"contracts t-rex/registry/implementation/TrustedIssuersRegistry.sol\":7345:7409  require(_claimTopics.length > 0, \"claim topics cannot be empty\") */\n      tag_75\n      jumpi\n      mload(0x40)\n      shl(0xe5, 0x461bcd)\n      dup2\n      mstore\n        /* \"#utility.yul\":5058:5060   */\n      0x20\n        /* \"contracts t-rex/registry/implementation/TrustedIssuersRegistry.sol\":7345:7409  require(_claimTopics.length > 0, \"claim topics cannot be empty\") */\n      0x04\n      dup3\n      add\n        /* \"#utility.yul\":5040:5061   */\n      mstore\n        /* \"#utility.yul\":5097:5099   */\n      0x1c\n        /* \"#utility.yul\":5077:5095   */\n      0x24\n      dup3\n      add\n        /* \"#utility.yul\":5070:5100   */\n      mstore\n      shl(0x20, 0x636c61696d20746f706963732063616e6e6f7420626520656d707479)\n        /* \"#utility.yul\":5116:5134   */\n      0x44\n      dup3\n      add\n        /* \"#utility.yul\":5109:5167   */\n      mstore\n        /* \"#utility.yul\":5184:5202   */\n      0x64\n      add\n        /* \"contracts t-rex/registry/implementation/TrustedIssuersRegistry.sol\":7345:7409  require(_claimTopics.length > 0, \"claim topics cannot be empty\") */\n      tag_67\n        /* \"#utility.yul\":4856:5208   */\n      jump\n        /* \"contracts t-rex/registry/implementation/TrustedIssuersRegistry.sol\":7345:7409  require(_claimTopics.length > 0, \"claim topics cannot be empty\") */\n    tag_75:\n        /* \"contracts t-rex/registry/implementation/TrustedIssuersRegistry.sol\":7425:7434  uint256 i */\n      0x00\n        /* \"contracts t-rex/registry/implementation/TrustedIssuersRegistry.sol\":7420:8106  for (uint256 i = 0; i < _trustedIssuerClaimTopics[address(_trustedIssuer)].length; i++) {... */\n    tag_78:\n      sub(shl(0xa0, 0x01), 0x01)\n        /* \"contracts t-rex/registry/implementation/TrustedIssuersRegistry.sol\":7444:7494  _trustedIssuerClaimTopics[address(_trustedIssuer)] */\n      dup5\n      and\n      0x00\n      swap1\n      dup2\n      mstore\n        /* \"contracts t-rex/registry/implementation/TrustedIssuersRegistry.sol\":7444:7469  _trustedIssuerClaimTopics */\n      0x01\n        /* \"contracts t-rex/registry/implementation/TrustedIssuersRegistry.sol\":7444:7494  _trustedIssuerClaimTopics[address(_trustedIssuer)] */\n      0x20\n      mstore\n      0x40\n      swap1\n      keccak256\n        /* \"contracts t-rex/registry/implementation/TrustedIssuersRegistry.sol\":7444:7501  _trustedIssuerClaimTopics[address(_trustedIssuer)].length */\n      sload\n        /* \"contracts t-rex/registry/implementation/TrustedIssuersRegistry.sol\":7440:7501  i < _trustedIssuerClaimTopics[address(_trustedIssuer)].length */\n      dup2\n      lt\n        /* \"contracts t-rex/registry/implementation/TrustedIssuersRegistry.sol\":7420:8106  for (uint256 i = 0; i < _trustedIssuerClaimTopics[address(_trustedIssuer)].length; i++) {... */\n      iszero\n      tag_79\n      jumpi\n      sub(shl(0xa0, 0x01), 0x01)\n        /* \"contracts t-rex/registry/implementation/TrustedIssuersRegistry.sol\":7543:7593  _trustedIssuerClaimTopics[address(_trustedIssuer)] */\n      dup5\n      and\n        /* \"contracts t-rex/registry/implementation/TrustedIssuersRegistry.sol\":7522:7540  uint256 claimTopic */\n      0x00\n        /* \"contracts t-rex/registry/implementation/TrustedIssuersRegistry.sol\":7543:7593  _trustedIssuerClaimTopics[address(_trustedIssuer)] */\n      swap1\n      dup2\n      mstore\n        /* \"contracts t-rex/registry/implementation/TrustedIssuersRegistry.sol\":7543:7568  _trustedIssuerClaimTopics */\n      0x01\n        /* \"contracts t-rex/registry/implementation/TrustedIssuersRegistry.sol\":7543:7593  _trustedIssuerClaimTopics[address(_trustedIssuer)] */\n      0x20\n      mstore\n      0x40\n      dup2\n      keccak256\n        /* \"contracts t-rex/registry/implementation/TrustedIssuersRegistry.sol\":7543:7596  _trustedIssuerClaimTopics[address(_trustedIssuer)][i] */\n      dup1\n      sload\n        /* \"contracts t-rex/registry/implementation/TrustedIssuersRegistry.sol\":7594:7595  i */\n      dup4\n      swap1\n        /* \"contracts t-rex/registry/implementation/TrustedIssuersRegistry.sol\":7543:7596  _trustedIssuerClaimTopics[address(_trustedIssuer)][i] */\n      dup2\n      lt\n      tag_82\n      jumpi\n      tag_82\n      tag_83\n      jump\t// in\n    tag_82:\n      0x00\n      swap2\n      dup3\n      mstore\n      0x20\n      dup1\n      dup4\n      keccak256\n      swap1\n      swap2\n      add\n      sload\n        /* \"contracts t-rex/registry/implementation/TrustedIssuersRegistry.sol\":7633:7673  _claimTopicsToTrustedIssuers[claimTopic] */\n      dup1\n      dup4\n      mstore\n        /* \"contracts t-rex/registry/implementation/TrustedIssuersRegistry.sol\":7633:7661  _claimTopicsToTrustedIssuers */\n      0x02\n        /* \"contracts t-rex/registry/implementation/TrustedIssuersRegistry.sol\":7633:7673  _claimTopicsToTrustedIssuers[claimTopic] */\n      swap1\n      swap2\n      mstore\n      0x40\n      dup3\n      keccak256\n        /* \"contracts t-rex/registry/implementation/TrustedIssuersRegistry.sol\":7633:7680  _claimTopicsToTrustedIssuers[claimTopic].length */\n      sload\n        /* \"contracts t-rex/registry/implementation/TrustedIssuersRegistry.sol\":7543:7596  _trustedIssuerClaimTopics[address(_trustedIssuer)][i] */\n      swap1\n      swap3\n      pop\n        /* \"contracts t-rex/registry/implementation/TrustedIssuersRegistry.sol\":7633:7680  _claimTopicsToTrustedIssuers[claimTopic].length */\n      swap1\n        /* \"contracts t-rex/registry/implementation/TrustedIssuersRegistry.sol\":7694:8096  for (uint256 j = 0; j < topicsLength; j++) {... */\n    tag_85:\n        /* \"contracts t-rex/registry/implementation/TrustedIssuersRegistry.sol\":7718:7730  topicsLength */\n      dup2\n        /* \"contracts t-rex/registry/implementation/TrustedIssuersRegistry.sol\":7714:7715  j */\n      dup2\n        /* \"contracts t-rex/registry/implementation/TrustedIssuersRegistry.sol\":7714:7730  j < topicsLength */\n      lt\n        /* \"contracts t-rex/registry/implementation/TrustedIssuersRegistry.sol\":7694:8096  for (uint256 j = 0; j < topicsLength; j++) {... */\n      iszero\n      tag_86\n      jumpi\n        /* \"contracts t-rex/registry/implementation/TrustedIssuersRegistry.sol\":7759:7799  _claimTopicsToTrustedIssuers[claimTopic] */\n      0x00\n      dup4\n      dup2\n      mstore\n        /* \"contracts t-rex/registry/implementation/TrustedIssuersRegistry.sol\":7759:7787  _claimTopicsToTrustedIssuers */\n      0x02\n        /* \"contracts t-rex/registry/implementation/TrustedIssuersRegistry.sol\":7759:7799  _claimTopicsToTrustedIssuers[claimTopic] */\n      0x20\n      mstore\n      0x40\n      swap1\n      keccak256\n        /* \"contracts t-rex/registry/implementation/TrustedIssuersRegistry.sol\":7759:7802  _claimTopicsToTrustedIssuers[claimTopic][j] */\n      dup1\n      sload\n      sub(shl(0xa0, 0x01), 0x01)\n        /* \"contracts t-rex/registry/implementation/TrustedIssuersRegistry.sol\":7759:7820  _claimTopicsToTrustedIssuers[claimTopic][j] == _trustedIssuer */\n      dup10\n      and\n      swap2\n        /* \"contracts t-rex/registry/implementation/TrustedIssuersRegistry.sol\":7759:7799  _claimTopicsToTrustedIssuers[claimTopic] */\n      swap1\n        /* \"contracts t-rex/registry/implementation/TrustedIssuersRegistry.sol\":7800:7801  j */\n      dup4\n      swap1\n        /* \"contracts t-rex/registry/implementation/TrustedIssuersRegistry.sol\":7759:7802  _claimTopicsToTrustedIssuers[claimTopic][j] */\n      dup2\n      lt\n      tag_89\n      jumpi\n      tag_89\n      tag_83\n      jump\t// in\n    tag_89:\n      0x00\n      swap2\n      dup3\n      mstore\n      0x20\n      swap1\n      swap2\n      keccak256\n      add\n      sload\n      sub(shl(0xa0, 0x01), 0x01)\n      and\n        /* \"contracts t-rex/registry/implementation/TrustedIssuersRegistry.sol\":7759:7820  _claimTopicsToTrustedIssuers[claimTopic][j] == _trustedIssuer */\n      sub\n        /* \"contracts t-rex/registry/implementation/TrustedIssuersRegistry.sol\":7755:8082  if (_claimTopicsToTrustedIssuers[claimTopic][j] == _trustedIssuer) {... */\n      tag_91\n      jumpi\n        /* \"contracts t-rex/registry/implementation/TrustedIssuersRegistry.sol\":7910:7950  _claimTopicsToTrustedIssuers[claimTopic] */\n      0x00\n      dup4\n      dup2\n      mstore\n        /* \"contracts t-rex/registry/implementation/TrustedIssuersRegistry.sol\":7910:7938  _claimTopicsToTrustedIssuers */\n      0x02\n        /* \"contracts t-rex/registry/implementation/TrustedIssuersRegistry.sol\":7910:7950  _claimTopicsToTrustedIssuers[claimTopic] */\n      0x20\n      mstore\n      0x40\n      swap1\n      keccak256\n        /* \"contracts t-rex/registry/implementation/TrustedIssuersRegistry.sol\":7951:7967  topicsLength - 1 */\n      tag_92\n        /* \"contracts t-rex/registry/implementation/TrustedIssuersRegistry.sol\":7966:7967  1 */\n      0x01\n        /* \"contracts t-rex/registry/implementation/TrustedIssuersRegistry.sol\":7951:7963  topicsLength */\n      dup5\n        /* \"contracts t-rex/registry/implementation/TrustedIssuersRegistry.sol\":7951:7967  topicsLength - 1 */\n      tag_93\n      jump\t// in\n    tag_92:\n        /* \"contracts t-rex/registry/implementation/TrustedIssuersRegistry.sol\":7910:7968  _claimTopicsToTrustedIssuers[claimTopic][topicsLength - 1] */\n      dup2\n      sload\n      dup2\n      lt\n      tag_95\n      jumpi\n      tag_95\n      tag_83\n      jump\t// in\n    tag_95:\n      0x00\n      swap2\n      dup3\n      mstore\n      0x20\n      dup1\n      dup4\n      keccak256\n      swap1\n      swap2\n      add\n      sload\n        /* \"contracts t-rex/registry/implementation/TrustedIssuersRegistry.sol\":7844:7884  _claimTopicsToTrustedIssuers[claimTopic] */\n      dup6\n      dup4\n      mstore\n        /* \"contracts t-rex/registry/implementation/TrustedIssuersRegistry.sol\":7844:7872  _claimTopicsToTrustedIssuers */\n      0x02\n        /* \"contracts t-rex/registry/implementation/TrustedIssuersRegistry.sol\":7844:7884  _claimTopicsToTrustedIssuers[claimTopic] */\n      swap1\n      swap2\n      mstore\n      0x40\n      swap1\n      swap2\n      keccak256\n        /* \"contracts t-rex/registry/implementation/TrustedIssuersRegistry.sol\":7844:7887  _claimTopicsToTrustedIssuers[claimTopic][j] */\n      dup1\n      sload\n      sub(shl(0xa0, 0x01), 0x01)\n        /* \"contracts t-rex/registry/implementation/TrustedIssuersRegistry.sol\":7910:7968  _claimTopicsToTrustedIssuers[claimTopic][topicsLength - 1] */\n      swap1\n      swap3\n      and\n      swap2\n        /* \"contracts t-rex/registry/implementation/TrustedIssuersRegistry.sol\":7885:7886  j */\n      dup4\n      swap1\n        /* \"contracts t-rex/registry/implementation/TrustedIssuersRegistry.sol\":7844:7887  _claimTopicsToTrustedIssuers[claimTopic][j] */\n      dup2\n      lt\n      tag_98\n      jumpi\n      tag_98\n      tag_83\n      jump\t// in\n    tag_98:\n      0x00\n      swap2\n      dup3\n      mstore\n      0x20\n      dup1\n      dup4\n      keccak256\n      swap2\n      swap1\n      swap2\n      add\n        /* \"contracts t-rex/registry/implementation/TrustedIssuersRegistry.sol\":7844:7968  _claimTopicsToTrustedIssuers[claimTopic][j] =... */\n      dup1\n      sload\n      not(sub(shl(0xa0, 0x01), 0x01))\n      and\n      sub(shl(0xa0, 0x01), 0x01)\n      swap5\n      swap1\n      swap5\n      and\n      swap4\n      swap1\n      swap4\n      or\n      swap1\n      swap3\n      sstore\n        /* \"contracts t-rex/registry/implementation/TrustedIssuersRegistry.sol\":7990:8030  _claimTopicsToTrustedIssuers[claimTopic] */\n      dup5\n      dup2\n      mstore\n        /* \"contracts t-rex/registry/implementation/TrustedIssuersRegistry.sol\":7990:8018  _claimTopicsToTrustedIssuers */\n      0x02\n        /* \"contracts t-rex/registry/implementation/TrustedIssuersRegistry.sol\":7990:8030  _claimTopicsToTrustedIssuers[claimTopic] */\n      swap1\n      swap2\n      mstore\n      0x40\n      swap1\n      keccak256\n        /* \"contracts t-rex/registry/implementation/TrustedIssuersRegistry.sol\":7990:8036  _claimTopicsToTrustedIssuers[claimTopic].pop() */\n      dup1\n      sload\n      dup1\n      tag_101\n      jumpi\n      tag_101\n      tag_102\n      jump\t// in\n    tag_101:\n      0x00\n      dup3\n      dup2\n      mstore\n      0x20\n      swap1\n      keccak256\n      dup2\n      add\n      not(0x00)\n      swap1\n      dup2\n      add\n      dup1\n      sload\n      not(sub(shl(0xa0, 0x01), 0x01))\n      and\n      swap1\n      sstore\n      add\n      swap1\n      sstore\n        /* \"contracts t-rex/registry/implementation/TrustedIssuersRegistry.sol\":8058:8063  break */\n      jump(tag_86)\n        /* \"contracts t-rex/registry/implementation/TrustedIssuersRegistry.sol\":7755:8082  if (_claimTopicsToTrustedIssuers[claimTopic][j] == _trustedIssuer) {... */\n    tag_91:\n        /* \"contracts t-rex/registry/implementation/TrustedIssuersRegistry.sol\":7732:7735  j++ */\n      dup1\n      tag_104\n      dup2\n      tag_105\n      jump\t// in\n    tag_104:\n      swap2\n      pop\n      pop\n        /* \"contracts t-rex/registry/implementation/TrustedIssuersRegistry.sol\":7694:8096  for (uint256 j = 0; j < topicsLength; j++) {... */\n      jump(tag_85)\n    tag_86:\n      pop\n        /* \"contracts t-rex/registry/implementation/TrustedIssuersRegistry.sol\":7508:8106  {... */\n      pop\n      pop\n        /* \"contracts t-rex/registry/implementation/TrustedIssuersRegistry.sol\":7503:7506  i++ */\n      dup1\n      dup1\n      tag_106\n      swap1\n      tag_105\n      jump\t// in\n    tag_106:\n      swap2\n      pop\n      pop\n        /* \"contracts t-rex/registry/implementation/TrustedIssuersRegistry.sol\":7420:8106  for (uint256 i = 0; i < _trustedIssuerClaimTopics[address(_trustedIssuer)].length; i++) {... */\n      jump(tag_78)\n    tag_79:\n      pop\n      sub(shl(0xa0, 0x01), 0x01)\n        /* \"contracts t-rex/registry/implementation/TrustedIssuersRegistry.sol\":8115:8165  _trustedIssuerClaimTopics[address(_trustedIssuer)] */\n      dup4\n      and\n      0x00\n      swap1\n      dup2\n      mstore\n        /* \"contracts t-rex/registry/implementation/TrustedIssuersRegistry.sol\":8115:8140  _trustedIssuerClaimTopics */\n      0x01\n        /* \"contracts t-rex/registry/implementation/TrustedIssuersRegistry.sol\":8115:8165  _trustedIssuerClaimTopics[address(_trustedIssuer)] */\n      0x20\n      mstore\n      0x40\n      swap1\n      keccak256\n        /* \"contracts t-rex/registry/implementation/TrustedIssuersRegistry.sol\":8115:8180  _trustedIssuerClaimTopics[address(_trustedIssuer)] = _claimTopics */\n      tag_107\n      swap1\n        /* \"contracts t-rex/registry/implementation/TrustedIssuersRegistry.sol\":8168:8180  _claimTopics */\n      dup4\n      dup4\n        /* \"contracts t-rex/registry/implementation/TrustedIssuersRegistry.sol\":8115:8180  _trustedIssuerClaimTopics[address(_trustedIssuer)] = _claimTopics */\n      tag_108\n      jump\t// in\n    tag_107:\n      pop\n        /* \"contracts t-rex/registry/implementation/TrustedIssuersRegistry.sol\":8195:8204  uint256 i */\n      0x00\n        /* \"contracts t-rex/registry/implementation/TrustedIssuersRegistry.sol\":8190:8331  for (uint256 i = 0; i < _claimTopics.length; i++) {... */\n    tag_109:\n        /* \"contracts t-rex/registry/implementation/TrustedIssuersRegistry.sol\":8210:8233  i < _claimTopics.length */\n      dup2\n      dup2\n      lt\n        /* \"contracts t-rex/registry/implementation/TrustedIssuersRegistry.sol\":8190:8331  for (uint256 i = 0; i < _claimTopics.length; i++) {... */\n      iszero\n      tag_110\n      jumpi\n        /* \"contracts t-rex/registry/implementation/TrustedIssuersRegistry.sol\":8254:8282  _claimTopicsToTrustedIssuers */\n      0x02\n        /* \"contracts t-rex/registry/implementation/TrustedIssuersRegistry.sol\":8254:8299  _claimTopicsToTrustedIssuers[_claimTopics[i]] */\n      0x00\n        /* \"contracts t-rex/registry/implementation/TrustedIssuersRegistry.sol\":8283:8295  _claimTopics */\n      dup5\n      dup5\n        /* \"contracts t-rex/registry/implementation/TrustedIssuersRegistry.sol\":8296:8297  i */\n      dup5\n        /* \"contracts t-rex/registry/implementation/TrustedIssuersRegistry.sol\":8283:8298  _claimTopics[i] */\n      dup2\n      dup2\n      lt\n      tag_113\n      jumpi\n      tag_113\n      tag_83\n      jump\t// in\n    tag_113:\n      0x20\n      swap1\n      dup2\n      mul\n      swap3\n      swap1\n      swap3\n      add\n      calldataload\n        /* \"contracts t-rex/registry/implementation/TrustedIssuersRegistry.sol\":8254:8299  _claimTopicsToTrustedIssuers[_claimTopics[i]] */\n      dup4\n      mstore\n      pop\n      dup2\n      dup2\n      add\n      swap3\n      swap1\n      swap3\n      mstore\n      0x40\n      add\n      0x00\n      swap1\n      dup2\n      keccak256\n        /* \"contracts t-rex/registry/implementation/TrustedIssuersRegistry.sol\":8254:8320  _claimTopicsToTrustedIssuers[_claimTopics[i]].push(_trustedIssuer) */\n      dup1\n      sload\n      0x01\n      dup2\n      add\n      dup3\n      sstore\n      swap1\n      dup3\n      mstore\n      swap2\n      swap1\n      keccak256\n      add\n      dup1\n      sload\n      not(sub(shl(0xa0, 0x01), 0x01))\n      and\n      sub(shl(0xa0, 0x01), 0x01)\n      dup7\n      and\n      or\n      swap1\n      sstore\n        /* \"contracts t-rex/registry/implementation/TrustedIssuersRegistry.sol\":8235:8238  i++ */\n      dup1\n      tag_115\n      dup2\n      tag_105\n      jump\t// in\n    tag_115:\n      swap2\n      pop\n      pop\n        /* \"contracts t-rex/registry/implementation/TrustedIssuersRegistry.sol\":8190:8331  for (uint256 i = 0; i < _claimTopics.length; i++) {... */\n      jump(tag_109)\n    tag_110:\n      pop\n        /* \"contracts t-rex/registry/implementation/TrustedIssuersRegistry.sol\":8364:8378  _trustedIssuer */\n      dup3\n      sub(shl(0xa0, 0x01), 0x01)\n        /* \"contracts t-rex/registry/implementation/TrustedIssuersRegistry.sol\":8345:8393  ClaimTopicsUpdated(_trustedIssuer, _claimTopics) */\n      and\n      0xec753cfc52044f61676f18a11e500093a9f2b1cd5e4942bc476f2b0438159bcf\n        /* \"contracts t-rex/registry/implementation/TrustedIssuersRegistry.sol\":8380:8392  _claimTopics */\n      dup4\n      dup4\n        /* \"contracts t-rex/registry/implementation/TrustedIssuersRegistry.sol\":8345:8393  ClaimTopicsUpdated(_trustedIssuer, _claimTopics) */\n      mload(0x40)\n      tag_116\n      swap3\n      swap2\n      swap1\n      tag_117\n      jump\t// in\n    tag_116:\n      mload(0x40)\n      dup1\n      swap2\n      sub\n      swap1\n      log2\n        /* \"contracts t-rex/registry/implementation/TrustedIssuersRegistry.sol\":6931:8400  function updateIssuerClaimTopics(IClaimIssuer _trustedIssuer, uint256[] calldata _claimTopics) external override onlyOwner {... */\n      pop\n      pop\n      pop\n      jump\t// out\n        /* \"contracts t-rex/registry/implementation/TrustedIssuersRegistry.sol\":9647:10067  function hasClaimTopic(address _issuer, uint256 _claimTopic) external view override returns (bool) {... */\n    tag_22:\n      sub(shl(0xa0, 0x01), 0x01)\n        /* \"contracts t-rex/registry/implementation/TrustedIssuersRegistry.sol\":9773:9807  _trustedIssuerClaimTopics[_issuer] */\n      dup3\n      and\n        /* \"contracts t-rex/registry/implementation/TrustedIssuersRegistry.sol\":9740:9744  bool */\n      0x00\n        /* \"contracts t-rex/registry/implementation/TrustedIssuersRegistry.sol\":9773:9807  _trustedIssuerClaimTopics[_issuer] */\n      swap1\n      dup2\n      mstore\n        /* \"contracts t-rex/registry/implementation/TrustedIssuersRegistry.sol\":9773:9798  _trustedIssuerClaimTopics */\n      0x01\n        /* \"contracts t-rex/registry/implementation/TrustedIssuersRegistry.sol\":9773:9807  _trustedIssuerClaimTopics[_issuer] */\n      0x20\n      swap1\n      dup2\n      mstore\n      0x40\n      dup1\n      dup4\n      keccak256\n        /* \"contracts t-rex/registry/implementation/TrustedIssuersRegistry.sol\":9773:9814  _trustedIssuerClaimTopics[_issuer].length */\n      dup1\n      sload\n        /* \"contracts t-rex/registry/implementation/TrustedIssuersRegistry.sol\":9824:9889  uint256[] memory claimTopics = _trustedIssuerClaimTopics[_issuer] */\n      dup3\n      mload\n      dup2\n      dup6\n      mul\n      dup2\n      add\n      dup6\n      add\n      swap1\n      swap4\n      mstore\n      dup1\n      dup4\n      mstore\n        /* \"contracts t-rex/registry/implementation/TrustedIssuersRegistry.sol\":9773:9814  _trustedIssuerClaimTopics[_issuer].length */\n      swap3\n        /* \"contracts t-rex/registry/implementation/TrustedIssuersRegistry.sol\":9740:9744  bool */\n      dup5\n      swap3\n        /* \"contracts t-rex/registry/implementation/TrustedIssuersRegistry.sol\":9824:9889  uint256[] memory claimTopics = _trustedIssuerClaimTopics[_issuer] */\n      swap2\n        /* \"contracts t-rex/registry/implementation/TrustedIssuersRegistry.sol\":9773:9807  _trustedIssuerClaimTopics[_issuer] */\n      swap1\n        /* \"contracts t-rex/registry/implementation/TrustedIssuersRegistry.sol\":9773:9814  _trustedIssuerClaimTopics[_issuer].length */\n      dup5\n      swap1\n        /* \"contracts t-rex/registry/implementation/TrustedIssuersRegistry.sol\":9824:9889  uint256[] memory claimTopics = _trustedIssuerClaimTopics[_issuer] */\n      dup4\n      add\n        /* \"contracts t-rex/registry/implementation/TrustedIssuersRegistry.sol\":9773:9807  _trustedIssuerClaimTopics[_issuer] */\n      dup3\n        /* \"contracts t-rex/registry/implementation/TrustedIssuersRegistry.sol\":9773:9814  _trustedIssuerClaimTopics[_issuer].length */\n      dup3\n        /* \"contracts t-rex/registry/implementation/TrustedIssuersRegistry.sol\":9824:9889  uint256[] memory claimTopics = _trustedIssuerClaimTopics[_issuer] */\n      dup1\n      iszero\n      tag_119\n      jumpi\n      0x20\n      mul\n      dup3\n      add\n      swap2\n      swap1\n      0x00\n      mstore\n      keccak256(0x00, 0x20)\n      swap1\n    tag_120:\n      dup2\n      sload\n      dup2\n      mstore\n      0x20\n      add\n      swap1\n      0x01\n      add\n      swap1\n      dup1\n      dup4\n      gt\n      tag_120\n      jumpi\n    tag_119:\n      pop\n      pop\n      pop\n      pop\n      pop\n      swap1\n      pop\n        /* \"contracts t-rex/registry/implementation/TrustedIssuersRegistry.sol\":9904:9913  uint256 i */\n      0x00\n        /* \"contracts t-rex/registry/implementation/TrustedIssuersRegistry.sol\":9899:10039  for (uint256 i = 0; i < length; i++) {... */\n    tag_121:\n        /* \"contracts t-rex/registry/implementation/TrustedIssuersRegistry.sol\":9923:9929  length */\n      dup3\n        /* \"contracts t-rex/registry/implementation/TrustedIssuersRegistry.sol\":9919:9920  i */\n      dup2\n        /* \"contracts t-rex/registry/implementation/TrustedIssuersRegistry.sol\":9919:9929  i < length */\n      lt\n        /* \"contracts t-rex/registry/implementation/TrustedIssuersRegistry.sol\":9899:10039  for (uint256 i = 0; i < length; i++) {... */\n      iszero\n      tag_122\n      jumpi\n        /* \"contracts t-rex/registry/implementation/TrustedIssuersRegistry.sol\":9972:9983  _claimTopic */\n      dup5\n        /* \"contracts t-rex/registry/implementation/TrustedIssuersRegistry.sol\":9954:9965  claimTopics */\n      dup3\n        /* \"contracts t-rex/registry/implementation/TrustedIssuersRegistry.sol\":9966:9967  i */\n      dup3\n        /* \"contracts t-rex/registry/implementation/TrustedIssuersRegistry.sol\":9954:9968  claimTopics[i] */\n      dup2\n      mload\n      dup2\n      lt\n      tag_125\n      jumpi\n      tag_125\n      tag_83\n      jump\t// in\n    tag_125:\n      0x20\n      mul\n      0x20\n      add\n      add\n      mload\n        /* \"contracts t-rex/registry/implementation/TrustedIssuersRegistry.sol\":9954:9983  claimTopics[i] == _claimTopic */\n      sub\n        /* \"contracts t-rex/registry/implementation/TrustedIssuersRegistry.sol\":9950:10029  if (claimTopics[i] == _claimTopic) {... */\n      tag_126\n      jumpi\n        /* \"contracts t-rex/registry/implementation/TrustedIssuersRegistry.sol\":10010:10014  true */\n      0x01\n        /* \"contracts t-rex/registry/implementation/TrustedIssuersRegistry.sol\":10003:10014  return true */\n      swap4\n      pop\n      pop\n      pop\n      pop\n      jump(tag_118)\n        /* \"contracts t-rex/registry/implementation/TrustedIssuersRegistry.sol\":9950:10029  if (claimTopics[i] == _claimTopic) {... */\n    tag_126:\n        /* \"contracts t-rex/registry/implementation/TrustedIssuersRegistry.sol\":9931:9934  i++ */\n      dup1\n      tag_127\n      dup2\n      tag_105\n      jump\t// in\n    tag_127:\n      swap2\n      pop\n      pop\n        /* \"contracts t-rex/registry/implementation/TrustedIssuersRegistry.sol\":9899:10039  for (uint256 i = 0; i < length; i++) {... */\n      jump(tag_121)\n    tag_122:\n      pop\n        /* \"contracts t-rex/registry/implementation/TrustedIssuersRegistry.sol\":10055:10060  false */\n      0x00\n        /* \"contracts t-rex/registry/implementation/TrustedIssuersRegistry.sol\":10048:10060  return false */\n      swap3\n      pop\n      pop\n      pop\n        /* \"contracts t-rex/registry/implementation/TrustedIssuersRegistry.sol\":9647:10067  function hasClaimTopic(address _issuer, uint256 _claimTopic) external view override returns (bool) {... */\n    tag_118:\n      swap3\n      swap2\n      pop\n      pop\n      jump\t// out\n        /* \"contracts t-rex/registry/implementation/TrustedIssuersRegistry.sol\":8704:8883  function getTrustedIssuersForClaimTopic(uint256 claimTopic) external view override returns (IClaimIssuer[] memory) {... */\n    tag_28:\n        /* \"contracts t-rex/registry/implementation/TrustedIssuersRegistry.sol\":8836:8876  _claimTopicsToTrustedIssuers[claimTopic] */\n      0x00\n      dup2\n      dup2\n      mstore\n        /* \"contracts t-rex/registry/implementation/TrustedIssuersRegistry.sol\":8836:8864  _claimTopicsToTrustedIssuers */\n      0x02\n        /* \"contracts t-rex/registry/implementation/TrustedIssuersRegistry.sol\":8836:8876  _claimTopicsToTrustedIssuers[claimTopic] */\n      0x20\n      swap1\n      dup2\n      mstore\n      0x40\n      swap2\n      dup3\n      swap1\n      keccak256\n        /* \"contracts t-rex/registry/implementation/TrustedIssuersRegistry.sol\":8829:8876  return _claimTopicsToTrustedIssuers[claimTopic] */\n      dup1\n      sload\n      dup4\n      mload\n      dup2\n      dup5\n      mul\n      dup2\n      add\n      dup5\n      add\n      swap1\n      swap5\n      mstore\n      dup1\n      dup5\n      mstore\n        /* \"contracts t-rex/registry/implementation/TrustedIssuersRegistry.sol\":8796:8817  IClaimIssuer[] memory */\n      0x60\n      swap4\n        /* \"contracts t-rex/registry/implementation/TrustedIssuersRegistry.sol\":8829:8876  return _claimTopicsToTrustedIssuers[claimTopic] */\n      swap3\n      dup4\n      add\n        /* \"contracts t-rex/registry/implementation/TrustedIssuersRegistry.sol\":8836:8876  _claimTopicsToTrustedIssuers[claimTopic] */\n      dup3\n        /* \"contracts t-rex/registry/implementation/TrustedIssuersRegistry.sol\":8829:8876  return _claimTopicsToTrustedIssuers[claimTopic] */\n      dup3\n      dup1\n      iszero\n      tag_129\n      jumpi\n      0x20\n      mul\n      dup3\n      add\n      swap2\n      swap1\n      0x00\n      mstore\n      keccak256(0x00, 0x20)\n      swap1\n    tag_130:\n      dup2\n      sload\n      sub(shl(0xa0, 0x01), 0x01)\n      and\n      dup2\n      mstore\n      0x01\n      swap1\n      swap2\n      add\n      swap1\n      0x20\n      add\n      dup1\n      dup4\n      gt\n      tag_130\n      jumpi\n    tag_129:\n      pop\n      pop\n      pop\n      pop\n      pop\n      swap1\n      pop\n        /* \"contracts t-rex/registry/implementation/TrustedIssuersRegistry.sol\":8704:8883  function getTrustedIssuersForClaimTopic(uint256 claimTopic) external view override returns (IClaimIssuer[] memory) {... */\n      swap2\n      swap1\n      pop\n      jump\t// out\n        /* \"@openzeppelin/contracts-upgradeable/access/OwnableUpgradeable.sol\":3165:3266  function renounceOwnership() public virtual onlyOwner {... */\n    tag_32:\n        /* \"@openzeppelin/contracts-upgradeable/access/OwnableUpgradeable.sol\":2344:2357  _checkOwner() */\n      tag_132\n        /* \"@openzeppelin/contracts-upgradeable/access/OwnableUpgradeable.sol\":2344:2355  _checkOwner */\n      tag_64\n        /* \"@openzeppelin/contracts-upgradeable/access/OwnableUpgradeable.sol\":2344:2357  _checkOwner() */\n      jump\t// in\n    tag_132:\n        /* \"@openzeppelin/contracts-upgradeable/access/OwnableUpgradeable.sol\":3229:3259  _transferOwnership(address(0)) */\n      tag_134\n        /* \"@openzeppelin/contracts-upgradeable/access/OwnableUpgradeable.sol\":3256:3257  0 */\n      0x00\n        /* \"@openzeppelin/contracts-upgradeable/access/OwnableUpgradeable.sol\":3229:3247  _transferOwnership */\n      tag_135\n        /* \"@openzeppelin/contracts-upgradeable/access/OwnableUpgradeable.sol\":3229:3259  _transferOwnership(address(0)) */\n      jump\t// in\n    tag_134:\n        /* \"@openzeppelin/contracts-upgradeable/access/OwnableUpgradeable.sol\":3165:3266  function renounceOwnership() public virtual onlyOwner {... */\n      jump\t// out\n        /* \"@openzeppelin/contracts-upgradeable/access/OwnableUpgradeable.sol\":2451:2595  function owner() public view virtual returns (address) {... */\n    tag_34:\n        /* \"@openzeppelin/contracts-upgradeable/access/OwnableUpgradeable.sol\":2497:2504  address */\n      0x00\n        /* \"@openzeppelin/contracts-upgradeable/access/OwnableUpgradeable.sol\":2516:2540  OwnableStorage storage $ */\n      dup1\n        /* \"@openzeppelin/contracts-upgradeable/access/OwnableUpgradeable.sol\":2543:2563  _getOwnableStorage() */\n      tag_137\n        /* \"@openzeppelin/contracts-upgradeable/access/OwnableUpgradeable.sol\":2543:2561  _getOwnableStorage */\n      tag_138\n        /* \"@openzeppelin/contracts-upgradeable/access/OwnableUpgradeable.sol\":2543:2563  _getOwnableStorage() */\n      jump\t// in\n    tag_137:\n        /* \"@openzeppelin/contracts-upgradeable/access/OwnableUpgradeable.sol\":2580:2588  $._owner */\n      sload\n      sub(shl(0xa0, 0x01), 0x01)\n      and\n      swap3\n        /* \"@openzeppelin/contracts-upgradeable/access/OwnableUpgradeable.sol\":2451:2595  function owner() public view virtual returns (address) {... */\n      swap2\n      pop\n      pop\n      jump\t// out\n        /* \"contracts t-rex/registry/implementation/TrustedIssuersRegistry.sol\":4337:5256  function addTrustedIssuer(IClaimIssuer _trustedIssuer, uint256[] calldata _claimTopics) external override onlyOwner {... */\n    tag_39:\n        /* \"@openzeppelin/contracts-upgradeable/access/OwnableUpgradeable.sol\":2344:2357  _checkOwner() */\n      tag_140\n        /* \"@openzeppelin/contracts-upgradeable/access/OwnableUpgradeable.sol\":2344:2355  _checkOwner */\n      tag_64\n        /* \"@openzeppelin/contracts-upgradeable/access/OwnableUpgradeable.sol\":2344:2357  _checkOwner() */\n      jump\t// in\n    tag_140:\n      sub(shl(0xa0, 0x01), 0x01)\n        /* \"contracts t-rex/registry/implementation/TrustedIssuersRegistry.sol\":4471:4508  address(_trustedIssuer) != address(0) */\n      dup4\n      and\n        /* \"contracts t-rex/registry/implementation/TrustedIssuersRegistry.sol\":4463:4544  require(address(_trustedIssuer) != address(0), \"invalid argument - zero address\") */\n      tag_142\n      jumpi\n      mload(0x40)\n      shl(0xe5, 0x461bcd)\n      dup2\n      mstore\n      0x04\n      add\n      tag_67\n      swap1\n      tag_68\n      jump\t// in\n    tag_142:\n      sub(shl(0xa0, 0x01), 0x01)\n        /* \"contracts t-rex/registry/implementation/TrustedIssuersRegistry.sol\":4562:4612  _trustedIssuerClaimTopics[address(_trustedIssuer)] */\n      dup4\n      and\n      0x00\n      swap1\n      dup2\n      mstore\n        /* \"contracts t-rex/registry/implementation/TrustedIssuersRegistry.sol\":4562:4587  _trustedIssuerClaimTopics */\n      0x01\n        /* \"contracts t-rex/registry/implementation/TrustedIssuersRegistry.sol\":4562:4612  _trustedIssuerClaimTopics[address(_trustedIssuer)] */\n      0x20\n      mstore\n      0x40\n      swap1\n      keccak256\n        /* \"contracts t-rex/registry/implementation/TrustedIssuersRegistry.sol\":4562:4619  _trustedIssuerClaimTopics[address(_trustedIssuer)].length */\n      sload\n        /* \"contracts t-rex/registry/implementation/TrustedIssuersRegistry.sol\":4562:4624  _trustedIssuerClaimTopics[address(_trustedIssuer)].length == 0 */\n      iszero\n        /* \"contracts t-rex/registry/implementation/TrustedIssuersRegistry.sol\":4554:4658  require(_trustedIssuerClaimTopics[address(_trustedIssuer)].length == 0, \"trusted Issuer already exists\") */\n      tag_144\n      jumpi\n      mload(0x40)\n      shl(0xe5, 0x461bcd)\n      dup2\n      mstore\n        /* \"#utility.yul\":6532:6534   */\n      0x20\n        /* \"contracts t-rex/registry/implementation/TrustedIssuersRegistry.sol\":4554:4658  require(_trustedIssuerClaimTopics[address(_trustedIssuer)].length == 0, \"trusted Issuer already exists\") */\n      0x04\n      dup3\n      add\n        /* \"#utility.yul\":6514:6535   */\n      mstore\n        /* \"#utility.yul\":6571:6573   */\n      0x1d\n        /* \"#utility.yul\":6551:6569   */\n      0x24\n      dup3\n      add\n        /* \"#utility.yul\":6544:6574   */\n      mstore\n        /* \"#utility.yul\":6610:6641   */\n      0x747275737465642049737375657220616c726561647920657869737473000000\n        /* \"#utility.yul\":6590:6608   */\n      0x44\n      dup3\n      add\n        /* \"#utility.yul\":6583:6642   */\n      mstore\n        /* \"#utility.yul\":6659:6677   */\n      0x64\n      add\n        /* \"contracts t-rex/registry/implementation/TrustedIssuersRegistry.sol\":4554:4658  require(_trustedIssuerClaimTopics[address(_trustedIssuer)].length == 0, \"trusted Issuer already exists\") */\n      tag_67\n        /* \"#utility.yul\":6330:6683   */\n      jump\n        /* \"contracts t-rex/registry/implementation/TrustedIssuersRegistry.sol\":4554:4658  require(_trustedIssuerClaimTopics[address(_trustedIssuer)].length == 0, \"trusted Issuer already exists\") */\n    tag_144:\n        /* \"contracts t-rex/registry/implementation/TrustedIssuersRegistry.sol\":4676:4699  _claimTopics.length > 0 */\n      dup1\n        /* \"contracts t-rex/registry/implementation/TrustedIssuersRegistry.sol\":4668:4740  require(_claimTopics.length > 0, \"trusted claim topics cannot be empty\") */\n      tag_147\n      jumpi\n      mload(0x40)\n      shl(0xe5, 0x461bcd)\n      dup2\n      mstore\n        /* \"#utility.yul\":6890:6892   */\n      0x20\n        /* \"contracts t-rex/registry/implementation/TrustedIssuersRegistry.sol\":4668:4740  require(_claimTopics.length > 0, \"trusted claim topics cannot be empty\") */\n      0x04\n      dup3\n      add\n        /* \"#utility.yul\":6872:6893   */\n      mstore\n        /* \"#utility.yul\":6929:6931   */\n      0x24\n        /* \"#utility.yul\":6909:6927   */\n      dup1\n      dup3\n      add\n        /* \"#utility.yul\":6902:6932   */\n      mstore\n        /* \"#utility.yul\":6968:7002   */\n      0x7472757374656420636c61696d20746f706963732063616e6e6f742062652065\n        /* \"#utility.yul\":6948:6966   */\n      0x44\n      dup3\n      add\n        /* \"#utility.yul\":6941:7003   */\n      mstore\n      shl(0xe0, 0x6d707479)\n        /* \"#utility.yul\":7019:7037   */\n      0x64\n      dup3\n      add\n        /* \"#utility.yul\":7012:7046   */\n      mstore\n        /* \"#utility.yul\":7063:7082   */\n      0x84\n      add\n        /* \"contracts t-rex/registry/implementation/TrustedIssuersRegistry.sol\":4668:4740  require(_claimTopics.length > 0, \"trusted claim topics cannot be empty\") */\n      tag_67\n        /* \"#utility.yul\":6688:7088   */\n      jump\n        /* \"contracts t-rex/registry/implementation/TrustedIssuersRegistry.sol\":4668:4740  require(_claimTopics.length > 0, \"trusted claim topics cannot be empty\") */\n    tag_147:\n        /* \"contracts t-rex/registry/implementation/TrustedIssuersRegistry.sol\":4781:4783  15 */\n      0x0f\n        /* \"contracts t-rex/registry/implementation/TrustedIssuersRegistry.sol\":4758:4783  _claimTopics.length <= 15 */\n      dup2\n      gt\n      iszero\n        /* \"contracts t-rex/registry/implementation/TrustedIssuersRegistry.sol\":4750:4825  require(_claimTopics.length <= 15, \"cannot have more than 15 claim topics\") */\n      tag_150\n      jumpi\n      mload(0x40)\n      shl(0xe5, 0x461bcd)\n      dup2\n      mstore\n      0x04\n      add\n      tag_67\n      swap1\n      tag_74\n      jump\t// in\n    tag_150:\n        /* \"contracts t-rex/registry/implementation/TrustedIssuersRegistry.sol\":4843:4858  _trustedIssuers */\n      0x00\n        /* \"contracts t-rex/registry/implementation/TrustedIssuersRegistry.sol\":4843:4865  _trustedIssuers.length */\n      sload\n        /* \"contracts t-rex/registry/implementation/TrustedIssuersRegistry.sol\":4868:4870  50 */\n      0x32\n      gt\n        /* \"contracts t-rex/registry/implementation/TrustedIssuersRegistry.sol\":4835:4915  require(_trustedIssuers.length < 50, \"cannot have more than 50 trusted issuers\") */\n      tag_152\n      jumpi\n      mload(0x40)\n      shl(0xe5, 0x461bcd)\n      dup2\n      mstore\n        /* \"#utility.yul\":7295:7297   */\n      0x20\n        /* \"contracts t-rex/registry/implementation/TrustedIssuersRegistry.sol\":4835:4915  require(_trustedIssuers.length < 50, \"cannot have more than 50 trusted issuers\") */\n      0x04\n      dup3\n      add\n        /* \"#utility.yul\":7277:7298   */\n      mstore\n        /* \"#utility.yul\":7334:7336   */\n      0x28\n        /* \"#utility.yul\":7314:7332   */\n      0x24\n      dup3\n      add\n        /* \"#utility.yul\":7307:7337   */\n      mstore\n        /* \"#utility.yul\":7373:7407   */\n      0x63616e6e6f742068617665206d6f7265207468616e2035302074727573746564\n        /* \"#utility.yul\":7353:7371   */\n      0x44\n      dup3\n      add\n        /* \"#utility.yul\":7346:7408   */\n      mstore\n      shl(0xc0, 0x2069737375657273)\n        /* \"#utility.yul\":7424:7442   */\n      0x64\n      dup3\n      add\n        /* \"#utility.yul\":7417:7455   */\n      mstore\n        /* \"#utility.yul\":7472:7491   */\n      0x84\n      add\n        /* \"contracts t-rex/registry/implementation/TrustedIssuersRegistry.sol\":4835:4915  require(_trustedIssuers.length < 50, \"cannot have more than 50 trusted issuers\") */\n      tag_67\n        /* \"#utility.yul\":7093:7497   */\n      jump\n        /* \"contracts t-rex/registry/implementation/TrustedIssuersRegistry.sol\":4835:4915  require(_trustedIssuers.length < 50, \"cannot have more than 50 trusted issuers\") */\n    tag_152:\n        /* \"contracts t-rex/registry/implementation/TrustedIssuersRegistry.sol\":4925:4940  _trustedIssuers */\n      0x00\n        /* \"contracts t-rex/registry/implementation/TrustedIssuersRegistry.sol\":4925:4961  _trustedIssuers.push(_trustedIssuer) */\n      dup1\n      sload\n      0x01\n      dup1\n      dup3\n      add\n      dup4\n      sstore\n      0x290decd9548b62a8d60345a988386fc84ba6bc95484008f6362f93160ef3e563\n      swap1\n      swap2\n      add\n      dup1\n      sload\n      not(sub(shl(0xa0, 0x01), 0x01))\n      and\n      sub(shl(0xa0, 0x01), 0x01)\n      dup8\n      and\n      swap1\n      dup2\n      or\n      swap1\n      swap2\n      sstore\n        /* \"contracts t-rex/registry/implementation/TrustedIssuersRegistry.sol\":4971:5021  _trustedIssuerClaimTopics[address(_trustedIssuer)] */\n      dup3\n      mstore\n        /* \"contracts t-rex/registry/implementation/TrustedIssuersRegistry.sol\":4925:4961  _trustedIssuers.push(_trustedIssuer) */\n      0x20\n        /* \"contracts t-rex/registry/implementation/TrustedIssuersRegistry.sol\":4971:5021  _trustedIssuerClaimTopics[address(_trustedIssuer)] */\n      mstore\n      0x40\n      swap1\n      keccak256\n        /* \"contracts t-rex/registry/implementation/TrustedIssuersRegistry.sol\":4971:5036  _trustedIssuerClaimTopics[address(_trustedIssuer)] = _claimTopics */\n      tag_156\n      swap1\n        /* \"contracts t-rex/registry/implementation/TrustedIssuersRegistry.sol\":5024:5036  _claimTopics */\n      dup4\n      dup4\n        /* \"contracts t-rex/registry/implementation/TrustedIssuersRegistry.sol\":4971:5036  _trustedIssuerClaimTopics[address(_trustedIssuer)] = _claimTopics */\n      tag_108\n      jump\t// in\n    tag_156:\n      pop\n        /* \"contracts t-rex/registry/implementation/TrustedIssuersRegistry.sol\":5051:5060  uint256 i */\n      0x00\n        /* \"contracts t-rex/registry/implementation/TrustedIssuersRegistry.sol\":5046:5187  for (uint256 i = 0; i < _claimTopics.length; i++) {... */\n    tag_157:\n        /* \"contracts t-rex/registry/implementation/TrustedIssuersRegistry.sol\":5066:5089  i < _claimTopics.length */\n      dup2\n      dup2\n      lt\n        /* \"contracts t-rex/registry/implementation/TrustedIssuersRegistry.sol\":5046:5187  for (uint256 i = 0; i < _claimTopics.length; i++) {... */\n      iszero\n      tag_158\n      jumpi\n        /* \"contracts t-rex/registry/implementation/TrustedIssuersRegistry.sol\":5110:5138  _claimTopicsToTrustedIssuers */\n      0x02\n        /* \"contracts t-rex/registry/implementation/TrustedIssuersRegistry.sol\":5110:5155  _claimTopicsToTrustedIssuers[_claimTopics[i]] */\n      0x00\n        /* \"contracts t-rex/registry/implementation/TrustedIssuersRegistry.sol\":5139:5151  _claimTopics */\n      dup5\n      dup5\n        /* \"contracts t-rex/registry/implementation/TrustedIssuersRegistry.sol\":5152:5153  i */\n      dup5\n        /* \"contracts t-rex/registry/implementation/TrustedIssuersRegistry.sol\":5139:5154  _claimTopics[i] */\n      dup2\n      dup2\n      lt\n      tag_161\n      jumpi\n      tag_161\n      tag_83\n      jump\t// in\n    tag_161:\n      0x20\n      swap1\n      dup2\n      mul\n      swap3\n      swap1\n      swap3\n      add\n      calldataload\n        /* \"contracts t-rex/registry/implementation/TrustedIssuersRegistry.sol\":5110:5155  _claimTopicsToTrustedIssuers[_claimTopics[i]] */\n      dup4\n      mstore\n      pop\n      dup2\n      dup2\n      add\n      swap3\n      swap1\n      swap3\n      mstore\n      0x40\n      add\n      0x00\n      swap1\n      dup2\n      keccak256\n        /* \"contracts t-rex/registry/implementation/TrustedIssuersRegistry.sol\":5110:5176  _claimTopicsToTrustedIssuers[_claimTopics[i]].push(_trustedIssuer) */\n      dup1\n      sload\n      0x01\n      dup2\n      add\n      dup3\n      sstore\n      swap1\n      dup3\n      mstore\n      swap2\n      swap1\n      keccak256\n      add\n      dup1\n      sload\n      not(sub(shl(0xa0, 0x01), 0x01))\n      and\n      sub(shl(0xa0, 0x01), 0x01)\n      dup7\n      and\n      or\n      swap1\n      sstore\n        /* \"contracts t-rex/registry/implementation/TrustedIssuersRegistry.sol\":5091:5094  i++ */\n      dup1\n      tag_163\n      dup2\n      tag_105\n      jump\t// in\n    tag_163:\n      swap2\n      pop\n      pop\n        /* \"contracts t-rex/registry/implementation/TrustedIssuersRegistry.sol\":5046:5187  for (uint256 i = 0; i < _claimTopics.length; i++) {... */\n      jump(tag_157)\n    tag_158:\n      pop\n        /* \"contracts t-rex/registry/implementation/TrustedIssuersRegistry.sol\":5220:5234  _trustedIssuer */\n      dup3\n      sub(shl(0xa0, 0x01), 0x01)\n        /* \"contracts t-rex/registry/implementation/TrustedIssuersRegistry.sol\":5201:5249  TrustedIssuerAdded(_trustedIssuer, _claimTopics) */\n      and\n      0xfedc33fd34859594822c0ff6f3f4f9fc279cc6d5cae53068f706a088e4500872\n        /* \"contracts t-rex/registry/implementation/TrustedIssuersRegistry.sol\":5236:5248  _claimTopics */\n      dup4\n      dup4\n        /* \"contracts t-rex/registry/implementation/TrustedIssuersRegistry.sol\":5201:5249  TrustedIssuerAdded(_trustedIssuer, _claimTopics) */\n      mload(0x40)\n      tag_116\n      swap3\n      swap2\n      swap1\n      tag_117\n      jump\t// in\n        /* \"contracts t-rex/registry/implementation/TrustedIssuersRegistry.sol\":5342:6841  function removeTrustedIssuer(IClaimIssuer _trustedIssuer) external override onlyOwner {... */\n    tag_43:\n        /* \"@openzeppelin/contracts-upgradeable/access/OwnableUpgradeable.sol\":2344:2357  _checkOwner() */\n      tag_166\n        /* \"@openzeppelin/contracts-upgradeable/access/OwnableUpgradeable.sol\":2344:2355  _checkOwner */\n      tag_64\n        /* \"@openzeppelin/contracts-upgradeable/access/OwnableUpgradeable.sol\":2344:2357  _checkOwner() */\n      jump\t// in\n    tag_166:\n      sub(shl(0xa0, 0x01), 0x01)\n        /* \"contracts t-rex/registry/implementation/TrustedIssuersRegistry.sol\":5446:5483  address(_trustedIssuer) != address(0) */\n      dup2\n      and\n        /* \"contracts t-rex/registry/implementation/TrustedIssuersRegistry.sol\":5438:5519  require(address(_trustedIssuer) != address(0), \"invalid argument - zero address\") */\n      tag_168\n      jumpi\n      mload(0x40)\n      shl(0xe5, 0x461bcd)\n      dup2\n      mstore\n      0x04\n      add\n      tag_67\n      swap1\n      tag_68\n      jump\t// in\n    tag_168:\n      sub(shl(0xa0, 0x01), 0x01)\n        /* \"contracts t-rex/registry/implementation/TrustedIssuersRegistry.sol\":5537:5587  _trustedIssuerClaimTopics[address(_trustedIssuer)] */\n      dup2\n      and\n      0x00\n      swap1\n      dup2\n      mstore\n        /* \"contracts t-rex/registry/implementation/TrustedIssuersRegistry.sol\":5537:5562  _trustedIssuerClaimTopics */\n      0x01\n        /* \"contracts t-rex/registry/implementation/TrustedIssuersRegistry.sol\":5537:5587  _trustedIssuerClaimTopics[address(_trustedIssuer)] */\n      0x20\n      mstore\n      0x40\n      dup2\n      keccak256\n        /* \"contracts t-rex/registry/implementation/TrustedIssuersRegistry.sol\":5537:5594  _trustedIssuerClaimTopics[address(_trustedIssuer)].length */\n      sload\n        /* \"contracts t-rex/registry/implementation/TrustedIssuersRegistry.sol\":5537:5599  _trustedIssuerClaimTopics[address(_trustedIssuer)].length != 0 */\n      swap1\n      sub\n        /* \"contracts t-rex/registry/implementation/TrustedIssuersRegistry.sol\":5529:5624  require(_trustedIssuerClaimTopics[address(_trustedIssuer)].length != 0, \"NOT a trusted issuer\") */\n      tag_170\n      jumpi\n      mload(0x40)\n      shl(0xe5, 0x461bcd)\n      dup2\n      mstore\n      0x04\n      add\n      tag_67\n      swap1\n      tag_71\n      jump\t// in\n    tag_170:\n        /* \"contracts t-rex/registry/implementation/TrustedIssuersRegistry.sol\":5634:5648  uint256 length */\n      0x00\n        /* \"contracts t-rex/registry/implementation/TrustedIssuersRegistry.sol\":5651:5673  _trustedIssuers.length */\n      dup1\n      sload\n      swap1\n        /* \"contracts t-rex/registry/implementation/TrustedIssuersRegistry.sol\":5683:5929  for (uint256 i = 0; i < length; i++) {... */\n    tag_172:\n        /* \"contracts t-rex/registry/implementation/TrustedIssuersRegistry.sol\":5707:5713  length */\n      dup2\n        /* \"contracts t-rex/registry/implementation/TrustedIssuersRegistry.sol\":5703:5704  i */\n      dup2\n        /* \"contracts t-rex/registry/implementation/TrustedIssuersRegistry.sol\":5703:5713  i < length */\n      lt\n        /* \"contracts t-rex/registry/implementation/TrustedIssuersRegistry.sol\":5683:5929  for (uint256 i = 0; i < length; i++) {... */\n      iszero\n      tag_173\n      jumpi\n        /* \"contracts t-rex/registry/implementation/TrustedIssuersRegistry.sol\":5760:5774  _trustedIssuer */\n      dup3\n      sub(shl(0xa0, 0x01), 0x01)\n        /* \"contracts t-rex/registry/implementation/TrustedIssuersRegistry.sol\":5738:5774  _trustedIssuers[i] == _trustedIssuer */\n      and\n        /* \"contracts t-rex/registry/implementation/TrustedIssuersRegistry.sol\":5738:5753  _trustedIssuers */\n      0x00\n        /* \"contracts t-rex/registry/implementation/TrustedIssuersRegistry.sol\":5754:5755  i */\n      dup3\n        /* \"contracts t-rex/registry/implementation/TrustedIssuersRegistry.sol\":5738:5756  _trustedIssuers[i] */\n      dup2\n      sload\n      dup2\n      lt\n      tag_176\n      jumpi\n      tag_176\n      tag_83\n      jump\t// in\n    tag_176:\n      0x00\n      swap2\n      dup3\n      mstore\n      0x20\n      swap1\n      swap2\n      keccak256\n      add\n      sload\n      sub(shl(0xa0, 0x01), 0x01)\n      and\n        /* \"contracts t-rex/registry/implementation/TrustedIssuersRegistry.sol\":5738:5774  _trustedIssuers[i] == _trustedIssuer */\n      sub\n        /* \"contracts t-rex/registry/implementation/TrustedIssuersRegistry.sol\":5734:5919  if (_trustedIssuers[i] == _trustedIssuer) {... */\n      tag_178\n      jumpi\n        /* \"contracts t-rex/registry/implementation/TrustedIssuersRegistry.sol\":5815:5830  _trustedIssuers */\n      0x00\n        /* \"contracts t-rex/registry/implementation/TrustedIssuersRegistry.sol\":5831:5841  length - 1 */\n      tag_179\n        /* \"contracts t-rex/registry/implementation/TrustedIssuersRegistry.sol\":5840:5841  1 */\n      0x01\n        /* \"contracts t-rex/registry/implementation/TrustedIssuersRegistry.sol\":5831:5837  length */\n      dup5\n        /* \"contracts t-rex/registry/implementation/TrustedIssuersRegistry.sol\":5831:5841  length - 1 */\n      tag_93\n      jump\t// in\n    tag_179:\n        /* \"contracts t-rex/registry/implementation/TrustedIssuersRegistry.sol\":5815:5842  _trustedIssuers[length - 1] */\n      dup2\n      sload\n      dup2\n      lt\n      tag_181\n      jumpi\n      tag_181\n      tag_83\n      jump\t// in\n    tag_181:\n      0x00\n      swap2\n      dup3\n      mstore\n      0x20\n      dup3\n      keccak256\n      add\n      sload\n        /* \"contracts t-rex/registry/implementation/TrustedIssuersRegistry.sol\":5794:5812  _trustedIssuers[i] */\n      dup2\n      sload\n      sub(shl(0xa0, 0x01), 0x01)\n        /* \"contracts t-rex/registry/implementation/TrustedIssuersRegistry.sol\":5815:5842  _trustedIssuers[length - 1] */\n      swap1\n      swap2\n      and\n      swap2\n      swap1\n        /* \"contracts t-rex/registry/implementation/TrustedIssuersRegistry.sol\":5810:5811  i */\n      dup4\n      swap1\n        /* \"contracts t-rex/registry/implementation/TrustedIssuersRegistry.sol\":5794:5812  _trustedIssuers[i] */\n      dup2\n      lt\n      tag_184\n      jumpi\n      tag_184\n      tag_83\n      jump\t// in\n    tag_184:\n      0x00\n      swap2\n      dup3\n      mstore\n      0x20\n      dup3\n      keccak256\n      add\n        /* \"contracts t-rex/registry/implementation/TrustedIssuersRegistry.sol\":5794:5842  _trustedIssuers[i] = _trustedIssuers[length - 1] */\n      dup1\n      sload\n      not(sub(shl(0xa0, 0x01), 0x01))\n      and\n      sub(shl(0xa0, 0x01), 0x01)\n      swap4\n      swap1\n      swap4\n      and\n      swap3\n      swap1\n      swap3\n      or\n      swap1\n      swap2\n      sstore\n        /* \"contracts t-rex/registry/implementation/TrustedIssuersRegistry.sol\":5860:5881  _trustedIssuers.pop() */\n      dup1\n      sload\n      dup1\n      tag_187\n      jumpi\n      tag_187\n      tag_102\n      jump\t// in\n    tag_187:\n      0x00\n      dup3\n      dup2\n      mstore\n      0x20\n      swap1\n      keccak256\n      dup2\n      add\n      not(0x00)\n      swap1\n      dup2\n      add\n      dup1\n      sload\n      not(sub(shl(0xa0, 0x01), 0x01))\n      and\n      swap1\n      sstore\n      add\n      swap1\n      sstore\n        /* \"contracts t-rex/registry/implementation/TrustedIssuersRegistry.sol\":5899:5904  break */\n      jump(tag_173)\n        /* \"contracts t-rex/registry/implementation/TrustedIssuersRegistry.sol\":5734:5919  if (_trustedIssuers[i] == _trustedIssuer) {... */\n    tag_178:\n        /* \"contracts t-rex/registry/implementation/TrustedIssuersRegistry.sol\":5715:5718  i++ */\n      dup1\n      tag_189\n      dup2\n      tag_105\n      jump\t// in\n    tag_189:\n      swap2\n      pop\n      pop\n        /* \"contracts t-rex/registry/implementation/TrustedIssuersRegistry.sol\":5683:5929  for (uint256 i = 0; i < length; i++) {... */\n      jump(tag_172)\n    tag_173:\n      pop\n        /* \"contracts t-rex/registry/implementation/TrustedIssuersRegistry.sol\":5956:5979  uint256 claimTopicIndex */\n      0x00\n        /* \"contracts t-rex/registry/implementation/TrustedIssuersRegistry.sol\":5938:6717  for (... */\n    tag_190:\n      sub(shl(0xa0, 0x01), 0x01)\n        /* \"contracts t-rex/registry/implementation/TrustedIssuersRegistry.sol\":6015:6065  _trustedIssuerClaimTopics[address(_trustedIssuer)] */\n      dup4\n      and\n      0x00\n      swap1\n      dup2\n      mstore\n        /* \"contracts t-rex/registry/implementation/TrustedIssuersRegistry.sol\":6015:6040  _trustedIssuerClaimTopics */\n      0x01\n        /* \"contracts t-rex/registry/implementation/TrustedIssuersRegistry.sol\":6015:6065  _trustedIssuerClaimTopics[address(_trustedIssuer)] */\n      0x20\n      mstore\n      0x40\n      swap1\n      keccak256\n        /* \"contracts t-rex/registry/implementation/TrustedIssuersRegistry.sol\":6015:6072  _trustedIssuerClaimTopics[address(_trustedIssuer)].length */\n      sload\n        /* \"contracts t-rex/registry/implementation/TrustedIssuersRegistry.sol\":5997:6072  claimTopicIndex < _trustedIssuerClaimTopics[address(_trustedIssuer)].length */\n      dup2\n      lt\n        /* \"contracts t-rex/registry/implementation/TrustedIssuersRegistry.sol\":5938:6717  for (... */\n      iszero\n      tag_191\n      jumpi\n      sub(shl(0xa0, 0x01), 0x01)\n        /* \"contracts t-rex/registry/implementation/TrustedIssuersRegistry.sol\":6140:6190  _trustedIssuerClaimTopics[address(_trustedIssuer)] */\n      dup4\n      and\n        /* \"contracts t-rex/registry/implementation/TrustedIssuersRegistry.sol\":6119:6137  uint256 claimTopic */\n      0x00\n        /* \"contracts t-rex/registry/implementation/TrustedIssuersRegistry.sol\":6140:6190  _trustedIssuerClaimTopics[address(_trustedIssuer)] */\n      swap1\n      dup2\n      mstore\n        /* \"contracts t-rex/registry/implementation/TrustedIssuersRegistry.sol\":6140:6165  _trustedIssuerClaimTopics */\n      0x01\n        /* \"contracts t-rex/registry/implementation/TrustedIssuersRegistry.sol\":6140:6190  _trustedIssuerClaimTopics[address(_trustedIssuer)] */\n      0x20\n      mstore\n      0x40\n      dup2\n      keccak256\n        /* \"contracts t-rex/registry/implementation/TrustedIssuersRegistry.sol\":6140:6207  _trustedIssuerClaimTopics[address(_trustedIssuer)][claimTopicIndex] */\n      dup1\n      sload\n        /* \"contracts t-rex/registry/implementation/TrustedIssuersRegistry.sol\":6191:6206  claimTopicIndex */\n      dup4\n      swap1\n        /* \"contracts t-rex/registry/implementation/TrustedIssuersRegistry.sol\":6140:6207  _trustedIssuerClaimTopics[address(_trustedIssuer)][claimTopicIndex] */\n      dup2\n      lt\n      tag_194\n      jumpi\n      tag_194\n      tag_83\n      jump\t// in\n    tag_194:\n      0x00\n      swap2\n      dup3\n      mstore\n      0x20\n      dup1\n      dup4\n      keccak256\n      swap1\n      swap2\n      add\n      sload\n        /* \"contracts t-rex/registry/implementation/TrustedIssuersRegistry.sol\":6244:6284  _claimTopicsToTrustedIssuers[claimTopic] */\n      dup1\n      dup4\n      mstore\n        /* \"contracts t-rex/registry/implementation/TrustedIssuersRegistry.sol\":6244:6272  _claimTopicsToTrustedIssuers */\n      0x02\n        /* \"contracts t-rex/registry/implementation/TrustedIssuersRegistry.sol\":6244:6284  _claimTopicsToTrustedIssuers[claimTopic] */\n      swap1\n      swap2\n      mstore\n      0x40\n      dup3\n      keccak256\n        /* \"contracts t-rex/registry/implementation/TrustedIssuersRegistry.sol\":6244:6291  _claimTopicsToTrustedIssuers[claimTopic].length */\n      sload\n        /* \"contracts t-rex/registry/implementation/TrustedIssuersRegistry.sol\":6140:6207  _trustedIssuerClaimTopics[address(_trustedIssuer)][claimTopicIndex] */\n      swap1\n      swap3\n      pop\n        /* \"contracts t-rex/registry/implementation/TrustedIssuersRegistry.sol\":6244:6291  _claimTopicsToTrustedIssuers[claimTopic].length */\n      swap1\n        /* \"contracts t-rex/registry/implementation/TrustedIssuersRegistry.sol\":6305:6707  for (uint256 i = 0; i < topicsLength; i++) {... */\n    tag_196:\n        /* \"contracts t-rex/registry/implementation/TrustedIssuersRegistry.sol\":6329:6341  topicsLength */\n      dup2\n        /* \"contracts t-rex/registry/implementation/TrustedIssuersRegistry.sol\":6325:6326  i */\n      dup2\n        /* \"contracts t-rex/registry/implementation/TrustedIssuersRegistry.sol\":6325:6341  i < topicsLength */\n      lt\n        /* \"contracts t-rex/registry/implementation/TrustedIssuersRegistry.sol\":6305:6707  for (uint256 i = 0; i < topicsLength; i++) {... */\n      iszero\n      tag_197\n      jumpi\n        /* \"contracts t-rex/registry/implementation/TrustedIssuersRegistry.sol\":6370:6410  _claimTopicsToTrustedIssuers[claimTopic] */\n      0x00\n      dup4\n      dup2\n      mstore\n        /* \"contracts t-rex/registry/implementation/TrustedIssuersRegistry.sol\":6370:6398  _claimTopicsToTrustedIssuers */\n      0x02\n        /* \"contracts t-rex/registry/implementation/TrustedIssuersRegistry.sol\":6370:6410  _claimTopicsToTrustedIssuers[claimTopic] */\n      0x20\n      mstore\n      0x40\n      swap1\n      keccak256\n        /* \"contracts t-rex/registry/implementation/TrustedIssuersRegistry.sol\":6370:6413  _claimTopicsToTrustedIssuers[claimTopic][i] */\n      dup1\n      sload\n      sub(shl(0xa0, 0x01), 0x01)\n        /* \"contracts t-rex/registry/implementation/TrustedIssuersRegistry.sol\":6370:6431  _claimTopicsToTrustedIssuers[claimTopic][i] == _trustedIssuer */\n      dup9\n      and\n      swap2\n        /* \"contracts t-rex/registry/implementation/TrustedIssuersRegistry.sol\":6370:6410  _claimTopicsToTrustedIssuers[claimTopic] */\n      swap1\n        /* \"contracts t-rex/registry/implementation/TrustedIssuersRegistry.sol\":6411:6412  i */\n      dup4\n      swap1\n        /* \"contracts t-rex/registry/implementation/TrustedIssuersRegistry.sol\":6370:6413  _claimTopicsToTrustedIssuers[claimTopic][i] */\n      dup2\n      lt\n      tag_200\n      jumpi\n      tag_200\n      tag_83\n      jump\t// in\n    tag_200:\n      0x00\n      swap2\n      dup3\n      mstore\n      0x20\n      swap1\n      swap2\n      keccak256\n      add\n      sload\n      sub(shl(0xa0, 0x01), 0x01)\n      and\n        /* \"contracts t-rex/registry/implementation/TrustedIssuersRegistry.sol\":6370:6431  _claimTopicsToTrustedIssuers[claimTopic][i] == _trustedIssuer */\n      sub\n        /* \"contracts t-rex/registry/implementation/TrustedIssuersRegistry.sol\":6366:6693  if (_claimTopicsToTrustedIssuers[claimTopic][i] == _trustedIssuer) {... */\n      tag_202\n      jumpi\n        /* \"contracts t-rex/registry/implementation/TrustedIssuersRegistry.sol\":6521:6561  _claimTopicsToTrustedIssuers[claimTopic] */\n      0x00\n      dup4\n      dup2\n      mstore\n        /* \"contracts t-rex/registry/implementation/TrustedIssuersRegistry.sol\":6521:6549  _claimTopicsToTrustedIssuers */\n      0x02\n        /* \"contracts t-rex/registry/implementation/TrustedIssuersRegistry.sol\":6521:6561  _claimTopicsToTrustedIssuers[claimTopic] */\n      0x20\n      mstore\n      0x40\n      swap1\n      keccak256\n        /* \"contracts t-rex/registry/implementation/TrustedIssuersRegistry.sol\":6562:6578  topicsLength - 1 */\n      tag_203\n        /* \"contracts t-rex/registry/implementation/TrustedIssuersRegistry.sol\":6577:6578  1 */\n      0x01\n        /* \"contracts t-rex/registry/implementation/TrustedIssuersRegistry.sol\":6562:6574  topicsLength */\n      dup5\n        /* \"contracts t-rex/registry/implementation/TrustedIssuersRegistry.sol\":6562:6578  topicsLength - 1 */\n      tag_93\n      jump\t// in\n    tag_203:\n        /* \"contracts t-rex/registry/implementation/TrustedIssuersRegistry.sol\":6521:6579  _claimTopicsToTrustedIssuers[claimTopic][topicsLength - 1] */\n      dup2\n      sload\n      dup2\n      lt\n      tag_205\n      jumpi\n      tag_205\n      tag_83\n      jump\t// in\n    tag_205:\n      0x00\n      swap2\n      dup3\n      mstore\n      0x20\n      dup1\n      dup4\n      keccak256\n      swap1\n      swap2\n      add\n      sload\n        /* \"contracts t-rex/registry/implementation/TrustedIssuersRegistry.sol\":6455:6495  _claimTopicsToTrustedIssuers[claimTopic] */\n      dup6\n      dup4\n      mstore\n        /* \"contracts t-rex/registry/implementation/TrustedIssuersRegistry.sol\":6455:6483  _claimTopicsToTrustedIssuers */\n      0x02\n        /* \"contracts t-rex/registry/implementation/TrustedIssuersRegistry.sol\":6455:6495  _claimTopicsToTrustedIssuers[claimTopic] */\n      swap1\n      swap2\n      mstore\n      0x40\n      swap1\n      swap2\n      keccak256\n        /* \"contracts t-rex/registry/implementation/TrustedIssuersRegistry.sol\":6455:6498  _claimTopicsToTrustedIssuers[claimTopic][i] */\n      dup1\n      sload\n      sub(shl(0xa0, 0x01), 0x01)\n        /* \"contracts t-rex/registry/implementation/TrustedIssuersRegistry.sol\":6521:6579  _claimTopicsToTrustedIssuers[claimTopic][topicsLength - 1] */\n      swap1\n      swap3\n      and\n      swap2\n        /* \"contracts t-rex/registry/implementation/TrustedIssuersRegistry.sol\":6496:6497  i */\n      dup4\n      swap1\n        /* \"contracts t-rex/registry/implementation/TrustedIssuersRegistry.sol\":6455:6498  _claimTopicsToTrustedIssuers[claimTopic][i] */\n      dup2\n      lt\n      tag_208\n      jumpi\n      tag_208\n      tag_83\n      jump\t// in\n    tag_208:\n      0x00\n      swap2\n      dup3\n      mstore\n      0x20\n      dup1\n      dup4\n      keccak256\n      swap2\n      swap1\n      swap2\n      add\n        /* \"contracts t-rex/registry/implementation/TrustedIssuersRegistry.sol\":6455:6579  _claimTopicsToTrustedIssuers[claimTopic][i] =... */\n      dup1\n      sload\n      not(sub(shl(0xa0, 0x01), 0x01))\n      and\n      sub(shl(0xa0, 0x01), 0x01)\n      swap5\n      swap1\n      swap5\n      and\n      swap4\n      swap1\n      swap4\n      or\n      swap1\n      swap3\n      sstore\n        /* \"contracts t-rex/registry/implementation/TrustedIssuersRegistry.sol\":6601:6641  _claimTopicsToTrustedIssuers[claimTopic] */\n      dup5\n      dup2\n      mstore\n        /* \"contracts t-rex/registry/implementation/TrustedIssuersRegistry.sol\":6601:6629  _claimTopicsToTrustedIssuers */\n      0x02\n        /* \"contracts t-rex/registry/implementation/TrustedIssuersRegistry.sol\":6601:6641  _claimTopicsToTrustedIssuers[claimTopic] */\n      swap1\n      swap2\n      mstore\n      0x40\n      swap1\n      keccak256\n        /* \"contracts t-rex/registry/implementation/TrustedIssuersRegistry.sol\":6601:6647  _claimTopicsToTrustedIssuers[claimTopic].pop() */\n      dup1\n      sload\n      dup1\n      tag_211\n      jumpi\n      tag_211\n      tag_102\n      jump\t// in\n    tag_211:\n      0x00\n      dup3\n      dup2\n      mstore\n      0x20\n      swap1\n      keccak256\n      dup2\n      add\n      not(0x00)\n      swap1\n      dup2\n      add\n      dup1\n      sload\n      not(sub(shl(0xa0, 0x01), 0x01))\n      and\n      swap1\n      sstore\n      add\n      swap1\n      sstore\n        /* \"contracts t-rex/registry/implementation/TrustedIssuersRegistry.sol\":6669:6674  break */\n      jump(tag_197)\n        /* \"contracts t-rex/registry/implementation/TrustedIssuersRegistry.sol\":6366:6693  if (_claimTopicsToTrustedIssuers[claimTopic][i] == _trustedIssuer) {... */\n    tag_202:\n        /* \"contracts t-rex/registry/implementation/TrustedIssuersRegistry.sol\":6343:6346  i++ */\n      dup1\n      tag_213\n      dup2\n      tag_105\n      jump\t// in\n    tag_213:\n      swap2\n      pop\n      pop\n        /* \"contracts t-rex/registry/implementation/TrustedIssuersRegistry.sol\":6305:6707  for (uint256 i = 0; i < topicsLength; i++) {... */\n      jump(tag_196)\n    tag_197:\n      pop\n        /* \"contracts t-rex/registry/implementation/TrustedIssuersRegistry.sol\":6105:6717  {... */\n      pop\n      pop\n        /* \"contracts t-rex/registry/implementation/TrustedIssuersRegistry.sol\":6086:6103  claimTopicIndex++ */\n      dup1\n      dup1\n      tag_214\n      swap1\n      tag_105\n      jump\t// in\n    tag_214:\n      swap2\n      pop\n      pop\n        /* \"contracts t-rex/registry/implementation/TrustedIssuersRegistry.sol\":5938:6717  for (... */\n      jump(tag_190)\n    tag_191:\n      pop\n      sub(shl(0xa0, 0x01), 0x01)\n        /* \"contracts t-rex/registry/implementation/TrustedIssuersRegistry.sol\":6733:6783  _trustedIssuerClaimTopics[address(_trustedIssuer)] */\n      dup3\n      and\n      0x00\n      swap1\n      dup2\n      mstore\n        /* \"contracts t-rex/registry/implementation/TrustedIssuersRegistry.sol\":6733:6758  _trustedIssuerClaimTopics */\n      0x01\n        /* \"contracts t-rex/registry/implementation/TrustedIssuersRegistry.sol\":6733:6783  _trustedIssuerClaimTopics[address(_trustedIssuer)] */\n      0x20\n      mstore\n      0x40\n      dup2\n      keccak256\n        /* \"contracts t-rex/registry/implementation/TrustedIssuersRegistry.sol\":6726:6783  delete _trustedIssuerClaimTopics[address(_trustedIssuer)] */\n      tag_215\n      swap2\n      tag_216\n      jump\t// in\n    tag_215:\n        /* \"contracts t-rex/registry/implementation/TrustedIssuersRegistry.sol\":6798:6834  TrustedIssuerRemoved(_trustedIssuer) */\n      mload(0x40)\n      sub(shl(0xa0, 0x01), 0x01)\n      dup4\n      and\n      swap1\n      0x2214ded40113cc3fb63fc206cafee88270b0a903dac7245d54efdde30ebb0321\n      swap1\n      0x00\n      swap1\n      log2\n        /* \"contracts t-rex/registry/implementation/TrustedIssuersRegistry.sol\":5428:6841  {... */\n      pop\n        /* \"contracts t-rex/registry/implementation/TrustedIssuersRegistry.sol\":5342:6841  function removeTrustedIssuer(IClaimIssuer _trustedIssuer) external override onlyOwner {... */\n      pop\n      jump\t// out\n        /* \"contracts t-rex/registry/implementation/TrustedIssuersRegistry.sol\":9263:9567  function getTrustedIssuerClaimTopics(IClaimIssuer _trustedIssuer) external view override returns (uint256[] memory) {... */\n    tag_46:\n      sub(shl(0xa0, 0x01), 0x01)\n        /* \"contracts t-rex/registry/implementation/TrustedIssuersRegistry.sol\":9397:9447  _trustedIssuerClaimTopics[address(_trustedIssuer)] */\n      dup2\n      and\n      0x00\n      swap1\n      dup2\n      mstore\n        /* \"contracts t-rex/registry/implementation/TrustedIssuersRegistry.sol\":9397:9422  _trustedIssuerClaimTopics */\n      0x01\n        /* \"contracts t-rex/registry/implementation/TrustedIssuersRegistry.sol\":9397:9447  _trustedIssuerClaimTopics[address(_trustedIssuer)] */\n      0x20\n      mstore\n      0x40\n      dup2\n      keccak256\n        /* \"contracts t-rex/registry/implementation/TrustedIssuersRegistry.sol\":9397:9454  _trustedIssuerClaimTopics[address(_trustedIssuer)].length */\n      sload\n        /* \"contracts t-rex/registry/implementation/TrustedIssuersRegistry.sol\":9361:9377  uint256[] memory */\n      0x60\n      swap2\n        /* \"contracts t-rex/registry/implementation/TrustedIssuersRegistry.sol\":9397:9459  _trustedIssuerClaimTopics[address(_trustedIssuer)].length != 0 */\n      sub\n        /* \"contracts t-rex/registry/implementation/TrustedIssuersRegistry.sol\":9389:9493  require(_trustedIssuerClaimTopics[address(_trustedIssuer)].length != 0, \"trusted Issuer doesn\\'t exist\") */\n      tag_218\n      jumpi\n      mload(0x40)\n      shl(0xe5, 0x461bcd)\n      dup2\n      mstore\n        /* \"#utility.yul\":7704:7706   */\n      0x20\n        /* \"contracts t-rex/registry/implementation/TrustedIssuersRegistry.sol\":9389:9493  require(_trustedIssuerClaimTopics[address(_trustedIssuer)].length != 0, \"trusted Issuer doesn\\'t exist\") */\n      0x04\n      dup3\n      add\n        /* \"#utility.yul\":7686:7707   */\n      mstore\n        /* \"#utility.yul\":7743:7745   */\n      0x1c\n        /* \"#utility.yul\":7723:7741   */\n      0x24\n      dup3\n      add\n        /* \"#utility.yul\":7716:7746   */\n      mstore\n      shl(0x22, 0x1d1c9d5cdd195908125cdcdd595c88191bd95cdb89dd08195e1a5cdd)\n        /* \"#utility.yul\":7762:7780   */\n      0x44\n      dup3\n      add\n        /* \"#utility.yul\":7755:7813   */\n      mstore\n        /* \"#utility.yul\":7830:7848   */\n      0x64\n      add\n        /* \"contracts t-rex/registry/implementation/TrustedIssuersRegistry.sol\":9389:9493  require(_trustedIssuerClaimTopics[address(_trustedIssuer)].length != 0, \"trusted Issuer doesn\\'t exist\") */\n      tag_67\n        /* \"#utility.yul\":7502:7854   */\n      jump\n        /* \"contracts t-rex/registry/implementation/TrustedIssuersRegistry.sol\":9389:9493  require(_trustedIssuerClaimTopics[address(_trustedIssuer)].length != 0, \"trusted Issuer doesn\\'t exist\") */\n    tag_218:\n      sub(shl(0xa0, 0x01), 0x01)\n        /* \"contracts t-rex/registry/implementation/TrustedIssuersRegistry.sol\":9510:9560  _trustedIssuerClaimTopics[address(_trustedIssuer)] */\n      dup3\n      and\n      0x00\n      swap1\n      dup2\n      mstore\n        /* \"contracts t-rex/registry/implementation/TrustedIssuersRegistry.sol\":9510:9535  _trustedIssuerClaimTopics */\n      0x01\n        /* \"contracts t-rex/registry/implementation/TrustedIssuersRegistry.sol\":9510:9560  _trustedIssuerClaimTopics[address(_trustedIssuer)] */\n      0x20\n      swap1\n      dup2\n      mstore\n      0x40\n      swap2\n      dup3\n      swap1\n      keccak256\n        /* \"contracts t-rex/registry/implementation/TrustedIssuersRegistry.sol\":9503:9560  return _trustedIssuerClaimTopics[address(_trustedIssuer)] */\n      dup1\n      sload\n      dup4\n      mload\n      dup2\n      dup5\n      mul\n      dup2\n      add\n      dup5\n      add\n      swap1\n      swap5\n      mstore\n      dup1\n      dup5\n      mstore\n        /* \"contracts t-rex/registry/implementation/TrustedIssuersRegistry.sol\":9510:9560  _trustedIssuerClaimTopics[address(_trustedIssuer)] */\n      swap1\n      swap2\n        /* \"contracts t-rex/registry/implementation/TrustedIssuersRegistry.sol\":9503:9560  return _trustedIssuerClaimTopics[address(_trustedIssuer)] */\n      dup4\n      add\n        /* \"contracts t-rex/registry/implementation/TrustedIssuersRegistry.sol\":9510:9560  _trustedIssuerClaimTopics[address(_trustedIssuer)] */\n      dup3\n        /* \"contracts t-rex/registry/implementation/TrustedIssuersRegistry.sol\":9503:9560  return _trustedIssuerClaimTopics[address(_trustedIssuer)] */\n      dup3\n      dup1\n      iszero\n      tag_129\n      jumpi\n      0x20\n      mul\n      dup3\n      add\n      swap2\n      swap1\n      0x00\n      mstore\n      keccak256(0x00, 0x20)\n      swap1\n    tag_222:\n      dup2\n      sload\n      dup2\n      mstore\n      0x20\n      add\n      swap1\n      0x01\n      add\n      swap1\n      dup1\n      dup4\n      gt\n      tag_222\n      jumpi\n      pop\n      pop\n      pop\n      pop\n      pop\n      swap1\n      pop\n        /* \"contracts t-rex/registry/implementation/TrustedIssuersRegistry.sol\":9263:9567  function getTrustedIssuerClaimTopics(IClaimIssuer _trustedIssuer) external view override returns (uint256[] memory) {... */\n      swap2\n      swap1\n      pop\n      jump\t// out\n        /* \"contracts t-rex/registry/implementation/TrustedIssuersRegistry.sol\":8484:8607  function getTrustedIssuers() external view override returns (IClaimIssuer[] memory) {... */\n    tag_50:\n        /* \"contracts t-rex/registry/implementation/TrustedIssuersRegistry.sol\":8545:8566  IClaimIssuer[] memory */\n      0x60\n        /* \"contracts t-rex/registry/implementation/TrustedIssuersRegistry.sol\":8585:8600  _trustedIssuers */\n      0x00\n        /* \"contracts t-rex/registry/implementation/TrustedIssuersRegistry.sol\":8578:8600  return _trustedIssuers */\n      dup1\n      sload\n      dup1\n      0x20\n      mul\n      0x20\n      add\n      mload(0x40)\n      swap1\n      dup2\n      add\n      0x40\n      mstore\n      dup1\n      swap3\n      swap2\n      swap1\n      dup2\n      dup2\n      mstore\n      0x20\n      add\n      dup3\n      dup1\n      sload\n      dup1\n      iszero\n      tag_224\n      jumpi\n      0x20\n      mul\n      dup3\n      add\n      swap2\n      swap1\n      0x00\n      mstore\n      keccak256(0x00, 0x20)\n      swap1\n    tag_225:\n      dup2\n      sload\n      sub(shl(0xa0, 0x01), 0x01)\n      and\n      dup2\n      mstore\n      0x01\n      swap1\n      swap2\n      add\n      swap1\n      0x20\n      add\n      dup1\n      dup4\n      gt\n      tag_225\n      jumpi\n    tag_224:\n      pop\n      pop\n      pop\n      pop\n      pop\n      swap1\n      pop\n        /* \"contracts t-rex/registry/implementation/TrustedIssuersRegistry.sol\":8484:8607  function getTrustedIssuers() external view override returns (IClaimIssuer[] memory) {... */\n      swap1\n      jump\t// out\n        /* \"contracts t-rex/registry/implementation/TrustedIssuersRegistry.sol\":4174:4254  function init() external initializer {... */\n    tag_53:\n        /* \"@openzeppelin/contracts-upgradeable/proxy/utils/Initializable.sol\":4158:4188  InitializableStorage storage $ */\n      0x00\n        /* \"@openzeppelin/contracts-upgradeable/proxy/utils/Initializable.sol\":4191:4217  _getInitializableStorage() */\n      tag_227\n        /* \"@openzeppelin/contracts-upgradeable/proxy/utils/Initializable.sol\":4191:4215  _getInitializableStorage */\n      tag_228\n        /* \"@openzeppelin/contracts-upgradeable/proxy/utils/Initializable.sol\":4191:4217  _getInitializableStorage() */\n      jump\t// in\n    tag_227:\n        /* \"@openzeppelin/contracts-upgradeable/proxy/utils/Initializable.sol\":4302:4317  $._initializing */\n      dup1\n      sload\n        /* \"@openzeppelin/contracts-upgradeable/proxy/utils/Initializable.sol\":4158:4217  InitializableStorage storage $ = _getInitializableStorage() */\n      swap1\n      swap2\n      pop\n        /* \"@openzeppelin/contracts-upgradeable/proxy/utils/Initializable.sol\":4302:4317  $._initializing */\n      0xff\n      shl(0x40, 0x01)\n      dup3\n      div\n      and\n        /* \"@openzeppelin/contracts-upgradeable/proxy/utils/Initializable.sol\":4301:4317  !$._initializing */\n      iszero\n      swap1\n      sub(shl(0x40, 0x01), 0x01)\n        /* \"@openzeppelin/contracts-upgradeable/proxy/utils/Initializable.sol\":4348:4362  $._initialized */\n      and\n        /* \"@openzeppelin/contracts-upgradeable/proxy/utils/Initializable.sol\":4279:4298  bool isTopLevelCall */\n      0x00\n        /* \"@openzeppelin/contracts-upgradeable/proxy/utils/Initializable.sol\":4726:4742  initialized == 0 */\n      dup2\n      iszero\n        /* \"@openzeppelin/contracts-upgradeable/proxy/utils/Initializable.sol\":4726:4760  initialized == 0 && isTopLevelCall */\n      dup1\n      iszero\n      tag_229\n      jumpi\n      pop\n        /* \"@openzeppelin/contracts-upgradeable/proxy/utils/Initializable.sol\":4746:4760  isTopLevelCall */\n      dup3\n        /* \"@openzeppelin/contracts-upgradeable/proxy/utils/Initializable.sol\":4726:4760  initialized == 0 && isTopLevelCall */\n    tag_229:\n        /* \"@openzeppelin/contracts-upgradeable/proxy/utils/Initializable.sol\":4706:4760  bool initialSetup = initialized == 0 && isTopLevelCall */\n      swap1\n      pop\n        /* \"@openzeppelin/contracts-upgradeable/proxy/utils/Initializable.sol\":4770:4787  bool construction */\n      0x00\n        /* \"@openzeppelin/contracts-upgradeable/proxy/utils/Initializable.sol\":4790:4801  initialized */\n      dup3\n      sub(shl(0x40, 0x01), 0x01)\n        /* \"@openzeppelin/contracts-upgradeable/proxy/utils/Initializable.sol\":4790:4806  initialized == 1 */\n      and\n        /* \"@openzeppelin/contracts-upgradeable/proxy/utils/Initializable.sol\":4805:4806  1 */\n      0x01\n        /* \"@openzeppelin/contracts-upgradeable/proxy/utils/Initializable.sol\":4790:4806  initialized == 1 */\n      eq\n        /* \"@openzeppelin/contracts-upgradeable/proxy/utils/Initializable.sol\":4790:4840  initialized == 1 && address(this).code.length == 0 */\n      dup1\n      iszero\n      tag_230\n      jumpi\n      pop\n        /* \"@openzeppelin/contracts-upgradeable/proxy/utils/Initializable.sol\":4818:4822  this */\n      address\n        /* \"@openzeppelin/contracts-upgradeable/proxy/utils/Initializable.sol\":4810:4835  address(this).code.length */\n      extcodesize\n        /* \"@openzeppelin/contracts-upgradeable/proxy/utils/Initializable.sol\":4810:4840  address(this).code.length == 0 */\n      iszero\n        /* \"@openzeppelin/contracts-upgradeable/proxy/utils/Initializable.sol\":4790:4840  initialized == 1 && address(this).code.length == 0 */\n    tag_230:\n        /* \"@openzeppelin/contracts-upgradeable/proxy/utils/Initializable.sol\":4770:4840  bool construction = initialized == 1 && address(this).code.length == 0 */\n      swap1\n      pop\n        /* \"@openzeppelin/contracts-upgradeable/proxy/utils/Initializable.sol\":4856:4868  initialSetup */\n      dup2\n        /* \"@openzeppelin/contracts-upgradeable/proxy/utils/Initializable.sol\":4855:4868  !initialSetup */\n      iszero\n        /* \"@openzeppelin/contracts-upgradeable/proxy/utils/Initializable.sol\":4855:4885  !initialSetup && !construction */\n      dup1\n      iszero\n      tag_231\n      jumpi\n      pop\n        /* \"@openzeppelin/contracts-upgradeable/proxy/utils/Initializable.sol\":4873:4885  construction */\n      dup1\n        /* \"@openzeppelin/contracts-upgradeable/proxy/utils/Initializable.sol\":4872:4885  !construction */\n      iszero\n        /* \"@openzeppelin/contracts-upgradeable/proxy/utils/Initializable.sol\":4855:4885  !initialSetup && !construction */\n    tag_231:\n        /* \"@openzeppelin/contracts-upgradeable/proxy/utils/Initializable.sol\":4851:4942  if (!initialSetup && !construction) {... */\n      iszero\n      tag_232\n      jumpi\n        /* \"@openzeppelin/contracts-upgradeable/proxy/utils/Initializable.sol\":4908:4931  InvalidInitialization() */\n      mload(0x40)\n      shl(0xe0, 0xf92ee8a9)\n      dup2\n      mstore\n      0x04\n      add\n      mload(0x40)\n      dup1\n      swap2\n      sub\n      swap1\n      revert\n        /* \"@openzeppelin/contracts-upgradeable/proxy/utils/Initializable.sol\":4851:4942  if (!initialSetup && !construction) {... */\n    tag_232:\n        /* \"@openzeppelin/contracts-upgradeable/proxy/utils/Initializable.sol\":4951:4969  $._initialized = 1 */\n      dup5\n      sload\n      not(sub(shl(0x40, 0x01), 0x01))\n      and\n        /* \"@openzeppelin/contracts-upgradeable/proxy/utils/Initializable.sol\":4968:4969  1 */\n      0x01\n        /* \"@openzeppelin/contracts-upgradeable/proxy/utils/Initializable.sol\":4951:4969  $._initialized = 1 */\n      or\n      dup6\n      sstore\n        /* \"@openzeppelin/contracts-upgradeable/proxy/utils/Initializable.sol\":4979:5046  if (isTopLevelCall) {... */\n      dup4\n      iszero\n      tag_233\n      jumpi\n        /* \"@openzeppelin/contracts-upgradeable/proxy/utils/Initializable.sol\":5013:5035  $._initializing = true */\n      dup5\n      sload\n      not(shl(0x40, 0xff))\n      and\n      shl(0x40, 0x01)\n      or\n      dup6\n      sstore\n        /* \"@openzeppelin/contracts-upgradeable/proxy/utils/Initializable.sol\":4979:5046  if (isTopLevelCall) {... */\n    tag_233:\n        /* \"contracts t-rex/registry/implementation/TrustedIssuersRegistry.sol\":4221:4247  __Ownable_init(msg.sender) */\n      tag_235\n        /* \"contracts t-rex/registry/implementation/TrustedIssuersRegistry.sol\":4236:4246  msg.sender */\n      caller\n        /* \"contracts t-rex/registry/implementation/TrustedIssuersRegistry.sol\":4221:4235  __Ownable_init */\n      tag_236\n        /* \"contracts t-rex/registry/implementation/TrustedIssuersRegistry.sol\":4221:4247  __Ownable_init(msg.sender) */\n      jump\t// in\n    tag_235:\n        /* \"@openzeppelin/contracts-upgradeable/proxy/utils/Initializable.sol\":5070:5084  isTopLevelCall */\n      dup4\n        /* \"@openzeppelin/contracts-upgradeable/proxy/utils/Initializable.sol\":5066:5167  if (isTopLevelCall) {... */\n      iszero\n      tag_237\n      jumpi\n        /* \"@openzeppelin/contracts-upgradeable/proxy/utils/Initializable.sol\":5100:5123  $._initializing = false */\n      dup5\n      sload\n      not(shl(0x40, 0xff))\n      and\n      dup6\n      sstore\n        /* \"@openzeppelin/contracts-upgradeable/proxy/utils/Initializable.sol\":5142:5156  Initialized(1) */\n      mload(0x40)\n      0x01\n        /* \"#utility.yul\":8012:8062   */\n      dup2\n      mstore\n        /* \"@openzeppelin/contracts-upgradeable/proxy/utils/Initializable.sol\":5142:5156  Initialized(1) */\n      0xc7f505b2f371ae2175ee4913f4499e1f2633a7b5936321eed1cdaeb6115181d2\n      swap1\n        /* \"#utility.yul\":8000:8002   */\n      0x20\n        /* \"#utility.yul\":7985:8003   */\n      add\n        /* \"@openzeppelin/contracts-upgradeable/proxy/utils/Initializable.sol\":5142:5156  Initialized(1) */\n      mload(0x40)\n      dup1\n      swap2\n      sub\n      swap1\n      log1\n        /* \"@openzeppelin/contracts-upgradeable/proxy/utils/Initializable.sol\":5066:5167  if (isTopLevelCall) {... */\n    tag_237:\n        /* \"@openzeppelin/contracts-upgradeable/proxy/utils/Initializable.sol\":4092:5173  {... */\n      pop\n      pop\n      pop\n      pop\n      pop\n        /* \"contracts t-rex/registry/implementation/TrustedIssuersRegistry.sol\":4174:4254  function init() external initializer {... */\n      jump\t// out\n        /* \"contracts t-rex/registry/implementation/TrustedIssuersRegistry.sol\":8965:9169  function isTrustedIssuer(address _issuer) external view override returns (bool) {... */\n    tag_57:\n      sub(shl(0xa0, 0x01), 0x01)\n        /* \"contracts t-rex/registry/implementation/TrustedIssuersRegistry.sol\":9058:9092  _trustedIssuerClaimTopics[_issuer] */\n      dup2\n      and\n        /* \"contracts t-rex/registry/implementation/TrustedIssuersRegistry.sol\":9039:9043  bool */\n      0x00\n        /* \"contracts t-rex/registry/implementation/TrustedIssuersRegistry.sol\":9058:9092  _trustedIssuerClaimTopics[_issuer] */\n      swap1\n      dup2\n      mstore\n        /* \"contracts t-rex/registry/implementation/TrustedIssuersRegistry.sol\":9058:9083  _trustedIssuerClaimTopics */\n      0x01\n        /* \"contracts t-rex/registry/implementation/TrustedIssuersRegistry.sol\":9058:9092  _trustedIssuerClaimTopics[_issuer] */\n      0x20\n      mstore\n      0x40\n      dup2\n      keccak256\n        /* \"contracts t-rex/registry/implementation/TrustedIssuersRegistry.sol\":9058:9099  _trustedIssuerClaimTopics[_issuer].length */\n      sload\n        /* \"contracts t-rex/registry/implementation/TrustedIssuersRegistry.sol\":9058:9103  _trustedIssuerClaimTopics[_issuer].length > 0 */\n      iszero\n        /* \"contracts t-rex/registry/implementation/TrustedIssuersRegistry.sol\":9055:9141  if(_trustedIssuerClaimTopics[_issuer].length > 0) {... */\n      tag_241\n      jumpi\n      pop\n        /* \"contracts t-rex/registry/implementation/TrustedIssuersRegistry.sol\":9126:9130  true */\n      0x01\n      swap2\n        /* \"contracts t-rex/registry/implementation/TrustedIssuersRegistry.sol\":8965:9169  function isTrustedIssuer(address _issuer) external view override returns (bool) {... */\n      swap1\n      pop\n      jump\t// out\n        /* \"contracts t-rex/registry/implementation/TrustedIssuersRegistry.sol\":9055:9141  if(_trustedIssuerClaimTopics[_issuer].length > 0) {... */\n    tag_241:\n      pop\n        /* \"contracts t-rex/registry/implementation/TrustedIssuersRegistry.sol\":9157:9162  false */\n      0x00\n      swap2\n        /* \"contracts t-rex/registry/implementation/TrustedIssuersRegistry.sol\":8965:9169  function isTrustedIssuer(address _issuer) external view override returns (bool) {... */\n      swap1\n      pop\n      jump\t// out\n        /* \"@openzeppelin/contracts-upgradeable/access/OwnableUpgradeable.sol\":3415:3630  function transferOwnership(address newOwner) public virtual onlyOwner {... */\n    tag_61:\n        /* \"@openzeppelin/contracts-upgradeable/access/OwnableUpgradeable.sol\":2344:2357  _checkOwner() */\n      tag_243\n        /* \"@openzeppelin/contracts-upgradeable/access/OwnableUpgradeable.sol\":2344:2355  _checkOwner */\n      tag_64\n        /* \"@openzeppelin/contracts-upgradeable/access/OwnableUpgradeable.sol\":2344:2357  _checkOwner() */\n      jump\t// in\n    tag_243:\n      sub(shl(0xa0, 0x01), 0x01)\n        /* \"@openzeppelin/contracts-upgradeable/access/OwnableUpgradeable.sol\":3499:3521  newOwner == address(0) */\n      dup2\n      and\n        /* \"@openzeppelin/contracts-upgradeable/access/OwnableUpgradeable.sol\":3495:3586  if (newOwner == address(0)) {... */\n      tag_245\n      jumpi\n        /* \"@openzeppelin/contracts-upgradeable/access/OwnableUpgradeable.sol\":3572:3573  0 */\n      0x00\n        /* \"@openzeppelin/contracts-upgradeable/access/OwnableUpgradeable.sol\":3544:3575  OwnableInvalidOwner(address(0)) */\n      mload(0x40)\n      shl(0xe0, 0x1e4fbdf7)\n      dup2\n      mstore\n      0x04\n      add\n      tag_67\n      swap2\n      swap1\n      tag_36\n      jump\t// in\n        /* \"@openzeppelin/contracts-upgradeable/access/OwnableUpgradeable.sol\":3495:3586  if (newOwner == address(0)) {... */\n    tag_245:\n        /* \"@openzeppelin/contracts-upgradeable/access/OwnableUpgradeable.sol\":3595:3623  _transferOwnership(newOwner) */\n      tag_247\n        /* \"@openzeppelin/contracts-upgradeable/access/OwnableUpgradeable.sol\":3614:3622  newOwner */\n      dup2\n        /* \"@openzeppelin/contracts-upgradeable/access/OwnableUpgradeable.sol\":3595:3613  _transferOwnership */\n      tag_135\n        /* \"@openzeppelin/contracts-upgradeable/access/OwnableUpgradeable.sol\":3595:3623  _transferOwnership(newOwner) */\n      jump\t// in\n    tag_247:\n        /* \"@openzeppelin/contracts-upgradeable/access/OwnableUpgradeable.sol\":3415:3630  function transferOwnership(address newOwner) public virtual onlyOwner {... */\n      pop\n      jump\t// out\n        /* \"@openzeppelin/contracts-upgradeable/access/OwnableUpgradeable.sol\":2668:2830  function _checkOwner() internal view virtual {... */\n    tag_64:\n        /* \"@openzeppelin/contracts-upgradeable/utils/ContextUpgradeable.sol\":966:976  msg.sender */\n      caller\n        /* \"@openzeppelin/contracts-upgradeable/access/OwnableUpgradeable.sol\":2727:2734  owner() */\n      tag_251\n        /* \"@openzeppelin/contracts-upgradeable/access/OwnableUpgradeable.sol\":2727:2732  owner */\n      tag_34\n        /* \"@openzeppelin/contracts-upgradeable/access/OwnableUpgradeable.sol\":2727:2734  owner() */\n      jump\t// in\n    tag_251:\n      sub(shl(0xa0, 0x01), 0x01)\n        /* \"@openzeppelin/contracts-upgradeable/access/OwnableUpgradeable.sol\":2727:2750  owner() != _msgSender() */\n      and\n      eq\n        /* \"@openzeppelin/contracts-upgradeable/access/OwnableUpgradeable.sol\":2723:2824  if (owner() != _msgSender()) {... */\n      tag_134\n      jumpi\n        /* \"@openzeppelin/contracts-upgradeable/utils/ContextUpgradeable.sol\":966:976  msg.sender */\n      caller\n        /* \"@openzeppelin/contracts-upgradeable/access/OwnableUpgradeable.sol\":2773:2813  OwnableUnauthorizedAccount(_msgSender()) */\n      mload(0x40)\n      shl(0xe0, 0x118cdaa7)\n      dup2\n      mstore\n      0x04\n      add\n      tag_67\n      swap2\n      swap1\n      tag_36\n      jump\t// in\n        /* \"@openzeppelin/contracts-upgradeable/access/OwnableUpgradeable.sol\":3784:4032  function _transferOwnership(address newOwner) internal virtual {... */\n    tag_135:\n        /* \"@openzeppelin/contracts-upgradeable/access/OwnableUpgradeable.sol\":3857:3881  OwnableStorage storage $ */\n      0x00\n        /* \"@openzeppelin/contracts-upgradeable/access/OwnableUpgradeable.sol\":3884:3904  _getOwnableStorage() */\n      tag_256\n        /* \"@openzeppelin/contracts-upgradeable/access/OwnableUpgradeable.sol\":3884:3902  _getOwnableStorage */\n      tag_138\n        /* \"@openzeppelin/contracts-upgradeable/access/OwnableUpgradeable.sol\":3884:3904  _getOwnableStorage() */\n      jump\t// in\n    tag_256:\n        /* \"@openzeppelin/contracts-upgradeable/access/OwnableUpgradeable.sol\":3933:3941  $._owner */\n      dup1\n      sload\n      sub(shl(0xa0, 0x01), 0x01)\n        /* \"@openzeppelin/contracts-upgradeable/access/OwnableUpgradeable.sol\":3951:3970  $._owner = newOwner */\n      dup5\n      dup2\n      and\n      not(sub(shl(0xa0, 0x01), 0x01))\n      dup4\n      and\n      dup2\n      or\n      dup5\n      sstore\n        /* \"@openzeppelin/contracts-upgradeable/access/OwnableUpgradeable.sol\":3985:4025  OwnershipTransferred(oldOwner, newOwner) */\n      mload(0x40)\n        /* \"@openzeppelin/contracts-upgradeable/access/OwnableUpgradeable.sol\":3857:3904  OwnableStorage storage $ = _getOwnableStorage() */\n      swap4\n      swap5\n      pop\n        /* \"@openzeppelin/contracts-upgradeable/access/OwnableUpgradeable.sol\":3933:3941  $._owner */\n      swap2\n      and\n      swap2\n      dup3\n      swap1\n        /* \"@openzeppelin/contracts-upgradeable/access/OwnableUpgradeable.sol\":3985:4025  OwnershipTransferred(oldOwner, newOwner) */\n      0x8be0079c531659141344cd1fd0a4f28419497f9722a3daafe3b4186f6b6457e0\n      swap1\n        /* \"@openzeppelin/contracts-upgradeable/access/OwnableUpgradeable.sol\":3914:3930  address oldOwner */\n      0x00\n      swap1\n        /* \"@openzeppelin/contracts-upgradeable/access/OwnableUpgradeable.sol\":3985:4025  OwnershipTransferred(oldOwner, newOwner) */\n      log3\n        /* \"@openzeppelin/contracts-upgradeable/access/OwnableUpgradeable.sol\":3847:4032  {... */\n      pop\n      pop\n        /* \"@openzeppelin/contracts-upgradeable/access/OwnableUpgradeable.sol\":3784:4032  function _transferOwnership(address newOwner) internal virtual {... */\n      pop\n      jump\t// out\n        /* \"@openzeppelin/contracts-upgradeable/access/OwnableUpgradeable.sol\":1202:1361  function _getOwnableStorage() private pure returns (OwnableStorage storage $) {... */\n    tag_138:\n        /* \"@openzeppelin/contracts-upgradeable/access/OwnableUpgradeable.sol\":1323:1345  OwnableStorageLocation */\n      0x9016d09d72d40fdae2fd8ceac6b6234c7706214fd39c1cd1e609a0528c199300\n      swap1\n        /* \"@openzeppelin/contracts-upgradeable/access/OwnableUpgradeable.sol\":1202:1361  function _getOwnableStorage() private pure returns (OwnableStorage storage $) {... */\n      jump\t// out\n        /* \"@openzeppelin/contracts-upgradeable/proxy/utils/Initializable.sol\":8737:8907  function _getInitializableStorage() private pure returns (InitializableStorage storage $) {... */\n    tag_228:\n        /* \"@openzeppelin/contracts-upgradeable/proxy/utils/Initializable.sol\":8870:8891  INITIALIZABLE_STORAGE */\n      0xf0c57e16840df040f15088dc2f81fe391c3923bec73e23a9662efc9c229c6a00\n      swap1\n        /* \"@openzeppelin/contracts-upgradeable/proxy/utils/Initializable.sol\":8737:8907  function _getInitializableStorage() private pure returns (InitializableStorage storage $) {... */\n      jump\t// out\n        /* \"@openzeppelin/contracts-upgradeable/access/OwnableUpgradeable.sol\":1857:1984  function __Ownable_init(address initialOwner) internal onlyInitializing {... */\n    tag_236:\n        /* \"@openzeppelin/contracts-upgradeable/proxy/utils/Initializable.sol\":6931:6951  _checkInitializing() */\n      tag_260\n        /* \"@openzeppelin/contracts-upgradeable/proxy/utils/Initializable.sol\":6931:6949  _checkInitializing */\n      tag_261\n        /* \"@openzeppelin/contracts-upgradeable/proxy/utils/Initializable.sol\":6931:6951  _checkInitializing() */\n      jump\t// in\n    tag_260:\n        /* \"@openzeppelin/contracts-upgradeable/access/OwnableUpgradeable.sol\":1939:1977  __Ownable_init_unchained(initialOwner) */\n      tag_247\n        /* \"@openzeppelin/contracts-upgradeable/access/OwnableUpgradeable.sol\":1964:1976  initialOwner */\n      dup2\n        /* \"@openzeppelin/contracts-upgradeable/access/OwnableUpgradeable.sol\":1939:1963  __Ownable_init_unchained */\n      tag_264\n        /* \"@openzeppelin/contracts-upgradeable/access/OwnableUpgradeable.sol\":1939:1977  __Ownable_init_unchained(initialOwner) */\n      jump\t// in\n        /* \"@openzeppelin/contracts-upgradeable/proxy/utils/Initializable.sol\":7084:7225  function _checkInitializing() internal view virtual {... */\n    tag_261:\n        /* \"@openzeppelin/contracts-upgradeable/proxy/utils/Initializable.sol\":7151:7168  _isInitializing() */\n      tag_267\n        /* \"@openzeppelin/contracts-upgradeable/proxy/utils/Initializable.sol\":7151:7166  _isInitializing */\n      tag_268\n        /* \"@openzeppelin/contracts-upgradeable/proxy/utils/Initializable.sol\":7151:7168  _isInitializing() */\n      jump\t// in\n    tag_267:\n        /* \"@openzeppelin/contracts-upgradeable/proxy/utils/Initializable.sol\":7146:7219  if (!_isInitializing()) {... */\n      tag_134\n      jumpi\n        /* \"@openzeppelin/contracts-upgradeable/proxy/utils/Initializable.sol\":7191:7208  NotInitializing() */\n      mload(0x40)\n      shl(0xe3, 0x1afcd79f)\n      dup2\n      mstore\n      0x04\n      add\n      mload(0x40)\n      dup1\n      swap2\n      sub\n      swap1\n      revert\n        /* \"@openzeppelin/contracts-upgradeable/access/OwnableUpgradeable.sol\":1990:2225  function __Ownable_init_unchained(address initialOwner) internal onlyInitializing {... */\n    tag_264:\n        /* \"@openzeppelin/contracts-upgradeable/proxy/utils/Initializable.sol\":6931:6951  _checkInitializing() */\n      tag_243\n        /* \"@openzeppelin/contracts-upgradeable/proxy/utils/Initializable.sol\":6931:6949  _checkInitializing */\n      tag_261\n        /* \"@openzeppelin/contracts-upgradeable/proxy/utils/Initializable.sol\":6931:6951  _checkInitializing() */\n      jump\t// in\n        /* \"@openzeppelin/contracts-upgradeable/proxy/utils/Initializable.sol\":8487:8607  function _isInitializing() internal view returns (bool) {... */\n    tag_268:\n        /* \"@openzeppelin/contracts-upgradeable/proxy/utils/Initializable.sol\":8537:8541  bool */\n      0x00\n        /* \"@openzeppelin/contracts-upgradeable/proxy/utils/Initializable.sol\":8560:8586  _getInitializableStorage() */\n      tag_277\n        /* \"@openzeppelin/contracts-upgradeable/proxy/utils/Initializable.sol\":8560:8584  _getInitializableStorage */\n      tag_228\n        /* \"@openzeppelin/contracts-upgradeable/proxy/utils/Initializable.sol\":8560:8586  _getInitializableStorage() */\n      jump\t// in\n    tag_277:\n        /* \"@openzeppelin/contracts-upgradeable/proxy/utils/Initializable.sol\":8560:8600  _getInitializableStorage()._initializing */\n      sload\n      shl(0x40, 0x01)\n      swap1\n      div\n      0xff\n      and\n      swap2\n      swap1\n      pop\n        /* \"@openzeppelin/contracts-upgradeable/proxy/utils/Initializable.sol\":8487:8607  function _isInitializing() internal view returns (bool) {... */\n      jump\t// out\n    tag_108:\n      dup3\n      dup1\n      sload\n      dup3\n      dup3\n      sstore\n      swap1\n      0x00\n      mstore\n      keccak256(0x00, 0x20)\n      swap1\n      dup2\n      add\n      swap3\n      dup3\n      iszero\n      tag_280\n      jumpi\n      swap2\n      0x20\n      mul\n      dup3\n      add\n    tag_279:\n      dup3\n      dup2\n      gt\n      iszero\n      tag_280\n      jumpi\n      dup3\n      calldataload\n      dup3\n      sstore\n      swap2\n      0x20\n      add\n      swap2\n      swap1\n      0x01\n      add\n      swap1\n      jump(tag_279)\n    tag_280:\n      pop\n      tag_281\n      swap3\n      swap2\n      pop\n      tag_282\n      jump\t// in\n    tag_281:\n      pop\n      swap1\n      jump\t// out\n    tag_216:\n      pop\n      dup1\n      sload\n      0x00\n      dup3\n      sstore\n      swap1\n      0x00\n      mstore\n      keccak256(0x00, 0x20)\n      swap1\n      dup2\n      add\n      swap1\n      tag_247\n      swap2\n      swap1\n    tag_282:\n    tag_285:\n      dup1\n      dup3\n      gt\n      iszero\n      tag_281\n      jumpi\n      0x00\n      dup2\n      sstore\n      0x01\n      add\n      jump(tag_285)\n        /* \"#utility.yul\":14:159   */\n    tag_287:\n      sub(shl(0xa0, 0x01), 0x01)\n        /* \"#utility.yul\":103:134   */\n      dup2\n      and\n        /* \"#utility.yul\":93:135   */\n      dup2\n      eq\n        /* \"#utility.yul\":83:153   */\n      tag_247\n      jumpi\n        /* \"#utility.yul\":149:150   */\n      0x00\n        /* \"#utility.yul\":146:147   */\n      dup1\n        /* \"#utility.yul\":139:151   */\n      revert\n        /* \"#utility.yul\":164:947   */\n    tag_17:\n        /* \"#utility.yul\":278:284   */\n      0x00\n        /* \"#utility.yul\":286:292   */\n      dup1\n        /* \"#utility.yul\":294:300   */\n      0x00\n        /* \"#utility.yul\":347:349   */\n      0x40\n        /* \"#utility.yul\":335:344   */\n      dup5\n        /* \"#utility.yul\":326:333   */\n      dup7\n        /* \"#utility.yul\":322:345   */\n      sub\n        /* \"#utility.yul\":318:350   */\n      slt\n        /* \"#utility.yul\":315:367   */\n      iszero\n      tag_293\n      jumpi\n        /* \"#utility.yul\":363:364   */\n      0x00\n        /* \"#utility.yul\":360:361   */\n      dup1\n        /* \"#utility.yul\":353:365   */\n      revert\n        /* \"#utility.yul\":315:367   */\n    tag_293:\n        /* \"#utility.yul\":402:411   */\n      dup4\n        /* \"#utility.yul\":389:412   */\n      calldataload\n        /* \"#utility.yul\":421:466   */\n      tag_294\n        /* \"#utility.yul\":460:465   */\n      dup2\n        /* \"#utility.yul\":421:466   */\n      tag_287\n      jump\t// in\n    tag_294:\n        /* \"#utility.yul\":485:490   */\n      swap3\n      pop\n        /* \"#utility.yul\":541:543   */\n      0x20\n        /* \"#utility.yul\":526:544   */\n      dup5\n      add\n        /* \"#utility.yul\":513:545   */\n      calldataload\n      sub(shl(0x40, 0x01), 0x01)\n        /* \"#utility.yul\":594:608   */\n      dup1\n      dup3\n      gt\n        /* \"#utility.yul\":591:625   */\n      iszero\n      tag_295\n      jumpi\n        /* \"#utility.yul\":621:622   */\n      0x00\n        /* \"#utility.yul\":618:619   */\n      dup1\n        /* \"#utility.yul\":611:623   */\n      revert\n        /* \"#utility.yul\":591:625   */\n    tag_295:\n        /* \"#utility.yul\":659:665   */\n      dup2\n        /* \"#utility.yul\":648:657   */\n      dup7\n        /* \"#utility.yul\":644:666   */\n      add\n        /* \"#utility.yul\":634:666   */\n      swap2\n      pop\n        /* \"#utility.yul\":704:711   */\n      dup7\n        /* \"#utility.yul\":697:701   */\n      0x1f\n        /* \"#utility.yul\":693:695   */\n      dup4\n        /* \"#utility.yul\":689:702   */\n      add\n        /* \"#utility.yul\":685:712   */\n      slt\n        /* \"#utility.yul\":675:730   */\n      tag_296\n      jumpi\n        /* \"#utility.yul\":726:727   */\n      0x00\n        /* \"#utility.yul\":723:724   */\n      dup1\n        /* \"#utility.yul\":716:728   */\n      revert\n        /* \"#utility.yul\":675:730   */\n    tag_296:\n        /* \"#utility.yul\":766:768   */\n      dup2\n        /* \"#utility.yul\":753:769   */\n      calldataload\n        /* \"#utility.yul\":792:794   */\n      dup2\n        /* \"#utility.yul\":784:790   */\n      dup2\n        /* \"#utility.yul\":781:795   */\n      gt\n        /* \"#utility.yul\":778:812   */\n      iszero\n      tag_297\n      jumpi\n        /* \"#utility.yul\":808:809   */\n      0x00\n        /* \"#utility.yul\":805:806   */\n      dup1\n        /* \"#utility.yul\":798:810   */\n      revert\n        /* \"#utility.yul\":778:812   */\n    tag_297:\n        /* \"#utility.yul\":861:868   */\n      dup8\n        /* \"#utility.yul\":856:858   */\n      0x20\n        /* \"#utility.yul\":846:852   */\n      dup3\n        /* \"#utility.yul\":843:844   */\n      0x05\n        /* \"#utility.yul\":839:853   */\n      shl\n        /* \"#utility.yul\":835:837   */\n      dup6\n        /* \"#utility.yul\":831:854   */\n      add\n        /* \"#utility.yul\":827:859   */\n      add\n        /* \"#utility.yul\":824:869   */\n      gt\n        /* \"#utility.yul\":821:886   */\n      iszero\n      tag_298\n      jumpi\n        /* \"#utility.yul\":882:883   */\n      0x00\n        /* \"#utility.yul\":879:880   */\n      dup1\n        /* \"#utility.yul\":872:884   */\n      revert\n        /* \"#utility.yul\":821:886   */\n    tag_298:\n        /* \"#utility.yul\":913:915   */\n      0x20\n        /* \"#utility.yul\":909:911   */\n      dup4\n        /* \"#utility.yul\":905:916   */\n      add\n        /* \"#utility.yul\":895:916   */\n      swap5\n      pop\n        /* \"#utility.yul\":935:941   */\n      dup1\n        /* \"#utility.yul\":925:941   */\n      swap4\n      pop\n      pop\n      pop\n      pop\n        /* \"#utility.yul\":164:947   */\n      swap3\n      pop\n      swap3\n      pop\n      swap3\n      jump\t// out\n        /* \"#utility.yul\":952:1281   */\n    tag_21:\n        /* \"#utility.yul\":1020:1026   */\n      0x00\n        /* \"#utility.yul\":1028:1034   */\n      dup1\n        /* \"#utility.yul\":1081:1083   */\n      0x40\n        /* \"#utility.yul\":1069:1078   */\n      dup4\n        /* \"#utility.yul\":1060:1067   */\n      dup6\n        /* \"#utility.yul\":1056:1079   */\n      sub\n        /* \"#utility.yul\":1052:1084   */\n      slt\n        /* \"#utility.yul\":1049:1101   */\n      iszero\n      tag_300\n      jumpi\n        /* \"#utility.yul\":1097:1098   */\n      0x00\n        /* \"#utility.yul\":1094:1095   */\n      dup1\n        /* \"#utility.yul\":1087:1099   */\n      revert\n        /* \"#utility.yul\":1049:1101   */\n    tag_300:\n        /* \"#utility.yul\":1136:1145   */\n      dup3\n        /* \"#utility.yul\":1123:1146   */\n      calldataload\n        /* \"#utility.yul\":1155:1200   */\n      tag_301\n        /* \"#utility.yul\":1194:1199   */\n      dup2\n        /* \"#utility.yul\":1155:1200   */\n      tag_287\n      jump\t// in\n    tag_301:\n        /* \"#utility.yul\":1219:1224   */\n      swap5\n        /* \"#utility.yul\":1271:1273   */\n      0x20\n        /* \"#utility.yul\":1256:1274   */\n      swap4\n      swap1\n      swap4\n      add\n        /* \"#utility.yul\":1243:1275   */\n      calldataload\n      swap4\n      pop\n      pop\n      pop\n        /* \"#utility.yul\":952:1281   */\n      jump\t// out\n        /* \"#utility.yul\":1478:1658   */\n    tag_27:\n        /* \"#utility.yul\":1537:1543   */\n      0x00\n        /* \"#utility.yul\":1590:1592   */\n      0x20\n        /* \"#utility.yul\":1578:1587   */\n      dup3\n        /* \"#utility.yul\":1569:1576   */\n      dup5\n        /* \"#utility.yul\":1565:1588   */\n      sub\n        /* \"#utility.yul\":1561:1593   */\n      slt\n        /* \"#utility.yul\":1558:1610   */\n      iszero\n      tag_304\n      jumpi\n        /* \"#utility.yul\":1606:1607   */\n      0x00\n        /* \"#utility.yul\":1603:1604   */\n      dup1\n        /* \"#utility.yul\":1596:1608   */\n      revert\n        /* \"#utility.yul\":1558:1610   */\n    tag_304:\n      pop\n        /* \"#utility.yul\":1629:1652   */\n      calldataload\n      swap2\n        /* \"#utility.yul\":1478:1658   */\n      swap1\n      pop\n      jump\t// out\n        /* \"#utility.yul\":1663:2340   */\n    tag_30:\n        /* \"#utility.yul\":1853:1855   */\n      0x20\n        /* \"#utility.yul\":1905:1926   */\n      dup1\n      dup3\n      mstore\n        /* \"#utility.yul\":1975:1988   */\n      dup3\n      mload\n        /* \"#utility.yul\":1878:1896   */\n      dup3\n      dup3\n      add\n        /* \"#utility.yul\":1997:2019   */\n      dup2\n      swap1\n      mstore\n        /* \"#utility.yul\":1824:1828   */\n      0x00\n      swap2\n        /* \"#utility.yul\":1853:1855   */\n      swap1\n        /* \"#utility.yul\":2076:2091   */\n      dup5\n      dup3\n      add\n      swap1\n        /* \"#utility.yul\":2050:2052   */\n      0x40\n        /* \"#utility.yul\":2035:2053   */\n      dup6\n      add\n      swap1\n        /* \"#utility.yul\":1824:1828   */\n      dup5\n        /* \"#utility.yul\":2119:2314   */\n    tag_306:\n        /* \"#utility.yul\":2133:2139   */\n      dup2\n        /* \"#utility.yul\":2130:2131   */\n      dup2\n        /* \"#utility.yul\":2127:2140   */\n      lt\n        /* \"#utility.yul\":2119:2314   */\n      iszero\n      tag_308\n      jumpi\n        /* \"#utility.yul\":2198:2211   */\n      dup4\n      mload\n      sub(shl(0xa0, 0x01), 0x01)\n        /* \"#utility.yul\":2194:2233   */\n      and\n        /* \"#utility.yul\":2182:2234   */\n      dup4\n      mstore\n        /* \"#utility.yul\":2289:2304   */\n      swap3\n      dup5\n      add\n      swap3\n        /* \"#utility.yul\":2254:2266   */\n      swap2\n      dup5\n      add\n      swap2\n        /* \"#utility.yul\":2230:2231   */\n      0x01\n        /* \"#utility.yul\":2148:2157   */\n      add\n        /* \"#utility.yul\":2119:2314   */\n      jump(tag_306)\n    tag_308:\n      pop\n        /* \"#utility.yul\":2331:2334   */\n      swap1\n      swap7\n        /* \"#utility.yul\":1663:2340   */\n      swap6\n      pop\n      pop\n      pop\n      pop\n      pop\n      pop\n      jump\t// out\n        /* \"#utility.yul\":2345:2548   */\n    tag_36:\n      sub(shl(0xa0, 0x01), 0x01)\n        /* \"#utility.yul\":2509:2541   */\n      swap2\n      swap1\n      swap2\n      and\n        /* \"#utility.yul\":2491:2542   */\n      dup2\n      mstore\n        /* \"#utility.yul\":2479:2481   */\n      0x20\n        /* \"#utility.yul\":2464:2482   */\n      add\n      swap1\n        /* \"#utility.yul\":2345:2548   */\n      jump\t// out\n        /* \"#utility.yul\":2553:2833   */\n    tag_42:\n        /* \"#utility.yul\":2631:2637   */\n      0x00\n        /* \"#utility.yul\":2684:2686   */\n      0x20\n        /* \"#utility.yul\":2672:2681   */\n      dup3\n        /* \"#utility.yul\":2663:2670   */\n      dup5\n        /* \"#utility.yul\":2659:2682   */\n      sub\n        /* \"#utility.yul\":2655:2687   */\n      slt\n        /* \"#utility.yul\":2652:2704   */\n      iszero\n      tag_311\n      jumpi\n        /* \"#utility.yul\":2700:2701   */\n      0x00\n        /* \"#utility.yul\":2697:2698   */\n      dup1\n        /* \"#utility.yul\":2690:2702   */\n      revert\n        /* \"#utility.yul\":2652:2704   */\n    tag_311:\n        /* \"#utility.yul\":2739:2748   */\n      dup2\n        /* \"#utility.yul\":2726:2749   */\n      calldataload\n        /* \"#utility.yul\":2758:2803   */\n      tag_312\n        /* \"#utility.yul\":2797:2802   */\n      dup2\n        /* \"#utility.yul\":2758:2803   */\n      tag_287\n      jump\t// in\n    tag_312:\n        /* \"#utility.yul\":2822:2827   */\n      swap4\n        /* \"#utility.yul\":2553:2833   */\n      swap3\n      pop\n      pop\n      pop\n      jump\t// out\n        /* \"#utility.yul\":2838:3470   */\n    tag_48:\n        /* \"#utility.yul\":3009:3011   */\n      0x20\n        /* \"#utility.yul\":3061:3082   */\n      dup1\n      dup3\n      mstore\n        /* \"#utility.yul\":3131:3144   */\n      dup3\n      mload\n        /* \"#utility.yul\":3034:3052   */\n      dup3\n      dup3\n      add\n        /* \"#utility.yul\":3153:3175   */\n      dup2\n      swap1\n      mstore\n        /* \"#utility.yul\":2980:2984   */\n      0x00\n      swap2\n        /* \"#utility.yul\":3009:3011   */\n      swap1\n        /* \"#utility.yul\":3232:3247   */\n      dup5\n      dup3\n      add\n      swap1\n        /* \"#utility.yul\":3206:3208   */\n      0x40\n        /* \"#utility.yul\":3191:3209   */\n      dup6\n      add\n      swap1\n        /* \"#utility.yul\":2980:2984   */\n      dup5\n        /* \"#utility.yul\":3275:3444   */\n    tag_314:\n        /* \"#utility.yul\":3289:3295   */\n      dup2\n        /* \"#utility.yul\":3286:3287   */\n      dup2\n        /* \"#utility.yul\":3283:3296   */\n      lt\n        /* \"#utility.yul\":3275:3444   */\n      iszero\n      tag_308\n      jumpi\n        /* \"#utility.yul\":3350:3363   */\n      dup4\n      mload\n        /* \"#utility.yul\":3338:3364   */\n      dup4\n      mstore\n        /* \"#utility.yul\":3419:3434   */\n      swap3\n      dup5\n      add\n      swap3\n        /* \"#utility.yul\":3384:3396   */\n      swap2\n      dup5\n      add\n      swap2\n        /* \"#utility.yul\":3311:3312   */\n      0x01\n        /* \"#utility.yul\":3304:3313   */\n      add\n        /* \"#utility.yul\":3275:3444   */\n      jump(tag_314)\n        /* \"#utility.yul\":3741:4096   */\n    tag_68:\n        /* \"#utility.yul\":3943:3945   */\n      0x20\n        /* \"#utility.yul\":3925:3946   */\n      dup1\n      dup3\n      mstore\n        /* \"#utility.yul\":3982:3984   */\n      0x1f\n        /* \"#utility.yul\":3962:3980   */\n      swap1\n      dup3\n      add\n        /* \"#utility.yul\":3955:3985   */\n      mstore\n        /* \"#utility.yul\":4021:4054   */\n      0x696e76616c696420617267756d656e74202d207a65726f206164647265737300\n        /* \"#utility.yul\":4016:4018   */\n      0x40\n        /* \"#utility.yul\":4001:4019   */\n      dup3\n      add\n        /* \"#utility.yul\":3994:4055   */\n      mstore\n        /* \"#utility.yul\":4087:4089   */\n      0x60\n        /* \"#utility.yul\":4072:4090   */\n      add\n      swap1\n        /* \"#utility.yul\":3741:4096   */\n      jump\t// out\n        /* \"#utility.yul\":4101:4445   */\n    tag_71:\n        /* \"#utility.yul\":4303:4305   */\n      0x20\n        /* \"#utility.yul\":4285:4306   */\n      dup1\n      dup3\n      mstore\n        /* \"#utility.yul\":4342:4344   */\n      0x14\n        /* \"#utility.yul\":4322:4340   */\n      swap1\n      dup3\n      add\n        /* \"#utility.yul\":4315:4345   */\n      mstore\n      shl(0x61, 0x2727aa1030903a393ab9ba32b21034b9b9bab2b9)\n        /* \"#utility.yul\":4376:4378   */\n      0x40\n        /* \"#utility.yul\":4361:4379   */\n      dup3\n      add\n        /* \"#utility.yul\":4354:4404   */\n      mstore\n        /* \"#utility.yul\":4436:4438   */\n      0x60\n        /* \"#utility.yul\":4421:4439   */\n      add\n      swap1\n        /* \"#utility.yul\":4101:4445   */\n      jump\t// out\n        /* \"#utility.yul\":4450:4851   */\n    tag_74:\n        /* \"#utility.yul\":4652:4654   */\n      0x20\n        /* \"#utility.yul\":4634:4655   */\n      dup1\n      dup3\n      mstore\n        /* \"#utility.yul\":4691:4693   */\n      0x25\n        /* \"#utility.yul\":4671:4689   */\n      swap1\n      dup3\n      add\n        /* \"#utility.yul\":4664:4694   */\n      mstore\n        /* \"#utility.yul\":4730:4764   */\n      0x63616e6e6f742068617665206d6f7265207468616e20313520636c61696d2074\n        /* \"#utility.yul\":4725:4727   */\n      0x40\n        /* \"#utility.yul\":4710:4728   */\n      dup3\n      add\n        /* \"#utility.yul\":4703:4765   */\n      mstore\n      shl(0xd8, 0x6f70696373)\n        /* \"#utility.yul\":4796:4798   */\n      0x60\n        /* \"#utility.yul\":4781:4799   */\n      dup3\n      add\n        /* \"#utility.yul\":4774:4809   */\n      mstore\n        /* \"#utility.yul\":4841:4844   */\n      0x80\n        /* \"#utility.yul\":4826:4845   */\n      add\n      swap1\n        /* \"#utility.yul\":4450:4851   */\n      jump\t// out\n        /* \"#utility.yul\":5213:5340   */\n    tag_83:\n        /* \"#utility.yul\":5274:5284   */\n      0x4e487b71\n        /* \"#utility.yul\":5269:5272   */\n      0xe0\n        /* \"#utility.yul\":5265:5285   */\n      shl\n        /* \"#utility.yul\":5262:5263   */\n      0x00\n        /* \"#utility.yul\":5255:5286   */\n      mstore\n        /* \"#utility.yul\":5305:5309   */\n      0x32\n        /* \"#utility.yul\":5302:5303   */\n      0x04\n        /* \"#utility.yul\":5295:5310   */\n      mstore\n        /* \"#utility.yul\":5329:5333   */\n      0x24\n        /* \"#utility.yul\":5326:5327   */\n      0x00\n        /* \"#utility.yul\":5319:5334   */\n      revert\n        /* \"#utility.yul\":5345:5472   */\n    tag_288:\n        /* \"#utility.yul\":5406:5416   */\n      0x4e487b71\n        /* \"#utility.yul\":5401:5404   */\n      0xe0\n        /* \"#utility.yul\":5397:5417   */\n      shl\n        /* \"#utility.yul\":5394:5395   */\n      0x00\n        /* \"#utility.yul\":5387:5418   */\n      mstore\n        /* \"#utility.yul\":5437:5441   */\n      0x11\n        /* \"#utility.yul\":5434:5435   */\n      0x04\n        /* \"#utility.yul\":5427:5442   */\n      mstore\n        /* \"#utility.yul\":5461:5465   */\n      0x24\n        /* \"#utility.yul\":5458:5459   */\n      0x00\n        /* \"#utility.yul\":5451:5466   */\n      revert\n        /* \"#utility.yul\":5477:5605   */\n    tag_93:\n        /* \"#utility.yul\":5544:5553   */\n      dup2\n      dup2\n      sub\n        /* \"#utility.yul\":5565:5576   */\n      dup2\n      dup2\n      gt\n        /* \"#utility.yul\":5562:5599   */\n      iszero\n      tag_118\n      jumpi\n        /* \"#utility.yul\":5579:5597   */\n      tag_118\n      tag_288\n      jump\t// in\n        /* \"#utility.yul\":5610:5737   */\n    tag_102:\n        /* \"#utility.yul\":5671:5681   */\n      0x4e487b71\n        /* \"#utility.yul\":5666:5669   */\n      0xe0\n        /* \"#utility.yul\":5662:5682   */\n      shl\n        /* \"#utility.yul\":5659:5660   */\n      0x00\n        /* \"#utility.yul\":5652:5683   */\n      mstore\n        /* \"#utility.yul\":5702:5706   */\n      0x31\n        /* \"#utility.yul\":5699:5700   */\n      0x04\n        /* \"#utility.yul\":5692:5707   */\n      mstore\n        /* \"#utility.yul\":5726:5730   */\n      0x24\n        /* \"#utility.yul\":5723:5724   */\n      0x00\n        /* \"#utility.yul\":5716:5731   */\n      revert\n        /* \"#utility.yul\":5742:5877   */\n    tag_105:\n        /* \"#utility.yul\":5781:5784   */\n      0x00\n        /* \"#utility.yul\":5802:5819   */\n      0x01\n      dup3\n      add\n        /* \"#utility.yul\":5799:5842   */\n      tag_332\n      jumpi\n        /* \"#utility.yul\":5822:5840   */\n      tag_332\n      tag_288\n      jump\t// in\n    tag_332:\n      pop\n        /* \"#utility.yul\":5869:5870   */\n      0x01\n        /* \"#utility.yul\":5858:5871   */\n      add\n      swap1\n        /* \"#utility.yul\":5742:5877   */\n      jump\t// out\n        /* \"#utility.yul\":5882:6325   */\n    tag_117:\n        /* \"#utility.yul\":6071:6073   */\n      0x20\n        /* \"#utility.yul\":6053:6074   */\n      dup1\n      dup3\n      mstore\n        /* \"#utility.yul\":6090:6108   */\n      dup2\n      add\n        /* \"#utility.yul\":6083:6117   */\n      dup3\n      swap1\n      mstore\n      0x00\n      sub(shl(0xfb, 0x01), 0x01)\n        /* \"#utility.yul\":6129:6160   */\n      dup4\n      gt\n        /* \"#utility.yul\":6126:6177   */\n      iszero\n      tag_334\n      jumpi\n        /* \"#utility.yul\":6173:6174   */\n      0x00\n        /* \"#utility.yul\":6170:6171   */\n      dup1\n        /* \"#utility.yul\":6163:6175   */\n      revert\n        /* \"#utility.yul\":6126:6177   */\n    tag_334:\n        /* \"#utility.yul\":6207:6213   */\n      dup3\n        /* \"#utility.yul\":6204:6205   */\n      0x05\n        /* \"#utility.yul\":6200:6214   */\n      shl\n        /* \"#utility.yul\":6264:6270   */\n      dup1\n        /* \"#utility.yul\":6256:6262   */\n      dup6\n        /* \"#utility.yul\":6251:6253   */\n      0x40\n        /* \"#utility.yul\":6240:6249   */\n      dup6\n        /* \"#utility.yul\":6236:6254   */\n      add\n        /* \"#utility.yul\":6223:6271   */\n      calldatacopy\n        /* \"#utility.yul\":6292:6314   */\n      swap2\n      swap1\n      swap2\n      add\n        /* \"#utility.yul\":6316:6318   */\n      0x40\n        /* \"#utility.yul\":6288:6319   */\n      add\n      swap4\n        /* \"#utility.yul\":5882:6325   */\n      swap3\n      pop\n      pop\n      pop\n      jump\t// out\n\n    auxdata: 0xa2646970667358221220e81c67a481876c806b192733282dbe66f9dbb531f63b6467616f210df0fddc3364736f6c63430008110033\n}\n",
				"bytecode": {
					"linkReferences": {},
					"object": "608060405234801561001057600080fd5b506113c7806100206000396000f3fe608060405234801561001057600080fd5b50600436106100a45760003560e01c806304bc7e84146100a957806334a89987146100be57806352c111d1146100e6578063715018a6146101065780638da5cb5b1461010e5780639f63ea9814610123578063b93d28eb14610136578063c28fb27814610149578063d9dd24c514610169578063e1c7392a14610171578063ef2ed1a414610179578063f2fde38b1461018c575b600080fd5b6100bc6100b73660046110b7565b61019f565b005b6100d16100cc36600461113e565b610513565b60405190151581526020015b60405180910390f35b6100f96100f436600461116a565b6105d3565b6040516100dd9190611183565b6100bc61063f565b610116610653565b6040516100dd91906111d0565b6100bc6101313660046110b7565b61066e565b6100bc6101443660046111e4565b6108f2565b61015c6101573660046111e4565b610c63565b6040516100dd9190611208565b6100f9610d34565b6100bc610d96565b6100d16101873660046111e4565b610e8e565b6100bc61019a3660046111e4565b610ebc565b6101a7610efa565b6001600160a01b0383166101d65760405162461bcd60e51b81526004016101cd90611240565b60405180910390fd5b6001600160a01b038316600090815260016020526040812054900361020d5760405162461bcd60e51b81526004016101cd90611277565b600f81111561022e5760405162461bcd60e51b81526004016101cd906112a5565b8061027a5760405162461bcd60e51b815260206004820152601c60248201527b636c61696d20746f706963732063616e6e6f7420626520656d70747960201b60448201526064016101cd565b60005b6001600160a01b03841660009081526001602052604090205481101561042e576001600160a01b03841660009081526001602052604081208054839081106102c7576102c76112ea565b600091825260208083209091015480835260029091526040822054909250905b8181101561041857600083815260026020526040902080546001600160a01b03891691908390811061031b5761031b6112ea565b6000918252602090912001546001600160a01b03160361040657600083815260026020526040902061034e600184611316565b8154811061035e5761035e6112ea565b60009182526020808320909101548583526002909152604090912080546001600160a01b039092169183908110610397576103976112ea565b600091825260208083209190910180546001600160a01b0319166001600160a01b0394909416939093179092558481526002909152604090208054806103df576103df611329565b600082815260209020810160001990810180546001600160a01b0319169055019055610418565b806104108161133f565b9150506102e7565b50505080806104269061133f565b91505061027d565b506001600160a01b0383166000908152600160205260409020610452908383611028565b5060005b818110156104ca5760026000848484818110610474576104746112ea565b6020908102929092013583525081810192909252604001600090812080546001810182559082529190200180546001600160a01b0319166001600160a01b038616179055806104c28161133f565b915050610456565b50826001600160a01b03167fec753cfc52044f61676f18a11e500093a9f2b1cd5e4942bc476f2b0438159bcf8383604051610506929190611358565b60405180910390a2505050565b6001600160a01b038216600090815260016020908152604080832080548251818502810185019093528083529284929190849083018282801561057557602002820191906000526020600020905b815481526020019060010190808311610561575b5050505050905060005b828110156105c5578482828151811061059a5761059a6112ea565b6020026020010151036105b357600193505050506105cd565b806105bd8161133f565b91505061057f565b506000925050505b92915050565b60008181526002602090815260409182902080548351818402810184019094528084526060939283018282801561063357602002820191906000526020600020905b81546001600160a01b03168152600190910190602001808311610615575b50505050509050919050565b610647610efa565b6106516000610f2c565b565b60008061065e610f88565b546001600160a01b031692915050565b610676610efa565b6001600160a01b03831661069c5760405162461bcd60e51b81526004016101cd90611240565b6001600160a01b038316600090815260016020526040902054156107025760405162461bcd60e51b815260206004820152601d60248201527f747275737465642049737375657220616c72656164792065786973747300000060448201526064016101cd565b8061075b5760405162461bcd60e51b8152602060048201526024808201527f7472757374656420636c61696d20746f706963732063616e6e6f7420626520656044820152636d70747960e01b60648201526084016101cd565b600f81111561077c5760405162461bcd60e51b81526004016101cd906112a5565b6000546032116107df5760405162461bcd60e51b815260206004820152602860248201527f63616e6e6f742068617665206d6f7265207468616e2035302074727573746564604482015267206973737565727360c01b60648201526084016101cd565b60008054600180820183557f290decd9548b62a8d60345a988386fc84ba6bc95484008f6362f93160ef3e56390910180546001600160a01b0319166001600160a01b03871690811790915582526020526040902061083e908383611028565b5060005b818110156108b65760026000848484818110610860576108606112ea565b6020908102929092013583525081810192909252604001600090812080546001810182559082529190200180546001600160a01b0319166001600160a01b038616179055806108ae8161133f565b915050610842565b50826001600160a01b03167ffedc33fd34859594822c0ff6f3f4f9fc279cc6d5cae53068f706a088e45008728383604051610506929190611358565b6108fa610efa565b6001600160a01b0381166109205760405162461bcd60e51b81526004016101cd90611240565b6001600160a01b03811660009081526001602052604081205490036109575760405162461bcd60e51b81526004016101cd90611277565b60008054905b81811015610a5457826001600160a01b031660008281548110610982576109826112ea565b6000918252602090912001546001600160a01b031603610a425760006109a9600184611316565b815481106109b9576109b96112ea565b600091825260208220015481546001600160a01b039091169190839081106109e3576109e36112ea565b6000918252602082200180546001600160a01b0319166001600160a01b039390931692909217909155805480610a1b57610a1b611329565b600082815260209020810160001990810180546001600160a01b0319169055019055610a54565b80610a4c8161133f565b91505061095d565b5060005b6001600160a01b038316600090815260016020526040902054811015610c09576001600160a01b0383166000908152600160205260408120805483908110610aa257610aa26112ea565b600091825260208083209091015480835260029091526040822054909250905b81811015610bf357600083815260026020526040902080546001600160a01b038816919083908110610af657610af66112ea565b6000918252602090912001546001600160a01b031603610be1576000838152600260205260409020610b29600184611316565b81548110610b3957610b396112ea565b60009182526020808320909101548583526002909152604090912080546001600160a01b039092169183908110610b7257610b726112ea565b600091825260208083209190910180546001600160a01b0319166001600160a01b039490941693909317909255848152600290915260409020805480610bba57610bba611329565b600082815260209020810160001990810180546001600160a01b0319169055019055610bf3565b80610beb8161133f565b915050610ac2565b5050508080610c019061133f565b915050610a58565b506001600160a01b0382166000908152600160205260408120610c2b91611073565b6040516001600160a01b038316907f2214ded40113cc3fb63fc206cafee88270b0a903dac7245d54efdde30ebb032190600090a25050565b6001600160a01b03811660009081526001602052604081205460609103610ccb5760405162461bcd60e51b815260206004820152601c60248201527b1d1c9d5cdd195908125cdcdd595c88191bd95cdb89dd08195e1a5cdd60221b60448201526064016101cd565b6001600160a01b0382166000908152600160209081526040918290208054835181840281018401909452808452909183018282801561063357602002820191906000526020600020905b815481526020019060010190808311610d155750505050509050919050565b60606000805480602002602001604051908101604052809291908181526020018280548015610d8c57602002820191906000526020600020905b81546001600160a01b03168152600190910190602001808311610d6e575b5050505050905090565b6000610da0610fac565b805490915060ff600160401b82041615906001600160401b0316600081158015610dc75750825b90506000826001600160401b03166001148015610de35750303b155b905081158015610df1575080155b15610e0f5760405163f92ee8a960e01b815260040160405180910390fd5b84546001600160401b03191660011785558315610e3857845460ff60401b1916600160401b1785555b610e4133610fd0565b8315610e8757845460ff60401b19168555604051600181527fc7f505b2f371ae2175ee4913f4499e1f2633a7b5936321eed1cdaeb6115181d29060200160405180910390a15b5050505050565b6001600160a01b03811660009081526001602052604081205415610eb457506001919050565b506000919050565b610ec4610efa565b6001600160a01b038116610eee576000604051631e4fbdf760e01b81526004016101cd91906111d0565b610ef781610f2c565b50565b33610f03610653565b6001600160a01b031614610651573360405163118cdaa760e01b81526004016101cd91906111d0565b6000610f36610f88565b80546001600160a01b038481166001600160a01b031983168117845560405193945091169182907f8be0079c531659141344cd1fd0a4f28419497f9722a3daafe3b4186f6b6457e090600090a3505050565b7f9016d09d72d40fdae2fd8ceac6b6234c7706214fd39c1cd1e609a0528c19930090565b7ff0c57e16840df040f15088dc2f81fe391c3923bec73e23a9662efc9c229c6a0090565b610fd8610fe1565b610ef781611006565b610fe961100e565b61065157604051631afcd79f60e31b815260040160405180910390fd5b610ec4610fe1565b6000611018610fac565b54600160401b900460ff16919050565b828054828255906000526020600020908101928215611063579160200282015b82811115611063578235825591602001919060010190611048565b5061106f92915061108d565b5090565b5080546000825590600052602060002090810190610ef791905b5b8082111561106f576000815560010161108e565b6001600160a01b0381168114610ef757600080fd5b6000806000604084860312156110cc57600080fd5b83356110d7816110a2565b925060208401356001600160401b03808211156110f357600080fd5b818601915086601f83011261110757600080fd5b81358181111561111657600080fd5b8760208260051b850101111561112b57600080fd5b6020830194508093505050509250925092565b6000806040838503121561115157600080fd5b823561115c816110a2565b946020939093013593505050565b60006020828403121561117c57600080fd5b5035919050565b6020808252825182820181905260009190848201906040850190845b818110156111c45783516001600160a01b03168352928401929184019160010161119f565b50909695505050505050565b6001600160a01b0391909116815260200190565b6000602082840312156111f657600080fd5b8135611201816110a2565b9392505050565b6020808252825182820181905260009190848201906040850190845b818110156111c457835183529284019291840191600101611224565b6020808252601f908201527f696e76616c696420617267756d656e74202d207a65726f206164647265737300604082015260600190565b6020808252601490820152732727aa1030903a393ab9ba32b21034b9b9bab2b960611b604082015260600190565b60208082526025908201527f63616e6e6f742068617665206d6f7265207468616e20313520636c61696d20746040820152646f7069637360d81b606082015260800190565b634e487b7160e01b600052603260045260246000fd5b634e487b7160e01b600052601160045260246000fd5b818103818111156105cd576105cd611300565b634e487b7160e01b600052603160045260246000fd5b60006001820161135157611351611300565b5060010190565b6020808252810182905260006001600160fb1b0383111561137857600080fd5b8260051b8085604085013791909101604001939250505056fea2646970667358221220e81c67a481876c806b192733282dbe66f9dbb531f63b6467616f210df0fddc3364736f6c63430008110033",
					"opcodes": "PUSH1 0x80 PUSH1 0x40 MSTORE CALLVALUE DUP1 ISZERO PUSH2 0x10 JUMPI PUSH1 0x0 DUP1 REVERT JUMPDEST POP PUSH2 0x13C7 DUP1 PUSH2 0x20 PUSH1 0x0 CODECOPY PUSH1 0x0 RETURN INVALID PUSH1 0x80 PUSH1 0x40 MSTORE CALLVALUE DUP1 ISZERO PUSH2 0x10 JUMPI PUSH1 0x0 DUP1 REVERT JUMPDEST POP PUSH1 0x4 CALLDATASIZE LT PUSH2 0xA4 JUMPI PUSH1 0x0 CALLDATALOAD PUSH1 0xE0 SHR DUP1 PUSH4 0x4BC7E84 EQ PUSH2 0xA9 JUMPI DUP1 PUSH4 0x34A89987 EQ PUSH2 0xBE JUMPI DUP1 PUSH4 0x52C111D1 EQ PUSH2 0xE6 JUMPI DUP1 PUSH4 0x715018A6 EQ PUSH2 0x106 JUMPI DUP1 PUSH4 0x8DA5CB5B EQ PUSH2 0x10E JUMPI DUP1 PUSH4 0x9F63EA98 EQ PUSH2 0x123 JUMPI DUP1 PUSH4 0xB93D28EB EQ PUSH2 0x136 JUMPI DUP1 PUSH4 0xC28FB278 EQ PUSH2 0x149 JUMPI DUP1 PUSH4 0xD9DD24C5 EQ PUSH2 0x169 JUMPI DUP1 PUSH4 0xE1C7392A EQ PUSH2 0x171 JUMPI DUP1 PUSH4 0xEF2ED1A4 EQ PUSH2 0x179 JUMPI DUP1 PUSH4 0xF2FDE38B EQ PUSH2 0x18C JUMPI JUMPDEST PUSH1 0x0 DUP1 REVERT JUMPDEST PUSH2 0xBC PUSH2 0xB7 CALLDATASIZE PUSH1 0x4 PUSH2 0x10B7 JUMP JUMPDEST PUSH2 0x19F JUMP JUMPDEST STOP JUMPDEST PUSH2 0xD1 PUSH2 0xCC CALLDATASIZE PUSH1 0x4 PUSH2 0x113E JUMP JUMPDEST PUSH2 0x513 JUMP JUMPDEST PUSH1 0x40 MLOAD SWAP1 ISZERO ISZERO DUP2 MSTORE PUSH1 0x20 ADD JUMPDEST PUSH1 0x40 MLOAD DUP1 SWAP2 SUB SWAP1 RETURN JUMPDEST PUSH2 0xF9 PUSH2 0xF4 CALLDATASIZE PUSH1 0x4 PUSH2 0x116A JUMP JUMPDEST PUSH2 0x5D3 JUMP JUMPDEST PUSH1 0x40 MLOAD PUSH2 0xDD SWAP2 SWAP1 PUSH2 0x1183 JUMP JUMPDEST PUSH2 0xBC PUSH2 0x63F JUMP JUMPDEST PUSH2 0x116 PUSH2 0x653 JUMP JUMPDEST PUSH1 0x40 MLOAD PUSH2 0xDD SWAP2 SWAP1 PUSH2 0x11D0 JUMP JUMPDEST PUSH2 0xBC PUSH2 0x131 CALLDATASIZE PUSH1 0x4 PUSH2 0x10B7 JUMP JUMPDEST PUSH2 0x66E JUMP JUMPDEST PUSH2 0xBC PUSH2 0x144 CALLDATASIZE PUSH1 0x4 PUSH2 0x11E4 JUMP JUMPDEST PUSH2 0x8F2 JUMP JUMPDEST PUSH2 0x15C PUSH2 0x157 CALLDATASIZE PUSH1 0x4 PUSH2 0x11E4 JUMP JUMPDEST PUSH2 0xC63 JUMP JUMPDEST PUSH1 0x40 MLOAD PUSH2 0xDD SWAP2 SWAP1 PUSH2 0x1208 JUMP JUMPDEST PUSH2 0xF9 PUSH2 0xD34 JUMP JUMPDEST PUSH2 0xBC PUSH2 0xD96 JUMP JUMPDEST PUSH2 0xD1 PUSH2 0x187 CALLDATASIZE PUSH1 0x4 PUSH2 0x11E4 JUMP JUMPDEST PUSH2 0xE8E JUMP JUMPDEST PUSH2 0xBC PUSH2 0x19A CALLDATASIZE PUSH1 0x4 PUSH2 0x11E4 JUMP JUMPDEST PUSH2 0xEBC JUMP JUMPDEST PUSH2 0x1A7 PUSH2 0xEFA JUMP JUMPDEST PUSH1 0x1 PUSH1 0x1 PUSH1 0xA0 SHL SUB DUP4 AND PUSH2 0x1D6 JUMPI PUSH1 0x40 MLOAD PUSH3 0x461BCD PUSH1 0xE5 SHL DUP2 MSTORE PUSH1 0x4 ADD PUSH2 0x1CD SWAP1 PUSH2 0x1240 JUMP JUMPDEST PUSH1 0x40 MLOAD DUP1 SWAP2 SUB SWAP1 REVERT JUMPDEST PUSH1 0x1 PUSH1 0x1 PUSH1 0xA0 SHL SUB DUP4 AND PUSH1 0x0 SWAP1 DUP2 MSTORE PUSH1 0x1 PUSH1 0x20 MSTORE PUSH1 0x40 DUP2 KECCAK256 SLOAD SWAP1 SUB PUSH2 0x20D JUMPI PUSH1 0x40 MLOAD PUSH3 0x461BCD PUSH1 0xE5 SHL DUP2 MSTORE PUSH1 0x4 ADD PUSH2 0x1CD SWAP1 PUSH2 0x1277 JUMP JUMPDEST PUSH1 0xF DUP2 GT ISZERO PUSH2 0x22E JUMPI PUSH1 0x40 MLOAD PUSH3 0x461BCD PUSH1 0xE5 SHL DUP2 MSTORE PUSH1 0x4 ADD PUSH2 0x1CD SWAP1 PUSH2 0x12A5 JUMP JUMPDEST DUP1 PUSH2 0x27A JUMPI PUSH1 0x40 MLOAD PUSH3 0x461BCD PUSH1 0xE5 SHL DUP2 MSTORE PUSH1 0x20 PUSH1 0x4 DUP3 ADD MSTORE PUSH1 0x1C PUSH1 0x24 DUP3 ADD MSTORE PUSH28 0x636C61696D20746F706963732063616E6E6F7420626520656D707479 PUSH1 0x20 SHL PUSH1 0x44 DUP3 ADD MSTORE PUSH1 0x64 ADD PUSH2 0x1CD JUMP JUMPDEST PUSH1 0x0 JUMPDEST PUSH1 0x1 PUSH1 0x1 PUSH1 0xA0 SHL SUB DUP5 AND PUSH1 0x0 SWAP1 DUP2 MSTORE PUSH1 0x1 PUSH1 0x20 MSTORE PUSH1 0x40 SWAP1 KECCAK256 SLOAD DUP2 LT ISZERO PUSH2 0x42E JUMPI PUSH1 0x1 PUSH1 0x1 PUSH1 0xA0 SHL SUB DUP5 AND PUSH1 0x0 SWAP1 DUP2 MSTORE PUSH1 0x1 PUSH1 0x20 MSTORE PUSH1 0x40 DUP2 KECCAK256 DUP1 SLOAD DUP4 SWAP1 DUP2 LT PUSH2 0x2C7 JUMPI PUSH2 0x2C7 PUSH2 0x12EA JUMP JUMPDEST PUSH1 0x0 SWAP2 DUP3 MSTORE PUSH1 0x20 DUP1 DUP4 KECCAK256 SWAP1 SWAP2 ADD SLOAD DUP1 DUP4 MSTORE PUSH1 0x2 SWAP1 SWAP2 MSTORE PUSH1 0x40 DUP3 KECCAK256 SLOAD SWAP1 SWAP3 POP SWAP1 JUMPDEST DUP2 DUP2 LT ISZERO PUSH2 0x418 JUMPI PUSH1 0x0 DUP4 DUP2 MSTORE PUSH1 0x2 PUSH1 0x20 MSTORE PUSH1 0x40 SWAP1 KECCAK256 DUP1 SLOAD PUSH1 0x1 PUSH1 0x1 PUSH1 0xA0 SHL SUB DUP10 AND SWAP2 SWAP1 DUP4 SWAP1 DUP2 LT PUSH2 0x31B JUMPI PUSH2 0x31B PUSH2 0x12EA JUMP JUMPDEST PUSH1 0x0 SWAP2 DUP3 MSTORE PUSH1 0x20 SWAP1 SWAP2 KECCAK256 ADD SLOAD PUSH1 0x1 PUSH1 0x1 PUSH1 0xA0 SHL SUB AND SUB PUSH2 0x406 JUMPI PUSH1 0x0 DUP4 DUP2 MSTORE PUSH1 0x2 PUSH1 0x20 MSTORE PUSH1 0x40 SWAP1 KECCAK256 PUSH2 0x34E PUSH1 0x1 DUP5 PUSH2 0x1316 JUMP JUMPDEST DUP2 SLOAD DUP2 LT PUSH2 0x35E JUMPI PUSH2 0x35E PUSH2 0x12EA JUMP JUMPDEST PUSH1 0x0 SWAP2 DUP3 MSTORE PUSH1 0x20 DUP1 DUP4 KECCAK256 SWAP1 SWAP2 ADD SLOAD DUP6 DUP4 MSTORE PUSH1 0x2 SWAP1 SWAP2 MSTORE PUSH1 0x40 SWAP1 SWAP2 KECCAK256 DUP1 SLOAD PUSH1 0x1 PUSH1 0x1 PUSH1 0xA0 SHL SUB SWAP1 SWAP3 AND SWAP2 DUP4 SWAP1 DUP2 LT PUSH2 0x397 JUMPI PUSH2 0x397 PUSH2 0x12EA JUMP JUMPDEST PUSH1 0x0 SWAP2 DUP3 MSTORE PUSH1 0x20 DUP1 DUP4 KECCAK256 SWAP2 SWAP1 SWAP2 ADD DUP1 SLOAD PUSH1 0x1 PUSH1 0x1 PUSH1 0xA0 SHL SUB NOT AND PUSH1 0x1 PUSH1 0x1 PUSH1 0xA0 SHL SUB SWAP5 SWAP1 SWAP5 AND SWAP4 SWAP1 SWAP4 OR SWAP1 SWAP3 SSTORE DUP5 DUP2 MSTORE PUSH1 0x2 SWAP1 SWAP2 MSTORE PUSH1 0x40 SWAP1 KECCAK256 DUP1 SLOAD DUP1 PUSH2 0x3DF JUMPI PUSH2 0x3DF PUSH2 0x1329 JUMP JUMPDEST PUSH1 0x0 DUP3 DUP2 MSTORE PUSH1 0x20 SWAP1 KECCAK256 DUP2 ADD PUSH1 0x0 NOT SWAP1 DUP2 ADD DUP1 SLOAD PUSH1 0x1 PUSH1 0x1 PUSH1 0xA0 SHL SUB NOT AND SWAP1 SSTORE ADD SWAP1 SSTORE PUSH2 0x418 JUMP JUMPDEST DUP1 PUSH2 0x410 DUP2 PUSH2 0x133F JUMP JUMPDEST SWAP2 POP POP PUSH2 0x2E7 JUMP JUMPDEST POP POP POP DUP1 DUP1 PUSH2 0x426 SWAP1 PUSH2 0x133F JUMP JUMPDEST SWAP2 POP POP PUSH2 0x27D JUMP JUMPDEST POP PUSH1 0x1 PUSH1 0x1 PUSH1 0xA0 SHL SUB DUP4 AND PUSH1 0x0 SWAP1 DUP2 MSTORE PUSH1 0x1 PUSH1 0x20 MSTORE PUSH1 0x40 SWAP1 KECCAK256 PUSH2 0x452 SWAP1 DUP4 DUP4 PUSH2 0x1028 JUMP JUMPDEST POP PUSH1 0x0 JUMPDEST DUP2 DUP2 LT ISZERO PUSH2 0x4CA JUMPI PUSH1 0x2 PUSH1 0x0 DUP5 DUP5 DUP5 DUP2 DUP2 LT PUSH2 0x474 JUMPI PUSH2 0x474 PUSH2 0x12EA JUMP JUMPDEST PUSH1 0x20 SWAP1 DUP2 MUL SWAP3 SWAP1 SWAP3 ADD CALLDATALOAD DUP4 MSTORE POP DUP2 DUP2 ADD SWAP3 SWAP1 SWAP3 MSTORE PUSH1 0x40 ADD PUSH1 0x0 SWAP1 DUP2 KECCAK256 DUP1 SLOAD PUSH1 0x1 DUP2 ADD DUP3 SSTORE SWAP1 DUP3 MSTORE SWAP2 SWAP1 KECCAK256 ADD DUP1 SLOAD PUSH1 0x1 PUSH1 0x1 PUSH1 0xA0 SHL SUB NOT AND PUSH1 0x1 PUSH1 0x1 PUSH1 0xA0 SHL SUB DUP7 AND OR SWAP1 SSTORE DUP1 PUSH2 0x4C2 DUP2 PUSH2 0x133F JUMP JUMPDEST SWAP2 POP POP PUSH2 0x456 JUMP JUMPDEST POP DUP3 PUSH1 0x1 PUSH1 0x1 PUSH1 0xA0 SHL SUB AND PUSH32 0xEC753CFC52044F61676F18A11E500093A9F2B1CD5E4942BC476F2B0438159BCF DUP4 DUP4 PUSH1 0x40 MLOAD PUSH2 0x506 SWAP3 SWAP2 SWAP1 PUSH2 0x1358 JUMP JUMPDEST PUSH1 0x40 MLOAD DUP1 SWAP2 SUB SWAP1 LOG2 POP POP POP JUMP JUMPDEST PUSH1 0x1 PUSH1 0x1 PUSH1 0xA0 SHL SUB DUP3 AND PUSH1 0x0 SWAP1 DUP2 MSTORE PUSH1 0x1 PUSH1 0x20 SWAP1 DUP2 MSTORE PUSH1 0x40 DUP1 DUP4 KECCAK256 DUP1 SLOAD DUP3 MLOAD DUP2 DUP6 MUL DUP2 ADD DUP6 ADD SWAP1 SWAP4 MSTORE DUP1 DUP4 MSTORE SWAP3 DUP5 SWAP3 SWAP2 SWAP1 DUP5 SWAP1 DUP4 ADD DUP3 DUP3 DUP1 ISZERO PUSH2 0x575 JUMPI PUSH1 0x20 MUL DUP3 ADD SWAP2 SWAP1 PUSH1 0x0 MSTORE PUSH1 0x20 PUSH1 0x0 KECCAK256 SWAP1 JUMPDEST DUP2 SLOAD DUP2 MSTORE PUSH1 0x20 ADD SWAP1 PUSH1 0x1 ADD SWAP1 DUP1 DUP4 GT PUSH2 0x561 JUMPI JUMPDEST POP POP POP POP POP SWAP1 POP PUSH1 0x0 JUMPDEST DUP3 DUP2 LT ISZERO PUSH2 0x5C5 JUMPI DUP5 DUP3 DUP3 DUP2 MLOAD DUP2 LT PUSH2 0x59A JUMPI PUSH2 0x59A PUSH2 0x12EA JUMP JUMPDEST PUSH1 0x20 MUL PUSH1 0x20 ADD ADD MLOAD SUB PUSH2 0x5B3 JUMPI PUSH1 0x1 SWAP4 POP POP POP POP PUSH2 0x5CD JUMP JUMPDEST DUP1 PUSH2 0x5BD DUP2 PUSH2 0x133F JUMP JUMPDEST SWAP2 POP POP PUSH2 0x57F JUMP JUMPDEST POP PUSH1 0x0 SWAP3 POP POP POP JUMPDEST SWAP3 SWAP2 POP POP JUMP JUMPDEST PUSH1 0x0 DUP2 DUP2 MSTORE PUSH1 0x2 PUSH1 0x20 SWAP1 DUP2 MSTORE PUSH1 0x40 SWAP2 DUP3 SWAP1 KECCAK256 DUP1 SLOAD DUP4 MLOAD DUP2 DUP5 MUL DUP2 ADD DUP5 ADD SWAP1 SWAP5 MSTORE DUP1 DUP5 MSTORE PUSH1 0x60 SWAP4 SWAP3 DUP4 ADD DUP3 DUP3 DUP1 ISZERO PUSH2 0x633 JUMPI PUSH1 0x20 MUL DUP3 ADD SWAP2 SWAP1 PUSH1 0x0 MSTORE PUSH1 0x20 PUSH1 0x0 KECCAK256 SWAP1 JUMPDEST DUP2 SLOAD PUSH1 0x1 PUSH1 0x1 PUSH1 0xA0 SHL SUB AND DUP2 MSTORE PUSH1 0x1 SWAP1 SWAP2 ADD SWAP1 PUSH1 0x20 ADD DUP1 DUP4 GT PUSH2 0x615 JUMPI JUMPDEST POP POP POP POP POP SWAP1 POP SWAP2 SWAP1 POP JUMP JUMPDEST PUSH2 0x647 PUSH2 0xEFA JUMP JUMPDEST PUSH2 0x651 PUSH1 0x0 PUSH2 0xF2C JUMP JUMPDEST JUMP JUMPDEST PUSH1 0x0 DUP1 PUSH2 0x65E PUSH2 0xF88 JUMP JUMPDEST SLOAD PUSH1 0x1 PUSH1 0x1 PUSH1 0xA0 SHL SUB AND SWAP3 SWAP2 POP POP JUMP JUMPDEST PUSH2 0x676 PUSH2 0xEFA JUMP JUMPDEST PUSH1 0x1 PUSH1 0x1 PUSH1 0xA0 SHL SUB DUP4 AND PUSH2 0x69C JUMPI PUSH1 0x40 MLOAD PUSH3 0x461BCD PUSH1 0xE5 SHL DUP2 MSTORE PUSH1 0x4 ADD PUSH2 0x1CD SWAP1 PUSH2 0x1240 JUMP JUMPDEST PUSH1 0x1 PUSH1 0x1 PUSH1 0xA0 SHL SUB DUP4 AND PUSH1 0x0 SWAP1 DUP2 MSTORE PUSH1 0x1 PUSH1 0x20 MSTORE PUSH1 0x40 SWAP1 KECCAK256 SLOAD ISZERO PUSH2 0x702 JUMPI PUSH1 0x40 MLOAD PUSH3 0x461BCD PUSH1 0xE5 SHL DUP2 MSTORE PUSH1 0x20 PUSH1 0x4 DUP3 ADD MSTORE PUSH1 0x1D PUSH1 0x24 DUP3 ADD MSTORE PUSH32 0x747275737465642049737375657220616C726561647920657869737473000000 PUSH1 0x44 DUP3 ADD MSTORE PUSH1 0x64 ADD PUSH2 0x1CD JUMP JUMPDEST DUP1 PUSH2 0x75B JUMPI PUSH1 0x40 MLOAD PUSH3 0x461BCD PUSH1 0xE5 SHL DUP2 MSTORE PUSH1 0x20 PUSH1 0x4 DUP3 ADD MSTORE PUSH1 0x24 DUP1 DUP3 ADD MSTORE PUSH32 0x7472757374656420636C61696D20746F706963732063616E6E6F742062652065 PUSH1 0x44 DUP3 ADD MSTORE PUSH4 0x6D707479 PUSH1 0xE0 SHL PUSH1 0x64 DUP3 ADD MSTORE PUSH1 0x84 ADD PUSH2 0x1CD JUMP JUMPDEST PUSH1 0xF DUP2 GT ISZERO PUSH2 0x77C JUMPI PUSH1 0x40 MLOAD PUSH3 0x461BCD PUSH1 0xE5 SHL DUP2 MSTORE PUSH1 0x4 ADD PUSH2 0x1CD SWAP1 PUSH2 0x12A5 JUMP JUMPDEST PUSH1 0x0 SLOAD PUSH1 0x32 GT PUSH2 0x7DF JUMPI PUSH1 0x40 MLOAD PUSH3 0x461BCD PUSH1 0xE5 SHL DUP2 MSTORE PUSH1 0x20 PUSH1 0x4 DUP3 ADD MSTORE PUSH1 0x28 PUSH1 0x24 DUP3 ADD MSTORE PUSH32 0x63616E6E6F742068617665206D6F7265207468616E2035302074727573746564 PUSH1 0x44 DUP3 ADD MSTORE PUSH8 0x2069737375657273 PUSH1 0xC0 SHL PUSH1 0x64 DUP3 ADD MSTORE PUSH1 0x84 ADD PUSH2 0x1CD JUMP JUMPDEST PUSH1 0x0 DUP1 SLOAD PUSH1 0x1 DUP1 DUP3 ADD DUP4 SSTORE PUSH32 0x290DECD9548B62A8D60345A988386FC84BA6BC95484008F6362F93160EF3E563 SWAP1 SWAP2 ADD DUP1 SLOAD PUSH1 0x1 PUSH1 0x1 PUSH1 0xA0 SHL SUB NOT AND PUSH1 0x1 PUSH1 0x1 PUSH1 0xA0 SHL SUB DUP8 AND SWAP1 DUP2 OR SWAP1 SWAP2 SSTORE DUP3 MSTORE PUSH1 0x20 MSTORE PUSH1 0x40 SWAP1 KECCAK256 PUSH2 0x83E SWAP1 DUP4 DUP4 PUSH2 0x1028 JUMP JUMPDEST POP PUSH1 0x0 JUMPDEST DUP2 DUP2 LT ISZERO PUSH2 0x8B6 JUMPI PUSH1 0x2 PUSH1 0x0 DUP5 DUP5 DUP5 DUP2 DUP2 LT PUSH2 0x860 JUMPI PUSH2 0x860 PUSH2 0x12EA JUMP JUMPDEST PUSH1 0x20 SWAP1 DUP2 MUL SWAP3 SWAP1 SWAP3 ADD CALLDATALOAD DUP4 MSTORE POP DUP2 DUP2 ADD SWAP3 SWAP1 SWAP3 MSTORE PUSH1 0x40 ADD PUSH1 0x0 SWAP1 DUP2 KECCAK256 DUP1 SLOAD PUSH1 0x1 DUP2 ADD DUP3 SSTORE SWAP1 DUP3 MSTORE SWAP2 SWAP1 KECCAK256 ADD DUP1 SLOAD PUSH1 0x1 PUSH1 0x1 PUSH1 0xA0 SHL SUB NOT AND PUSH1 0x1 PUSH1 0x1 PUSH1 0xA0 SHL SUB DUP7 AND OR SWAP1 SSTORE DUP1 PUSH2 0x8AE DUP2 PUSH2 0x133F JUMP JUMPDEST SWAP2 POP POP PUSH2 0x842 JUMP JUMPDEST POP DUP3 PUSH1 0x1 PUSH1 0x1 PUSH1 0xA0 SHL SUB AND PUSH32 0xFEDC33FD34859594822C0FF6F3F4F9FC279CC6D5CAE53068F706A088E4500872 DUP4 DUP4 PUSH1 0x40 MLOAD PUSH2 0x506 SWAP3 SWAP2 SWAP1 PUSH2 0x1358 JUMP JUMPDEST PUSH2 0x8FA PUSH2 0xEFA JUMP JUMPDEST PUSH1 0x1 PUSH1 0x1 PUSH1 0xA0 SHL SUB DUP2 AND PUSH2 0x920 JUMPI PUSH1 0x40 MLOAD PUSH3 0x461BCD PUSH1 0xE5 SHL DUP2 MSTORE PUSH1 0x4 ADD PUSH2 0x1CD SWAP1 PUSH2 0x1240 JUMP JUMPDEST PUSH1 0x1 PUSH1 0x1 PUSH1 0xA0 SHL SUB DUP2 AND PUSH1 0x0 SWAP1 DUP2 MSTORE PUSH1 0x1 PUSH1 0x20 MSTORE PUSH1 0x40 DUP2 KECCAK256 SLOAD SWAP1 SUB PUSH2 0x957 JUMPI PUSH1 0x40 MLOAD PUSH3 0x461BCD PUSH1 0xE5 SHL DUP2 MSTORE PUSH1 0x4 ADD PUSH2 0x1CD SWAP1 PUSH2 0x1277 JUMP JUMPDEST PUSH1 0x0 DUP1 SLOAD SWAP1 JUMPDEST DUP2 DUP2 LT ISZERO PUSH2 0xA54 JUMPI DUP3 PUSH1 0x1 PUSH1 0x1 PUSH1 0xA0 SHL SUB AND PUSH1 0x0 DUP3 DUP2 SLOAD DUP2 LT PUSH2 0x982 JUMPI PUSH2 0x982 PUSH2 0x12EA JUMP JUMPDEST PUSH1 0x0 SWAP2 DUP3 MSTORE PUSH1 0x20 SWAP1 SWAP2 KECCAK256 ADD SLOAD PUSH1 0x1 PUSH1 0x1 PUSH1 0xA0 SHL SUB AND SUB PUSH2 0xA42 JUMPI PUSH1 0x0 PUSH2 0x9A9 PUSH1 0x1 DUP5 PUSH2 0x1316 JUMP JUMPDEST DUP2 SLOAD DUP2 LT PUSH2 0x9B9 JUMPI PUSH2 0x9B9 PUSH2 0x12EA JUMP JUMPDEST PUSH1 0x0 SWAP2 DUP3 MSTORE PUSH1 0x20 DUP3 KECCAK256 ADD SLOAD DUP2 SLOAD PUSH1 0x1 PUSH1 0x1 PUSH1 0xA0 SHL SUB SWAP1 SWAP2 AND SWAP2 SWAP1 DUP4 SWAP1 DUP2 LT PUSH2 0x9E3 JUMPI PUSH2 0x9E3 PUSH2 0x12EA JUMP JUMPDEST PUSH1 0x0 SWAP2 DUP3 MSTORE PUSH1 0x20 DUP3 KECCAK256 ADD DUP1 SLOAD PUSH1 0x1 PUSH1 0x1 PUSH1 0xA0 SHL SUB NOT AND PUSH1 0x1 PUSH1 0x1 PUSH1 0xA0 SHL SUB SWAP4 SWAP1 SWAP4 AND SWAP3 SWAP1 SWAP3 OR SWAP1 SWAP2 SSTORE DUP1 SLOAD DUP1 PUSH2 0xA1B JUMPI PUSH2 0xA1B PUSH2 0x1329 JUMP JUMPDEST PUSH1 0x0 DUP3 DUP2 MSTORE PUSH1 0x20 SWAP1 KECCAK256 DUP2 ADD PUSH1 0x0 NOT SWAP1 DUP2 ADD DUP1 SLOAD PUSH1 0x1 PUSH1 0x1 PUSH1 0xA0 SHL SUB NOT AND SWAP1 SSTORE ADD SWAP1 SSTORE PUSH2 0xA54 JUMP JUMPDEST DUP1 PUSH2 0xA4C DUP2 PUSH2 0x133F JUMP JUMPDEST SWAP2 POP POP PUSH2 0x95D JUMP JUMPDEST POP PUSH1 0x0 JUMPDEST PUSH1 0x1 PUSH1 0x1 PUSH1 0xA0 SHL SUB DUP4 AND PUSH1 0x0 SWAP1 DUP2 MSTORE PUSH1 0x1 PUSH1 0x20 MSTORE PUSH1 0x40 SWAP1 KECCAK256 SLOAD DUP2 LT ISZERO PUSH2 0xC09 JUMPI PUSH1 0x1 PUSH1 0x1 PUSH1 0xA0 SHL SUB DUP4 AND PUSH1 0x0 SWAP1 DUP2 MSTORE PUSH1 0x1 PUSH1 0x20 MSTORE PUSH1 0x40 DUP2 KECCAK256 DUP1 SLOAD DUP4 SWAP1 DUP2 LT PUSH2 0xAA2 JUMPI PUSH2 0xAA2 PUSH2 0x12EA JUMP JUMPDEST PUSH1 0x0 SWAP2 DUP3 MSTORE PUSH1 0x20 DUP1 DUP4 KECCAK256 SWAP1 SWAP2 ADD SLOAD DUP1 DUP4 MSTORE PUSH1 0x2 SWAP1 SWAP2 MSTORE PUSH1 0x40 DUP3 KECCAK256 SLOAD SWAP1 SWAP3 POP SWAP1 JUMPDEST DUP2 DUP2 LT ISZERO PUSH2 0xBF3 JUMPI PUSH1 0x0 DUP4 DUP2 MSTORE PUSH1 0x2 PUSH1 0x20 MSTORE PUSH1 0x40 SWAP1 KECCAK256 DUP1 SLOAD PUSH1 0x1 PUSH1 0x1 PUSH1 0xA0 SHL SUB DUP9 AND SWAP2 SWAP1 DUP4 SWAP1 DUP2 LT PUSH2 0xAF6 JUMPI PUSH2 0xAF6 PUSH2 0x12EA JUMP JUMPDEST PUSH1 0x0 SWAP2 DUP3 MSTORE PUSH1 0x20 SWAP1 SWAP2 KECCAK256 ADD SLOAD PUSH1 0x1 PUSH1 0x1 PUSH1 0xA0 SHL SUB AND SUB PUSH2 0xBE1 JUMPI PUSH1 0x0 DUP4 DUP2 MSTORE PUSH1 0x2 PUSH1 0x20 MSTORE PUSH1 0x40 SWAP1 KECCAK256 PUSH2 0xB29 PUSH1 0x1 DUP5 PUSH2 0x1316 JUMP JUMPDEST DUP2 SLOAD DUP2 LT PUSH2 0xB39 JUMPI PUSH2 0xB39 PUSH2 0x12EA JUMP JUMPDEST PUSH1 0x0 SWAP2 DUP3 MSTORE PUSH1 0x20 DUP1 DUP4 KECCAK256 SWAP1 SWAP2 ADD SLOAD DUP6 DUP4 MSTORE PUSH1 0x2 SWAP1 SWAP2 MSTORE PUSH1 0x40 SWAP1 SWAP2 KECCAK256 DUP1 SLOAD PUSH1 0x1 PUSH1 0x1 PUSH1 0xA0 SHL SUB SWAP1 SWAP3 AND SWAP2 DUP4 SWAP1 DUP2 LT PUSH2 0xB72 JUMPI PUSH2 0xB72 PUSH2 0x12EA JUMP JUMPDEST PUSH1 0x0 SWAP2 DUP3 MSTORE PUSH1 0x20 DUP1 DUP4 KECCAK256 SWAP2 SWAP1 SWAP2 ADD DUP1 SLOAD PUSH1 0x1 PUSH1 0x1 PUSH1 0xA0 SHL SUB NOT AND PUSH1 0x1 PUSH1 0x1 PUSH1 0xA0 SHL SUB SWAP5 SWAP1 SWAP5 AND SWAP4 SWAP1 SWAP4 OR SWAP1 SWAP3 SSTORE DUP5 DUP2 MSTORE PUSH1 0x2 SWAP1 SWAP2 MSTORE PUSH1 0x40 SWAP1 KECCAK256 DUP1 SLOAD DUP1 PUSH2 0xBBA JUMPI PUSH2 0xBBA PUSH2 0x1329 JUMP JUMPDEST PUSH1 0x0 DUP3 DUP2 MSTORE PUSH1 0x20 SWAP1 KECCAK256 DUP2 ADD PUSH1 0x0 NOT SWAP1 DUP2 ADD DUP1 SLOAD PUSH1 0x1 PUSH1 0x1 PUSH1 0xA0 SHL SUB NOT AND SWAP1 SSTORE ADD SWAP1 SSTORE PUSH2 0xBF3 JUMP JUMPDEST DUP1 PUSH2 0xBEB DUP2 PUSH2 0x133F JUMP JUMPDEST SWAP2 POP POP PUSH2 0xAC2 JUMP JUMPDEST POP POP POP DUP1 DUP1 PUSH2 0xC01 SWAP1 PUSH2 0x133F JUMP JUMPDEST SWAP2 POP POP PUSH2 0xA58 JUMP JUMPDEST POP PUSH1 0x1 PUSH1 0x1 PUSH1 0xA0 SHL SUB DUP3 AND PUSH1 0x0 SWAP1 DUP2 MSTORE PUSH1 0x1 PUSH1 0x20 MSTORE PUSH1 0x40 DUP2 KECCAK256 PUSH2 0xC2B SWAP2 PUSH2 0x1073 JUMP JUMPDEST PUSH1 0x40 MLOAD PUSH1 0x1 PUSH1 0x1 PUSH1 0xA0 SHL SUB DUP4 AND SWAP1 PUSH32 0x2214DED40113CC3FB63FC206CAFEE88270B0A903DAC7245D54EFDDE30EBB0321 SWAP1 PUSH1 0x0 SWAP1 LOG2 POP POP JUMP JUMPDEST PUSH1 0x1 PUSH1 0x1 PUSH1 0xA0 SHL SUB DUP2 AND PUSH1 0x0 SWAP1 DUP2 MSTORE PUSH1 0x1 PUSH1 0x20 MSTORE PUSH1 0x40 DUP2 KECCAK256 SLOAD PUSH1 0x60 SWAP2 SUB PUSH2 0xCCB JUMPI PUSH1 0x40 MLOAD PUSH3 0x461BCD PUSH1 0xE5 SHL DUP2 MSTORE PUSH1 0x20 PUSH1 0x4 DUP3 ADD MSTORE PUSH1 0x1C PUSH1 0x24 DUP3 ADD MSTORE PUSH28 0x1D1C9D5CDD195908125CDCDD595C88191BD95CDB89DD08195E1A5CDD PUSH1 0x22 SHL PUSH1 0x44 DUP3 ADD MSTORE PUSH1 0x64 ADD PUSH2 0x1CD JUMP JUMPDEST PUSH1 0x1 PUSH1 0x1 PUSH1 0xA0 SHL SUB DUP3 AND PUSH1 0x0 SWAP1 DUP2 MSTORE PUSH1 0x1 PUSH1 0x20 SWAP1 DUP2 MSTORE PUSH1 0x40 SWAP2 DUP3 SWAP1 KECCAK256 DUP1 SLOAD DUP4 MLOAD DUP2 DUP5 MUL DUP2 ADD DUP5 ADD SWAP1 SWAP5 MSTORE DUP1 DUP5 MSTORE SWAP1 SWAP2 DUP4 ADD DUP3 DUP3 DUP1 ISZERO PUSH2 0x633 JUMPI PUSH1 0x20 MUL DUP3 ADD SWAP2 SWAP1 PUSH1 0x0 MSTORE PUSH1 0x20 PUSH1 0x0 KECCAK256 SWAP1 JUMPDEST DUP2 SLOAD DUP2 MSTORE PUSH1 0x20 ADD SWAP1 PUSH1 0x1 ADD SWAP1 DUP1 DUP4 GT PUSH2 0xD15 JUMPI POP POP POP POP POP SWAP1 POP SWAP2 SWAP1 POP JUMP JUMPDEST PUSH1 0x60 PUSH1 0x0 DUP1 SLOAD DUP1 PUSH1 0x20 MUL PUSH1 0x20 ADD PUSH1 0x40 MLOAD SWAP1 DUP2 ADD PUSH1 0x40 MSTORE DUP1 SWAP3 SWAP2 SWAP1 DUP2 DUP2 MSTORE PUSH1 0x20 ADD DUP3 DUP1 SLOAD DUP1 ISZERO PUSH2 0xD8C JUMPI PUSH1 0x20 MUL DUP3 ADD SWAP2 SWAP1 PUSH1 0x0 MSTORE PUSH1 0x20 PUSH1 0x0 KECCAK256 SWAP1 JUMPDEST DUP2 SLOAD PUSH1 0x1 PUSH1 0x1 PUSH1 0xA0 SHL SUB AND DUP2 MSTORE PUSH1 0x1 SWAP1 SWAP2 ADD SWAP1 PUSH1 0x20 ADD DUP1 DUP4 GT PUSH2 0xD6E JUMPI JUMPDEST POP POP POP POP POP SWAP1 POP SWAP1 JUMP JUMPDEST PUSH1 0x0 PUSH2 0xDA0 PUSH2 0xFAC JUMP JUMPDEST DUP1 SLOAD SWAP1 SWAP2 POP PUSH1 0xFF PUSH1 0x1 PUSH1 0x40 SHL DUP3 DIV AND ISZERO SWAP1 PUSH1 0x1 PUSH1 0x1 PUSH1 0x40 SHL SUB AND PUSH1 0x0 DUP2 ISZERO DUP1 ISZERO PUSH2 0xDC7 JUMPI POP DUP3 JUMPDEST SWAP1 POP PUSH1 0x0 DUP3 PUSH1 0x1 PUSH1 0x1 PUSH1 0x40 SHL SUB AND PUSH1 0x1 EQ DUP1 ISZERO PUSH2 0xDE3 JUMPI POP ADDRESS EXTCODESIZE ISZERO JUMPDEST SWAP1 POP DUP2 ISZERO DUP1 ISZERO PUSH2 0xDF1 JUMPI POP DUP1 ISZERO JUMPDEST ISZERO PUSH2 0xE0F JUMPI PUSH1 0x40 MLOAD PUSH4 0xF92EE8A9 PUSH1 0xE0 SHL DUP2 MSTORE PUSH1 0x4 ADD PUSH1 0x40 MLOAD DUP1 SWAP2 SUB SWAP1 REVERT JUMPDEST DUP5 SLOAD PUSH1 0x1 PUSH1 0x1 PUSH1 0x40 SHL SUB NOT AND PUSH1 0x1 OR DUP6 SSTORE DUP4 ISZERO PUSH2 0xE38 JUMPI DUP5 SLOAD PUSH1 0xFF PUSH1 0x40 SHL NOT AND PUSH1 0x1 PUSH1 0x40 SHL OR DUP6 SSTORE JUMPDEST PUSH2 0xE41 CALLER PUSH2 0xFD0 JUMP JUMPDEST DUP4 ISZERO PUSH2 0xE87 JUMPI DUP5 SLOAD PUSH1 0xFF PUSH1 0x40 SHL NOT AND DUP6 SSTORE PUSH1 0x40 MLOAD PUSH1 0x1 DUP2 MSTORE PUSH32 0xC7F505B2F371AE2175EE4913F4499E1F2633A7B5936321EED1CDAEB6115181D2 SWAP1 PUSH1 0x20 ADD PUSH1 0x40 MLOAD DUP1 SWAP2 SUB SWAP1 LOG1 JUMPDEST POP POP POP POP POP JUMP JUMPDEST PUSH1 0x1 PUSH1 0x1 PUSH1 0xA0 SHL SUB DUP2 AND PUSH1 0x0 SWAP1 DUP2 MSTORE PUSH1 0x1 PUSH1 0x20 MSTORE PUSH1 0x40 DUP2 KECCAK256 SLOAD ISZERO PUSH2 0xEB4 JUMPI POP PUSH1 0x1 SWAP2 SWAP1 POP JUMP JUMPDEST POP PUSH1 0x0 SWAP2 SWAP1 POP JUMP JUMPDEST PUSH2 0xEC4 PUSH2 0xEFA JUMP JUMPDEST PUSH1 0x1 PUSH1 0x1 PUSH1 0xA0 SHL SUB DUP2 AND PUSH2 0xEEE JUMPI PUSH1 0x0 PUSH1 0x40 MLOAD PUSH4 0x1E4FBDF7 PUSH1 0xE0 SHL DUP2 MSTORE PUSH1 0x4 ADD PUSH2 0x1CD SWAP2 SWAP1 PUSH2 0x11D0 JUMP JUMPDEST PUSH2 0xEF7 DUP2 PUSH2 0xF2C JUMP JUMPDEST POP JUMP JUMPDEST CALLER PUSH2 0xF03 PUSH2 0x653 JUMP JUMPDEST PUSH1 0x1 PUSH1 0x1 PUSH1 0xA0 SHL SUB AND EQ PUSH2 0x651 JUMPI CALLER PUSH1 0x40 MLOAD PUSH4 0x118CDAA7 PUSH1 0xE0 SHL DUP2 MSTORE PUSH1 0x4 ADD PUSH2 0x1CD SWAP2 SWAP1 PUSH2 0x11D0 JUMP JUMPDEST PUSH1 0x0 PUSH2 0xF36 PUSH2 0xF88 JUMP JUMPDEST DUP1 SLOAD PUSH1 0x1 PUSH1 0x1 PUSH1 0xA0 SHL SUB DUP5 DUP2 AND PUSH1 0x1 PUSH1 0x1 PUSH1 0xA0 SHL SUB NOT DUP4 AND DUP2 OR DUP5 SSTORE PUSH1 0x40 MLOAD SWAP4 SWAP5 POP SWAP2 AND SWAP2 DUP3 SWAP1 PUSH32 0x8BE0079C531659141344CD1FD0A4F28419497F9722A3DAAFE3B4186F6B6457E0 SWAP1 PUSH1 0x0 SWAP1 LOG3 POP POP POP JUMP JUMPDEST PUSH32 0x9016D09D72D40FDAE2FD8CEAC6B6234C7706214FD39C1CD1E609A0528C199300 SWAP1 JUMP JUMPDEST PUSH32 0xF0C57E16840DF040F15088DC2F81FE391C3923BEC73E23A9662EFC9C229C6A00 SWAP1 JUMP JUMPDEST PUSH2 0xFD8 PUSH2 0xFE1 JUMP JUMPDEST PUSH2 0xEF7 DUP2 PUSH2 0x1006 JUMP JUMPDEST PUSH2 0xFE9 PUSH2 0x100E JUMP JUMPDEST PUSH2 0x651 JUMPI PUSH1 0x40 MLOAD PUSH4 0x1AFCD79F PUSH1 0xE3 SHL DUP2 MSTORE PUSH1 0x4 ADD PUSH1 0x40 MLOAD DUP1 SWAP2 SUB SWAP1 REVERT JUMPDEST PUSH2 0xEC4 PUSH2 0xFE1 JUMP JUMPDEST PUSH1 0x0 PUSH2 0x1018 PUSH2 0xFAC JUMP JUMPDEST SLOAD PUSH1 0x1 PUSH1 0x40 SHL SWAP1 DIV PUSH1 0xFF AND SWAP2 SWAP1 POP JUMP JUMPDEST DUP3 DUP1 SLOAD DUP3 DUP3 SSTORE SWAP1 PUSH1 0x0 MSTORE PUSH1 0x20 PUSH1 0x0 KECCAK256 SWAP1 DUP2 ADD SWAP3 DUP3 ISZERO PUSH2 0x1063 JUMPI SWAP2 PUSH1 0x20 MUL DUP3 ADD JUMPDEST DUP3 DUP2 GT ISZERO PUSH2 0x1063 JUMPI DUP3 CALLDATALOAD DUP3 SSTORE SWAP2 PUSH1 0x20 ADD SWAP2 SWAP1 PUSH1 0x1 ADD SWAP1 PUSH2 0x1048 JUMP JUMPDEST POP PUSH2 0x106F SWAP3 SWAP2 POP PUSH2 0x108D JUMP JUMPDEST POP SWAP1 JUMP JUMPDEST POP DUP1 SLOAD PUSH1 0x0 DUP3 SSTORE SWAP1 PUSH1 0x0 MSTORE PUSH1 0x20 PUSH1 0x0 KECCAK256 SWAP1 DUP2 ADD SWAP1 PUSH2 0xEF7 SWAP2 SWAP1 JUMPDEST JUMPDEST DUP1 DUP3 GT ISZERO PUSH2 0x106F JUMPI PUSH1 0x0 DUP2 SSTORE PUSH1 0x1 ADD PUSH2 0x108E JUMP JUMPDEST PUSH1 0x1 PUSH1 0x1 PUSH1 0xA0 SHL SUB DUP2 AND DUP2 EQ PUSH2 0xEF7 JUMPI PUSH1 0x0 DUP1 REVERT JUMPDEST PUSH1 0x0 DUP1 PUSH1 0x0 PUSH1 0x40 DUP5 DUP7 SUB SLT ISZERO PUSH2 0x10CC JUMPI PUSH1 0x0 DUP1 REVERT JUMPDEST DUP4 CALLDATALOAD PUSH2 0x10D7 DUP2 PUSH2 0x10A2 JUMP JUMPDEST SWAP3 POP PUSH1 0x20 DUP5 ADD CALLDATALOAD PUSH1 0x1 PUSH1 0x1 PUSH1 0x40 SHL SUB DUP1 DUP3 GT ISZERO PUSH2 0x10F3 JUMPI PUSH1 0x0 DUP1 REVERT JUMPDEST DUP2 DUP7 ADD SWAP2 POP DUP7 PUSH1 0x1F DUP4 ADD SLT PUSH2 0x1107 JUMPI PUSH1 0x0 DUP1 REVERT JUMPDEST DUP2 CALLDATALOAD DUP2 DUP2 GT ISZERO PUSH2 0x1116 JUMPI PUSH1 0x0 DUP1 REVERT JUMPDEST DUP8 PUSH1 0x20 DUP3 PUSH1 0x5 SHL DUP6 ADD ADD GT ISZERO PUSH2 0x112B JUMPI PUSH1 0x0 DUP1 REVERT JUMPDEST PUSH1 0x20 DUP4 ADD SWAP5 POP DUP1 SWAP4 POP POP POP POP SWAP3 POP SWAP3 POP SWAP3 JUMP JUMPDEST PUSH1 0x0 DUP1 PUSH1 0x40 DUP4 DUP6 SUB SLT ISZERO PUSH2 0x1151 JUMPI PUSH1 0x0 DUP1 REVERT JUMPDEST DUP3 CALLDATALOAD PUSH2 0x115C DUP2 PUSH2 0x10A2 JUMP JUMPDEST SWAP5 PUSH1 0x20 SWAP4 SWAP1 SWAP4 ADD CALLDATALOAD SWAP4 POP POP POP JUMP JUMPDEST PUSH1 0x0 PUSH1 0x20 DUP3 DUP5 SUB SLT ISZERO PUSH2 0x117C JUMPI PUSH1 0x0 DUP1 REVERT JUMPDEST POP CALLDATALOAD SWAP2 SWAP1 POP JUMP JUMPDEST PUSH1 0x20 DUP1 DUP3 MSTORE DUP3 MLOAD DUP3 DUP3 ADD DUP2 SWAP1 MSTORE PUSH1 0x0 SWAP2 SWAP1 DUP5 DUP3 ADD SWAP1 PUSH1 0x40 DUP6 ADD SWAP1 DUP5 JUMPDEST DUP2 DUP2 LT ISZERO PUSH2 0x11C4 JUMPI DUP4 MLOAD PUSH1 0x1 PUSH1 0x1 PUSH1 0xA0 SHL SUB AND DUP4 MSTORE SWAP3 DUP5 ADD SWAP3 SWAP2 DUP5 ADD SWAP2 PUSH1 0x1 ADD PUSH2 0x119F JUMP JUMPDEST POP SWAP1 SWAP7 SWAP6 POP POP POP POP POP POP JUMP JUMPDEST PUSH1 0x1 PUSH1 0x1 PUSH1 0xA0 SHL SUB SWAP2 SWAP1 SWAP2 AND DUP2 MSTORE PUSH1 0x20 ADD SWAP1 JUMP JUMPDEST PUSH1 0x0 PUSH1 0x20 DUP3 DUP5 SUB SLT ISZERO PUSH2 0x11F6 JUMPI PUSH1 0x0 DUP1 REVERT JUMPDEST DUP2 CALLDATALOAD PUSH2 0x1201 DUP2 PUSH2 0x10A2 JUMP JUMPDEST SWAP4 SWAP3 POP POP POP JUMP JUMPDEST PUSH1 0x20 DUP1 DUP3 MSTORE DUP3 MLOAD DUP3 DUP3 ADD DUP2 SWAP1 MSTORE PUSH1 0x0 SWAP2 SWAP1 DUP5 DUP3 ADD SWAP1 PUSH1 0x40 DUP6 ADD SWAP1 DUP5 JUMPDEST DUP2 DUP2 LT ISZERO PUSH2 0x11C4 JUMPI DUP4 MLOAD DUP4 MSTORE SWAP3 DUP5 ADD SWAP3 SWAP2 DUP5 ADD SWAP2 PUSH1 0x1 ADD PUSH2 0x1224 JUMP JUMPDEST PUSH1 0x20 DUP1 DUP3 MSTORE PUSH1 0x1F SWAP1 DUP3 ADD MSTORE PUSH32 0x696E76616C696420617267756D656E74202D207A65726F206164647265737300 PUSH1 0x40 DUP3 ADD MSTORE PUSH1 0x60 ADD SWAP1 JUMP JUMPDEST PUSH1 0x20 DUP1 DUP3 MSTORE PUSH1 0x14 SWAP1 DUP3 ADD MSTORE PUSH20 0x2727AA1030903A393AB9BA32B21034B9B9BAB2B9 PUSH1 0x61 SHL PUSH1 0x40 DUP3 ADD MSTORE PUSH1 0x60 ADD SWAP1 JUMP JUMPDEST PUSH1 0x20 DUP1 DUP3 MSTORE PUSH1 0x25 SWAP1 DUP3 ADD MSTORE PUSH32 0x63616E6E6F742068617665206D6F7265207468616E20313520636C61696D2074 PUSH1 0x40 DUP3 ADD MSTORE PUSH5 0x6F70696373 PUSH1 0xD8 SHL PUSH1 0x60 DUP3 ADD MSTORE PUSH1 0x80 ADD SWAP1 JUMP JUMPDEST PUSH4 0x4E487B71 PUSH1 0xE0 SHL PUSH1 0x0 MSTORE PUSH1 0x32 PUSH1 0x4 MSTORE PUSH1 0x24 PUSH1 0x0 REVERT JUMPDEST PUSH4 0x4E487B71 PUSH1 0xE0 SHL PUSH1 0x0 MSTORE PUSH1 0x11 PUSH1 0x4 MSTORE PUSH1 0x24 PUSH1 0x0 REVERT JUMPDEST DUP2 DUP2 SUB DUP2 DUP2 GT ISZERO PUSH2 0x5CD JUMPI PUSH2 0x5CD PUSH2 0x1300 JUMP JUMPDEST PUSH4 0x4E487B71 PUSH1 0xE0 SHL PUSH1 0x0 MSTORE PUSH1 0x31 PUSH1 0x4 MSTORE PUSH1 0x24 PUSH1 0x0 REVERT JUMPDEST PUSH1 0x0 PUSH1 0x1 DUP3 ADD PUSH2 0x1351 JUMPI PUSH2 0x1351 PUSH2 0x1300 JUMP JUMPDEST POP PUSH1 0x1 ADD SWAP1 JUMP JUMPDEST PUSH1 0x20 DUP1 DUP3 MSTORE DUP2 ADD DUP3 SWAP1 MSTORE PUSH1 0x0 PUSH1 0x1 PUSH1 0x1 PUSH1 0xFB SHL SUB DUP4 GT ISZERO PUSH2 0x1378 JUMPI PUSH1 0x0 DUP1 REVERT JUMPDEST DUP3 PUSH1 0x5 SHL DUP1 DUP6 PUSH1 0x40 DUP6 ADD CALLDATACOPY SWAP2 SWAP1 SWAP2 ADD PUSH1 0x40 ADD SWAP4 SWAP3 POP POP POP JUMP INVALID LOG2 PUSH5 0x6970667358 0x22 SLT KECCAK256 0xE8 SHR PUSH8 0xA481876C806B1927 CALLER 0x28 0x2D 0xBE PUSH7 0xF9DBB531F63B64 PUSH8 0x616F210DF0FDDC33 PUSH5 0x736F6C6343 STOP ADDMOD GT STOP CALLER "
				},
				"gasEstimates": {
					"creation": {
						"codeDepositCost": "1012600",
						"executionCost": "1054",
						"totalCost": "1013654"
					},
					"external": {
						"addTrustedIssuer(address,uint256[])": "infinite",
						"getTrustedIssuerClaimTopics(address)": "infinite",
						"getTrustedIssuers()": "infinite",
						"getTrustedIssuersForClaimTopic(uint256)": "infinite",
						"hasClaimTopic(address,uint256)": "infinite",
						"init()": "infinite",
						"isTrustedIssuer(address)": "1466",
						"owner()": "1176",
						"removeTrustedIssuer(address)": "infinite",
						"renounceOwnership()": "infinite",
						"transferOwnership(address)": "infinite",
						"updateIssuerClaimTopics(address,uint256[])": "infinite"
					}
				},
				"methodIdentifiers": {
					"addTrustedIssuer(address,uint256[])": "9f63ea98",
					"getTrustedIssuerClaimTopics(address)": "c28fb278",
					"getTrustedIssuers()": "d9dd24c5",
					"getTrustedIssuersForClaimTopic(uint256)": "52c111d1",
					"hasClaimTopic(address,uint256)": "34a89987",
					"init()": "e1c7392a",
					"isTrustedIssuer(address)": "ef2ed1a4",
					"owner()": "8da5cb5b",
					"removeTrustedIssuer(address)": "b93d28eb",
					"renounceOwnership()": "715018a6",
					"transferOwnership(address)": "f2fde38b",
					"updateIssuerClaimTopics(address,uint256[])": "04bc7e84"
				}
			},
			"storageLayout": {
				"storage": [
					{
						"astId": 1526,
						"contract": "contracts t-rex/registry/implementation/TrustedIssuersRegistry.sol:TrustedIssuersRegistry",
						"label": "_trustedIssuers",
						"offset": 0,
						"slot": "0",
						"type": "t_array(t_contract(IClaimIssuer)49)dyn_storage"
					},
					{
						"astId": 1532,
						"contract": "contracts t-rex/registry/implementation/TrustedIssuersRegistry.sol:TrustedIssuersRegistry",
						"label": "_trustedIssuerClaimTopics",
						"offset": 0,
						"slot": "1",
						"type": "t_mapping(t_address,t_array(t_uint256)dyn_storage)"
					},
					{
						"astId": 1539,
						"contract": "contracts t-rex/registry/implementation/TrustedIssuersRegistry.sol:TrustedIssuersRegistry",
						"label": "_claimTopicsToTrustedIssuers",
						"offset": 0,
						"slot": "2",
						"type": "t_mapping(t_uint256,t_array(t_contract(IClaimIssuer)49)dyn_storage)"
					},
					{
						"astId": 1544,
						"contract": "contracts t-rex/registry/implementation/TrustedIssuersRegistry.sol:TrustedIssuersRegistry",
						"label": "__gap",
						"offset": 0,
						"slot": "3",
						"type": "t_array(t_uint256)49_storage"
					}
				],
				"types": {
					"t_address": {
						"encoding": "inplace",
						"label": "address",
						"numberOfBytes": "20"
					},
					"t_array(t_contract(IClaimIssuer)49)dyn_storage": {
						"base": "t_contract(IClaimIssuer)49",
						"encoding": "dynamic_array",
						"label": "contract IClaimIssuer[]",
						"numberOfBytes": "32"
					},
					"t_array(t_uint256)49_storage": {
						"base": "t_uint256",
						"encoding": "inplace",
						"label": "uint256[49]",
						"numberOfBytes": "1568"
					},
					"t_array(t_uint256)dyn_storage": {
						"base": "t_uint256",
						"encoding": "dynamic_array",
						"label": "uint256[]",
						"numberOfBytes": "32"
					},
					"t_contract(IClaimIssuer)49": {
						"encoding": "inplace",
						"label": "contract IClaimIssuer",
						"numberOfBytes": "20"
					},
					"t_mapping(t_address,t_array(t_uint256)dyn_storage)": {
						"encoding": "mapping",
						"key": "t_address",
						"label": "mapping(address => uint256[])",
						"numberOfBytes": "32",
						"value": "t_array(t_uint256)dyn_storage"
					},
					"t_mapping(t_uint256,t_array(t_contract(IClaimIssuer)49)dyn_storage)": {
						"encoding": "mapping",
						"key": "t_uint256",
						"label": "mapping(uint256 => contract IClaimIssuer[])",
						"numberOfBytes": "32",
						"value": "t_array(t_contract(IClaimIssuer)49)dyn_storage"
					},
					"t_uint256": {
						"encoding": "inplace",
						"label": "uint256",
						"numberOfBytes": "32"
					}
				}
			},
			"userdoc": {
				"events": {
					"ClaimTopicsUpdated(address,uint256[])": {
						"notice": "this event is emitted when the set of claim topics is changed for a given trusted issuer.  the event is emitted by the updateIssuerClaimTopics function  `trustedIssuer` is the address of the trusted issuer's ClaimIssuer contract  `claimTopics` is the set of claims that the trusted issuer is allowed to emit"
					},
					"TrustedIssuerAdded(address,uint256[])": {
						"notice": "this event is emitted when a trusted issuer is added in the registry.  the event is emitted by the addTrustedIssuer function  `trustedIssuer` is the address of the trusted issuer's ClaimIssuer contract  `claimTopics` is the set of claims that the trusted issuer is allowed to emit"
					},
					"TrustedIssuerRemoved(address)": {
						"notice": "this event is emitted when a trusted issuer is removed from the registry.  the event is emitted by the removeTrustedIssuer function  `trustedIssuer` is the address of the trusted issuer's ClaimIssuer contract"
					}
				},
				"kind": "user",
				"methods": {},
				"version": 1
			}
		}
	}
}