{
	"contracts t-rex/registry/implementation/ClaimTopicsRegistry.sol": {
		"ClaimTopicsRegistry": {
			"abi": [
				{
					"inputs": [],
					"name": "InvalidInitialization",
					"type": "error"
				},
				{
					"inputs": [],
					"name": "NotInitializing",
					"type": "error"
				},
				{
					"inputs": [
						{
							"internalType": "address",
							"name": "owner",
							"type": "address"
						}
					],
					"name": "OwnableInvalidOwner",
					"type": "error"
				},
				{
					"inputs": [
						{
							"internalType": "address",
							"name": "account",
							"type": "address"
						}
					],
					"name": "OwnableUnauthorizedAccount",
					"type": "error"
				},
				{
					"anonymous": false,
					"inputs": [
						{
							"indexed": true,
							"internalType": "uint256",
							"name": "claimTopic",
							"type": "uint256"
						}
					],
					"name": "ClaimTopicAdded",
					"type": "event"
				},
				{
					"anonymous": false,
					"inputs": [
						{
							"indexed": true,
							"internalType": "uint256",
							"name": "claimTopic",
							"type": "uint256"
						}
					],
					"name": "ClaimTopicRemoved",
					"type": "event"
				},
				{
					"anonymous": false,
					"inputs": [
						{
							"indexed": false,
							"internalType": "uint64",
							"name": "version",
							"type": "uint64"
						}
					],
					"name": "Initialized",
					"type": "event"
				},
				{
					"anonymous": false,
					"inputs": [
						{
							"indexed": true,
							"internalType": "address",
							"name": "previousOwner",
							"type": "address"
						},
						{
							"indexed": true,
							"internalType": "address",
							"name": "newOwner",
							"type": "address"
						}
					],
					"name": "OwnershipTransferred",
					"type": "event"
				},
				{
					"inputs": [
						{
							"internalType": "uint256",
							"name": "_claimTopic",
							"type": "uint256"
						}
					],
					"name": "addClaimTopic",
					"outputs": [],
					"stateMutability": "nonpayable",
					"type": "function"
				},
				{
					"inputs": [],
					"name": "getClaimTopics",
					"outputs": [
						{
							"internalType": "uint256[]",
							"name": "",
							"type": "uint256[]"
						}
					],
					"stateMutability": "view",
					"type": "function"
				},
				{
					"inputs": [],
					"name": "init",
					"outputs": [],
					"stateMutability": "nonpayable",
					"type": "function"
				},
				{
					"inputs": [],
					"name": "owner",
					"outputs": [
						{
							"internalType": "address",
							"name": "",
							"type": "address"
						}
					],
					"stateMutability": "view",
					"type": "function"
				},
				{
					"inputs": [
						{
							"internalType": "uint256",
							"name": "_claimTopic",
							"type": "uint256"
						}
					],
					"name": "removeClaimTopic",
					"outputs": [],
					"stateMutability": "nonpayable",
					"type": "function"
				},
				{
					"inputs": [],
					"name": "renounceOwnership",
					"outputs": [],
					"stateMutability": "nonpayable",
					"type": "function"
				},
				{
					"inputs": [
						{
							"internalType": "address",
							"name": "newOwner",
							"type": "address"
						}
					],
					"name": "transferOwnership",
					"outputs": [],
					"stateMutability": "nonpayable",
					"type": "function"
				}
			],
			"devdoc": {
				"errors": {
					"InvalidInitialization()": [
						{
							"details": "The contract is already initialized."
						}
					],
					"NotInitializing()": [
						{
							"details": "The contract is not initializing."
						}
					],
					"OwnableInvalidOwner(address)": [
						{
							"details": "The owner is not a valid owner account. (eg. `address(0)`)"
						}
					],
					"OwnableUnauthorizedAccount(address)": [
						{
							"details": "The caller account is not authorized to perform an operation."
						}
					]
				},
				"kind": "dev",
				"methods": {
					"addClaimTopic(uint256)": {
						"details": "See {IClaimTopicsRegistry-addClaimTopic}."
					},
					"getClaimTopics()": {
						"details": "See {IClaimTopicsRegistry-getClaimTopics}."
					},
					"owner()": {
						"details": "Returns the address of the current owner."
					},
					"removeClaimTopic(uint256)": {
						"details": "See {IClaimTopicsRegistry-removeClaimTopic}."
					},
					"renounceOwnership()": {
						"details": "Leaves the contract without owner. It will not be possible to call `onlyOwner` functions. Can only be called by the current owner. NOTE: Renouncing ownership will leave the contract without an owner, thereby disabling any functionality that is only available to the owner."
					},
					"transferOwnership(address)": {
						"details": "Transfers ownership of the contract to a new account (`newOwner`). Can only be called by the current owner."
					}
				},
				"version": 1
			},
			"evm": {
				"assembly": "    /* \"contracts t-rex/registry/implementation/ClaimTopicsRegistry.sol\":4003:5360  contract ClaimTopicsRegistry is IClaimTopicsRegistry, OwnableUpgradeable, CTRStorage {... */\n  mstore(0x40, 0x80)\n  callvalue\n  dup1\n  iszero\n  tag_1\n  jumpi\n  0x00\n  dup1\n  revert\ntag_1:\n  pop\n  dataSize(sub_0)\n  dup1\n  dataOffset(sub_0)\n  0x00\n  codecopy\n  0x00\n  return\nstop\n\nsub_0: assembly {\n        /* \"contracts t-rex/registry/implementation/ClaimTopicsRegistry.sol\":4003:5360  contract ClaimTopicsRegistry is IClaimTopicsRegistry, OwnableUpgradeable, CTRStorage {... */\n      mstore(0x40, 0x80)\n      callvalue\n      dup1\n      iszero\n      tag_1\n      jumpi\n      0x00\n      dup1\n      revert\n    tag_1:\n      pop\n      jumpi(tag_2, lt(calldatasize, 0x04))\n      shr(0xe0, calldataload(0x00))\n      dup1\n      0xc7b22551\n      gt\n      tag_10\n      jumpi\n      dup1\n      0xc7b22551\n      eq\n      tag_6\n      jumpi\n      dup1\n      0xdf09d604\n      eq\n      tag_7\n      jumpi\n      dup1\n      0xe1c7392a\n      eq\n      tag_8\n      jumpi\n      dup1\n      0xf2fde38b\n      eq\n      tag_9\n      jumpi\n      0x00\n      dup1\n      revert\n    tag_10:\n      dup1\n      0x08297846\n      eq\n      tag_3\n      jumpi\n      dup1\n      0x715018a6\n      eq\n      tag_4\n      jumpi\n      dup1\n      0x8da5cb5b\n      eq\n      tag_5\n      jumpi\n    tag_2:\n      0x00\n      dup1\n      revert\n        /* \"contracts t-rex/registry/implementation/ClaimTopicsRegistry.sol\":4747:5168  function removeClaimTopic(uint256 _claimTopic) external override onlyOwner {... */\n    tag_3:\n      tag_11\n      tag_12\n      calldatasize\n      0x04\n      tag_13\n      jump\t// in\n    tag_12:\n      tag_14\n      jump\t// in\n    tag_11:\n      stop\n        /* \"@openzeppelin/contracts-upgradeable/access/OwnableUpgradeable.sol\":3165:3266  function renounceOwnership() public virtual onlyOwner {... */\n    tag_4:\n      tag_11\n      tag_16\n      jump\t// in\n        /* \"@openzeppelin/contracts-upgradeable/access/OwnableUpgradeable.sol\":2451:2595  function owner() public view virtual returns (address) {... */\n    tag_5:\n        /* \"@openzeppelin/contracts-upgradeable/access/OwnableUpgradeable.sol\":1323:1345  OwnableStorageLocation */\n      0x9016d09d72d40fdae2fd8ceac6b6234c7706214fd39c1cd1e609a0528c199300\n        /* \"@openzeppelin/contracts-upgradeable/access/OwnableUpgradeable.sol\":2580:2588  $._owner */\n      sload\n        /* \"@openzeppelin/contracts-upgradeable/access/OwnableUpgradeable.sol\":2451:2595  function owner() public view virtual returns (address) {... */\n      mload(0x40)\n      sub(shl(0xa0, 0x01), 0x01)\n        /* \"@openzeppelin/contracts-upgradeable/access/OwnableUpgradeable.sol\":2580:2588  $._owner */\n      swap1\n      swap2\n      and\n        /* \"#utility.yul\":345:396   */\n      dup2\n      mstore\n        /* \"#utility.yul\":333:335   */\n      0x20\n        /* \"#utility.yul\":318:336   */\n      add\n        /* \"@openzeppelin/contracts-upgradeable/access/OwnableUpgradeable.sol\":2451:2595  function owner() public view virtual returns (address) {... */\n    tag_19:\n      mload(0x40)\n      dup1\n      swap2\n      sub\n      swap1\n      return\n        /* \"contracts t-rex/registry/implementation/ClaimTopicsRegistry.sol\":4252:4667  function addClaimTopic(uint256 _claimTopic) external override onlyOwner {... */\n    tag_6:\n      tag_11\n      tag_22\n      calldatasize\n      0x04\n      tag_13\n      jump\t// in\n    tag_22:\n      tag_23\n      jump\t// in\n        /* \"contracts t-rex/registry/implementation/ClaimTopicsRegistry.sol\":5246:5358  function getClaimTopics() external view override returns (uint256[] memory) {... */\n    tag_7:\n      tag_24\n      tag_25\n      jump\t// in\n    tag_24:\n      mload(0x40)\n      tag_19\n      swap2\n      swap1\n      tag_27\n      jump\t// in\n        /* \"contracts t-rex/registry/implementation/ClaimTopicsRegistry.sol\":4095:4175  function init() external initializer {... */\n    tag_8:\n      tag_11\n      tag_29\n      jump\t// in\n        /* \"@openzeppelin/contracts-upgradeable/access/OwnableUpgradeable.sol\":3415:3630  function transferOwnership(address newOwner) public virtual onlyOwner {... */\n    tag_9:\n      tag_11\n      tag_31\n      calldatasize\n      0x04\n      tag_32\n      jump\t// in\n    tag_31:\n      tag_33\n      jump\t// in\n        /* \"contracts t-rex/registry/implementation/ClaimTopicsRegistry.sol\":4747:5168  function removeClaimTopic(uint256 _claimTopic) external override onlyOwner {... */\n    tag_14:\n        /* \"@openzeppelin/contracts-upgradeable/access/OwnableUpgradeable.sol\":2344:2357  _checkOwner() */\n      tag_35\n        /* \"@openzeppelin/contracts-upgradeable/access/OwnableUpgradeable.sol\":2344:2355  _checkOwner */\n      tag_36\n        /* \"@openzeppelin/contracts-upgradeable/access/OwnableUpgradeable.sol\":2344:2357  _checkOwner() */\n      jump\t// in\n    tag_35:\n        /* \"contracts t-rex/registry/implementation/ClaimTopicsRegistry.sol\":4832:4846  uint256 length */\n      0x00\n        /* \"contracts t-rex/registry/implementation/ClaimTopicsRegistry.sol\":4849:4868  _claimTopics.length */\n      dup1\n      sload\n      swap1\n        /* \"contracts t-rex/registry/implementation/ClaimTopicsRegistry.sol\":4878:5162  for (uint256 i = 0; i < length; i++) {... */\n    tag_38:\n        /* \"contracts t-rex/registry/implementation/ClaimTopicsRegistry.sol\":4902:4908  length */\n      dup2\n        /* \"contracts t-rex/registry/implementation/ClaimTopicsRegistry.sol\":4898:4899  i */\n      dup2\n        /* \"contracts t-rex/registry/implementation/ClaimTopicsRegistry.sol\":4898:4908  i < length */\n      lt\n        /* \"contracts t-rex/registry/implementation/ClaimTopicsRegistry.sol\":4878:5162  for (uint256 i = 0; i < length; i++) {... */\n      iszero\n      tag_39\n      jumpi\n        /* \"contracts t-rex/registry/implementation/ClaimTopicsRegistry.sol\":4952:4963  _claimTopic */\n      dup3\n        /* \"contracts t-rex/registry/implementation/ClaimTopicsRegistry.sol\":4933:4945  _claimTopics */\n      0x00\n        /* \"contracts t-rex/registry/implementation/ClaimTopicsRegistry.sol\":4946:4947  i */\n      dup3\n        /* \"contracts t-rex/registry/implementation/ClaimTopicsRegistry.sol\":4933:4948  _claimTopics[i] */\n      dup2\n      sload\n      dup2\n      lt\n      tag_42\n      jumpi\n      tag_42\n      tag_43\n      jump\t// in\n    tag_42:\n      swap1\n      0x00\n      mstore\n      keccak256(0x00, 0x20)\n      add\n      sload\n        /* \"contracts t-rex/registry/implementation/ClaimTopicsRegistry.sol\":4933:4963  _claimTopics[i] == _claimTopic */\n      sub\n        /* \"contracts t-rex/registry/implementation/ClaimTopicsRegistry.sol\":4929:5152  if (_claimTopics[i] == _claimTopic) {... */\n      tag_45\n      jumpi\n        /* \"contracts t-rex/registry/implementation/ClaimTopicsRegistry.sol\":5001:5013  _claimTopics */\n      0x00\n        /* \"contracts t-rex/registry/implementation/ClaimTopicsRegistry.sol\":5014:5024  length - 1 */\n      tag_46\n        /* \"contracts t-rex/registry/implementation/ClaimTopicsRegistry.sol\":5023:5024  1 */\n      0x01\n        /* \"contracts t-rex/registry/implementation/ClaimTopicsRegistry.sol\":5014:5020  length */\n      dup5\n        /* \"contracts t-rex/registry/implementation/ClaimTopicsRegistry.sol\":5014:5024  length - 1 */\n      tag_47\n      jump\t// in\n    tag_46:\n        /* \"contracts t-rex/registry/implementation/ClaimTopicsRegistry.sol\":5001:5025  _claimTopics[length - 1] */\n      dup2\n      sload\n      dup2\n      lt\n      tag_49\n      jumpi\n      tag_49\n      tag_43\n      jump\t// in\n    tag_49:\n      swap1\n      0x00\n      mstore\n      keccak256(0x00, 0x20)\n      add\n      sload\n        /* \"contracts t-rex/registry/implementation/ClaimTopicsRegistry.sol\":4983:4995  _claimTopics */\n      0x00\n        /* \"contracts t-rex/registry/implementation/ClaimTopicsRegistry.sol\":4996:4997  i */\n      dup3\n        /* \"contracts t-rex/registry/implementation/ClaimTopicsRegistry.sol\":4983:4998  _claimTopics[i] */\n      dup2\n      sload\n      dup2\n      lt\n      tag_52\n      jumpi\n      tag_52\n      tag_43\n      jump\t// in\n    tag_52:\n      swap1\n      0x00\n      mstore\n      keccak256(0x00, 0x20)\n      add\n        /* \"contracts t-rex/registry/implementation/ClaimTopicsRegistry.sol\":4983:5025  _claimTopics[i] = _claimTopics[length - 1] */\n      dup2\n      swap1\n      sstore\n      pop\n        /* \"contracts t-rex/registry/implementation/ClaimTopicsRegistry.sol\":5043:5055  _claimTopics */\n      0x00\n        /* \"contracts t-rex/registry/implementation/ClaimTopicsRegistry.sol\":5043:5061  _claimTopics.pop() */\n      dup1\n      sload\n      dup1\n      tag_55\n      jumpi\n      tag_55\n      tag_56\n      jump\t// in\n    tag_55:\n      0x01\n      swap1\n      sub\n      dup2\n      dup2\n      swap1\n      0x00\n      mstore\n      keccak256(0x00, 0x20)\n      add\n      0x00\n      swap1\n      sstore\n      swap1\n      sstore\n        /* \"contracts t-rex/registry/implementation/ClaimTopicsRegistry.sol\":5102:5113  _claimTopic */\n      dup3\n        /* \"contracts t-rex/registry/implementation/ClaimTopicsRegistry.sol\":5084:5114  ClaimTopicRemoved(_claimTopic) */\n      0x0b1381093c776453c1bbe54fd68be1b235c65db61d099cb50d194b2991e0eec5\n      mload(0x40)\n      mload(0x40)\n      dup1\n      swap2\n      sub\n      swap1\n      log2\n        /* \"contracts t-rex/registry/implementation/ClaimTopicsRegistry.sol\":4878:5162  for (uint256 i = 0; i < length; i++) {... */\n      pop\n        /* \"contracts t-rex/registry/implementation/ClaimTopicsRegistry.sol\":4822:5168  {... */\n      pop\n        /* \"contracts t-rex/registry/implementation/ClaimTopicsRegistry.sol\":4747:5168  function removeClaimTopic(uint256 _claimTopic) external override onlyOwner {... */\n      pop\n      jump\t// out\n        /* \"contracts t-rex/registry/implementation/ClaimTopicsRegistry.sol\":4929:5152  if (_claimTopics[i] == _claimTopic) {... */\n    tag_45:\n        /* \"contracts t-rex/registry/implementation/ClaimTopicsRegistry.sol\":4910:4913  i++ */\n      dup1\n      tag_58\n      dup2\n      tag_59\n      jump\t// in\n    tag_58:\n      swap2\n      pop\n      pop\n        /* \"contracts t-rex/registry/implementation/ClaimTopicsRegistry.sol\":4878:5162  for (uint256 i = 0; i < length; i++) {... */\n      jump(tag_38)\n    tag_39:\n      pop\n        /* \"contracts t-rex/registry/implementation/ClaimTopicsRegistry.sol\":4822:5168  {... */\n      pop\n        /* \"contracts t-rex/registry/implementation/ClaimTopicsRegistry.sol\":4747:5168  function removeClaimTopic(uint256 _claimTopic) external override onlyOwner {... */\n      pop\n      jump\t// out\n        /* \"@openzeppelin/contracts-upgradeable/access/OwnableUpgradeable.sol\":3165:3266  function renounceOwnership() public virtual onlyOwner {... */\n    tag_16:\n        /* \"@openzeppelin/contracts-upgradeable/access/OwnableUpgradeable.sol\":2344:2357  _checkOwner() */\n      tag_61\n        /* \"@openzeppelin/contracts-upgradeable/access/OwnableUpgradeable.sol\":2344:2355  _checkOwner */\n      tag_36\n        /* \"@openzeppelin/contracts-upgradeable/access/OwnableUpgradeable.sol\":2344:2357  _checkOwner() */\n      jump\t// in\n    tag_61:\n        /* \"@openzeppelin/contracts-upgradeable/access/OwnableUpgradeable.sol\":3229:3259  _transferOwnership(address(0)) */\n      tag_63\n        /* \"@openzeppelin/contracts-upgradeable/access/OwnableUpgradeable.sol\":3256:3257  0 */\n      0x00\n        /* \"@openzeppelin/contracts-upgradeable/access/OwnableUpgradeable.sol\":3229:3247  _transferOwnership */\n      tag_64\n        /* \"@openzeppelin/contracts-upgradeable/access/OwnableUpgradeable.sol\":3229:3259  _transferOwnership(address(0)) */\n      jump\t// in\n    tag_63:\n        /* \"@openzeppelin/contracts-upgradeable/access/OwnableUpgradeable.sol\":3165:3266  function renounceOwnership() public virtual onlyOwner {... */\n      jump\t// out\n        /* \"contracts t-rex/registry/implementation/ClaimTopicsRegistry.sol\":4252:4667  function addClaimTopic(uint256 _claimTopic) external override onlyOwner {... */\n    tag_23:\n        /* \"@openzeppelin/contracts-upgradeable/access/OwnableUpgradeable.sol\":2344:2357  _checkOwner() */\n      tag_69\n        /* \"@openzeppelin/contracts-upgradeable/access/OwnableUpgradeable.sol\":2344:2355  _checkOwner */\n      tag_36\n        /* \"@openzeppelin/contracts-upgradeable/access/OwnableUpgradeable.sol\":2344:2357  _checkOwner() */\n      jump\t// in\n    tag_69:\n        /* \"contracts t-rex/registry/implementation/ClaimTopicsRegistry.sol\":4334:4348  uint256 length */\n      0x00\n        /* \"contracts t-rex/registry/implementation/ClaimTopicsRegistry.sol\":4351:4370  _claimTopics.length */\n      sload\n        /* \"contracts t-rex/registry/implementation/ClaimTopicsRegistry.sol\":4397:4399  15 */\n      0x0f\n        /* \"contracts t-rex/registry/implementation/ClaimTopicsRegistry.sol\":4388:4399  length < 15 */\n      dup2\n      lt\n        /* \"contracts t-rex/registry/implementation/ClaimTopicsRegistry.sol\":4380:4438  require(length < 15, \"cannot require more than 15 topics\") */\n      tag_71\n      jumpi\n      mload(0x40)\n      shl(0xe5, 0x461bcd)\n      dup2\n      mstore\n        /* \"#utility.yul\":2206:2208   */\n      0x20\n        /* \"contracts t-rex/registry/implementation/ClaimTopicsRegistry.sol\":4380:4438  require(length < 15, \"cannot require more than 15 topics\") */\n      0x04\n      dup3\n      add\n        /* \"#utility.yul\":2188:2209   */\n      mstore\n        /* \"#utility.yul\":2245:2247   */\n      0x22\n        /* \"#utility.yul\":2225:2243   */\n      0x24\n      dup3\n      add\n        /* \"#utility.yul\":2218:2248   */\n      mstore\n        /* \"#utility.yul\":2284:2318   */\n      0x63616e6e6f742072657175697265206d6f7265207468616e20313520746f7069\n        /* \"#utility.yul\":2264:2282   */\n      0x44\n      dup3\n      add\n        /* \"#utility.yul\":2257:2319   */\n      mstore\n      shl(0xf0, 0x6373)\n        /* \"#utility.yul\":2335:2353   */\n      0x64\n      dup3\n      add\n        /* \"#utility.yul\":2328:2360   */\n      mstore\n        /* \"#utility.yul\":2377:2396   */\n      0x84\n      add\n        /* \"contracts t-rex/registry/implementation/ClaimTopicsRegistry.sol\":4380:4438  require(length < 15, \"cannot require more than 15 topics\") */\n    tag_72:\n      mload(0x40)\n      dup1\n      swap2\n      sub\n      swap1\n      revert\n    tag_71:\n        /* \"contracts t-rex/registry/implementation/ClaimTopicsRegistry.sol\":4453:4462  uint256 i */\n      0x00\n        /* \"contracts t-rex/registry/implementation/ClaimTopicsRegistry.sol\":4448:4578  for (uint256 i = 0; i < length; i++) {... */\n    tag_74:\n        /* \"contracts t-rex/registry/implementation/ClaimTopicsRegistry.sol\":4472:4478  length */\n      dup2\n        /* \"contracts t-rex/registry/implementation/ClaimTopicsRegistry.sol\":4468:4469  i */\n      dup2\n        /* \"contracts t-rex/registry/implementation/ClaimTopicsRegistry.sol\":4468:4478  i < length */\n      lt\n        /* \"contracts t-rex/registry/implementation/ClaimTopicsRegistry.sol\":4448:4578  for (uint256 i = 0; i < length; i++) {... */\n      iszero\n      tag_75\n      jumpi\n        /* \"contracts t-rex/registry/implementation/ClaimTopicsRegistry.sol\":4526:4537  _claimTopic */\n      dup3\n        /* \"contracts t-rex/registry/implementation/ClaimTopicsRegistry.sol\":4507:4519  _claimTopics */\n      0x00\n        /* \"contracts t-rex/registry/implementation/ClaimTopicsRegistry.sol\":4520:4521  i */\n      dup3\n        /* \"contracts t-rex/registry/implementation/ClaimTopicsRegistry.sol\":4507:4522  _claimTopics[i] */\n      dup2\n      sload\n      dup2\n      lt\n      tag_78\n      jumpi\n      tag_78\n      tag_43\n      jump\t// in\n    tag_78:\n      swap1\n      0x00\n      mstore\n      keccak256(0x00, 0x20)\n      add\n      sload\n        /* \"contracts t-rex/registry/implementation/ClaimTopicsRegistry.sol\":4507:4537  _claimTopics[i] != _claimTopic */\n      sub\n        /* \"contracts t-rex/registry/implementation/ClaimTopicsRegistry.sol\":4499:4567  require(_claimTopics[i] != _claimTopic, \"claimTopic already exists\") */\n      tag_80\n      jumpi\n      mload(0x40)\n      shl(0xe5, 0x461bcd)\n      dup2\n      mstore\n        /* \"#utility.yul\":2609:2611   */\n      0x20\n        /* \"contracts t-rex/registry/implementation/ClaimTopicsRegistry.sol\":4499:4567  require(_claimTopics[i] != _claimTopic, \"claimTopic already exists\") */\n      0x04\n      dup3\n      add\n        /* \"#utility.yul\":2591:2612   */\n      mstore\n        /* \"#utility.yul\":2648:2650   */\n      0x19\n        /* \"#utility.yul\":2628:2646   */\n      0x24\n      dup3\n      add\n        /* \"#utility.yul\":2621:2651   */\n      mstore\n        /* \"#utility.yul\":2687:2714   */\n      0x636c61696d546f70696320616c72656164792065786973747300000000000000\n        /* \"#utility.yul\":2667:2685   */\n      0x44\n      dup3\n      add\n        /* \"#utility.yul\":2660:2715   */\n      mstore\n        /* \"#utility.yul\":2732:2750   */\n      0x64\n      add\n        /* \"contracts t-rex/registry/implementation/ClaimTopicsRegistry.sol\":4499:4567  require(_claimTopics[i] != _claimTopic, \"claimTopic already exists\") */\n      tag_72\n        /* \"#utility.yul\":2407:2756   */\n      jump\n        /* \"contracts t-rex/registry/implementation/ClaimTopicsRegistry.sol\":4499:4567  require(_claimTopics[i] != _claimTopic, \"claimTopic already exists\") */\n    tag_80:\n        /* \"contracts t-rex/registry/implementation/ClaimTopicsRegistry.sol\":4480:4483  i++ */\n      dup1\n      tag_83\n      dup2\n      tag_59\n      jump\t// in\n    tag_83:\n      swap2\n      pop\n      pop\n        /* \"contracts t-rex/registry/implementation/ClaimTopicsRegistry.sol\":4448:4578  for (uint256 i = 0; i < length; i++) {... */\n      jump(tag_74)\n    tag_75:\n      pop\n        /* \"contracts t-rex/registry/implementation/ClaimTopicsRegistry.sol\":4587:4599  _claimTopics */\n      0x00\n        /* \"contracts t-rex/registry/implementation/ClaimTopicsRegistry.sol\":4587:4617  _claimTopics.push(_claimTopic) */\n      dup1\n      sload\n      0x01\n      dup2\n      add\n      dup3\n      sstore\n      dup2\n      dup1\n      mstore\n      0x290decd9548b62a8d60345a988386fc84ba6bc95484008f6362f93160ef3e563\n      add\n      dup4\n      swap1\n      sstore\n        /* \"contracts t-rex/registry/implementation/ClaimTopicsRegistry.sol\":4632:4660  ClaimTopicAdded(_claimTopic) */\n      mload(0x40)\n        /* \"contracts t-rex/registry/implementation/ClaimTopicsRegistry.sol\":4605:4616  _claimTopic */\n      dup4\n      swap2\n        /* \"contracts t-rex/registry/implementation/ClaimTopicsRegistry.sol\":4632:4660  ClaimTopicAdded(_claimTopic) */\n      0x01c928b7f7ade2949e92366aa9454dbef3a416b731cf6ec786ba9595bbd814d6\n      swap2\n      log2\n        /* \"contracts t-rex/registry/implementation/ClaimTopicsRegistry.sol\":4324:4667  {... */\n      pop\n        /* \"contracts t-rex/registry/implementation/ClaimTopicsRegistry.sol\":4252:4667  function addClaimTopic(uint256 _claimTopic) external override onlyOwner {... */\n      pop\n      jump\t// out\n        /* \"contracts t-rex/registry/implementation/ClaimTopicsRegistry.sol\":5246:5358  function getClaimTopics() external view override returns (uint256[] memory) {... */\n    tag_25:\n        /* \"contracts t-rex/registry/implementation/ClaimTopicsRegistry.sol\":5304:5320  uint256[] memory */\n      0x60\n        /* \"contracts t-rex/registry/implementation/ClaimTopicsRegistry.sol\":5339:5351  _claimTopics */\n      0x00\n        /* \"contracts t-rex/registry/implementation/ClaimTopicsRegistry.sol\":5332:5351  return _claimTopics */\n      dup1\n      sload\n      dup1\n      0x20\n      mul\n      0x20\n      add\n      mload(0x40)\n      swap1\n      dup2\n      add\n      0x40\n      mstore\n      dup1\n      swap3\n      swap2\n      swap1\n      dup2\n      dup2\n      mstore\n      0x20\n      add\n      dup3\n      dup1\n      sload\n      dup1\n      iszero\n      tag_86\n      jumpi\n      0x20\n      mul\n      dup3\n      add\n      swap2\n      swap1\n      0x00\n      mstore\n      keccak256(0x00, 0x20)\n      swap1\n    tag_87:\n      dup2\n      sload\n      dup2\n      mstore\n      0x20\n      add\n      swap1\n      0x01\n      add\n      swap1\n      dup1\n      dup4\n      gt\n      tag_87\n      jumpi\n    tag_86:\n      pop\n      pop\n      pop\n      pop\n      pop\n      swap1\n      pop\n        /* \"contracts t-rex/registry/implementation/ClaimTopicsRegistry.sol\":5246:5358  function getClaimTopics() external view override returns (uint256[] memory) {... */\n      swap1\n      jump\t// out\n        /* \"contracts t-rex/registry/implementation/ClaimTopicsRegistry.sol\":4095:4175  function init() external initializer {... */\n    tag_29:\n        /* \"@openzeppelin/contracts-upgradeable/proxy/utils/Initializable.sol\":8870:8891  INITIALIZABLE_STORAGE */\n      0xf0c57e16840df040f15088dc2f81fe391c3923bec73e23a9662efc9c229c6a00\n        /* \"@openzeppelin/contracts-upgradeable/proxy/utils/Initializable.sol\":4302:4317  $._initializing */\n      dup1\n      sload\n      shl(0x40, 0x01)\n      dup2\n      div\n      0xff\n      and\n        /* \"@openzeppelin/contracts-upgradeable/proxy/utils/Initializable.sol\":4301:4317  !$._initializing */\n      iszero\n      swap1\n        /* \"@openzeppelin/contracts-upgradeable/proxy/utils/Initializable.sol\":4348:4362  $._initialized */\n      0xffffffffffffffff\n      and\n        /* \"@openzeppelin/contracts-upgradeable/proxy/utils/Initializable.sol\":4158:4188  InitializableStorage storage $ */\n      0x00\n        /* \"@openzeppelin/contracts-upgradeable/proxy/utils/Initializable.sol\":4726:4742  initialized == 0 */\n      dup2\n      iszero\n        /* \"@openzeppelin/contracts-upgradeable/proxy/utils/Initializable.sol\":4726:4760  initialized == 0 && isTopLevelCall */\n      dup1\n      iszero\n      tag_91\n      jumpi\n      pop\n        /* \"@openzeppelin/contracts-upgradeable/proxy/utils/Initializable.sol\":4746:4760  isTopLevelCall */\n      dup3\n        /* \"@openzeppelin/contracts-upgradeable/proxy/utils/Initializable.sol\":4726:4760  initialized == 0 && isTopLevelCall */\n    tag_91:\n        /* \"@openzeppelin/contracts-upgradeable/proxy/utils/Initializable.sol\":4706:4760  bool initialSetup = initialized == 0 && isTopLevelCall */\n      swap1\n      pop\n        /* \"@openzeppelin/contracts-upgradeable/proxy/utils/Initializable.sol\":4770:4787  bool construction */\n      0x00\n        /* \"@openzeppelin/contracts-upgradeable/proxy/utils/Initializable.sol\":4790:4801  initialized */\n      dup3\n        /* \"@openzeppelin/contracts-upgradeable/proxy/utils/Initializable.sol\":4790:4806  initialized == 1 */\n      0xffffffffffffffff\n      and\n        /* \"@openzeppelin/contracts-upgradeable/proxy/utils/Initializable.sol\":4805:4806  1 */\n      0x01\n        /* \"@openzeppelin/contracts-upgradeable/proxy/utils/Initializable.sol\":4790:4806  initialized == 1 */\n      eq\n        /* \"@openzeppelin/contracts-upgradeable/proxy/utils/Initializable.sol\":4790:4840  initialized == 1 && address(this).code.length == 0 */\n      dup1\n      iszero\n      tag_92\n      jumpi\n      pop\n        /* \"@openzeppelin/contracts-upgradeable/proxy/utils/Initializable.sol\":4818:4822  this */\n      address\n        /* \"@openzeppelin/contracts-upgradeable/proxy/utils/Initializable.sol\":4810:4835  address(this).code.length */\n      extcodesize\n        /* \"@openzeppelin/contracts-upgradeable/proxy/utils/Initializable.sol\":4810:4840  address(this).code.length == 0 */\n      iszero\n        /* \"@openzeppelin/contracts-upgradeable/proxy/utils/Initializable.sol\":4790:4840  initialized == 1 && address(this).code.length == 0 */\n    tag_92:\n        /* \"@openzeppelin/contracts-upgradeable/proxy/utils/Initializable.sol\":4770:4840  bool construction = initialized == 1 && address(this).code.length == 0 */\n      swap1\n      pop\n        /* \"@openzeppelin/contracts-upgradeable/proxy/utils/Initializable.sol\":4856:4868  initialSetup */\n      dup2\n        /* \"@openzeppelin/contracts-upgradeable/proxy/utils/Initializable.sol\":4855:4868  !initialSetup */\n      iszero\n        /* \"@openzeppelin/contracts-upgradeable/proxy/utils/Initializable.sol\":4855:4885  !initialSetup && !construction */\n      dup1\n      iszero\n      tag_93\n      jumpi\n      pop\n        /* \"@openzeppelin/contracts-upgradeable/proxy/utils/Initializable.sol\":4873:4885  construction */\n      dup1\n        /* \"@openzeppelin/contracts-upgradeable/proxy/utils/Initializable.sol\":4872:4885  !construction */\n      iszero\n        /* \"@openzeppelin/contracts-upgradeable/proxy/utils/Initializable.sol\":4855:4885  !initialSetup && !construction */\n    tag_93:\n        /* \"@openzeppelin/contracts-upgradeable/proxy/utils/Initializable.sol\":4851:4942  if (!initialSetup && !construction) {... */\n      iszero\n      tag_94\n      jumpi\n        /* \"@openzeppelin/contracts-upgradeable/proxy/utils/Initializable.sol\":4908:4931  InvalidInitialization() */\n      mload(0x40)\n      shl(0xe0, 0xf92ee8a9)\n      dup2\n      mstore\n      0x04\n      add\n      mload(0x40)\n      dup1\n      swap2\n      sub\n      swap1\n      revert\n        /* \"@openzeppelin/contracts-upgradeable/proxy/utils/Initializable.sol\":4851:4942  if (!initialSetup && !construction) {... */\n    tag_94:\n        /* \"@openzeppelin/contracts-upgradeable/proxy/utils/Initializable.sol\":4951:4969  $._initialized = 1 */\n      dup5\n      sload\n      not(0xffffffffffffffff)\n      and\n        /* \"@openzeppelin/contracts-upgradeable/proxy/utils/Initializable.sol\":4968:4969  1 */\n      0x01\n        /* \"@openzeppelin/contracts-upgradeable/proxy/utils/Initializable.sol\":4951:4969  $._initialized = 1 */\n      or\n      dup6\n      sstore\n        /* \"@openzeppelin/contracts-upgradeable/proxy/utils/Initializable.sol\":4979:5046  if (isTopLevelCall) {... */\n      dup4\n      iszero\n      tag_95\n      jumpi\n        /* \"@openzeppelin/contracts-upgradeable/proxy/utils/Initializable.sol\":5013:5035  $._initializing = true */\n      dup5\n      sload\n      not(shl(0x40, 0xff))\n      and\n      shl(0x40, 0x01)\n      or\n      dup6\n      sstore\n        /* \"@openzeppelin/contracts-upgradeable/proxy/utils/Initializable.sol\":4979:5046  if (isTopLevelCall) {... */\n    tag_95:\n        /* \"contracts t-rex/registry/implementation/ClaimTopicsRegistry.sol\":4142:4168  __Ownable_init(msg.sender) */\n      tag_97\n        /* \"contracts t-rex/registry/implementation/ClaimTopicsRegistry.sol\":4157:4167  msg.sender */\n      caller\n        /* \"contracts t-rex/registry/implementation/ClaimTopicsRegistry.sol\":4142:4156  __Ownable_init */\n      tag_98\n        /* \"contracts t-rex/registry/implementation/ClaimTopicsRegistry.sol\":4142:4168  __Ownable_init(msg.sender) */\n      jump\t// in\n    tag_97:\n        /* \"@openzeppelin/contracts-upgradeable/proxy/utils/Initializable.sol\":5070:5084  isTopLevelCall */\n      dup4\n        /* \"@openzeppelin/contracts-upgradeable/proxy/utils/Initializable.sol\":5066:5167  if (isTopLevelCall) {... */\n      iszero\n      tag_99\n      jumpi\n        /* \"@openzeppelin/contracts-upgradeable/proxy/utils/Initializable.sol\":5100:5123  $._initializing = false */\n      dup5\n      sload\n      not(shl(0x40, 0xff))\n      and\n      dup6\n      sstore\n        /* \"@openzeppelin/contracts-upgradeable/proxy/utils/Initializable.sol\":5142:5156  Initialized(1) */\n      mload(0x40)\n      0x01\n        /* \"#utility.yul\":2914:2964   */\n      dup2\n      mstore\n        /* \"@openzeppelin/contracts-upgradeable/proxy/utils/Initializable.sol\":5142:5156  Initialized(1) */\n      0xc7f505b2f371ae2175ee4913f4499e1f2633a7b5936321eed1cdaeb6115181d2\n      swap1\n        /* \"#utility.yul\":2902:2904   */\n      0x20\n        /* \"#utility.yul\":2887:2905   */\n      add\n        /* \"@openzeppelin/contracts-upgradeable/proxy/utils/Initializable.sol\":5142:5156  Initialized(1) */\n      mload(0x40)\n      dup1\n      swap2\n      sub\n      swap1\n      log1\n        /* \"@openzeppelin/contracts-upgradeable/proxy/utils/Initializable.sol\":5066:5167  if (isTopLevelCall) {... */\n    tag_99:\n        /* \"@openzeppelin/contracts-upgradeable/proxy/utils/Initializable.sol\":4092:5173  {... */\n      pop\n      pop\n      pop\n      pop\n      pop\n        /* \"contracts t-rex/registry/implementation/ClaimTopicsRegistry.sol\":4095:4175  function init() external initializer {... */\n      jump\t// out\n        /* \"@openzeppelin/contracts-upgradeable/access/OwnableUpgradeable.sol\":3415:3630  function transferOwnership(address newOwner) public virtual onlyOwner {... */\n    tag_33:\n        /* \"@openzeppelin/contracts-upgradeable/access/OwnableUpgradeable.sol\":2344:2357  _checkOwner() */\n      tag_103\n        /* \"@openzeppelin/contracts-upgradeable/access/OwnableUpgradeable.sol\":2344:2355  _checkOwner */\n      tag_36\n        /* \"@openzeppelin/contracts-upgradeable/access/OwnableUpgradeable.sol\":2344:2357  _checkOwner() */\n      jump\t// in\n    tag_103:\n      sub(shl(0xa0, 0x01), 0x01)\n        /* \"@openzeppelin/contracts-upgradeable/access/OwnableUpgradeable.sol\":3499:3521  newOwner == address(0) */\n      dup2\n      and\n        /* \"@openzeppelin/contracts-upgradeable/access/OwnableUpgradeable.sol\":3495:3586  if (newOwner == address(0)) {... */\n      tag_105\n      jumpi\n        /* \"@openzeppelin/contracts-upgradeable/access/OwnableUpgradeable.sol\":3544:3575  OwnableInvalidOwner(address(0)) */\n      mload(0x40)\n      shl(0xe0, 0x1e4fbdf7)\n      dup2\n      mstore\n        /* \"@openzeppelin/contracts-upgradeable/access/OwnableUpgradeable.sol\":3572:3573  0 */\n      0x00\n        /* \"@openzeppelin/contracts-upgradeable/access/OwnableUpgradeable.sol\":3544:3575  OwnableInvalidOwner(address(0)) */\n      0x04\n      dup3\n      add\n        /* \"#utility.yul\":345:396   */\n      mstore\n        /* \"#utility.yul\":318:336   */\n      0x24\n      add\n        /* \"@openzeppelin/contracts-upgradeable/access/OwnableUpgradeable.sol\":3544:3575  OwnableInvalidOwner(address(0)) */\n      tag_72\n        /* \"#utility.yul\":199:402   */\n      jump\n        /* \"@openzeppelin/contracts-upgradeable/access/OwnableUpgradeable.sol\":3495:3586  if (newOwner == address(0)) {... */\n    tag_105:\n        /* \"@openzeppelin/contracts-upgradeable/access/OwnableUpgradeable.sol\":3595:3623  _transferOwnership(newOwner) */\n      tag_107\n        /* \"@openzeppelin/contracts-upgradeable/access/OwnableUpgradeable.sol\":3614:3622  newOwner */\n      dup2\n        /* \"@openzeppelin/contracts-upgradeable/access/OwnableUpgradeable.sol\":3595:3613  _transferOwnership */\n      tag_64\n        /* \"@openzeppelin/contracts-upgradeable/access/OwnableUpgradeable.sol\":3595:3623  _transferOwnership(newOwner) */\n      jump\t// in\n    tag_107:\n        /* \"@openzeppelin/contracts-upgradeable/access/OwnableUpgradeable.sol\":3415:3630  function transferOwnership(address newOwner) public virtual onlyOwner {... */\n      pop\n      jump\t// out\n        /* \"@openzeppelin/contracts-upgradeable/access/OwnableUpgradeable.sol\":2668:2830  function _checkOwner() internal view virtual {... */\n    tag_36:\n        /* \"@openzeppelin/contracts-upgradeable/utils/ContextUpgradeable.sol\":966:976  msg.sender */\n      caller\n        /* \"@openzeppelin/contracts-upgradeable/access/OwnableUpgradeable.sol\":2727:2734  owner() */\n      tag_111\n        /* \"@openzeppelin/contracts-upgradeable/access/OwnableUpgradeable.sol\":1323:1345  OwnableStorageLocation */\n      0x9016d09d72d40fdae2fd8ceac6b6234c7706214fd39c1cd1e609a0528c199300\n        /* \"@openzeppelin/contracts-upgradeable/access/OwnableUpgradeable.sol\":2580:2588  $._owner */\n      sload\n      sub(shl(0xa0, 0x01), 0x01)\n      and\n      swap1\n        /* \"@openzeppelin/contracts-upgradeable/access/OwnableUpgradeable.sol\":2451:2595  function owner() public view virtual returns (address) {... */\n      jump\n        /* \"@openzeppelin/contracts-upgradeable/access/OwnableUpgradeable.sol\":2727:2734  owner() */\n    tag_111:\n      sub(shl(0xa0, 0x01), 0x01)\n        /* \"@openzeppelin/contracts-upgradeable/access/OwnableUpgradeable.sol\":2727:2750  owner() != _msgSender() */\n      and\n      eq\n        /* \"@openzeppelin/contracts-upgradeable/access/OwnableUpgradeable.sol\":2723:2824  if (owner() != _msgSender()) {... */\n      tag_63\n      jumpi\n        /* \"@openzeppelin/contracts-upgradeable/access/OwnableUpgradeable.sol\":2773:2813  OwnableUnauthorizedAccount(_msgSender()) */\n      mload(0x40)\n      shl(0xe0, 0x118cdaa7)\n      dup2\n      mstore\n        /* \"@openzeppelin/contracts-upgradeable/utils/ContextUpgradeable.sol\":966:976  msg.sender */\n      caller\n        /* \"@openzeppelin/contracts-upgradeable/access/OwnableUpgradeable.sol\":2773:2813  OwnableUnauthorizedAccount(_msgSender()) */\n      0x04\n      dup3\n      add\n        /* \"#utility.yul\":345:396   */\n      mstore\n        /* \"#utility.yul\":318:336   */\n      0x24\n      add\n        /* \"@openzeppelin/contracts-upgradeable/access/OwnableUpgradeable.sol\":2773:2813  OwnableUnauthorizedAccount(_msgSender()) */\n      tag_72\n        /* \"#utility.yul\":199:402   */\n      jump\n        /* \"@openzeppelin/contracts-upgradeable/access/OwnableUpgradeable.sol\":3784:4032  function _transferOwnership(address newOwner) internal virtual {... */\n    tag_64:\n        /* \"@openzeppelin/contracts-upgradeable/access/OwnableUpgradeable.sol\":1323:1345  OwnableStorageLocation */\n      0x9016d09d72d40fdae2fd8ceac6b6234c7706214fd39c1cd1e609a0528c199300\n        /* \"@openzeppelin/contracts-upgradeable/access/OwnableUpgradeable.sol\":3933:3941  $._owner */\n      dup1\n      sload\n      not(sub(shl(0xa0, 0x01), 0x01))\n        /* \"@openzeppelin/contracts-upgradeable/access/OwnableUpgradeable.sol\":3951:3970  $._owner = newOwner */\n      dup2\n      and\n      sub(shl(0xa0, 0x01), 0x01)\n      dup5\n      dup2\n      and\n      swap2\n      dup3\n      or\n      dup5\n      sstore\n        /* \"@openzeppelin/contracts-upgradeable/access/OwnableUpgradeable.sol\":3985:4025  OwnershipTransferred(oldOwner, newOwner) */\n      mload(0x40)\n        /* \"@openzeppelin/contracts-upgradeable/access/OwnableUpgradeable.sol\":3933:3941  $._owner */\n      swap3\n      and\n      swap2\n      dup3\n      swap1\n        /* \"@openzeppelin/contracts-upgradeable/access/OwnableUpgradeable.sol\":3985:4025  OwnershipTransferred(oldOwner, newOwner) */\n      0x8be0079c531659141344cd1fd0a4f28419497f9722a3daafe3b4186f6b6457e0\n      swap1\n        /* \"@openzeppelin/contracts-upgradeable/access/OwnableUpgradeable.sol\":3857:3881  OwnableStorage storage $ */\n      0x00\n      swap1\n        /* \"@openzeppelin/contracts-upgradeable/access/OwnableUpgradeable.sol\":3985:4025  OwnershipTransferred(oldOwner, newOwner) */\n      log3\n        /* \"@openzeppelin/contracts-upgradeable/access/OwnableUpgradeable.sol\":3847:4032  {... */\n      pop\n      pop\n        /* \"@openzeppelin/contracts-upgradeable/access/OwnableUpgradeable.sol\":3784:4032  function _transferOwnership(address newOwner) internal virtual {... */\n      pop\n      jump\t// out\n        /* \"@openzeppelin/contracts-upgradeable/access/OwnableUpgradeable.sol\":1857:1984  function __Ownable_init(address initialOwner) internal onlyInitializing {... */\n    tag_98:\n        /* \"@openzeppelin/contracts-upgradeable/proxy/utils/Initializable.sol\":6931:6951  _checkInitializing() */\n      tag_120\n        /* \"@openzeppelin/contracts-upgradeable/proxy/utils/Initializable.sol\":6931:6949  _checkInitializing */\n      tag_121\n        /* \"@openzeppelin/contracts-upgradeable/proxy/utils/Initializable.sol\":6931:6951  _checkInitializing() */\n      jump\t// in\n    tag_120:\n        /* \"@openzeppelin/contracts-upgradeable/access/OwnableUpgradeable.sol\":1939:1977  __Ownable_init_unchained(initialOwner) */\n      tag_107\n        /* \"@openzeppelin/contracts-upgradeable/access/OwnableUpgradeable.sol\":1964:1976  initialOwner */\n      dup2\n        /* \"@openzeppelin/contracts-upgradeable/access/OwnableUpgradeable.sol\":1939:1963  __Ownable_init_unchained */\n      tag_124\n        /* \"@openzeppelin/contracts-upgradeable/access/OwnableUpgradeable.sol\":1939:1977  __Ownable_init_unchained(initialOwner) */\n      jump\t// in\n        /* \"@openzeppelin/contracts-upgradeable/proxy/utils/Initializable.sol\":7084:7225  function _checkInitializing() internal view virtual {... */\n    tag_121:\n        /* \"@openzeppelin/contracts-upgradeable/proxy/utils/Initializable.sol\":8870:8891  INITIALIZABLE_STORAGE */\n      0xf0c57e16840df040f15088dc2f81fe391c3923bec73e23a9662efc9c229c6a00\n        /* \"@openzeppelin/contracts-upgradeable/proxy/utils/Initializable.sol\":8560:8600  _getInitializableStorage()._initializing */\n      sload\n      shl(0x40, 0x01)\n      swap1\n      div\n      0xff\n      and\n        /* \"@openzeppelin/contracts-upgradeable/proxy/utils/Initializable.sol\":7146:7219  if (!_isInitializing()) {... */\n      tag_63\n      jumpi\n        /* \"@openzeppelin/contracts-upgradeable/proxy/utils/Initializable.sol\":7191:7208  NotInitializing() */\n      mload(0x40)\n      shl(0xe3, 0x1afcd79f)\n      dup2\n      mstore\n      0x04\n      add\n      mload(0x40)\n      dup1\n      swap2\n      sub\n      swap1\n      revert\n        /* \"@openzeppelin/contracts-upgradeable/access/OwnableUpgradeable.sol\":1990:2225  function __Ownable_init_unchained(address initialOwner) internal onlyInitializing {... */\n    tag_124:\n        /* \"@openzeppelin/contracts-upgradeable/proxy/utils/Initializable.sol\":6931:6951  _checkInitializing() */\n      tag_103\n        /* \"@openzeppelin/contracts-upgradeable/proxy/utils/Initializable.sol\":6931:6949  _checkInitializing */\n      tag_121\n        /* \"@openzeppelin/contracts-upgradeable/proxy/utils/Initializable.sol\":6931:6951  _checkInitializing() */\n      jump\t// in\n        /* \"#utility.yul\":14:194   */\n    tag_13:\n        /* \"#utility.yul\":73:79   */\n      0x00\n        /* \"#utility.yul\":126:128   */\n      0x20\n        /* \"#utility.yul\":114:123   */\n      dup3\n        /* \"#utility.yul\":105:112   */\n      dup5\n        /* \"#utility.yul\":101:124   */\n      sub\n        /* \"#utility.yul\":97:129   */\n      slt\n        /* \"#utility.yul\":94:146   */\n      iszero\n      tag_141\n      jumpi\n        /* \"#utility.yul\":142:143   */\n      0x00\n        /* \"#utility.yul\":139:140   */\n      dup1\n        /* \"#utility.yul\":132:144   */\n      revert\n        /* \"#utility.yul\":94:146   */\n    tag_141:\n      pop\n        /* \"#utility.yul\":165:188   */\n      calldataload\n      swap2\n        /* \"#utility.yul\":14:194   */\n      swap1\n      pop\n      jump\t// out\n        /* \"#utility.yul\":407:1039   */\n    tag_27:\n        /* \"#utility.yul\":578:580   */\n      0x20\n        /* \"#utility.yul\":630:651   */\n      dup1\n      dup3\n      mstore\n        /* \"#utility.yul\":700:713   */\n      dup3\n      mload\n        /* \"#utility.yul\":603:621   */\n      dup3\n      dup3\n      add\n        /* \"#utility.yul\":722:744   */\n      dup2\n      swap1\n      mstore\n        /* \"#utility.yul\":549:553   */\n      0x00\n      swap2\n        /* \"#utility.yul\":578:580   */\n      swap1\n        /* \"#utility.yul\":801:816   */\n      dup5\n      dup3\n      add\n      swap1\n        /* \"#utility.yul\":775:777   */\n      0x40\n        /* \"#utility.yul\":760:778   */\n      dup6\n      add\n      swap1\n        /* \"#utility.yul\":549:553   */\n      dup5\n        /* \"#utility.yul\":844:1013   */\n    tag_144:\n        /* \"#utility.yul\":858:864   */\n      dup2\n        /* \"#utility.yul\":855:856   */\n      dup2\n        /* \"#utility.yul\":852:865   */\n      lt\n        /* \"#utility.yul\":844:1013   */\n      iszero\n      tag_146\n      jumpi\n        /* \"#utility.yul\":919:932   */\n      dup4\n      mload\n        /* \"#utility.yul\":907:933   */\n      dup4\n      mstore\n        /* \"#utility.yul\":988:1003   */\n      swap3\n      dup5\n      add\n      swap3\n        /* \"#utility.yul\":953:965   */\n      swap2\n      dup5\n      add\n      swap2\n        /* \"#utility.yul\":880:881   */\n      0x01\n        /* \"#utility.yul\":873:882   */\n      add\n        /* \"#utility.yul\":844:1013   */\n      jump(tag_144)\n    tag_146:\n      pop\n        /* \"#utility.yul\":1030:1033   */\n      swap1\n      swap7\n        /* \"#utility.yul\":407:1039   */\n      swap6\n      pop\n      pop\n      pop\n      pop\n      pop\n      pop\n      jump\t// out\n        /* \"#utility.yul\":1044:1330   */\n    tag_32:\n        /* \"#utility.yul\":1103:1109   */\n      0x00\n        /* \"#utility.yul\":1156:1158   */\n      0x20\n        /* \"#utility.yul\":1144:1153   */\n      dup3\n        /* \"#utility.yul\":1135:1142   */\n      dup5\n        /* \"#utility.yul\":1131:1154   */\n      sub\n        /* \"#utility.yul\":1127:1159   */\n      slt\n        /* \"#utility.yul\":1124:1176   */\n      iszero\n      tag_148\n      jumpi\n        /* \"#utility.yul\":1172:1173   */\n      0x00\n        /* \"#utility.yul\":1169:1170   */\n      dup1\n        /* \"#utility.yul\":1162:1174   */\n      revert\n        /* \"#utility.yul\":1124:1176   */\n    tag_148:\n        /* \"#utility.yul\":1198:1221   */\n      dup2\n      calldataload\n      sub(shl(0xa0, 0x01), 0x01)\n        /* \"#utility.yul\":1250:1281   */\n      dup2\n      and\n        /* \"#utility.yul\":1240:1282   */\n      dup2\n      eq\n        /* \"#utility.yul\":1230:1300   */\n      tag_149\n      jumpi\n        /* \"#utility.yul\":1296:1297   */\n      0x00\n        /* \"#utility.yul\":1293:1294   */\n      dup1\n        /* \"#utility.yul\":1286:1298   */\n      revert\n        /* \"#utility.yul\":1230:1300   */\n    tag_149:\n        /* \"#utility.yul\":1319:1324   */\n      swap4\n        /* \"#utility.yul\":1044:1330   */\n      swap3\n      pop\n      pop\n      pop\n      jump\t// out\n        /* \"#utility.yul\":1335:1462   */\n    tag_43:\n        /* \"#utility.yul\":1396:1406   */\n      0x4e487b71\n        /* \"#utility.yul\":1391:1394   */\n      0xe0\n        /* \"#utility.yul\":1387:1407   */\n      shl\n        /* \"#utility.yul\":1384:1385   */\n      0x00\n        /* \"#utility.yul\":1377:1408   */\n      mstore\n        /* \"#utility.yul\":1427:1431   */\n      0x32\n        /* \"#utility.yul\":1424:1425   */\n      0x04\n        /* \"#utility.yul\":1417:1432   */\n      mstore\n        /* \"#utility.yul\":1451:1455   */\n      0x24\n        /* \"#utility.yul\":1448:1449   */\n      0x00\n        /* \"#utility.yul\":1441:1456   */\n      revert\n        /* \"#utility.yul\":1467:1594   */\n    tag_138:\n        /* \"#utility.yul\":1528:1538   */\n      0x4e487b71\n        /* \"#utility.yul\":1523:1526   */\n      0xe0\n        /* \"#utility.yul\":1519:1539   */\n      shl\n        /* \"#utility.yul\":1516:1517   */\n      0x00\n        /* \"#utility.yul\":1509:1540   */\n      mstore\n        /* \"#utility.yul\":1559:1563   */\n      0x11\n        /* \"#utility.yul\":1556:1557   */\n      0x04\n        /* \"#utility.yul\":1549:1564   */\n      mstore\n        /* \"#utility.yul\":1583:1587   */\n      0x24\n        /* \"#utility.yul\":1580:1581   */\n      0x00\n        /* \"#utility.yul\":1573:1588   */\n      revert\n        /* \"#utility.yul\":1599:1727   */\n    tag_47:\n        /* \"#utility.yul\":1666:1675   */\n      dup2\n      dup2\n      sub\n        /* \"#utility.yul\":1687:1698   */\n      dup2\n      dup2\n      gt\n        /* \"#utility.yul\":1684:1721   */\n      iszero\n      tag_154\n      jumpi\n        /* \"#utility.yul\":1701:1719   */\n      tag_154\n      tag_138\n      jump\t// in\n    tag_154:\n        /* \"#utility.yul\":1599:1727   */\n      swap3\n      swap2\n      pop\n      pop\n      jump\t// out\n        /* \"#utility.yul\":1732:1859   */\n    tag_56:\n        /* \"#utility.yul\":1793:1803   */\n      0x4e487b71\n        /* \"#utility.yul\":1788:1791   */\n      0xe0\n        /* \"#utility.yul\":1784:1804   */\n      shl\n        /* \"#utility.yul\":1781:1782   */\n      0x00\n        /* \"#utility.yul\":1774:1805   */\n      mstore\n        /* \"#utility.yul\":1824:1828   */\n      0x31\n        /* \"#utility.yul\":1821:1822   */\n      0x04\n        /* \"#utility.yul\":1814:1829   */\n      mstore\n        /* \"#utility.yul\":1848:1852   */\n      0x24\n        /* \"#utility.yul\":1845:1846   */\n      0x00\n        /* \"#utility.yul\":1838:1853   */\n      revert\n        /* \"#utility.yul\":1864:1999   */\n    tag_59:\n        /* \"#utility.yul\":1903:1906   */\n      0x00\n        /* \"#utility.yul\":1924:1941   */\n      0x01\n      dup3\n      add\n        /* \"#utility.yul\":1921:1964   */\n      tag_158\n      jumpi\n        /* \"#utility.yul\":1944:1962   */\n      tag_158\n      tag_138\n      jump\t// in\n    tag_158:\n      pop\n        /* \"#utility.yul\":1991:1992   */\n      0x01\n        /* \"#utility.yul\":1980:1993   */\n      add\n      swap1\n        /* \"#utility.yul\":1864:1999   */\n      jump\t// out\n\n    auxdata: 0xa2646970667358221220d6a1e8eece6b967362d42c4fc65193d0604d09e20eba3c0013ab16acdba8d31b64736f6c63430008110033\n}\n",
				"bytecode": {
					"linkReferences": {},
					"object": "608060405234801561001057600080fd5b50610785806100206000396000f3fe608060405234801561001057600080fd5b506004361061007d5760003560e01c8063c7b225511161005b578063c7b22551146100de578063df09d604146100f1578063e1c7392a14610106578063f2fde38b1461010e57600080fd5b80630829784614610082578063715018a6146100975780638da5cb5b1461009f575b600080fd5b61009561009036600461064e565b610121565b005b610095610214565b7f9016d09d72d40fdae2fd8ceac6b6234c7706214fd39c1cd1e609a0528c199300546040516001600160a01b0390911681526020015b60405180910390f35b6100956100ec36600461064e565b610228565b6100f961037b565b6040516100d59190610667565b6100956103d3565b61009561011c3660046106ab565b6104e2565b610129610520565b60008054905b8181101561020f57826000828154811061014b5761014b6106db565b9060005260206000200154036101fd576000610168600184610707565b81548110610178576101786106db565b906000526020600020015460008281548110610196576101966106db565b906000526020600020018190555060008054806101b5576101b5610720565b60019003818190600052602060002001600090559055827f0b1381093c776453c1bbe54fd68be1b235c65db61d099cb50d194b2991e0eec560405160405180910390a2505050565b8061020781610736565b91505061012f565b505050565b61021c610520565b610226600061057b565b565b610230610520565b600054600f81106102935760405162461bcd60e51b815260206004820152602260248201527f63616e6e6f742072657175697265206d6f7265207468616e20313520746f7069604482015261637360f01b60648201526084015b60405180910390fd5b60005b8181101561031c5782600082815481106102b2576102b26106db565b90600052602060002001540361030a5760405162461bcd60e51b815260206004820152601960248201527f636c61696d546f70696320616c72656164792065786973747300000000000000604482015260640161028a565b8061031481610736565b915050610296565b50600080546001810182558180527f290decd9548b62a8d60345a988386fc84ba6bc95484008f6362f93160ef3e5630183905560405183917f01c928b7f7ade2949e92366aa9454dbef3a416b731cf6ec786ba9595bbd814d691a25050565b606060008054806020026020016040519081016040528092919081815260200182805480156103c957602002820191906000526020600020905b8154815260200190600101908083116103b5575b5050505050905090565b7ff0c57e16840df040f15088dc2f81fe391c3923bec73e23a9662efc9c229c6a008054600160401b810460ff16159067ffffffffffffffff166000811580156104195750825b905060008267ffffffffffffffff1660011480156104365750303b155b905081158015610444575080155b156104625760405163f92ee8a960e01b815260040160405180910390fd5b845467ffffffffffffffff19166001178555831561048c57845460ff60401b1916600160401b1785555b610495336105ec565b83156104db57845460ff60401b19168555604051600181527fc7f505b2f371ae2175ee4913f4499e1f2633a7b5936321eed1cdaeb6115181d29060200160405180910390a15b5050505050565b6104ea610520565b6001600160a01b03811661051457604051631e4fbdf760e01b81526000600482015260240161028a565b61051d8161057b565b50565b336105527f9016d09d72d40fdae2fd8ceac6b6234c7706214fd39c1cd1e609a0528c199300546001600160a01b031690565b6001600160a01b0316146102265760405163118cdaa760e01b815233600482015260240161028a565b7f9016d09d72d40fdae2fd8ceac6b6234c7706214fd39c1cd1e609a0528c19930080546001600160a01b031981166001600160a01b03848116918217845560405192169182907f8be0079c531659141344cd1fd0a4f28419497f9722a3daafe3b4186f6b6457e090600090a3505050565b6105f46105fd565b61051d81610646565b7ff0c57e16840df040f15088dc2f81fe391c3923bec73e23a9662efc9c229c6a0054600160401b900460ff1661022657604051631afcd79f60e31b815260040160405180910390fd5b6104ea6105fd565b60006020828403121561066057600080fd5b5035919050565b6020808252825182820181905260009190848201906040850190845b8181101561069f57835183529284019291840191600101610683565b50909695505050505050565b6000602082840312156106bd57600080fd5b81356001600160a01b03811681146106d457600080fd5b9392505050565b634e487b7160e01b600052603260045260246000fd5b634e487b7160e01b600052601160045260246000fd5b8181038181111561071a5761071a6106f1565b92915050565b634e487b7160e01b600052603160045260246000fd5b600060018201610748576107486106f1565b506001019056fea2646970667358221220d6a1e8eece6b967362d42c4fc65193d0604d09e20eba3c0013ab16acdba8d31b64736f6c63430008110033",
					"opcodes": "PUSH1 0x80 PUSH1 0x40 MSTORE CALLVALUE DUP1 ISZERO PUSH2 0x10 JUMPI PUSH1 0x0 DUP1 REVERT JUMPDEST POP PUSH2 0x785 DUP1 PUSH2 0x20 PUSH1 0x0 CODECOPY PUSH1 0x0 RETURN INVALID PUSH1 0x80 PUSH1 0x40 MSTORE CALLVALUE DUP1 ISZERO PUSH2 0x10 JUMPI PUSH1 0x0 DUP1 REVERT JUMPDEST POP PUSH1 0x4 CALLDATASIZE LT PUSH2 0x7D JUMPI PUSH1 0x0 CALLDATALOAD PUSH1 0xE0 SHR DUP1 PUSH4 0xC7B22551 GT PUSH2 0x5B JUMPI DUP1 PUSH4 0xC7B22551 EQ PUSH2 0xDE JUMPI DUP1 PUSH4 0xDF09D604 EQ PUSH2 0xF1 JUMPI DUP1 PUSH4 0xE1C7392A EQ PUSH2 0x106 JUMPI DUP1 PUSH4 0xF2FDE38B EQ PUSH2 0x10E JUMPI PUSH1 0x0 DUP1 REVERT JUMPDEST DUP1 PUSH4 0x8297846 EQ PUSH2 0x82 JUMPI DUP1 PUSH4 0x715018A6 EQ PUSH2 0x97 JUMPI DUP1 PUSH4 0x8DA5CB5B EQ PUSH2 0x9F JUMPI JUMPDEST PUSH1 0x0 DUP1 REVERT JUMPDEST PUSH2 0x95 PUSH2 0x90 CALLDATASIZE PUSH1 0x4 PUSH2 0x64E JUMP JUMPDEST PUSH2 0x121 JUMP JUMPDEST STOP JUMPDEST PUSH2 0x95 PUSH2 0x214 JUMP JUMPDEST PUSH32 0x9016D09D72D40FDAE2FD8CEAC6B6234C7706214FD39C1CD1E609A0528C199300 SLOAD PUSH1 0x40 MLOAD PUSH1 0x1 PUSH1 0x1 PUSH1 0xA0 SHL SUB SWAP1 SWAP2 AND DUP2 MSTORE PUSH1 0x20 ADD JUMPDEST PUSH1 0x40 MLOAD DUP1 SWAP2 SUB SWAP1 RETURN JUMPDEST PUSH2 0x95 PUSH2 0xEC CALLDATASIZE PUSH1 0x4 PUSH2 0x64E JUMP JUMPDEST PUSH2 0x228 JUMP JUMPDEST PUSH2 0xF9 PUSH2 0x37B JUMP JUMPDEST PUSH1 0x40 MLOAD PUSH2 0xD5 SWAP2 SWAP1 PUSH2 0x667 JUMP JUMPDEST PUSH2 0x95 PUSH2 0x3D3 JUMP JUMPDEST PUSH2 0x95 PUSH2 0x11C CALLDATASIZE PUSH1 0x4 PUSH2 0x6AB JUMP JUMPDEST PUSH2 0x4E2 JUMP JUMPDEST PUSH2 0x129 PUSH2 0x520 JUMP JUMPDEST PUSH1 0x0 DUP1 SLOAD SWAP1 JUMPDEST DUP2 DUP2 LT ISZERO PUSH2 0x20F JUMPI DUP3 PUSH1 0x0 DUP3 DUP2 SLOAD DUP2 LT PUSH2 0x14B JUMPI PUSH2 0x14B PUSH2 0x6DB JUMP JUMPDEST SWAP1 PUSH1 0x0 MSTORE PUSH1 0x20 PUSH1 0x0 KECCAK256 ADD SLOAD SUB PUSH2 0x1FD JUMPI PUSH1 0x0 PUSH2 0x168 PUSH1 0x1 DUP5 PUSH2 0x707 JUMP JUMPDEST DUP2 SLOAD DUP2 LT PUSH2 0x178 JUMPI PUSH2 0x178 PUSH2 0x6DB JUMP JUMPDEST SWAP1 PUSH1 0x0 MSTORE PUSH1 0x20 PUSH1 0x0 KECCAK256 ADD SLOAD PUSH1 0x0 DUP3 DUP2 SLOAD DUP2 LT PUSH2 0x196 JUMPI PUSH2 0x196 PUSH2 0x6DB JUMP JUMPDEST SWAP1 PUSH1 0x0 MSTORE PUSH1 0x20 PUSH1 0x0 KECCAK256 ADD DUP2 SWAP1 SSTORE POP PUSH1 0x0 DUP1 SLOAD DUP1 PUSH2 0x1B5 JUMPI PUSH2 0x1B5 PUSH2 0x720 JUMP JUMPDEST PUSH1 0x1 SWAP1 SUB DUP2 DUP2 SWAP1 PUSH1 0x0 MSTORE PUSH1 0x20 PUSH1 0x0 KECCAK256 ADD PUSH1 0x0 SWAP1 SSTORE SWAP1 SSTORE DUP3 PUSH32 0xB1381093C776453C1BBE54FD68BE1B235C65DB61D099CB50D194B2991E0EEC5 PUSH1 0x40 MLOAD PUSH1 0x40 MLOAD DUP1 SWAP2 SUB SWAP1 LOG2 POP POP POP JUMP JUMPDEST DUP1 PUSH2 0x207 DUP2 PUSH2 0x736 JUMP JUMPDEST SWAP2 POP POP PUSH2 0x12F JUMP JUMPDEST POP POP POP JUMP JUMPDEST PUSH2 0x21C PUSH2 0x520 JUMP JUMPDEST PUSH2 0x226 PUSH1 0x0 PUSH2 0x57B JUMP JUMPDEST JUMP JUMPDEST PUSH2 0x230 PUSH2 0x520 JUMP JUMPDEST PUSH1 0x0 SLOAD PUSH1 0xF DUP2 LT PUSH2 0x293 JUMPI PUSH1 0x40 MLOAD PUSH3 0x461BCD PUSH1 0xE5 SHL DUP2 MSTORE PUSH1 0x20 PUSH1 0x4 DUP3 ADD MSTORE PUSH1 0x22 PUSH1 0x24 DUP3 ADD MSTORE PUSH32 0x63616E6E6F742072657175697265206D6F7265207468616E20313520746F7069 PUSH1 0x44 DUP3 ADD MSTORE PUSH2 0x6373 PUSH1 0xF0 SHL PUSH1 0x64 DUP3 ADD MSTORE PUSH1 0x84 ADD JUMPDEST PUSH1 0x40 MLOAD DUP1 SWAP2 SUB SWAP1 REVERT JUMPDEST PUSH1 0x0 JUMPDEST DUP2 DUP2 LT ISZERO PUSH2 0x31C JUMPI DUP3 PUSH1 0x0 DUP3 DUP2 SLOAD DUP2 LT PUSH2 0x2B2 JUMPI PUSH2 0x2B2 PUSH2 0x6DB JUMP JUMPDEST SWAP1 PUSH1 0x0 MSTORE PUSH1 0x20 PUSH1 0x0 KECCAK256 ADD SLOAD SUB PUSH2 0x30A JUMPI PUSH1 0x40 MLOAD PUSH3 0x461BCD PUSH1 0xE5 SHL DUP2 MSTORE PUSH1 0x20 PUSH1 0x4 DUP3 ADD MSTORE PUSH1 0x19 PUSH1 0x24 DUP3 ADD MSTORE PUSH32 0x636C61696D546F70696320616C72656164792065786973747300000000000000 PUSH1 0x44 DUP3 ADD MSTORE PUSH1 0x64 ADD PUSH2 0x28A JUMP JUMPDEST DUP1 PUSH2 0x314 DUP2 PUSH2 0x736 JUMP JUMPDEST SWAP2 POP POP PUSH2 0x296 JUMP JUMPDEST POP PUSH1 0x0 DUP1 SLOAD PUSH1 0x1 DUP2 ADD DUP3 SSTORE DUP2 DUP1 MSTORE PUSH32 0x290DECD9548B62A8D60345A988386FC84BA6BC95484008F6362F93160EF3E563 ADD DUP4 SWAP1 SSTORE PUSH1 0x40 MLOAD DUP4 SWAP2 PUSH32 0x1C928B7F7ADE2949E92366AA9454DBEF3A416B731CF6EC786BA9595BBD814D6 SWAP2 LOG2 POP POP JUMP JUMPDEST PUSH1 0x60 PUSH1 0x0 DUP1 SLOAD DUP1 PUSH1 0x20 MUL PUSH1 0x20 ADD PUSH1 0x40 MLOAD SWAP1 DUP2 ADD PUSH1 0x40 MSTORE DUP1 SWAP3 SWAP2 SWAP1 DUP2 DUP2 MSTORE PUSH1 0x20 ADD DUP3 DUP1 SLOAD DUP1 ISZERO PUSH2 0x3C9 JUMPI PUSH1 0x20 MUL DUP3 ADD SWAP2 SWAP1 PUSH1 0x0 MSTORE PUSH1 0x20 PUSH1 0x0 KECCAK256 SWAP1 JUMPDEST DUP2 SLOAD DUP2 MSTORE PUSH1 0x20 ADD SWAP1 PUSH1 0x1 ADD SWAP1 DUP1 DUP4 GT PUSH2 0x3B5 JUMPI JUMPDEST POP POP POP POP POP SWAP1 POP SWAP1 JUMP JUMPDEST PUSH32 0xF0C57E16840DF040F15088DC2F81FE391C3923BEC73E23A9662EFC9C229C6A00 DUP1 SLOAD PUSH1 0x1 PUSH1 0x40 SHL DUP2 DIV PUSH1 0xFF AND ISZERO SWAP1 PUSH8 0xFFFFFFFFFFFFFFFF AND PUSH1 0x0 DUP2 ISZERO DUP1 ISZERO PUSH2 0x419 JUMPI POP DUP3 JUMPDEST SWAP1 POP PUSH1 0x0 DUP3 PUSH8 0xFFFFFFFFFFFFFFFF AND PUSH1 0x1 EQ DUP1 ISZERO PUSH2 0x436 JUMPI POP ADDRESS EXTCODESIZE ISZERO JUMPDEST SWAP1 POP DUP2 ISZERO DUP1 ISZERO PUSH2 0x444 JUMPI POP DUP1 ISZERO JUMPDEST ISZERO PUSH2 0x462 JUMPI PUSH1 0x40 MLOAD PUSH4 0xF92EE8A9 PUSH1 0xE0 SHL DUP2 MSTORE PUSH1 0x4 ADD PUSH1 0x40 MLOAD DUP1 SWAP2 SUB SWAP1 REVERT JUMPDEST DUP5 SLOAD PUSH8 0xFFFFFFFFFFFFFFFF NOT AND PUSH1 0x1 OR DUP6 SSTORE DUP4 ISZERO PUSH2 0x48C JUMPI DUP5 SLOAD PUSH1 0xFF PUSH1 0x40 SHL NOT AND PUSH1 0x1 PUSH1 0x40 SHL OR DUP6 SSTORE JUMPDEST PUSH2 0x495 CALLER PUSH2 0x5EC JUMP JUMPDEST DUP4 ISZERO PUSH2 0x4DB JUMPI DUP5 SLOAD PUSH1 0xFF PUSH1 0x40 SHL NOT AND DUP6 SSTORE PUSH1 0x40 MLOAD PUSH1 0x1 DUP2 MSTORE PUSH32 0xC7F505B2F371AE2175EE4913F4499E1F2633A7B5936321EED1CDAEB6115181D2 SWAP1 PUSH1 0x20 ADD PUSH1 0x40 MLOAD DUP1 SWAP2 SUB SWAP1 LOG1 JUMPDEST POP POP POP POP POP JUMP JUMPDEST PUSH2 0x4EA PUSH2 0x520 JUMP JUMPDEST PUSH1 0x1 PUSH1 0x1 PUSH1 0xA0 SHL SUB DUP2 AND PUSH2 0x514 JUMPI PUSH1 0x40 MLOAD PUSH4 0x1E4FBDF7 PUSH1 0xE0 SHL DUP2 MSTORE PUSH1 0x0 PUSH1 0x4 DUP3 ADD MSTORE PUSH1 0x24 ADD PUSH2 0x28A JUMP JUMPDEST PUSH2 0x51D DUP2 PUSH2 0x57B JUMP JUMPDEST POP JUMP JUMPDEST CALLER PUSH2 0x552 PUSH32 0x9016D09D72D40FDAE2FD8CEAC6B6234C7706214FD39C1CD1E609A0528C199300 SLOAD PUSH1 0x1 PUSH1 0x1 PUSH1 0xA0 SHL SUB AND SWAP1 JUMP JUMPDEST PUSH1 0x1 PUSH1 0x1 PUSH1 0xA0 SHL SUB AND EQ PUSH2 0x226 JUMPI PUSH1 0x40 MLOAD PUSH4 0x118CDAA7 PUSH1 0xE0 SHL DUP2 MSTORE CALLER PUSH1 0x4 DUP3 ADD MSTORE PUSH1 0x24 ADD PUSH2 0x28A JUMP JUMPDEST PUSH32 0x9016D09D72D40FDAE2FD8CEAC6B6234C7706214FD39C1CD1E609A0528C199300 DUP1 SLOAD PUSH1 0x1 PUSH1 0x1 PUSH1 0xA0 SHL SUB NOT DUP2 AND PUSH1 0x1 PUSH1 0x1 PUSH1 0xA0 SHL SUB DUP5 DUP2 AND SWAP2 DUP3 OR DUP5 SSTORE PUSH1 0x40 MLOAD SWAP3 AND SWAP2 DUP3 SWAP1 PUSH32 0x8BE0079C531659141344CD1FD0A4F28419497F9722A3DAAFE3B4186F6B6457E0 SWAP1 PUSH1 0x0 SWAP1 LOG3 POP POP POP JUMP JUMPDEST PUSH2 0x5F4 PUSH2 0x5FD JUMP JUMPDEST PUSH2 0x51D DUP2 PUSH2 0x646 JUMP JUMPDEST PUSH32 0xF0C57E16840DF040F15088DC2F81FE391C3923BEC73E23A9662EFC9C229C6A00 SLOAD PUSH1 0x1 PUSH1 0x40 SHL SWAP1 DIV PUSH1 0xFF AND PUSH2 0x226 JUMPI PUSH1 0x40 MLOAD PUSH4 0x1AFCD79F PUSH1 0xE3 SHL DUP2 MSTORE PUSH1 0x4 ADD PUSH1 0x40 MLOAD DUP1 SWAP2 SUB SWAP1 REVERT JUMPDEST PUSH2 0x4EA PUSH2 0x5FD JUMP JUMPDEST PUSH1 0x0 PUSH1 0x20 DUP3 DUP5 SUB SLT ISZERO PUSH2 0x660 JUMPI PUSH1 0x0 DUP1 REVERT JUMPDEST POP CALLDATALOAD SWAP2 SWAP1 POP JUMP JUMPDEST PUSH1 0x20 DUP1 DUP3 MSTORE DUP3 MLOAD DUP3 DUP3 ADD DUP2 SWAP1 MSTORE PUSH1 0x0 SWAP2 SWAP1 DUP5 DUP3 ADD SWAP1 PUSH1 0x40 DUP6 ADD SWAP1 DUP5 JUMPDEST DUP2 DUP2 LT ISZERO PUSH2 0x69F JUMPI DUP4 MLOAD DUP4 MSTORE SWAP3 DUP5 ADD SWAP3 SWAP2 DUP5 ADD SWAP2 PUSH1 0x1 ADD PUSH2 0x683 JUMP JUMPDEST POP SWAP1 SWAP7 SWAP6 POP POP POP POP POP POP JUMP JUMPDEST PUSH1 0x0 PUSH1 0x20 DUP3 DUP5 SUB SLT ISZERO PUSH2 0x6BD JUMPI PUSH1 0x0 DUP1 REVERT JUMPDEST DUP2 CALLDATALOAD PUSH1 0x1 PUSH1 0x1 PUSH1 0xA0 SHL SUB DUP2 AND DUP2 EQ PUSH2 0x6D4 JUMPI PUSH1 0x0 DUP1 REVERT JUMPDEST SWAP4 SWAP3 POP POP POP JUMP JUMPDEST PUSH4 0x4E487B71 PUSH1 0xE0 SHL PUSH1 0x0 MSTORE PUSH1 0x32 PUSH1 0x4 MSTORE PUSH1 0x24 PUSH1 0x0 REVERT JUMPDEST PUSH4 0x4E487B71 PUSH1 0xE0 SHL PUSH1 0x0 MSTORE PUSH1 0x11 PUSH1 0x4 MSTORE PUSH1 0x24 PUSH1 0x0 REVERT JUMPDEST DUP2 DUP2 SUB DUP2 DUP2 GT ISZERO PUSH2 0x71A JUMPI PUSH2 0x71A PUSH2 0x6F1 JUMP JUMPDEST SWAP3 SWAP2 POP POP JUMP JUMPDEST PUSH4 0x4E487B71 PUSH1 0xE0 SHL PUSH1 0x0 MSTORE PUSH1 0x31 PUSH1 0x4 MSTORE PUSH1 0x24 PUSH1 0x0 REVERT JUMPDEST PUSH1 0x0 PUSH1 0x1 DUP3 ADD PUSH2 0x748 JUMPI PUSH2 0x748 PUSH2 0x6F1 JUMP JUMPDEST POP PUSH1 0x1 ADD SWAP1 JUMP INVALID LOG2 PUSH5 0x6970667358 0x22 SLT KECCAK256 0xD6 LOG1 0xE8 0xEE 0xCE PUSH12 0x967362D42C4FC65193D0604D MULMOD 0xE2 0xE 0xBA EXTCODECOPY STOP SGT 0xAB AND 0xAC 0xDB 0xA8 0xD3 SHL PUSH5 0x736F6C6343 STOP ADDMOD GT STOP CALLER "
				},
				"gasEstimates": {
					"creation": {
						"codeDepositCost": "385000",
						"executionCost": "424",
						"totalCost": "385424"
					},
					"external": {
						"addClaimTopic(uint256)": "infinite",
						"getClaimTopics()": "infinite",
						"init()": "infinite",
						"owner()": "2335",
						"removeClaimTopic(uint256)": "infinite",
						"renounceOwnership()": "infinite",
						"transferOwnership(address)": "28399"
					}
				},
				"methodIdentifiers": {
					"addClaimTopic(uint256)": "c7b22551",
					"getClaimTopics()": "df09d604",
					"init()": "e1c7392a",
					"owner()": "8da5cb5b",
					"removeClaimTopic(uint256)": "08297846",
					"renounceOwnership()": "715018a6",
					"transferOwnership(address)": "f2fde38b"
				}
			},
			"storageLayout": {
				"storage": [
					{
						"astId": 667,
						"contract": "contracts t-rex/registry/implementation/ClaimTopicsRegistry.sol:ClaimTopicsRegistry",
						"label": "_claimTopics",
						"offset": 0,
						"slot": "0",
						"type": "t_array(t_uint256)dyn_storage"
					},
					{
						"astId": 672,
						"contract": "contracts t-rex/registry/implementation/ClaimTopicsRegistry.sol:ClaimTopicsRegistry",
						"label": "__gap",
						"offset": 0,
						"slot": "1",
						"type": "t_array(t_uint256)49_storage"
					}
				],
				"types": {
					"t_array(t_uint256)49_storage": {
						"base": "t_uint256",
						"encoding": "inplace",
						"label": "uint256[49]",
						"numberOfBytes": "1568"
					},
					"t_array(t_uint256)dyn_storage": {
						"base": "t_uint256",
						"encoding": "dynamic_array",
						"label": "uint256[]",
						"numberOfBytes": "32"
					},
					"t_uint256": {
						"encoding": "inplace",
						"label": "uint256",
						"numberOfBytes": "32"
					}
				}
			},
			"userdoc": {
				"events": {
					"ClaimTopicAdded(uint256)": {
						"notice": "this event is emitted when a claim topic has been added to the ClaimTopicsRegistry  the event is emitted by the 'addClaimTopic' function  `claimTopic` is the required claim added to the Claim Topics Registry"
					},
					"ClaimTopicRemoved(uint256)": {
						"notice": "this event is emitted when a claim topic has been removed from the ClaimTopicsRegistry  the event is emitted by the 'removeClaimTopic' function  `claimTopic` is the required claim removed from the Claim Topics Registry"
					}
				},
				"kind": "user",
				"methods": {},
				"version": 1
			}
		}
	}
}