{
	"contracts t-rex/registry/implementation/IdentityRegistryStorage.sol": {
		"IdentityRegistryStorage": {
			"abi": [
				{
					"inputs": [],
					"name": "InvalidInitialization",
					"type": "error"
				},
				{
					"inputs": [],
					"name": "NotInitializing",
					"type": "error"
				},
				{
					"inputs": [
						{
							"internalType": "address",
							"name": "owner",
							"type": "address"
						}
					],
					"name": "OwnableInvalidOwner",
					"type": "error"
				},
				{
					"inputs": [
						{
							"internalType": "address",
							"name": "account",
							"type": "address"
						}
					],
					"name": "OwnableUnauthorizedAccount",
					"type": "error"
				},
				{
					"anonymous": false,
					"inputs": [
						{
							"indexed": true,
							"internalType": "address",
							"name": "_agent",
							"type": "address"
						}
					],
					"name": "AgentAdded",
					"type": "event"
				},
				{
					"anonymous": false,
					"inputs": [
						{
							"indexed": true,
							"internalType": "address",
							"name": "_agent",
							"type": "address"
						}
					],
					"name": "AgentRemoved",
					"type": "event"
				},
				{
					"anonymous": false,
					"inputs": [
						{
							"indexed": true,
							"internalType": "address",
							"name": "investorAddress",
							"type": "address"
						},
						{
							"indexed": true,
							"internalType": "uint16",
							"name": "country",
							"type": "uint16"
						}
					],
					"name": "CountryModified",
					"type": "event"
				},
				{
					"anonymous": false,
					"inputs": [
						{
							"indexed": true,
							"internalType": "contract IIdentity",
							"name": "oldIdentity",
							"type": "address"
						},
						{
							"indexed": true,
							"internalType": "contract IIdentity",
							"name": "newIdentity",
							"type": "address"
						}
					],
					"name": "IdentityModified",
					"type": "event"
				},
				{
					"anonymous": false,
					"inputs": [
						{
							"indexed": true,
							"internalType": "address",
							"name": "identityRegistry",
							"type": "address"
						}
					],
					"name": "IdentityRegistryBound",
					"type": "event"
				},
				{
					"anonymous": false,
					"inputs": [
						{
							"indexed": true,
							"internalType": "address",
							"name": "identityRegistry",
							"type": "address"
						}
					],
					"name": "IdentityRegistryUnbound",
					"type": "event"
				},
				{
					"anonymous": false,
					"inputs": [
						{
							"indexed": true,
							"internalType": "address",
							"name": "investorAddress",
							"type": "address"
						},
						{
							"indexed": true,
							"internalType": "contract IIdentity",
							"name": "identity",
							"type": "address"
						}
					],
					"name": "IdentityStored",
					"type": "event"
				},
				{
					"anonymous": false,
					"inputs": [
						{
							"indexed": true,
							"internalType": "address",
							"name": "investorAddress",
							"type": "address"
						},
						{
							"indexed": true,
							"internalType": "contract IIdentity",
							"name": "identity",
							"type": "address"
						}
					],
					"name": "IdentityUnstored",
					"type": "event"
				},
				{
					"anonymous": false,
					"inputs": [
						{
							"indexed": false,
							"internalType": "uint64",
							"name": "version",
							"type": "uint64"
						}
					],
					"name": "Initialized",
					"type": "event"
				},
				{
					"anonymous": false,
					"inputs": [
						{
							"indexed": true,
							"internalType": "address",
							"name": "previousOwner",
							"type": "address"
						},
						{
							"indexed": true,
							"internalType": "address",
							"name": "newOwner",
							"type": "address"
						}
					],
					"name": "OwnershipTransferred",
					"type": "event"
				},
				{
					"inputs": [
						{
							"internalType": "address",
							"name": "_agent",
							"type": "address"
						}
					],
					"name": "addAgent",
					"outputs": [],
					"stateMutability": "nonpayable",
					"type": "function"
				},
				{
					"inputs": [
						{
							"internalType": "address",
							"name": "_userAddress",
							"type": "address"
						},
						{
							"internalType": "contract IIdentity",
							"name": "_identity",
							"type": "address"
						},
						{
							"internalType": "uint16",
							"name": "_country",
							"type": "uint16"
						}
					],
					"name": "addIdentityToStorage",
					"outputs": [],
					"stateMutability": "nonpayable",
					"type": "function"
				},
				{
					"inputs": [
						{
							"internalType": "address",
							"name": "_identityRegistry",
							"type": "address"
						}
					],
					"name": "bindIdentityRegistry",
					"outputs": [],
					"stateMutability": "nonpayable",
					"type": "function"
				},
				{
					"inputs": [],
					"name": "init",
					"outputs": [],
					"stateMutability": "nonpayable",
					"type": "function"
				},
				{
					"inputs": [
						{
							"internalType": "address",
							"name": "_agent",
							"type": "address"
						}
					],
					"name": "isAgent",
					"outputs": [
						{
							"internalType": "bool",
							"name": "",
							"type": "bool"
						}
					],
					"stateMutability": "view",
					"type": "function"
				},
				{
					"inputs": [],
					"name": "linkedIdentityRegistries",
					"outputs": [
						{
							"internalType": "address[]",
							"name": "",
							"type": "address[]"
						}
					],
					"stateMutability": "view",
					"type": "function"
				},
				{
					"inputs": [
						{
							"internalType": "address",
							"name": "_userAddress",
							"type": "address"
						},
						{
							"internalType": "contract IIdentity",
							"name": "_identity",
							"type": "address"
						}
					],
					"name": "modifyStoredIdentity",
					"outputs": [],
					"stateMutability": "nonpayable",
					"type": "function"
				},
				{
					"inputs": [
						{
							"internalType": "address",
							"name": "_userAddress",
							"type": "address"
						},
						{
							"internalType": "uint16",
							"name": "_country",
							"type": "uint16"
						}
					],
					"name": "modifyStoredInvestorCountry",
					"outputs": [],
					"stateMutability": "nonpayable",
					"type": "function"
				},
				{
					"inputs": [],
					"name": "owner",
					"outputs": [
						{
							"internalType": "address",
							"name": "",
							"type": "address"
						}
					],
					"stateMutability": "view",
					"type": "function"
				},
				{
					"inputs": [
						{
							"internalType": "address",
							"name": "_agent",
							"type": "address"
						}
					],
					"name": "removeAgent",
					"outputs": [],
					"stateMutability": "nonpayable",
					"type": "function"
				},
				{
					"inputs": [
						{
							"internalType": "address",
							"name": "_userAddress",
							"type": "address"
						}
					],
					"name": "removeIdentityFromStorage",
					"outputs": [],
					"stateMutability": "nonpayable",
					"type": "function"
				},
				{
					"inputs": [],
					"name": "renounceOwnership",
					"outputs": [],
					"stateMutability": "nonpayable",
					"type": "function"
				},
				{
					"inputs": [
						{
							"internalType": "address",
							"name": "_userAddress",
							"type": "address"
						}
					],
					"name": "storedIdentity",
					"outputs": [
						{
							"internalType": "contract IIdentity",
							"name": "",
							"type": "address"
						}
					],
					"stateMutability": "view",
					"type": "function"
				},
				{
					"inputs": [
						{
							"internalType": "address",
							"name": "_userAddress",
							"type": "address"
						}
					],
					"name": "storedInvestorCountry",
					"outputs": [
						{
							"internalType": "uint16",
							"name": "",
							"type": "uint16"
						}
					],
					"stateMutability": "view",
					"type": "function"
				},
				{
					"inputs": [
						{
							"internalType": "address",
							"name": "newOwner",
							"type": "address"
						}
					],
					"name": "transferOwnership",
					"outputs": [],
					"stateMutability": "nonpayable",
					"type": "function"
				},
				{
					"inputs": [
						{
							"internalType": "address",
							"name": "_identityRegistry",
							"type": "address"
						}
					],
					"name": "unbindIdentityRegistry",
					"outputs": [],
					"stateMutability": "nonpayable",
					"type": "function"
				}
			],
			"devdoc": {
				"errors": {
					"InvalidInitialization()": [
						{
							"details": "The contract is already initialized."
						}
					],
					"NotInitializing()": [
						{
							"details": "The contract is not initializing."
						}
					],
					"OwnableInvalidOwner(address)": [
						{
							"details": "The owner is not a valid owner account. (eg. `address(0)`)"
						}
					],
					"OwnableUnauthorizedAccount(address)": [
						{
							"details": "The caller account is not authorized to perform an operation."
						}
					]
				},
				"kind": "dev",
				"methods": {
					"addIdentityToStorage(address,address,uint16)": {
						"details": "See {IIdentityRegistryStorage-addIdentityToStorage}."
					},
					"bindIdentityRegistry(address)": {
						"details": "See {IIdentityRegistryStorage-bindIdentityRegistry}."
					},
					"linkedIdentityRegistries()": {
						"details": "See {IIdentityRegistryStorage-linkedIdentityRegistries}."
					},
					"modifyStoredIdentity(address,address)": {
						"details": "See {IIdentityRegistryStorage-modifyStoredIdentity}."
					},
					"modifyStoredInvestorCountry(address,uint16)": {
						"details": "See {IIdentityRegistryStorage-modifyStoredInvestorCountry}."
					},
					"owner()": {
						"details": "Returns the address of the current owner."
					},
					"removeIdentityFromStorage(address)": {
						"details": "See {IIdentityRegistryStorage-removeIdentityFromStorage}."
					},
					"renounceOwnership()": {
						"details": "Leaves the contract without owner. It will not be possible to call `onlyOwner` functions. Can only be called by the current owner. NOTE: Renouncing ownership will leave the contract without an owner, thereby disabling any functionality that is only available to the owner."
					},
					"storedIdentity(address)": {
						"details": "See {IIdentityRegistryStorage-storedIdentity}."
					},
					"storedInvestorCountry(address)": {
						"details": "See {IIdentityRegistryStorage-storedInvestorCountry}."
					},
					"transferOwnership(address)": {
						"details": "Transfers ownership of the contract to a new account (`newOwner`). Can only be called by the current owner."
					},
					"unbindIdentityRegistry(address)": {
						"details": "See {IIdentityRegistryStorage-unbindIdentityRegistry}."
					}
				},
				"version": 1
			},
			"evm": {
				"assembly": "    /* \"contracts t-rex/registry/implementation/IdentityRegistryStorage.sol\":4044:8589  contract IdentityRegistryStorage is IIdentityRegistryStorage, AgentRoleUpgradeable, IRSStorage {... */\n  mstore(0x40, 0x80)\n  callvalue\n  dup1\n  iszero\n  tag_1\n  jumpi\n  0x00\n  dup1\n  revert\ntag_1:\n  pop\n  dataSize(sub_0)\n  dup1\n  dataOffset(sub_0)\n  0x00\n  codecopy\n  0x00\n  return\nstop\n\nsub_0: assembly {\n        /* \"contracts t-rex/registry/implementation/IdentityRegistryStorage.sol\":4044:8589  contract IdentityRegistryStorage is IIdentityRegistryStorage, AgentRoleUpgradeable, IRSStorage {... */\n      mstore(0x40, 0x80)\n      callvalue\n      dup1\n      iszero\n      tag_1\n      jumpi\n      0x00\n      dup1\n      revert\n    tag_1:\n      pop\n      jumpi(tag_2, lt(calldatasize, 0x04))\n      shr(0xe0, calldataload(0x00))\n      dup1\n      0x97a6278e\n      gt\n      tag_19\n      jumpi\n      dup1\n      0xcf191bcd\n      gt\n      tag_20\n      jumpi\n      dup1\n      0xcf191bcd\n      eq\n      tag_15\n      jumpi\n      dup1\n      0xe1c7392a\n      eq\n      tag_16\n      jumpi\n      dup1\n      0xe805cf86\n      eq\n      tag_17\n      jumpi\n      dup1\n      0xf2fde38b\n      eq\n      tag_18\n      jumpi\n      0x00\n      dup1\n      revert\n    tag_20:\n      dup1\n      0x97a6278e\n      eq\n      tag_11\n      jumpi\n      dup1\n      0x9f3418d5\n      eq\n      tag_12\n      jumpi\n      dup1\n      0xa53410dd\n      eq\n      tag_13\n      jumpi\n      dup1\n      0xbf9eb959\n      eq\n      tag_14\n      jumpi\n      0x00\n      dup1\n      revert\n    tag_19:\n      dup1\n      0x7988d3a5\n      gt\n      tag_21\n      jumpi\n      dup1\n      0x7988d3a5\n      eq\n      tag_7\n      jumpi\n      dup1\n      0x84e79842\n      eq\n      tag_8\n      jumpi\n      dup1\n      0x8da5cb5b\n      eq\n      tag_9\n      jumpi\n      dup1\n      0x97a012f7\n      eq\n      tag_10\n      jumpi\n      0x00\n      dup1\n      revert\n    tag_21:\n      dup1\n      0x1ffbb064\n      eq\n      tag_3\n      jumpi\n      dup1\n      0x690a49f9\n      eq\n      tag_4\n      jumpi\n      dup1\n      0x715018a6\n      eq\n      tag_5\n      jumpi\n      dup1\n      0x727e13bc\n      eq\n      tag_6\n      jumpi\n    tag_2:\n      0x00\n      dup1\n      revert\n        /* \"contracts t-rex/roles/AgentRoleUpgradeable.sol\":4703:4806  function isAgent(address _agent) public view returns (bool) {... */\n    tag_3:\n      tag_22\n      tag_23\n      calldatasize\n      0x04\n      tag_24\n      jump\t// in\n    tag_23:\n      tag_25\n      jump\t// in\n    tag_22:\n      mload(0x40)\n        /* \"#utility.yul\":567:581   */\n      swap1\n      iszero\n        /* \"#utility.yul\":560:582   */\n      iszero\n        /* \"#utility.yul\":542:583   */\n      dup2\n      mstore\n        /* \"#utility.yul\":530:532   */\n      0x20\n        /* \"#utility.yul\":515:533   */\n      add\n        /* \"contracts t-rex/roles/AgentRoleUpgradeable.sol\":4703:4806  function isAgent(address _agent) public view returns (bool) {... */\n    tag_26:\n      mload(0x40)\n      dup1\n      swap2\n      sub\n      swap1\n      return\n        /* \"contracts t-rex/registry/implementation/IdentityRegistryStorage.sol\":6711:7115  function bindIdentityRegistry(address _identityRegistry) external override {... */\n    tag_4:\n      tag_28\n      tag_29\n      calldatasize\n      0x04\n      tag_24\n      jump\t// in\n    tag_29:\n      tag_30\n      jump\t// in\n    tag_28:\n      stop\n        /* \"@openzeppelin/contracts-upgradeable/access/OwnableUpgradeable.sol\":3165:3266  function renounceOwnership() public virtual onlyOwner {... */\n    tag_5:\n      tag_28\n      tag_32\n      jump\t// in\n        /* \"contracts t-rex/registry/implementation/IdentityRegistryStorage.sol\":8429:8587  function storedInvestorCountry(address _userAddress) external view override returns (uint16) {... */\n    tag_6:\n      tag_33\n      tag_34\n      calldatasize\n      0x04\n      tag_24\n      jump\t// in\n    tag_34:\n      sub(shl(0xa0, 0x01), 0x01)\n        /* \"contracts t-rex/registry/implementation/IdentityRegistryStorage.sol\":8539:8564  _identities[_userAddress] */\n      and\n        /* \"contracts t-rex/registry/implementation/IdentityRegistryStorage.sol\":8514:8520  uint16 */\n      0x00\n        /* \"contracts t-rex/registry/implementation/IdentityRegistryStorage.sol\":8539:8564  _identities[_userAddress] */\n      swap1\n      dup2\n      mstore\n        /* \"contracts t-rex/registry/implementation/IdentityRegistryStorage.sol\":8539:8550  _identities */\n      0x01\n        /* \"contracts t-rex/registry/implementation/IdentityRegistryStorage.sol\":8539:8564  _identities[_userAddress] */\n      0x20\n      mstore\n      0x40\n      swap1\n      keccak256\n        /* \"contracts t-rex/registry/implementation/IdentityRegistryStorage.sol\":8539:8580  _identities[_userAddress].investorCountry */\n      sload\n      shl(0xa0, 0x01)\n      swap1\n      div\n      0xffff\n      and\n      swap1\n        /* \"contracts t-rex/registry/implementation/IdentityRegistryStorage.sol\":8429:8587  function storedInvestorCountry(address _userAddress) external view override returns (uint16) {... */\n      jump\n    tag_33:\n      mload(0x40)\n        /* \"#utility.yul\":768:774   */\n      0xffff\n        /* \"#utility.yul\":756:775   */\n      swap1\n      swap2\n      and\n        /* \"#utility.yul\":738:776   */\n      dup2\n      mstore\n        /* \"#utility.yul\":726:728   */\n      0x20\n        /* \"#utility.yul\":711:729   */\n      add\n        /* \"contracts t-rex/registry/implementation/IdentityRegistryStorage.sol\":8429:8587  function storedInvestorCountry(address _userAddress) external view override returns (uint16) {... */\n      tag_26\n        /* \"#utility.yul\":594:782   */\n      jump\n        /* \"contracts t-rex/registry/implementation/IdentityRegistryStorage.sol\":8185:8340  function storedIdentity(address _userAddress) external view override returns (IIdentity) {... */\n    tag_7:\n      tag_38\n      tag_39\n      calldatasize\n      0x04\n      tag_24\n      jump\t// in\n    tag_39:\n      sub(shl(0xa0, 0x01), 0x01)\n        /* \"contracts t-rex/registry/implementation/IdentityRegistryStorage.sol\":8291:8316  _identities[_userAddress] */\n      swap1\n      dup2\n      and\n        /* \"contracts t-rex/registry/implementation/IdentityRegistryStorage.sol\":8263:8272  IIdentity */\n      0x00\n        /* \"contracts t-rex/registry/implementation/IdentityRegistryStorage.sol\":8291:8316  _identities[_userAddress] */\n      swap1\n      dup2\n      mstore\n        /* \"contracts t-rex/registry/implementation/IdentityRegistryStorage.sol\":8291:8302  _identities */\n      0x01\n        /* \"contracts t-rex/registry/implementation/IdentityRegistryStorage.sol\":8291:8316  _identities[_userAddress] */\n      0x20\n      mstore\n      0x40\n      swap1\n      keccak256\n        /* \"contracts t-rex/registry/implementation/IdentityRegistryStorage.sol\":8291:8333  _identities[_userAddress].identityContract */\n      sload\n      and\n      swap1\n        /* \"contracts t-rex/registry/implementation/IdentityRegistryStorage.sol\":8185:8340  function storedIdentity(address _userAddress) external view override returns (IIdentity) {... */\n      jump\n    tag_38:\n      mload(0x40)\n      sub(shl(0xa0, 0x01), 0x01)\n        /* \"#utility.yul\":968:1000   */\n      swap1\n      swap2\n      and\n        /* \"#utility.yul\":950:1001   */\n      dup2\n      mstore\n        /* \"#utility.yul\":938:940   */\n      0x20\n        /* \"#utility.yul\":923:941   */\n      add\n        /* \"contracts t-rex/registry/implementation/IdentityRegistryStorage.sol\":8185:8340  function storedIdentity(address _userAddress) external view override returns (IIdentity) {... */\n      tag_26\n        /* \"#utility.yul\":787:1007   */\n      jump\n        /* \"contracts t-rex/roles/AgentRoleUpgradeable.sol\":4295:4489  function addAgent(address _agent) public onlyOwner {... */\n    tag_8:\n      tag_28\n      tag_44\n      calldatasize\n      0x04\n      tag_24\n      jump\t// in\n    tag_44:\n      tag_45\n      jump\t// in\n        /* \"@openzeppelin/contracts-upgradeable/access/OwnableUpgradeable.sol\":2451:2595  function owner() public view virtual returns (address) {... */\n    tag_9:\n        /* \"@openzeppelin/contracts-upgradeable/access/OwnableUpgradeable.sol\":1323:1345  OwnableStorageLocation */\n      0x9016d09d72d40fdae2fd8ceac6b6234c7706214fd39c1cd1e609a0528c199300\n        /* \"@openzeppelin/contracts-upgradeable/access/OwnableUpgradeable.sol\":2580:2588  $._owner */\n      sload\n      sub(shl(0xa0, 0x01), 0x01)\n      and\n        /* \"@openzeppelin/contracts-upgradeable/access/OwnableUpgradeable.sol\":2451:2595  function owner() public view virtual returns (address) {... */\n      jump(tag_38)\n        /* \"contracts t-rex/registry/implementation/IdentityRegistryStorage.sol\":7205:7882  function unbindIdentityRegistry(address _identityRegistry) external override {... */\n    tag_10:\n      tag_28\n      tag_51\n      calldatasize\n      0x04\n      tag_24\n      jump\t// in\n    tag_51:\n      tag_52\n      jump\t// in\n        /* \"contracts t-rex/roles/AgentRoleUpgradeable.sol\":4495:4697  function removeAgent(address _agent) public onlyOwner {... */\n    tag_11:\n      tag_28\n      tag_54\n      calldatasize\n      0x04\n      tag_24\n      jump\t// in\n    tag_54:\n      tag_55\n      jump\t// in\n        /* \"contracts t-rex/registry/implementation/IdentityRegistryStorage.sol\":5655:6072  function modifyStoredInvestorCountry(address _userAddress, uint16 _country) external override onlyAgent {... */\n    tag_12:\n      tag_28\n      tag_57\n      calldatasize\n      0x04\n      tag_58\n      jump\t// in\n    tag_57:\n      tag_59\n      jump\t// in\n        /* \"contracts t-rex/registry/implementation/IdentityRegistryStorage.sol\":4314:4909  function addIdentityToStorage(... */\n    tag_13:\n      tag_28\n      tag_61\n      calldatasize\n      0x04\n      tag_62\n      jump\t// in\n    tag_61:\n      tag_63\n      jump\t// in\n        /* \"contracts t-rex/registry/implementation/IdentityRegistryStorage.sol\":7974:8103  function linkedIdentityRegistries() external view override returns (address[] memory) {... */\n    tag_14:\n      tag_64\n      tag_65\n      jump\t// in\n    tag_64:\n      mload(0x40)\n      tag_26\n      swap2\n      swap1\n      tag_67\n      jump\t// in\n        /* \"contracts t-rex/registry/implementation/IdentityRegistryStorage.sol\":6165:6623  function removeIdentityFromStorage(address _userAddress) external override onlyAgent {... */\n    tag_15:\n      tag_28\n      tag_69\n      calldatasize\n      0x04\n      tag_24\n      jump\t// in\n    tag_69:\n      tag_70\n      jump\t// in\n        /* \"contracts t-rex/registry/implementation/IdentityRegistryStorage.sol\":4146:4226  function init() external initializer {... */\n    tag_16:\n      tag_28\n      tag_72\n      jump\t// in\n        /* \"contracts t-rex/registry/implementation/IdentityRegistryStorage.sol\":4997:5560  function modifyStoredIdentity(address _userAddress, IIdentity _identity) external override onlyAgent {... */\n    tag_17:\n      tag_28\n      tag_74\n      calldatasize\n      0x04\n      tag_75\n      jump\t// in\n    tag_74:\n      tag_76\n      jump\t// in\n        /* \"@openzeppelin/contracts-upgradeable/access/OwnableUpgradeable.sol\":3415:3630  function transferOwnership(address newOwner) public virtual onlyOwner {... */\n    tag_18:\n      tag_28\n      tag_78\n      calldatasize\n      0x04\n      tag_24\n      jump\t// in\n    tag_78:\n      tag_79\n      jump\t// in\n        /* \"contracts t-rex/roles/AgentRoleUpgradeable.sol\":4703:4806  function isAgent(address _agent) public view returns (bool) {... */\n    tag_25:\n        /* \"contracts t-rex/roles/AgentRoleUpgradeable.sol\":4757:4761  bool */\n      0x00\n        /* \"contracts t-rex/roles/AgentRoleUpgradeable.sol\":4780:4799  _agents.has(_agent) */\n      tag_81\n        /* \"contracts t-rex/roles/AgentRoleUpgradeable.sol\":4757:4761  bool */\n      dup2\n        /* \"contracts t-rex/roles/AgentRoleUpgradeable.sol\":4792:4798  _agent */\n      dup4\n        /* \"contracts t-rex/roles/AgentRoleUpgradeable.sol\":4780:4791  _agents.has */\n      tag_82\n        /* \"contracts t-rex/roles/AgentRoleUpgradeable.sol\":4780:4799  _agents.has(_agent) */\n      jump\t// in\n    tag_81:\n        /* \"contracts t-rex/roles/AgentRoleUpgradeable.sol\":4773:4799  return _agents.has(_agent) */\n      swap3\n        /* \"contracts t-rex/roles/AgentRoleUpgradeable.sol\":4703:4806  function isAgent(address _agent) public view returns (bool) {... */\n      swap2\n      pop\n      pop\n      jump\t// out\n        /* \"contracts t-rex/registry/implementation/IdentityRegistryStorage.sol\":6711:7115  function bindIdentityRegistry(address _identityRegistry) external override {... */\n    tag_30:\n      sub(shl(0xa0, 0x01), 0x01)\n        /* \"contracts t-rex/registry/implementation/IdentityRegistryStorage.sol\":6804:6835  _identityRegistry != address(0) */\n      dup2\n      and\n        /* \"contracts t-rex/registry/implementation/IdentityRegistryStorage.sol\":6796:6871  require(_identityRegistry != address(0), \"invalid argument - zero address\") */\n      tag_84\n      jumpi\n      mload(0x40)\n      shl(0xe5, 0x461bcd)\n      dup2\n      mstore\n      0x04\n      add\n      tag_85\n      swap1\n      tag_86\n      jump\t// in\n    tag_85:\n      mload(0x40)\n      dup1\n      swap2\n      sub\n      swap1\n      revert\n    tag_84:\n        /* \"contracts t-rex/registry/implementation/IdentityRegistryStorage.sol\":6889:6908  _identityRegistries */\n      0x02\n        /* \"contracts t-rex/registry/implementation/IdentityRegistryStorage.sol\":6889:6915  _identityRegistries.length */\n      sload\n        /* \"contracts t-rex/registry/implementation/IdentityRegistryStorage.sol\":6918:6921  300 */\n      0x012c\n      gt\n        /* \"contracts t-rex/registry/implementation/IdentityRegistryStorage.sol\":6881:6963  require(_identityRegistries.length < 300, \"cannot bind more than 300 IR to 1 IRS\") */\n      tag_87\n      jumpi\n      mload(0x40)\n      shl(0xe5, 0x461bcd)\n      dup2\n      mstore\n        /* \"#utility.yul\":3825:3827   */\n      0x20\n        /* \"contracts t-rex/registry/implementation/IdentityRegistryStorage.sol\":6881:6963  require(_identityRegistries.length < 300, \"cannot bind more than 300 IR to 1 IRS\") */\n      0x04\n      dup3\n      add\n        /* \"#utility.yul\":3807:3828   */\n      mstore\n        /* \"#utility.yul\":3864:3866   */\n      0x25\n        /* \"#utility.yul\":3844:3862   */\n      0x24\n      dup3\n      add\n        /* \"#utility.yul\":3837:3867   */\n      mstore\n        /* \"#utility.yul\":3903:3937   */\n      0x63616e6e6f742062696e64206d6f7265207468616e2033303020495220746f20\n        /* \"#utility.yul\":3883:3901   */\n      0x44\n      dup3\n      add\n        /* \"#utility.yul\":3876:3938   */\n      mstore\n      shl(0xd8, 0x3120495253)\n        /* \"#utility.yul\":3954:3972   */\n      0x64\n      dup3\n      add\n        /* \"#utility.yul\":3947:3982   */\n      mstore\n        /* \"#utility.yul\":3999:4018   */\n      0x84\n      add\n        /* \"contracts t-rex/registry/implementation/IdentityRegistryStorage.sol\":6881:6963  require(_identityRegistries.length < 300, \"cannot bind more than 300 IR to 1 IRS\") */\n      tag_85\n        /* \"#utility.yul\":3623:4024   */\n      jump\n        /* \"contracts t-rex/registry/implementation/IdentityRegistryStorage.sol\":6881:6963  require(_identityRegistries.length < 300, \"cannot bind more than 300 IR to 1 IRS\") */\n    tag_87:\n        /* \"contracts t-rex/registry/implementation/IdentityRegistryStorage.sol\":6973:7000  addAgent(_identityRegistry) */\n      tag_90\n        /* \"contracts t-rex/registry/implementation/IdentityRegistryStorage.sol\":6982:6999  _identityRegistry */\n      dup2\n        /* \"contracts t-rex/registry/implementation/IdentityRegistryStorage.sol\":6973:6981  addAgent */\n      tag_45\n        /* \"contracts t-rex/registry/implementation/IdentityRegistryStorage.sol\":6973:7000  addAgent(_identityRegistry) */\n      jump\t// in\n    tag_90:\n        /* \"contracts t-rex/registry/implementation/IdentityRegistryStorage.sol\":7010:7029  _identityRegistries */\n      0x02\n        /* \"contracts t-rex/registry/implementation/IdentityRegistryStorage.sol\":7010:7053  _identityRegistries.push(_identityRegistry) */\n      dup1\n      sload\n      0x01\n      dup2\n      add\n      dup3\n      sstore\n      0x00\n      swap2\n      dup3\n      mstore\n      0x405787fa12a823e0f2b7631cc41b3ba8828b3321ca811111fa75cd3aa3bb5ace\n      add\n      dup1\n      sload\n      not(sub(shl(0xa0, 0x01), 0x01))\n      and\n      sub(shl(0xa0, 0x01), 0x01)\n      dup5\n      and\n      swap1\n      dup2\n      or\n      swap1\n      swap2\n      sstore\n        /* \"contracts t-rex/registry/implementation/IdentityRegistryStorage.sol\":7068:7108  IdentityRegistryBound(_identityRegistry) */\n      mload(0x40)\n        /* \"contracts t-rex/registry/implementation/IdentityRegistryStorage.sol\":7010:7053  _identityRegistries.push(_identityRegistry) */\n      swap1\n      swap2\n        /* \"contracts t-rex/registry/implementation/IdentityRegistryStorage.sol\":7068:7108  IdentityRegistryBound(_identityRegistry) */\n      0x500c250171aa20e861b680f93502547b9d436eda7d4c537fc360db6e0c6eedfb\n      swap2\n      log2\n        /* \"contracts t-rex/registry/implementation/IdentityRegistryStorage.sol\":6711:7115  function bindIdentityRegistry(address _identityRegistry) external override {... */\n      pop\n      jump\t// out\n        /* \"@openzeppelin/contracts-upgradeable/access/OwnableUpgradeable.sol\":3165:3266  function renounceOwnership() public virtual onlyOwner {... */\n    tag_32:\n        /* \"@openzeppelin/contracts-upgradeable/access/OwnableUpgradeable.sol\":2344:2357  _checkOwner() */\n      tag_93\n        /* \"@openzeppelin/contracts-upgradeable/access/OwnableUpgradeable.sol\":2344:2355  _checkOwner */\n      tag_94\n        /* \"@openzeppelin/contracts-upgradeable/access/OwnableUpgradeable.sol\":2344:2357  _checkOwner() */\n      jump\t// in\n    tag_93:\n        /* \"@openzeppelin/contracts-upgradeable/access/OwnableUpgradeable.sol\":3229:3259  _transferOwnership(address(0)) */\n      tag_96\n        /* \"@openzeppelin/contracts-upgradeable/access/OwnableUpgradeable.sol\":3256:3257  0 */\n      0x00\n        /* \"@openzeppelin/contracts-upgradeable/access/OwnableUpgradeable.sol\":3229:3247  _transferOwnership */\n      tag_97\n        /* \"@openzeppelin/contracts-upgradeable/access/OwnableUpgradeable.sol\":3229:3259  _transferOwnership(address(0)) */\n      jump\t// in\n    tag_96:\n        /* \"@openzeppelin/contracts-upgradeable/access/OwnableUpgradeable.sol\":3165:3266  function renounceOwnership() public virtual onlyOwner {... */\n      jump\t// out\n        /* \"contracts t-rex/roles/AgentRoleUpgradeable.sol\":4295:4489  function addAgent(address _agent) public onlyOwner {... */\n    tag_45:\n        /* \"@openzeppelin/contracts-upgradeable/access/OwnableUpgradeable.sol\":2344:2357  _checkOwner() */\n      tag_101\n        /* \"@openzeppelin/contracts-upgradeable/access/OwnableUpgradeable.sol\":2344:2355  _checkOwner */\n      tag_94\n        /* \"@openzeppelin/contracts-upgradeable/access/OwnableUpgradeable.sol\":2344:2357  _checkOwner() */\n      jump\t// in\n    tag_101:\n      sub(shl(0xa0, 0x01), 0x01)\n        /* \"contracts t-rex/roles/AgentRoleUpgradeable.sol\":4364:4384  _agent != address(0) */\n      dup2\n      and\n        /* \"contracts t-rex/roles/AgentRoleUpgradeable.sol\":4356:4420  require(_agent != address(0), \"invalid argument - zero address\") */\n      tag_103\n      jumpi\n      mload(0x40)\n      shl(0xe5, 0x461bcd)\n      dup2\n      mstore\n      0x04\n      add\n      tag_85\n      swap1\n      tag_86\n      jump\t// in\n    tag_103:\n        /* \"contracts t-rex/roles/AgentRoleUpgradeable.sol\":4430:4449  _agents.add(_agent) */\n      tag_105\n        /* \"contracts t-rex/roles/AgentRoleUpgradeable.sol\":4430:4437  _agents */\n      0x00\n        /* \"contracts t-rex/roles/AgentRoleUpgradeable.sol\":4442:4448  _agent */\n      dup3\n        /* \"contracts t-rex/roles/AgentRoleUpgradeable.sol\":4430:4441  _agents.add */\n      tag_106\n        /* \"contracts t-rex/roles/AgentRoleUpgradeable.sol\":4430:4449  _agents.add(_agent) */\n      jump\t// in\n    tag_105:\n        /* \"contracts t-rex/roles/AgentRoleUpgradeable.sol\":4464:4482  AgentAdded(_agent) */\n      mload(0x40)\n      sub(shl(0xa0, 0x01), 0x01)\n      dup3\n      and\n      swap1\n      0xf68e73cec97f2d70aa641fb26e87a4383686e2efacb648f2165aeb02ac562ec5\n      swap1\n      0x00\n      swap1\n      log2\n        /* \"contracts t-rex/roles/AgentRoleUpgradeable.sol\":4295:4489  function addAgent(address _agent) public onlyOwner {... */\n      pop\n      jump\t// out\n        /* \"contracts t-rex/registry/implementation/IdentityRegistryStorage.sol\":7205:7882  function unbindIdentityRegistry(address _identityRegistry) external override {... */\n    tag_52:\n      sub(shl(0xa0, 0x01), 0x01)\n        /* \"contracts t-rex/registry/implementation/IdentityRegistryStorage.sol\":7300:7331  _identityRegistry != address(0) */\n      dup2\n      and\n        /* \"contracts t-rex/registry/implementation/IdentityRegistryStorage.sol\":7292:7367  require(_identityRegistry != address(0), \"invalid argument - zero address\") */\n      tag_111\n      jumpi\n      mload(0x40)\n      shl(0xe5, 0x461bcd)\n      dup2\n      mstore\n      0x04\n      add\n      tag_85\n      swap1\n      tag_86\n      jump\t// in\n    tag_111:\n        /* \"contracts t-rex/registry/implementation/IdentityRegistryStorage.sol\":7385:7404  _identityRegistries */\n      0x02\n        /* \"contracts t-rex/registry/implementation/IdentityRegistryStorage.sol\":7385:7411  _identityRegistries.length */\n      sload\n        /* \"contracts t-rex/registry/implementation/IdentityRegistryStorage.sol\":7377:7451  require(_identityRegistries.length > 0, \"identity registry is not stored\") */\n      tag_113\n      jumpi\n      mload(0x40)\n      shl(0xe5, 0x461bcd)\n      dup2\n      mstore\n        /* \"#utility.yul\":4231:4233   */\n      0x20\n        /* \"contracts t-rex/registry/implementation/IdentityRegistryStorage.sol\":7377:7451  require(_identityRegistries.length > 0, \"identity registry is not stored\") */\n      0x04\n      dup3\n      add\n        /* \"#utility.yul\":4213:4234   */\n      mstore\n        /* \"#utility.yul\":4270:4272   */\n      0x1f\n        /* \"#utility.yul\":4250:4268   */\n      0x24\n      dup3\n      add\n        /* \"#utility.yul\":4243:4273   */\n      mstore\n        /* \"#utility.yul\":4309:4342   */\n      0x6964656e74697479207265676973747279206973206e6f742073746f72656400\n        /* \"#utility.yul\":4289:4307   */\n      0x44\n      dup3\n      add\n        /* \"#utility.yul\":4282:4343   */\n      mstore\n        /* \"#utility.yul\":4360:4378   */\n      0x64\n      add\n        /* \"contracts t-rex/registry/implementation/IdentityRegistryStorage.sol\":7377:7451  require(_identityRegistries.length > 0, \"identity registry is not stored\") */\n      tag_85\n        /* \"#utility.yul\":4029:4384   */\n      jump\n        /* \"contracts t-rex/registry/implementation/IdentityRegistryStorage.sol\":7377:7451  require(_identityRegistries.length > 0, \"identity registry is not stored\") */\n    tag_113:\n        /* \"contracts t-rex/registry/implementation/IdentityRegistryStorage.sol\":7478:7497  _identityRegistries */\n      0x02\n        /* \"contracts t-rex/registry/implementation/IdentityRegistryStorage.sol\":7478:7504  _identityRegistries.length */\n      sload\n        /* \"contracts t-rex/registry/implementation/IdentityRegistryStorage.sol\":7461:7475  uint256 length */\n      0x00\n        /* \"contracts t-rex/registry/implementation/IdentityRegistryStorage.sol\":7514:7779  for (uint256 i = 0; i < length; i++) {... */\n    tag_116:\n        /* \"contracts t-rex/registry/implementation/IdentityRegistryStorage.sol\":7538:7544  length */\n      dup2\n        /* \"contracts t-rex/registry/implementation/IdentityRegistryStorage.sol\":7534:7535  i */\n      dup2\n        /* \"contracts t-rex/registry/implementation/IdentityRegistryStorage.sol\":7534:7544  i < length */\n      lt\n        /* \"contracts t-rex/registry/implementation/IdentityRegistryStorage.sol\":7514:7779  for (uint256 i = 0; i < length; i++) {... */\n      iszero\n      tag_117\n      jumpi\n        /* \"contracts t-rex/registry/implementation/IdentityRegistryStorage.sol\":7595:7612  _identityRegistry */\n      dup3\n      sub(shl(0xa0, 0x01), 0x01)\n        /* \"contracts t-rex/registry/implementation/IdentityRegistryStorage.sol\":7569:7612  _identityRegistries[i] == _identityRegistry */\n      and\n        /* \"contracts t-rex/registry/implementation/IdentityRegistryStorage.sol\":7569:7588  _identityRegistries */\n      0x02\n        /* \"contracts t-rex/registry/implementation/IdentityRegistryStorage.sol\":7589:7590  i */\n      dup3\n        /* \"contracts t-rex/registry/implementation/IdentityRegistryStorage.sol\":7569:7591  _identityRegistries[i] */\n      dup2\n      sload\n      dup2\n      lt\n      tag_120\n      jumpi\n      tag_120\n      tag_121\n      jump\t// in\n    tag_120:\n      0x00\n      swap2\n      dup3\n      mstore\n      0x20\n      swap1\n      swap2\n      keccak256\n      add\n      sload\n      sub(shl(0xa0, 0x01), 0x01)\n      and\n        /* \"contracts t-rex/registry/implementation/IdentityRegistryStorage.sol\":7569:7612  _identityRegistries[i] == _identityRegistry */\n      sub\n        /* \"contracts t-rex/registry/implementation/IdentityRegistryStorage.sol\":7565:7769  if (_identityRegistries[i] == _identityRegistry) {... */\n      tag_123\n      jumpi\n        /* \"contracts t-rex/registry/implementation/IdentityRegistryStorage.sol\":7657:7676  _identityRegistries */\n      0x02\n        /* \"contracts t-rex/registry/implementation/IdentityRegistryStorage.sol\":7677:7687  length - 1 */\n      tag_124\n        /* \"contracts t-rex/registry/implementation/IdentityRegistryStorage.sol\":7686:7687  1 */\n      0x01\n        /* \"contracts t-rex/registry/implementation/IdentityRegistryStorage.sol\":7677:7683  length */\n      dup5\n        /* \"contracts t-rex/registry/implementation/IdentityRegistryStorage.sol\":7677:7687  length - 1 */\n      tag_125\n      jump\t// in\n    tag_124:\n        /* \"contracts t-rex/registry/implementation/IdentityRegistryStorage.sol\":7657:7688  _identityRegistries[length - 1] */\n      dup2\n      sload\n      dup2\n      lt\n      tag_127\n      jumpi\n      tag_127\n      tag_121\n      jump\t// in\n    tag_127:\n      0x00\n      swap2\n      dup3\n      mstore\n      0x20\n      swap1\n      swap2\n      keccak256\n      add\n      sload\n        /* \"contracts t-rex/registry/implementation/IdentityRegistryStorage.sol\":7632:7651  _identityRegistries */\n      0x02\n        /* \"contracts t-rex/registry/implementation/IdentityRegistryStorage.sol\":7632:7654  _identityRegistries[i] */\n      dup1\n      sload\n      sub(shl(0xa0, 0x01), 0x01)\n        /* \"contracts t-rex/registry/implementation/IdentityRegistryStorage.sol\":7657:7688  _identityRegistries[length - 1] */\n      swap1\n      swap3\n      and\n      swap2\n        /* \"contracts t-rex/registry/implementation/IdentityRegistryStorage.sol\":7652:7653  i */\n      dup4\n      swap1\n        /* \"contracts t-rex/registry/implementation/IdentityRegistryStorage.sol\":7632:7654  _identityRegistries[i] */\n      dup2\n      lt\n      tag_130\n      jumpi\n      tag_130\n      tag_121\n      jump\t// in\n    tag_130:\n      swap1\n      0x00\n      mstore\n      keccak256(0x00, 0x20)\n      add\n      0x00\n        /* \"contracts t-rex/registry/implementation/IdentityRegistryStorage.sol\":7632:7688  _identityRegistries[i] = _identityRegistries[length - 1] */\n      0x0100\n      exp\n      dup2\n      sload\n      dup2\n      sub(shl(0xa0, 0x01), 0x01)\n      mul\n      not\n      and\n      swap1\n      dup4\n      sub(shl(0xa0, 0x01), 0x01)\n      and\n      mul\n      or\n      swap1\n      sstore\n      pop\n        /* \"contracts t-rex/registry/implementation/IdentityRegistryStorage.sol\":7706:7725  _identityRegistries */\n      0x02\n        /* \"contracts t-rex/registry/implementation/IdentityRegistryStorage.sol\":7706:7731  _identityRegistries.pop() */\n      dup1\n      sload\n      dup1\n      tag_133\n      jumpi\n      tag_133\n      tag_134\n      jump\t// in\n    tag_133:\n      0x00\n      dup3\n      dup2\n      mstore\n      0x20\n      swap1\n      keccak256\n      dup2\n      add\n      not(0x00)\n      swap1\n      dup2\n      add\n      dup1\n      sload\n      not(sub(shl(0xa0, 0x01), 0x01))\n      and\n      swap1\n      sstore\n      add\n      swap1\n      sstore\n        /* \"contracts t-rex/registry/implementation/IdentityRegistryStorage.sol\":7749:7754  break */\n      jump(tag_117)\n        /* \"contracts t-rex/registry/implementation/IdentityRegistryStorage.sol\":7565:7769  if (_identityRegistries[i] == _identityRegistry) {... */\n    tag_123:\n        /* \"contracts t-rex/registry/implementation/IdentityRegistryStorage.sol\":7546:7549  i++ */\n      dup1\n      tag_136\n      dup2\n      tag_137\n      jump\t// in\n    tag_136:\n      swap2\n      pop\n      pop\n        /* \"contracts t-rex/registry/implementation/IdentityRegistryStorage.sol\":7514:7779  for (uint256 i = 0; i < length; i++) {... */\n      jump(tag_116)\n    tag_117:\n      pop\n        /* \"contracts t-rex/registry/implementation/IdentityRegistryStorage.sol\":7788:7818  removeAgent(_identityRegistry) */\n      tag_138\n        /* \"contracts t-rex/registry/implementation/IdentityRegistryStorage.sol\":7800:7817  _identityRegistry */\n      dup3\n        /* \"contracts t-rex/registry/implementation/IdentityRegistryStorage.sol\":7788:7799  removeAgent */\n      tag_55\n        /* \"contracts t-rex/registry/implementation/IdentityRegistryStorage.sol\":7788:7818  removeAgent(_identityRegistry) */\n      jump\t// in\n    tag_138:\n        /* \"contracts t-rex/registry/implementation/IdentityRegistryStorage.sol\":7833:7875  IdentityRegistryUnbound(_identityRegistry) */\n      mload(0x40)\n      sub(shl(0xa0, 0x01), 0x01)\n      dup4\n      and\n      swap1\n      0x51f353eb5801583fdf2706e43c045b62fdf6b1566820b349390616363ecf72c9\n      swap1\n      0x00\n      swap1\n      log2\n        /* \"contracts t-rex/registry/implementation/IdentityRegistryStorage.sol\":7282:7882  {... */\n      pop\n        /* \"contracts t-rex/registry/implementation/IdentityRegistryStorage.sol\":7205:7882  function unbindIdentityRegistry(address _identityRegistry) external override {... */\n      pop\n      jump\t// out\n        /* \"contracts t-rex/roles/AgentRoleUpgradeable.sol\":4495:4697  function removeAgent(address _agent) public onlyOwner {... */\n    tag_55:\n        /* \"@openzeppelin/contracts-upgradeable/access/OwnableUpgradeable.sol\":2344:2357  _checkOwner() */\n      tag_140\n        /* \"@openzeppelin/contracts-upgradeable/access/OwnableUpgradeable.sol\":2344:2355  _checkOwner */\n      tag_94\n        /* \"@openzeppelin/contracts-upgradeable/access/OwnableUpgradeable.sol\":2344:2357  _checkOwner() */\n      jump\t// in\n    tag_140:\n      sub(shl(0xa0, 0x01), 0x01)\n        /* \"contracts t-rex/roles/AgentRoleUpgradeable.sol\":4567:4587  _agent != address(0) */\n      dup2\n      and\n        /* \"contracts t-rex/roles/AgentRoleUpgradeable.sol\":4559:4623  require(_agent != address(0), \"invalid argument - zero address\") */\n      tag_142\n      jumpi\n      mload(0x40)\n      shl(0xe5, 0x461bcd)\n      dup2\n      mstore\n      0x04\n      add\n      tag_85\n      swap1\n      tag_86\n      jump\t// in\n    tag_142:\n        /* \"contracts t-rex/roles/AgentRoleUpgradeable.sol\":4633:4655  _agents.remove(_agent) */\n      tag_144\n        /* \"contracts t-rex/roles/AgentRoleUpgradeable.sol\":4633:4640  _agents */\n      0x00\n        /* \"contracts t-rex/roles/AgentRoleUpgradeable.sol\":4648:4654  _agent */\n      dup3\n        /* \"contracts t-rex/roles/AgentRoleUpgradeable.sol\":4633:4647  _agents.remove */\n      tag_145\n        /* \"contracts t-rex/roles/AgentRoleUpgradeable.sol\":4633:4655  _agents.remove(_agent) */\n      jump\t// in\n    tag_144:\n        /* \"contracts t-rex/roles/AgentRoleUpgradeable.sol\":4670:4690  AgentRemoved(_agent) */\n      mload(0x40)\n      sub(shl(0xa0, 0x01), 0x01)\n      dup3\n      and\n      swap1\n      0xed9c8ad8d5a0a66898ea49d2956929c93ae2e8bd50281b2ed897c5d1a6737e0b\n      swap1\n      0x00\n      swap1\n      log2\n        /* \"contracts t-rex/roles/AgentRoleUpgradeable.sol\":4495:4697  function removeAgent(address _agent) public onlyOwner {... */\n      pop\n      jump\t// out\n        /* \"contracts t-rex/registry/implementation/IdentityRegistryStorage.sol\":5655:6072  function modifyStoredInvestorCountry(address _userAddress, uint16 _country) external override onlyAgent {... */\n    tag_59:\n        /* \"contracts t-rex/roles/AgentRoleUpgradeable.sol\":4201:4220  isAgent(msg.sender) */\n      tag_147\n        /* \"contracts t-rex/roles/AgentRoleUpgradeable.sol\":4209:4219  msg.sender */\n      caller\n        /* \"contracts t-rex/roles/AgentRoleUpgradeable.sol\":4201:4208  isAgent */\n      tag_25\n        /* \"contracts t-rex/roles/AgentRoleUpgradeable.sol\":4201:4220  isAgent(msg.sender) */\n      jump\t// in\n    tag_147:\n        /* \"contracts t-rex/roles/AgentRoleUpgradeable.sol\":4193:4271  require(isAgent(msg.sender), \"AgentRole: caller does not have the Agent role\") */\n      tag_148\n      jumpi\n      mload(0x40)\n      shl(0xe5, 0x461bcd)\n      dup2\n      mstore\n      0x04\n      add\n      tag_85\n      swap1\n      tag_150\n      jump\t// in\n    tag_148:\n      sub(shl(0xa0, 0x01), 0x01)\n        /* \"contracts t-rex/registry/implementation/IdentityRegistryStorage.sol\":5777:5803  _userAddress != address(0) */\n      dup3\n      and\n        /* \"contracts t-rex/registry/implementation/IdentityRegistryStorage.sol\":5769:5839  require(_userAddress != address(0), \"invalid argument - zero address\") */\n      tag_152\n      jumpi\n      mload(0x40)\n      shl(0xe5, 0x461bcd)\n      dup2\n      mstore\n      0x04\n      add\n      tag_85\n      swap1\n      tag_86\n      jump\t// in\n    tag_152:\n      sub(shl(0xa0, 0x01), 0x01)\n        /* \"contracts t-rex/registry/implementation/IdentityRegistryStorage.sol\":5865:5890  _identities[_userAddress] */\n      dup3\n      dup2\n      and\n        /* \"contracts t-rex/registry/implementation/IdentityRegistryStorage.sol\":5920:5921  0 */\n      0x00\n        /* \"contracts t-rex/registry/implementation/IdentityRegistryStorage.sol\":5865:5890  _identities[_userAddress] */\n      swap1\n      dup2\n      mstore\n        /* \"contracts t-rex/registry/implementation/IdentityRegistryStorage.sol\":5865:5876  _identities */\n      0x01\n        /* \"contracts t-rex/registry/implementation/IdentityRegistryStorage.sol\":5865:5890  _identities[_userAddress] */\n      0x20\n      mstore\n      0x40\n      swap1\n      keccak256\n        /* \"contracts t-rex/registry/implementation/IdentityRegistryStorage.sol\":5865:5907  _identities[_userAddress].identityContract */\n      sload\n      and\n        /* \"contracts t-rex/registry/implementation/IdentityRegistryStorage.sol\":5849:5949  require(address(_identities[_userAddress].identityContract) != address(0), \"address not stored yet\") */\n      tag_154\n      jumpi\n      mload(0x40)\n      shl(0xe5, 0x461bcd)\n      dup2\n      mstore\n      0x04\n      add\n      tag_85\n      swap1\n      tag_156\n      jump\t// in\n    tag_154:\n      sub(shl(0xa0, 0x01), 0x01)\n        /* \"contracts t-rex/registry/implementation/IdentityRegistryStorage.sol\":5959:5984  _identities[_userAddress] */\n      dup3\n      and\n      0x00\n      dup2\n      dup2\n      mstore\n        /* \"contracts t-rex/registry/implementation/IdentityRegistryStorage.sol\":5959:5970  _identities */\n      0x01\n        /* \"contracts t-rex/registry/implementation/IdentityRegistryStorage.sol\":5959:5984  _identities[_userAddress] */\n      0x20\n      mstore\n      0x40\n      dup1\n      dup3\n      keccak256\n        /* \"contracts t-rex/registry/implementation/IdentityRegistryStorage.sol\":5959:6011  _identities[_userAddress].investorCountry = _country */\n      dup1\n      sload\n      not(shl(0xa0, 0xffff))\n      and\n      shl(0xa0, 0x01)\n      0xffff\n      dup8\n      and\n      swap1\n      dup2\n      mul\n      swap2\n      swap1\n      swap2\n      or\n      swap1\n      swap2\n      sstore\n        /* \"contracts t-rex/registry/implementation/IdentityRegistryStorage.sol\":6026:6065  CountryModified(_userAddress, _country) */\n      swap1\n      mload\n        /* \"contracts t-rex/registry/implementation/IdentityRegistryStorage.sol\":5959:6011  _identities[_userAddress].investorCountry = _country */\n      swap1\n      swap3\n        /* \"contracts t-rex/registry/implementation/IdentityRegistryStorage.sol\":5959:5984  _identities[_userAddress] */\n      swap2\n        /* \"contracts t-rex/registry/implementation/IdentityRegistryStorage.sol\":6026:6065  CountryModified(_userAddress, _country) */\n      0x20965fcdc6eed7ae398065b40ece4e732ba667992ca819fc54e80e9f2047c4cf\n      swap2\n      log3\n        /* \"contracts t-rex/registry/implementation/IdentityRegistryStorage.sol\":5655:6072  function modifyStoredInvestorCountry(address _userAddress, uint16 _country) external override onlyAgent {... */\n      pop\n      pop\n      jump\t// out\n        /* \"contracts t-rex/registry/implementation/IdentityRegistryStorage.sol\":4314:4909  function addIdentityToStorage(... */\n    tag_63:\n        /* \"contracts t-rex/roles/AgentRoleUpgradeable.sol\":4201:4220  isAgent(msg.sender) */\n      tag_158\n        /* \"contracts t-rex/roles/AgentRoleUpgradeable.sol\":4209:4219  msg.sender */\n      caller\n        /* \"contracts t-rex/roles/AgentRoleUpgradeable.sol\":4201:4208  isAgent */\n      tag_25\n        /* \"contracts t-rex/roles/AgentRoleUpgradeable.sol\":4201:4220  isAgent(msg.sender) */\n      jump\t// in\n    tag_158:\n        /* \"contracts t-rex/roles/AgentRoleUpgradeable.sol\":4193:4271  require(isAgent(msg.sender), \"AgentRole: caller does not have the Agent role\") */\n      tag_159\n      jumpi\n      mload(0x40)\n      shl(0xe5, 0x461bcd)\n      dup2\n      mstore\n      0x04\n      add\n      tag_85\n      swap1\n      tag_150\n      jump\t// in\n    tag_159:\n      sub(shl(0xa0, 0x01), 0x01)\n        /* \"contracts t-rex/registry/implementation/IdentityRegistryStorage.sol\":4493:4519  _userAddress != address(0) */\n      dup4\n      and\n      iszero\n      dup1\n      iszero\n      swap1\n        /* \"contracts t-rex/registry/implementation/IdentityRegistryStorage.sol\":4493:4567  _userAddress != address(0)... */\n      tag_162\n      jumpi\n      pop\n      sub(shl(0xa0, 0x01), 0x01)\n        /* \"contracts t-rex/registry/implementation/IdentityRegistryStorage.sol\":4535:4567  address(_identity) != address(0) */\n      dup3\n      and\n      iszero\n      iszero\n        /* \"contracts t-rex/registry/implementation/IdentityRegistryStorage.sol\":4493:4567  _userAddress != address(0)... */\n    tag_162:\n        /* \"contracts t-rex/registry/implementation/IdentityRegistryStorage.sol\":4472:4612  require(... */\n      tag_163\n      jumpi\n      mload(0x40)\n      shl(0xe5, 0x461bcd)\n      dup2\n      mstore\n      0x04\n      add\n      tag_85\n      swap1\n      tag_86\n      jump\t// in\n    tag_163:\n      sub(shl(0xa0, 0x01), 0x01)\n        /* \"contracts t-rex/registry/implementation/IdentityRegistryStorage.sol\":4638:4663  _identities[_userAddress] */\n      dup4\n      dup2\n      and\n        /* \"contracts t-rex/registry/implementation/IdentityRegistryStorage.sol\":4693:4694  0 */\n      0x00\n        /* \"contracts t-rex/registry/implementation/IdentityRegistryStorage.sol\":4638:4663  _identities[_userAddress] */\n      swap1\n      dup2\n      mstore\n        /* \"contracts t-rex/registry/implementation/IdentityRegistryStorage.sol\":4638:4649  _identities */\n      0x01\n        /* \"contracts t-rex/registry/implementation/IdentityRegistryStorage.sol\":4638:4663  _identities[_userAddress] */\n      0x20\n      mstore\n      0x40\n      swap1\n      keccak256\n        /* \"contracts t-rex/registry/implementation/IdentityRegistryStorage.sol\":4638:4680  _identities[_userAddress].identityContract */\n      sload\n      and\n        /* \"contracts t-rex/registry/implementation/IdentityRegistryStorage.sol\":4630:4695  address(_identities[_userAddress].identityContract) == address(0) */\n      iszero\n        /* \"contracts t-rex/registry/implementation/IdentityRegistryStorage.sol\":4622:4722  require(address(_identities[_userAddress].identityContract) == address(0), \"address stored already\") */\n      tag_165\n      jumpi\n      mload(0x40)\n      shl(0xe5, 0x461bcd)\n      dup2\n      mstore\n        /* \"#utility.yul\":6026:6028   */\n      0x20\n        /* \"contracts t-rex/registry/implementation/IdentityRegistryStorage.sol\":4622:4722  require(address(_identities[_userAddress].identityContract) == address(0), \"address stored already\") */\n      0x04\n      dup3\n      add\n        /* \"#utility.yul\":6008:6029   */\n      mstore\n        /* \"#utility.yul\":6065:6067   */\n      0x16\n        /* \"#utility.yul\":6045:6063   */\n      0x24\n      dup3\n      add\n        /* \"#utility.yul\":6038:6068   */\n      mstore\n      shl(0x50, 0x616464726573732073746f72656420616c7265616479)\n        /* \"#utility.yul\":6084:6102   */\n      0x44\n      dup3\n      add\n        /* \"#utility.yul\":6077:6129   */\n      mstore\n        /* \"#utility.yul\":6146:6164   */\n      0x64\n      add\n        /* \"contracts t-rex/registry/implementation/IdentityRegistryStorage.sol\":4622:4722  require(address(_identities[_userAddress].identityContract) == address(0), \"address stored already\") */\n      tag_85\n        /* \"#utility.yul\":5824:6170   */\n      jump\n        /* \"contracts t-rex/registry/implementation/IdentityRegistryStorage.sol\":4622:4722  require(address(_identities[_userAddress].identityContract) == address(0), \"address stored already\") */\n    tag_165:\n      sub(shl(0xa0, 0x01), 0x01)\n        /* \"contracts t-rex/registry/implementation/IdentityRegistryStorage.sol\":4732:4757  _identities[_userAddress] */\n      dup4\n      dup2\n      and\n      0x00\n      dup2\n      dup2\n      mstore\n        /* \"contracts t-rex/registry/implementation/IdentityRegistryStorage.sol\":4732:4743  _identities */\n      0x01\n        /* \"contracts t-rex/registry/implementation/IdentityRegistryStorage.sol\":4732:4757  _identities[_userAddress] */\n      0x20\n      mstore\n      0x40\n      dup1\n      dup3\n      keccak256\n        /* \"contracts t-rex/registry/implementation/IdentityRegistryStorage.sol\":4732:4786  _identities[_userAddress].identityContract = _identity */\n      dup1\n      sload\n      swap5\n      dup8\n      and\n      not(sub(shl(0xb0, 0x01), 0x01))\n        /* \"contracts t-rex/registry/implementation/IdentityRegistryStorage.sol\":4796:4848  _identities[_userAddress].investorCountry = _country */\n      swap1\n      swap6\n      and\n      dup6\n      or\n      shl(0xa0, 0x01)\n      0xffff\n      dup9\n      and\n      mul\n      or\n      swap1\n      sstore\n        /* \"contracts t-rex/registry/implementation/IdentityRegistryStorage.sol\":4863:4902  IdentityStored(_userAddress, _identity) */\n      mload\n      0x30dea7e9c9afaa2e3c9810f2fc9b5181f1bad74ca5a8db85f746a33585e747\n      swap2\n        /* \"contracts t-rex/registry/implementation/IdentityRegistryStorage.sol\":4732:4757  _identities[_userAddress] */\n      swap1\n        /* \"contracts t-rex/registry/implementation/IdentityRegistryStorage.sol\":4863:4902  IdentityStored(_userAddress, _identity) */\n      log3\n        /* \"contracts t-rex/registry/implementation/IdentityRegistryStorage.sol\":4314:4909  function addIdentityToStorage(... */\n      pop\n      pop\n      pop\n      jump\t// out\n        /* \"contracts t-rex/registry/implementation/IdentityRegistryStorage.sol\":7974:8103  function linkedIdentityRegistries() external view override returns (address[] memory) {... */\n    tag_65:\n        /* \"contracts t-rex/registry/implementation/IdentityRegistryStorage.sol\":8042:8058  address[] memory */\n      0x60\n        /* \"contracts t-rex/registry/implementation/IdentityRegistryStorage.sol\":8077:8096  _identityRegistries */\n      0x02\n        /* \"contracts t-rex/registry/implementation/IdentityRegistryStorage.sol\":8070:8096  return _identityRegistries */\n      dup1\n      sload\n      dup1\n      0x20\n      mul\n      0x20\n      add\n      mload(0x40)\n      swap1\n      dup2\n      add\n      0x40\n      mstore\n      dup1\n      swap3\n      swap2\n      swap1\n      dup2\n      dup2\n      mstore\n      0x20\n      add\n      dup3\n      dup1\n      sload\n      dup1\n      iszero\n      tag_169\n      jumpi\n      0x20\n      mul\n      dup3\n      add\n      swap2\n      swap1\n      0x00\n      mstore\n      keccak256(0x00, 0x20)\n      swap1\n    tag_170:\n      dup2\n      sload\n      sub(shl(0xa0, 0x01), 0x01)\n      and\n      dup2\n      mstore\n      0x01\n      swap1\n      swap2\n      add\n      swap1\n      0x20\n      add\n      dup1\n      dup4\n      gt\n      tag_170\n      jumpi\n    tag_169:\n      pop\n      pop\n      pop\n      pop\n      pop\n      swap1\n      pop\n        /* \"contracts t-rex/registry/implementation/IdentityRegistryStorage.sol\":7974:8103  function linkedIdentityRegistries() external view override returns (address[] memory) {... */\n      swap1\n      jump\t// out\n        /* \"contracts t-rex/registry/implementation/IdentityRegistryStorage.sol\":6165:6623  function removeIdentityFromStorage(address _userAddress) external override onlyAgent {... */\n    tag_70:\n        /* \"contracts t-rex/roles/AgentRoleUpgradeable.sol\":4201:4220  isAgent(msg.sender) */\n      tag_172\n        /* \"contracts t-rex/roles/AgentRoleUpgradeable.sol\":4209:4219  msg.sender */\n      caller\n        /* \"contracts t-rex/roles/AgentRoleUpgradeable.sol\":4201:4208  isAgent */\n      tag_25\n        /* \"contracts t-rex/roles/AgentRoleUpgradeable.sol\":4201:4220  isAgent(msg.sender) */\n      jump\t// in\n    tag_172:\n        /* \"contracts t-rex/roles/AgentRoleUpgradeable.sol\":4193:4271  require(isAgent(msg.sender), \"AgentRole: caller does not have the Agent role\") */\n      tag_173\n      jumpi\n      mload(0x40)\n      shl(0xe5, 0x461bcd)\n      dup2\n      mstore\n      0x04\n      add\n      tag_85\n      swap1\n      tag_150\n      jump\t// in\n    tag_173:\n      sub(shl(0xa0, 0x01), 0x01)\n        /* \"contracts t-rex/registry/implementation/IdentityRegistryStorage.sol\":6268:6294  _userAddress != address(0) */\n      dup2\n      and\n        /* \"contracts t-rex/registry/implementation/IdentityRegistryStorage.sol\":6260:6330  require(_userAddress != address(0), \"invalid argument - zero address\") */\n      tag_176\n      jumpi\n      mload(0x40)\n      shl(0xe5, 0x461bcd)\n      dup2\n      mstore\n      0x04\n      add\n      tag_85\n      swap1\n      tag_86\n      jump\t// in\n    tag_176:\n      sub(shl(0xa0, 0x01), 0x01)\n        /* \"contracts t-rex/registry/implementation/IdentityRegistryStorage.sol\":6356:6381  _identities[_userAddress] */\n      dup2\n      dup2\n      and\n        /* \"contracts t-rex/registry/implementation/IdentityRegistryStorage.sol\":6411:6412  0 */\n      0x00\n        /* \"contracts t-rex/registry/implementation/IdentityRegistryStorage.sol\":6356:6381  _identities[_userAddress] */\n      swap1\n      dup2\n      mstore\n        /* \"contracts t-rex/registry/implementation/IdentityRegistryStorage.sol\":6356:6367  _identities */\n      0x01\n        /* \"contracts t-rex/registry/implementation/IdentityRegistryStorage.sol\":6356:6381  _identities[_userAddress] */\n      0x20\n      mstore\n      0x40\n      swap1\n      keccak256\n        /* \"contracts t-rex/registry/implementation/IdentityRegistryStorage.sol\":6356:6398  _identities[_userAddress].identityContract */\n      sload\n      and\n        /* \"contracts t-rex/registry/implementation/IdentityRegistryStorage.sol\":6340:6440  require(address(_identities[_userAddress].identityContract) != address(0), \"address not stored yet\") */\n      tag_178\n      jumpi\n      mload(0x40)\n      shl(0xe5, 0x461bcd)\n      dup2\n      mstore\n      0x04\n      add\n      tag_85\n      swap1\n      tag_156\n      jump\t// in\n    tag_178:\n      sub(shl(0xa0, 0x01), 0x01)\n        /* \"contracts t-rex/registry/implementation/IdentityRegistryStorage.sol\":6474:6499  _identities[_userAddress] */\n      dup1\n      dup3\n      and\n        /* \"contracts t-rex/registry/implementation/IdentityRegistryStorage.sol\":6450:6471  IIdentity oldIdentity */\n      0x00\n        /* \"contracts t-rex/registry/implementation/IdentityRegistryStorage.sol\":6474:6499  _identities[_userAddress] */\n      dup2\n      dup2\n      mstore\n        /* \"contracts t-rex/registry/implementation/IdentityRegistryStorage.sol\":6474:6485  _identities */\n      0x01\n        /* \"contracts t-rex/registry/implementation/IdentityRegistryStorage.sol\":6474:6499  _identities[_userAddress] */\n      0x20\n      mstore\n      0x40\n      dup1\n      dup3\n      keccak256\n        /* \"contracts t-rex/registry/implementation/IdentityRegistryStorage.sol\":6474:6516  _identities[_userAddress].identityContract */\n      dup1\n      sload\n      not(sub(shl(0xb0, 0x01), 0x01))\n        /* \"contracts t-rex/registry/implementation/IdentityRegistryStorage.sol\":6526:6558  delete _identities[_userAddress] */\n      dup2\n      and\n      swap1\n      swap2\n      sstore\n        /* \"contracts t-rex/registry/implementation/IdentityRegistryStorage.sol\":6573:6616  IdentityUnstored(_userAddress, oldIdentity) */\n      swap1\n      mload\n        /* \"contracts t-rex/registry/implementation/IdentityRegistryStorage.sol\":6474:6516  _identities[_userAddress].identityContract */\n      swap4\n      and\n      swap3\n      dup4\n      swap3\n        /* \"contracts t-rex/registry/implementation/IdentityRegistryStorage.sol\":6474:6499  _identities[_userAddress] */\n      swap2\n        /* \"contracts t-rex/registry/implementation/IdentityRegistryStorage.sol\":6573:6616  IdentityUnstored(_userAddress, oldIdentity) */\n      0xca6a4c3370b859312246e7f086284076e557997e10d856b716c23ab67067790b\n      swap2\n      log3\n        /* \"contracts t-rex/registry/implementation/IdentityRegistryStorage.sol\":6250:6623  {... */\n      pop\n        /* \"contracts t-rex/registry/implementation/IdentityRegistryStorage.sol\":6165:6623  function removeIdentityFromStorage(address _userAddress) external override onlyAgent {... */\n      pop\n      jump\t// out\n        /* \"contracts t-rex/registry/implementation/IdentityRegistryStorage.sol\":4146:4226  function init() external initializer {... */\n    tag_72:\n        /* \"@openzeppelin/contracts-upgradeable/proxy/utils/Initializable.sol\":8870:8891  INITIALIZABLE_STORAGE */\n      0xf0c57e16840df040f15088dc2f81fe391c3923bec73e23a9662efc9c229c6a00\n        /* \"@openzeppelin/contracts-upgradeable/proxy/utils/Initializable.sol\":4302:4317  $._initializing */\n      dup1\n      sload\n      shl(0x40, 0x01)\n      dup2\n      div\n      0xff\n      and\n        /* \"@openzeppelin/contracts-upgradeable/proxy/utils/Initializable.sol\":4301:4317  !$._initializing */\n      iszero\n      swap1\n        /* \"@openzeppelin/contracts-upgradeable/proxy/utils/Initializable.sol\":4348:4362  $._initialized */\n      0xffffffffffffffff\n      and\n        /* \"@openzeppelin/contracts-upgradeable/proxy/utils/Initializable.sol\":4158:4188  InitializableStorage storage $ */\n      0x00\n        /* \"@openzeppelin/contracts-upgradeable/proxy/utils/Initializable.sol\":4726:4742  initialized == 0 */\n      dup2\n      iszero\n        /* \"@openzeppelin/contracts-upgradeable/proxy/utils/Initializable.sol\":4726:4760  initialized == 0 && isTopLevelCall */\n      dup1\n      iszero\n      tag_183\n      jumpi\n      pop\n        /* \"@openzeppelin/contracts-upgradeable/proxy/utils/Initializable.sol\":4746:4760  isTopLevelCall */\n      dup3\n        /* \"@openzeppelin/contracts-upgradeable/proxy/utils/Initializable.sol\":4726:4760  initialized == 0 && isTopLevelCall */\n    tag_183:\n        /* \"@openzeppelin/contracts-upgradeable/proxy/utils/Initializable.sol\":4706:4760  bool initialSetup = initialized == 0 && isTopLevelCall */\n      swap1\n      pop\n        /* \"@openzeppelin/contracts-upgradeable/proxy/utils/Initializable.sol\":4770:4787  bool construction */\n      0x00\n        /* \"@openzeppelin/contracts-upgradeable/proxy/utils/Initializable.sol\":4790:4801  initialized */\n      dup3\n        /* \"@openzeppelin/contracts-upgradeable/proxy/utils/Initializable.sol\":4790:4806  initialized == 1 */\n      0xffffffffffffffff\n      and\n        /* \"@openzeppelin/contracts-upgradeable/proxy/utils/Initializable.sol\":4805:4806  1 */\n      0x01\n        /* \"@openzeppelin/contracts-upgradeable/proxy/utils/Initializable.sol\":4790:4806  initialized == 1 */\n      eq\n        /* \"@openzeppelin/contracts-upgradeable/proxy/utils/Initializable.sol\":4790:4840  initialized == 1 && address(this).code.length == 0 */\n      dup1\n      iszero\n      tag_184\n      jumpi\n      pop\n        /* \"@openzeppelin/contracts-upgradeable/proxy/utils/Initializable.sol\":4818:4822  this */\n      address\n        /* \"@openzeppelin/contracts-upgradeable/proxy/utils/Initializable.sol\":4810:4835  address(this).code.length */\n      extcodesize\n        /* \"@openzeppelin/contracts-upgradeable/proxy/utils/Initializable.sol\":4810:4840  address(this).code.length == 0 */\n      iszero\n        /* \"@openzeppelin/contracts-upgradeable/proxy/utils/Initializable.sol\":4790:4840  initialized == 1 && address(this).code.length == 0 */\n    tag_184:\n        /* \"@openzeppelin/contracts-upgradeable/proxy/utils/Initializable.sol\":4770:4840  bool construction = initialized == 1 && address(this).code.length == 0 */\n      swap1\n      pop\n        /* \"@openzeppelin/contracts-upgradeable/proxy/utils/Initializable.sol\":4856:4868  initialSetup */\n      dup2\n        /* \"@openzeppelin/contracts-upgradeable/proxy/utils/Initializable.sol\":4855:4868  !initialSetup */\n      iszero\n        /* \"@openzeppelin/contracts-upgradeable/proxy/utils/Initializable.sol\":4855:4885  !initialSetup && !construction */\n      dup1\n      iszero\n      tag_185\n      jumpi\n      pop\n        /* \"@openzeppelin/contracts-upgradeable/proxy/utils/Initializable.sol\":4873:4885  construction */\n      dup1\n        /* \"@openzeppelin/contracts-upgradeable/proxy/utils/Initializable.sol\":4872:4885  !construction */\n      iszero\n        /* \"@openzeppelin/contracts-upgradeable/proxy/utils/Initializable.sol\":4855:4885  !initialSetup && !construction */\n    tag_185:\n        /* \"@openzeppelin/contracts-upgradeable/proxy/utils/Initializable.sol\":4851:4942  if (!initialSetup && !construction) {... */\n      iszero\n      tag_186\n      jumpi\n        /* \"@openzeppelin/contracts-upgradeable/proxy/utils/Initializable.sol\":4908:4931  InvalidInitialization() */\n      mload(0x40)\n      shl(0xe0, 0xf92ee8a9)\n      dup2\n      mstore\n      0x04\n      add\n      mload(0x40)\n      dup1\n      swap2\n      sub\n      swap1\n      revert\n        /* \"@openzeppelin/contracts-upgradeable/proxy/utils/Initializable.sol\":4851:4942  if (!initialSetup && !construction) {... */\n    tag_186:\n        /* \"@openzeppelin/contracts-upgradeable/proxy/utils/Initializable.sol\":4951:4969  $._initialized = 1 */\n      dup5\n      sload\n      not(0xffffffffffffffff)\n      and\n        /* \"@openzeppelin/contracts-upgradeable/proxy/utils/Initializable.sol\":4968:4969  1 */\n      0x01\n        /* \"@openzeppelin/contracts-upgradeable/proxy/utils/Initializable.sol\":4951:4969  $._initialized = 1 */\n      or\n      dup6\n      sstore\n        /* \"@openzeppelin/contracts-upgradeable/proxy/utils/Initializable.sol\":4979:5046  if (isTopLevelCall) {... */\n      dup4\n      iszero\n      tag_187\n      jumpi\n        /* \"@openzeppelin/contracts-upgradeable/proxy/utils/Initializable.sol\":5013:5035  $._initializing = true */\n      dup5\n      sload\n      not(shl(0x40, 0xff))\n      and\n      shl(0x40, 0x01)\n      or\n      dup6\n      sstore\n        /* \"@openzeppelin/contracts-upgradeable/proxy/utils/Initializable.sol\":4979:5046  if (isTopLevelCall) {... */\n    tag_187:\n        /* \"contracts t-rex/registry/implementation/IdentityRegistryStorage.sol\":4193:4219  __Ownable_init(msg.sender) */\n      tag_189\n        /* \"contracts t-rex/registry/implementation/IdentityRegistryStorage.sol\":4208:4218  msg.sender */\n      caller\n        /* \"contracts t-rex/registry/implementation/IdentityRegistryStorage.sol\":4193:4207  __Ownable_init */\n      tag_190\n        /* \"contracts t-rex/registry/implementation/IdentityRegistryStorage.sol\":4193:4219  __Ownable_init(msg.sender) */\n      jump\t// in\n    tag_189:\n        /* \"@openzeppelin/contracts-upgradeable/proxy/utils/Initializable.sol\":5070:5084  isTopLevelCall */\n      dup4\n        /* \"@openzeppelin/contracts-upgradeable/proxy/utils/Initializable.sol\":5066:5167  if (isTopLevelCall) {... */\n      iszero\n      tag_191\n      jumpi\n        /* \"@openzeppelin/contracts-upgradeable/proxy/utils/Initializable.sol\":5100:5123  $._initializing = false */\n      dup5\n      sload\n      not(shl(0x40, 0xff))\n      and\n      dup6\n      sstore\n        /* \"@openzeppelin/contracts-upgradeable/proxy/utils/Initializable.sol\":5142:5156  Initialized(1) */\n      mload(0x40)\n      0x01\n        /* \"#utility.yul\":6328:6378   */\n      dup2\n      mstore\n        /* \"@openzeppelin/contracts-upgradeable/proxy/utils/Initializable.sol\":5142:5156  Initialized(1) */\n      0xc7f505b2f371ae2175ee4913f4499e1f2633a7b5936321eed1cdaeb6115181d2\n      swap1\n        /* \"#utility.yul\":6316:6318   */\n      0x20\n        /* \"#utility.yul\":6301:6319   */\n      add\n        /* \"@openzeppelin/contracts-upgradeable/proxy/utils/Initializable.sol\":5142:5156  Initialized(1) */\n      mload(0x40)\n      dup1\n      swap2\n      sub\n      swap1\n      log1\n        /* \"@openzeppelin/contracts-upgradeable/proxy/utils/Initializable.sol\":5066:5167  if (isTopLevelCall) {... */\n    tag_191:\n        /* \"@openzeppelin/contracts-upgradeable/proxy/utils/Initializable.sol\":4092:5173  {... */\n      pop\n      pop\n      pop\n      pop\n      pop\n        /* \"contracts t-rex/registry/implementation/IdentityRegistryStorage.sol\":4146:4226  function init() external initializer {... */\n      jump\t// out\n        /* \"contracts t-rex/registry/implementation/IdentityRegistryStorage.sol\":4997:5560  function modifyStoredIdentity(address _userAddress, IIdentity _identity) external override onlyAgent {... */\n    tag_76:\n        /* \"contracts t-rex/roles/AgentRoleUpgradeable.sol\":4201:4220  isAgent(msg.sender) */\n      tag_195\n        /* \"contracts t-rex/roles/AgentRoleUpgradeable.sol\":4209:4219  msg.sender */\n      caller\n        /* \"contracts t-rex/roles/AgentRoleUpgradeable.sol\":4201:4208  isAgent */\n      tag_25\n        /* \"contracts t-rex/roles/AgentRoleUpgradeable.sol\":4201:4220  isAgent(msg.sender) */\n      jump\t// in\n    tag_195:\n        /* \"contracts t-rex/roles/AgentRoleUpgradeable.sol\":4193:4271  require(isAgent(msg.sender), \"AgentRole: caller does not have the Agent role\") */\n      tag_196\n      jumpi\n      mload(0x40)\n      shl(0xe5, 0x461bcd)\n      dup2\n      mstore\n      0x04\n      add\n      tag_85\n      swap1\n      tag_150\n      jump\t// in\n    tag_196:\n      sub(shl(0xa0, 0x01), 0x01)\n        /* \"contracts t-rex/registry/implementation/IdentityRegistryStorage.sol\":5129:5155  _userAddress != address(0) */\n      dup3\n      and\n      iszero\n      dup1\n      iszero\n      swap1\n        /* \"contracts t-rex/registry/implementation/IdentityRegistryStorage.sol\":5129:5203  _userAddress != address(0)... */\n      tag_199\n      jumpi\n      pop\n      sub(shl(0xa0, 0x01), 0x01)\n        /* \"contracts t-rex/registry/implementation/IdentityRegistryStorage.sol\":5171:5203  address(_identity) != address(0) */\n      dup2\n      and\n      iszero\n      iszero\n        /* \"contracts t-rex/registry/implementation/IdentityRegistryStorage.sol\":5129:5203  _userAddress != address(0)... */\n    tag_199:\n        /* \"contracts t-rex/registry/implementation/IdentityRegistryStorage.sol\":5108:5248  require(... */\n      tag_200\n      jumpi\n      mload(0x40)\n      shl(0xe5, 0x461bcd)\n      dup2\n      mstore\n      0x04\n      add\n      tag_85\n      swap1\n      tag_86\n      jump\t// in\n    tag_200:\n      sub(shl(0xa0, 0x01), 0x01)\n        /* \"contracts t-rex/registry/implementation/IdentityRegistryStorage.sol\":5274:5299  _identities[_userAddress] */\n      dup3\n      dup2\n      and\n        /* \"contracts t-rex/registry/implementation/IdentityRegistryStorage.sol\":5329:5330  0 */\n      0x00\n        /* \"contracts t-rex/registry/implementation/IdentityRegistryStorage.sol\":5274:5299  _identities[_userAddress] */\n      swap1\n      dup2\n      mstore\n        /* \"contracts t-rex/registry/implementation/IdentityRegistryStorage.sol\":5274:5285  _identities */\n      0x01\n        /* \"contracts t-rex/registry/implementation/IdentityRegistryStorage.sol\":5274:5299  _identities[_userAddress] */\n      0x20\n      mstore\n      0x40\n      swap1\n      keccak256\n        /* \"contracts t-rex/registry/implementation/IdentityRegistryStorage.sol\":5274:5316  _identities[_userAddress].identityContract */\n      sload\n      and\n        /* \"contracts t-rex/registry/implementation/IdentityRegistryStorage.sol\":5258:5358  require(address(_identities[_userAddress].identityContract) != address(0), \"address not stored yet\") */\n      tag_202\n      jumpi\n      mload(0x40)\n      shl(0xe5, 0x461bcd)\n      dup2\n      mstore\n      0x04\n      add\n      tag_85\n      swap1\n      tag_156\n      jump\t// in\n    tag_202:\n      sub(shl(0xa0, 0x01), 0x01)\n        /* \"contracts t-rex/registry/implementation/IdentityRegistryStorage.sol\":5392:5417  _identities[_userAddress] */\n      dup1\n      dup4\n      and\n        /* \"contracts t-rex/registry/implementation/IdentityRegistryStorage.sol\":5368:5389  IIdentity oldIdentity */\n      0x00\n        /* \"contracts t-rex/registry/implementation/IdentityRegistryStorage.sol\":5392:5417  _identities[_userAddress] */\n      swap1\n      dup2\n      mstore\n        /* \"contracts t-rex/registry/implementation/IdentityRegistryStorage.sol\":5392:5403  _identities */\n      0x01\n        /* \"contracts t-rex/registry/implementation/IdentityRegistryStorage.sol\":5392:5417  _identities[_userAddress] */\n      0x20\n      mstore\n      0x40\n      dup1\n      dup3\n      keccak256\n        /* \"contracts t-rex/registry/implementation/IdentityRegistryStorage.sol\":5392:5434  _identities[_userAddress].identityContract */\n      dup1\n      sload\n        /* \"contracts t-rex/registry/implementation/IdentityRegistryStorage.sol\":5444:5498  _identities[_userAddress].identityContract = _identity */\n      dup6\n      dup6\n      and\n      not(sub(shl(0xa0, 0x01), 0x01))\n      dup3\n      and\n      dup2\n      or\n      swap1\n      swap3\n      sstore\n        /* \"contracts t-rex/registry/implementation/IdentityRegistryStorage.sol\":5513:5553  IdentityModified(oldIdentity, _identity) */\n      swap2\n      mload\n        /* \"contracts t-rex/registry/implementation/IdentityRegistryStorage.sol\":5392:5434  _identities[_userAddress].identityContract */\n      swap2\n      swap1\n      swap4\n      and\n      swap3\n        /* \"contracts t-rex/registry/implementation/IdentityRegistryStorage.sol\":5444:5498  _identities[_userAddress].identityContract = _identity */\n      swap2\n        /* \"contracts t-rex/registry/implementation/IdentityRegistryStorage.sol\":5392:5434  _identities[_userAddress].identityContract */\n      dup4\n      swap2\n        /* \"contracts t-rex/registry/implementation/IdentityRegistryStorage.sol\":5513:5553  IdentityModified(oldIdentity, _identity) */\n      0x556ce885dfcea52155c773f1ed2e58781c51945c13030ab8f793c61f51d1b808\n      swap2\n        /* \"contracts t-rex/registry/implementation/IdentityRegistryStorage.sol\":5368:5389  IIdentity oldIdentity */\n      swap1\n        /* \"contracts t-rex/registry/implementation/IdentityRegistryStorage.sol\":5513:5553  IdentityModified(oldIdentity, _identity) */\n      log3\n        /* \"contracts t-rex/registry/implementation/IdentityRegistryStorage.sol\":5098:5560  {... */\n      pop\n        /* \"contracts t-rex/registry/implementation/IdentityRegistryStorage.sol\":4997:5560  function modifyStoredIdentity(address _userAddress, IIdentity _identity) external override onlyAgent {... */\n      pop\n      pop\n      jump\t// out\n        /* \"@openzeppelin/contracts-upgradeable/access/OwnableUpgradeable.sol\":3415:3630  function transferOwnership(address newOwner) public virtual onlyOwner {... */\n    tag_79:\n        /* \"@openzeppelin/contracts-upgradeable/access/OwnableUpgradeable.sol\":2344:2357  _checkOwner() */\n      tag_205\n        /* \"@openzeppelin/contracts-upgradeable/access/OwnableUpgradeable.sol\":2344:2355  _checkOwner */\n      tag_94\n        /* \"@openzeppelin/contracts-upgradeable/access/OwnableUpgradeable.sol\":2344:2357  _checkOwner() */\n      jump\t// in\n    tag_205:\n      sub(shl(0xa0, 0x01), 0x01)\n        /* \"@openzeppelin/contracts-upgradeable/access/OwnableUpgradeable.sol\":3499:3521  newOwner == address(0) */\n      dup2\n      and\n        /* \"@openzeppelin/contracts-upgradeable/access/OwnableUpgradeable.sol\":3495:3586  if (newOwner == address(0)) {... */\n      tag_207\n      jumpi\n        /* \"@openzeppelin/contracts-upgradeable/access/OwnableUpgradeable.sol\":3544:3575  OwnableInvalidOwner(address(0)) */\n      mload(0x40)\n      shl(0xe0, 0x1e4fbdf7)\n      dup2\n      mstore\n        /* \"@openzeppelin/contracts-upgradeable/access/OwnableUpgradeable.sol\":3572:3573  0 */\n      0x00\n        /* \"@openzeppelin/contracts-upgradeable/access/OwnableUpgradeable.sol\":3544:3575  OwnableInvalidOwner(address(0)) */\n      0x04\n      dup3\n      add\n        /* \"#utility.yul\":950:1001   */\n      mstore\n        /* \"#utility.yul\":923:941   */\n      0x24\n      add\n        /* \"@openzeppelin/contracts-upgradeable/access/OwnableUpgradeable.sol\":3544:3575  OwnableInvalidOwner(address(0)) */\n      tag_85\n        /* \"#utility.yul\":787:1007   */\n      jump\n        /* \"@openzeppelin/contracts-upgradeable/access/OwnableUpgradeable.sol\":3495:3586  if (newOwner == address(0)) {... */\n    tag_207:\n        /* \"@openzeppelin/contracts-upgradeable/access/OwnableUpgradeable.sol\":3595:3623  _transferOwnership(newOwner) */\n      tag_209\n        /* \"@openzeppelin/contracts-upgradeable/access/OwnableUpgradeable.sol\":3614:3622  newOwner */\n      dup2\n        /* \"@openzeppelin/contracts-upgradeable/access/OwnableUpgradeable.sol\":3595:3613  _transferOwnership */\n      tag_97\n        /* \"@openzeppelin/contracts-upgradeable/access/OwnableUpgradeable.sol\":3595:3623  _transferOwnership(newOwner) */\n      jump\t// in\n    tag_209:\n        /* \"@openzeppelin/contracts-upgradeable/access/OwnableUpgradeable.sol\":3415:3630  function transferOwnership(address newOwner) public virtual onlyOwner {... */\n      pop\n      jump\t// out\n        /* \"contracts t-rex/roles/Roles.sol\":4596:4796  function has(Role storage role, address account) internal view returns (bool) {... */\n    tag_82:\n        /* \"contracts t-rex/roles/Roles.sol\":4668:4672  bool */\n      0x00\n      sub(shl(0xa0, 0x01), 0x01)\n        /* \"contracts t-rex/roles/Roles.sol\":4692:4713  account != address(0) */\n      dup3\n      and\n        /* \"contracts t-rex/roles/Roles.sol\":4684:4752  require(account != address(0), \"Roles: account is the zero address\") */\n      tag_211\n      jumpi\n      mload(0x40)\n      shl(0xe5, 0x461bcd)\n      dup2\n      mstore\n        /* \"#utility.yul\":6591:6593   */\n      0x20\n        /* \"contracts t-rex/roles/Roles.sol\":4684:4752  require(account != address(0), \"Roles: account is the zero address\") */\n      0x04\n      dup3\n      add\n        /* \"#utility.yul\":6573:6594   */\n      mstore\n        /* \"#utility.yul\":6630:6632   */\n      0x22\n        /* \"#utility.yul\":6610:6628   */\n      0x24\n      dup3\n      add\n        /* \"#utility.yul\":6603:6633   */\n      mstore\n        /* \"#utility.yul\":6669:6703   */\n      0x526f6c65733a206163636f756e7420697320746865207a65726f206164647265\n        /* \"#utility.yul\":6649:6667   */\n      0x44\n      dup3\n      add\n        /* \"#utility.yul\":6642:6704   */\n      mstore\n      shl(0xf0, 0x7373)\n        /* \"#utility.yul\":6720:6738   */\n      0x64\n      dup3\n      add\n        /* \"#utility.yul\":6713:6745   */\n      mstore\n        /* \"#utility.yul\":6762:6781   */\n      0x84\n      add\n        /* \"contracts t-rex/roles/Roles.sol\":4684:4752  require(account != address(0), \"Roles: account is the zero address\") */\n      tag_85\n        /* \"#utility.yul\":6389:6787   */\n      jump\n        /* \"contracts t-rex/roles/Roles.sol\":4684:4752  require(account != address(0), \"Roles: account is the zero address\") */\n    tag_211:\n      pop\n      sub(shl(0xa0, 0x01), 0x01)\n        /* \"contracts t-rex/roles/Roles.sol\":4769:4789  role.bearer[account] */\n      and\n        /* \"contracts t-rex/roles/Roles.sol\":4769:4780  role.bearer */\n      0x00\n        /* \"contracts t-rex/roles/Roles.sol\":4769:4789  role.bearer[account] */\n      swap1\n      dup2\n      mstore\n      0x20\n      swap2\n      swap1\n      swap2\n      mstore\n      0x40\n      swap1\n      keccak256\n      sload\n      0xff\n      and\n      swap1\n        /* \"contracts t-rex/roles/Roles.sol\":4596:4796  function has(Role storage role, address account) internal view returns (bool) {... */\n      jump\t// out\n        /* \"@openzeppelin/contracts-upgradeable/access/OwnableUpgradeable.sol\":2668:2830  function _checkOwner() internal view virtual {... */\n    tag_94:\n        /* \"@openzeppelin/contracts-upgradeable/utils/ContextUpgradeable.sol\":966:976  msg.sender */\n      caller\n        /* \"@openzeppelin/contracts-upgradeable/access/OwnableUpgradeable.sol\":2727:2734  owner() */\n      tag_217\n        /* \"@openzeppelin/contracts-upgradeable/access/OwnableUpgradeable.sol\":1323:1345  OwnableStorageLocation */\n      0x9016d09d72d40fdae2fd8ceac6b6234c7706214fd39c1cd1e609a0528c199300\n        /* \"@openzeppelin/contracts-upgradeable/access/OwnableUpgradeable.sol\":2580:2588  $._owner */\n      sload\n      sub(shl(0xa0, 0x01), 0x01)\n      and\n      swap1\n        /* \"@openzeppelin/contracts-upgradeable/access/OwnableUpgradeable.sol\":2451:2595  function owner() public view virtual returns (address) {... */\n      jump\n        /* \"@openzeppelin/contracts-upgradeable/access/OwnableUpgradeable.sol\":2727:2734  owner() */\n    tag_217:\n      sub(shl(0xa0, 0x01), 0x01)\n        /* \"@openzeppelin/contracts-upgradeable/access/OwnableUpgradeable.sol\":2727:2750  owner() != _msgSender() */\n      and\n      eq\n        /* \"@openzeppelin/contracts-upgradeable/access/OwnableUpgradeable.sol\":2723:2824  if (owner() != _msgSender()) {... */\n      tag_96\n      jumpi\n        /* \"@openzeppelin/contracts-upgradeable/access/OwnableUpgradeable.sol\":2773:2813  OwnableUnauthorizedAccount(_msgSender()) */\n      mload(0x40)\n      shl(0xe0, 0x118cdaa7)\n      dup2\n      mstore\n        /* \"@openzeppelin/contracts-upgradeable/utils/ContextUpgradeable.sol\":966:976  msg.sender */\n      caller\n        /* \"@openzeppelin/contracts-upgradeable/access/OwnableUpgradeable.sol\":2773:2813  OwnableUnauthorizedAccount(_msgSender()) */\n      0x04\n      dup3\n      add\n        /* \"#utility.yul\":950:1001   */\n      mstore\n        /* \"#utility.yul\":923:941   */\n      0x24\n      add\n        /* \"@openzeppelin/contracts-upgradeable/access/OwnableUpgradeable.sol\":2773:2813  OwnableUnauthorizedAccount(_msgSender()) */\n      tag_85\n        /* \"#utility.yul\":787:1007   */\n      jump\n        /* \"@openzeppelin/contracts-upgradeable/access/OwnableUpgradeable.sol\":3784:4032  function _transferOwnership(address newOwner) internal virtual {... */\n    tag_97:\n        /* \"@openzeppelin/contracts-upgradeable/access/OwnableUpgradeable.sol\":1323:1345  OwnableStorageLocation */\n      0x9016d09d72d40fdae2fd8ceac6b6234c7706214fd39c1cd1e609a0528c199300\n        /* \"@openzeppelin/contracts-upgradeable/access/OwnableUpgradeable.sol\":3933:3941  $._owner */\n      dup1\n      sload\n      not(sub(shl(0xa0, 0x01), 0x01))\n        /* \"@openzeppelin/contracts-upgradeable/access/OwnableUpgradeable.sol\":3951:3970  $._owner = newOwner */\n      dup2\n      and\n      sub(shl(0xa0, 0x01), 0x01)\n      dup5\n      dup2\n      and\n      swap2\n      dup3\n      or\n      dup5\n      sstore\n        /* \"@openzeppelin/contracts-upgradeable/access/OwnableUpgradeable.sol\":3985:4025  OwnershipTransferred(oldOwner, newOwner) */\n      mload(0x40)\n        /* \"@openzeppelin/contracts-upgradeable/access/OwnableUpgradeable.sol\":3933:3941  $._owner */\n      swap3\n      and\n      swap2\n      dup3\n      swap1\n        /* \"@openzeppelin/contracts-upgradeable/access/OwnableUpgradeable.sol\":3985:4025  OwnershipTransferred(oldOwner, newOwner) */\n      0x8be0079c531659141344cd1fd0a4f28419497f9722a3daafe3b4186f6b6457e0\n      swap1\n        /* \"@openzeppelin/contracts-upgradeable/access/OwnableUpgradeable.sol\":3857:3881  OwnableStorage storage $ */\n      0x00\n      swap1\n        /* \"@openzeppelin/contracts-upgradeable/access/OwnableUpgradeable.sol\":3985:4025  OwnershipTransferred(oldOwner, newOwner) */\n      log3\n        /* \"@openzeppelin/contracts-upgradeable/access/OwnableUpgradeable.sol\":3847:4032  {... */\n      pop\n      pop\n        /* \"@openzeppelin/contracts-upgradeable/access/OwnableUpgradeable.sol\":3784:4032  function _transferOwnership(address newOwner) internal virtual {... */\n      pop\n      jump\t// out\n        /* \"contracts t-rex/roles/Roles.sol\":4077:4252  function add(Role storage role, address account) internal {... */\n    tag_106:\n        /* \"contracts t-rex/roles/Roles.sol\":4154:4172  has(role, account) */\n      tag_224\n        /* \"contracts t-rex/roles/Roles.sol\":4158:4162  role */\n      dup3\n        /* \"contracts t-rex/roles/Roles.sol\":4164:4171  account */\n      dup3\n        /* \"contracts t-rex/roles/Roles.sol\":4154:4157  has */\n      tag_82\n        /* \"contracts t-rex/roles/Roles.sol\":4154:4172  has(role, account) */\n      jump\t// in\n    tag_224:\n        /* \"contracts t-rex/roles/Roles.sol\":4153:4172  !has(role, account) */\n      iszero\n        /* \"contracts t-rex/roles/Roles.sol\":4145:4208  require(!has(role, account), \"Roles: account already has role\") */\n      tag_225\n      jumpi\n      mload(0x40)\n      shl(0xe5, 0x461bcd)\n      dup2\n      mstore\n        /* \"#utility.yul\":6994:6996   */\n      0x20\n        /* \"contracts t-rex/roles/Roles.sol\":4145:4208  require(!has(role, account), \"Roles: account already has role\") */\n      0x04\n      dup3\n      add\n        /* \"#utility.yul\":6976:6997   */\n      mstore\n        /* \"#utility.yul\":7033:7035   */\n      0x1f\n        /* \"#utility.yul\":7013:7031   */\n      0x24\n      dup3\n      add\n        /* \"#utility.yul\":7006:7036   */\n      mstore\n        /* \"#utility.yul\":7072:7105   */\n      0x526f6c65733a206163636f756e7420616c72656164792068617320726f6c6500\n        /* \"#utility.yul\":7052:7070   */\n      0x44\n      dup3\n      add\n        /* \"#utility.yul\":7045:7106   */\n      mstore\n        /* \"#utility.yul\":7123:7141   */\n      0x64\n      add\n        /* \"contracts t-rex/roles/Roles.sol\":4145:4208  require(!has(role, account), \"Roles: account already has role\") */\n      tag_85\n        /* \"#utility.yul\":6792:7147   */\n      jump\n        /* \"contracts t-rex/roles/Roles.sol\":4145:4208  require(!has(role, account), \"Roles: account already has role\") */\n    tag_225:\n      sub(shl(0xa0, 0x01), 0x01)\n        /* \"contracts t-rex/roles/Roles.sol\":4218:4238  role.bearer[account] */\n      and\n        /* \"contracts t-rex/roles/Roles.sol\":4218:4229  role.bearer */\n      0x00\n        /* \"contracts t-rex/roles/Roles.sol\":4218:4238  role.bearer[account] */\n      swap1\n      dup2\n      mstore\n      0x20\n      swap2\n      swap1\n      swap2\n      mstore\n      0x40\n      swap1\n      keccak256\n        /* \"contracts t-rex/roles/Roles.sol\":4218:4245  role.bearer[account] = true */\n      dup1\n      sload\n      not(0xff)\n      and\n        /* \"contracts t-rex/roles/Roles.sol\":4241:4245  true */\n      0x01\n        /* \"contracts t-rex/roles/Roles.sol\":4218:4245  role.bearer[account] = true */\n      or\n      swap1\n      sstore\n        /* \"contracts t-rex/roles/Roles.sol\":4077:4252  function add(Role storage role, address account) internal {... */\n      jump\t// out\n        /* \"contracts t-rex/roles/Roles.sol\":4327:4507  function remove(Role storage role, address account) internal {... */\n    tag_145:\n        /* \"contracts t-rex/roles/Roles.sol\":4406:4424  has(role, account) */\n      tag_230\n        /* \"contracts t-rex/roles/Roles.sol\":4410:4414  role */\n      dup3\n        /* \"contracts t-rex/roles/Roles.sol\":4416:4423  account */\n      dup3\n        /* \"contracts t-rex/roles/Roles.sol\":4406:4409  has */\n      tag_82\n        /* \"contracts t-rex/roles/Roles.sol\":4406:4424  has(role, account) */\n      jump\t// in\n    tag_230:\n        /* \"contracts t-rex/roles/Roles.sol\":4398:4462  require(has(role, account), \"Roles: account does not have role\") */\n      tag_231\n      jumpi\n      mload(0x40)\n      shl(0xe5, 0x461bcd)\n      dup2\n      mstore\n        /* \"#utility.yul\":7354:7356   */\n      0x20\n        /* \"contracts t-rex/roles/Roles.sol\":4398:4462  require(has(role, account), \"Roles: account does not have role\") */\n      0x04\n      dup3\n      add\n        /* \"#utility.yul\":7336:7357   */\n      mstore\n        /* \"#utility.yul\":7393:7395   */\n      0x21\n        /* \"#utility.yul\":7373:7391   */\n      0x24\n      dup3\n      add\n        /* \"#utility.yul\":7366:7396   */\n      mstore\n        /* \"#utility.yul\":7432:7466   */\n      0x526f6c65733a206163636f756e7420646f6573206e6f74206861766520726f6c\n        /* \"#utility.yul\":7412:7430   */\n      0x44\n      dup3\n      add\n        /* \"#utility.yul\":7405:7467   */\n      mstore\n      shl(0xf8, 0x65)\n        /* \"#utility.yul\":7483:7501   */\n      0x64\n      dup3\n      add\n        /* \"#utility.yul\":7476:7507   */\n      mstore\n        /* \"#utility.yul\":7524:7543   */\n      0x84\n      add\n        /* \"contracts t-rex/roles/Roles.sol\":4398:4462  require(has(role, account), \"Roles: account does not have role\") */\n      tag_85\n        /* \"#utility.yul\":7152:7549   */\n      jump\n        /* \"contracts t-rex/roles/Roles.sol\":4398:4462  require(has(role, account), \"Roles: account does not have role\") */\n    tag_231:\n      sub(shl(0xa0, 0x01), 0x01)\n        /* \"contracts t-rex/roles/Roles.sol\":4472:4492  role.bearer[account] */\n      and\n        /* \"contracts t-rex/roles/Roles.sol\":4495:4500  false */\n      0x00\n        /* \"contracts t-rex/roles/Roles.sol\":4472:4492  role.bearer[account] */\n      swap1\n      dup2\n      mstore\n      0x20\n      swap2\n      swap1\n      swap2\n      mstore\n      0x40\n      swap1\n      keccak256\n        /* \"contracts t-rex/roles/Roles.sol\":4472:4500  role.bearer[account] = false */\n      dup1\n      sload\n      not(0xff)\n      and\n      swap1\n      sstore\n        /* \"contracts t-rex/roles/Roles.sol\":4327:4507  function remove(Role storage role, address account) internal {... */\n      jump\t// out\n        /* \"@openzeppelin/contracts-upgradeable/access/OwnableUpgradeable.sol\":1857:1984  function __Ownable_init(address initialOwner) internal onlyInitializing {... */\n    tag_190:\n        /* \"@openzeppelin/contracts-upgradeable/proxy/utils/Initializable.sol\":6931:6951  _checkInitializing() */\n      tag_236\n        /* \"@openzeppelin/contracts-upgradeable/proxy/utils/Initializable.sol\":6931:6949  _checkInitializing */\n      tag_237\n        /* \"@openzeppelin/contracts-upgradeable/proxy/utils/Initializable.sol\":6931:6951  _checkInitializing() */\n      jump\t// in\n    tag_236:\n        /* \"@openzeppelin/contracts-upgradeable/access/OwnableUpgradeable.sol\":1939:1977  __Ownable_init_unchained(initialOwner) */\n      tag_209\n        /* \"@openzeppelin/contracts-upgradeable/access/OwnableUpgradeable.sol\":1964:1976  initialOwner */\n      dup2\n        /* \"@openzeppelin/contracts-upgradeable/access/OwnableUpgradeable.sol\":1939:1963  __Ownable_init_unchained */\n      tag_240\n        /* \"@openzeppelin/contracts-upgradeable/access/OwnableUpgradeable.sol\":1939:1977  __Ownable_init_unchained(initialOwner) */\n      jump\t// in\n        /* \"@openzeppelin/contracts-upgradeable/proxy/utils/Initializable.sol\":7084:7225  function _checkInitializing() internal view virtual {... */\n    tag_237:\n        /* \"@openzeppelin/contracts-upgradeable/proxy/utils/Initializable.sol\":8870:8891  INITIALIZABLE_STORAGE */\n      0xf0c57e16840df040f15088dc2f81fe391c3923bec73e23a9662efc9c229c6a00\n        /* \"@openzeppelin/contracts-upgradeable/proxy/utils/Initializable.sol\":8560:8600  _getInitializableStorage()._initializing */\n      sload\n      shl(0x40, 0x01)\n      swap1\n      div\n      0xff\n      and\n        /* \"@openzeppelin/contracts-upgradeable/proxy/utils/Initializable.sol\":7146:7219  if (!_isInitializing()) {... */\n      tag_96\n      jumpi\n        /* \"@openzeppelin/contracts-upgradeable/proxy/utils/Initializable.sol\":7191:7208  NotInitializing() */\n      mload(0x40)\n      shl(0xe3, 0x1afcd79f)\n      dup2\n      mstore\n      0x04\n      add\n      mload(0x40)\n      dup1\n      swap2\n      sub\n      swap1\n      revert\n        /* \"@openzeppelin/contracts-upgradeable/access/OwnableUpgradeable.sol\":1990:2225  function __Ownable_init_unchained(address initialOwner) internal onlyInitializing {... */\n    tag_240:\n        /* \"@openzeppelin/contracts-upgradeable/proxy/utils/Initializable.sol\":6931:6951  _checkInitializing() */\n      tag_205\n        /* \"@openzeppelin/contracts-upgradeable/proxy/utils/Initializable.sol\":6931:6949  _checkInitializing */\n      tag_237\n        /* \"@openzeppelin/contracts-upgradeable/proxy/utils/Initializable.sol\":6931:6951  _checkInitializing() */\n      jump\t// in\n        /* \"#utility.yul\":14:145   */\n    tag_254:\n      sub(shl(0xa0, 0x01), 0x01)\n        /* \"#utility.yul\":89:120   */\n      dup2\n      and\n        /* \"#utility.yul\":79:121   */\n      dup2\n      eq\n        /* \"#utility.yul\":69:139   */\n      tag_209\n      jumpi\n        /* \"#utility.yul\":135:136   */\n      0x00\n        /* \"#utility.yul\":132:133   */\n      dup1\n        /* \"#utility.yul\":125:137   */\n      revert\n        /* \"#utility.yul\":150:397   */\n    tag_24:\n        /* \"#utility.yul\":209:215   */\n      0x00\n        /* \"#utility.yul\":262:264   */\n      0x20\n        /* \"#utility.yul\":250:259   */\n      dup3\n        /* \"#utility.yul\":241:248   */\n      dup5\n        /* \"#utility.yul\":237:260   */\n      sub\n        /* \"#utility.yul\":233:265   */\n      slt\n        /* \"#utility.yul\":230:282   */\n      iszero\n      tag_261\n      jumpi\n        /* \"#utility.yul\":278:279   */\n      0x00\n        /* \"#utility.yul\":275:276   */\n      dup1\n        /* \"#utility.yul\":268:280   */\n      revert\n        /* \"#utility.yul\":230:282   */\n    tag_261:\n        /* \"#utility.yul\":317:326   */\n      dup2\n        /* \"#utility.yul\":304:327   */\n      calldataload\n        /* \"#utility.yul\":336:367   */\n      tag_262\n        /* \"#utility.yul\":361:366   */\n      dup2\n        /* \"#utility.yul\":336:367   */\n      tag_254\n      jump\t// in\n    tag_262:\n        /* \"#utility.yul\":386:391   */\n      swap4\n        /* \"#utility.yul\":150:397   */\n      swap3\n      pop\n      pop\n      pop\n      jump\t// out\n        /* \"#utility.yul\":1220:1379   */\n    tag_255:\n        /* \"#utility.yul\":1287:1307   */\n      dup1\n      calldataload\n        /* \"#utility.yul\":1347:1353   */\n      0xffff\n        /* \"#utility.yul\":1336:1354   */\n      dup2\n      and\n        /* \"#utility.yul\":1326:1355   */\n      dup2\n      eq\n        /* \"#utility.yul\":1316:1373   */\n      tag_268\n      jumpi\n        /* \"#utility.yul\":1369:1370   */\n      0x00\n        /* \"#utility.yul\":1366:1367   */\n      dup1\n        /* \"#utility.yul\":1359:1371   */\n      revert\n        /* \"#utility.yul\":1316:1373   */\n    tag_268:\n        /* \"#utility.yul\":1220:1379   */\n      swap2\n      swap1\n      pop\n      jump\t// out\n        /* \"#utility.yul\":1384:1703   */\n    tag_58:\n        /* \"#utility.yul\":1451:1457   */\n      0x00\n        /* \"#utility.yul\":1459:1465   */\n      dup1\n        /* \"#utility.yul\":1512:1514   */\n      0x40\n        /* \"#utility.yul\":1500:1509   */\n      dup4\n        /* \"#utility.yul\":1491:1498   */\n      dup6\n        /* \"#utility.yul\":1487:1510   */\n      sub\n        /* \"#utility.yul\":1483:1515   */\n      slt\n        /* \"#utility.yul\":1480:1532   */\n      iszero\n      tag_270\n      jumpi\n        /* \"#utility.yul\":1528:1529   */\n      0x00\n        /* \"#utility.yul\":1525:1526   */\n      dup1\n        /* \"#utility.yul\":1518:1530   */\n      revert\n        /* \"#utility.yul\":1480:1532   */\n    tag_270:\n        /* \"#utility.yul\":1567:1576   */\n      dup3\n        /* \"#utility.yul\":1554:1577   */\n      calldataload\n        /* \"#utility.yul\":1586:1617   */\n      tag_271\n        /* \"#utility.yul\":1611:1616   */\n      dup2\n        /* \"#utility.yul\":1586:1617   */\n      tag_254\n      jump\t// in\n    tag_271:\n        /* \"#utility.yul\":1636:1641   */\n      swap2\n      pop\n        /* \"#utility.yul\":1660:1697   */\n      tag_272\n        /* \"#utility.yul\":1693:1695   */\n      0x20\n        /* \"#utility.yul\":1678:1696   */\n      dup5\n      add\n        /* \"#utility.yul\":1660:1697   */\n      tag_255\n      jump\t// in\n    tag_272:\n        /* \"#utility.yul\":1650:1697   */\n      swap1\n      pop\n        /* \"#utility.yul\":1384:1703   */\n      swap3\n      pop\n      swap3\n      swap1\n      pop\n      jump\t// out\n        /* \"#utility.yul\":1708:2185   */\n    tag_62:\n        /* \"#utility.yul\":1801:1807   */\n      0x00\n        /* \"#utility.yul\":1809:1815   */\n      dup1\n        /* \"#utility.yul\":1817:1823   */\n      0x00\n        /* \"#utility.yul\":1870:1872   */\n      0x60\n        /* \"#utility.yul\":1858:1867   */\n      dup5\n        /* \"#utility.yul\":1849:1856   */\n      dup7\n        /* \"#utility.yul\":1845:1868   */\n      sub\n        /* \"#utility.yul\":1841:1873   */\n      slt\n        /* \"#utility.yul\":1838:1890   */\n      iszero\n      tag_274\n      jumpi\n        /* \"#utility.yul\":1886:1887   */\n      0x00\n        /* \"#utility.yul\":1883:1884   */\n      dup1\n        /* \"#utility.yul\":1876:1888   */\n      revert\n        /* \"#utility.yul\":1838:1890   */\n    tag_274:\n        /* \"#utility.yul\":1925:1934   */\n      dup4\n        /* \"#utility.yul\":1912:1935   */\n      calldataload\n        /* \"#utility.yul\":1944:1975   */\n      tag_275\n        /* \"#utility.yul\":1969:1974   */\n      dup2\n        /* \"#utility.yul\":1944:1975   */\n      tag_254\n      jump\t// in\n    tag_275:\n        /* \"#utility.yul\":1994:1999   */\n      swap3\n      pop\n        /* \"#utility.yul\":2051:2053   */\n      0x20\n        /* \"#utility.yul\":2036:2054   */\n      dup5\n      add\n        /* \"#utility.yul\":2023:2055   */\n      calldataload\n        /* \"#utility.yul\":2064:2097   */\n      tag_276\n        /* \"#utility.yul\":2023:2055   */\n      dup2\n        /* \"#utility.yul\":2064:2097   */\n      tag_254\n      jump\t// in\n    tag_276:\n        /* \"#utility.yul\":2116:2123   */\n      swap2\n      pop\n        /* \"#utility.yul\":2142:2179   */\n      tag_277\n        /* \"#utility.yul\":2175:2177   */\n      0x40\n        /* \"#utility.yul\":2160:2178   */\n      dup6\n      add\n        /* \"#utility.yul\":2142:2179   */\n      tag_255\n      jump\t// in\n    tag_277:\n        /* \"#utility.yul\":2132:2179   */\n      swap1\n      pop\n        /* \"#utility.yul\":1708:2185   */\n      swap3\n      pop\n      swap3\n      pop\n      swap3\n      jump\t// out\n        /* \"#utility.yul\":2190:2848   */\n    tag_67:\n        /* \"#utility.yul\":2361:2363   */\n      0x20\n        /* \"#utility.yul\":2413:2434   */\n      dup1\n      dup3\n      mstore\n        /* \"#utility.yul\":2483:2496   */\n      dup3\n      mload\n        /* \"#utility.yul\":2386:2404   */\n      dup3\n      dup3\n      add\n        /* \"#utility.yul\":2505:2527   */\n      dup2\n      swap1\n      mstore\n        /* \"#utility.yul\":2332:2336   */\n      0x00\n      swap2\n        /* \"#utility.yul\":2361:2363   */\n      swap1\n        /* \"#utility.yul\":2584:2599   */\n      dup5\n      dup3\n      add\n      swap1\n        /* \"#utility.yul\":2558:2560   */\n      0x40\n        /* \"#utility.yul\":2543:2561   */\n      dup6\n      add\n      swap1\n        /* \"#utility.yul\":2332:2336   */\n      dup5\n        /* \"#utility.yul\":2627:2822   */\n    tag_279:\n        /* \"#utility.yul\":2641:2647   */\n      dup2\n        /* \"#utility.yul\":2638:2639   */\n      dup2\n        /* \"#utility.yul\":2635:2648   */\n      lt\n        /* \"#utility.yul\":2627:2822   */\n      iszero\n      tag_281\n      jumpi\n        /* \"#utility.yul\":2706:2719   */\n      dup4\n      mload\n      sub(shl(0xa0, 0x01), 0x01)\n        /* \"#utility.yul\":2702:2741   */\n      and\n        /* \"#utility.yul\":2690:2742   */\n      dup4\n      mstore\n        /* \"#utility.yul\":2797:2812   */\n      swap3\n      dup5\n      add\n      swap3\n        /* \"#utility.yul\":2762:2774   */\n      swap2\n      dup5\n      add\n      swap2\n        /* \"#utility.yul\":2738:2739   */\n      0x01\n        /* \"#utility.yul\":2656:2665   */\n      add\n        /* \"#utility.yul\":2627:2822   */\n      jump(tag_279)\n    tag_281:\n      pop\n        /* \"#utility.yul\":2839:2842   */\n      swap1\n      swap7\n        /* \"#utility.yul\":2190:2848   */\n      swap6\n      pop\n      pop\n      pop\n      pop\n      pop\n      pop\n      jump\t// out\n        /* \"#utility.yul\":2853:3258   */\n    tag_75:\n        /* \"#utility.yul\":2938:2944   */\n      0x00\n        /* \"#utility.yul\":2946:2952   */\n      dup1\n        /* \"#utility.yul\":2999:3001   */\n      0x40\n        /* \"#utility.yul\":2987:2996   */\n      dup4\n        /* \"#utility.yul\":2978:2985   */\n      dup6\n        /* \"#utility.yul\":2974:2997   */\n      sub\n        /* \"#utility.yul\":2970:3002   */\n      slt\n        /* \"#utility.yul\":2967:3019   */\n      iszero\n      tag_283\n      jumpi\n        /* \"#utility.yul\":3015:3016   */\n      0x00\n        /* \"#utility.yul\":3012:3013   */\n      dup1\n        /* \"#utility.yul\":3005:3017   */\n      revert\n        /* \"#utility.yul\":2967:3019   */\n    tag_283:\n        /* \"#utility.yul\":3054:3063   */\n      dup3\n        /* \"#utility.yul\":3041:3064   */\n      calldataload\n        /* \"#utility.yul\":3073:3104   */\n      tag_284\n        /* \"#utility.yul\":3098:3103   */\n      dup2\n        /* \"#utility.yul\":3073:3104   */\n      tag_254\n      jump\t// in\n    tag_284:\n        /* \"#utility.yul\":3123:3128   */\n      swap2\n      pop\n        /* \"#utility.yul\":3180:3182   */\n      0x20\n        /* \"#utility.yul\":3165:3183   */\n      dup4\n      add\n        /* \"#utility.yul\":3152:3184   */\n      calldataload\n        /* \"#utility.yul\":3193:3226   */\n      tag_285\n        /* \"#utility.yul\":3152:3184   */\n      dup2\n        /* \"#utility.yul\":3193:3226   */\n      tag_254\n      jump\t// in\n    tag_285:\n        /* \"#utility.yul\":3245:3252   */\n      dup1\n        /* \"#utility.yul\":3235:3252   */\n      swap2\n      pop\n      pop\n        /* \"#utility.yul\":2853:3258   */\n      swap3\n      pop\n      swap3\n      swap1\n      pop\n      jump\t// out\n        /* \"#utility.yul\":3263:3618   */\n    tag_86:\n        /* \"#utility.yul\":3465:3467   */\n      0x20\n        /* \"#utility.yul\":3447:3468   */\n      dup1\n      dup3\n      mstore\n        /* \"#utility.yul\":3504:3506   */\n      0x1f\n        /* \"#utility.yul\":3484:3502   */\n      swap1\n      dup3\n      add\n        /* \"#utility.yul\":3477:3507   */\n      mstore\n        /* \"#utility.yul\":3543:3576   */\n      0x696e76616c696420617267756d656e74202d207a65726f206164647265737300\n        /* \"#utility.yul\":3538:3540   */\n      0x40\n        /* \"#utility.yul\":3523:3541   */\n      dup3\n      add\n        /* \"#utility.yul\":3516:3577   */\n      mstore\n        /* \"#utility.yul\":3609:3611   */\n      0x60\n        /* \"#utility.yul\":3594:3612   */\n      add\n      swap1\n        /* \"#utility.yul\":3263:3618   */\n      jump\t// out\n        /* \"#utility.yul\":4389:4516   */\n    tag_121:\n        /* \"#utility.yul\":4450:4460   */\n      0x4e487b71\n        /* \"#utility.yul\":4445:4448   */\n      0xe0\n        /* \"#utility.yul\":4441:4461   */\n      shl\n        /* \"#utility.yul\":4438:4439   */\n      0x00\n        /* \"#utility.yul\":4431:4462   */\n      mstore\n        /* \"#utility.yul\":4481:4485   */\n      0x32\n        /* \"#utility.yul\":4478:4479   */\n      0x04\n        /* \"#utility.yul\":4471:4486   */\n      mstore\n        /* \"#utility.yul\":4505:4509   */\n      0x24\n        /* \"#utility.yul\":4502:4503   */\n      0x00\n        /* \"#utility.yul\":4495:4510   */\n      revert\n        /* \"#utility.yul\":4521:4648   */\n    tag_256:\n        /* \"#utility.yul\":4582:4592   */\n      0x4e487b71\n        /* \"#utility.yul\":4577:4580   */\n      0xe0\n        /* \"#utility.yul\":4573:4593   */\n      shl\n        /* \"#utility.yul\":4570:4571   */\n      0x00\n        /* \"#utility.yul\":4563:4594   */\n      mstore\n        /* \"#utility.yul\":4613:4617   */\n      0x11\n        /* \"#utility.yul\":4610:4611   */\n      0x04\n        /* \"#utility.yul\":4603:4618   */\n      mstore\n        /* \"#utility.yul\":4637:4641   */\n      0x24\n        /* \"#utility.yul\":4634:4635   */\n      0x00\n        /* \"#utility.yul\":4627:4642   */\n      revert\n        /* \"#utility.yul\":4653:4781   */\n    tag_125:\n        /* \"#utility.yul\":4720:4729   */\n      dup2\n      dup2\n      sub\n        /* \"#utility.yul\":4741:4752   */\n      dup2\n      dup2\n      gt\n        /* \"#utility.yul\":4738:4775   */\n      iszero\n      tag_81\n      jumpi\n        /* \"#utility.yul\":4755:4773   */\n      tag_81\n      tag_256\n      jump\t// in\n        /* \"#utility.yul\":4786:4913   */\n    tag_134:\n        /* \"#utility.yul\":4847:4857   */\n      0x4e487b71\n        /* \"#utility.yul\":4842:4845   */\n      0xe0\n        /* \"#utility.yul\":4838:4858   */\n      shl\n        /* \"#utility.yul\":4835:4836   */\n      0x00\n        /* \"#utility.yul\":4828:4859   */\n      mstore\n        /* \"#utility.yul\":4878:4882   */\n      0x31\n        /* \"#utility.yul\":4875:4876   */\n      0x04\n        /* \"#utility.yul\":4868:4883   */\n      mstore\n        /* \"#utility.yul\":4902:4906   */\n      0x24\n        /* \"#utility.yul\":4899:4900   */\n      0x00\n        /* \"#utility.yul\":4892:4907   */\n      revert\n        /* \"#utility.yul\":4918:5053   */\n    tag_137:\n        /* \"#utility.yul\":4957:4960   */\n      0x00\n        /* \"#utility.yul\":4978:4995   */\n      0x01\n      dup3\n      add\n        /* \"#utility.yul\":4975:5018   */\n      tag_297\n      jumpi\n        /* \"#utility.yul\":4998:5016   */\n      tag_297\n      tag_256\n      jump\t// in\n    tag_297:\n      pop\n        /* \"#utility.yul\":5045:5046   */\n      0x01\n        /* \"#utility.yul\":5034:5047   */\n      add\n      swap1\n        /* \"#utility.yul\":4918:5053   */\n      jump\t// out\n        /* \"#utility.yul\":5058:5468   */\n    tag_150:\n        /* \"#utility.yul\":5260:5262   */\n      0x20\n        /* \"#utility.yul\":5242:5263   */\n      dup1\n      dup3\n      mstore\n        /* \"#utility.yul\":5299:5301   */\n      0x2e\n        /* \"#utility.yul\":5279:5297   */\n      swap1\n      dup3\n      add\n        /* \"#utility.yul\":5272:5302   */\n      mstore\n        /* \"#utility.yul\":5338:5372   */\n      0x4167656e74526f6c653a2063616c6c657220646f6573206e6f74206861766520\n        /* \"#utility.yul\":5333:5335   */\n      0x40\n        /* \"#utility.yul\":5318:5336   */\n      dup3\n      add\n        /* \"#utility.yul\":5311:5373   */\n      mstore\n      shl(0x90, 0x746865204167656e7420726f6c65)\n        /* \"#utility.yul\":5404:5406   */\n      0x60\n        /* \"#utility.yul\":5389:5407   */\n      dup3\n      add\n        /* \"#utility.yul\":5382:5426   */\n      mstore\n        /* \"#utility.yul\":5458:5461   */\n      0x80\n        /* \"#utility.yul\":5443:5462   */\n      add\n      swap1\n        /* \"#utility.yul\":5058:5468   */\n      jump\t// out\n        /* \"#utility.yul\":5473:5819   */\n    tag_156:\n        /* \"#utility.yul\":5675:5677   */\n      0x20\n        /* \"#utility.yul\":5657:5678   */\n      dup1\n      dup3\n      mstore\n        /* \"#utility.yul\":5714:5716   */\n      0x16\n        /* \"#utility.yul\":5694:5712   */\n      swap1\n      dup3\n      add\n        /* \"#utility.yul\":5687:5717   */\n      mstore\n      shl(0x52, 0x1859191c995cdcc81b9bdd081cdd1bdc9959081e595d)\n        /* \"#utility.yul\":5748:5750   */\n      0x40\n        /* \"#utility.yul\":5733:5751   */\n      dup3\n      add\n        /* \"#utility.yul\":5726:5778   */\n      mstore\n        /* \"#utility.yul\":5810:5812   */\n      0x60\n        /* \"#utility.yul\":5795:5813   */\n      add\n      swap1\n        /* \"#utility.yul\":5473:5819   */\n      jump\t// out\n\n    auxdata: 0xa26469706673582212201e56b797eba2d2aa3f0c861bf3000b70389b0792d3672cc4f710b0bb973ae3ec64736f6c63430008110033\n}\n",
				"bytecode": {
					"linkReferences": {},
					"object": "608060405234801561001057600080fd5b50611177806100206000396000f3fe608060405234801561001057600080fd5b50600436106101005760003560e01c806397a6278e11610097578063cf191bcd11610066578063cf191bcd14610279578063e1c7392a1461028c578063e805cf8614610294578063f2fde38b146102a757600080fd5b806397a6278e1461022b5780639f3418d51461023e578063a53410dd14610251578063bf9eb9591461026457600080fd5b80637988d3a5116100d35780637988d3a51461019157806384e79842146101d55780638da5cb5b146101e857806397a012f71461021857600080fd5b80631ffbb06414610105578063690a49f91461012d578063715018a614610142578063727e13bc1461014a575b600080fd5b610118610113366004610ee1565b6102ba565b60405190151581526020015b60405180910390f35b61014061013b366004610ee1565b6102cc565b005b6101406103dd565b61017e610158366004610ee1565b6001600160a01b0316600090815260016020526040902054600160a01b900461ffff1690565b60405161ffff9091168152602001610124565b6101bd61019f366004610ee1565b6001600160a01b039081166000908152600160205260409020541690565b6040516001600160a01b039091168152602001610124565b6101406101e3366004610ee1565b6103f1565b7f9016d09d72d40fdae2fd8ceac6b6234c7706214fd39c1cd1e609a0528c199300546001600160a01b03166101bd565b610140610226366004610ee1565b610461565b610140610239366004610ee1565b61061e565b61014061024c366004610f1c565b61068e565b61014061025f366004610f51565b610773565b61026c610899565b6040516101249190610f98565b610140610287366004610ee1565b6108fb565b6101406109d6565b6101406102a2366004610fe5565b610ae5565b6101406102b5366004610ee1565b610bdf565b60006102c68183610c1d565b92915050565b6001600160a01b0381166102fb5760405162461bcd60e51b81526004016102f29061101e565b60405180910390fd5b60025461012c1161035c5760405162461bcd60e51b815260206004820152602560248201527f63616e6e6f742062696e64206d6f7265207468616e2033303020495220746f20604482015264312049525360d81b60648201526084016102f2565b610365816103f1565b6002805460018101825560009182527f405787fa12a823e0f2b7631cc41b3ba8828b3321ca811111fa75cd3aa3bb5ace0180546001600160a01b0319166001600160a01b03841690811790915560405190917f500c250171aa20e861b680f93502547b9d436eda7d4c537fc360db6e0c6eedfb91a250565b6103e5610ca0565b6103ef6000610cfb565b565b6103f9610ca0565b6001600160a01b03811661041f5760405162461bcd60e51b81526004016102f29061101e565b61042a600082610d6c565b6040516001600160a01b038216907ff68e73cec97f2d70aa641fb26e87a4383686e2efacb648f2165aeb02ac562ec590600090a250565b6001600160a01b0381166104875760405162461bcd60e51b81526004016102f29061101e565b6002546104d65760405162461bcd60e51b815260206004820152601f60248201527f6964656e74697479207265676973747279206973206e6f742073746f7265640060448201526064016102f2565b60025460005b818110156105dc57826001600160a01b03166002828154811061050157610501611055565b6000918252602090912001546001600160a01b0316036105ca576002610528600184611081565b8154811061053857610538611055565b600091825260209091200154600280546001600160a01b03909216918390811061056457610564611055565b9060005260206000200160006101000a8154816001600160a01b0302191690836001600160a01b0316021790555060028054806105a3576105a3611094565b600082815260209020810160001990810180546001600160a01b03191690550190556105dc565b806105d4816110aa565b9150506104dc565b506105e68261061e565b6040516001600160a01b038316907f51f353eb5801583fdf2706e43c045b62fdf6b1566820b349390616363ecf72c990600090a25050565b610626610ca0565b6001600160a01b03811661064c5760405162461bcd60e51b81526004016102f29061101e565b610657600082610de8565b6040516001600160a01b038216907fed9c8ad8d5a0a66898ea49d2956929c93ae2e8bd50281b2ed897c5d1a6737e0b90600090a250565b610697336102ba565b6106b35760405162461bcd60e51b81526004016102f2906110c3565b6001600160a01b0382166106d95760405162461bcd60e51b81526004016102f29061101e565b6001600160a01b03828116600090815260016020526040902054166107105760405162461bcd60e51b81526004016102f290611111565b6001600160a01b038216600081815260016020526040808220805461ffff60a01b1916600160a01b61ffff87169081029190911790915590519092917f20965fcdc6eed7ae398065b40ece4e732ba667992ca819fc54e80e9f2047c4cf91a35050565b61077c336102ba565b6107985760405162461bcd60e51b81526004016102f2906110c3565b6001600160a01b038316158015906107b857506001600160a01b03821615155b6107d45760405162461bcd60e51b81526004016102f29061101e565b6001600160a01b0383811660009081526001602052604090205416156108355760405162461bcd60e51b8152602060048201526016602482015275616464726573732073746f72656420616c726561647960501b60448201526064016102f2565b6001600160a01b0383811660008181526001602052604080822080549487166001600160b01b03199095168517600160a01b61ffff881602179055517e30dea7e9c9afaa2e3c9810f2fc9b5181f1bad74ca5a8db85f746a33585e7479190a3505050565b606060028054806020026020016040519081016040528092919081815260200182805480156108f157602002820191906000526020600020905b81546001600160a01b031681526001909101906020018083116108d3575b5050505050905090565b610904336102ba565b6109205760405162461bcd60e51b81526004016102f2906110c3565b6001600160a01b0381166109465760405162461bcd60e51b81526004016102f29061101e565b6001600160a01b038181166000908152600160205260409020541661097d5760405162461bcd60e51b81526004016102f290611111565b6001600160a01b0380821660008181526001602052604080822080546001600160b01b0319811690915590519316928392917fca6a4c3370b859312246e7f086284076e557997e10d856b716c23ab67067790b91a35050565b7ff0c57e16840df040f15088dc2f81fe391c3923bec73e23a9662efc9c229c6a008054600160401b810460ff16159067ffffffffffffffff16600081158015610a1c5750825b905060008267ffffffffffffffff166001148015610a395750303b155b905081158015610a47575080155b15610a655760405163f92ee8a960e01b815260040160405180910390fd5b845467ffffffffffffffff191660011785558315610a8f57845460ff60401b1916600160401b1785555b610a9833610e6a565b8315610ade57845460ff60401b19168555604051600181527fc7f505b2f371ae2175ee4913f4499e1f2633a7b5936321eed1cdaeb6115181d29060200160405180910390a15b5050505050565b610aee336102ba565b610b0a5760405162461bcd60e51b81526004016102f2906110c3565b6001600160a01b03821615801590610b2a57506001600160a01b03811615155b610b465760405162461bcd60e51b81526004016102f29061101e565b6001600160a01b0382811660009081526001602052604090205416610b7d5760405162461bcd60e51b81526004016102f290611111565b6001600160a01b0380831660009081526001602052604080822080548585166001600160a01b031982168117909255915191909316929183917f556ce885dfcea52155c773f1ed2e58781c51945c13030ab8f793c61f51d1b8089190a3505050565b610be7610ca0565b6001600160a01b038116610c1157604051631e4fbdf760e01b8152600060048201526024016102f2565b610c1a81610cfb565b50565b60006001600160a01b038216610c805760405162461bcd60e51b815260206004820152602260248201527f526f6c65733a206163636f756e7420697320746865207a65726f206164647265604482015261737360f01b60648201526084016102f2565b506001600160a01b03166000908152602091909152604090205460ff1690565b33610cd27f9016d09d72d40fdae2fd8ceac6b6234c7706214fd39c1cd1e609a0528c199300546001600160a01b031690565b6001600160a01b0316146103ef5760405163118cdaa760e01b81523360048201526024016102f2565b7f9016d09d72d40fdae2fd8ceac6b6234c7706214fd39c1cd1e609a0528c19930080546001600160a01b031981166001600160a01b03848116918217845560405192169182907f8be0079c531659141344cd1fd0a4f28419497f9722a3daafe3b4186f6b6457e090600090a3505050565b610d768282610c1d565b15610dc35760405162461bcd60e51b815260206004820152601f60248201527f526f6c65733a206163636f756e7420616c72656164792068617320726f6c650060448201526064016102f2565b6001600160a01b0316600090815260209190915260409020805460ff19166001179055565b610df28282610c1d565b610e485760405162461bcd60e51b815260206004820152602160248201527f526f6c65733a206163636f756e7420646f6573206e6f74206861766520726f6c6044820152606560f81b60648201526084016102f2565b6001600160a01b0316600090815260209190915260409020805460ff19169055565b610e72610e7b565b610c1a81610ec4565b7ff0c57e16840df040f15088dc2f81fe391c3923bec73e23a9662efc9c229c6a0054600160401b900460ff166103ef57604051631afcd79f60e31b815260040160405180910390fd5b610be7610e7b565b6001600160a01b0381168114610c1a57600080fd5b600060208284031215610ef357600080fd5b8135610efe81610ecc565b9392505050565b803561ffff81168114610f1757600080fd5b919050565b60008060408385031215610f2f57600080fd5b8235610f3a81610ecc565b9150610f4860208401610f05565b90509250929050565b600080600060608486031215610f6657600080fd5b8335610f7181610ecc565b92506020840135610f8181610ecc565b9150610f8f60408501610f05565b90509250925092565b6020808252825182820181905260009190848201906040850190845b81811015610fd95783516001600160a01b031683529284019291840191600101610fb4565b50909695505050505050565b60008060408385031215610ff857600080fd5b823561100381610ecc565b9150602083013561101381610ecc565b809150509250929050565b6020808252601f908201527f696e76616c696420617267756d656e74202d207a65726f206164647265737300604082015260600190565b634e487b7160e01b600052603260045260246000fd5b634e487b7160e01b600052601160045260246000fd5b818103818111156102c6576102c661106b565b634e487b7160e01b600052603160045260246000fd5b6000600182016110bc576110bc61106b565b5060010190565b6020808252602e908201527f4167656e74526f6c653a2063616c6c657220646f6573206e6f7420686176652060408201526d746865204167656e7420726f6c6560901b606082015260800190565b6020808252601690820152751859191c995cdcc81b9bdd081cdd1bdc9959081e595d60521b60408201526060019056fea26469706673582212201e56b797eba2d2aa3f0c861bf3000b70389b0792d3672cc4f710b0bb973ae3ec64736f6c63430008110033",
					"opcodes": "PUSH1 0x80 PUSH1 0x40 MSTORE CALLVALUE DUP1 ISZERO PUSH2 0x10 JUMPI PUSH1 0x0 DUP1 REVERT JUMPDEST POP PUSH2 0x1177 DUP1 PUSH2 0x20 PUSH1 0x0 CODECOPY PUSH1 0x0 RETURN INVALID PUSH1 0x80 PUSH1 0x40 MSTORE CALLVALUE DUP1 ISZERO PUSH2 0x10 JUMPI PUSH1 0x0 DUP1 REVERT JUMPDEST POP PUSH1 0x4 CALLDATASIZE LT PUSH2 0x100 JUMPI PUSH1 0x0 CALLDATALOAD PUSH1 0xE0 SHR DUP1 PUSH4 0x97A6278E GT PUSH2 0x97 JUMPI DUP1 PUSH4 0xCF191BCD GT PUSH2 0x66 JUMPI DUP1 PUSH4 0xCF191BCD EQ PUSH2 0x279 JUMPI DUP1 PUSH4 0xE1C7392A EQ PUSH2 0x28C JUMPI DUP1 PUSH4 0xE805CF86 EQ PUSH2 0x294 JUMPI DUP1 PUSH4 0xF2FDE38B EQ PUSH2 0x2A7 JUMPI PUSH1 0x0 DUP1 REVERT JUMPDEST DUP1 PUSH4 0x97A6278E EQ PUSH2 0x22B JUMPI DUP1 PUSH4 0x9F3418D5 EQ PUSH2 0x23E JUMPI DUP1 PUSH4 0xA53410DD EQ PUSH2 0x251 JUMPI DUP1 PUSH4 0xBF9EB959 EQ PUSH2 0x264 JUMPI PUSH1 0x0 DUP1 REVERT JUMPDEST DUP1 PUSH4 0x7988D3A5 GT PUSH2 0xD3 JUMPI DUP1 PUSH4 0x7988D3A5 EQ PUSH2 0x191 JUMPI DUP1 PUSH4 0x84E79842 EQ PUSH2 0x1D5 JUMPI DUP1 PUSH4 0x8DA5CB5B EQ PUSH2 0x1E8 JUMPI DUP1 PUSH4 0x97A012F7 EQ PUSH2 0x218 JUMPI PUSH1 0x0 DUP1 REVERT JUMPDEST DUP1 PUSH4 0x1FFBB064 EQ PUSH2 0x105 JUMPI DUP1 PUSH4 0x690A49F9 EQ PUSH2 0x12D JUMPI DUP1 PUSH4 0x715018A6 EQ PUSH2 0x142 JUMPI DUP1 PUSH4 0x727E13BC EQ PUSH2 0x14A JUMPI JUMPDEST PUSH1 0x0 DUP1 REVERT JUMPDEST PUSH2 0x118 PUSH2 0x113 CALLDATASIZE PUSH1 0x4 PUSH2 0xEE1 JUMP JUMPDEST PUSH2 0x2BA JUMP JUMPDEST PUSH1 0x40 MLOAD SWAP1 ISZERO ISZERO DUP2 MSTORE PUSH1 0x20 ADD JUMPDEST PUSH1 0x40 MLOAD DUP1 SWAP2 SUB SWAP1 RETURN JUMPDEST PUSH2 0x140 PUSH2 0x13B CALLDATASIZE PUSH1 0x4 PUSH2 0xEE1 JUMP JUMPDEST PUSH2 0x2CC JUMP JUMPDEST STOP JUMPDEST PUSH2 0x140 PUSH2 0x3DD JUMP JUMPDEST PUSH2 0x17E PUSH2 0x158 CALLDATASIZE PUSH1 0x4 PUSH2 0xEE1 JUMP JUMPDEST PUSH1 0x1 PUSH1 0x1 PUSH1 0xA0 SHL SUB AND PUSH1 0x0 SWAP1 DUP2 MSTORE PUSH1 0x1 PUSH1 0x20 MSTORE PUSH1 0x40 SWAP1 KECCAK256 SLOAD PUSH1 0x1 PUSH1 0xA0 SHL SWAP1 DIV PUSH2 0xFFFF AND SWAP1 JUMP JUMPDEST PUSH1 0x40 MLOAD PUSH2 0xFFFF SWAP1 SWAP2 AND DUP2 MSTORE PUSH1 0x20 ADD PUSH2 0x124 JUMP JUMPDEST PUSH2 0x1BD PUSH2 0x19F CALLDATASIZE PUSH1 0x4 PUSH2 0xEE1 JUMP JUMPDEST PUSH1 0x1 PUSH1 0x1 PUSH1 0xA0 SHL SUB SWAP1 DUP2 AND PUSH1 0x0 SWAP1 DUP2 MSTORE PUSH1 0x1 PUSH1 0x20 MSTORE PUSH1 0x40 SWAP1 KECCAK256 SLOAD AND SWAP1 JUMP JUMPDEST PUSH1 0x40 MLOAD PUSH1 0x1 PUSH1 0x1 PUSH1 0xA0 SHL SUB SWAP1 SWAP2 AND DUP2 MSTORE PUSH1 0x20 ADD PUSH2 0x124 JUMP JUMPDEST PUSH2 0x140 PUSH2 0x1E3 CALLDATASIZE PUSH1 0x4 PUSH2 0xEE1 JUMP JUMPDEST PUSH2 0x3F1 JUMP JUMPDEST PUSH32 0x9016D09D72D40FDAE2FD8CEAC6B6234C7706214FD39C1CD1E609A0528C199300 SLOAD PUSH1 0x1 PUSH1 0x1 PUSH1 0xA0 SHL SUB AND PUSH2 0x1BD JUMP JUMPDEST PUSH2 0x140 PUSH2 0x226 CALLDATASIZE PUSH1 0x4 PUSH2 0xEE1 JUMP JUMPDEST PUSH2 0x461 JUMP JUMPDEST PUSH2 0x140 PUSH2 0x239 CALLDATASIZE PUSH1 0x4 PUSH2 0xEE1 JUMP JUMPDEST PUSH2 0x61E JUMP JUMPDEST PUSH2 0x140 PUSH2 0x24C CALLDATASIZE PUSH1 0x4 PUSH2 0xF1C JUMP JUMPDEST PUSH2 0x68E JUMP JUMPDEST PUSH2 0x140 PUSH2 0x25F CALLDATASIZE PUSH1 0x4 PUSH2 0xF51 JUMP JUMPDEST PUSH2 0x773 JUMP JUMPDEST PUSH2 0x26C PUSH2 0x899 JUMP JUMPDEST PUSH1 0x40 MLOAD PUSH2 0x124 SWAP2 SWAP1 PUSH2 0xF98 JUMP JUMPDEST PUSH2 0x140 PUSH2 0x287 CALLDATASIZE PUSH1 0x4 PUSH2 0xEE1 JUMP JUMPDEST PUSH2 0x8FB JUMP JUMPDEST PUSH2 0x140 PUSH2 0x9D6 JUMP JUMPDEST PUSH2 0x140 PUSH2 0x2A2 CALLDATASIZE PUSH1 0x4 PUSH2 0xFE5 JUMP JUMPDEST PUSH2 0xAE5 JUMP JUMPDEST PUSH2 0x140 PUSH2 0x2B5 CALLDATASIZE PUSH1 0x4 PUSH2 0xEE1 JUMP JUMPDEST PUSH2 0xBDF JUMP JUMPDEST PUSH1 0x0 PUSH2 0x2C6 DUP2 DUP4 PUSH2 0xC1D JUMP JUMPDEST SWAP3 SWAP2 POP POP JUMP JUMPDEST PUSH1 0x1 PUSH1 0x1 PUSH1 0xA0 SHL SUB DUP2 AND PUSH2 0x2FB JUMPI PUSH1 0x40 MLOAD PUSH3 0x461BCD PUSH1 0xE5 SHL DUP2 MSTORE PUSH1 0x4 ADD PUSH2 0x2F2 SWAP1 PUSH2 0x101E JUMP JUMPDEST PUSH1 0x40 MLOAD DUP1 SWAP2 SUB SWAP1 REVERT JUMPDEST PUSH1 0x2 SLOAD PUSH2 0x12C GT PUSH2 0x35C JUMPI PUSH1 0x40 MLOAD PUSH3 0x461BCD PUSH1 0xE5 SHL DUP2 MSTORE PUSH1 0x20 PUSH1 0x4 DUP3 ADD MSTORE PUSH1 0x25 PUSH1 0x24 DUP3 ADD MSTORE PUSH32 0x63616E6E6F742062696E64206D6F7265207468616E2033303020495220746F20 PUSH1 0x44 DUP3 ADD MSTORE PUSH5 0x3120495253 PUSH1 0xD8 SHL PUSH1 0x64 DUP3 ADD MSTORE PUSH1 0x84 ADD PUSH2 0x2F2 JUMP JUMPDEST PUSH2 0x365 DUP2 PUSH2 0x3F1 JUMP JUMPDEST PUSH1 0x2 DUP1 SLOAD PUSH1 0x1 DUP2 ADD DUP3 SSTORE PUSH1 0x0 SWAP2 DUP3 MSTORE PUSH32 0x405787FA12A823E0F2B7631CC41B3BA8828B3321CA811111FA75CD3AA3BB5ACE ADD DUP1 SLOAD PUSH1 0x1 PUSH1 0x1 PUSH1 0xA0 SHL SUB NOT AND PUSH1 0x1 PUSH1 0x1 PUSH1 0xA0 SHL SUB DUP5 AND SWAP1 DUP2 OR SWAP1 SWAP2 SSTORE PUSH1 0x40 MLOAD SWAP1 SWAP2 PUSH32 0x500C250171AA20E861B680F93502547B9D436EDA7D4C537FC360DB6E0C6EEDFB SWAP2 LOG2 POP JUMP JUMPDEST PUSH2 0x3E5 PUSH2 0xCA0 JUMP JUMPDEST PUSH2 0x3EF PUSH1 0x0 PUSH2 0xCFB JUMP JUMPDEST JUMP JUMPDEST PUSH2 0x3F9 PUSH2 0xCA0 JUMP JUMPDEST PUSH1 0x1 PUSH1 0x1 PUSH1 0xA0 SHL SUB DUP2 AND PUSH2 0x41F JUMPI PUSH1 0x40 MLOAD PUSH3 0x461BCD PUSH1 0xE5 SHL DUP2 MSTORE PUSH1 0x4 ADD PUSH2 0x2F2 SWAP1 PUSH2 0x101E JUMP JUMPDEST PUSH2 0x42A PUSH1 0x0 DUP3 PUSH2 0xD6C JUMP JUMPDEST PUSH1 0x40 MLOAD PUSH1 0x1 PUSH1 0x1 PUSH1 0xA0 SHL SUB DUP3 AND SWAP1 PUSH32 0xF68E73CEC97F2D70AA641FB26E87A4383686E2EFACB648F2165AEB02AC562EC5 SWAP1 PUSH1 0x0 SWAP1 LOG2 POP JUMP JUMPDEST PUSH1 0x1 PUSH1 0x1 PUSH1 0xA0 SHL SUB DUP2 AND PUSH2 0x487 JUMPI PUSH1 0x40 MLOAD PUSH3 0x461BCD PUSH1 0xE5 SHL DUP2 MSTORE PUSH1 0x4 ADD PUSH2 0x2F2 SWAP1 PUSH2 0x101E JUMP JUMPDEST PUSH1 0x2 SLOAD PUSH2 0x4D6 JUMPI PUSH1 0x40 MLOAD PUSH3 0x461BCD PUSH1 0xE5 SHL DUP2 MSTORE PUSH1 0x20 PUSH1 0x4 DUP3 ADD MSTORE PUSH1 0x1F PUSH1 0x24 DUP3 ADD MSTORE PUSH32 0x6964656E74697479207265676973747279206973206E6F742073746F72656400 PUSH1 0x44 DUP3 ADD MSTORE PUSH1 0x64 ADD PUSH2 0x2F2 JUMP JUMPDEST PUSH1 0x2 SLOAD PUSH1 0x0 JUMPDEST DUP2 DUP2 LT ISZERO PUSH2 0x5DC JUMPI DUP3 PUSH1 0x1 PUSH1 0x1 PUSH1 0xA0 SHL SUB AND PUSH1 0x2 DUP3 DUP2 SLOAD DUP2 LT PUSH2 0x501 JUMPI PUSH2 0x501 PUSH2 0x1055 JUMP JUMPDEST PUSH1 0x0 SWAP2 DUP3 MSTORE PUSH1 0x20 SWAP1 SWAP2 KECCAK256 ADD SLOAD PUSH1 0x1 PUSH1 0x1 PUSH1 0xA0 SHL SUB AND SUB PUSH2 0x5CA JUMPI PUSH1 0x2 PUSH2 0x528 PUSH1 0x1 DUP5 PUSH2 0x1081 JUMP JUMPDEST DUP2 SLOAD DUP2 LT PUSH2 0x538 JUMPI PUSH2 0x538 PUSH2 0x1055 JUMP JUMPDEST PUSH1 0x0 SWAP2 DUP3 MSTORE PUSH1 0x20 SWAP1 SWAP2 KECCAK256 ADD SLOAD PUSH1 0x2 DUP1 SLOAD PUSH1 0x1 PUSH1 0x1 PUSH1 0xA0 SHL SUB SWAP1 SWAP3 AND SWAP2 DUP4 SWAP1 DUP2 LT PUSH2 0x564 JUMPI PUSH2 0x564 PUSH2 0x1055 JUMP JUMPDEST SWAP1 PUSH1 0x0 MSTORE PUSH1 0x20 PUSH1 0x0 KECCAK256 ADD PUSH1 0x0 PUSH2 0x100 EXP DUP2 SLOAD DUP2 PUSH1 0x1 PUSH1 0x1 PUSH1 0xA0 SHL SUB MUL NOT AND SWAP1 DUP4 PUSH1 0x1 PUSH1 0x1 PUSH1 0xA0 SHL SUB AND MUL OR SWAP1 SSTORE POP PUSH1 0x2 DUP1 SLOAD DUP1 PUSH2 0x5A3 JUMPI PUSH2 0x5A3 PUSH2 0x1094 JUMP JUMPDEST PUSH1 0x0 DUP3 DUP2 MSTORE PUSH1 0x20 SWAP1 KECCAK256 DUP2 ADD PUSH1 0x0 NOT SWAP1 DUP2 ADD DUP1 SLOAD PUSH1 0x1 PUSH1 0x1 PUSH1 0xA0 SHL SUB NOT AND SWAP1 SSTORE ADD SWAP1 SSTORE PUSH2 0x5DC JUMP JUMPDEST DUP1 PUSH2 0x5D4 DUP2 PUSH2 0x10AA JUMP JUMPDEST SWAP2 POP POP PUSH2 0x4DC JUMP JUMPDEST POP PUSH2 0x5E6 DUP3 PUSH2 0x61E JUMP JUMPDEST PUSH1 0x40 MLOAD PUSH1 0x1 PUSH1 0x1 PUSH1 0xA0 SHL SUB DUP4 AND SWAP1 PUSH32 0x51F353EB5801583FDF2706E43C045B62FDF6B1566820B349390616363ECF72C9 SWAP1 PUSH1 0x0 SWAP1 LOG2 POP POP JUMP JUMPDEST PUSH2 0x626 PUSH2 0xCA0 JUMP JUMPDEST PUSH1 0x1 PUSH1 0x1 PUSH1 0xA0 SHL SUB DUP2 AND PUSH2 0x64C JUMPI PUSH1 0x40 MLOAD PUSH3 0x461BCD PUSH1 0xE5 SHL DUP2 MSTORE PUSH1 0x4 ADD PUSH2 0x2F2 SWAP1 PUSH2 0x101E JUMP JUMPDEST PUSH2 0x657 PUSH1 0x0 DUP3 PUSH2 0xDE8 JUMP JUMPDEST PUSH1 0x40 MLOAD PUSH1 0x1 PUSH1 0x1 PUSH1 0xA0 SHL SUB DUP3 AND SWAP1 PUSH32 0xED9C8AD8D5A0A66898EA49D2956929C93AE2E8BD50281B2ED897C5D1A6737E0B SWAP1 PUSH1 0x0 SWAP1 LOG2 POP JUMP JUMPDEST PUSH2 0x697 CALLER PUSH2 0x2BA JUMP JUMPDEST PUSH2 0x6B3 JUMPI PUSH1 0x40 MLOAD PUSH3 0x461BCD PUSH1 0xE5 SHL DUP2 MSTORE PUSH1 0x4 ADD PUSH2 0x2F2 SWAP1 PUSH2 0x10C3 JUMP JUMPDEST PUSH1 0x1 PUSH1 0x1 PUSH1 0xA0 SHL SUB DUP3 AND PUSH2 0x6D9 JUMPI PUSH1 0x40 MLOAD PUSH3 0x461BCD PUSH1 0xE5 SHL DUP2 MSTORE PUSH1 0x4 ADD PUSH2 0x2F2 SWAP1 PUSH2 0x101E JUMP JUMPDEST PUSH1 0x1 PUSH1 0x1 PUSH1 0xA0 SHL SUB DUP3 DUP2 AND PUSH1 0x0 SWAP1 DUP2 MSTORE PUSH1 0x1 PUSH1 0x20 MSTORE PUSH1 0x40 SWAP1 KECCAK256 SLOAD AND PUSH2 0x710 JUMPI PUSH1 0x40 MLOAD PUSH3 0x461BCD PUSH1 0xE5 SHL DUP2 MSTORE PUSH1 0x4 ADD PUSH2 0x2F2 SWAP1 PUSH2 0x1111 JUMP JUMPDEST PUSH1 0x1 PUSH1 0x1 PUSH1 0xA0 SHL SUB DUP3 AND PUSH1 0x0 DUP2 DUP2 MSTORE PUSH1 0x1 PUSH1 0x20 MSTORE PUSH1 0x40 DUP1 DUP3 KECCAK256 DUP1 SLOAD PUSH2 0xFFFF PUSH1 0xA0 SHL NOT AND PUSH1 0x1 PUSH1 0xA0 SHL PUSH2 0xFFFF DUP8 AND SWAP1 DUP2 MUL SWAP2 SWAP1 SWAP2 OR SWAP1 SWAP2 SSTORE SWAP1 MLOAD SWAP1 SWAP3 SWAP2 PUSH32 0x20965FCDC6EED7AE398065B40ECE4E732BA667992CA819FC54E80E9F2047C4CF SWAP2 LOG3 POP POP JUMP JUMPDEST PUSH2 0x77C CALLER PUSH2 0x2BA JUMP JUMPDEST PUSH2 0x798 JUMPI PUSH1 0x40 MLOAD PUSH3 0x461BCD PUSH1 0xE5 SHL DUP2 MSTORE PUSH1 0x4 ADD PUSH2 0x2F2 SWAP1 PUSH2 0x10C3 JUMP JUMPDEST PUSH1 0x1 PUSH1 0x1 PUSH1 0xA0 SHL SUB DUP4 AND ISZERO DUP1 ISZERO SWAP1 PUSH2 0x7B8 JUMPI POP PUSH1 0x1 PUSH1 0x1 PUSH1 0xA0 SHL SUB DUP3 AND ISZERO ISZERO JUMPDEST PUSH2 0x7D4 JUMPI PUSH1 0x40 MLOAD PUSH3 0x461BCD PUSH1 0xE5 SHL DUP2 MSTORE PUSH1 0x4 ADD PUSH2 0x2F2 SWAP1 PUSH2 0x101E JUMP JUMPDEST PUSH1 0x1 PUSH1 0x1 PUSH1 0xA0 SHL SUB DUP4 DUP2 AND PUSH1 0x0 SWAP1 DUP2 MSTORE PUSH1 0x1 PUSH1 0x20 MSTORE PUSH1 0x40 SWAP1 KECCAK256 SLOAD AND ISZERO PUSH2 0x835 JUMPI PUSH1 0x40 MLOAD PUSH3 0x461BCD PUSH1 0xE5 SHL DUP2 MSTORE PUSH1 0x20 PUSH1 0x4 DUP3 ADD MSTORE PUSH1 0x16 PUSH1 0x24 DUP3 ADD MSTORE PUSH22 0x616464726573732073746F72656420616C7265616479 PUSH1 0x50 SHL PUSH1 0x44 DUP3 ADD MSTORE PUSH1 0x64 ADD PUSH2 0x2F2 JUMP JUMPDEST PUSH1 0x1 PUSH1 0x1 PUSH1 0xA0 SHL SUB DUP4 DUP2 AND PUSH1 0x0 DUP2 DUP2 MSTORE PUSH1 0x1 PUSH1 0x20 MSTORE PUSH1 0x40 DUP1 DUP3 KECCAK256 DUP1 SLOAD SWAP5 DUP8 AND PUSH1 0x1 PUSH1 0x1 PUSH1 0xB0 SHL SUB NOT SWAP1 SWAP6 AND DUP6 OR PUSH1 0x1 PUSH1 0xA0 SHL PUSH2 0xFFFF DUP9 AND MUL OR SWAP1 SSTORE MLOAD PUSH31 0x30DEA7E9C9AFAA2E3C9810F2FC9B5181F1BAD74CA5A8DB85F746A33585E747 SWAP2 SWAP1 LOG3 POP POP POP JUMP JUMPDEST PUSH1 0x60 PUSH1 0x2 DUP1 SLOAD DUP1 PUSH1 0x20 MUL PUSH1 0x20 ADD PUSH1 0x40 MLOAD SWAP1 DUP2 ADD PUSH1 0x40 MSTORE DUP1 SWAP3 SWAP2 SWAP1 DUP2 DUP2 MSTORE PUSH1 0x20 ADD DUP3 DUP1 SLOAD DUP1 ISZERO PUSH2 0x8F1 JUMPI PUSH1 0x20 MUL DUP3 ADD SWAP2 SWAP1 PUSH1 0x0 MSTORE PUSH1 0x20 PUSH1 0x0 KECCAK256 SWAP1 JUMPDEST DUP2 SLOAD PUSH1 0x1 PUSH1 0x1 PUSH1 0xA0 SHL SUB AND DUP2 MSTORE PUSH1 0x1 SWAP1 SWAP2 ADD SWAP1 PUSH1 0x20 ADD DUP1 DUP4 GT PUSH2 0x8D3 JUMPI JUMPDEST POP POP POP POP POP SWAP1 POP SWAP1 JUMP JUMPDEST PUSH2 0x904 CALLER PUSH2 0x2BA JUMP JUMPDEST PUSH2 0x920 JUMPI PUSH1 0x40 MLOAD PUSH3 0x461BCD PUSH1 0xE5 SHL DUP2 MSTORE PUSH1 0x4 ADD PUSH2 0x2F2 SWAP1 PUSH2 0x10C3 JUMP JUMPDEST PUSH1 0x1 PUSH1 0x1 PUSH1 0xA0 SHL SUB DUP2 AND PUSH2 0x946 JUMPI PUSH1 0x40 MLOAD PUSH3 0x461BCD PUSH1 0xE5 SHL DUP2 MSTORE PUSH1 0x4 ADD PUSH2 0x2F2 SWAP1 PUSH2 0x101E JUMP JUMPDEST PUSH1 0x1 PUSH1 0x1 PUSH1 0xA0 SHL SUB DUP2 DUP2 AND PUSH1 0x0 SWAP1 DUP2 MSTORE PUSH1 0x1 PUSH1 0x20 MSTORE PUSH1 0x40 SWAP1 KECCAK256 SLOAD AND PUSH2 0x97D JUMPI PUSH1 0x40 MLOAD PUSH3 0x461BCD PUSH1 0xE5 SHL DUP2 MSTORE PUSH1 0x4 ADD PUSH2 0x2F2 SWAP1 PUSH2 0x1111 JUMP JUMPDEST PUSH1 0x1 PUSH1 0x1 PUSH1 0xA0 SHL SUB DUP1 DUP3 AND PUSH1 0x0 DUP2 DUP2 MSTORE PUSH1 0x1 PUSH1 0x20 MSTORE PUSH1 0x40 DUP1 DUP3 KECCAK256 DUP1 SLOAD PUSH1 0x1 PUSH1 0x1 PUSH1 0xB0 SHL SUB NOT DUP2 AND SWAP1 SWAP2 SSTORE SWAP1 MLOAD SWAP4 AND SWAP3 DUP4 SWAP3 SWAP2 PUSH32 0xCA6A4C3370B859312246E7F086284076E557997E10D856B716C23AB67067790B SWAP2 LOG3 POP POP JUMP JUMPDEST PUSH32 0xF0C57E16840DF040F15088DC2F81FE391C3923BEC73E23A9662EFC9C229C6A00 DUP1 SLOAD PUSH1 0x1 PUSH1 0x40 SHL DUP2 DIV PUSH1 0xFF AND ISZERO SWAP1 PUSH8 0xFFFFFFFFFFFFFFFF AND PUSH1 0x0 DUP2 ISZERO DUP1 ISZERO PUSH2 0xA1C JUMPI POP DUP3 JUMPDEST SWAP1 POP PUSH1 0x0 DUP3 PUSH8 0xFFFFFFFFFFFFFFFF AND PUSH1 0x1 EQ DUP1 ISZERO PUSH2 0xA39 JUMPI POP ADDRESS EXTCODESIZE ISZERO JUMPDEST SWAP1 POP DUP2 ISZERO DUP1 ISZERO PUSH2 0xA47 JUMPI POP DUP1 ISZERO JUMPDEST ISZERO PUSH2 0xA65 JUMPI PUSH1 0x40 MLOAD PUSH4 0xF92EE8A9 PUSH1 0xE0 SHL DUP2 MSTORE PUSH1 0x4 ADD PUSH1 0x40 MLOAD DUP1 SWAP2 SUB SWAP1 REVERT JUMPDEST DUP5 SLOAD PUSH8 0xFFFFFFFFFFFFFFFF NOT AND PUSH1 0x1 OR DUP6 SSTORE DUP4 ISZERO PUSH2 0xA8F JUMPI DUP5 SLOAD PUSH1 0xFF PUSH1 0x40 SHL NOT AND PUSH1 0x1 PUSH1 0x40 SHL OR DUP6 SSTORE JUMPDEST PUSH2 0xA98 CALLER PUSH2 0xE6A JUMP JUMPDEST DUP4 ISZERO PUSH2 0xADE JUMPI DUP5 SLOAD PUSH1 0xFF PUSH1 0x40 SHL NOT AND DUP6 SSTORE PUSH1 0x40 MLOAD PUSH1 0x1 DUP2 MSTORE PUSH32 0xC7F505B2F371AE2175EE4913F4499E1F2633A7B5936321EED1CDAEB6115181D2 SWAP1 PUSH1 0x20 ADD PUSH1 0x40 MLOAD DUP1 SWAP2 SUB SWAP1 LOG1 JUMPDEST POP POP POP POP POP JUMP JUMPDEST PUSH2 0xAEE CALLER PUSH2 0x2BA JUMP JUMPDEST PUSH2 0xB0A JUMPI PUSH1 0x40 MLOAD PUSH3 0x461BCD PUSH1 0xE5 SHL DUP2 MSTORE PUSH1 0x4 ADD PUSH2 0x2F2 SWAP1 PUSH2 0x10C3 JUMP JUMPDEST PUSH1 0x1 PUSH1 0x1 PUSH1 0xA0 SHL SUB DUP3 AND ISZERO DUP1 ISZERO SWAP1 PUSH2 0xB2A JUMPI POP PUSH1 0x1 PUSH1 0x1 PUSH1 0xA0 SHL SUB DUP2 AND ISZERO ISZERO JUMPDEST PUSH2 0xB46 JUMPI PUSH1 0x40 MLOAD PUSH3 0x461BCD PUSH1 0xE5 SHL DUP2 MSTORE PUSH1 0x4 ADD PUSH2 0x2F2 SWAP1 PUSH2 0x101E JUMP JUMPDEST PUSH1 0x1 PUSH1 0x1 PUSH1 0xA0 SHL SUB DUP3 DUP2 AND PUSH1 0x0 SWAP1 DUP2 MSTORE PUSH1 0x1 PUSH1 0x20 MSTORE PUSH1 0x40 SWAP1 KECCAK256 SLOAD AND PUSH2 0xB7D JUMPI PUSH1 0x40 MLOAD PUSH3 0x461BCD PUSH1 0xE5 SHL DUP2 MSTORE PUSH1 0x4 ADD PUSH2 0x2F2 SWAP1 PUSH2 0x1111 JUMP JUMPDEST PUSH1 0x1 PUSH1 0x1 PUSH1 0xA0 SHL SUB DUP1 DUP4 AND PUSH1 0x0 SWAP1 DUP2 MSTORE PUSH1 0x1 PUSH1 0x20 MSTORE PUSH1 0x40 DUP1 DUP3 KECCAK256 DUP1 SLOAD DUP6 DUP6 AND PUSH1 0x1 PUSH1 0x1 PUSH1 0xA0 SHL SUB NOT DUP3 AND DUP2 OR SWAP1 SWAP3 SSTORE SWAP2 MLOAD SWAP2 SWAP1 SWAP4 AND SWAP3 SWAP2 DUP4 SWAP2 PUSH32 0x556CE885DFCEA52155C773F1ED2E58781C51945C13030AB8F793C61F51D1B808 SWAP2 SWAP1 LOG3 POP POP POP JUMP JUMPDEST PUSH2 0xBE7 PUSH2 0xCA0 JUMP JUMPDEST PUSH1 0x1 PUSH1 0x1 PUSH1 0xA0 SHL SUB DUP2 AND PUSH2 0xC11 JUMPI PUSH1 0x40 MLOAD PUSH4 0x1E4FBDF7 PUSH1 0xE0 SHL DUP2 MSTORE PUSH1 0x0 PUSH1 0x4 DUP3 ADD MSTORE PUSH1 0x24 ADD PUSH2 0x2F2 JUMP JUMPDEST PUSH2 0xC1A DUP2 PUSH2 0xCFB JUMP JUMPDEST POP JUMP JUMPDEST PUSH1 0x0 PUSH1 0x1 PUSH1 0x1 PUSH1 0xA0 SHL SUB DUP3 AND PUSH2 0xC80 JUMPI PUSH1 0x40 MLOAD PUSH3 0x461BCD PUSH1 0xE5 SHL DUP2 MSTORE PUSH1 0x20 PUSH1 0x4 DUP3 ADD MSTORE PUSH1 0x22 PUSH1 0x24 DUP3 ADD MSTORE PUSH32 0x526F6C65733A206163636F756E7420697320746865207A65726F206164647265 PUSH1 0x44 DUP3 ADD MSTORE PUSH2 0x7373 PUSH1 0xF0 SHL PUSH1 0x64 DUP3 ADD MSTORE PUSH1 0x84 ADD PUSH2 0x2F2 JUMP JUMPDEST POP PUSH1 0x1 PUSH1 0x1 PUSH1 0xA0 SHL SUB AND PUSH1 0x0 SWAP1 DUP2 MSTORE PUSH1 0x20 SWAP2 SWAP1 SWAP2 MSTORE PUSH1 0x40 SWAP1 KECCAK256 SLOAD PUSH1 0xFF AND SWAP1 JUMP JUMPDEST CALLER PUSH2 0xCD2 PUSH32 0x9016D09D72D40FDAE2FD8CEAC6B6234C7706214FD39C1CD1E609A0528C199300 SLOAD PUSH1 0x1 PUSH1 0x1 PUSH1 0xA0 SHL SUB AND SWAP1 JUMP JUMPDEST PUSH1 0x1 PUSH1 0x1 PUSH1 0xA0 SHL SUB AND EQ PUSH2 0x3EF JUMPI PUSH1 0x40 MLOAD PUSH4 0x118CDAA7 PUSH1 0xE0 SHL DUP2 MSTORE CALLER PUSH1 0x4 DUP3 ADD MSTORE PUSH1 0x24 ADD PUSH2 0x2F2 JUMP JUMPDEST PUSH32 0x9016D09D72D40FDAE2FD8CEAC6B6234C7706214FD39C1CD1E609A0528C199300 DUP1 SLOAD PUSH1 0x1 PUSH1 0x1 PUSH1 0xA0 SHL SUB NOT DUP2 AND PUSH1 0x1 PUSH1 0x1 PUSH1 0xA0 SHL SUB DUP5 DUP2 AND SWAP2 DUP3 OR DUP5 SSTORE PUSH1 0x40 MLOAD SWAP3 AND SWAP2 DUP3 SWAP1 PUSH32 0x8BE0079C531659141344CD1FD0A4F28419497F9722A3DAAFE3B4186F6B6457E0 SWAP1 PUSH1 0x0 SWAP1 LOG3 POP POP POP JUMP JUMPDEST PUSH2 0xD76 DUP3 DUP3 PUSH2 0xC1D JUMP JUMPDEST ISZERO PUSH2 0xDC3 JUMPI PUSH1 0x40 MLOAD PUSH3 0x461BCD PUSH1 0xE5 SHL DUP2 MSTORE PUSH1 0x20 PUSH1 0x4 DUP3 ADD MSTORE PUSH1 0x1F PUSH1 0x24 DUP3 ADD MSTORE PUSH32 0x526F6C65733A206163636F756E7420616C72656164792068617320726F6C6500 PUSH1 0x44 DUP3 ADD MSTORE PUSH1 0x64 ADD PUSH2 0x2F2 JUMP JUMPDEST PUSH1 0x1 PUSH1 0x1 PUSH1 0xA0 SHL SUB AND PUSH1 0x0 SWAP1 DUP2 MSTORE PUSH1 0x20 SWAP2 SWAP1 SWAP2 MSTORE PUSH1 0x40 SWAP1 KECCAK256 DUP1 SLOAD PUSH1 0xFF NOT AND PUSH1 0x1 OR SWAP1 SSTORE JUMP JUMPDEST PUSH2 0xDF2 DUP3 DUP3 PUSH2 0xC1D JUMP JUMPDEST PUSH2 0xE48 JUMPI PUSH1 0x40 MLOAD PUSH3 0x461BCD PUSH1 0xE5 SHL DUP2 MSTORE PUSH1 0x20 PUSH1 0x4 DUP3 ADD MSTORE PUSH1 0x21 PUSH1 0x24 DUP3 ADD MSTORE PUSH32 0x526F6C65733A206163636F756E7420646F6573206E6F74206861766520726F6C PUSH1 0x44 DUP3 ADD MSTORE PUSH1 0x65 PUSH1 0xF8 SHL PUSH1 0x64 DUP3 ADD MSTORE PUSH1 0x84 ADD PUSH2 0x2F2 JUMP JUMPDEST PUSH1 0x1 PUSH1 0x1 PUSH1 0xA0 SHL SUB AND PUSH1 0x0 SWAP1 DUP2 MSTORE PUSH1 0x20 SWAP2 SWAP1 SWAP2 MSTORE PUSH1 0x40 SWAP1 KECCAK256 DUP1 SLOAD PUSH1 0xFF NOT AND SWAP1 SSTORE JUMP JUMPDEST PUSH2 0xE72 PUSH2 0xE7B JUMP JUMPDEST PUSH2 0xC1A DUP2 PUSH2 0xEC4 JUMP JUMPDEST PUSH32 0xF0C57E16840DF040F15088DC2F81FE391C3923BEC73E23A9662EFC9C229C6A00 SLOAD PUSH1 0x1 PUSH1 0x40 SHL SWAP1 DIV PUSH1 0xFF AND PUSH2 0x3EF JUMPI PUSH1 0x40 MLOAD PUSH4 0x1AFCD79F PUSH1 0xE3 SHL DUP2 MSTORE PUSH1 0x4 ADD PUSH1 0x40 MLOAD DUP1 SWAP2 SUB SWAP1 REVERT JUMPDEST PUSH2 0xBE7 PUSH2 0xE7B JUMP JUMPDEST PUSH1 0x1 PUSH1 0x1 PUSH1 0xA0 SHL SUB DUP2 AND DUP2 EQ PUSH2 0xC1A JUMPI PUSH1 0x0 DUP1 REVERT JUMPDEST PUSH1 0x0 PUSH1 0x20 DUP3 DUP5 SUB SLT ISZERO PUSH2 0xEF3 JUMPI PUSH1 0x0 DUP1 REVERT JUMPDEST DUP2 CALLDATALOAD PUSH2 0xEFE DUP2 PUSH2 0xECC JUMP JUMPDEST SWAP4 SWAP3 POP POP POP JUMP JUMPDEST DUP1 CALLDATALOAD PUSH2 0xFFFF DUP2 AND DUP2 EQ PUSH2 0xF17 JUMPI PUSH1 0x0 DUP1 REVERT JUMPDEST SWAP2 SWAP1 POP JUMP JUMPDEST PUSH1 0x0 DUP1 PUSH1 0x40 DUP4 DUP6 SUB SLT ISZERO PUSH2 0xF2F JUMPI PUSH1 0x0 DUP1 REVERT JUMPDEST DUP3 CALLDATALOAD PUSH2 0xF3A DUP2 PUSH2 0xECC JUMP JUMPDEST SWAP2 POP PUSH2 0xF48 PUSH1 0x20 DUP5 ADD PUSH2 0xF05 JUMP JUMPDEST SWAP1 POP SWAP3 POP SWAP3 SWAP1 POP JUMP JUMPDEST PUSH1 0x0 DUP1 PUSH1 0x0 PUSH1 0x60 DUP5 DUP7 SUB SLT ISZERO PUSH2 0xF66 JUMPI PUSH1 0x0 DUP1 REVERT JUMPDEST DUP4 CALLDATALOAD PUSH2 0xF71 DUP2 PUSH2 0xECC JUMP JUMPDEST SWAP3 POP PUSH1 0x20 DUP5 ADD CALLDATALOAD PUSH2 0xF81 DUP2 PUSH2 0xECC JUMP JUMPDEST SWAP2 POP PUSH2 0xF8F PUSH1 0x40 DUP6 ADD PUSH2 0xF05 JUMP JUMPDEST SWAP1 POP SWAP3 POP SWAP3 POP SWAP3 JUMP JUMPDEST PUSH1 0x20 DUP1 DUP3 MSTORE DUP3 MLOAD DUP3 DUP3 ADD DUP2 SWAP1 MSTORE PUSH1 0x0 SWAP2 SWAP1 DUP5 DUP3 ADD SWAP1 PUSH1 0x40 DUP6 ADD SWAP1 DUP5 JUMPDEST DUP2 DUP2 LT ISZERO PUSH2 0xFD9 JUMPI DUP4 MLOAD PUSH1 0x1 PUSH1 0x1 PUSH1 0xA0 SHL SUB AND DUP4 MSTORE SWAP3 DUP5 ADD SWAP3 SWAP2 DUP5 ADD SWAP2 PUSH1 0x1 ADD PUSH2 0xFB4 JUMP JUMPDEST POP SWAP1 SWAP7 SWAP6 POP POP POP POP POP POP JUMP JUMPDEST PUSH1 0x0 DUP1 PUSH1 0x40 DUP4 DUP6 SUB SLT ISZERO PUSH2 0xFF8 JUMPI PUSH1 0x0 DUP1 REVERT JUMPDEST DUP3 CALLDATALOAD PUSH2 0x1003 DUP2 PUSH2 0xECC JUMP JUMPDEST SWAP2 POP PUSH1 0x20 DUP4 ADD CALLDATALOAD PUSH2 0x1013 DUP2 PUSH2 0xECC JUMP JUMPDEST DUP1 SWAP2 POP POP SWAP3 POP SWAP3 SWAP1 POP JUMP JUMPDEST PUSH1 0x20 DUP1 DUP3 MSTORE PUSH1 0x1F SWAP1 DUP3 ADD MSTORE PUSH32 0x696E76616C696420617267756D656E74202D207A65726F206164647265737300 PUSH1 0x40 DUP3 ADD MSTORE PUSH1 0x60 ADD SWAP1 JUMP JUMPDEST PUSH4 0x4E487B71 PUSH1 0xE0 SHL PUSH1 0x0 MSTORE PUSH1 0x32 PUSH1 0x4 MSTORE PUSH1 0x24 PUSH1 0x0 REVERT JUMPDEST PUSH4 0x4E487B71 PUSH1 0xE0 SHL PUSH1 0x0 MSTORE PUSH1 0x11 PUSH1 0x4 MSTORE PUSH1 0x24 PUSH1 0x0 REVERT JUMPDEST DUP2 DUP2 SUB DUP2 DUP2 GT ISZERO PUSH2 0x2C6 JUMPI PUSH2 0x2C6 PUSH2 0x106B JUMP JUMPDEST PUSH4 0x4E487B71 PUSH1 0xE0 SHL PUSH1 0x0 MSTORE PUSH1 0x31 PUSH1 0x4 MSTORE PUSH1 0x24 PUSH1 0x0 REVERT JUMPDEST PUSH1 0x0 PUSH1 0x1 DUP3 ADD PUSH2 0x10BC JUMPI PUSH2 0x10BC PUSH2 0x106B JUMP JUMPDEST POP PUSH1 0x1 ADD SWAP1 JUMP JUMPDEST PUSH1 0x20 DUP1 DUP3 MSTORE PUSH1 0x2E SWAP1 DUP3 ADD MSTORE PUSH32 0x4167656E74526F6C653A2063616C6C657220646F6573206E6F74206861766520 PUSH1 0x40 DUP3 ADD MSTORE PUSH14 0x746865204167656E7420726F6C65 PUSH1 0x90 SHL PUSH1 0x60 DUP3 ADD MSTORE PUSH1 0x80 ADD SWAP1 JUMP JUMPDEST PUSH1 0x20 DUP1 DUP3 MSTORE PUSH1 0x16 SWAP1 DUP3 ADD MSTORE PUSH22 0x1859191C995CDCC81B9BDD081CDD1BDC9959081E595D PUSH1 0x52 SHL PUSH1 0x40 DUP3 ADD MSTORE PUSH1 0x60 ADD SWAP1 JUMP INVALID LOG2 PUSH5 0x6970667358 0x22 SLT KECCAK256 0x1E JUMP 0xB7 SWAP8 0xEB LOG2 0xD2 0xAA EXTCODEHASH 0xC DUP7 SHL RETURN STOP SIGNEXTEND PUSH17 0x389B0792D3672CC4F710B0BB973AE3EC64 PUSH20 0x6F6C634300081100330000000000000000000000 "
				},
				"gasEstimates": {
					"creation": {
						"codeDepositCost": "894200",
						"executionCost": "929",
						"totalCost": "895129"
					},
					"external": {
						"addAgent(address)": "30375",
						"addIdentityToStorage(address,address,uint16)": "infinite",
						"bindIdentityRegistry(address)": "82202",
						"init()": "infinite",
						"isAgent(address)": "2657",
						"linkedIdentityRegistries()": "infinite",
						"modifyStoredIdentity(address,address)": "infinite",
						"modifyStoredInvestorCountry(address,uint16)": "30884",
						"owner()": "2398",
						"removeAgent(address)": "30344",
						"removeIdentityFromStorage(address)": "30751",
						"renounceOwnership()": "infinite",
						"storedIdentity(address)": "2584",
						"storedInvestorCountry(address)": "2653",
						"transferOwnership(address)": "infinite",
						"unbindIdentityRegistry(address)": "infinite"
					}
				},
				"methodIdentifiers": {
					"addAgent(address)": "84e79842",
					"addIdentityToStorage(address,address,uint16)": "a53410dd",
					"bindIdentityRegistry(address)": "690a49f9",
					"init()": "e1c7392a",
					"isAgent(address)": "1ffbb064",
					"linkedIdentityRegistries()": "bf9eb959",
					"modifyStoredIdentity(address,address)": "e805cf86",
					"modifyStoredInvestorCountry(address,uint16)": "9f3418d5",
					"owner()": "8da5cb5b",
					"removeAgent(address)": "97a6278e",
					"removeIdentityFromStorage(address)": "cf191bcd",
					"renounceOwnership()": "715018a6",
					"storedIdentity(address)": "7988d3a5",
					"storedInvestorCountry(address)": "727e13bc",
					"transferOwnership(address)": "f2fde38b",
					"unbindIdentityRegistry(address)": "97a012f7"
				}
			},
			"storageLayout": {
				"storage": [
					{
						"astId": 1344,
						"contract": "contracts t-rex/registry/implementation/IdentityRegistryStorage.sol:IdentityRegistryStorage",
						"label": "_agents",
						"offset": 0,
						"slot": "0",
						"type": "t_struct(Role)1442_storage"
					},
					{
						"astId": 1321,
						"contract": "contracts t-rex/registry/implementation/IdentityRegistryStorage.sol:IdentityRegistryStorage",
						"label": "_identities",
						"offset": 0,
						"slot": "1",
						"type": "t_mapping(t_address,t_struct(Identity)1315_storage)"
					},
					{
						"astId": 1325,
						"contract": "contracts t-rex/registry/implementation/IdentityRegistryStorage.sol:IdentityRegistryStorage",
						"label": "_identityRegistries",
						"offset": 0,
						"slot": "2",
						"type": "t_array(t_address)dyn_storage"
					},
					{
						"astId": 1330,
						"contract": "contracts t-rex/registry/implementation/IdentityRegistryStorage.sol:IdentityRegistryStorage",
						"label": "__gap",
						"offset": 0,
						"slot": "3",
						"type": "t_array(t_uint256)49_storage"
					}
				],
				"types": {
					"t_address": {
						"encoding": "inplace",
						"label": "address",
						"numberOfBytes": "20"
					},
					"t_array(t_address)dyn_storage": {
						"base": "t_address",
						"encoding": "dynamic_array",
						"label": "address[]",
						"numberOfBytes": "32"
					},
					"t_array(t_uint256)49_storage": {
						"base": "t_uint256",
						"encoding": "inplace",
						"label": "uint256[49]",
						"numberOfBytes": "1568"
					},
					"t_bool": {
						"encoding": "inplace",
						"label": "bool",
						"numberOfBytes": "1"
					},
					"t_contract(IIdentity)278": {
						"encoding": "inplace",
						"label": "contract IIdentity",
						"numberOfBytes": "20"
					},
					"t_mapping(t_address,t_bool)": {
						"encoding": "mapping",
						"key": "t_address",
						"label": "mapping(address => bool)",
						"numberOfBytes": "32",
						"value": "t_bool"
					},
					"t_mapping(t_address,t_struct(Identity)1315_storage)": {
						"encoding": "mapping",
						"key": "t_address",
						"label": "mapping(address => struct IRSStorage.Identity)",
						"numberOfBytes": "32",
						"value": "t_struct(Identity)1315_storage"
					},
					"t_struct(Identity)1315_storage": {
						"encoding": "inplace",
						"label": "struct IRSStorage.Identity",
						"members": [
							{
								"astId": 1312,
								"contract": "contracts t-rex/registry/implementation/IdentityRegistryStorage.sol:IdentityRegistryStorage",
								"label": "identityContract",
								"offset": 0,
								"slot": "0",
								"type": "t_contract(IIdentity)278"
							},
							{
								"astId": 1314,
								"contract": "contracts t-rex/registry/implementation/IdentityRegistryStorage.sol:IdentityRegistryStorage",
								"label": "investorCountry",
								"offset": 20,
								"slot": "0",
								"type": "t_uint16"
							}
						],
						"numberOfBytes": "32"
					},
					"t_struct(Role)1442_storage": {
						"encoding": "inplace",
						"label": "struct Roles.Role",
						"members": [
							{
								"astId": 1441,
								"contract": "contracts t-rex/registry/implementation/IdentityRegistryStorage.sol:IdentityRegistryStorage",
								"label": "bearer",
								"offset": 0,
								"slot": "0",
								"type": "t_mapping(t_address,t_bool)"
							}
						],
						"numberOfBytes": "32"
					},
					"t_uint16": {
						"encoding": "inplace",
						"label": "uint16",
						"numberOfBytes": "2"
					},
					"t_uint256": {
						"encoding": "inplace",
						"label": "uint256",
						"numberOfBytes": "32"
					}
				}
			},
			"userdoc": {
				"events": {
					"CountryModified(address,uint16)": {
						"notice": "this event is emitted when an Identity's country has been updated  the event is emitted by the 'updateCountry' function  `investorAddress` is the address on which the country has been updated  `country` is the numeric code (ISO 3166-1) of the new country"
					},
					"IdentityModified(address,address)": {
						"notice": "this event is emitted when an Identity has been updated  the event is emitted by the 'updateIdentity' function  `oldIdentity` is the old Identity contract's address to update  `newIdentity` is the new Identity contract's"
					},
					"IdentityRegistryBound(address)": {
						"notice": "this event is emitted when an Identity Registry is bound to the storage contract  the event is emitted by the 'addIdentityRegistry' function  `identityRegistry` is the address of the identity registry added"
					},
					"IdentityRegistryUnbound(address)": {
						"notice": "this event is emitted when an Identity Registry is unbound from the storage contract  the event is emitted by the 'removeIdentityRegistry' function  `identityRegistry` is the address of the identity registry removed"
					},
					"IdentityStored(address,address)": {
						"notice": "this event is emitted when an Identity is registered into the storage contract.  the event is emitted by the 'registerIdentity' function  `investorAddress` is the address of the investor's wallet  `identity` is the address of the Identity smart contract (onchainID)"
					},
					"IdentityUnstored(address,address)": {
						"notice": "this event is emitted when an Identity is removed from the storage contract.  the event is emitted by the 'deleteIdentity' function  `investorAddress` is the address of the investor's wallet  `identity` is the address of the Identity smart contract (onchainID)"
					}
				},
				"kind": "user",
				"methods": {},
				"version": 1
			}
		}
	}
}