{
	"contracts t-rex/roles/AgentRoleUpgradeable.sol": {
		"AgentRoleUpgradeable": {
			"abi": [
				{
					"inputs": [],
					"name": "InvalidInitialization",
					"type": "error"
				},
				{
					"inputs": [],
					"name": "NotInitializing",
					"type": "error"
				},
				{
					"inputs": [
						{
							"internalType": "address",
							"name": "owner",
							"type": "address"
						}
					],
					"name": "OwnableInvalidOwner",
					"type": "error"
				},
				{
					"inputs": [
						{
							"internalType": "address",
							"name": "account",
							"type": "address"
						}
					],
					"name": "OwnableUnauthorizedAccount",
					"type": "error"
				},
				{
					"anonymous": false,
					"inputs": [
						{
							"indexed": true,
							"internalType": "address",
							"name": "_agent",
							"type": "address"
						}
					],
					"name": "AgentAdded",
					"type": "event"
				},
				{
					"anonymous": false,
					"inputs": [
						{
							"indexed": true,
							"internalType": "address",
							"name": "_agent",
							"type": "address"
						}
					],
					"name": "AgentRemoved",
					"type": "event"
				},
				{
					"anonymous": false,
					"inputs": [
						{
							"indexed": false,
							"internalType": "uint64",
							"name": "version",
							"type": "uint64"
						}
					],
					"name": "Initialized",
					"type": "event"
				},
				{
					"anonymous": false,
					"inputs": [
						{
							"indexed": true,
							"internalType": "address",
							"name": "previousOwner",
							"type": "address"
						},
						{
							"indexed": true,
							"internalType": "address",
							"name": "newOwner",
							"type": "address"
						}
					],
					"name": "OwnershipTransferred",
					"type": "event"
				},
				{
					"inputs": [
						{
							"internalType": "address",
							"name": "_agent",
							"type": "address"
						}
					],
					"name": "addAgent",
					"outputs": [],
					"stateMutability": "nonpayable",
					"type": "function"
				},
				{
					"inputs": [
						{
							"internalType": "address",
							"name": "_agent",
							"type": "address"
						}
					],
					"name": "isAgent",
					"outputs": [
						{
							"internalType": "bool",
							"name": "",
							"type": "bool"
						}
					],
					"stateMutability": "view",
					"type": "function"
				},
				{
					"inputs": [],
					"name": "owner",
					"outputs": [
						{
							"internalType": "address",
							"name": "",
							"type": "address"
						}
					],
					"stateMutability": "view",
					"type": "function"
				},
				{
					"inputs": [
						{
							"internalType": "address",
							"name": "_agent",
							"type": "address"
						}
					],
					"name": "removeAgent",
					"outputs": [],
					"stateMutability": "nonpayable",
					"type": "function"
				},
				{
					"inputs": [],
					"name": "renounceOwnership",
					"outputs": [],
					"stateMutability": "nonpayable",
					"type": "function"
				},
				{
					"inputs": [
						{
							"internalType": "address",
							"name": "newOwner",
							"type": "address"
						}
					],
					"name": "transferOwnership",
					"outputs": [],
					"stateMutability": "nonpayable",
					"type": "function"
				}
			],
			"devdoc": {
				"errors": {
					"InvalidInitialization()": [
						{
							"details": "The contract is already initialized."
						}
					],
					"NotInitializing()": [
						{
							"details": "The contract is not initializing."
						}
					],
					"OwnableInvalidOwner(address)": [
						{
							"details": "The owner is not a valid owner account. (eg. `address(0)`)"
						}
					],
					"OwnableUnauthorizedAccount(address)": [
						{
							"details": "The caller account is not authorized to perform an operation."
						}
					]
				},
				"kind": "dev",
				"methods": {
					"owner()": {
						"details": "Returns the address of the current owner."
					},
					"renounceOwnership()": {
						"details": "Leaves the contract without owner. It will not be possible to call `onlyOwner` functions. Can only be called by the current owner. NOTE: Renouncing ownership will leave the contract without an owner, thereby disabling any functionality that is only available to the owner."
					},
					"transferOwnership(address)": {
						"details": "Transfers ownership of the contract to a new account (`newOwner`). Can only be called by the current owner."
					}
				},
				"version": 1
			},
			"evm": {
				"assembly": "    /* \"contracts t-rex/roles/AgentRoleUpgradeable.sol\":3943:4808  contract AgentRoleUpgradeable is OwnableUpgradeable {... */\n  mstore(0x40, 0x80)\n  callvalue\n  dup1\n  iszero\n  tag_1\n  jumpi\n  0x00\n  dup1\n  revert\ntag_1:\n  pop\n  dataSize(sub_0)\n  dup1\n  dataOffset(sub_0)\n  0x00\n  codecopy\n  0x00\n  return\nstop\n\nsub_0: assembly {\n        /* \"contracts t-rex/roles/AgentRoleUpgradeable.sol\":3943:4808  contract AgentRoleUpgradeable is OwnableUpgradeable {... */\n      mstore(0x40, 0x80)\n      callvalue\n      dup1\n      iszero\n      tag_1\n      jumpi\n      0x00\n      dup1\n      revert\n    tag_1:\n      pop\n      jumpi(tag_2, lt(calldatasize, 0x04))\n      shr(0xe0, calldataload(0x00))\n      dup1\n      0x1ffbb064\n      eq\n      tag_3\n      jumpi\n      dup1\n      0x715018a6\n      eq\n      tag_4\n      jumpi\n      dup1\n      0x84e79842\n      eq\n      tag_5\n      jumpi\n      dup1\n      0x8da5cb5b\n      eq\n      tag_6\n      jumpi\n      dup1\n      0x97a6278e\n      eq\n      tag_7\n      jumpi\n      dup1\n      0xf2fde38b\n      eq\n      tag_8\n      jumpi\n    tag_2:\n      0x00\n      dup1\n      revert\n        /* \"contracts t-rex/roles/AgentRoleUpgradeable.sol\":4703:4806  function isAgent(address _agent) public view returns (bool) {... */\n    tag_3:\n      tag_9\n      tag_10\n      calldatasize\n      0x04\n      tag_11\n      jump\t// in\n    tag_10:\n      tag_12\n      jump\t// in\n    tag_9:\n      mload(0x40)\n        /* \"#utility.yul\":470:484   */\n      swap1\n      iszero\n        /* \"#utility.yul\":463:485   */\n      iszero\n        /* \"#utility.yul\":445:486   */\n      dup2\n      mstore\n        /* \"#utility.yul\":433:435   */\n      0x20\n        /* \"#utility.yul\":418:436   */\n      add\n        /* \"contracts t-rex/roles/AgentRoleUpgradeable.sol\":4703:4806  function isAgent(address _agent) public view returns (bool) {... */\n    tag_13:\n      mload(0x40)\n      dup1\n      swap2\n      sub\n      swap1\n      return\n        /* \"@openzeppelin/contracts-upgradeable/access/OwnableUpgradeable.sol\":3165:3266  function renounceOwnership() public virtual onlyOwner {... */\n    tag_4:\n      tag_15\n      tag_16\n      jump\t// in\n    tag_15:\n      stop\n        /* \"contracts t-rex/roles/AgentRoleUpgradeable.sol\":4295:4489  function addAgent(address _agent) public onlyOwner {... */\n    tag_5:\n      tag_15\n      tag_18\n      calldatasize\n      0x04\n      tag_11\n      jump\t// in\n    tag_18:\n      tag_19\n      jump\t// in\n        /* \"@openzeppelin/contracts-upgradeable/access/OwnableUpgradeable.sol\":2451:2595  function owner() public view virtual returns (address) {... */\n    tag_6:\n        /* \"@openzeppelin/contracts-upgradeable/access/OwnableUpgradeable.sol\":1323:1345  OwnableStorageLocation */\n      0x9016d09d72d40fdae2fd8ceac6b6234c7706214fd39c1cd1e609a0528c199300\n        /* \"@openzeppelin/contracts-upgradeable/access/OwnableUpgradeable.sol\":2580:2588  $._owner */\n      sload\n        /* \"@openzeppelin/contracts-upgradeable/access/OwnableUpgradeable.sol\":2451:2595  function owner() public view virtual returns (address) {... */\n      mload(0x40)\n      sub(shl(0xa0, 0x01), 0x01)\n        /* \"@openzeppelin/contracts-upgradeable/access/OwnableUpgradeable.sol\":2580:2588  $._owner */\n      swap1\n      swap2\n      and\n        /* \"#utility.yul\":643:694   */\n      dup2\n      mstore\n        /* \"#utility.yul\":631:633   */\n      0x20\n        /* \"#utility.yul\":616:634   */\n      add\n        /* \"@openzeppelin/contracts-upgradeable/access/OwnableUpgradeable.sol\":2451:2595  function owner() public view virtual returns (address) {... */\n      tag_13\n        /* \"#utility.yul\":497:700   */\n      jump\n        /* \"contracts t-rex/roles/AgentRoleUpgradeable.sol\":4495:4697  function removeAgent(address _agent) public onlyOwner {... */\n    tag_7:\n      tag_15\n      tag_25\n      calldatasize\n      0x04\n      tag_11\n      jump\t// in\n    tag_25:\n      tag_26\n      jump\t// in\n        /* \"@openzeppelin/contracts-upgradeable/access/OwnableUpgradeable.sol\":3415:3630  function transferOwnership(address newOwner) public virtual onlyOwner {... */\n    tag_8:\n      tag_15\n      tag_28\n      calldatasize\n      0x04\n      tag_11\n      jump\t// in\n    tag_28:\n      tag_29\n      jump\t// in\n        /* \"contracts t-rex/roles/AgentRoleUpgradeable.sol\":4703:4806  function isAgent(address _agent) public view returns (bool) {... */\n    tag_12:\n        /* \"contracts t-rex/roles/AgentRoleUpgradeable.sol\":4757:4761  bool */\n      0x00\n        /* \"contracts t-rex/roles/AgentRoleUpgradeable.sol\":4780:4799  _agents.has(_agent) */\n      tag_31\n        /* \"contracts t-rex/roles/AgentRoleUpgradeable.sol\":4757:4761  bool */\n      dup2\n        /* \"contracts t-rex/roles/AgentRoleUpgradeable.sol\":4792:4798  _agent */\n      dup4\n        /* \"contracts t-rex/roles/AgentRoleUpgradeable.sol\":4780:4791  _agents.has */\n      tag_32\n        /* \"contracts t-rex/roles/AgentRoleUpgradeable.sol\":4780:4799  _agents.has(_agent) */\n      jump\t// in\n    tag_31:\n        /* \"contracts t-rex/roles/AgentRoleUpgradeable.sol\":4773:4799  return _agents.has(_agent) */\n      swap3\n        /* \"contracts t-rex/roles/AgentRoleUpgradeable.sol\":4703:4806  function isAgent(address _agent) public view returns (bool) {... */\n      swap2\n      pop\n      pop\n      jump\t// out\n        /* \"@openzeppelin/contracts-upgradeable/access/OwnableUpgradeable.sol\":3165:3266  function renounceOwnership() public virtual onlyOwner {... */\n    tag_16:\n        /* \"@openzeppelin/contracts-upgradeable/access/OwnableUpgradeable.sol\":2344:2357  _checkOwner() */\n      tag_34\n        /* \"@openzeppelin/contracts-upgradeable/access/OwnableUpgradeable.sol\":2344:2355  _checkOwner */\n      tag_35\n        /* \"@openzeppelin/contracts-upgradeable/access/OwnableUpgradeable.sol\":2344:2357  _checkOwner() */\n      jump\t// in\n    tag_34:\n        /* \"@openzeppelin/contracts-upgradeable/access/OwnableUpgradeable.sol\":3229:3259  _transferOwnership(address(0)) */\n      tag_37\n        /* \"@openzeppelin/contracts-upgradeable/access/OwnableUpgradeable.sol\":3256:3257  0 */\n      0x00\n        /* \"@openzeppelin/contracts-upgradeable/access/OwnableUpgradeable.sol\":3229:3247  _transferOwnership */\n      tag_38\n        /* \"@openzeppelin/contracts-upgradeable/access/OwnableUpgradeable.sol\":3229:3259  _transferOwnership(address(0)) */\n      jump\t// in\n    tag_37:\n        /* \"@openzeppelin/contracts-upgradeable/access/OwnableUpgradeable.sol\":3165:3266  function renounceOwnership() public virtual onlyOwner {... */\n      jump\t// out\n        /* \"contracts t-rex/roles/AgentRoleUpgradeable.sol\":4295:4489  function addAgent(address _agent) public onlyOwner {... */\n    tag_19:\n        /* \"@openzeppelin/contracts-upgradeable/access/OwnableUpgradeable.sol\":2344:2357  _checkOwner() */\n      tag_40\n        /* \"@openzeppelin/contracts-upgradeable/access/OwnableUpgradeable.sol\":2344:2355  _checkOwner */\n      tag_35\n        /* \"@openzeppelin/contracts-upgradeable/access/OwnableUpgradeable.sol\":2344:2357  _checkOwner() */\n      jump\t// in\n    tag_40:\n      sub(shl(0xa0, 0x01), 0x01)\n        /* \"contracts t-rex/roles/AgentRoleUpgradeable.sol\":4364:4384  _agent != address(0) */\n      dup2\n      and\n        /* \"contracts t-rex/roles/AgentRoleUpgradeable.sol\":4356:4420  require(_agent != address(0), \"invalid argument - zero address\") */\n      tag_42\n      jumpi\n      mload(0x40)\n      shl(0xe5, 0x461bcd)\n      dup2\n      mstore\n        /* \"#utility.yul\":907:909   */\n      0x20\n        /* \"contracts t-rex/roles/AgentRoleUpgradeable.sol\":4356:4420  require(_agent != address(0), \"invalid argument - zero address\") */\n      0x04\n      dup3\n      add\n        /* \"#utility.yul\":889:910   */\n      mstore\n        /* \"#utility.yul\":946:948   */\n      0x1f\n        /* \"#utility.yul\":926:944   */\n      0x24\n      dup3\n      add\n        /* \"#utility.yul\":919:949   */\n      mstore\n        /* \"#utility.yul\":985:1018   */\n      0x696e76616c696420617267756d656e74202d207a65726f206164647265737300\n        /* \"#utility.yul\":965:983   */\n      0x44\n      dup3\n      add\n        /* \"#utility.yul\":958:1019   */\n      mstore\n        /* \"#utility.yul\":1036:1054   */\n      0x64\n      add\n        /* \"contracts t-rex/roles/AgentRoleUpgradeable.sol\":4356:4420  require(_agent != address(0), \"invalid argument - zero address\") */\n    tag_43:\n      mload(0x40)\n      dup1\n      swap2\n      sub\n      swap1\n      revert\n    tag_42:\n        /* \"contracts t-rex/roles/AgentRoleUpgradeable.sol\":4430:4449  _agents.add(_agent) */\n      tag_45\n        /* \"contracts t-rex/roles/AgentRoleUpgradeable.sol\":4430:4437  _agents */\n      0x00\n        /* \"contracts t-rex/roles/AgentRoleUpgradeable.sol\":4442:4448  _agent */\n      dup3\n        /* \"contracts t-rex/roles/AgentRoleUpgradeable.sol\":4430:4441  _agents.add */\n      tag_46\n        /* \"contracts t-rex/roles/AgentRoleUpgradeable.sol\":4430:4449  _agents.add(_agent) */\n      jump\t// in\n    tag_45:\n        /* \"contracts t-rex/roles/AgentRoleUpgradeable.sol\":4464:4482  AgentAdded(_agent) */\n      mload(0x40)\n      sub(shl(0xa0, 0x01), 0x01)\n      dup3\n      and\n      swap1\n      0xf68e73cec97f2d70aa641fb26e87a4383686e2efacb648f2165aeb02ac562ec5\n      swap1\n      0x00\n      swap1\n      log2\n        /* \"contracts t-rex/roles/AgentRoleUpgradeable.sol\":4295:4489  function addAgent(address _agent) public onlyOwner {... */\n      pop\n      jump\t// out\n        /* \"contracts t-rex/roles/AgentRoleUpgradeable.sol\":4495:4697  function removeAgent(address _agent) public onlyOwner {... */\n    tag_26:\n        /* \"@openzeppelin/contracts-upgradeable/access/OwnableUpgradeable.sol\":2344:2357  _checkOwner() */\n      tag_51\n        /* \"@openzeppelin/contracts-upgradeable/access/OwnableUpgradeable.sol\":2344:2355  _checkOwner */\n      tag_35\n        /* \"@openzeppelin/contracts-upgradeable/access/OwnableUpgradeable.sol\":2344:2357  _checkOwner() */\n      jump\t// in\n    tag_51:\n      sub(shl(0xa0, 0x01), 0x01)\n        /* \"contracts t-rex/roles/AgentRoleUpgradeable.sol\":4567:4587  _agent != address(0) */\n      dup2\n      and\n        /* \"contracts t-rex/roles/AgentRoleUpgradeable.sol\":4559:4623  require(_agent != address(0), \"invalid argument - zero address\") */\n      tag_53\n      jumpi\n      mload(0x40)\n      shl(0xe5, 0x461bcd)\n      dup2\n      mstore\n        /* \"#utility.yul\":907:909   */\n      0x20\n        /* \"contracts t-rex/roles/AgentRoleUpgradeable.sol\":4559:4623  require(_agent != address(0), \"invalid argument - zero address\") */\n      0x04\n      dup3\n      add\n        /* \"#utility.yul\":889:910   */\n      mstore\n        /* \"#utility.yul\":946:948   */\n      0x1f\n        /* \"#utility.yul\":926:944   */\n      0x24\n      dup3\n      add\n        /* \"#utility.yul\":919:949   */\n      mstore\n        /* \"#utility.yul\":985:1018   */\n      0x696e76616c696420617267756d656e74202d207a65726f206164647265737300\n        /* \"#utility.yul\":965:983   */\n      0x44\n      dup3\n      add\n        /* \"#utility.yul\":958:1019   */\n      mstore\n        /* \"#utility.yul\":1036:1054   */\n      0x64\n      add\n        /* \"contracts t-rex/roles/AgentRoleUpgradeable.sol\":4559:4623  require(_agent != address(0), \"invalid argument - zero address\") */\n      tag_43\n        /* \"#utility.yul\":705:1060   */\n      jump\n        /* \"contracts t-rex/roles/AgentRoleUpgradeable.sol\":4559:4623  require(_agent != address(0), \"invalid argument - zero address\") */\n    tag_53:\n        /* \"contracts t-rex/roles/AgentRoleUpgradeable.sol\":4633:4655  _agents.remove(_agent) */\n      tag_55\n        /* \"contracts t-rex/roles/AgentRoleUpgradeable.sol\":4633:4640  _agents */\n      0x00\n        /* \"contracts t-rex/roles/AgentRoleUpgradeable.sol\":4648:4654  _agent */\n      dup3\n        /* \"contracts t-rex/roles/AgentRoleUpgradeable.sol\":4633:4647  _agents.remove */\n      tag_56\n        /* \"contracts t-rex/roles/AgentRoleUpgradeable.sol\":4633:4655  _agents.remove(_agent) */\n      jump\t// in\n    tag_55:\n        /* \"contracts t-rex/roles/AgentRoleUpgradeable.sol\":4670:4690  AgentRemoved(_agent) */\n      mload(0x40)\n      sub(shl(0xa0, 0x01), 0x01)\n      dup3\n      and\n      swap1\n      0xed9c8ad8d5a0a66898ea49d2956929c93ae2e8bd50281b2ed897c5d1a6737e0b\n      swap1\n      0x00\n      swap1\n      log2\n        /* \"contracts t-rex/roles/AgentRoleUpgradeable.sol\":4495:4697  function removeAgent(address _agent) public onlyOwner {... */\n      pop\n      jump\t// out\n        /* \"@openzeppelin/contracts-upgradeable/access/OwnableUpgradeable.sol\":3415:3630  function transferOwnership(address newOwner) public virtual onlyOwner {... */\n    tag_29:\n        /* \"@openzeppelin/contracts-upgradeable/access/OwnableUpgradeable.sol\":2344:2357  _checkOwner() */\n      tag_58\n        /* \"@openzeppelin/contracts-upgradeable/access/OwnableUpgradeable.sol\":2344:2355  _checkOwner */\n      tag_35\n        /* \"@openzeppelin/contracts-upgradeable/access/OwnableUpgradeable.sol\":2344:2357  _checkOwner() */\n      jump\t// in\n    tag_58:\n      sub(shl(0xa0, 0x01), 0x01)\n        /* \"@openzeppelin/contracts-upgradeable/access/OwnableUpgradeable.sol\":3499:3521  newOwner == address(0) */\n      dup2\n      and\n        /* \"@openzeppelin/contracts-upgradeable/access/OwnableUpgradeable.sol\":3495:3586  if (newOwner == address(0)) {... */\n      tag_60\n      jumpi\n        /* \"@openzeppelin/contracts-upgradeable/access/OwnableUpgradeable.sol\":3544:3575  OwnableInvalidOwner(address(0)) */\n      mload(0x40)\n      shl(0xe0, 0x1e4fbdf7)\n      dup2\n      mstore\n        /* \"@openzeppelin/contracts-upgradeable/access/OwnableUpgradeable.sol\":3572:3573  0 */\n      0x00\n        /* \"@openzeppelin/contracts-upgradeable/access/OwnableUpgradeable.sol\":3544:3575  OwnableInvalidOwner(address(0)) */\n      0x04\n      dup3\n      add\n        /* \"#utility.yul\":643:694   */\n      mstore\n        /* \"#utility.yul\":616:634   */\n      0x24\n      add\n        /* \"@openzeppelin/contracts-upgradeable/access/OwnableUpgradeable.sol\":3544:3575  OwnableInvalidOwner(address(0)) */\n      tag_43\n        /* \"#utility.yul\":497:700   */\n      jump\n        /* \"@openzeppelin/contracts-upgradeable/access/OwnableUpgradeable.sol\":3495:3586  if (newOwner == address(0)) {... */\n    tag_60:\n        /* \"@openzeppelin/contracts-upgradeable/access/OwnableUpgradeable.sol\":3595:3623  _transferOwnership(newOwner) */\n      tag_62\n        /* \"@openzeppelin/contracts-upgradeable/access/OwnableUpgradeable.sol\":3614:3622  newOwner */\n      dup2\n        /* \"@openzeppelin/contracts-upgradeable/access/OwnableUpgradeable.sol\":3595:3613  _transferOwnership */\n      tag_38\n        /* \"@openzeppelin/contracts-upgradeable/access/OwnableUpgradeable.sol\":3595:3623  _transferOwnership(newOwner) */\n      jump\t// in\n    tag_62:\n        /* \"@openzeppelin/contracts-upgradeable/access/OwnableUpgradeable.sol\":3415:3630  function transferOwnership(address newOwner) public virtual onlyOwner {... */\n      pop\n      jump\t// out\n        /* \"contracts t-rex/roles/Roles.sol\":4596:4796  function has(Role storage role, address account) internal view returns (bool) {... */\n    tag_32:\n        /* \"contracts t-rex/roles/Roles.sol\":4668:4672  bool */\n      0x00\n      sub(shl(0xa0, 0x01), 0x01)\n        /* \"contracts t-rex/roles/Roles.sol\":4692:4713  account != address(0) */\n      dup3\n      and\n        /* \"contracts t-rex/roles/Roles.sol\":4684:4752  require(account != address(0), \"Roles: account is the zero address\") */\n      tag_64\n      jumpi\n      mload(0x40)\n      shl(0xe5, 0x461bcd)\n      dup2\n      mstore\n        /* \"#utility.yul\":1267:1269   */\n      0x20\n        /* \"contracts t-rex/roles/Roles.sol\":4684:4752  require(account != address(0), \"Roles: account is the zero address\") */\n      0x04\n      dup3\n      add\n        /* \"#utility.yul\":1249:1270   */\n      mstore\n        /* \"#utility.yul\":1306:1308   */\n      0x22\n        /* \"#utility.yul\":1286:1304   */\n      0x24\n      dup3\n      add\n        /* \"#utility.yul\":1279:1309   */\n      mstore\n        /* \"#utility.yul\":1345:1379   */\n      0x526f6c65733a206163636f756e7420697320746865207a65726f206164647265\n        /* \"#utility.yul\":1325:1343   */\n      0x44\n      dup3\n      add\n        /* \"#utility.yul\":1318:1380   */\n      mstore\n      shl(0xf0, 0x7373)\n        /* \"#utility.yul\":1396:1414   */\n      0x64\n      dup3\n      add\n        /* \"#utility.yul\":1389:1421   */\n      mstore\n        /* \"#utility.yul\":1438:1457   */\n      0x84\n      add\n        /* \"contracts t-rex/roles/Roles.sol\":4684:4752  require(account != address(0), \"Roles: account is the zero address\") */\n      tag_43\n        /* \"#utility.yul\":1065:1463   */\n      jump\n        /* \"contracts t-rex/roles/Roles.sol\":4684:4752  require(account != address(0), \"Roles: account is the zero address\") */\n    tag_64:\n      pop\n      sub(shl(0xa0, 0x01), 0x01)\n        /* \"contracts t-rex/roles/Roles.sol\":4769:4789  role.bearer[account] */\n      and\n        /* \"contracts t-rex/roles/Roles.sol\":4769:4780  role.bearer */\n      0x00\n        /* \"contracts t-rex/roles/Roles.sol\":4769:4789  role.bearer[account] */\n      swap1\n      dup2\n      mstore\n      0x20\n      swap2\n      swap1\n      swap2\n      mstore\n      0x40\n      swap1\n      keccak256\n      sload\n      0xff\n      and\n      swap1\n        /* \"contracts t-rex/roles/Roles.sol\":4596:4796  function has(Role storage role, address account) internal view returns (bool) {... */\n      jump\t// out\n        /* \"@openzeppelin/contracts-upgradeable/access/OwnableUpgradeable.sol\":2668:2830  function _checkOwner() internal view virtual {... */\n    tag_35:\n        /* \"@openzeppelin/contracts-upgradeable/utils/ContextUpgradeable.sol\":966:976  msg.sender */\n      caller\n        /* \"@openzeppelin/contracts-upgradeable/access/OwnableUpgradeable.sol\":2727:2734  owner() */\n      tag_70\n        /* \"@openzeppelin/contracts-upgradeable/access/OwnableUpgradeable.sol\":1323:1345  OwnableStorageLocation */\n      0x9016d09d72d40fdae2fd8ceac6b6234c7706214fd39c1cd1e609a0528c199300\n        /* \"@openzeppelin/contracts-upgradeable/access/OwnableUpgradeable.sol\":2580:2588  $._owner */\n      sload\n      sub(shl(0xa0, 0x01), 0x01)\n      and\n      swap1\n        /* \"@openzeppelin/contracts-upgradeable/access/OwnableUpgradeable.sol\":2451:2595  function owner() public view virtual returns (address) {... */\n      jump\n        /* \"@openzeppelin/contracts-upgradeable/access/OwnableUpgradeable.sol\":2727:2734  owner() */\n    tag_70:\n      sub(shl(0xa0, 0x01), 0x01)\n        /* \"@openzeppelin/contracts-upgradeable/access/OwnableUpgradeable.sol\":2727:2750  owner() != _msgSender() */\n      and\n      eq\n        /* \"@openzeppelin/contracts-upgradeable/access/OwnableUpgradeable.sol\":2723:2824  if (owner() != _msgSender()) {... */\n      tag_37\n      jumpi\n        /* \"@openzeppelin/contracts-upgradeable/access/OwnableUpgradeable.sol\":2773:2813  OwnableUnauthorizedAccount(_msgSender()) */\n      mload(0x40)\n      shl(0xe0, 0x118cdaa7)\n      dup2\n      mstore\n        /* \"@openzeppelin/contracts-upgradeable/utils/ContextUpgradeable.sol\":966:976  msg.sender */\n      caller\n        /* \"@openzeppelin/contracts-upgradeable/access/OwnableUpgradeable.sol\":2773:2813  OwnableUnauthorizedAccount(_msgSender()) */\n      0x04\n      dup3\n      add\n        /* \"#utility.yul\":643:694   */\n      mstore\n        /* \"#utility.yul\":616:634   */\n      0x24\n      add\n        /* \"@openzeppelin/contracts-upgradeable/access/OwnableUpgradeable.sol\":2773:2813  OwnableUnauthorizedAccount(_msgSender()) */\n      tag_43\n        /* \"#utility.yul\":497:700   */\n      jump\n        /* \"@openzeppelin/contracts-upgradeable/access/OwnableUpgradeable.sol\":3784:4032  function _transferOwnership(address newOwner) internal virtual {... */\n    tag_38:\n        /* \"@openzeppelin/contracts-upgradeable/access/OwnableUpgradeable.sol\":1323:1345  OwnableStorageLocation */\n      0x9016d09d72d40fdae2fd8ceac6b6234c7706214fd39c1cd1e609a0528c199300\n        /* \"@openzeppelin/contracts-upgradeable/access/OwnableUpgradeable.sol\":3933:3941  $._owner */\n      dup1\n      sload\n      not(sub(shl(0xa0, 0x01), 0x01))\n        /* \"@openzeppelin/contracts-upgradeable/access/OwnableUpgradeable.sol\":3951:3970  $._owner = newOwner */\n      dup2\n      and\n      sub(shl(0xa0, 0x01), 0x01)\n      dup5\n      dup2\n      and\n      swap2\n      dup3\n      or\n      dup5\n      sstore\n        /* \"@openzeppelin/contracts-upgradeable/access/OwnableUpgradeable.sol\":3985:4025  OwnershipTransferred(oldOwner, newOwner) */\n      mload(0x40)\n        /* \"@openzeppelin/contracts-upgradeable/access/OwnableUpgradeable.sol\":3933:3941  $._owner */\n      swap3\n      and\n      swap2\n      dup3\n      swap1\n        /* \"@openzeppelin/contracts-upgradeable/access/OwnableUpgradeable.sol\":3985:4025  OwnershipTransferred(oldOwner, newOwner) */\n      0x8be0079c531659141344cd1fd0a4f28419497f9722a3daafe3b4186f6b6457e0\n      swap1\n        /* \"@openzeppelin/contracts-upgradeable/access/OwnableUpgradeable.sol\":3857:3881  OwnableStorage storage $ */\n      0x00\n      swap1\n        /* \"@openzeppelin/contracts-upgradeable/access/OwnableUpgradeable.sol\":3985:4025  OwnershipTransferred(oldOwner, newOwner) */\n      log3\n        /* \"@openzeppelin/contracts-upgradeable/access/OwnableUpgradeable.sol\":3847:4032  {... */\n      pop\n      pop\n        /* \"@openzeppelin/contracts-upgradeable/access/OwnableUpgradeable.sol\":3784:4032  function _transferOwnership(address newOwner) internal virtual {... */\n      pop\n      jump\t// out\n        /* \"contracts t-rex/roles/Roles.sol\":4077:4252  function add(Role storage role, address account) internal {... */\n    tag_46:\n        /* \"contracts t-rex/roles/Roles.sol\":4154:4172  has(role, account) */\n      tag_77\n        /* \"contracts t-rex/roles/Roles.sol\":4158:4162  role */\n      dup3\n        /* \"contracts t-rex/roles/Roles.sol\":4164:4171  account */\n      dup3\n        /* \"contracts t-rex/roles/Roles.sol\":4154:4157  has */\n      tag_32\n        /* \"contracts t-rex/roles/Roles.sol\":4154:4172  has(role, account) */\n      jump\t// in\n    tag_77:\n        /* \"contracts t-rex/roles/Roles.sol\":4153:4172  !has(role, account) */\n      iszero\n        /* \"contracts t-rex/roles/Roles.sol\":4145:4208  require(!has(role, account), \"Roles: account already has role\") */\n      tag_78\n      jumpi\n      mload(0x40)\n      shl(0xe5, 0x461bcd)\n      dup2\n      mstore\n        /* \"#utility.yul\":1670:1672   */\n      0x20\n        /* \"contracts t-rex/roles/Roles.sol\":4145:4208  require(!has(role, account), \"Roles: account already has role\") */\n      0x04\n      dup3\n      add\n        /* \"#utility.yul\":1652:1673   */\n      mstore\n        /* \"#utility.yul\":1709:1711   */\n      0x1f\n        /* \"#utility.yul\":1689:1707   */\n      0x24\n      dup3\n      add\n        /* \"#utility.yul\":1682:1712   */\n      mstore\n        /* \"#utility.yul\":1748:1781   */\n      0x526f6c65733a206163636f756e7420616c72656164792068617320726f6c6500\n        /* \"#utility.yul\":1728:1746   */\n      0x44\n      dup3\n      add\n        /* \"#utility.yul\":1721:1782   */\n      mstore\n        /* \"#utility.yul\":1799:1817   */\n      0x64\n      add\n        /* \"contracts t-rex/roles/Roles.sol\":4145:4208  require(!has(role, account), \"Roles: account already has role\") */\n      tag_43\n        /* \"#utility.yul\":1468:1823   */\n      jump\n        /* \"contracts t-rex/roles/Roles.sol\":4145:4208  require(!has(role, account), \"Roles: account already has role\") */\n    tag_78:\n      sub(shl(0xa0, 0x01), 0x01)\n        /* \"contracts t-rex/roles/Roles.sol\":4218:4238  role.bearer[account] */\n      and\n        /* \"contracts t-rex/roles/Roles.sol\":4218:4229  role.bearer */\n      0x00\n        /* \"contracts t-rex/roles/Roles.sol\":4218:4238  role.bearer[account] */\n      swap1\n      dup2\n      mstore\n      0x20\n      swap2\n      swap1\n      swap2\n      mstore\n      0x40\n      swap1\n      keccak256\n        /* \"contracts t-rex/roles/Roles.sol\":4218:4245  role.bearer[account] = true */\n      dup1\n      sload\n      not(0xff)\n      and\n        /* \"contracts t-rex/roles/Roles.sol\":4241:4245  true */\n      0x01\n        /* \"contracts t-rex/roles/Roles.sol\":4218:4245  role.bearer[account] = true */\n      or\n      swap1\n      sstore\n        /* \"contracts t-rex/roles/Roles.sol\":4077:4252  function add(Role storage role, address account) internal {... */\n      jump\t// out\n        /* \"contracts t-rex/roles/Roles.sol\":4327:4507  function remove(Role storage role, address account) internal {... */\n    tag_56:\n        /* \"contracts t-rex/roles/Roles.sol\":4406:4424  has(role, account) */\n      tag_83\n        /* \"contracts t-rex/roles/Roles.sol\":4410:4414  role */\n      dup3\n        /* \"contracts t-rex/roles/Roles.sol\":4416:4423  account */\n      dup3\n        /* \"contracts t-rex/roles/Roles.sol\":4406:4409  has */\n      tag_32\n        /* \"contracts t-rex/roles/Roles.sol\":4406:4424  has(role, account) */\n      jump\t// in\n    tag_83:\n        /* \"contracts t-rex/roles/Roles.sol\":4398:4462  require(has(role, account), \"Roles: account does not have role\") */\n      tag_84\n      jumpi\n      mload(0x40)\n      shl(0xe5, 0x461bcd)\n      dup2\n      mstore\n        /* \"#utility.yul\":2030:2032   */\n      0x20\n        /* \"contracts t-rex/roles/Roles.sol\":4398:4462  require(has(role, account), \"Roles: account does not have role\") */\n      0x04\n      dup3\n      add\n        /* \"#utility.yul\":2012:2033   */\n      mstore\n        /* \"#utility.yul\":2069:2071   */\n      0x21\n        /* \"#utility.yul\":2049:2067   */\n      0x24\n      dup3\n      add\n        /* \"#utility.yul\":2042:2072   */\n      mstore\n        /* \"#utility.yul\":2108:2142   */\n      0x526f6c65733a206163636f756e7420646f6573206e6f74206861766520726f6c\n        /* \"#utility.yul\":2088:2106   */\n      0x44\n      dup3\n      add\n        /* \"#utility.yul\":2081:2143   */\n      mstore\n      shl(0xf8, 0x65)\n        /* \"#utility.yul\":2159:2177   */\n      0x64\n      dup3\n      add\n        /* \"#utility.yul\":2152:2183   */\n      mstore\n        /* \"#utility.yul\":2200:2219   */\n      0x84\n      add\n        /* \"contracts t-rex/roles/Roles.sol\":4398:4462  require(has(role, account), \"Roles: account does not have role\") */\n      tag_43\n        /* \"#utility.yul\":1828:2225   */\n      jump\n        /* \"contracts t-rex/roles/Roles.sol\":4398:4462  require(has(role, account), \"Roles: account does not have role\") */\n    tag_84:\n      sub(shl(0xa0, 0x01), 0x01)\n        /* \"contracts t-rex/roles/Roles.sol\":4472:4492  role.bearer[account] */\n      and\n        /* \"contracts t-rex/roles/Roles.sol\":4495:4500  false */\n      0x00\n        /* \"contracts t-rex/roles/Roles.sol\":4472:4492  role.bearer[account] */\n      swap1\n      dup2\n      mstore\n      0x20\n      swap2\n      swap1\n      swap2\n      mstore\n      0x40\n      swap1\n      keccak256\n        /* \"contracts t-rex/roles/Roles.sol\":4472:4500  role.bearer[account] = false */\n      dup1\n      sload\n      not(0xff)\n      and\n      swap1\n      sstore\n        /* \"contracts t-rex/roles/Roles.sol\":4327:4507  function remove(Role storage role, address account) internal {... */\n      jump\t// out\n        /* \"#utility.yul\":14:300   */\n    tag_11:\n        /* \"#utility.yul\":73:79   */\n      0x00\n        /* \"#utility.yul\":126:128   */\n      0x20\n        /* \"#utility.yul\":114:123   */\n      dup3\n        /* \"#utility.yul\":105:112   */\n      dup5\n        /* \"#utility.yul\":101:124   */\n      sub\n        /* \"#utility.yul\":97:129   */\n      slt\n        /* \"#utility.yul\":94:146   */\n      iszero\n      tag_90\n      jumpi\n        /* \"#utility.yul\":142:143   */\n      0x00\n        /* \"#utility.yul\":139:140   */\n      dup1\n        /* \"#utility.yul\":132:144   */\n      revert\n        /* \"#utility.yul\":94:146   */\n    tag_90:\n        /* \"#utility.yul\":168:191   */\n      dup2\n      calldataload\n      sub(shl(0xa0, 0x01), 0x01)\n        /* \"#utility.yul\":220:251   */\n      dup2\n      and\n        /* \"#utility.yul\":210:252   */\n      dup2\n      eq\n        /* \"#utility.yul\":200:270   */\n      tag_91\n      jumpi\n        /* \"#utility.yul\":266:267   */\n      0x00\n        /* \"#utility.yul\":263:264   */\n      dup1\n        /* \"#utility.yul\":256:268   */\n      revert\n        /* \"#utility.yul\":200:270   */\n    tag_91:\n        /* \"#utility.yul\":289:294   */\n      swap4\n        /* \"#utility.yul\":14:300   */\n      swap3\n      pop\n      pop\n      pop\n      jump\t// out\n\n    auxdata: 0xa264697066735822122042ebb2680cb51d27193f6115d16697b50a50219e490d0a6be5b383d9fec26d0a64736f6c63430008110033\n}\n",
				"bytecode": {
					"linkReferences": {},
					"object": "608060405234801561001057600080fd5b50610568806100206000396000f3fe608060405234801561001057600080fd5b50600436106100625760003560e01c80631ffbb06414610067578063715018a61461008f57806384e79842146100995780638da5cb5b146100ac57806397a6278e146100e6578063f2fde38b146100f9575b600080fd5b61007a610075366004610502565b61010c565b60405190151581526020015b60405180910390f35b61009761011e565b005b6100976100a7366004610502565b610132565b7f9016d09d72d40fdae2fd8ceac6b6234c7706214fd39c1cd1e609a0528c199300546040516001600160a01b039091168152602001610086565b6100976100f4366004610502565b6101d7565b610097610107366004610502565b610277565b600061011881836102b5565b92915050565b610126610338565b6101306000610393565b565b61013a610338565b6001600160a01b0381166101955760405162461bcd60e51b815260206004820152601f60248201527f696e76616c696420617267756d656e74202d207a65726f20616464726573730060448201526064015b60405180910390fd5b6101a0600082610404565b6040516001600160a01b038216907ff68e73cec97f2d70aa641fb26e87a4383686e2efacb648f2165aeb02ac562ec590600090a250565b6101df610338565b6001600160a01b0381166102355760405162461bcd60e51b815260206004820152601f60248201527f696e76616c696420617267756d656e74202d207a65726f206164647265737300604482015260640161018c565b610240600082610480565b6040516001600160a01b038216907fed9c8ad8d5a0a66898ea49d2956929c93ae2e8bd50281b2ed897c5d1a6737e0b90600090a250565b61027f610338565b6001600160a01b0381166102a957604051631e4fbdf760e01b81526000600482015260240161018c565b6102b281610393565b50565b60006001600160a01b0382166103185760405162461bcd60e51b815260206004820152602260248201527f526f6c65733a206163636f756e7420697320746865207a65726f206164647265604482015261737360f01b606482015260840161018c565b506001600160a01b03166000908152602091909152604090205460ff1690565b3361036a7f9016d09d72d40fdae2fd8ceac6b6234c7706214fd39c1cd1e609a0528c199300546001600160a01b031690565b6001600160a01b0316146101305760405163118cdaa760e01b815233600482015260240161018c565b7f9016d09d72d40fdae2fd8ceac6b6234c7706214fd39c1cd1e609a0528c19930080546001600160a01b031981166001600160a01b03848116918217845560405192169182907f8be0079c531659141344cd1fd0a4f28419497f9722a3daafe3b4186f6b6457e090600090a3505050565b61040e82826102b5565b1561045b5760405162461bcd60e51b815260206004820152601f60248201527f526f6c65733a206163636f756e7420616c72656164792068617320726f6c6500604482015260640161018c565b6001600160a01b0316600090815260209190915260409020805460ff19166001179055565b61048a82826102b5565b6104e05760405162461bcd60e51b815260206004820152602160248201527f526f6c65733a206163636f756e7420646f6573206e6f74206861766520726f6c6044820152606560f81b606482015260840161018c565b6001600160a01b0316600090815260209190915260409020805460ff19169055565b60006020828403121561051457600080fd5b81356001600160a01b038116811461052b57600080fd5b939250505056fea264697066735822122042ebb2680cb51d27193f6115d16697b50a50219e490d0a6be5b383d9fec26d0a64736f6c63430008110033",
					"opcodes": "PUSH1 0x80 PUSH1 0x40 MSTORE CALLVALUE DUP1 ISZERO PUSH2 0x10 JUMPI PUSH1 0x0 DUP1 REVERT JUMPDEST POP PUSH2 0x568 DUP1 PUSH2 0x20 PUSH1 0x0 CODECOPY PUSH1 0x0 RETURN INVALID PUSH1 0x80 PUSH1 0x40 MSTORE CALLVALUE DUP1 ISZERO PUSH2 0x10 JUMPI PUSH1 0x0 DUP1 REVERT JUMPDEST POP PUSH1 0x4 CALLDATASIZE LT PUSH2 0x62 JUMPI PUSH1 0x0 CALLDATALOAD PUSH1 0xE0 SHR DUP1 PUSH4 0x1FFBB064 EQ PUSH2 0x67 JUMPI DUP1 PUSH4 0x715018A6 EQ PUSH2 0x8F JUMPI DUP1 PUSH4 0x84E79842 EQ PUSH2 0x99 JUMPI DUP1 PUSH4 0x8DA5CB5B EQ PUSH2 0xAC JUMPI DUP1 PUSH4 0x97A6278E EQ PUSH2 0xE6 JUMPI DUP1 PUSH4 0xF2FDE38B EQ PUSH2 0xF9 JUMPI JUMPDEST PUSH1 0x0 DUP1 REVERT JUMPDEST PUSH2 0x7A PUSH2 0x75 CALLDATASIZE PUSH1 0x4 PUSH2 0x502 JUMP JUMPDEST PUSH2 0x10C JUMP JUMPDEST PUSH1 0x40 MLOAD SWAP1 ISZERO ISZERO DUP2 MSTORE PUSH1 0x20 ADD JUMPDEST PUSH1 0x40 MLOAD DUP1 SWAP2 SUB SWAP1 RETURN JUMPDEST PUSH2 0x97 PUSH2 0x11E JUMP JUMPDEST STOP JUMPDEST PUSH2 0x97 PUSH2 0xA7 CALLDATASIZE PUSH1 0x4 PUSH2 0x502 JUMP JUMPDEST PUSH2 0x132 JUMP JUMPDEST PUSH32 0x9016D09D72D40FDAE2FD8CEAC6B6234C7706214FD39C1CD1E609A0528C199300 SLOAD PUSH1 0x40 MLOAD PUSH1 0x1 PUSH1 0x1 PUSH1 0xA0 SHL SUB SWAP1 SWAP2 AND DUP2 MSTORE PUSH1 0x20 ADD PUSH2 0x86 JUMP JUMPDEST PUSH2 0x97 PUSH2 0xF4 CALLDATASIZE PUSH1 0x4 PUSH2 0x502 JUMP JUMPDEST PUSH2 0x1D7 JUMP JUMPDEST PUSH2 0x97 PUSH2 0x107 CALLDATASIZE PUSH1 0x4 PUSH2 0x502 JUMP JUMPDEST PUSH2 0x277 JUMP JUMPDEST PUSH1 0x0 PUSH2 0x118 DUP2 DUP4 PUSH2 0x2B5 JUMP JUMPDEST SWAP3 SWAP2 POP POP JUMP JUMPDEST PUSH2 0x126 PUSH2 0x338 JUMP JUMPDEST PUSH2 0x130 PUSH1 0x0 PUSH2 0x393 JUMP JUMPDEST JUMP JUMPDEST PUSH2 0x13A PUSH2 0x338 JUMP JUMPDEST PUSH1 0x1 PUSH1 0x1 PUSH1 0xA0 SHL SUB DUP2 AND PUSH2 0x195 JUMPI PUSH1 0x40 MLOAD PUSH3 0x461BCD PUSH1 0xE5 SHL DUP2 MSTORE PUSH1 0x20 PUSH1 0x4 DUP3 ADD MSTORE PUSH1 0x1F PUSH1 0x24 DUP3 ADD MSTORE PUSH32 0x696E76616C696420617267756D656E74202D207A65726F206164647265737300 PUSH1 0x44 DUP3 ADD MSTORE PUSH1 0x64 ADD JUMPDEST PUSH1 0x40 MLOAD DUP1 SWAP2 SUB SWAP1 REVERT JUMPDEST PUSH2 0x1A0 PUSH1 0x0 DUP3 PUSH2 0x404 JUMP JUMPDEST PUSH1 0x40 MLOAD PUSH1 0x1 PUSH1 0x1 PUSH1 0xA0 SHL SUB DUP3 AND SWAP1 PUSH32 0xF68E73CEC97F2D70AA641FB26E87A4383686E2EFACB648F2165AEB02AC562EC5 SWAP1 PUSH1 0x0 SWAP1 LOG2 POP JUMP JUMPDEST PUSH2 0x1DF PUSH2 0x338 JUMP JUMPDEST PUSH1 0x1 PUSH1 0x1 PUSH1 0xA0 SHL SUB DUP2 AND PUSH2 0x235 JUMPI PUSH1 0x40 MLOAD PUSH3 0x461BCD PUSH1 0xE5 SHL DUP2 MSTORE PUSH1 0x20 PUSH1 0x4 DUP3 ADD MSTORE PUSH1 0x1F PUSH1 0x24 DUP3 ADD MSTORE PUSH32 0x696E76616C696420617267756D656E74202D207A65726F206164647265737300 PUSH1 0x44 DUP3 ADD MSTORE PUSH1 0x64 ADD PUSH2 0x18C JUMP JUMPDEST PUSH2 0x240 PUSH1 0x0 DUP3 PUSH2 0x480 JUMP JUMPDEST PUSH1 0x40 MLOAD PUSH1 0x1 PUSH1 0x1 PUSH1 0xA0 SHL SUB DUP3 AND SWAP1 PUSH32 0xED9C8AD8D5A0A66898EA49D2956929C93AE2E8BD50281B2ED897C5D1A6737E0B SWAP1 PUSH1 0x0 SWAP1 LOG2 POP JUMP JUMPDEST PUSH2 0x27F PUSH2 0x338 JUMP JUMPDEST PUSH1 0x1 PUSH1 0x1 PUSH1 0xA0 SHL SUB DUP2 AND PUSH2 0x2A9 JUMPI PUSH1 0x40 MLOAD PUSH4 0x1E4FBDF7 PUSH1 0xE0 SHL DUP2 MSTORE PUSH1 0x0 PUSH1 0x4 DUP3 ADD MSTORE PUSH1 0x24 ADD PUSH2 0x18C JUMP JUMPDEST PUSH2 0x2B2 DUP2 PUSH2 0x393 JUMP JUMPDEST POP JUMP JUMPDEST PUSH1 0x0 PUSH1 0x1 PUSH1 0x1 PUSH1 0xA0 SHL SUB DUP3 AND PUSH2 0x318 JUMPI PUSH1 0x40 MLOAD PUSH3 0x461BCD PUSH1 0xE5 SHL DUP2 MSTORE PUSH1 0x20 PUSH1 0x4 DUP3 ADD MSTORE PUSH1 0x22 PUSH1 0x24 DUP3 ADD MSTORE PUSH32 0x526F6C65733A206163636F756E7420697320746865207A65726F206164647265 PUSH1 0x44 DUP3 ADD MSTORE PUSH2 0x7373 PUSH1 0xF0 SHL PUSH1 0x64 DUP3 ADD MSTORE PUSH1 0x84 ADD PUSH2 0x18C JUMP JUMPDEST POP PUSH1 0x1 PUSH1 0x1 PUSH1 0xA0 SHL SUB AND PUSH1 0x0 SWAP1 DUP2 MSTORE PUSH1 0x20 SWAP2 SWAP1 SWAP2 MSTORE PUSH1 0x40 SWAP1 KECCAK256 SLOAD PUSH1 0xFF AND SWAP1 JUMP JUMPDEST CALLER PUSH2 0x36A PUSH32 0x9016D09D72D40FDAE2FD8CEAC6B6234C7706214FD39C1CD1E609A0528C199300 SLOAD PUSH1 0x1 PUSH1 0x1 PUSH1 0xA0 SHL SUB AND SWAP1 JUMP JUMPDEST PUSH1 0x1 PUSH1 0x1 PUSH1 0xA0 SHL SUB AND EQ PUSH2 0x130 JUMPI PUSH1 0x40 MLOAD PUSH4 0x118CDAA7 PUSH1 0xE0 SHL DUP2 MSTORE CALLER PUSH1 0x4 DUP3 ADD MSTORE PUSH1 0x24 ADD PUSH2 0x18C JUMP JUMPDEST PUSH32 0x9016D09D72D40FDAE2FD8CEAC6B6234C7706214FD39C1CD1E609A0528C199300 DUP1 SLOAD PUSH1 0x1 PUSH1 0x1 PUSH1 0xA0 SHL SUB NOT DUP2 AND PUSH1 0x1 PUSH1 0x1 PUSH1 0xA0 SHL SUB DUP5 DUP2 AND SWAP2 DUP3 OR DUP5 SSTORE PUSH1 0x40 MLOAD SWAP3 AND SWAP2 DUP3 SWAP1 PUSH32 0x8BE0079C531659141344CD1FD0A4F28419497F9722A3DAAFE3B4186F6B6457E0 SWAP1 PUSH1 0x0 SWAP1 LOG3 POP POP POP JUMP JUMPDEST PUSH2 0x40E DUP3 DUP3 PUSH2 0x2B5 JUMP JUMPDEST ISZERO PUSH2 0x45B JUMPI PUSH1 0x40 MLOAD PUSH3 0x461BCD PUSH1 0xE5 SHL DUP2 MSTORE PUSH1 0x20 PUSH1 0x4 DUP3 ADD MSTORE PUSH1 0x1F PUSH1 0x24 DUP3 ADD MSTORE PUSH32 0x526F6C65733A206163636F756E7420616C72656164792068617320726F6C6500 PUSH1 0x44 DUP3 ADD MSTORE PUSH1 0x64 ADD PUSH2 0x18C JUMP JUMPDEST PUSH1 0x1 PUSH1 0x1 PUSH1 0xA0 SHL SUB AND PUSH1 0x0 SWAP1 DUP2 MSTORE PUSH1 0x20 SWAP2 SWAP1 SWAP2 MSTORE PUSH1 0x40 SWAP1 KECCAK256 DUP1 SLOAD PUSH1 0xFF NOT AND PUSH1 0x1 OR SWAP1 SSTORE JUMP JUMPDEST PUSH2 0x48A DUP3 DUP3 PUSH2 0x2B5 JUMP JUMPDEST PUSH2 0x4E0 JUMPI PUSH1 0x40 MLOAD PUSH3 0x461BCD PUSH1 0xE5 SHL DUP2 MSTORE PUSH1 0x20 PUSH1 0x4 DUP3 ADD MSTORE PUSH1 0x21 PUSH1 0x24 DUP3 ADD MSTORE PUSH32 0x526F6C65733A206163636F756E7420646F6573206E6F74206861766520726F6C PUSH1 0x44 DUP3 ADD MSTORE PUSH1 0x65 PUSH1 0xF8 SHL PUSH1 0x64 DUP3 ADD MSTORE PUSH1 0x84 ADD PUSH2 0x18C JUMP JUMPDEST PUSH1 0x1 PUSH1 0x1 PUSH1 0xA0 SHL SUB AND PUSH1 0x0 SWAP1 DUP2 MSTORE PUSH1 0x20 SWAP2 SWAP1 SWAP2 MSTORE PUSH1 0x40 SWAP1 KECCAK256 DUP1 SLOAD PUSH1 0xFF NOT AND SWAP1 SSTORE JUMP JUMPDEST PUSH1 0x0 PUSH1 0x20 DUP3 DUP5 SUB SLT ISZERO PUSH2 0x514 JUMPI PUSH1 0x0 DUP1 REVERT JUMPDEST DUP2 CALLDATALOAD PUSH1 0x1 PUSH1 0x1 PUSH1 0xA0 SHL SUB DUP2 AND DUP2 EQ PUSH2 0x52B JUMPI PUSH1 0x0 DUP1 REVERT JUMPDEST SWAP4 SWAP3 POP POP POP JUMP INVALID LOG2 PUSH5 0x6970667358 0x22 SLT KECCAK256 TIMESTAMP 0xEB 0xB2 PUSH9 0xCB51D27193F6115D1 PUSH7 0x97B50A50219E49 0xD EXP PUSH12 0xE5B383D9FEC26D0A64736F6C PUSH4 0x43000811 STOP CALLER "
				},
				"gasEstimates": {
					"creation": {
						"codeDepositCost": "276800",
						"executionCost": "318",
						"totalCost": "277118"
					},
					"external": {
						"addAgent(address)": "30323",
						"isAgent(address)": "2582",
						"owner()": "2345",
						"removeAgent(address)": "30358",
						"renounceOwnership()": "infinite",
						"transferOwnership(address)": "28421"
					}
				},
				"methodIdentifiers": {
					"addAgent(address)": "84e79842",
					"isAgent(address)": "1ffbb064",
					"owner()": "8da5cb5b",
					"removeAgent(address)": "97a6278e",
					"renounceOwnership()": "715018a6",
					"transferOwnership(address)": "f2fde38b"
				}
			},
			"storageLayout": {
				"storage": [
					{
						"astId": 1344,
						"contract": "contracts t-rex/roles/AgentRoleUpgradeable.sol:AgentRoleUpgradeable",
						"label": "_agents",
						"offset": 0,
						"slot": "0",
						"type": "t_struct(Role)1442_storage"
					}
				],
				"types": {
					"t_address": {
						"encoding": "inplace",
						"label": "address",
						"numberOfBytes": "20"
					},
					"t_bool": {
						"encoding": "inplace",
						"label": "bool",
						"numberOfBytes": "1"
					},
					"t_mapping(t_address,t_bool)": {
						"encoding": "mapping",
						"key": "t_address",
						"label": "mapping(address => bool)",
						"numberOfBytes": "32",
						"value": "t_bool"
					},
					"t_struct(Role)1442_storage": {
						"encoding": "inplace",
						"label": "struct Roles.Role",
						"members": [
							{
								"astId": 1441,
								"contract": "contracts t-rex/roles/AgentRoleUpgradeable.sol:AgentRoleUpgradeable",
								"label": "bearer",
								"offset": 0,
								"slot": "0",
								"type": "t_mapping(t_address,t_bool)"
							}
						],
						"numberOfBytes": "32"
					}
				}
			},
			"userdoc": {
				"kind": "user",
				"methods": {},
				"version": 1
			}
		}
	}
}