{
	"contracts t-rex/registry/implementation/IdentityRegistry.sol": {
		"IdentityRegistry": {
			"abi": [
				{
					"inputs": [],
					"name": "InvalidInitialization",
					"type": "error"
				},
				{
					"inputs": [],
					"name": "NotInitializing",
					"type": "error"
				},
				{
					"inputs": [
						{
							"internalType": "address",
							"name": "owner",
							"type": "address"
						}
					],
					"name": "OwnableInvalidOwner",
					"type": "error"
				},
				{
					"inputs": [
						{
							"internalType": "address",
							"name": "account",
							"type": "address"
						}
					],
					"name": "OwnableUnauthorizedAccount",
					"type": "error"
				},
				{
					"anonymous": false,
					"inputs": [
						{
							"indexed": true,
							"internalType": "address",
							"name": "_agent",
							"type": "address"
						}
					],
					"name": "AgentAdded",
					"type": "event"
				},
				{
					"anonymous": false,
					"inputs": [
						{
							"indexed": true,
							"internalType": "address",
							"name": "_agent",
							"type": "address"
						}
					],
					"name": "AgentRemoved",
					"type": "event"
				},
				{
					"anonymous": false,
					"inputs": [
						{
							"indexed": true,
							"internalType": "address",
							"name": "claimTopicsRegistry",
							"type": "address"
						}
					],
					"name": "ClaimTopicsRegistrySet",
					"type": "event"
				},
				{
					"anonymous": false,
					"inputs": [
						{
							"indexed": true,
							"internalType": "address",
							"name": "investorAddress",
							"type": "address"
						},
						{
							"indexed": true,
							"internalType": "uint16",
							"name": "country",
							"type": "uint16"
						}
					],
					"name": "CountryUpdated",
					"type": "event"
				},
				{
					"anonymous": false,
					"inputs": [
						{
							"indexed": true,
							"internalType": "address",
							"name": "investorAddress",
							"type": "address"
						},
						{
							"indexed": true,
							"internalType": "contract IIdentity",
							"name": "identity",
							"type": "address"
						}
					],
					"name": "IdentityRegistered",
					"type": "event"
				},
				{
					"anonymous": false,
					"inputs": [
						{
							"indexed": true,
							"internalType": "address",
							"name": "investorAddress",
							"type": "address"
						},
						{
							"indexed": true,
							"internalType": "contract IIdentity",
							"name": "identity",
							"type": "address"
						}
					],
					"name": "IdentityRemoved",
					"type": "event"
				},
				{
					"anonymous": false,
					"inputs": [
						{
							"indexed": true,
							"internalType": "address",
							"name": "identityStorage",
							"type": "address"
						}
					],
					"name": "IdentityStorageSet",
					"type": "event"
				},
				{
					"anonymous": false,
					"inputs": [
						{
							"indexed": true,
							"internalType": "contract IIdentity",
							"name": "oldIdentity",
							"type": "address"
						},
						{
							"indexed": true,
							"internalType": "contract IIdentity",
							"name": "newIdentity",
							"type": "address"
						}
					],
					"name": "IdentityUpdated",
					"type": "event"
				},
				{
					"anonymous": false,
					"inputs": [
						{
							"indexed": false,
							"internalType": "uint64",
							"name": "version",
							"type": "uint64"
						}
					],
					"name": "Initialized",
					"type": "event"
				},
				{
					"anonymous": false,
					"inputs": [
						{
							"indexed": true,
							"internalType": "address",
							"name": "previousOwner",
							"type": "address"
						},
						{
							"indexed": true,
							"internalType": "address",
							"name": "newOwner",
							"type": "address"
						}
					],
					"name": "OwnershipTransferred",
					"type": "event"
				},
				{
					"anonymous": false,
					"inputs": [
						{
							"indexed": true,
							"internalType": "address",
							"name": "trustedIssuersRegistry",
							"type": "address"
						}
					],
					"name": "TrustedIssuersRegistrySet",
					"type": "event"
				},
				{
					"inputs": [
						{
							"internalType": "address",
							"name": "_agent",
							"type": "address"
						}
					],
					"name": "addAgent",
					"outputs": [],
					"stateMutability": "nonpayable",
					"type": "function"
				},
				{
					"inputs": [
						{
							"internalType": "address[]",
							"name": "_userAddresses",
							"type": "address[]"
						},
						{
							"internalType": "contract IIdentity[]",
							"name": "_identities",
							"type": "address[]"
						},
						{
							"internalType": "uint16[]",
							"name": "_countries",
							"type": "uint16[]"
						}
					],
					"name": "batchRegisterIdentity",
					"outputs": [],
					"stateMutability": "nonpayable",
					"type": "function"
				},
				{
					"inputs": [
						{
							"internalType": "address",
							"name": "_userAddress",
							"type": "address"
						}
					],
					"name": "contains",
					"outputs": [
						{
							"internalType": "bool",
							"name": "",
							"type": "bool"
						}
					],
					"stateMutability": "view",
					"type": "function"
				},
				{
					"inputs": [
						{
							"internalType": "address",
							"name": "_userAddress",
							"type": "address"
						}
					],
					"name": "deleteIdentity",
					"outputs": [],
					"stateMutability": "nonpayable",
					"type": "function"
				},
				{
					"inputs": [
						{
							"internalType": "address",
							"name": "_userAddress",
							"type": "address"
						}
					],
					"name": "identity",
					"outputs": [
						{
							"internalType": "contract IIdentity",
							"name": "",
							"type": "address"
						}
					],
					"stateMutability": "view",
					"type": "function"
				},
				{
					"inputs": [],
					"name": "identityStorage",
					"outputs": [
						{
							"internalType": "contract IIdentityRegistryStorage",
							"name": "",
							"type": "address"
						}
					],
					"stateMutability": "view",
					"type": "function"
				},
				{
					"inputs": [
						{
							"internalType": "address",
							"name": "_trustedIssuersRegistry",
							"type": "address"
						},
						{
							"internalType": "address",
							"name": "_claimTopicsRegistry",
							"type": "address"
						},
						{
							"internalType": "address",
							"name": "_identityStorage",
							"type": "address"
						}
					],
					"name": "init",
					"outputs": [],
					"stateMutability": "nonpayable",
					"type": "function"
				},
				{
					"inputs": [
						{
							"internalType": "address",
							"name": "_userAddress",
							"type": "address"
						}
					],
					"name": "investorCountry",
					"outputs": [
						{
							"internalType": "uint16",
							"name": "",
							"type": "uint16"
						}
					],
					"stateMutability": "view",
					"type": "function"
				},
				{
					"inputs": [
						{
							"internalType": "address",
							"name": "_agent",
							"type": "address"
						}
					],
					"name": "isAgent",
					"outputs": [
						{
							"internalType": "bool",
							"name": "",
							"type": "bool"
						}
					],
					"stateMutability": "view",
					"type": "function"
				},
				{
					"inputs": [
						{
							"internalType": "address",
							"name": "_userAddress",
							"type": "address"
						}
					],
					"name": "isVerified",
					"outputs": [
						{
							"internalType": "bool",
							"name": "",
							"type": "bool"
						}
					],
					"stateMutability": "view",
					"type": "function"
				},
				{
					"inputs": [],
					"name": "issuersRegistry",
					"outputs": [
						{
							"internalType": "contract ITrustedIssuersRegistry",
							"name": "",
							"type": "address"
						}
					],
					"stateMutability": "view",
					"type": "function"
				},
				{
					"inputs": [],
					"name": "owner",
					"outputs": [
						{
							"internalType": "address",
							"name": "",
							"type": "address"
						}
					],
					"stateMutability": "view",
					"type": "function"
				},
				{
					"inputs": [
						{
							"internalType": "address",
							"name": "_userAddress",
							"type": "address"
						},
						{
							"internalType": "contract IIdentity",
							"name": "_identity",
							"type": "address"
						},
						{
							"internalType": "uint16",
							"name": "_country",
							"type": "uint16"
						}
					],
					"name": "registerIdentity",
					"outputs": [],
					"stateMutability": "nonpayable",
					"type": "function"
				},
				{
					"inputs": [
						{
							"internalType": "address",
							"name": "_agent",
							"type": "address"
						}
					],
					"name": "removeAgent",
					"outputs": [],
					"stateMutability": "nonpayable",
					"type": "function"
				},
				{
					"inputs": [],
					"name": "renounceOwnership",
					"outputs": [],
					"stateMutability": "nonpayable",
					"type": "function"
				},
				{
					"inputs": [
						{
							"internalType": "address",
							"name": "_claimTopicsRegistry",
							"type": "address"
						}
					],
					"name": "setClaimTopicsRegistry",
					"outputs": [],
					"stateMutability": "nonpayable",
					"type": "function"
				},
				{
					"inputs": [
						{
							"internalType": "address",
							"name": "_identityRegistryStorage",
							"type": "address"
						}
					],
					"name": "setIdentityRegistryStorage",
					"outputs": [],
					"stateMutability": "nonpayable",
					"type": "function"
				},
				{
					"inputs": [
						{
							"internalType": "address",
							"name": "_trustedIssuersRegistry",
							"type": "address"
						}
					],
					"name": "setTrustedIssuersRegistry",
					"outputs": [],
					"stateMutability": "nonpayable",
					"type": "function"
				},
				{
					"inputs": [],
					"name": "topicsRegistry",
					"outputs": [
						{
							"internalType": "contract IClaimTopicsRegistry",
							"name": "",
							"type": "address"
						}
					],
					"stateMutability": "view",
					"type": "function"
				},
				{
					"inputs": [
						{
							"internalType": "address",
							"name": "newOwner",
							"type": "address"
						}
					],
					"name": "transferOwnership",
					"outputs": [],
					"stateMutability": "nonpayable",
					"type": "function"
				},
				{
					"inputs": [
						{
							"internalType": "address",
							"name": "_userAddress",
							"type": "address"
						},
						{
							"internalType": "uint16",
							"name": "_country",
							"type": "uint16"
						}
					],
					"name": "updateCountry",
					"outputs": [],
					"stateMutability": "nonpayable",
					"type": "function"
				},
				{
					"inputs": [
						{
							"internalType": "address",
							"name": "_userAddress",
							"type": "address"
						},
						{
							"internalType": "contract IIdentity",
							"name": "_identity",
							"type": "address"
						}
					],
					"name": "updateIdentity",
					"outputs": [],
					"stateMutability": "nonpayable",
					"type": "function"
				}
			],
			"devdoc": {
				"errors": {
					"InvalidInitialization()": [
						{
							"details": "The contract is already initialized."
						}
					],
					"NotInitializing()": [
						{
							"details": "The contract is not initializing."
						}
					],
					"OwnableInvalidOwner(address)": [
						{
							"details": "The owner is not a valid owner account. (eg. `address(0)`)"
						}
					],
					"OwnableUnauthorizedAccount(address)": [
						{
							"details": "The caller account is not authorized to perform an operation."
						}
					]
				},
				"kind": "dev",
				"methods": {
					"batchRegisterIdentity(address[],address[],uint16[])": {
						"details": "See {IIdentityRegistry-batchRegisterIdentity}."
					},
					"contains(address)": {
						"details": "See {IIdentityRegistry-contains}."
					},
					"deleteIdentity(address)": {
						"details": "See {IIdentityRegistry-deleteIdentity}."
					},
					"identity(address)": {
						"details": "See {IIdentityRegistry-identity}."
					},
					"identityStorage()": {
						"details": "See {IIdentityRegistry-identityStorage}."
					},
					"init(address,address,address)": {
						"details": "the constructor initiates the Identity Registry smart contract",
						"params": {
							"_claimTopicsRegistry": "the claim topics registry linked to the Identity Registry",
							"_identityStorage": "the identity registry storage linked to the Identity Registry  emits a `ClaimTopicsRegistrySet` event  emits a `TrustedIssuersRegistrySet` event  emits an `IdentityStorageSet` event",
							"_trustedIssuersRegistry": "the trusted issuers registry linked to the Identity Registry"
						}
					},
					"investorCountry(address)": {
						"details": "See {IIdentityRegistry-investorCountry}."
					},
					"isVerified(address)": {
						"details": "See {IIdentityRegistry-isVerified}."
					},
					"issuersRegistry()": {
						"details": "See {IIdentityRegistry-issuersRegistry}."
					},
					"owner()": {
						"details": "Returns the address of the current owner."
					},
					"registerIdentity(address,address,uint16)": {
						"details": "See {IIdentityRegistry-registerIdentity}."
					},
					"renounceOwnership()": {
						"details": "Leaves the contract without owner. It will not be possible to call `onlyOwner` functions. Can only be called by the current owner. NOTE: Renouncing ownership will leave the contract without an owner, thereby disabling any functionality that is only available to the owner."
					},
					"setClaimTopicsRegistry(address)": {
						"details": "See {IIdentityRegistry-setClaimTopicsRegistry}."
					},
					"setIdentityRegistryStorage(address)": {
						"details": "See {IIdentityRegistry-setIdentityRegistryStorage}."
					},
					"setTrustedIssuersRegistry(address)": {
						"details": "See {IIdentityRegistry-setTrustedIssuersRegistry}."
					},
					"topicsRegistry()": {
						"details": "See {IIdentityRegistry-topicsRegistry}."
					},
					"transferOwnership(address)": {
						"details": "Transfers ownership of the contract to a new account (`newOwner`). Can only be called by the current owner."
					},
					"updateCountry(address,uint16)": {
						"details": "See {IIdentityRegistry-updateCountry}."
					},
					"updateIdentity(address,address)": {
						"details": "See {IIdentityRegistry-updateIdentity}."
					}
				},
				"version": 1
			},
			"evm": {
				"assembly": "    /* \"contracts t-rex/registry/implementation/IdentityRegistry.sol\":4256:12056  contract IdentityRegistry is IIdentityRegistry, AgentRoleUpgradeable, IRStorage {... */\n  mstore(0x40, 0x80)\n  callvalue\n  dup1\n  iszero\n  tag_1\n  jumpi\n  0x00\n  dup1\n  revert\ntag_1:\n  pop\n  dataSize(sub_0)\n  dup1\n  dataOffset(sub_0)\n  0x00\n  codecopy\n  0x00\n  return\nstop\n\nsub_0: assembly {\n        /* \"contracts t-rex/registry/implementation/IdentityRegistry.sol\":4256:12056  contract IdentityRegistry is IIdentityRegistry, AgentRoleUpgradeable, IRStorage {... */\n      mstore(0x40, 0x80)\n      callvalue\n      dup1\n      iszero\n      tag_1\n      jumpi\n      0x00\n      dup1\n      revert\n    tag_1:\n      pop\n      jumpi(tag_2, lt(calldatasize, 0x04))\n      shr(0xe0, calldataload(0x00))\n      dup1\n      0x84e79842\n      gt\n      tag_25\n      jumpi\n      dup1\n      0xb4f3fcb7\n      gt\n      tag_26\n      jumpi\n      dup1\n      0xb4f3fcb7\n      eq\n      tag_19\n      jumpi\n      dup1\n      0xb9209e33\n      eq\n      tag_20\n      jumpi\n      dup1\n      0xe744d789\n      eq\n      tag_21\n      jumpi\n      dup1\n      0xf0eb5e54\n      eq\n      tag_22\n      jumpi\n      dup1\n      0xf11abfd8\n      eq\n      tag_23\n      jumpi\n      dup1\n      0xf2fde38b\n      eq\n      tag_24\n      jumpi\n      0x00\n      dup1\n      revert\n    tag_26:\n      dup1\n      0x84e79842\n      eq\n      tag_14\n      jumpi\n      dup1\n      0x8da5cb5b\n      eq\n      tag_15\n      jumpi\n      dup1\n      0x8e098ca1\n      eq\n      tag_16\n      jumpi\n      dup1\n      0x97a6278e\n      eq\n      tag_17\n      jumpi\n      dup1\n      0xa8d29d1d\n      eq\n      tag_18\n      jumpi\n      0x00\n      dup1\n      revert\n    tag_25:\n      dup1\n      0x454a03e0\n      gt\n      tag_27\n      jumpi\n      dup1\n      0x454a03e0\n      eq\n      tag_8\n      jumpi\n      dup1\n      0x5dbe47e8\n      eq\n      tag_9\n      jumpi\n      dup1\n      0x653dc9f1\n      eq\n      tag_10\n      jumpi\n      dup1\n      0x670af6a9\n      eq\n      tag_11\n      jumpi\n      dup1\n      0x715018a6\n      eq\n      tag_12\n      jumpi\n      dup1\n      0x7e42683b\n      eq\n      tag_13\n      jumpi\n      0x00\n      dup1\n      revert\n    tag_27:\n      dup1\n      0x184b9559\n      eq\n      tag_3\n      jumpi\n      dup1\n      0x1ffbb064\n      eq\n      tag_4\n      jumpi\n      dup1\n      0x26d941ae\n      eq\n      tag_5\n      jumpi\n      dup1\n      0x3b239a7f\n      eq\n      tag_6\n      jumpi\n      dup1\n      0x3b3e12f4\n      eq\n      tag_7\n      jumpi\n    tag_2:\n      0x00\n      dup1\n      revert\n        /* \"contracts t-rex/registry/implementation/IdentityRegistry.sol\":4864:5678  function init(... */\n    tag_3:\n      tag_28\n      tag_29\n      calldatasize\n      0x04\n      tag_30\n      jump\t// in\n    tag_29:\n      tag_31\n      jump\t// in\n    tag_28:\n      stop\n        /* \"contracts t-rex/roles/AgentRoleUpgradeable.sol\":4703:4806  function isAgent(address _agent) public view returns (bool) {... */\n    tag_4:\n      tag_32\n      tag_33\n      calldatasize\n      0x04\n      tag_34\n      jump\t// in\n    tag_33:\n      tag_35\n      jump\t// in\n    tag_32:\n      mload(0x40)\n        /* \"#utility.yul\":1101:1115   */\n      swap1\n      iszero\n        /* \"#utility.yul\":1094:1116   */\n      iszero\n        /* \"#utility.yul\":1076:1117   */\n      dup2\n      mstore\n        /* \"#utility.yul\":1064:1066   */\n      0x20\n        /* \"#utility.yul\":1049:1067   */\n      add\n        /* \"contracts t-rex/roles/AgentRoleUpgradeable.sol\":4703:4806  function isAgent(address _agent) public view returns (bool) {... */\n    tag_36:\n      mload(0x40)\n      dup1\n      swap2\n      sub\n      swap1\n      return\n        /* \"contracts t-rex/registry/implementation/IdentityRegistry.sol\":7195:7443  function setIdentityRegistryStorage(address _identityRegistryStorage) external override onlyOwner {... */\n    tag_5:\n      tag_28\n      tag_39\n      calldatasize\n      0x04\n      tag_34\n      jump\t// in\n    tag_39:\n      tag_40\n      jump\t// in\n        /* \"contracts t-rex/registry/implementation/IdentityRegistry.sol\":6535:6768  function updateCountry(address _userAddress, uint16 _country) external override onlyAgent {... */\n    tag_6:\n      tag_28\n      tag_42\n      calldatasize\n      0x04\n      tag_43\n      jump\t// in\n    tag_42:\n      tag_44\n      jump\t// in\n        /* \"contracts t-rex/registry/implementation/IdentityRegistry.sol\":10857:10981  function topicsRegistry() external view override returns (IClaimTopicsRegistry) {... */\n    tag_7:\n        /* \"contracts t-rex/registry/implementation/IdentityRegistry.sol\":10954:10974  _tokenTopicsRegistry */\n      and(sub(shl(0xa0, 0x01), 0x01), sload(0x01))\n        /* \"contracts t-rex/registry/implementation/IdentityRegistry.sol\":10857:10981  function topicsRegistry() external view override returns (IClaimTopicsRegistry) {... */\n    tag_45:\n      mload(0x40)\n      sub(shl(0xa0, 0x01), 0x01)\n        /* \"#utility.yul\":1834:1866   */\n      swap1\n      swap2\n      and\n        /* \"#utility.yul\":1816:1867   */\n      dup2\n      mstore\n        /* \"#utility.yul\":1804:1806   */\n      0x20\n        /* \"#utility.yul\":1789:1807   */\n      add\n        /* \"contracts t-rex/registry/implementation/IdentityRegistry.sol\":10857:10981  function topicsRegistry() external view override returns (IClaimTopicsRegistry) {... */\n      tag_36\n        /* \"#utility.yul\":1641:1873   */\n      jump\n        /* \"contracts t-rex/registry/implementation/IdentityRegistry.sol\":11536:11830  function registerIdentity(... */\n    tag_8:\n      tag_28\n      tag_50\n      calldatasize\n      0x04\n      tag_51\n      jump\t// in\n    tag_50:\n      tag_52\n      jump\t// in\n        /* \"contracts t-rex/registry/implementation/IdentityRegistry.sol\":11256:11459  function contains(address _userAddress) external view override returns (bool) {... */\n    tag_9:\n      tag_32\n      tag_54\n      calldatasize\n      0x04\n      tag_34\n      jump\t// in\n    tag_54:\n      tag_55\n      jump\t// in\n        /* \"contracts t-rex/registry/implementation/IdentityRegistry.sol\":5760:6097  function batchRegisterIdentity(... */\n    tag_10:\n      tag_28\n      tag_58\n      calldatasize\n      0x04\n      tag_59\n      jump\t// in\n    tag_58:\n      tag_60\n      jump\t// in\n        /* \"contracts t-rex/registry/implementation/IdentityRegistry.sol\":7526:7757  function setClaimTopicsRegistry(address _claimTopicsRegistry) external override onlyOwner {... */\n    tag_11:\n      tag_28\n      tag_62\n      calldatasize\n      0x04\n      tag_34\n      jump\t// in\n    tag_62:\n      tag_63\n      jump\t// in\n        /* \"@openzeppelin/contracts-upgradeable/access/OwnableUpgradeable.sol\":3165:3266  function renounceOwnership() public virtual onlyOwner {... */\n    tag_12:\n      tag_28\n      tag_65\n      jump\t// in\n        /* \"contracts t-rex/registry/implementation/IdentityRegistry.sol\":10409:10577  function investorCountry(address _userAddress) external view override returns (uint16) {... */\n    tag_13:\n      tag_66\n      tag_67\n      calldatasize\n      0x04\n      tag_34\n      jump\t// in\n    tag_67:\n      tag_68\n      jump\t// in\n    tag_66:\n      mload(0x40)\n        /* \"#utility.yul\":4082:4088   */\n      0xffff\n        /* \"#utility.yul\":4070:4089   */\n      swap1\n      swap2\n      and\n        /* \"#utility.yul\":4052:4090   */\n      dup2\n      mstore\n        /* \"#utility.yul\":4040:4042   */\n      0x20\n        /* \"#utility.yul\":4025:4043   */\n      add\n        /* \"contracts t-rex/registry/implementation/IdentityRegistry.sol\":10409:10577  function investorCountry(address _userAddress) external view override returns (uint16) {... */\n      tag_36\n        /* \"#utility.yul\":3908:4096   */\n      jump\n        /* \"contracts t-rex/roles/AgentRoleUpgradeable.sol\":4295:4489  function addAgent(address _agent) public onlyOwner {... */\n    tag_14:\n      tag_28\n      tag_72\n      calldatasize\n      0x04\n      tag_34\n      jump\t// in\n    tag_72:\n      tag_73\n      jump\t// in\n        /* \"@openzeppelin/contracts-upgradeable/access/OwnableUpgradeable.sol\":2451:2595  function owner() public view virtual returns (address) {... */\n    tag_15:\n        /* \"@openzeppelin/contracts-upgradeable/access/OwnableUpgradeable.sol\":1323:1345  OwnableStorageLocation */\n      0x9016d09d72d40fdae2fd8ceac6b6234c7706214fd39c1cd1e609a0528c199300\n        /* \"@openzeppelin/contracts-upgradeable/access/OwnableUpgradeable.sol\":2580:2588  $._owner */\n      sload\n      sub(shl(0xa0, 0x01), 0x01)\n      and\n        /* \"@openzeppelin/contracts-upgradeable/access/OwnableUpgradeable.sol\":2451:2595  function owner() public view virtual returns (address) {... */\n      jump(tag_45)\n        /* \"contracts t-rex/registry/implementation/IdentityRegistry.sol\":6172:6461  function updateIdentity(address _userAddress, IIdentity _identity) external override onlyAgent {... */\n    tag_16:\n      tag_28\n      tag_79\n      calldatasize\n      0x04\n      tag_80\n      jump\t// in\n    tag_79:\n      tag_81\n      jump\t// in\n        /* \"contracts t-rex/roles/AgentRoleUpgradeable.sol\":4495:4697  function removeAgent(address _agent) public onlyOwner {... */\n    tag_17:\n      tag_28\n      tag_83\n      calldatasize\n      0x04\n      tag_34\n      jump\t// in\n    tag_83:\n      tag_84\n      jump\t// in\n        /* \"contracts t-rex/registry/implementation/IdentityRegistry.sol\":6843:7108  function deleteIdentity(address _userAddress) external override onlyAgent {... */\n    tag_18:\n      tag_28\n      tag_86\n      calldatasize\n      0x04\n      tag_34\n      jump\t// in\n    tag_86:\n      tag_87\n      jump\t// in\n        /* \"contracts t-rex/registry/implementation/IdentityRegistry.sol\":10653:10782  function issuersRegistry() external view override returns (ITrustedIssuersRegistry) {... */\n    tag_19:\n        /* \"contracts t-rex/registry/implementation/IdentityRegistry.sol\":10754:10775  _tokenIssuersRegistry */\n      and(sub(shl(0xa0, 0x01), 0x01), sload(0x02))\n        /* \"contracts t-rex/registry/implementation/IdentityRegistry.sol\":10653:10782  function issuersRegistry() external view override returns (ITrustedIssuersRegistry) {... */\n      jump(tag_45)\n        /* \"contracts t-rex/registry/implementation/IdentityRegistry.sol\":8213:10333  function isVerified(address _userAddress) external view override returns (bool) {... */\n    tag_20:\n      tag_32\n      tag_93\n      calldatasize\n      0x04\n      tag_34\n      jump\t// in\n    tag_93:\n      tag_94\n      jump\t// in\n        /* \"contracts t-rex/registry/implementation/IdentityRegistry.sol\":7843:8093  function setTrustedIssuersRegistry(address _trustedIssuersRegistry) external override onlyOwner {... */\n    tag_21:\n      tag_28\n      tag_97\n      calldatasize\n      0x04\n      tag_34\n      jump\t// in\n    tag_97:\n      tag_98\n      jump\t// in\n        /* \"contracts t-rex/registry/implementation/IdentityRegistry.sol\":11899:12054  function identity(address _userAddress) public view override returns (IIdentity) {... */\n    tag_22:\n      tag_45\n      tag_100\n      calldatasize\n      0x04\n      tag_34\n      jump\t// in\n    tag_100:\n      tag_101\n      jump\t// in\n        /* \"contracts t-rex/registry/implementation/IdentityRegistry.sol\":11057:11187  function identityStorage() external view override returns (IIdentityRegistryStorage) {... */\n    tag_23:\n        /* \"contracts t-rex/registry/implementation/IdentityRegistry.sol\":11159:11180  _tokenIdentityStorage */\n      and(sub(shl(0xa0, 0x01), 0x01), sload(0x03))\n        /* \"contracts t-rex/registry/implementation/IdentityRegistry.sol\":11057:11187  function identityStorage() external view override returns (IIdentityRegistryStorage) {... */\n      jump(tag_45)\n        /* \"@openzeppelin/contracts-upgradeable/access/OwnableUpgradeable.sol\":3415:3630  function transferOwnership(address newOwner) public virtual onlyOwner {... */\n    tag_24:\n      tag_28\n      tag_109\n      calldatasize\n      0x04\n      tag_34\n      jump\t// in\n    tag_109:\n      tag_110\n      jump\t// in\n        /* \"contracts t-rex/registry/implementation/IdentityRegistry.sol\":4864:5678  function init(... */\n    tag_31:\n        /* \"@openzeppelin/contracts-upgradeable/proxy/utils/Initializable.sol\":8870:8891  INITIALIZABLE_STORAGE */\n      0xf0c57e16840df040f15088dc2f81fe391c3923bec73e23a9662efc9c229c6a00\n        /* \"@openzeppelin/contracts-upgradeable/proxy/utils/Initializable.sol\":4302:4317  $._initializing */\n      dup1\n      sload\n      shl(0x40, 0x01)\n      dup2\n      div\n      0xff\n      and\n        /* \"@openzeppelin/contracts-upgradeable/proxy/utils/Initializable.sol\":4301:4317  !$._initializing */\n      iszero\n      swap1\n        /* \"@openzeppelin/contracts-upgradeable/proxy/utils/Initializable.sol\":4348:4362  $._initialized */\n      0xffffffffffffffff\n      and\n        /* \"@openzeppelin/contracts-upgradeable/proxy/utils/Initializable.sol\":4158:4188  InitializableStorage storage $ */\n      0x00\n        /* \"@openzeppelin/contracts-upgradeable/proxy/utils/Initializable.sol\":4726:4742  initialized == 0 */\n      dup2\n      iszero\n        /* \"@openzeppelin/contracts-upgradeable/proxy/utils/Initializable.sol\":4726:4760  initialized == 0 && isTopLevelCall */\n      dup1\n      iszero\n      tag_114\n      jumpi\n      pop\n        /* \"@openzeppelin/contracts-upgradeable/proxy/utils/Initializable.sol\":4746:4760  isTopLevelCall */\n      dup3\n        /* \"@openzeppelin/contracts-upgradeable/proxy/utils/Initializable.sol\":4726:4760  initialized == 0 && isTopLevelCall */\n    tag_114:\n        /* \"@openzeppelin/contracts-upgradeable/proxy/utils/Initializable.sol\":4706:4760  bool initialSetup = initialized == 0 && isTopLevelCall */\n      swap1\n      pop\n        /* \"@openzeppelin/contracts-upgradeable/proxy/utils/Initializable.sol\":4770:4787  bool construction */\n      0x00\n        /* \"@openzeppelin/contracts-upgradeable/proxy/utils/Initializable.sol\":4790:4801  initialized */\n      dup3\n        /* \"@openzeppelin/contracts-upgradeable/proxy/utils/Initializable.sol\":4790:4806  initialized == 1 */\n      0xffffffffffffffff\n      and\n        /* \"@openzeppelin/contracts-upgradeable/proxy/utils/Initializable.sol\":4805:4806  1 */\n      0x01\n        /* \"@openzeppelin/contracts-upgradeable/proxy/utils/Initializable.sol\":4790:4806  initialized == 1 */\n      eq\n        /* \"@openzeppelin/contracts-upgradeable/proxy/utils/Initializable.sol\":4790:4840  initialized == 1 && address(this).code.length == 0 */\n      dup1\n      iszero\n      tag_115\n      jumpi\n      pop\n        /* \"@openzeppelin/contracts-upgradeable/proxy/utils/Initializable.sol\":4818:4822  this */\n      address\n        /* \"@openzeppelin/contracts-upgradeable/proxy/utils/Initializable.sol\":4810:4835  address(this).code.length */\n      extcodesize\n        /* \"@openzeppelin/contracts-upgradeable/proxy/utils/Initializable.sol\":4810:4840  address(this).code.length == 0 */\n      iszero\n        /* \"@openzeppelin/contracts-upgradeable/proxy/utils/Initializable.sol\":4790:4840  initialized == 1 && address(this).code.length == 0 */\n    tag_115:\n        /* \"@openzeppelin/contracts-upgradeable/proxy/utils/Initializable.sol\":4770:4840  bool construction = initialized == 1 && address(this).code.length == 0 */\n      swap1\n      pop\n        /* \"@openzeppelin/contracts-upgradeable/proxy/utils/Initializable.sol\":4856:4868  initialSetup */\n      dup2\n        /* \"@openzeppelin/contracts-upgradeable/proxy/utils/Initializable.sol\":4855:4868  !initialSetup */\n      iszero\n        /* \"@openzeppelin/contracts-upgradeable/proxy/utils/Initializable.sol\":4855:4885  !initialSetup && !construction */\n      dup1\n      iszero\n      tag_116\n      jumpi\n      pop\n        /* \"@openzeppelin/contracts-upgradeable/proxy/utils/Initializable.sol\":4873:4885  construction */\n      dup1\n        /* \"@openzeppelin/contracts-upgradeable/proxy/utils/Initializable.sol\":4872:4885  !construction */\n      iszero\n        /* \"@openzeppelin/contracts-upgradeable/proxy/utils/Initializable.sol\":4855:4885  !initialSetup && !construction */\n    tag_116:\n        /* \"@openzeppelin/contracts-upgradeable/proxy/utils/Initializable.sol\":4851:4942  if (!initialSetup && !construction) {... */\n      iszero\n      tag_117\n      jumpi\n        /* \"@openzeppelin/contracts-upgradeable/proxy/utils/Initializable.sol\":4908:4931  InvalidInitialization() */\n      mload(0x40)\n      shl(0xe0, 0xf92ee8a9)\n      dup2\n      mstore\n      0x04\n      add\n      mload(0x40)\n      dup1\n      swap2\n      sub\n      swap1\n      revert\n        /* \"@openzeppelin/contracts-upgradeable/proxy/utils/Initializable.sol\":4851:4942  if (!initialSetup && !construction) {... */\n    tag_117:\n        /* \"@openzeppelin/contracts-upgradeable/proxy/utils/Initializable.sol\":4951:4969  $._initialized = 1 */\n      dup5\n      sload\n      not(0xffffffffffffffff)\n      and\n        /* \"@openzeppelin/contracts-upgradeable/proxy/utils/Initializable.sol\":4968:4969  1 */\n      0x01\n        /* \"@openzeppelin/contracts-upgradeable/proxy/utils/Initializable.sol\":4951:4969  $._initialized = 1 */\n      or\n      dup6\n      sstore\n        /* \"@openzeppelin/contracts-upgradeable/proxy/utils/Initializable.sol\":4979:5046  if (isTopLevelCall) {... */\n      dup4\n      iszero\n      tag_118\n      jumpi\n        /* \"@openzeppelin/contracts-upgradeable/proxy/utils/Initializable.sol\":5013:5035  $._initializing = true */\n      dup5\n      sload\n      not(shl(0x40, 0xff))\n      and\n      shl(0x40, 0x01)\n      or\n      dup6\n      sstore\n        /* \"@openzeppelin/contracts-upgradeable/proxy/utils/Initializable.sol\":4979:5046  if (isTopLevelCall) {... */\n    tag_118:\n      sub(shl(0xa0, 0x01), 0x01)\n        /* \"contracts t-rex/registry/implementation/IdentityRegistry.sol\":5049:5086  _trustedIssuersRegistry != address(0) */\n      dup9\n      and\n      iszero\n      dup1\n      iszero\n      swap1\n        /* \"contracts t-rex/registry/implementation/IdentityRegistry.sol\":5049:5136  _trustedIssuersRegistry != address(0)... */\n      tag_120\n      jumpi\n      pop\n      sub(shl(0xa0, 0x01), 0x01)\n        /* \"contracts t-rex/registry/implementation/IdentityRegistry.sol\":5102:5136  _claimTopicsRegistry != address(0) */\n      dup8\n      and\n      iszero\n      iszero\n        /* \"contracts t-rex/registry/implementation/IdentityRegistry.sol\":5049:5136  _trustedIssuersRegistry != address(0)... */\n    tag_120:\n        /* \"contracts t-rex/registry/implementation/IdentityRegistry.sol\":5049:5182  _trustedIssuersRegistry != address(0)... */\n      dup1\n      iszero\n      tag_121\n      jumpi\n      pop\n      sub(shl(0xa0, 0x01), 0x01)\n        /* \"contracts t-rex/registry/implementation/IdentityRegistry.sol\":5152:5182  _identityStorage != address(0) */\n      dup7\n      and\n      iszero\n      iszero\n        /* \"contracts t-rex/registry/implementation/IdentityRegistry.sol\":5049:5182  _trustedIssuersRegistry != address(0)... */\n    tag_121:\n        /* \"contracts t-rex/registry/implementation/IdentityRegistry.sol\":5028:5227  require(... */\n      tag_122\n      jumpi\n      mload(0x40)\n      shl(0xe5, 0x461bcd)\n      dup2\n      mstore\n      0x04\n      add\n      tag_123\n      swap1\n      tag_124\n      jump\t// in\n    tag_123:\n      mload(0x40)\n      dup1\n      swap2\n      sub\n      swap1\n      revert\n    tag_122:\n        /* \"contracts t-rex/registry/implementation/IdentityRegistry.sol\":5237:5257  _tokenTopicsRegistry */\n      0x01\n        /* \"contracts t-rex/registry/implementation/IdentityRegistry.sol\":5237:5302  _tokenTopicsRegistry = IClaimTopicsRegistry(_claimTopicsRegistry) */\n      dup1\n      sload\n      sub(shl(0xa0, 0x01), 0x01)\n      dup1\n      dup11\n      and\n      not(sub(shl(0xa0, 0x01), 0x01))\n      swap3\n      dup4\n      and\n      dup2\n      or\n      swap1\n      swap4\n      sstore\n        /* \"contracts t-rex/registry/implementation/IdentityRegistry.sol\":5312:5333  _tokenIssuersRegistry */\n      0x02\n        /* \"contracts t-rex/registry/implementation/IdentityRegistry.sol\":5312:5384  _tokenIssuersRegistry = ITrustedIssuersRegistry(_trustedIssuersRegistry) */\n      dup1\n      sload\n      dup13\n      dup4\n      and\n      swap1\n      dup5\n      and\n      or\n      swap1\n      sstore\n        /* \"contracts t-rex/registry/implementation/IdentityRegistry.sol\":5394:5415  _tokenIdentityStorage */\n      0x03\n        /* \"contracts t-rex/registry/implementation/IdentityRegistry.sol\":5394:5460  _tokenIdentityStorage = IIdentityRegistryStorage(_identityStorage) */\n      dup1\n      sload\n      swap2\n      dup11\n      and\n      swap2\n      swap1\n      swap3\n      and\n      or\n      swap1\n      sstore\n        /* \"contracts t-rex/registry/implementation/IdentityRegistry.sol\":5475:5519  ClaimTopicsRegistrySet(_claimTopicsRegistry) */\n      mload(0x40)\n      0x7170bf15b246e880b2369cd7c67d057760d8a35149e8c64dde91efa22bcc76d0\n      swap1\n        /* \"contracts t-rex/registry/implementation/IdentityRegistry.sol\":5237:5257  _tokenTopicsRegistry */\n      0x00\n      swap1\n        /* \"contracts t-rex/registry/implementation/IdentityRegistry.sol\":5475:5519  ClaimTopicsRegistrySet(_claimTopicsRegistry) */\n      log2\n        /* \"contracts t-rex/registry/implementation/IdentityRegistry.sol\":5534:5584  TrustedIssuersRegistrySet(_trustedIssuersRegistry) */\n      mload(0x40)\n      sub(shl(0xa0, 0x01), 0x01)\n      dup10\n      and\n      swap1\n      0x1b98cb79e6f73020175fe87333f1b91ad6a881519c0afe30340c2599b2b4bde0\n      swap1\n      0x00\n      swap1\n      log2\n        /* \"contracts t-rex/registry/implementation/IdentityRegistry.sol\":5599:5635  IdentityStorageSet(_identityStorage) */\n      mload(0x40)\n      sub(shl(0xa0, 0x01), 0x01)\n      dup8\n      and\n      swap1\n      0x2fa8b95c1db7afe99e3398f3792f008135cedc1fa26b0bb2ecd2352cd166d53c\n      swap1\n      0x00\n      swap1\n      log2\n        /* \"contracts t-rex/registry/implementation/IdentityRegistry.sol\":5645:5671  __Ownable_init(msg.sender) */\n      tag_125\n        /* \"contracts t-rex/registry/implementation/IdentityRegistry.sol\":5660:5670  msg.sender */\n      caller\n        /* \"contracts t-rex/registry/implementation/IdentityRegistry.sol\":5645:5659  __Ownable_init */\n      tag_126\n        /* \"contracts t-rex/registry/implementation/IdentityRegistry.sol\":5645:5671  __Ownable_init(msg.sender) */\n      jump\t// in\n    tag_125:\n        /* \"@openzeppelin/contracts-upgradeable/proxy/utils/Initializable.sol\":5070:5084  isTopLevelCall */\n      dup4\n        /* \"@openzeppelin/contracts-upgradeable/proxy/utils/Initializable.sol\":5066:5167  if (isTopLevelCall) {... */\n      iszero\n      tag_127\n      jumpi\n        /* \"@openzeppelin/contracts-upgradeable/proxy/utils/Initializable.sol\":5100:5123  $._initializing = false */\n      dup5\n      sload\n      not(shl(0x40, 0xff))\n      and\n      dup6\n      sstore\n        /* \"@openzeppelin/contracts-upgradeable/proxy/utils/Initializable.sol\":5142:5156  Initialized(1) */\n      mload(0x40)\n      0x01\n        /* \"#utility.yul\":5938:5988   */\n      dup2\n      mstore\n        /* \"@openzeppelin/contracts-upgradeable/proxy/utils/Initializable.sol\":5142:5156  Initialized(1) */\n      0xc7f505b2f371ae2175ee4913f4499e1f2633a7b5936321eed1cdaeb6115181d2\n      swap1\n        /* \"#utility.yul\":5926:5928   */\n      0x20\n        /* \"#utility.yul\":5911:5929   */\n      add\n        /* \"@openzeppelin/contracts-upgradeable/proxy/utils/Initializable.sol\":5142:5156  Initialized(1) */\n      mload(0x40)\n      dup1\n      swap2\n      sub\n      swap1\n      log1\n        /* \"@openzeppelin/contracts-upgradeable/proxy/utils/Initializable.sol\":5066:5167  if (isTopLevelCall) {... */\n    tag_127:\n        /* \"@openzeppelin/contracts-upgradeable/proxy/utils/Initializable.sol\":4092:5173  {... */\n      pop\n      pop\n      pop\n      pop\n      pop\n        /* \"contracts t-rex/registry/implementation/IdentityRegistry.sol\":4864:5678  function init(... */\n      pop\n      pop\n      pop\n      jump\t// out\n        /* \"contracts t-rex/roles/AgentRoleUpgradeable.sol\":4703:4806  function isAgent(address _agent) public view returns (bool) {... */\n    tag_35:\n        /* \"contracts t-rex/roles/AgentRoleUpgradeable.sol\":4757:4761  bool */\n      0x00\n        /* \"contracts t-rex/roles/AgentRoleUpgradeable.sol\":4780:4799  _agents.has(_agent) */\n      tag_131\n        /* \"contracts t-rex/roles/AgentRoleUpgradeable.sol\":4757:4761  bool */\n      dup2\n        /* \"contracts t-rex/roles/AgentRoleUpgradeable.sol\":4792:4798  _agent */\n      dup4\n        /* \"contracts t-rex/roles/AgentRoleUpgradeable.sol\":4780:4791  _agents.has */\n      tag_132\n        /* \"contracts t-rex/roles/AgentRoleUpgradeable.sol\":4780:4799  _agents.has(_agent) */\n      jump\t// in\n    tag_131:\n        /* \"contracts t-rex/roles/AgentRoleUpgradeable.sol\":4773:4799  return _agents.has(_agent) */\n      swap3\n        /* \"contracts t-rex/roles/AgentRoleUpgradeable.sol\":4703:4806  function isAgent(address _agent) public view returns (bool) {... */\n      swap2\n      pop\n      pop\n      jump\t// out\n        /* \"contracts t-rex/registry/implementation/IdentityRegistry.sol\":7195:7443  function setIdentityRegistryStorage(address _identityRegistryStorage) external override onlyOwner {... */\n    tag_40:\n        /* \"@openzeppelin/contracts-upgradeable/access/OwnableUpgradeable.sol\":2344:2357  _checkOwner() */\n      tag_134\n        /* \"@openzeppelin/contracts-upgradeable/access/OwnableUpgradeable.sol\":2344:2355  _checkOwner */\n      tag_135\n        /* \"@openzeppelin/contracts-upgradeable/access/OwnableUpgradeable.sol\":2344:2357  _checkOwner() */\n      jump\t// in\n    tag_134:\n        /* \"contracts t-rex/registry/implementation/IdentityRegistry.sol\":7303:7324  _tokenIdentityStorage */\n      0x03\n        /* \"contracts t-rex/registry/implementation/IdentityRegistry.sol\":7303:7377  _tokenIdentityStorage = IIdentityRegistryStorage(_identityRegistryStorage) */\n      dup1\n      sload\n      not(sub(shl(0xa0, 0x01), 0x01))\n      and\n      sub(shl(0xa0, 0x01), 0x01)\n      dup4\n      and\n      swap1\n      dup2\n      or\n      swap1\n      swap2\n      sstore\n        /* \"contracts t-rex/registry/implementation/IdentityRegistry.sol\":7392:7436  IdentityStorageSet(_identityRegistryStorage) */\n      mload(0x40)\n      0x2fa8b95c1db7afe99e3398f3792f008135cedc1fa26b0bb2ecd2352cd166d53c\n      swap1\n      0x00\n      swap1\n      log2\n        /* \"contracts t-rex/registry/implementation/IdentityRegistry.sol\":7195:7443  function setIdentityRegistryStorage(address _identityRegistryStorage) external override onlyOwner {... */\n      pop\n      jump\t// out\n        /* \"contracts t-rex/registry/implementation/IdentityRegistry.sol\":6535:6768  function updateCountry(address _userAddress, uint16 _country) external override onlyAgent {... */\n    tag_44:\n        /* \"contracts t-rex/roles/AgentRoleUpgradeable.sol\":4201:4220  isAgent(msg.sender) */\n      tag_138\n        /* \"contracts t-rex/roles/AgentRoleUpgradeable.sol\":4209:4219  msg.sender */\n      caller\n        /* \"contracts t-rex/roles/AgentRoleUpgradeable.sol\":4201:4208  isAgent */\n      tag_35\n        /* \"contracts t-rex/roles/AgentRoleUpgradeable.sol\":4201:4220  isAgent(msg.sender) */\n      jump\t// in\n    tag_138:\n        /* \"contracts t-rex/roles/AgentRoleUpgradeable.sol\":4193:4271  require(isAgent(msg.sender), \"AgentRole: caller does not have the Agent role\") */\n      tag_139\n      jumpi\n      mload(0x40)\n      shl(0xe5, 0x461bcd)\n      dup2\n      mstore\n      0x04\n      add\n      tag_123\n      swap1\n      tag_141\n      jump\t// in\n    tag_139:\n        /* \"contracts t-rex/registry/implementation/IdentityRegistry.sol\":6635:6656  _tokenIdentityStorage */\n      sload(0x03)\n        /* \"contracts t-rex/registry/implementation/IdentityRegistry.sol\":6635:6708  _tokenIdentityStorage.modifyStoredInvestorCountry(_userAddress, _country) */\n      mload(0x40)\n      shl(0xe0, 0x9f3418d5)\n      dup2\n      mstore\n      sub(shl(0xa0, 0x01), 0x01)\n        /* \"#utility.yul\":6604:6636   */\n      dup5\n      dup2\n      and\n        /* \"contracts t-rex/registry/implementation/IdentityRegistry.sol\":6635:6708  _tokenIdentityStorage.modifyStoredInvestorCountry(_userAddress, _country) */\n      0x04\n      dup4\n      add\n        /* \"#utility.yul\":6586:6637   */\n      mstore\n        /* \"#utility.yul\":6685:6691   */\n      0xffff\n        /* \"#utility.yul\":6673:6692   */\n      dup5\n      and\n        /* \"#utility.yul\":6653:6671   */\n      0x24\n      dup4\n      add\n        /* \"#utility.yul\":6646:6693   */\n      mstore\n        /* \"contracts t-rex/registry/implementation/IdentityRegistry.sol\":6635:6656  _tokenIdentityStorage */\n      swap1\n      swap2\n      and\n      swap1\n        /* \"contracts t-rex/registry/implementation/IdentityRegistry.sol\":6635:6684  _tokenIdentityStorage.modifyStoredInvestorCountry */\n      0x9f3418d5\n      swap1\n        /* \"#utility.yul\":6559:6577   */\n      0x44\n      add\n        /* \"contracts t-rex/registry/implementation/IdentityRegistry.sol\":6635:6708  _tokenIdentityStorage.modifyStoredInvestorCountry(_userAddress, _country) */\n      0x00\n      mload(0x40)\n      dup1\n      dup4\n      sub\n      dup2\n      0x00\n      dup8\n      dup1\n      extcodesize\n      iszero\n      dup1\n      iszero\n      tag_145\n      jumpi\n      0x00\n      dup1\n      revert\n    tag_145:\n      pop\n      gas\n      call\n      iszero\n      dup1\n      iszero\n      tag_147\n      jumpi\n      returndatasize\n      0x00\n      dup1\n      returndatacopy\n      revert(0x00, returndatasize)\n    tag_147:\n      pop\n      pop\n        /* \"contracts t-rex/registry/implementation/IdentityRegistry.sol\":6723:6761  CountryUpdated(_userAddress, _country) */\n      mload(0x40)\n      0xffff\n      dup5\n      and\n      swap3\n      pop\n      sub(shl(0xa0, 0x01), 0x01)\n      dup6\n      and\n      swap2\n      pop\n      0x04ed3b726495c2dca1ff1215d9ca54e1a4030abb5e82b0f6ce55702416cee853\n      swap1\n      0x00\n      swap1\n      log3\n        /* \"contracts t-rex/registry/implementation/IdentityRegistry.sol\":6535:6768  function updateCountry(address _userAddress, uint16 _country) external override onlyAgent {... */\n      pop\n      pop\n      jump\t// out\n        /* \"contracts t-rex/registry/implementation/IdentityRegistry.sol\":11536:11830  function registerIdentity(... */\n    tag_52:\n        /* \"contracts t-rex/roles/AgentRoleUpgradeable.sol\":4201:4220  isAgent(msg.sender) */\n      tag_150\n        /* \"contracts t-rex/roles/AgentRoleUpgradeable.sol\":4209:4219  msg.sender */\n      caller\n        /* \"contracts t-rex/roles/AgentRoleUpgradeable.sol\":4201:4208  isAgent */\n      tag_35\n        /* \"contracts t-rex/roles/AgentRoleUpgradeable.sol\":4201:4220  isAgent(msg.sender) */\n      jump\t// in\n    tag_150:\n        /* \"contracts t-rex/roles/AgentRoleUpgradeable.sol\":4193:4271  require(isAgent(msg.sender), \"AgentRole: caller does not have the Agent role\") */\n      tag_151\n      jumpi\n      mload(0x40)\n      shl(0xe5, 0x461bcd)\n      dup2\n      mstore\n      0x04\n      add\n      tag_123\n      swap1\n      tag_141\n      jump\t// in\n    tag_151:\n        /* \"contracts t-rex/registry/implementation/IdentityRegistry.sol\":11688:11709  _tokenIdentityStorage */\n      sload(0x03)\n        /* \"contracts t-rex/registry/implementation/IdentityRegistry.sol\":11688:11765  _tokenIdentityStorage.addIdentityToStorage(_userAddress, _identity, _country) */\n      mload(0x40)\n      shl(0xe0, 0xa53410dd)\n      dup2\n      mstore\n      sub(shl(0xa0, 0x01), 0x01)\n        /* \"#utility.yul\":6977:6992   */\n      dup6\n      dup2\n      and\n        /* \"contracts t-rex/registry/implementation/IdentityRegistry.sol\":11688:11765  _tokenIdentityStorage.addIdentityToStorage(_userAddress, _identity, _country) */\n      0x04\n      dup4\n      add\n        /* \"#utility.yul\":6959:6993   */\n      mstore\n        /* \"#utility.yul\":7029:7044   */\n      dup5\n      dup2\n      and\n        /* \"#utility.yul\":7009:7027   */\n      0x24\n      dup4\n      add\n        /* \"#utility.yul\":7002:7045   */\n      mstore\n        /* \"#utility.yul\":7093:7099   */\n      0xffff\n        /* \"#utility.yul\":7081:7100   */\n      dup5\n      and\n        /* \"#utility.yul\":7061:7079   */\n      0x44\n      dup4\n      add\n        /* \"#utility.yul\":7054:7101   */\n      mstore\n        /* \"contracts t-rex/registry/implementation/IdentityRegistry.sol\":11688:11709  _tokenIdentityStorage */\n      swap1\n      swap2\n      and\n      swap1\n        /* \"contracts t-rex/registry/implementation/IdentityRegistry.sol\":11688:11730  _tokenIdentityStorage.addIdentityToStorage */\n      0xa53410dd\n      swap1\n        /* \"#utility.yul\":6894:6912   */\n      0x64\n      add\n        /* \"contracts t-rex/registry/implementation/IdentityRegistry.sol\":11688:11765  _tokenIdentityStorage.addIdentityToStorage(_userAddress, _identity, _country) */\n      0x00\n      mload(0x40)\n      dup1\n      dup4\n      sub\n      dup2\n      0x00\n      dup8\n      dup1\n      extcodesize\n      iszero\n      dup1\n      iszero\n      tag_156\n      jumpi\n      0x00\n      dup1\n      revert\n    tag_156:\n      pop\n      gas\n      call\n      iszero\n      dup1\n      iszero\n      tag_158\n      jumpi\n      returndatasize\n      0x00\n      dup1\n      returndatacopy\n      revert(0x00, returndatasize)\n    tag_158:\n      pop\n      pop\n        /* \"contracts t-rex/registry/implementation/IdentityRegistry.sol\":11780:11823  IdentityRegistered(_userAddress, _identity) */\n      mload(0x40)\n      sub(shl(0xa0, 0x01), 0x01)\n      dup1\n      dup7\n      and\n      swap4\n      pop\n      dup7\n      and\n      swap2\n      pop\n      0x6ae73635c50d24a45af6fbd5e016ac4bed179addbc8bf24e04ff0fcc6d33af19\n      swap1\n      0x00\n      swap1\n      log3\n        /* \"contracts t-rex/registry/implementation/IdentityRegistry.sol\":11536:11830  function registerIdentity(... */\n      pop\n      pop\n      pop\n      jump\t// out\n        /* \"contracts t-rex/registry/implementation/IdentityRegistry.sol\":11256:11459  function contains(address _userAddress) external view override returns (bool) {... */\n    tag_55:\n        /* \"contracts t-rex/registry/implementation/IdentityRegistry.sol\":11328:11332  bool */\n      0x00\n      dup1\n        /* \"contracts t-rex/registry/implementation/IdentityRegistry.sol\":11356:11378  identity(_userAddress) */\n      tag_160\n        /* \"contracts t-rex/registry/implementation/IdentityRegistry.sol\":11365:11377  _userAddress */\n      dup4\n        /* \"contracts t-rex/registry/implementation/IdentityRegistry.sol\":11356:11364  identity */\n      tag_101\n        /* \"contracts t-rex/registry/implementation/IdentityRegistry.sol\":11356:11378  identity(_userAddress) */\n      jump\t// in\n    tag_160:\n      sub(shl(0xa0, 0x01), 0x01)\n        /* \"contracts t-rex/registry/implementation/IdentityRegistry.sol\":11348:11393  address(identity(_userAddress)) == address(0) */\n      and\n      sub\n        /* \"contracts t-rex/registry/implementation/IdentityRegistry.sol\":11344:11432  if (address(identity(_userAddress)) == address(0)) {... */\n      tag_161\n      jumpi\n      pop\n        /* \"contracts t-rex/registry/implementation/IdentityRegistry.sol\":11416:11421  false */\n      0x00\n      swap2\n        /* \"contracts t-rex/registry/implementation/IdentityRegistry.sol\":11256:11459  function contains(address _userAddress) external view override returns (bool) {... */\n      swap1\n      pop\n      jump\t// out\n        /* \"contracts t-rex/registry/implementation/IdentityRegistry.sol\":11344:11432  if (address(identity(_userAddress)) == address(0)) {... */\n    tag_161:\n      pop\n        /* \"contracts t-rex/registry/implementation/IdentityRegistry.sol\":11448:11452  true */\n      0x01\n      swap2\n        /* \"contracts t-rex/registry/implementation/IdentityRegistry.sol\":11256:11459  function contains(address _userAddress) external view override returns (bool) {... */\n      swap1\n      pop\n      jump\t// out\n        /* \"contracts t-rex/registry/implementation/IdentityRegistry.sol\":5760:6097  function batchRegisterIdentity(... */\n    tag_60:\n        /* \"contracts t-rex/registry/implementation/IdentityRegistry.sol\":5953:5962  uint256 i */\n      0x00\n        /* \"contracts t-rex/registry/implementation/IdentityRegistry.sol\":5948:6091  for (uint256 i = 0; i < _userAddresses.length; i++) {... */\n    tag_163:\n        /* \"contracts t-rex/registry/implementation/IdentityRegistry.sol\":5968:5993  i < _userAddresses.length */\n      dup6\n      dup2\n      lt\n        /* \"contracts t-rex/registry/implementation/IdentityRegistry.sol\":5948:6091  for (uint256 i = 0; i < _userAddresses.length; i++) {... */\n      iszero\n      tag_164\n      jumpi\n        /* \"contracts t-rex/registry/implementation/IdentityRegistry.sol\":6014:6080  registerIdentity(_userAddresses[i], _identities[i], _countries[i]) */\n      tag_166\n        /* \"contracts t-rex/registry/implementation/IdentityRegistry.sol\":6031:6045  _userAddresses */\n      dup8\n      dup8\n        /* \"contracts t-rex/registry/implementation/IdentityRegistry.sol\":6046:6047  i */\n      dup4\n        /* \"contracts t-rex/registry/implementation/IdentityRegistry.sol\":6031:6048  _userAddresses[i] */\n      dup2\n      dup2\n      lt\n      tag_168\n      jumpi\n      tag_168\n      tag_169\n      jump\t// in\n    tag_168:\n      swap1\n      pop\n      0x20\n      mul\n      add\n      0x20\n      dup2\n      add\n      swap1\n      tag_170\n      swap2\n      swap1\n      tag_34\n      jump\t// in\n    tag_170:\n        /* \"contracts t-rex/registry/implementation/IdentityRegistry.sol\":6050:6061  _identities */\n      dup7\n      dup7\n        /* \"contracts t-rex/registry/implementation/IdentityRegistry.sol\":6062:6063  i */\n      dup5\n        /* \"contracts t-rex/registry/implementation/IdentityRegistry.sol\":6050:6064  _identities[i] */\n      dup2\n      dup2\n      lt\n      tag_172\n      jumpi\n      tag_172\n      tag_169\n      jump\t// in\n    tag_172:\n      swap1\n      pop\n      0x20\n      mul\n      add\n      0x20\n      dup2\n      add\n      swap1\n      tag_173\n      swap2\n      swap1\n      tag_34\n      jump\t// in\n    tag_173:\n        /* \"contracts t-rex/registry/implementation/IdentityRegistry.sol\":6066:6076  _countries */\n      dup6\n      dup6\n        /* \"contracts t-rex/registry/implementation/IdentityRegistry.sol\":6077:6078  i */\n      dup6\n        /* \"contracts t-rex/registry/implementation/IdentityRegistry.sol\":6066:6079  _countries[i] */\n      dup2\n      dup2\n      lt\n      tag_176\n      jumpi\n      tag_176\n      tag_169\n      jump\t// in\n    tag_176:\n      swap1\n      pop\n      0x20\n      mul\n      add\n      0x20\n      dup2\n      add\n      swap1\n      tag_50\n      swap2\n      swap1\n      tag_178\n      jump\t// in\n        /* \"contracts t-rex/registry/implementation/IdentityRegistry.sol\":6014:6080  registerIdentity(_userAddresses[i], _identities[i], _countries[i]) */\n    tag_166:\n        /* \"contracts t-rex/registry/implementation/IdentityRegistry.sol\":5995:5998  i++ */\n      dup1\n      tag_179\n      dup2\n      tag_180\n      jump\t// in\n    tag_179:\n      swap2\n      pop\n      pop\n        /* \"contracts t-rex/registry/implementation/IdentityRegistry.sol\":5948:6091  for (uint256 i = 0; i < _userAddresses.length; i++) {... */\n      jump(tag_163)\n    tag_164:\n      pop\n        /* \"contracts t-rex/registry/implementation/IdentityRegistry.sol\":5760:6097  function batchRegisterIdentity(... */\n      pop\n      pop\n      pop\n      pop\n      pop\n      pop\n      jump\t// out\n        /* \"contracts t-rex/registry/implementation/IdentityRegistry.sol\":7526:7757  function setClaimTopicsRegistry(address _claimTopicsRegistry) external override onlyOwner {... */\n    tag_63:\n        /* \"@openzeppelin/contracts-upgradeable/access/OwnableUpgradeable.sol\":2344:2357  _checkOwner() */\n      tag_182\n        /* \"@openzeppelin/contracts-upgradeable/access/OwnableUpgradeable.sol\":2344:2355  _checkOwner */\n      tag_135\n        /* \"@openzeppelin/contracts-upgradeable/access/OwnableUpgradeable.sol\":2344:2357  _checkOwner() */\n      jump\t// in\n    tag_182:\n        /* \"contracts t-rex/registry/implementation/IdentityRegistry.sol\":7626:7646  _tokenTopicsRegistry */\n      0x01\n        /* \"contracts t-rex/registry/implementation/IdentityRegistry.sol\":7626:7691  _tokenTopicsRegistry = IClaimTopicsRegistry(_claimTopicsRegistry) */\n      dup1\n      sload\n      not(sub(shl(0xa0, 0x01), 0x01))\n      and\n      sub(shl(0xa0, 0x01), 0x01)\n      dup4\n      and\n      swap1\n      dup2\n      or\n      swap1\n      swap2\n      sstore\n        /* \"contracts t-rex/registry/implementation/IdentityRegistry.sol\":7706:7750  ClaimTopicsRegistrySet(_claimTopicsRegistry) */\n      mload(0x40)\n      0x7170bf15b246e880b2369cd7c67d057760d8a35149e8c64dde91efa22bcc76d0\n      swap1\n      0x00\n      swap1\n      log2\n        /* \"contracts t-rex/registry/implementation/IdentityRegistry.sol\":7526:7757  function setClaimTopicsRegistry(address _claimTopicsRegistry) external override onlyOwner {... */\n      pop\n      jump\t// out\n        /* \"@openzeppelin/contracts-upgradeable/access/OwnableUpgradeable.sol\":3165:3266  function renounceOwnership() public virtual onlyOwner {... */\n    tag_65:\n        /* \"@openzeppelin/contracts-upgradeable/access/OwnableUpgradeable.sol\":2344:2357  _checkOwner() */\n      tag_185\n        /* \"@openzeppelin/contracts-upgradeable/access/OwnableUpgradeable.sol\":2344:2355  _checkOwner */\n      tag_135\n        /* \"@openzeppelin/contracts-upgradeable/access/OwnableUpgradeable.sol\":2344:2357  _checkOwner() */\n      jump\t// in\n    tag_185:\n        /* \"@openzeppelin/contracts-upgradeable/access/OwnableUpgradeable.sol\":3229:3259  _transferOwnership(address(0)) */\n      tag_187\n        /* \"@openzeppelin/contracts-upgradeable/access/OwnableUpgradeable.sol\":3256:3257  0 */\n      0x00\n        /* \"@openzeppelin/contracts-upgradeable/access/OwnableUpgradeable.sol\":3229:3247  _transferOwnership */\n      tag_188\n        /* \"@openzeppelin/contracts-upgradeable/access/OwnableUpgradeable.sol\":3229:3259  _transferOwnership(address(0)) */\n      jump\t// in\n    tag_187:\n        /* \"@openzeppelin/contracts-upgradeable/access/OwnableUpgradeable.sol\":3165:3266  function renounceOwnership() public virtual onlyOwner {... */\n      jump\t// out\n        /* \"contracts t-rex/registry/implementation/IdentityRegistry.sol\":10409:10577  function investorCountry(address _userAddress) external view override returns (uint16) {... */\n    tag_68:\n        /* \"contracts t-rex/registry/implementation/IdentityRegistry.sol\":10513:10534  _tokenIdentityStorage */\n      sload(0x03)\n        /* \"contracts t-rex/registry/implementation/IdentityRegistry.sol\":10513:10570  _tokenIdentityStorage.storedInvestorCountry(_userAddress) */\n      mload(0x40)\n      shl(0xe2, 0x1c9f84ef)\n      dup2\n      mstore\n      sub(shl(0xa0, 0x01), 0x01)\n        /* \"#utility.yul\":1834:1866   */\n      dup4\n      dup2\n      and\n        /* \"contracts t-rex/registry/implementation/IdentityRegistry.sol\":10513:10570  _tokenIdentityStorage.storedInvestorCountry(_userAddress) */\n      0x04\n      dup4\n      add\n        /* \"#utility.yul\":1816:1867   */\n      mstore\n        /* \"contracts t-rex/registry/implementation/IdentityRegistry.sol\":10488:10494  uint16 */\n      0x00\n      swap3\n        /* \"contracts t-rex/registry/implementation/IdentityRegistry.sol\":10513:10534  _tokenIdentityStorage */\n      and\n      swap1\n        /* \"contracts t-rex/registry/implementation/IdentityRegistry.sol\":10513:10556  _tokenIdentityStorage.storedInvestorCountry */\n      0x727e13bc\n      swap1\n        /* \"#utility.yul\":1789:1807   */\n      0x24\n      add\n        /* \"contracts t-rex/registry/implementation/IdentityRegistry.sol\":10513:10570  _tokenIdentityStorage.storedInvestorCountry(_userAddress) */\n      0x20\n      mload(0x40)\n      dup1\n      dup4\n      sub\n      dup2\n      dup7\n      gas\n      staticcall\n      iszero\n      dup1\n      iszero\n      tag_192\n      jumpi\n      returndatasize\n      0x00\n      dup1\n      returndatacopy\n      revert(0x00, returndatasize)\n    tag_192:\n      pop\n      pop\n      pop\n      pop\n      mload(0x40)\n      returndatasize\n      not(0x1f)\n      0x1f\n      dup3\n      add\n      and\n      dup3\n      add\n      dup1\n      0x40\n      mstore\n      pop\n      dup2\n      add\n      swap1\n      tag_131\n      swap2\n      swap1\n      tag_194\n      jump\t// in\n        /* \"contracts t-rex/roles/AgentRoleUpgradeable.sol\":4295:4489  function addAgent(address _agent) public onlyOwner {... */\n    tag_73:\n        /* \"@openzeppelin/contracts-upgradeable/access/OwnableUpgradeable.sol\":2344:2357  _checkOwner() */\n      tag_196\n        /* \"@openzeppelin/contracts-upgradeable/access/OwnableUpgradeable.sol\":2344:2355  _checkOwner */\n      tag_135\n        /* \"@openzeppelin/contracts-upgradeable/access/OwnableUpgradeable.sol\":2344:2357  _checkOwner() */\n      jump\t// in\n    tag_196:\n      sub(shl(0xa0, 0x01), 0x01)\n        /* \"contracts t-rex/roles/AgentRoleUpgradeable.sol\":4364:4384  _agent != address(0) */\n      dup2\n      and\n        /* \"contracts t-rex/roles/AgentRoleUpgradeable.sol\":4356:4420  require(_agent != address(0), \"invalid argument - zero address\") */\n      tag_198\n      jumpi\n      mload(0x40)\n      shl(0xe5, 0x461bcd)\n      dup2\n      mstore\n      0x04\n      add\n      tag_123\n      swap1\n      tag_124\n      jump\t// in\n    tag_198:\n        /* \"contracts t-rex/roles/AgentRoleUpgradeable.sol\":4430:4449  _agents.add(_agent) */\n      tag_200\n        /* \"contracts t-rex/roles/AgentRoleUpgradeable.sol\":4430:4437  _agents */\n      0x00\n        /* \"contracts t-rex/roles/AgentRoleUpgradeable.sol\":4442:4448  _agent */\n      dup3\n        /* \"contracts t-rex/roles/AgentRoleUpgradeable.sol\":4430:4441  _agents.add */\n      tag_201\n        /* \"contracts t-rex/roles/AgentRoleUpgradeable.sol\":4430:4449  _agents.add(_agent) */\n      jump\t// in\n    tag_200:\n        /* \"contracts t-rex/roles/AgentRoleUpgradeable.sol\":4464:4482  AgentAdded(_agent) */\n      mload(0x40)\n      sub(shl(0xa0, 0x01), 0x01)\n      dup3\n      and\n      swap1\n      0xf68e73cec97f2d70aa641fb26e87a4383686e2efacb648f2165aeb02ac562ec5\n      swap1\n      0x00\n      swap1\n      log2\n        /* \"contracts t-rex/roles/AgentRoleUpgradeable.sol\":4295:4489  function addAgent(address _agent) public onlyOwner {... */\n      pop\n      jump\t// out\n        /* \"contracts t-rex/registry/implementation/IdentityRegistry.sol\":6172:6461  function updateIdentity(address _userAddress, IIdentity _identity) external override onlyAgent {... */\n    tag_81:\n        /* \"contracts t-rex/roles/AgentRoleUpgradeable.sol\":4201:4220  isAgent(msg.sender) */\n      tag_206\n        /* \"contracts t-rex/roles/AgentRoleUpgradeable.sol\":4209:4219  msg.sender */\n      caller\n        /* \"contracts t-rex/roles/AgentRoleUpgradeable.sol\":4201:4208  isAgent */\n      tag_35\n        /* \"contracts t-rex/roles/AgentRoleUpgradeable.sol\":4201:4220  isAgent(msg.sender) */\n      jump\t// in\n    tag_206:\n        /* \"contracts t-rex/roles/AgentRoleUpgradeable.sol\":4193:4271  require(isAgent(msg.sender), \"AgentRole: caller does not have the Agent role\") */\n      tag_207\n      jumpi\n      mload(0x40)\n      shl(0xe5, 0x461bcd)\n      dup2\n      mstore\n      0x04\n      add\n      tag_123\n      swap1\n      tag_141\n      jump\t// in\n    tag_207:\n        /* \"contracts t-rex/registry/implementation/IdentityRegistry.sol\":6277:6298  IIdentity oldIdentity */\n      0x00\n        /* \"contracts t-rex/registry/implementation/IdentityRegistry.sol\":6301:6323  identity(_userAddress) */\n      tag_210\n        /* \"contracts t-rex/registry/implementation/IdentityRegistry.sol\":6310:6322  _userAddress */\n      dup4\n        /* \"contracts t-rex/registry/implementation/IdentityRegistry.sol\":6301:6309  identity */\n      tag_101\n        /* \"contracts t-rex/registry/implementation/IdentityRegistry.sol\":6301:6323  identity(_userAddress) */\n      jump\t// in\n    tag_210:\n        /* \"contracts t-rex/registry/implementation/IdentityRegistry.sol\":6333:6354  _tokenIdentityStorage */\n      sload(0x03)\n        /* \"contracts t-rex/registry/implementation/IdentityRegistry.sol\":6333:6400  _tokenIdentityStorage.modifyStoredIdentity(_userAddress, _identity) */\n      mload(0x40)\n      shl(0xe1, 0x7402e7c3)\n      dup2\n      mstore\n      sub(shl(0xa0, 0x01), 0x01)\n        /* \"#utility.yul\":8536:8551   */\n      dup7\n      dup2\n      and\n        /* \"contracts t-rex/registry/implementation/IdentityRegistry.sol\":6333:6400  _tokenIdentityStorage.modifyStoredIdentity(_userAddress, _identity) */\n      0x04\n      dup4\n      add\n        /* \"#utility.yul\":8518:8552   */\n      mstore\n        /* \"#utility.yul\":8588:8603   */\n      dup6\n      dup2\n      and\n        /* \"#utility.yul\":8568:8586   */\n      0x24\n      dup4\n      add\n        /* \"#utility.yul\":8561:8604   */\n      mstore\n        /* \"contracts t-rex/registry/implementation/IdentityRegistry.sol\":6277:6323  IIdentity oldIdentity = identity(_userAddress) */\n      swap3\n      swap4\n      pop\n        /* \"contracts t-rex/registry/implementation/IdentityRegistry.sol\":6333:6354  _tokenIdentityStorage */\n      swap2\n      and\n      swap1\n        /* \"contracts t-rex/registry/implementation/IdentityRegistry.sol\":6333:6375  _tokenIdentityStorage.modifyStoredIdentity */\n      0xe805cf86\n      swap1\n        /* \"#utility.yul\":8453:8471   */\n      0x44\n      add\n        /* \"contracts t-rex/registry/implementation/IdentityRegistry.sol\":6333:6400  _tokenIdentityStorage.modifyStoredIdentity(_userAddress, _identity) */\n      0x00\n      mload(0x40)\n      dup1\n      dup4\n      sub\n      dup2\n      0x00\n      dup8\n      dup1\n      extcodesize\n      iszero\n      dup1\n      iszero\n      tag_213\n      jumpi\n      0x00\n      dup1\n      revert\n    tag_213:\n      pop\n      gas\n      call\n      iszero\n      dup1\n      iszero\n      tag_215\n      jumpi\n      returndatasize\n      0x00\n      dup1\n      returndatacopy\n      revert(0x00, returndatasize)\n    tag_215:\n      pop\n      pop\n        /* \"contracts t-rex/registry/implementation/IdentityRegistry.sol\":6415:6454  IdentityUpdated(oldIdentity, _identity) */\n      mload(0x40)\n      sub(shl(0xa0, 0x01), 0x01)\n      dup1\n      dup7\n      and\n      swap4\n      pop\n      dup5\n      and\n      swap2\n      pop\n      0xe98082932c8056a0f514da9104e4a66bc2cbaef102ad59d90c4b24220ebf6010\n      swap1\n      0x00\n      swap1\n      log3\n        /* \"contracts t-rex/registry/implementation/IdentityRegistry.sol\":6267:6461  {... */\n      pop\n        /* \"contracts t-rex/registry/implementation/IdentityRegistry.sol\":6172:6461  function updateIdentity(address _userAddress, IIdentity _identity) external override onlyAgent {... */\n      pop\n      pop\n      jump\t// out\n        /* \"contracts t-rex/roles/AgentRoleUpgradeable.sol\":4495:4697  function removeAgent(address _agent) public onlyOwner {... */\n    tag_84:\n        /* \"@openzeppelin/contracts-upgradeable/access/OwnableUpgradeable.sol\":2344:2357  _checkOwner() */\n      tag_217\n        /* \"@openzeppelin/contracts-upgradeable/access/OwnableUpgradeable.sol\":2344:2355  _checkOwner */\n      tag_135\n        /* \"@openzeppelin/contracts-upgradeable/access/OwnableUpgradeable.sol\":2344:2357  _checkOwner() */\n      jump\t// in\n    tag_217:\n      sub(shl(0xa0, 0x01), 0x01)\n        /* \"contracts t-rex/roles/AgentRoleUpgradeable.sol\":4567:4587  _agent != address(0) */\n      dup2\n      and\n        /* \"contracts t-rex/roles/AgentRoleUpgradeable.sol\":4559:4623  require(_agent != address(0), \"invalid argument - zero address\") */\n      tag_219\n      jumpi\n      mload(0x40)\n      shl(0xe5, 0x461bcd)\n      dup2\n      mstore\n      0x04\n      add\n      tag_123\n      swap1\n      tag_124\n      jump\t// in\n    tag_219:\n        /* \"contracts t-rex/roles/AgentRoleUpgradeable.sol\":4633:4655  _agents.remove(_agent) */\n      tag_221\n        /* \"contracts t-rex/roles/AgentRoleUpgradeable.sol\":4633:4640  _agents */\n      0x00\n        /* \"contracts t-rex/roles/AgentRoleUpgradeable.sol\":4648:4654  _agent */\n      dup3\n        /* \"contracts t-rex/roles/AgentRoleUpgradeable.sol\":4633:4647  _agents.remove */\n      tag_222\n        /* \"contracts t-rex/roles/AgentRoleUpgradeable.sol\":4633:4655  _agents.remove(_agent) */\n      jump\t// in\n    tag_221:\n        /* \"contracts t-rex/roles/AgentRoleUpgradeable.sol\":4670:4690  AgentRemoved(_agent) */\n      mload(0x40)\n      sub(shl(0xa0, 0x01), 0x01)\n      dup3\n      and\n      swap1\n      0xed9c8ad8d5a0a66898ea49d2956929c93ae2e8bd50281b2ed897c5d1a6737e0b\n      swap1\n      0x00\n      swap1\n      log2\n        /* \"contracts t-rex/roles/AgentRoleUpgradeable.sol\":4495:4697  function removeAgent(address _agent) public onlyOwner {... */\n      pop\n      jump\t// out\n        /* \"contracts t-rex/registry/implementation/IdentityRegistry.sol\":6843:7108  function deleteIdentity(address _userAddress) external override onlyAgent {... */\n    tag_87:\n        /* \"contracts t-rex/roles/AgentRoleUpgradeable.sol\":4201:4220  isAgent(msg.sender) */\n      tag_224\n        /* \"contracts t-rex/roles/AgentRoleUpgradeable.sol\":4209:4219  msg.sender */\n      caller\n        /* \"contracts t-rex/roles/AgentRoleUpgradeable.sol\":4201:4208  isAgent */\n      tag_35\n        /* \"contracts t-rex/roles/AgentRoleUpgradeable.sol\":4201:4220  isAgent(msg.sender) */\n      jump\t// in\n    tag_224:\n        /* \"contracts t-rex/roles/AgentRoleUpgradeable.sol\":4193:4271  require(isAgent(msg.sender), \"AgentRole: caller does not have the Agent role\") */\n      tag_225\n      jumpi\n      mload(0x40)\n      shl(0xe5, 0x461bcd)\n      dup2\n      mstore\n      0x04\n      add\n      tag_123\n      swap1\n      tag_141\n      jump\t// in\n    tag_225:\n        /* \"contracts t-rex/registry/implementation/IdentityRegistry.sol\":6927:6948  IIdentity oldIdentity */\n      0x00\n        /* \"contracts t-rex/registry/implementation/IdentityRegistry.sol\":6951:6973  identity(_userAddress) */\n      tag_228\n        /* \"contracts t-rex/registry/implementation/IdentityRegistry.sol\":6960:6972  _userAddress */\n      dup3\n        /* \"contracts t-rex/registry/implementation/IdentityRegistry.sol\":6951:6959  identity */\n      tag_101\n        /* \"contracts t-rex/registry/implementation/IdentityRegistry.sol\":6951:6973  identity(_userAddress) */\n      jump\t// in\n    tag_228:\n        /* \"contracts t-rex/registry/implementation/IdentityRegistry.sol\":6983:7004  _tokenIdentityStorage */\n      sload(0x03)\n        /* \"contracts t-rex/registry/implementation/IdentityRegistry.sol\":6983:7044  _tokenIdentityStorage.removeIdentityFromStorage(_userAddress) */\n      mload(0x40)\n      shl(0xe0, 0xcf191bcd)\n      dup2\n      mstore\n      sub(shl(0xa0, 0x01), 0x01)\n        /* \"#utility.yul\":1834:1866   */\n      dup6\n      dup2\n      and\n        /* \"contracts t-rex/registry/implementation/IdentityRegistry.sol\":6983:7044  _tokenIdentityStorage.removeIdentityFromStorage(_userAddress) */\n      0x04\n      dup4\n      add\n        /* \"#utility.yul\":1816:1867   */\n      mstore\n        /* \"contracts t-rex/registry/implementation/IdentityRegistry.sol\":6927:6973  IIdentity oldIdentity = identity(_userAddress) */\n      swap3\n      swap4\n      pop\n        /* \"contracts t-rex/registry/implementation/IdentityRegistry.sol\":6983:7004  _tokenIdentityStorage */\n      swap2\n      and\n      swap1\n        /* \"contracts t-rex/registry/implementation/IdentityRegistry.sol\":6983:7030  _tokenIdentityStorage.removeIdentityFromStorage */\n      0xcf191bcd\n      swap1\n        /* \"#utility.yul\":1789:1807   */\n      0x24\n      add\n        /* \"contracts t-rex/registry/implementation/IdentityRegistry.sol\":6983:7044  _tokenIdentityStorage.removeIdentityFromStorage(_userAddress) */\n      0x00\n      mload(0x40)\n      dup1\n      dup4\n      sub\n      dup2\n      0x00\n      dup8\n      dup1\n      extcodesize\n      iszero\n      dup1\n      iszero\n      tag_230\n      jumpi\n      0x00\n      dup1\n      revert\n    tag_230:\n      pop\n      gas\n      call\n      iszero\n      dup1\n      iszero\n      tag_232\n      jumpi\n      returndatasize\n      0x00\n      dup1\n      returndatacopy\n      revert(0x00, returndatasize)\n    tag_232:\n      pop\n      pop\n        /* \"contracts t-rex/registry/implementation/IdentityRegistry.sol\":7059:7101  IdentityRemoved(_userAddress, oldIdentity) */\n      mload(0x40)\n      sub(shl(0xa0, 0x01), 0x01)\n      dup1\n      dup6\n      and\n      swap4\n      pop\n      dup6\n      and\n      swap2\n      pop\n      0x59d6590e225b81befe259af056324092801080acbb7feab310eb34678871f327\n      swap1\n      0x00\n      swap1\n      log3\n        /* \"contracts t-rex/registry/implementation/IdentityRegistry.sol\":6917:7108  {... */\n      pop\n        /* \"contracts t-rex/registry/implementation/IdentityRegistry.sol\":6843:7108  function deleteIdentity(address _userAddress) external override onlyAgent {... */\n      pop\n      jump\t// out\n        /* \"contracts t-rex/registry/implementation/IdentityRegistry.sol\":8213:10333  function isVerified(address _userAddress) external view override returns (bool) {... */\n    tag_94:\n        /* \"contracts t-rex/registry/implementation/IdentityRegistry.sol\":8287:8291  bool */\n      0x00\n      dup1\n        /* \"contracts t-rex/registry/implementation/IdentityRegistry.sol\":8315:8337  identity(_userAddress) */\n      tag_235\n        /* \"contracts t-rex/registry/implementation/IdentityRegistry.sol\":8324:8336  _userAddress */\n      dup4\n        /* \"contracts t-rex/registry/implementation/IdentityRegistry.sol\":8315:8323  identity */\n      tag_101\n        /* \"contracts t-rex/registry/implementation/IdentityRegistry.sol\":8315:8337  identity(_userAddress) */\n      jump\t// in\n    tag_235:\n      sub(shl(0xa0, 0x01), 0x01)\n        /* \"contracts t-rex/registry/implementation/IdentityRegistry.sol\":8307:8352  address(identity(_userAddress)) == address(0) */\n      and\n      sub\n        /* \"contracts t-rex/registry/implementation/IdentityRegistry.sol\":8303:8369  if (address(identity(_userAddress)) == address(0)) {return false;} */\n      tag_236\n      jumpi\n      pop\n        /* \"contracts t-rex/registry/implementation/IdentityRegistry.sol\":8362:8367  false */\n      0x00\n      swap2\n        /* \"contracts t-rex/registry/implementation/IdentityRegistry.sol\":8213:10333  function isVerified(address _userAddress) external view override returns (bool) {... */\n      swap1\n      pop\n      jump\t// out\n        /* \"contracts t-rex/registry/implementation/IdentityRegistry.sol\":8303:8369  if (address(identity(_userAddress)) == address(0)) {return false;} */\n    tag_236:\n        /* \"contracts t-rex/registry/implementation/IdentityRegistry.sol\":8417:8437  _tokenTopicsRegistry */\n      sload(0x01)\n        /* \"contracts t-rex/registry/implementation/IdentityRegistry.sol\":8417:8454  _tokenTopicsRegistry.getClaimTopics() */\n      0x40\n      dup1\n      mload\n      shl(0xe2, 0x37c27581)\n      dup2\n      mstore\n      swap1\n      mload\n        /* \"contracts t-rex/registry/implementation/IdentityRegistry.sol\":8378:8414  uint256[] memory requiredClaimTopics */\n      0x00\n      swap3\n      sub(shl(0xa0, 0x01), 0x01)\n        /* \"contracts t-rex/registry/implementation/IdentityRegistry.sol\":8417:8437  _tokenTopicsRegistry */\n      and\n      swap2\n        /* \"contracts t-rex/registry/implementation/IdentityRegistry.sol\":8417:8452  _tokenTopicsRegistry.getClaimTopics */\n      0xdf09d604\n      swap2\n        /* \"contracts t-rex/registry/implementation/IdentityRegistry.sol\":8417:8454  _tokenTopicsRegistry.getClaimTopics() */\n      0x04\n      dup1\n      dup4\n      add\n      swap3\n        /* \"contracts t-rex/registry/implementation/IdentityRegistry.sol\":8378:8414  uint256[] memory requiredClaimTopics */\n      dup7\n      swap3\n        /* \"contracts t-rex/registry/implementation/IdentityRegistry.sol\":8417:8454  _tokenTopicsRegistry.getClaimTopics() */\n      swap2\n      swap1\n      dup3\n      swap1\n      sub\n      add\n      dup2\n        /* \"contracts t-rex/registry/implementation/IdentityRegistry.sol\":8417:8437  _tokenTopicsRegistry */\n      dup7\n        /* \"contracts t-rex/registry/implementation/IdentityRegistry.sol\":8417:8454  _tokenTopicsRegistry.getClaimTopics() */\n      gas\n      staticcall\n      iszero\n      dup1\n      iszero\n      tag_238\n      jumpi\n      returndatasize\n      0x00\n      dup1\n      returndatacopy\n      revert(0x00, returndatasize)\n    tag_238:\n      pop\n      pop\n      pop\n      pop\n      mload(0x40)\n      returndatasize\n      0x00\n      dup3\n      returndatacopy\n      0x1f\n      returndatasize\n      swap1\n      dup2\n      add\n      not(0x1f)\n      and\n      dup3\n      add\n      0x40\n      mstore\n      tag_239\n      swap2\n      swap1\n      dup2\n      add\n      swap1\n      tag_240\n      jump\t// in\n    tag_239:\n        /* \"contracts t-rex/registry/implementation/IdentityRegistry.sol\":8378:8454  uint256[] memory requiredClaimTopics = _tokenTopicsRegistry.getClaimTopics() */\n      swap1\n      pop\n        /* \"contracts t-rex/registry/implementation/IdentityRegistry.sol\":8468:8487  requiredClaimTopics */\n      dup1\n        /* \"contracts t-rex/registry/implementation/IdentityRegistry.sol\":8468:8494  requiredClaimTopics.length */\n      mload\n        /* \"contracts t-rex/registry/implementation/IdentityRegistry.sol\":8498:8499  0 */\n      0x00\n        /* \"contracts t-rex/registry/implementation/IdentityRegistry.sol\":8468:8499  requiredClaimTopics.length == 0 */\n      sub\n        /* \"contracts t-rex/registry/implementation/IdentityRegistry.sol\":8464:8537  if (requiredClaimTopics.length == 0) {... */\n      tag_241\n      jumpi\n      pop\n        /* \"contracts t-rex/registry/implementation/IdentityRegistry.sol\":8522:8526  true */\n      0x01\n      swap3\n        /* \"contracts t-rex/registry/implementation/IdentityRegistry.sol\":8213:10333  function isVerified(address _userAddress) external view override returns (bool) {... */\n      swap2\n      pop\n      pop\n      jump\t// out\n        /* \"contracts t-rex/registry/implementation/IdentityRegistry.sol\":8464:8537  if (requiredClaimTopics.length == 0) {... */\n    tag_241:\n        /* \"contracts t-rex/registry/implementation/IdentityRegistry.sol\":8547:8570  uint256 foundClaimTopic */\n      0x00\n        /* \"contracts t-rex/registry/implementation/IdentityRegistry.sol\":8580:8594  uint256 scheme */\n      dup1\n        /* \"contracts t-rex/registry/implementation/IdentityRegistry.sol\":8604:8618  address issuer */\n      0x00\n        /* \"contracts t-rex/registry/implementation/IdentityRegistry.sol\":8628:8644  bytes memory sig */\n      0x60\n        /* \"contracts t-rex/registry/implementation/IdentityRegistry.sol\":8654:8671  bytes memory data */\n      dup1\n        /* \"contracts t-rex/registry/implementation/IdentityRegistry.sol\":8681:8699  uint256 claimTopic */\n      0x00\n        /* \"contracts t-rex/registry/implementation/IdentityRegistry.sol\":8709:10306  for (claimTopic = 0; claimTopic < requiredClaimTopics.length; claimTopic++) {... */\n    tag_242:\n        /* \"contracts t-rex/registry/implementation/IdentityRegistry.sol\":8743:8762  requiredClaimTopics */\n      dup7\n        /* \"contracts t-rex/registry/implementation/IdentityRegistry.sol\":8743:8769  requiredClaimTopics.length */\n      mload\n        /* \"contracts t-rex/registry/implementation/IdentityRegistry.sol\":8730:8740  claimTopic */\n      dup2\n        /* \"contracts t-rex/registry/implementation/IdentityRegistry.sol\":8730:8769  claimTopic < requiredClaimTopics.length */\n      lt\n        /* \"contracts t-rex/registry/implementation/IdentityRegistry.sol\":8709:10306  for (claimTopic = 0; claimTopic < requiredClaimTopics.length; claimTopic++) {... */\n      iszero\n      tag_243\n      jumpi\n        /* \"contracts t-rex/registry/implementation/IdentityRegistry.sol\":8850:8871  _tokenIssuersRegistry */\n      sload(0x02)\n        /* \"contracts t-rex/registry/implementation/IdentityRegistry.sol\":8903:8934  requiredClaimTopics[claimTopic] */\n      dup8\n      mload\n        /* \"contracts t-rex/registry/implementation/IdentityRegistry.sol\":8799:8835  IClaimIssuer[] memory trustedIssuers */\n      0x00\n      swap2\n      sub(shl(0xa0, 0x01), 0x01)\n        /* \"contracts t-rex/registry/implementation/IdentityRegistry.sol\":8850:8871  _tokenIssuersRegistry */\n      and\n      swap1\n        /* \"contracts t-rex/registry/implementation/IdentityRegistry.sol\":8850:8902  _tokenIssuersRegistry.getTrustedIssuersForClaimTopic */\n      0x52c111d1\n      swap1\n        /* \"contracts t-rex/registry/implementation/IdentityRegistry.sol\":8903:8922  requiredClaimTopics */\n      dup11\n      swap1\n        /* \"contracts t-rex/registry/implementation/IdentityRegistry.sol\":8923:8933  claimTopic */\n      dup6\n      swap1\n        /* \"contracts t-rex/registry/implementation/IdentityRegistry.sol\":8903:8934  requiredClaimTopics[claimTopic] */\n      dup2\n      lt\n      tag_246\n      jumpi\n      tag_246\n      tag_169\n      jump\t// in\n    tag_246:\n      0x20\n      mul\n      0x20\n      add\n      add\n      mload\n        /* \"contracts t-rex/registry/implementation/IdentityRegistry.sol\":8850:8935  _tokenIssuersRegistry.getTrustedIssuersForClaimTopic(requiredClaimTopics[claimTopic]) */\n      mload(0x40)\n      dup3\n      0xffffffff\n      and\n      0xe0\n      shl\n      dup2\n      mstore\n      0x04\n      add\n      tag_247\n      swap2\n        /* \"#utility.yul\":10247:10272   */\n      dup2\n      mstore\n        /* \"#utility.yul\":10235:10237   */\n      0x20\n        /* \"#utility.yul\":10220:10238   */\n      add\n      swap1\n        /* \"#utility.yul\":10101:10278   */\n      jump\n        /* \"contracts t-rex/registry/implementation/IdentityRegistry.sol\":8850:8935  _tokenIssuersRegistry.getTrustedIssuersForClaimTopic(requiredClaimTopics[claimTopic]) */\n    tag_247:\n      0x00\n      mload(0x40)\n      dup1\n      dup4\n      sub\n      dup2\n      dup7\n      gas\n      staticcall\n      iszero\n      dup1\n      iszero\n      tag_250\n      jumpi\n      returndatasize\n      0x00\n      dup1\n      returndatacopy\n      revert(0x00, returndatasize)\n    tag_250:\n      pop\n      pop\n      pop\n      pop\n      mload(0x40)\n      returndatasize\n      0x00\n      dup3\n      returndatacopy\n      0x1f\n      returndatasize\n      swap1\n      dup2\n      add\n      not(0x1f)\n      and\n      dup3\n      add\n      0x40\n      mstore\n      tag_251\n      swap2\n      swap1\n      dup2\n      add\n      swap1\n      tag_252\n      jump\t// in\n    tag_251:\n        /* \"contracts t-rex/registry/implementation/IdentityRegistry.sol\":8799:8935  IClaimIssuer[] memory trustedIssuers =... */\n      swap1\n      pop\n        /* \"contracts t-rex/registry/implementation/IdentityRegistry.sol\":8954:8968  trustedIssuers */\n      dup1\n        /* \"contracts t-rex/registry/implementation/IdentityRegistry.sol\":8954:8975  trustedIssuers.length */\n      mload\n        /* \"contracts t-rex/registry/implementation/IdentityRegistry.sol\":8979:8980  0 */\n      0x00\n        /* \"contracts t-rex/registry/implementation/IdentityRegistry.sol\":8954:8980  trustedIssuers.length == 0 */\n      sub\n        /* \"contracts t-rex/registry/implementation/IdentityRegistry.sol\":8950:8997  if (trustedIssuers.length == 0) {return false;} */\n      tag_253\n      jumpi\n      pop\n        /* \"contracts t-rex/registry/implementation/IdentityRegistry.sol\":8990:8995  false */\n      0x00\n      swap10\n        /* \"contracts t-rex/registry/implementation/IdentityRegistry.sol\":8213:10333  function isVerified(address _userAddress) external view override returns (bool) {... */\n      swap9\n      pop\n      pop\n      pop\n      pop\n      pop\n      pop\n      pop\n      pop\n      pop\n      jump\t// out\n        /* \"contracts t-rex/registry/implementation/IdentityRegistry.sol\":8950:8997  if (trustedIssuers.length == 0) {return false;} */\n    tag_253:\n        /* \"contracts t-rex/registry/implementation/IdentityRegistry.sol\":9011:9036  bytes32[] memory claimIds */\n      0x00\n        /* \"contracts t-rex/registry/implementation/IdentityRegistry.sol\":9053:9067  trustedIssuers */\n      dup2\n        /* \"contracts t-rex/registry/implementation/IdentityRegistry.sol\":9053:9074  trustedIssuers.length */\n      mload\n        /* \"contracts t-rex/registry/implementation/IdentityRegistry.sol\":9039:9075  new bytes32[](trustedIssuers.length) */\n      0xffffffffffffffff\n      dup2\n      gt\n      iszero\n      tag_255\n      jumpi\n      tag_255\n      tag_256\n      jump\t// in\n    tag_255:\n      mload(0x40)\n      swap1\n      dup1\n      dup3\n      mstore\n      dup1\n      0x20\n      mul\n      0x20\n      add\n      dup3\n      add\n      0x40\n      mstore\n      dup1\n      iszero\n      tag_257\n      jumpi\n      dup2\n      0x20\n      add\n      0x20\n      dup3\n      mul\n      dup1\n      calldatasize\n      dup4\n      calldatacopy\n      add\n      swap1\n      pop\n    tag_257:\n      pop\n        /* \"contracts t-rex/registry/implementation/IdentityRegistry.sol\":9011:9075  bytes32[] memory claimIds = new bytes32[](trustedIssuers.length) */\n      swap1\n      pop\n        /* \"contracts t-rex/registry/implementation/IdentityRegistry.sol\":9094:9103  uint256 i */\n      0x00\n        /* \"contracts t-rex/registry/implementation/IdentityRegistry.sol\":9089:9261  for (uint256 i = 0; i < trustedIssuers.length; i++) {... */\n    tag_258:\n        /* \"contracts t-rex/registry/implementation/IdentityRegistry.sol\":9113:9127  trustedIssuers */\n      dup3\n        /* \"contracts t-rex/registry/implementation/IdentityRegistry.sol\":9113:9134  trustedIssuers.length */\n      mload\n        /* \"contracts t-rex/registry/implementation/IdentityRegistry.sol\":9109:9110  i */\n      dup2\n        /* \"contracts t-rex/registry/implementation/IdentityRegistry.sol\":9109:9134  i < trustedIssuers.length */\n      lt\n        /* \"contracts t-rex/registry/implementation/IdentityRegistry.sol\":9089:9261  for (uint256 i = 0; i < trustedIssuers.length; i++) {... */\n      iszero\n      tag_259\n      jumpi\n        /* \"contracts t-rex/registry/implementation/IdentityRegistry.sol\":9194:9208  trustedIssuers */\n      dup3\n        /* \"contracts t-rex/registry/implementation/IdentityRegistry.sol\":9209:9210  i */\n      dup2\n        /* \"contracts t-rex/registry/implementation/IdentityRegistry.sol\":9194:9211  trustedIssuers[i] */\n      dup2\n      mload\n      dup2\n      lt\n      tag_262\n      jumpi\n      tag_262\n      tag_169\n      jump\t// in\n    tag_262:\n      0x20\n      mul\n      0x20\n      add\n      add\n      mload\n        /* \"contracts t-rex/registry/implementation/IdentityRegistry.sol\":9213:9232  requiredClaimTopics */\n      dup11\n        /* \"contracts t-rex/registry/implementation/IdentityRegistry.sol\":9233:9243  claimTopic */\n      dup6\n        /* \"contracts t-rex/registry/implementation/IdentityRegistry.sol\":9213:9244  requiredClaimTopics[claimTopic] */\n      dup2\n      mload\n      dup2\n      lt\n      tag_264\n      jumpi\n      tag_264\n      tag_169\n      jump\t// in\n    tag_264:\n      0x20\n      mul\n      0x20\n      add\n      add\n      mload\n        /* \"contracts t-rex/registry/implementation/IdentityRegistry.sol\":9183:9245  abi.encode(trustedIssuers[i], requiredClaimTopics[claimTopic]) */\n      add(0x20, mload(0x40))\n      tag_265\n      swap3\n      swap2\n      swap1\n      sub(shl(0xa0, 0x01), 0x01)\n        /* \"#utility.yul\":11474:11506   */\n      swap3\n      swap1\n      swap3\n      and\n        /* \"#utility.yul\":11456:11507   */\n      dup3\n      mstore\n        /* \"#utility.yul\":11538:11540   */\n      0x20\n        /* \"#utility.yul\":11523:11541   */\n      dup3\n      add\n        /* \"#utility.yul\":11516:11550   */\n      mstore\n        /* \"#utility.yul\":11444:11446   */\n      0x40\n        /* \"#utility.yul\":11429:11447   */\n      add\n      swap1\n        /* \"#utility.yul\":11263:11556   */\n      jump\n        /* \"contracts t-rex/registry/implementation/IdentityRegistry.sol\":9183:9245  abi.encode(trustedIssuers[i], requiredClaimTopics[claimTopic]) */\n    tag_265:\n      mload(0x40)\n      0x20\n      dup2\n      dup4\n      sub\n      sub\n      dup2\n      mstore\n      swap1\n      0x40\n      mstore\n        /* \"contracts t-rex/registry/implementation/IdentityRegistry.sol\":9173:9246  keccak256(abi.encode(trustedIssuers[i], requiredClaimTopics[claimTopic])) */\n      dup1\n      mload\n      swap1\n      0x20\n      add\n      keccak256\n        /* \"contracts t-rex/registry/implementation/IdentityRegistry.sol\":9159:9167  claimIds */\n      dup3\n        /* \"contracts t-rex/registry/implementation/IdentityRegistry.sol\":9168:9169  i */\n      dup3\n        /* \"contracts t-rex/registry/implementation/IdentityRegistry.sol\":9159:9170  claimIds[i] */\n      dup2\n      mload\n      dup2\n      lt\n      tag_268\n      jumpi\n      tag_268\n      tag_169\n      jump\t// in\n    tag_268:\n      0x20\n      swap1\n      dup2\n      mul\n      swap2\n      swap1\n      swap2\n      add\n      add\n        /* \"contracts t-rex/registry/implementation/IdentityRegistry.sol\":9159:9246  claimIds[i] = keccak256(abi.encode(trustedIssuers[i], requiredClaimTopics[claimTopic])) */\n      mstore\n        /* \"contracts t-rex/registry/implementation/IdentityRegistry.sol\":9136:9139  i++ */\n      dup1\n      tag_269\n      dup2\n      tag_180\n      jump\t// in\n    tag_269:\n      swap2\n      pop\n      pop\n        /* \"contracts t-rex/registry/implementation/IdentityRegistry.sol\":9089:9261  for (uint256 i = 0; i < trustedIssuers.length; i++) {... */\n      jump(tag_258)\n    tag_259:\n      pop\n        /* \"contracts t-rex/registry/implementation/IdentityRegistry.sol\":9280:9289  uint256 j */\n      0x00\n        /* \"contracts t-rex/registry/implementation/IdentityRegistry.sol\":9275:10296  for (uint256 j = 0; j < claimIds.length; j++) {... */\n    tag_270:\n        /* \"contracts t-rex/registry/implementation/IdentityRegistry.sol\":9299:9307  claimIds */\n      dup2\n        /* \"contracts t-rex/registry/implementation/IdentityRegistry.sol\":9299:9314  claimIds.length */\n      mload\n        /* \"contracts t-rex/registry/implementation/IdentityRegistry.sol\":9295:9296  j */\n      dup2\n        /* \"contracts t-rex/registry/implementation/IdentityRegistry.sol\":9295:9314  j < claimIds.length */\n      lt\n        /* \"contracts t-rex/registry/implementation/IdentityRegistry.sol\":9275:10296  for (uint256 j = 0; j < claimIds.length; j++) {... */\n      iszero\n      tag_271\n      jumpi\n        /* \"contracts t-rex/registry/implementation/IdentityRegistry.sol\":9388:9410  identity(_userAddress) */\n      tag_273\n        /* \"contracts t-rex/registry/implementation/IdentityRegistry.sol\":9397:9409  _userAddress */\n      dup13\n        /* \"contracts t-rex/registry/implementation/IdentityRegistry.sol\":9388:9396  identity */\n      tag_101\n        /* \"contracts t-rex/registry/implementation/IdentityRegistry.sol\":9388:9410  identity(_userAddress) */\n      jump\t// in\n    tag_273:\n      sub(shl(0xa0, 0x01), 0x01)\n        /* \"contracts t-rex/registry/implementation/IdentityRegistry.sol\":9388:9419  identity(_userAddress).getClaim */\n      and\n      0xc9100bcb\n        /* \"contracts t-rex/registry/implementation/IdentityRegistry.sol\":9420:9428  claimIds */\n      dup4\n        /* \"contracts t-rex/registry/implementation/IdentityRegistry.sol\":9429:9430  j */\n      dup4\n        /* \"contracts t-rex/registry/implementation/IdentityRegistry.sol\":9420:9431  claimIds[j] */\n      dup2\n      mload\n      dup2\n      lt\n      tag_275\n      jumpi\n      tag_275\n      tag_169\n      jump\t// in\n    tag_275:\n      0x20\n      mul\n      0x20\n      add\n      add\n      mload\n        /* \"contracts t-rex/registry/implementation/IdentityRegistry.sol\":9388:9432  identity(_userAddress).getClaim(claimIds[j]) */\n      mload(0x40)\n      dup3\n      0xffffffff\n      and\n      0xe0\n      shl\n      dup2\n      mstore\n      0x04\n      add\n      tag_276\n      swap2\n        /* \"#utility.yul\":10247:10272   */\n      dup2\n      mstore\n        /* \"#utility.yul\":10235:10237   */\n      0x20\n        /* \"#utility.yul\":10220:10238   */\n      add\n      swap1\n        /* \"#utility.yul\":10101:10278   */\n      jump\n        /* \"contracts t-rex/registry/implementation/IdentityRegistry.sol\":9388:9432  identity(_userAddress).getClaim(claimIds[j]) */\n    tag_276:\n      0x00\n      mload(0x40)\n      dup1\n      dup4\n      sub\n      dup2\n      dup7\n      gas\n      staticcall\n      iszero\n      dup1\n      iszero\n      tag_279\n      jumpi\n      returndatasize\n      0x00\n      dup1\n      returndatacopy\n      revert(0x00, returndatasize)\n    tag_279:\n      pop\n      pop\n      pop\n      pop\n      mload(0x40)\n      returndatasize\n      0x00\n      dup3\n      returndatacopy\n      0x1f\n      returndatasize\n      swap1\n      dup2\n      add\n      not(0x1f)\n      and\n      dup3\n      add\n      0x40\n      mstore\n      tag_280\n      swap2\n      swap1\n      dup2\n      add\n      swap1\n      tag_281\n      jump\t// in\n    tag_280:\n      pop\n        /* \"contracts t-rex/registry/implementation/IdentityRegistry.sol\":9474:9505  requiredClaimTopics[claimTopic] */\n      dup15\n      mload\n        /* \"contracts t-rex/registry/implementation/IdentityRegistry.sol\":9339:9432  (foundClaimTopic, scheme, issuer, sig, data, ) = identity(_userAddress).getClaim(claimIds[j]) */\n      swap5\n      swap14\n      pop\n      swap3\n      swap12\n      pop\n      swap1\n      swap10\n      pop\n      swap8\n      pop\n      swap6\n      pop\n        /* \"contracts t-rex/registry/implementation/IdentityRegistry.sol\":9474:9493  requiredClaimTopics */\n      dup11\n      swap1\n        /* \"contracts t-rex/registry/implementation/IdentityRegistry.sol\":9494:9504  claimTopic */\n      dup6\n      swap1\n        /* \"contracts t-rex/registry/implementation/IdentityRegistry.sol\":9474:9505  requiredClaimTopics[claimTopic] */\n      dup2\n      lt\n      tag_283\n      jumpi\n      tag_283\n      tag_169\n      jump\t// in\n    tag_283:\n      0x20\n      mul\n      0x20\n      add\n      add\n      mload\n        /* \"contracts t-rex/registry/implementation/IdentityRegistry.sol\":9455:9470  foundClaimTopic */\n      dup10\n        /* \"contracts t-rex/registry/implementation/IdentityRegistry.sol\":9455:9505  foundClaimTopic == requiredClaimTopics[claimTopic] */\n      sub\n        /* \"contracts t-rex/registry/implementation/IdentityRegistry.sol\":9451:10282  if (foundClaimTopic == requiredClaimTopics[claimTopic]) {... */\n      tag_284\n      jumpi\n        /* \"contracts t-rex/registry/implementation/IdentityRegistry.sol\":9546:9552  issuer */\n      dup7\n      sub(shl(0xa0, 0x01), 0x01)\n        /* \"contracts t-rex/registry/implementation/IdentityRegistry.sol\":9533:9566  IClaimIssuer(issuer).isClaimValid */\n      and\n      0xc0969a6e\n        /* \"contracts t-rex/registry/implementation/IdentityRegistry.sol\":9567:9589  identity(_userAddress) */\n      tag_285\n        /* \"contracts t-rex/registry/implementation/IdentityRegistry.sol\":9576:9588  _userAddress */\n      dup15\n        /* \"contracts t-rex/registry/implementation/IdentityRegistry.sol\":9567:9575  identity */\n      tag_101\n        /* \"contracts t-rex/registry/implementation/IdentityRegistry.sol\":9567:9589  identity(_userAddress) */\n      jump\t// in\n    tag_285:\n        /* \"contracts t-rex/registry/implementation/IdentityRegistry.sol\":9591:9610  requiredClaimTopics */\n      dup13\n        /* \"contracts t-rex/registry/implementation/IdentityRegistry.sol\":9611:9621  claimTopic */\n      dup8\n        /* \"contracts t-rex/registry/implementation/IdentityRegistry.sol\":9591:9622  requiredClaimTopics[claimTopic] */\n      dup2\n      mload\n      dup2\n      lt\n      tag_287\n      jumpi\n      tag_287\n      tag_169\n      jump\t// in\n    tag_287:\n      0x20\n      mul\n      0x20\n      add\n      add\n      mload\n        /* \"contracts t-rex/registry/implementation/IdentityRegistry.sol\":9624:9627  sig */\n      dup10\n        /* \"contracts t-rex/registry/implementation/IdentityRegistry.sol\":9653:9657  data */\n      dup10\n        /* \"contracts t-rex/registry/implementation/IdentityRegistry.sol\":9533:9658  IClaimIssuer(issuer).isClaimValid(identity(_userAddress), requiredClaimTopics[claimTopic], sig,... */\n      mload(0x40)\n      dup6\n      0xffffffff\n      and\n      0xe0\n      shl\n      dup2\n      mstore\n      0x04\n      add\n      tag_288\n      swap5\n      swap4\n      swap3\n      swap2\n      swap1\n      tag_289\n      jump\t// in\n    tag_288:\n      0x20\n      mload(0x40)\n      dup1\n      dup4\n      sub\n      dup2\n      dup7\n      gas\n      staticcall\n      swap3\n      pop\n      pop\n      pop\n      dup1\n      iszero\n      tag_290\n      jumpi\n      pop\n      0x40\n      dup1\n      mload\n      0x1f\n      returndatasize\n      swap1\n      dup2\n      add\n      not(0x1f)\n      and\n      dup3\n      add\n      swap1\n      swap3\n      mstore\n      tag_291\n      swap2\n      dup2\n      add\n      swap1\n      tag_292\n      jump\t// in\n    tag_291:\n      0x01\n    tag_290:\n        /* \"contracts t-rex/registry/implementation/IdentityRegistry.sol\":9529:10173  try IClaimIssuer(issuer).isClaimValid(identity(_userAddress), requiredClaimTopics[claimTopic], sig,... */\n      tag_293\n      jumpi\n        /* \"contracts t-rex/registry/implementation/IdentityRegistry.sol\":10078:10079  1 */\n      0x01\n        /* \"contracts t-rex/registry/implementation/IdentityRegistry.sol\":10060:10068  claimIds */\n      dup3\n        /* \"contracts t-rex/registry/implementation/IdentityRegistry.sol\":10060:10075  claimIds.length */\n      mload\n        /* \"contracts t-rex/registry/implementation/IdentityRegistry.sol\":10060:10079  claimIds.length - 1 */\n      tag_297\n      swap2\n      swap1\n      tag_298\n      jump\t// in\n    tag_297:\n        /* \"contracts t-rex/registry/implementation/IdentityRegistry.sol\":10054:10055  j */\n      dup2\n        /* \"contracts t-rex/registry/implementation/IdentityRegistry.sol\":10054:10080  j == (claimIds.length - 1) */\n      sub\n        /* \"contracts t-rex/registry/implementation/IdentityRegistry.sol\":10050:10151  if (j == (claimIds.length - 1)) {... */\n      tag_299\n      jumpi\n      pop\n        /* \"contracts t-rex/registry/implementation/IdentityRegistry.sol\":10119:10124  false */\n      0x00\n      swap12\n        /* \"contracts t-rex/registry/implementation/IdentityRegistry.sol\":8213:10333  function isVerified(address _userAddress) external view override returns (bool) {... */\n      swap11\n      pop\n      pop\n      pop\n      pop\n      pop\n      pop\n      pop\n      pop\n      pop\n      pop\n      pop\n      jump\t// out\n        /* \"contracts t-rex/registry/implementation/IdentityRegistry.sol\":10050:10151  if (j == (claimIds.length - 1)) {... */\n    tag_299:\n        /* \"contracts t-rex/registry/implementation/IdentityRegistry.sol\":9451:10282  if (foundClaimTopic == requiredClaimTopics[claimTopic]) {... */\n      jump(tag_307)\n        /* \"contracts t-rex/registry/implementation/IdentityRegistry.sol\":9529:10173  try IClaimIssuer(issuer).isClaimValid(identity(_userAddress), requiredClaimTopics[claimTopic], sig,... */\n    tag_293:\n        /* \"contracts t-rex/registry/implementation/IdentityRegistry.sol\":9743:9752  _validity */\n      dup1\n        /* \"contracts t-rex/registry/implementation/IdentityRegistry.sol\":9710:9855  if (... */\n      iszero\n      tag_301\n      jumpi\n        /* \"contracts t-rex/registry/implementation/IdentityRegistry.sol\":9813:9821  claimIds */\n      dup3\n        /* \"contracts t-rex/registry/implementation/IdentityRegistry.sol\":9813:9828  claimIds.length */\n      mload\n        /* \"contracts t-rex/registry/implementation/IdentityRegistry.sol\":9809:9828  j = claimIds.length */\n      swap2\n      pop\n        /* \"contracts t-rex/registry/implementation/IdentityRegistry.sol\":9710:9855  if (... */\n    tag_301:\n        /* \"contracts t-rex/registry/implementation/IdentityRegistry.sol\":9885:9894  _validity */\n      dup1\n        /* \"contracts t-rex/registry/implementation/IdentityRegistry.sol\":9884:9894  !_validity */\n      iszero\n        /* \"contracts t-rex/registry/implementation/IdentityRegistry.sol\":9884:9924  !_validity && j == (claimIds.length - 1) */\n      dup1\n      iszero\n      tag_302\n      jumpi\n      pop\n        /* \"contracts t-rex/registry/implementation/IdentityRegistry.sol\":9922:9923  1 */\n      0x01\n        /* \"contracts t-rex/registry/implementation/IdentityRegistry.sol\":9904:9912  claimIds */\n      dup4\n        /* \"contracts t-rex/registry/implementation/IdentityRegistry.sol\":9904:9919  claimIds.length */\n      mload\n        /* \"contracts t-rex/registry/implementation/IdentityRegistry.sol\":9904:9923  claimIds.length - 1 */\n      tag_303\n      swap2\n      swap1\n      tag_298\n      jump\t// in\n    tag_303:\n        /* \"contracts t-rex/registry/implementation/IdentityRegistry.sol\":9898:9899  j */\n      dup3\n        /* \"contracts t-rex/registry/implementation/IdentityRegistry.sol\":9898:9924  j == (claimIds.length - 1) */\n      eq\n        /* \"contracts t-rex/registry/implementation/IdentityRegistry.sol\":9884:9924  !_validity && j == (claimIds.length - 1) */\n    tag_302:\n        /* \"contracts t-rex/registry/implementation/IdentityRegistry.sol\":9880:9995  if (!_validity && j == (claimIds.length - 1)) {... */\n      iszero\n      tag_304\n      jumpi\n      pop\n        /* \"contracts t-rex/registry/implementation/IdentityRegistry.sol\":9963:9968  false */\n      0x00\n      swap13\n        /* \"contracts t-rex/registry/implementation/IdentityRegistry.sol\":8213:10333  function isVerified(address _userAddress) external view override returns (bool) {... */\n      swap12\n      pop\n      pop\n      pop\n      pop\n      pop\n      pop\n      pop\n      pop\n      pop\n      pop\n      pop\n      pop\n      jump\t// out\n        /* \"contracts t-rex/registry/implementation/IdentityRegistry.sol\":9880:9995  if (!_validity && j == (claimIds.length - 1)) {... */\n    tag_304:\n        /* \"contracts t-rex/registry/implementation/IdentityRegistry.sol\":9659:10017  returns(bool _validity) {... */\n      pop\n        /* \"contracts t-rex/registry/implementation/IdentityRegistry.sol\":9451:10282  if (foundClaimTopic == requiredClaimTopics[claimTopic]) {... */\n      jump(tag_307)\n    tag_284:\n        /* \"contracts t-rex/registry/implementation/IdentityRegistry.sol\":10225:10226  1 */\n      0x01\n        /* \"contracts t-rex/registry/implementation/IdentityRegistry.sol\":10207:10215  claimIds */\n      dup3\n        /* \"contracts t-rex/registry/implementation/IdentityRegistry.sol\":10207:10222  claimIds.length */\n      mload\n        /* \"contracts t-rex/registry/implementation/IdentityRegistry.sol\":10207:10226  claimIds.length - 1 */\n      tag_306\n      swap2\n      swap1\n      tag_298\n      jump\t// in\n    tag_306:\n        /* \"contracts t-rex/registry/implementation/IdentityRegistry.sol\":10201:10202  j */\n      dup2\n        /* \"contracts t-rex/registry/implementation/IdentityRegistry.sol\":10201:10227  j == (claimIds.length - 1) */\n      sub\n        /* \"contracts t-rex/registry/implementation/IdentityRegistry.sol\":10197:10282  if (j == (claimIds.length - 1)) {... */\n      tag_307\n      jumpi\n      pop\n        /* \"contracts t-rex/registry/implementation/IdentityRegistry.sol\":10258:10263  false */\n      0x00\n      swap12\n        /* \"contracts t-rex/registry/implementation/IdentityRegistry.sol\":8213:10333  function isVerified(address _userAddress) external view override returns (bool) {... */\n      swap11\n      pop\n      pop\n      pop\n      pop\n      pop\n      pop\n      pop\n      pop\n      pop\n      pop\n      pop\n      jump\t// out\n        /* \"contracts t-rex/registry/implementation/IdentityRegistry.sol\":10197:10282  if (j == (claimIds.length - 1)) {... */\n    tag_307:\n        /* \"contracts t-rex/registry/implementation/IdentityRegistry.sol\":9316:9319  j++ */\n      dup1\n      tag_308\n      dup2\n      tag_180\n      jump\t// in\n    tag_308:\n      swap2\n      pop\n      pop\n        /* \"contracts t-rex/registry/implementation/IdentityRegistry.sol\":9275:10296  for (uint256 j = 0; j < claimIds.length; j++) {... */\n      jump(tag_270)\n    tag_271:\n      pop\n        /* \"contracts t-rex/registry/implementation/IdentityRegistry.sol\":8785:10306  {... */\n      pop\n      pop\n        /* \"contracts t-rex/registry/implementation/IdentityRegistry.sol\":8771:8783  claimTopic++ */\n      dup1\n      dup1\n      tag_309\n      swap1\n      tag_180\n      jump\t// in\n    tag_309:\n      swap2\n      pop\n      pop\n        /* \"contracts t-rex/registry/implementation/IdentityRegistry.sol\":8709:10306  for (claimTopic = 0; claimTopic < requiredClaimTopics.length; claimTopic++) {... */\n      jump(tag_242)\n    tag_243:\n      pop\n        /* \"contracts t-rex/registry/implementation/IdentityRegistry.sol\":10322:10326  true */\n      0x01\n      swap9\n        /* \"contracts t-rex/registry/implementation/IdentityRegistry.sol\":8213:10333  function isVerified(address _userAddress) external view override returns (bool) {... */\n      swap8\n      pop\n      pop\n      pop\n      pop\n      pop\n      pop\n      pop\n      pop\n      jump\t// out\n        /* \"contracts t-rex/registry/implementation/IdentityRegistry.sol\":7843:8093  function setTrustedIssuersRegistry(address _trustedIssuersRegistry) external override onlyOwner {... */\n    tag_98:\n        /* \"@openzeppelin/contracts-upgradeable/access/OwnableUpgradeable.sol\":2344:2357  _checkOwner() */\n      tag_311\n        /* \"@openzeppelin/contracts-upgradeable/access/OwnableUpgradeable.sol\":2344:2355  _checkOwner */\n      tag_135\n        /* \"@openzeppelin/contracts-upgradeable/access/OwnableUpgradeable.sol\":2344:2357  _checkOwner() */\n      jump\t// in\n    tag_311:\n        /* \"contracts t-rex/registry/implementation/IdentityRegistry.sol\":7949:7970  _tokenIssuersRegistry */\n      0x02\n        /* \"contracts t-rex/registry/implementation/IdentityRegistry.sol\":7949:8021  _tokenIssuersRegistry = ITrustedIssuersRegistry(_trustedIssuersRegistry) */\n      dup1\n      sload\n      not(sub(shl(0xa0, 0x01), 0x01))\n      and\n      sub(shl(0xa0, 0x01), 0x01)\n      dup4\n      and\n      swap1\n      dup2\n      or\n      swap1\n      swap2\n      sstore\n        /* \"contracts t-rex/registry/implementation/IdentityRegistry.sol\":8036:8086  TrustedIssuersRegistrySet(_trustedIssuersRegistry) */\n      mload(0x40)\n      0x1b98cb79e6f73020175fe87333f1b91ad6a881519c0afe30340c2599b2b4bde0\n      swap1\n      0x00\n      swap1\n      log2\n        /* \"contracts t-rex/registry/implementation/IdentityRegistry.sol\":7843:8093  function setTrustedIssuersRegistry(address _trustedIssuersRegistry) external override onlyOwner {... */\n      pop\n      jump\t// out\n        /* \"contracts t-rex/registry/implementation/IdentityRegistry.sol\":11899:12054  function identity(address _userAddress) public view override returns (IIdentity) {... */\n    tag_101:\n        /* \"contracts t-rex/registry/implementation/IdentityRegistry.sol\":11997:12018  _tokenIdentityStorage */\n      sload(0x03)\n        /* \"contracts t-rex/registry/implementation/IdentityRegistry.sol\":11997:12047  _tokenIdentityStorage.storedIdentity(_userAddress) */\n      mload(0x40)\n      shl(0xe0, 0x7988d3a5)\n      dup2\n      mstore\n      sub(shl(0xa0, 0x01), 0x01)\n        /* \"#utility.yul\":1834:1866   */\n      dup4\n      dup2\n      and\n        /* \"contracts t-rex/registry/implementation/IdentityRegistry.sol\":11997:12047  _tokenIdentityStorage.storedIdentity(_userAddress) */\n      0x04\n      dup4\n      add\n        /* \"#utility.yul\":1816:1867   */\n      mstore\n        /* \"contracts t-rex/registry/implementation/IdentityRegistry.sol\":11969:11978  IIdentity */\n      0x00\n      swap3\n        /* \"contracts t-rex/registry/implementation/IdentityRegistry.sol\":11997:12018  _tokenIdentityStorage */\n      and\n      swap1\n        /* \"contracts t-rex/registry/implementation/IdentityRegistry.sol\":11997:12033  _tokenIdentityStorage.storedIdentity */\n      0x7988d3a5\n      swap1\n        /* \"#utility.yul\":1789:1807   */\n      0x24\n      add\n        /* \"contracts t-rex/registry/implementation/IdentityRegistry.sol\":11997:12047  _tokenIdentityStorage.storedIdentity(_userAddress) */\n      0x20\n      mload(0x40)\n      dup1\n      dup4\n      sub\n      dup2\n      dup7\n      gas\n      staticcall\n      iszero\n      dup1\n      iszero\n      tag_316\n      jumpi\n      returndatasize\n      0x00\n      dup1\n      returndatacopy\n      revert(0x00, returndatasize)\n    tag_316:\n      pop\n      pop\n      pop\n      pop\n      mload(0x40)\n      returndatasize\n      not(0x1f)\n      0x1f\n      dup3\n      add\n      and\n      dup3\n      add\n      dup1\n      0x40\n      mstore\n      pop\n      dup2\n      add\n      swap1\n      tag_131\n      swap2\n      swap1\n      tag_318\n      jump\t// in\n        /* \"@openzeppelin/contracts-upgradeable/access/OwnableUpgradeable.sol\":3415:3630  function transferOwnership(address newOwner) public virtual onlyOwner {... */\n    tag_110:\n        /* \"@openzeppelin/contracts-upgradeable/access/OwnableUpgradeable.sol\":2344:2357  _checkOwner() */\n      tag_321\n        /* \"@openzeppelin/contracts-upgradeable/access/OwnableUpgradeable.sol\":2344:2355  _checkOwner */\n      tag_135\n        /* \"@openzeppelin/contracts-upgradeable/access/OwnableUpgradeable.sol\":2344:2357  _checkOwner() */\n      jump\t// in\n    tag_321:\n      sub(shl(0xa0, 0x01), 0x01)\n        /* \"@openzeppelin/contracts-upgradeable/access/OwnableUpgradeable.sol\":3499:3521  newOwner == address(0) */\n      dup2\n      and\n        /* \"@openzeppelin/contracts-upgradeable/access/OwnableUpgradeable.sol\":3495:3586  if (newOwner == address(0)) {... */\n      tag_323\n      jumpi\n        /* \"@openzeppelin/contracts-upgradeable/access/OwnableUpgradeable.sol\":3544:3575  OwnableInvalidOwner(address(0)) */\n      mload(0x40)\n      shl(0xe0, 0x1e4fbdf7)\n      dup2\n      mstore\n        /* \"@openzeppelin/contracts-upgradeable/access/OwnableUpgradeable.sol\":3572:3573  0 */\n      0x00\n        /* \"@openzeppelin/contracts-upgradeable/access/OwnableUpgradeable.sol\":3544:3575  OwnableInvalidOwner(address(0)) */\n      0x04\n      dup3\n      add\n        /* \"#utility.yul\":1816:1867   */\n      mstore\n        /* \"#utility.yul\":1789:1807   */\n      0x24\n      add\n        /* \"@openzeppelin/contracts-upgradeable/access/OwnableUpgradeable.sol\":3544:3575  OwnableInvalidOwner(address(0)) */\n      tag_123\n        /* \"#utility.yul\":1641:1873   */\n      jump\n        /* \"@openzeppelin/contracts-upgradeable/access/OwnableUpgradeable.sol\":3495:3586  if (newOwner == address(0)) {... */\n    tag_323:\n        /* \"@openzeppelin/contracts-upgradeable/access/OwnableUpgradeable.sol\":3595:3623  _transferOwnership(newOwner) */\n      tag_325\n        /* \"@openzeppelin/contracts-upgradeable/access/OwnableUpgradeable.sol\":3614:3622  newOwner */\n      dup2\n        /* \"@openzeppelin/contracts-upgradeable/access/OwnableUpgradeable.sol\":3595:3613  _transferOwnership */\n      tag_188\n        /* \"@openzeppelin/contracts-upgradeable/access/OwnableUpgradeable.sol\":3595:3623  _transferOwnership(newOwner) */\n      jump\t// in\n    tag_325:\n        /* \"@openzeppelin/contracts-upgradeable/access/OwnableUpgradeable.sol\":3415:3630  function transferOwnership(address newOwner) public virtual onlyOwner {... */\n      pop\n      jump\t// out\n        /* \"@openzeppelin/contracts-upgradeable/access/OwnableUpgradeable.sol\":1857:1984  function __Ownable_init(address initialOwner) internal onlyInitializing {... */\n    tag_126:\n        /* \"@openzeppelin/contracts-upgradeable/proxy/utils/Initializable.sol\":6931:6951  _checkInitializing() */\n      tag_328\n        /* \"@openzeppelin/contracts-upgradeable/proxy/utils/Initializable.sol\":6931:6949  _checkInitializing */\n      tag_329\n        /* \"@openzeppelin/contracts-upgradeable/proxy/utils/Initializable.sol\":6931:6951  _checkInitializing() */\n      jump\t// in\n    tag_328:\n        /* \"@openzeppelin/contracts-upgradeable/access/OwnableUpgradeable.sol\":1939:1977  __Ownable_init_unchained(initialOwner) */\n      tag_325\n        /* \"@openzeppelin/contracts-upgradeable/access/OwnableUpgradeable.sol\":1964:1976  initialOwner */\n      dup2\n        /* \"@openzeppelin/contracts-upgradeable/access/OwnableUpgradeable.sol\":1939:1963  __Ownable_init_unchained */\n      tag_332\n        /* \"@openzeppelin/contracts-upgradeable/access/OwnableUpgradeable.sol\":1939:1977  __Ownable_init_unchained(initialOwner) */\n      jump\t// in\n        /* \"contracts t-rex/roles/Roles.sol\":4596:4796  function has(Role storage role, address account) internal view returns (bool) {... */\n    tag_132:\n        /* \"contracts t-rex/roles/Roles.sol\":4668:4672  bool */\n      0x00\n      sub(shl(0xa0, 0x01), 0x01)\n        /* \"contracts t-rex/roles/Roles.sol\":4692:4713  account != address(0) */\n      dup3\n      and\n        /* \"contracts t-rex/roles/Roles.sol\":4684:4752  require(account != address(0), \"Roles: account is the zero address\") */\n      tag_334\n      jumpi\n      mload(0x40)\n      shl(0xe5, 0x461bcd)\n      dup2\n      mstore\n        /* \"#utility.yul\":15508:15510   */\n      0x20\n        /* \"contracts t-rex/roles/Roles.sol\":4684:4752  require(account != address(0), \"Roles: account is the zero address\") */\n      0x04\n      dup3\n      add\n        /* \"#utility.yul\":15490:15511   */\n      mstore\n        /* \"#utility.yul\":15547:15549   */\n      0x22\n        /* \"#utility.yul\":15527:15545   */\n      0x24\n      dup3\n      add\n        /* \"#utility.yul\":15520:15550   */\n      mstore\n        /* \"#utility.yul\":15586:15620   */\n      0x526f6c65733a206163636f756e7420697320746865207a65726f206164647265\n        /* \"#utility.yul\":15566:15584   */\n      0x44\n      dup3\n      add\n        /* \"#utility.yul\":15559:15621   */\n      mstore\n      shl(0xf0, 0x7373)\n        /* \"#utility.yul\":15637:15655   */\n      0x64\n      dup3\n      add\n        /* \"#utility.yul\":15630:15662   */\n      mstore\n        /* \"#utility.yul\":15679:15698   */\n      0x84\n      add\n        /* \"contracts t-rex/roles/Roles.sol\":4684:4752  require(account != address(0), \"Roles: account is the zero address\") */\n      tag_123\n        /* \"#utility.yul\":15306:15704   */\n      jump\n        /* \"contracts t-rex/roles/Roles.sol\":4684:4752  require(account != address(0), \"Roles: account is the zero address\") */\n    tag_334:\n      pop\n      sub(shl(0xa0, 0x01), 0x01)\n        /* \"contracts t-rex/roles/Roles.sol\":4769:4789  role.bearer[account] */\n      and\n        /* \"contracts t-rex/roles/Roles.sol\":4769:4780  role.bearer */\n      0x00\n        /* \"contracts t-rex/roles/Roles.sol\":4769:4789  role.bearer[account] */\n      swap1\n      dup2\n      mstore\n      0x20\n      swap2\n      swap1\n      swap2\n      mstore\n      0x40\n      swap1\n      keccak256\n      sload\n      0xff\n      and\n      swap1\n        /* \"contracts t-rex/roles/Roles.sol\":4596:4796  function has(Role storage role, address account) internal view returns (bool) {... */\n      jump\t// out\n        /* \"@openzeppelin/contracts-upgradeable/access/OwnableUpgradeable.sol\":2668:2830  function _checkOwner() internal view virtual {... */\n    tag_135:\n        /* \"@openzeppelin/contracts-upgradeable/utils/ContextUpgradeable.sol\":966:976  msg.sender */\n      caller\n        /* \"@openzeppelin/contracts-upgradeable/access/OwnableUpgradeable.sol\":2727:2734  owner() */\n      tag_340\n        /* \"@openzeppelin/contracts-upgradeable/access/OwnableUpgradeable.sol\":1323:1345  OwnableStorageLocation */\n      0x9016d09d72d40fdae2fd8ceac6b6234c7706214fd39c1cd1e609a0528c199300\n        /* \"@openzeppelin/contracts-upgradeable/access/OwnableUpgradeable.sol\":2580:2588  $._owner */\n      sload\n      sub(shl(0xa0, 0x01), 0x01)\n      and\n      swap1\n        /* \"@openzeppelin/contracts-upgradeable/access/OwnableUpgradeable.sol\":2451:2595  function owner() public view virtual returns (address) {... */\n      jump\n        /* \"@openzeppelin/contracts-upgradeable/access/OwnableUpgradeable.sol\":2727:2734  owner() */\n    tag_340:\n      sub(shl(0xa0, 0x01), 0x01)\n        /* \"@openzeppelin/contracts-upgradeable/access/OwnableUpgradeable.sol\":2727:2750  owner() != _msgSender() */\n      and\n      eq\n        /* \"@openzeppelin/contracts-upgradeable/access/OwnableUpgradeable.sol\":2723:2824  if (owner() != _msgSender()) {... */\n      tag_187\n      jumpi\n        /* \"@openzeppelin/contracts-upgradeable/access/OwnableUpgradeable.sol\":2773:2813  OwnableUnauthorizedAccount(_msgSender()) */\n      mload(0x40)\n      shl(0xe0, 0x118cdaa7)\n      dup2\n      mstore\n        /* \"@openzeppelin/contracts-upgradeable/utils/ContextUpgradeable.sol\":966:976  msg.sender */\n      caller\n        /* \"@openzeppelin/contracts-upgradeable/access/OwnableUpgradeable.sol\":2773:2813  OwnableUnauthorizedAccount(_msgSender()) */\n      0x04\n      dup3\n      add\n        /* \"#utility.yul\":1816:1867   */\n      mstore\n        /* \"#utility.yul\":1789:1807   */\n      0x24\n      add\n        /* \"@openzeppelin/contracts-upgradeable/access/OwnableUpgradeable.sol\":2773:2813  OwnableUnauthorizedAccount(_msgSender()) */\n      tag_123\n        /* \"#utility.yul\":1641:1873   */\n      jump\n        /* \"@openzeppelin/contracts-upgradeable/access/OwnableUpgradeable.sol\":3784:4032  function _transferOwnership(address newOwner) internal virtual {... */\n    tag_188:\n        /* \"@openzeppelin/contracts-upgradeable/access/OwnableUpgradeable.sol\":1323:1345  OwnableStorageLocation */\n      0x9016d09d72d40fdae2fd8ceac6b6234c7706214fd39c1cd1e609a0528c199300\n        /* \"@openzeppelin/contracts-upgradeable/access/OwnableUpgradeable.sol\":3933:3941  $._owner */\n      dup1\n      sload\n      not(sub(shl(0xa0, 0x01), 0x01))\n        /* \"@openzeppelin/contracts-upgradeable/access/OwnableUpgradeable.sol\":3951:3970  $._owner = newOwner */\n      dup2\n      and\n      sub(shl(0xa0, 0x01), 0x01)\n      dup5\n      dup2\n      and\n      swap2\n      dup3\n      or\n      dup5\n      sstore\n        /* \"@openzeppelin/contracts-upgradeable/access/OwnableUpgradeable.sol\":3985:4025  OwnershipTransferred(oldOwner, newOwner) */\n      mload(0x40)\n        /* \"@openzeppelin/contracts-upgradeable/access/OwnableUpgradeable.sol\":3933:3941  $._owner */\n      swap3\n      and\n      swap2\n      dup3\n      swap1\n        /* \"@openzeppelin/contracts-upgradeable/access/OwnableUpgradeable.sol\":3985:4025  OwnershipTransferred(oldOwner, newOwner) */\n      0x8be0079c531659141344cd1fd0a4f28419497f9722a3daafe3b4186f6b6457e0\n      swap1\n        /* \"@openzeppelin/contracts-upgradeable/access/OwnableUpgradeable.sol\":3857:3881  OwnableStorage storage $ */\n      0x00\n      swap1\n        /* \"@openzeppelin/contracts-upgradeable/access/OwnableUpgradeable.sol\":3985:4025  OwnershipTransferred(oldOwner, newOwner) */\n      log3\n        /* \"@openzeppelin/contracts-upgradeable/access/OwnableUpgradeable.sol\":3847:4032  {... */\n      pop\n      pop\n        /* \"@openzeppelin/contracts-upgradeable/access/OwnableUpgradeable.sol\":3784:4032  function _transferOwnership(address newOwner) internal virtual {... */\n      pop\n      jump\t// out\n        /* \"contracts t-rex/roles/Roles.sol\":4077:4252  function add(Role storage role, address account) internal {... */\n    tag_201:\n        /* \"contracts t-rex/roles/Roles.sol\":4154:4172  has(role, account) */\n      tag_347\n        /* \"contracts t-rex/roles/Roles.sol\":4158:4162  role */\n      dup3\n        /* \"contracts t-rex/roles/Roles.sol\":4164:4171  account */\n      dup3\n        /* \"contracts t-rex/roles/Roles.sol\":4154:4157  has */\n      tag_132\n        /* \"contracts t-rex/roles/Roles.sol\":4154:4172  has(role, account) */\n      jump\t// in\n    tag_347:\n        /* \"contracts t-rex/roles/Roles.sol\":4153:4172  !has(role, account) */\n      iszero\n        /* \"contracts t-rex/roles/Roles.sol\":4145:4208  require(!has(role, account), \"Roles: account already has role\") */\n      tag_348\n      jumpi\n      mload(0x40)\n      shl(0xe5, 0x461bcd)\n      dup2\n      mstore\n        /* \"#utility.yul\":15911:15913   */\n      0x20\n        /* \"contracts t-rex/roles/Roles.sol\":4145:4208  require(!has(role, account), \"Roles: account already has role\") */\n      0x04\n      dup3\n      add\n        /* \"#utility.yul\":15893:15914   */\n      mstore\n        /* \"#utility.yul\":15950:15952   */\n      0x1f\n        /* \"#utility.yul\":15930:15948   */\n      0x24\n      dup3\n      add\n        /* \"#utility.yul\":15923:15953   */\n      mstore\n        /* \"#utility.yul\":15989:16022   */\n      0x526f6c65733a206163636f756e7420616c72656164792068617320726f6c6500\n        /* \"#utility.yul\":15969:15987   */\n      0x44\n      dup3\n      add\n        /* \"#utility.yul\":15962:16023   */\n      mstore\n        /* \"#utility.yul\":16040:16058   */\n      0x64\n      add\n        /* \"contracts t-rex/roles/Roles.sol\":4145:4208  require(!has(role, account), \"Roles: account already has role\") */\n      tag_123\n        /* \"#utility.yul\":15709:16064   */\n      jump\n        /* \"contracts t-rex/roles/Roles.sol\":4145:4208  require(!has(role, account), \"Roles: account already has role\") */\n    tag_348:\n      sub(shl(0xa0, 0x01), 0x01)\n        /* \"contracts t-rex/roles/Roles.sol\":4218:4238  role.bearer[account] */\n      and\n        /* \"contracts t-rex/roles/Roles.sol\":4218:4229  role.bearer */\n      0x00\n        /* \"contracts t-rex/roles/Roles.sol\":4218:4238  role.bearer[account] */\n      swap1\n      dup2\n      mstore\n      0x20\n      swap2\n      swap1\n      swap2\n      mstore\n      0x40\n      swap1\n      keccak256\n        /* \"contracts t-rex/roles/Roles.sol\":4218:4245  role.bearer[account] = true */\n      dup1\n      sload\n      not(0xff)\n      and\n        /* \"contracts t-rex/roles/Roles.sol\":4241:4245  true */\n      0x01\n        /* \"contracts t-rex/roles/Roles.sol\":4218:4245  role.bearer[account] = true */\n      or\n      swap1\n      sstore\n        /* \"contracts t-rex/roles/Roles.sol\":4077:4252  function add(Role storage role, address account) internal {... */\n      jump\t// out\n        /* \"contracts t-rex/roles/Roles.sol\":4327:4507  function remove(Role storage role, address account) internal {... */\n    tag_222:\n        /* \"contracts t-rex/roles/Roles.sol\":4406:4424  has(role, account) */\n      tag_353\n        /* \"contracts t-rex/roles/Roles.sol\":4410:4414  role */\n      dup3\n        /* \"contracts t-rex/roles/Roles.sol\":4416:4423  account */\n      dup3\n        /* \"contracts t-rex/roles/Roles.sol\":4406:4409  has */\n      tag_132\n        /* \"contracts t-rex/roles/Roles.sol\":4406:4424  has(role, account) */\n      jump\t// in\n    tag_353:\n        /* \"contracts t-rex/roles/Roles.sol\":4398:4462  require(has(role, account), \"Roles: account does not have role\") */\n      tag_354\n      jumpi\n      mload(0x40)\n      shl(0xe5, 0x461bcd)\n      dup2\n      mstore\n        /* \"#utility.yul\":16271:16273   */\n      0x20\n        /* \"contracts t-rex/roles/Roles.sol\":4398:4462  require(has(role, account), \"Roles: account does not have role\") */\n      0x04\n      dup3\n      add\n        /* \"#utility.yul\":16253:16274   */\n      mstore\n        /* \"#utility.yul\":16310:16312   */\n      0x21\n        /* \"#utility.yul\":16290:16308   */\n      0x24\n      dup3\n      add\n        /* \"#utility.yul\":16283:16313   */\n      mstore\n        /* \"#utility.yul\":16349:16383   */\n      0x526f6c65733a206163636f756e7420646f6573206e6f74206861766520726f6c\n        /* \"#utility.yul\":16329:16347   */\n      0x44\n      dup3\n      add\n        /* \"#utility.yul\":16322:16384   */\n      mstore\n      shl(0xf8, 0x65)\n        /* \"#utility.yul\":16400:16418   */\n      0x64\n      dup3\n      add\n        /* \"#utility.yul\":16393:16424   */\n      mstore\n        /* \"#utility.yul\":16441:16460   */\n      0x84\n      add\n        /* \"contracts t-rex/roles/Roles.sol\":4398:4462  require(has(role, account), \"Roles: account does not have role\") */\n      tag_123\n        /* \"#utility.yul\":16069:16466   */\n      jump\n        /* \"contracts t-rex/roles/Roles.sol\":4398:4462  require(has(role, account), \"Roles: account does not have role\") */\n    tag_354:\n      sub(shl(0xa0, 0x01), 0x01)\n        /* \"contracts t-rex/roles/Roles.sol\":4472:4492  role.bearer[account] */\n      and\n        /* \"contracts t-rex/roles/Roles.sol\":4495:4500  false */\n      0x00\n        /* \"contracts t-rex/roles/Roles.sol\":4472:4492  role.bearer[account] */\n      swap1\n      dup2\n      mstore\n      0x20\n      swap2\n      swap1\n      swap2\n      mstore\n      0x40\n      swap1\n      keccak256\n        /* \"contracts t-rex/roles/Roles.sol\":4472:4500  role.bearer[account] = false */\n      dup1\n      sload\n      not(0xff)\n      and\n      swap1\n      sstore\n        /* \"contracts t-rex/roles/Roles.sol\":4327:4507  function remove(Role storage role, address account) internal {... */\n      jump\t// out\n        /* \"@openzeppelin/contracts-upgradeable/proxy/utils/Initializable.sol\":7084:7225  function _checkInitializing() internal view virtual {... */\n    tag_329:\n        /* \"@openzeppelin/contracts-upgradeable/proxy/utils/Initializable.sol\":8870:8891  INITIALIZABLE_STORAGE */\n      0xf0c57e16840df040f15088dc2f81fe391c3923bec73e23a9662efc9c229c6a00\n        /* \"@openzeppelin/contracts-upgradeable/proxy/utils/Initializable.sol\":8560:8600  _getInitializableStorage()._initializing */\n      sload\n      shl(0x40, 0x01)\n      swap1\n      div\n      0xff\n      and\n        /* \"@openzeppelin/contracts-upgradeable/proxy/utils/Initializable.sol\":7146:7219  if (!_isInitializing()) {... */\n      tag_187\n      jumpi\n        /* \"@openzeppelin/contracts-upgradeable/proxy/utils/Initializable.sol\":7191:7208  NotInitializing() */\n      mload(0x40)\n      shl(0xe3, 0x1afcd79f)\n      dup2\n      mstore\n      0x04\n      add\n      mload(0x40)\n      dup1\n      swap2\n      sub\n      swap1\n      revert\n        /* \"@openzeppelin/contracts-upgradeable/access/OwnableUpgradeable.sol\":1990:2225  function __Ownable_init_unchained(address initialOwner) internal onlyInitializing {... */\n    tag_332:\n        /* \"@openzeppelin/contracts-upgradeable/proxy/utils/Initializable.sol\":6931:6951  _checkInitializing() */\n      tag_321\n        /* \"@openzeppelin/contracts-upgradeable/proxy/utils/Initializable.sol\":6931:6949  _checkInitializing */\n      tag_329\n        /* \"@openzeppelin/contracts-upgradeable/proxy/utils/Initializable.sol\":6931:6951  _checkInitializing() */\n      jump\t// in\n        /* \"#utility.yul\":14:145   */\n    tag_370:\n      sub(shl(0xa0, 0x01), 0x01)\n        /* \"#utility.yul\":89:120   */\n      dup2\n      and\n        /* \"#utility.yul\":79:121   */\n      dup2\n      eq\n        /* \"#utility.yul\":69:139   */\n      tag_325\n      jumpi\n        /* \"#utility.yul\":135:136   */\n      0x00\n        /* \"#utility.yul\":132:133   */\n      dup1\n        /* \"#utility.yul\":125:137   */\n      revert\n        /* \"#utility.yul\":150:679   */\n    tag_30:\n        /* \"#utility.yul\":227:233   */\n      0x00\n        /* \"#utility.yul\":235:241   */\n      dup1\n        /* \"#utility.yul\":243:249   */\n      0x00\n        /* \"#utility.yul\":296:298   */\n      0x60\n        /* \"#utility.yul\":284:293   */\n      dup5\n        /* \"#utility.yul\":275:282   */\n      dup7\n        /* \"#utility.yul\":271:294   */\n      sub\n        /* \"#utility.yul\":267:299   */\n      slt\n        /* \"#utility.yul\":264:316   */\n      iszero\n      tag_384\n      jumpi\n        /* \"#utility.yul\":312:313   */\n      0x00\n        /* \"#utility.yul\":309:310   */\n      dup1\n        /* \"#utility.yul\":302:314   */\n      revert\n        /* \"#utility.yul\":264:316   */\n    tag_384:\n        /* \"#utility.yul\":351:360   */\n      dup4\n        /* \"#utility.yul\":338:361   */\n      calldataload\n        /* \"#utility.yul\":370:401   */\n      tag_385\n        /* \"#utility.yul\":395:400   */\n      dup2\n        /* \"#utility.yul\":370:401   */\n      tag_370\n      jump\t// in\n    tag_385:\n        /* \"#utility.yul\":420:425   */\n      swap3\n      pop\n        /* \"#utility.yul\":477:479   */\n      0x20\n        /* \"#utility.yul\":462:480   */\n      dup5\n      add\n        /* \"#utility.yul\":449:481   */\n      calldataload\n        /* \"#utility.yul\":490:523   */\n      tag_386\n        /* \"#utility.yul\":449:481   */\n      dup2\n        /* \"#utility.yul\":490:523   */\n      tag_370\n      jump\t// in\n    tag_386:\n        /* \"#utility.yul\":542:549   */\n      swap2\n      pop\n        /* \"#utility.yul\":601:603   */\n      0x40\n        /* \"#utility.yul\":586:604   */\n      dup5\n      add\n        /* \"#utility.yul\":573:605   */\n      calldataload\n        /* \"#utility.yul\":614:647   */\n      tag_387\n        /* \"#utility.yul\":573:605   */\n      dup2\n        /* \"#utility.yul\":614:647   */\n      tag_370\n      jump\t// in\n    tag_387:\n        /* \"#utility.yul\":666:673   */\n      dup1\n        /* \"#utility.yul\":656:673   */\n      swap2\n      pop\n      pop\n        /* \"#utility.yul\":150:679   */\n      swap3\n      pop\n      swap3\n      pop\n      swap3\n      jump\t// out\n        /* \"#utility.yul\":684:931   */\n    tag_34:\n        /* \"#utility.yul\":743:749   */\n      0x00\n        /* \"#utility.yul\":796:798   */\n      0x20\n        /* \"#utility.yul\":784:793   */\n      dup3\n        /* \"#utility.yul\":775:782   */\n      dup5\n        /* \"#utility.yul\":771:794   */\n      sub\n        /* \"#utility.yul\":767:799   */\n      slt\n        /* \"#utility.yul\":764:816   */\n      iszero\n      tag_389\n      jumpi\n        /* \"#utility.yul\":812:813   */\n      0x00\n        /* \"#utility.yul\":809:810   */\n      dup1\n        /* \"#utility.yul\":802:814   */\n      revert\n        /* \"#utility.yul\":764:816   */\n    tag_389:\n        /* \"#utility.yul\":851:860   */\n      dup2\n        /* \"#utility.yul\":838:861   */\n      calldataload\n        /* \"#utility.yul\":870:901   */\n      tag_390\n        /* \"#utility.yul\":895:900   */\n      dup2\n        /* \"#utility.yul\":870:901   */\n      tag_370\n      jump\t// in\n    tag_390:\n        /* \"#utility.yul\":920:925   */\n      swap4\n        /* \"#utility.yul\":684:931   */\n      swap3\n      pop\n      pop\n      pop\n      jump\t// out\n        /* \"#utility.yul\":1128:1245   */\n    tag_371:\n        /* \"#utility.yul\":1213:1219   */\n      0xffff\n        /* \"#utility.yul\":1206:1211   */\n      dup2\n        /* \"#utility.yul\":1202:1220   */\n      and\n        /* \"#utility.yul\":1195:1200   */\n      dup2\n        /* \"#utility.yul\":1192:1221   */\n      eq\n        /* \"#utility.yul\":1182:1239   */\n      tag_325\n      jumpi\n        /* \"#utility.yul\":1235:1236   */\n      0x00\n        /* \"#utility.yul\":1232:1233   */\n      dup1\n        /* \"#utility.yul\":1225:1237   */\n      revert\n        /* \"#utility.yul\":1250:1636   */\n    tag_43:\n        /* \"#utility.yul\":1317:1323   */\n      0x00\n        /* \"#utility.yul\":1325:1331   */\n      dup1\n        /* \"#utility.yul\":1378:1380   */\n      0x40\n        /* \"#utility.yul\":1366:1375   */\n      dup4\n        /* \"#utility.yul\":1357:1364   */\n      dup6\n        /* \"#utility.yul\":1353:1376   */\n      sub\n        /* \"#utility.yul\":1349:1381   */\n      slt\n        /* \"#utility.yul\":1346:1398   */\n      iszero\n      tag_395\n      jumpi\n        /* \"#utility.yul\":1394:1395   */\n      0x00\n        /* \"#utility.yul\":1391:1392   */\n      dup1\n        /* \"#utility.yul\":1384:1396   */\n      revert\n        /* \"#utility.yul\":1346:1398   */\n    tag_395:\n        /* \"#utility.yul\":1433:1442   */\n      dup3\n        /* \"#utility.yul\":1420:1443   */\n      calldataload\n        /* \"#utility.yul\":1452:1483   */\n      tag_396\n        /* \"#utility.yul\":1477:1482   */\n      dup2\n        /* \"#utility.yul\":1452:1483   */\n      tag_370\n      jump\t// in\n    tag_396:\n        /* \"#utility.yul\":1502:1507   */\n      swap2\n      pop\n        /* \"#utility.yul\":1559:1561   */\n      0x20\n        /* \"#utility.yul\":1544:1562   */\n      dup4\n      add\n        /* \"#utility.yul\":1531:1563   */\n      calldataload\n        /* \"#utility.yul\":1572:1604   */\n      tag_397\n        /* \"#utility.yul\":1531:1563   */\n      dup2\n        /* \"#utility.yul\":1572:1604   */\n      tag_371\n      jump\t// in\n    tag_397:\n        /* \"#utility.yul\":1623:1630   */\n      dup1\n        /* \"#utility.yul\":1613:1630   */\n      swap2\n      pop\n      pop\n        /* \"#utility.yul\":1250:1636   */\n      swap3\n      pop\n      swap3\n      swap1\n      pop\n      jump\t// out\n        /* \"#utility.yul\":1878:2422   */\n    tag_51:\n        /* \"#utility.yul\":1971:1977   */\n      0x00\n        /* \"#utility.yul\":1979:1985   */\n      dup1\n        /* \"#utility.yul\":1987:1993   */\n      0x00\n        /* \"#utility.yul\":2040:2042   */\n      0x60\n        /* \"#utility.yul\":2028:2037   */\n      dup5\n        /* \"#utility.yul\":2019:2026   */\n      dup7\n        /* \"#utility.yul\":2015:2038   */\n      sub\n        /* \"#utility.yul\":2011:2043   */\n      slt\n        /* \"#utility.yul\":2008:2060   */\n      iszero\n      tag_400\n      jumpi\n        /* \"#utility.yul\":2056:2057   */\n      0x00\n        /* \"#utility.yul\":2053:2054   */\n      dup1\n        /* \"#utility.yul\":2046:2058   */\n      revert\n        /* \"#utility.yul\":2008:2060   */\n    tag_400:\n        /* \"#utility.yul\":2095:2104   */\n      dup4\n        /* \"#utility.yul\":2082:2105   */\n      calldataload\n        /* \"#utility.yul\":2114:2145   */\n      tag_401\n        /* \"#utility.yul\":2139:2144   */\n      dup2\n        /* \"#utility.yul\":2114:2145   */\n      tag_370\n      jump\t// in\n    tag_401:\n        /* \"#utility.yul\":2164:2169   */\n      swap3\n      pop\n        /* \"#utility.yul\":2221:2223   */\n      0x20\n        /* \"#utility.yul\":2206:2224   */\n      dup5\n      add\n        /* \"#utility.yul\":2193:2225   */\n      calldataload\n        /* \"#utility.yul\":2234:2267   */\n      tag_402\n        /* \"#utility.yul\":2193:2225   */\n      dup2\n        /* \"#utility.yul\":2234:2267   */\n      tag_370\n      jump\t// in\n    tag_402:\n        /* \"#utility.yul\":2286:2293   */\n      swap2\n      pop\n        /* \"#utility.yul\":2345:2347   */\n      0x40\n        /* \"#utility.yul\":2330:2348   */\n      dup5\n      add\n        /* \"#utility.yul\":2317:2349   */\n      calldataload\n        /* \"#utility.yul\":2358:2390   */\n      tag_387\n        /* \"#utility.yul\":2317:2349   */\n      dup2\n        /* \"#utility.yul\":2358:2390   */\n      tag_371\n      jump\t// in\n        /* \"#utility.yul\":2427:2794   */\n    tag_372:\n        /* \"#utility.yul\":2490:2498   */\n      0x00\n        /* \"#utility.yul\":2500:2506   */\n      dup1\n        /* \"#utility.yul\":2554:2557   */\n      dup4\n        /* \"#utility.yul\":2547:2551   */\n      0x1f\n        /* \"#utility.yul\":2539:2545   */\n      dup5\n        /* \"#utility.yul\":2535:2552   */\n      add\n        /* \"#utility.yul\":2531:2558   */\n      slt\n        /* \"#utility.yul\":2521:2576   */\n      tag_405\n      jumpi\n        /* \"#utility.yul\":2572:2573   */\n      0x00\n        /* \"#utility.yul\":2569:2570   */\n      dup1\n        /* \"#utility.yul\":2562:2574   */\n      revert\n        /* \"#utility.yul\":2521:2576   */\n    tag_405:\n      pop\n        /* \"#utility.yul\":2595:2615   */\n      dup2\n      calldataload\n        /* \"#utility.yul\":2638:2656   */\n      0xffffffffffffffff\n        /* \"#utility.yul\":2627:2657   */\n      dup2\n      gt\n        /* \"#utility.yul\":2624:2674   */\n      iszero\n      tag_406\n      jumpi\n        /* \"#utility.yul\":2670:2671   */\n      0x00\n        /* \"#utility.yul\":2667:2668   */\n      dup1\n        /* \"#utility.yul\":2660:2672   */\n      revert\n        /* \"#utility.yul\":2624:2674   */\n    tag_406:\n        /* \"#utility.yul\":2707:2711   */\n      0x20\n        /* \"#utility.yul\":2699:2705   */\n      dup4\n        /* \"#utility.yul\":2695:2712   */\n      add\n        /* \"#utility.yul\":2683:2712   */\n      swap2\n      pop\n        /* \"#utility.yul\":2767:2770   */\n      dup4\n        /* \"#utility.yul\":2760:2764   */\n      0x20\n        /* \"#utility.yul\":2750:2756   */\n      dup3\n        /* \"#utility.yul\":2747:2748   */\n      0x05\n        /* \"#utility.yul\":2743:2757   */\n      shl\n        /* \"#utility.yul\":2735:2741   */\n      dup6\n        /* \"#utility.yul\":2731:2758   */\n      add\n        /* \"#utility.yul\":2727:2765   */\n      add\n        /* \"#utility.yul\":2724:2771   */\n      gt\n        /* \"#utility.yul\":2721:2788   */\n      iszero\n      tag_407\n      jumpi\n        /* \"#utility.yul\":2784:2785   */\n      0x00\n        /* \"#utility.yul\":2781:2782   */\n      dup1\n        /* \"#utility.yul\":2774:2786   */\n      revert\n        /* \"#utility.yul\":2721:2788   */\n    tag_407:\n        /* \"#utility.yul\":2427:2794   */\n      swap3\n      pop\n      swap3\n      swap1\n      pop\n      jump\t// out\n        /* \"#utility.yul\":2799:3903   */\n    tag_59:\n        /* \"#utility.yul\":2973:2979   */\n      0x00\n        /* \"#utility.yul\":2981:2987   */\n      dup1\n        /* \"#utility.yul\":2989:2995   */\n      0x00\n        /* \"#utility.yul\":2997:3003   */\n      dup1\n        /* \"#utility.yul\":3005:3011   */\n      0x00\n        /* \"#utility.yul\":3013:3019   */\n      dup1\n        /* \"#utility.yul\":3066:3068   */\n      0x60\n        /* \"#utility.yul\":3054:3063   */\n      dup8\n        /* \"#utility.yul\":3045:3052   */\n      dup10\n        /* \"#utility.yul\":3041:3064   */\n      sub\n        /* \"#utility.yul\":3037:3069   */\n      slt\n        /* \"#utility.yul\":3034:3086   */\n      iszero\n      tag_409\n      jumpi\n        /* \"#utility.yul\":3082:3083   */\n      0x00\n        /* \"#utility.yul\":3079:3080   */\n      dup1\n        /* \"#utility.yul\":3072:3084   */\n      revert\n        /* \"#utility.yul\":3034:3086   */\n    tag_409:\n        /* \"#utility.yul\":3122:3131   */\n      dup7\n        /* \"#utility.yul\":3109:3132   */\n      calldataload\n        /* \"#utility.yul\":3151:3169   */\n      0xffffffffffffffff\n        /* \"#utility.yul\":3192:3194   */\n      dup1\n        /* \"#utility.yul\":3184:3190   */\n      dup3\n        /* \"#utility.yul\":3181:3195   */\n      gt\n        /* \"#utility.yul\":3178:3212   */\n      iszero\n      tag_410\n      jumpi\n        /* \"#utility.yul\":3208:3209   */\n      0x00\n        /* \"#utility.yul\":3205:3206   */\n      dup1\n        /* \"#utility.yul\":3198:3210   */\n      revert\n        /* \"#utility.yul\":3178:3212   */\n    tag_410:\n        /* \"#utility.yul\":3247:3317   */\n      tag_411\n        /* \"#utility.yul\":3309:3316   */\n      dup11\n        /* \"#utility.yul\":3300:3306   */\n      dup4\n        /* \"#utility.yul\":3289:3298   */\n      dup12\n        /* \"#utility.yul\":3285:3307   */\n      add\n        /* \"#utility.yul\":3247:3317   */\n      tag_372\n      jump\t// in\n    tag_411:\n        /* \"#utility.yul\":3336:3344   */\n      swap1\n      swap9\n      pop\n        /* \"#utility.yul\":3221:3317   */\n      swap7\n      pop\n        /* \"#utility.yul\":3424:3426   */\n      0x20\n        /* \"#utility.yul\":3409:3427   */\n      dup10\n      add\n        /* \"#utility.yul\":3396:3428   */\n      calldataload\n      swap2\n      pop\n        /* \"#utility.yul\":3440:3456   */\n      dup1\n      dup3\n      gt\n        /* \"#utility.yul\":3437:3473   */\n      iszero\n      tag_412\n      jumpi\n        /* \"#utility.yul\":3469:3470   */\n      0x00\n        /* \"#utility.yul\":3466:3467   */\n      dup1\n        /* \"#utility.yul\":3459:3471   */\n      revert\n        /* \"#utility.yul\":3437:3473   */\n    tag_412:\n        /* \"#utility.yul\":3508:3580   */\n      tag_413\n        /* \"#utility.yul\":3572:3579   */\n      dup11\n        /* \"#utility.yul\":3561:3569   */\n      dup4\n        /* \"#utility.yul\":3550:3559   */\n      dup12\n        /* \"#utility.yul\":3546:3570   */\n      add\n        /* \"#utility.yul\":3508:3580   */\n      tag_372\n      jump\t// in\n    tag_413:\n        /* \"#utility.yul\":3599:3607   */\n      swap1\n      swap7\n      pop\n        /* \"#utility.yul\":3482:3580   */\n      swap5\n      pop\n        /* \"#utility.yul\":3687:3689   */\n      0x40\n        /* \"#utility.yul\":3672:3690   */\n      dup10\n      add\n        /* \"#utility.yul\":3659:3691   */\n      calldataload\n      swap2\n      pop\n        /* \"#utility.yul\":3703:3719   */\n      dup1\n      dup3\n      gt\n        /* \"#utility.yul\":3700:3736   */\n      iszero\n      tag_414\n      jumpi\n        /* \"#utility.yul\":3732:3733   */\n      0x00\n        /* \"#utility.yul\":3729:3730   */\n      dup1\n        /* \"#utility.yul\":3722:3734   */\n      revert\n        /* \"#utility.yul\":3700:3736   */\n    tag_414:\n      pop\n        /* \"#utility.yul\":3771:3843   */\n      tag_415\n        /* \"#utility.yul\":3835:3842   */\n      dup10\n        /* \"#utility.yul\":3824:3832   */\n      dup3\n        /* \"#utility.yul\":3813:3822   */\n      dup11\n        /* \"#utility.yul\":3809:3833   */\n      add\n        /* \"#utility.yul\":3771:3843   */\n      tag_372\n      jump\t// in\n    tag_415:\n        /* \"#utility.yul\":2799:3903   */\n      swap8\n      swap11\n      swap7\n      swap10\n      pop\n      swap5\n      swap8\n      pop\n      swap3\n      swap6\n        /* \"#utility.yul\":3862:3870   */\n      swap4\n      swap5\n        /* \"#utility.yul\":2799:3903   */\n      swap3\n      pop\n      pop\n      pop\n      jump\t// out\n        /* \"#utility.yul\":4309:4714   */\n    tag_80:\n        /* \"#utility.yul\":4394:4400   */\n      0x00\n        /* \"#utility.yul\":4402:4408   */\n      dup1\n        /* \"#utility.yul\":4455:4457   */\n      0x40\n        /* \"#utility.yul\":4443:4452   */\n      dup4\n        /* \"#utility.yul\":4434:4441   */\n      dup6\n        /* \"#utility.yul\":4430:4453   */\n      sub\n        /* \"#utility.yul\":4426:4458   */\n      slt\n        /* \"#utility.yul\":4423:4475   */\n      iszero\n      tag_419\n      jumpi\n        /* \"#utility.yul\":4471:4472   */\n      0x00\n        /* \"#utility.yul\":4468:4469   */\n      dup1\n        /* \"#utility.yul\":4461:4473   */\n      revert\n        /* \"#utility.yul\":4423:4475   */\n    tag_419:\n        /* \"#utility.yul\":4510:4519   */\n      dup3\n        /* \"#utility.yul\":4497:4520   */\n      calldataload\n        /* \"#utility.yul\":4529:4560   */\n      tag_420\n        /* \"#utility.yul\":4554:4559   */\n      dup2\n        /* \"#utility.yul\":4529:4560   */\n      tag_370\n      jump\t// in\n    tag_420:\n        /* \"#utility.yul\":4579:4584   */\n      swap2\n      pop\n        /* \"#utility.yul\":4636:4638   */\n      0x20\n        /* \"#utility.yul\":4621:4639   */\n      dup4\n      add\n        /* \"#utility.yul\":4608:4640   */\n      calldataload\n        /* \"#utility.yul\":4649:4682   */\n      tag_397\n        /* \"#utility.yul\":4608:4640   */\n      dup2\n        /* \"#utility.yul\":4649:4682   */\n      tag_370\n      jump\t// in\n        /* \"#utility.yul\":5425:5780   */\n    tag_124:\n        /* \"#utility.yul\":5627:5629   */\n      0x20\n        /* \"#utility.yul\":5609:5630   */\n      dup1\n      dup3\n      mstore\n        /* \"#utility.yul\":5666:5668   */\n      0x1f\n        /* \"#utility.yul\":5646:5664   */\n      swap1\n      dup3\n      add\n        /* \"#utility.yul\":5639:5669   */\n      mstore\n        /* \"#utility.yul\":5705:5738   */\n      0x696e76616c696420617267756d656e74202d207a65726f206164647265737300\n        /* \"#utility.yul\":5700:5702   */\n      0x40\n        /* \"#utility.yul\":5685:5703   */\n      dup3\n      add\n        /* \"#utility.yul\":5678:5739   */\n      mstore\n        /* \"#utility.yul\":5771:5773   */\n      0x60\n        /* \"#utility.yul\":5756:5774   */\n      add\n      swap1\n        /* \"#utility.yul\":5425:5780   */\n      jump\t// out\n        /* \"#utility.yul\":5999:6409   */\n    tag_141:\n        /* \"#utility.yul\":6201:6203   */\n      0x20\n        /* \"#utility.yul\":6183:6204   */\n      dup1\n      dup3\n      mstore\n        /* \"#utility.yul\":6240:6242   */\n      0x2e\n        /* \"#utility.yul\":6220:6238   */\n      swap1\n      dup3\n      add\n        /* \"#utility.yul\":6213:6243   */\n      mstore\n        /* \"#utility.yul\":6279:6313   */\n      0x4167656e74526f6c653a2063616c6c657220646f6573206e6f74206861766520\n        /* \"#utility.yul\":6274:6276   */\n      0x40\n        /* \"#utility.yul\":6259:6277   */\n      dup3\n      add\n        /* \"#utility.yul\":6252:6314   */\n      mstore\n      shl(0x90, 0x746865204167656e7420726f6c65)\n        /* \"#utility.yul\":6345:6347   */\n      0x60\n        /* \"#utility.yul\":6330:6348   */\n      dup3\n      add\n        /* \"#utility.yul\":6323:6367   */\n      mstore\n        /* \"#utility.yul\":6399:6402   */\n      0x80\n        /* \"#utility.yul\":6384:6403   */\n      add\n      swap1\n        /* \"#utility.yul\":5999:6409   */\n      jump\t// out\n        /* \"#utility.yul\":7112:7239   */\n    tag_169:\n        /* \"#utility.yul\":7173:7183   */\n      0x4e487b71\n        /* \"#utility.yul\":7168:7171   */\n      0xe0\n        /* \"#utility.yul\":7164:7184   */\n      shl\n        /* \"#utility.yul\":7161:7162   */\n      0x00\n        /* \"#utility.yul\":7154:7185   */\n      mstore\n        /* \"#utility.yul\":7204:7208   */\n      0x32\n        /* \"#utility.yul\":7201:7202   */\n      0x04\n        /* \"#utility.yul\":7194:7209   */\n      mstore\n        /* \"#utility.yul\":7228:7232   */\n      0x24\n        /* \"#utility.yul\":7225:7226   */\n      0x00\n        /* \"#utility.yul\":7218:7233   */\n      revert\n        /* \"#utility.yul\":7513:7758   */\n    tag_178:\n        /* \"#utility.yul\":7571:7577   */\n      0x00\n        /* \"#utility.yul\":7624:7626   */\n      0x20\n        /* \"#utility.yul\":7612:7621   */\n      dup3\n        /* \"#utility.yul\":7603:7610   */\n      dup5\n        /* \"#utility.yul\":7599:7622   */\n      sub\n        /* \"#utility.yul\":7595:7627   */\n      slt\n        /* \"#utility.yul\":7592:7644   */\n      iszero\n      tag_435\n      jumpi\n        /* \"#utility.yul\":7640:7641   */\n      0x00\n        /* \"#utility.yul\":7637:7638   */\n      dup1\n        /* \"#utility.yul\":7630:7642   */\n      revert\n        /* \"#utility.yul\":7592:7644   */\n    tag_435:\n        /* \"#utility.yul\":7679:7688   */\n      dup2\n        /* \"#utility.yul\":7666:7689   */\n      calldataload\n        /* \"#utility.yul\":7698:7728   */\n      tag_390\n        /* \"#utility.yul\":7722:7727   */\n      dup2\n        /* \"#utility.yul\":7698:7728   */\n      tag_371\n      jump\t// in\n        /* \"#utility.yul\":7763:7890   */\n    tag_373:\n        /* \"#utility.yul\":7824:7834   */\n      0x4e487b71\n        /* \"#utility.yul\":7819:7822   */\n      0xe0\n        /* \"#utility.yul\":7815:7835   */\n      shl\n        /* \"#utility.yul\":7812:7813   */\n      0x00\n        /* \"#utility.yul\":7805:7836   */\n      mstore\n        /* \"#utility.yul\":7855:7859   */\n      0x11\n        /* \"#utility.yul\":7852:7853   */\n      0x04\n        /* \"#utility.yul\":7845:7860   */\n      mstore\n        /* \"#utility.yul\":7879:7883   */\n      0x24\n        /* \"#utility.yul\":7876:7877   */\n      0x00\n        /* \"#utility.yul\":7869:7884   */\n      revert\n        /* \"#utility.yul\":7895:8030   */\n    tag_180:\n        /* \"#utility.yul\":7934:7937   */\n      0x00\n        /* \"#utility.yul\":7955:7972   */\n      0x01\n      dup3\n      add\n        /* \"#utility.yul\":7952:7995   */\n      tag_440\n      jumpi\n        /* \"#utility.yul\":7975:7993   */\n      tag_440\n      tag_373\n      jump\t// in\n    tag_440:\n      pop\n        /* \"#utility.yul\":8022:8023   */\n      0x01\n        /* \"#utility.yul\":8011:8024   */\n      add\n      swap1\n        /* \"#utility.yul\":7895:8030   */\n      jump\t// out\n        /* \"#utility.yul\":8035:8284   */\n    tag_194:\n        /* \"#utility.yul\":8104:8110   */\n      0x00\n        /* \"#utility.yul\":8157:8159   */\n      0x20\n        /* \"#utility.yul\":8145:8154   */\n      dup3\n        /* \"#utility.yul\":8136:8143   */\n      dup5\n        /* \"#utility.yul\":8132:8155   */\n      sub\n        /* \"#utility.yul\":8128:8160   */\n      slt\n        /* \"#utility.yul\":8125:8177   */\n      iszero\n      tag_442\n      jumpi\n        /* \"#utility.yul\":8173:8174   */\n      0x00\n        /* \"#utility.yul\":8170:8171   */\n      dup1\n        /* \"#utility.yul\":8163:8175   */\n      revert\n        /* \"#utility.yul\":8125:8177   */\n    tag_442:\n        /* \"#utility.yul\":8205:8214   */\n      dup2\n        /* \"#utility.yul\":8199:8215   */\n      mload\n        /* \"#utility.yul\":8224:8254   */\n      tag_390\n        /* \"#utility.yul\":8248:8253   */\n      dup2\n        /* \"#utility.yul\":8224:8254   */\n      tag_371\n      jump\t// in\n        /* \"#utility.yul\":8615:8742   */\n    tag_256:\n        /* \"#utility.yul\":8676:8686   */\n      0x4e487b71\n        /* \"#utility.yul\":8671:8674   */\n      0xe0\n        /* \"#utility.yul\":8667:8687   */\n      shl\n        /* \"#utility.yul\":8664:8665   */\n      0x00\n        /* \"#utility.yul\":8657:8688   */\n      mstore\n        /* \"#utility.yul\":8707:8711   */\n      0x41\n        /* \"#utility.yul\":8704:8705   */\n      0x04\n        /* \"#utility.yul\":8697:8712   */\n      mstore\n        /* \"#utility.yul\":8731:8735   */\n      0x24\n        /* \"#utility.yul\":8728:8729   */\n      0x00\n        /* \"#utility.yul\":8721:8736   */\n      revert\n        /* \"#utility.yul\":8747:9022   */\n    tag_374:\n        /* \"#utility.yul\":8818:8820   */\n      0x40\n        /* \"#utility.yul\":8812:8821   */\n      mload\n        /* \"#utility.yul\":8883:8885   */\n      0x1f\n        /* \"#utility.yul\":8864:8877   */\n      dup3\n      add\n      not(0x1f)\n        /* \"#utility.yul\":8860:8887   */\n      and\n        /* \"#utility.yul\":8848:8888   */\n      dup2\n      add\n        /* \"#utility.yul\":8918:8936   */\n      0xffffffffffffffff\n        /* \"#utility.yul\":8903:8937   */\n      dup2\n      gt\n        /* \"#utility.yul\":8939:8961   */\n      dup3\n      dup3\n      lt\n        /* \"#utility.yul\":8900:8962   */\n      or\n        /* \"#utility.yul\":8897:8985   */\n      iszero\n      tag_448\n      jumpi\n        /* \"#utility.yul\":8965:8983   */\n      tag_448\n      tag_256\n      jump\t// in\n    tag_448:\n        /* \"#utility.yul\":9001:9003   */\n      0x40\n        /* \"#utility.yul\":8994:9016   */\n      mstore\n        /* \"#utility.yul\":8747:9022   */\n      swap2\n      swap1\n      pop\n      jump\t// out\n        /* \"#utility.yul\":9027:9210   */\n    tag_375:\n        /* \"#utility.yul\":9087:9091   */\n      0x00\n        /* \"#utility.yul\":9120:9138   */\n      0xffffffffffffffff\n        /* \"#utility.yul\":9112:9118   */\n      dup3\n        /* \"#utility.yul\":9109:9139   */\n      gt\n        /* \"#utility.yul\":9106:9162   */\n      iszero\n      tag_451\n      jumpi\n        /* \"#utility.yul\":9142:9160   */\n      tag_451\n      tag_256\n      jump\t// in\n    tag_451:\n      pop\n        /* \"#utility.yul\":9187:9188   */\n      0x05\n        /* \"#utility.yul\":9183:9197   */\n      shl\n        /* \"#utility.yul\":9199:9203   */\n      0x20\n        /* \"#utility.yul\":9179:9204   */\n      add\n      swap1\n        /* \"#utility.yul\":9027:9210   */\n      jump\t// out\n        /* \"#utility.yul\":9215:10096   */\n    tag_240:\n        /* \"#utility.yul\":9310:9316   */\n      0x00\n        /* \"#utility.yul\":9341:9343   */\n      0x20\n        /* \"#utility.yul\":9384:9386   */\n      dup1\n        /* \"#utility.yul\":9372:9381   */\n      dup4\n        /* \"#utility.yul\":9363:9370   */\n      dup6\n        /* \"#utility.yul\":9359:9382   */\n      sub\n        /* \"#utility.yul\":9355:9387   */\n      slt\n        /* \"#utility.yul\":9352:9404   */\n      iszero\n      tag_453\n      jumpi\n        /* \"#utility.yul\":9400:9401   */\n      0x00\n        /* \"#utility.yul\":9397:9398   */\n      dup1\n        /* \"#utility.yul\":9390:9402   */\n      revert\n        /* \"#utility.yul\":9352:9404   */\n    tag_453:\n        /* \"#utility.yul\":9433:9442   */\n      dup3\n        /* \"#utility.yul\":9427:9443   */\n      mload\n        /* \"#utility.yul\":9466:9484   */\n      0xffffffffffffffff\n        /* \"#utility.yul\":9458:9464   */\n      dup2\n        /* \"#utility.yul\":9455:9485   */\n      gt\n        /* \"#utility.yul\":9452:9502   */\n      iszero\n      tag_454\n      jumpi\n        /* \"#utility.yul\":9498:9499   */\n      0x00\n        /* \"#utility.yul\":9495:9496   */\n      dup1\n        /* \"#utility.yul\":9488:9500   */\n      revert\n        /* \"#utility.yul\":9452:9502   */\n    tag_454:\n        /* \"#utility.yul\":9521:9543   */\n      dup4\n      add\n        /* \"#utility.yul\":9574:9578   */\n      0x1f\n        /* \"#utility.yul\":9566:9579   */\n      dup2\n      add\n        /* \"#utility.yul\":9562:9589   */\n      dup6\n      sgt\n        /* \"#utility.yul\":9552:9607   */\n      tag_455\n      jumpi\n        /* \"#utility.yul\":9603:9604   */\n      0x00\n        /* \"#utility.yul\":9600:9601   */\n      dup1\n        /* \"#utility.yul\":9593:9605   */\n      revert\n        /* \"#utility.yul\":9552:9607   */\n    tag_455:\n        /* \"#utility.yul\":9632:9634   */\n      dup1\n        /* \"#utility.yul\":9626:9635   */\n      mload\n        /* \"#utility.yul\":9655:9715   */\n      tag_456\n        /* \"#utility.yul\":9671:9714   */\n      tag_457\n        /* \"#utility.yul\":9711:9713   */\n      dup3\n        /* \"#utility.yul\":9671:9714   */\n      tag_375\n      jump\t// in\n    tag_457:\n        /* \"#utility.yul\":9655:9715   */\n      tag_374\n      jump\t// in\n    tag_456:\n        /* \"#utility.yul\":9749:9764   */\n      dup2\n      dup2\n      mstore\n        /* \"#utility.yul\":9831:9832   */\n      0x05\n        /* \"#utility.yul\":9827:9837   */\n      swap2\n      swap1\n      swap2\n      shl\n        /* \"#utility.yul\":9819:9838   */\n      dup3\n      add\n        /* \"#utility.yul\":9815:9843   */\n      dup4\n      add\n      swap1\n        /* \"#utility.yul\":9780:9792   */\n      dup4\n      dup2\n      add\n      swap1\n        /* \"#utility.yul\":9855:9874   */\n      dup8\n      dup4\n      gt\n        /* \"#utility.yul\":9852:9891   */\n      iszero\n      tag_458\n      jumpi\n        /* \"#utility.yul\":9887:9888   */\n      0x00\n        /* \"#utility.yul\":9884:9885   */\n      dup1\n        /* \"#utility.yul\":9877:9889   */\n      revert\n        /* \"#utility.yul\":9852:9891   */\n    tag_458:\n        /* \"#utility.yul\":9911:9922   */\n      swap3\n      dup5\n      add\n      swap3\n        /* \"#utility.yul\":9931:10066   */\n    tag_459:\n        /* \"#utility.yul\":9947:9953   */\n      dup3\n        /* \"#utility.yul\":9942:9945   */\n      dup5\n        /* \"#utility.yul\":9939:9954   */\n      lt\n        /* \"#utility.yul\":9931:10066   */\n      iszero\n      tag_461\n      jumpi\n        /* \"#utility.yul\":10013:10023   */\n      dup4\n      mload\n        /* \"#utility.yul\":10001:10024   */\n      dup3\n      mstore\n        /* \"#utility.yul\":9964:9976   */\n      swap3\n      dup5\n      add\n      swap3\n        /* \"#utility.yul\":10044:10056   */\n      swap1\n      dup5\n      add\n      swap1\n        /* \"#utility.yul\":9931:10066   */\n      jump(tag_459)\n    tag_461:\n        /* \"#utility.yul\":10085:10090   */\n      swap8\n        /* \"#utility.yul\":9215:10096   */\n      swap7\n      pop\n      pop\n      pop\n      pop\n      pop\n      pop\n      pop\n      jump\t// out\n        /* \"#utility.yul\":10283:11258   */\n    tag_252:\n        /* \"#utility.yul\":10397:10403   */\n      0x00\n        /* \"#utility.yul\":10428:10430   */\n      0x20\n        /* \"#utility.yul\":10471:10473   */\n      dup1\n        /* \"#utility.yul\":10459:10468   */\n      dup4\n        /* \"#utility.yul\":10450:10457   */\n      dup6\n        /* \"#utility.yul\":10446:10469   */\n      sub\n        /* \"#utility.yul\":10442:10474   */\n      slt\n        /* \"#utility.yul\":10439:10491   */\n      iszero\n      tag_464\n      jumpi\n        /* \"#utility.yul\":10487:10488   */\n      0x00\n        /* \"#utility.yul\":10484:10485   */\n      dup1\n        /* \"#utility.yul\":10477:10489   */\n      revert\n        /* \"#utility.yul\":10439:10491   */\n    tag_464:\n        /* \"#utility.yul\":10520:10529   */\n      dup3\n        /* \"#utility.yul\":10514:10530   */\n      mload\n        /* \"#utility.yul\":10553:10571   */\n      0xffffffffffffffff\n        /* \"#utility.yul\":10545:10551   */\n      dup2\n        /* \"#utility.yul\":10542:10572   */\n      gt\n        /* \"#utility.yul\":10539:10589   */\n      iszero\n      tag_465\n      jumpi\n        /* \"#utility.yul\":10585:10586   */\n      0x00\n        /* \"#utility.yul\":10582:10583   */\n      dup1\n        /* \"#utility.yul\":10575:10587   */\n      revert\n        /* \"#utility.yul\":10539:10589   */\n    tag_465:\n        /* \"#utility.yul\":10608:10630   */\n      dup4\n      add\n        /* \"#utility.yul\":10661:10665   */\n      0x1f\n        /* \"#utility.yul\":10653:10666   */\n      dup2\n      add\n        /* \"#utility.yul\":10649:10676   */\n      dup6\n      sgt\n        /* \"#utility.yul\":10639:10694   */\n      tag_466\n      jumpi\n        /* \"#utility.yul\":10690:10691   */\n      0x00\n        /* \"#utility.yul\":10687:10688   */\n      dup1\n        /* \"#utility.yul\":10680:10692   */\n      revert\n        /* \"#utility.yul\":10639:10694   */\n    tag_466:\n        /* \"#utility.yul\":10719:10721   */\n      dup1\n        /* \"#utility.yul\":10713:10722   */\n      mload\n        /* \"#utility.yul\":10742:10802   */\n      tag_467\n        /* \"#utility.yul\":10758:10801   */\n      tag_457\n        /* \"#utility.yul\":10798:10800   */\n      dup3\n        /* \"#utility.yul\":10758:10801   */\n      tag_375\n      jump\t// in\n        /* \"#utility.yul\":10742:10802   */\n    tag_467:\n        /* \"#utility.yul\":10836:10851   */\n      dup2\n      dup2\n      mstore\n        /* \"#utility.yul\":10918:10919   */\n      0x05\n        /* \"#utility.yul\":10914:10924   */\n      swap2\n      swap1\n      swap2\n      shl\n        /* \"#utility.yul\":10906:10925   */\n      dup3\n      add\n        /* \"#utility.yul\":10902:10930   */\n      dup4\n      add\n      swap1\n        /* \"#utility.yul\":10867:10879   */\n      dup4\n      dup2\n      add\n      swap1\n        /* \"#utility.yul\":10942:10961   */\n      dup8\n      dup4\n      gt\n        /* \"#utility.yul\":10939:10978   */\n      iszero\n      tag_469\n      jumpi\n        /* \"#utility.yul\":10974:10975   */\n      0x00\n        /* \"#utility.yul\":10971:10972   */\n      dup1\n        /* \"#utility.yul\":10964:10976   */\n      revert\n        /* \"#utility.yul\":10939:10978   */\n    tag_469:\n        /* \"#utility.yul\":10998:11009   */\n      swap3\n      dup5\n      add\n      swap3\n        /* \"#utility.yul\":11018:11228   */\n    tag_470:\n        /* \"#utility.yul\":11034:11040   */\n      dup3\n        /* \"#utility.yul\":11029:11032   */\n      dup5\n        /* \"#utility.yul\":11026:11041   */\n      lt\n        /* \"#utility.yul\":11018:11228   */\n      iszero\n      tag_461\n      jumpi\n        /* \"#utility.yul\":11107:11110   */\n      dup4\n        /* \"#utility.yul\":11101:11111   */\n      mload\n        /* \"#utility.yul\":11124:11155   */\n      tag_473\n        /* \"#utility.yul\":11149:11154   */\n      dup2\n        /* \"#utility.yul\":11124:11155   */\n      tag_370\n      jump\t// in\n    tag_473:\n        /* \"#utility.yul\":11168:11186   */\n      dup3\n      mstore\n        /* \"#utility.yul\":11051:11063   */\n      swap3\n      dup5\n      add\n      swap3\n        /* \"#utility.yul\":11206:11218   */\n      swap1\n      dup5\n      add\n      swap1\n        /* \"#utility.yul\":11018:11228   */\n      jump(tag_470)\n        /* \"#utility.yul\":11743:11993   */\n    tag_376:\n        /* \"#utility.yul\":11828:11829   */\n      0x00\n        /* \"#utility.yul\":11838:11951   */\n    tag_477:\n        /* \"#utility.yul\":11852:11858   */\n      dup4\n        /* \"#utility.yul\":11849:11850   */\n      dup2\n        /* \"#utility.yul\":11846:11859   */\n      lt\n        /* \"#utility.yul\":11838:11951   */\n      iszero\n      tag_479\n      jumpi\n        /* \"#utility.yul\":11928:11939   */\n      dup2\n      dup2\n      add\n        /* \"#utility.yul\":11922:11940   */\n      mload\n        /* \"#utility.yul\":11909:11920   */\n      dup4\n      dup3\n      add\n        /* \"#utility.yul\":11902:11941   */\n      mstore\n        /* \"#utility.yul\":11874:11876   */\n      0x20\n        /* \"#utility.yul\":11867:11877   */\n      add\n        /* \"#utility.yul\":11838:11951   */\n      jump(tag_477)\n    tag_479:\n      pop\n      pop\n        /* \"#utility.yul\":11985:11986   */\n      0x00\n        /* \"#utility.yul\":11967:11983   */\n      swap2\n      add\n        /* \"#utility.yul\":11960:11987   */\n      mstore\n        /* \"#utility.yul\":11743:11993   */\n      jump\t// out\n        /* \"#utility.yul\":11998:12388   */\n    tag_377:\n        /* \"#utility.yul\":12073:12078   */\n      0x00\n        /* \"#utility.yul\":12107:12125   */\n      0xffffffffffffffff\n        /* \"#utility.yul\":12099:12105   */\n      dup4\n        /* \"#utility.yul\":12096:12126   */\n      gt\n        /* \"#utility.yul\":12093:12149   */\n      iszero\n      tag_482\n      jumpi\n        /* \"#utility.yul\":12129:12147   */\n      tag_482\n      tag_256\n      jump\t// in\n    tag_482:\n        /* \"#utility.yul\":12167:12224   */\n      tag_483\n        /* \"#utility.yul\":12212:12214   */\n      0x1f\n        /* \"#utility.yul\":12191:12206   */\n      dup5\n      add\n      not(0x1f)\n        /* \"#utility.yul\":12187:12216   */\n      and\n        /* \"#utility.yul\":12218:12222   */\n      0x20\n        /* \"#utility.yul\":12183:12223   */\n      add\n        /* \"#utility.yul\":12167:12224   */\n      tag_374\n      jump\t// in\n    tag_483:\n        /* \"#utility.yul\":12158:12224   */\n      swap1\n      pop\n        /* \"#utility.yul\":12247:12253   */\n      dup3\n        /* \"#utility.yul\":12240:12245   */\n      dup2\n        /* \"#utility.yul\":12233:12254   */\n      mstore\n        /* \"#utility.yul\":12287:12290   */\n      dup4\n        /* \"#utility.yul\":12278:12284   */\n      dup4\n        /* \"#utility.yul\":12273:12276   */\n      dup4\n        /* \"#utility.yul\":12269:12285   */\n      add\n        /* \"#utility.yul\":12266:12291   */\n      gt\n        /* \"#utility.yul\":12263:12308   */\n      iszero\n      tag_484\n      jumpi\n        /* \"#utility.yul\":12304:12305   */\n      0x00\n        /* \"#utility.yul\":12301:12302   */\n      dup1\n        /* \"#utility.yul\":12294:12306   */\n      revert\n        /* \"#utility.yul\":12263:12308   */\n    tag_484:\n        /* \"#utility.yul\":12317:12382   */\n      tag_390\n        /* \"#utility.yul\":12375:12381   */\n      dup4\n        /* \"#utility.yul\":12368:12372   */\n      0x20\n        /* \"#utility.yul\":12361:12366   */\n      dup4\n        /* \"#utility.yul\":12357:12373   */\n      add\n        /* \"#utility.yul\":12352:12355   */\n      dup5\n        /* \"#utility.yul\":12317:12382   */\n      tag_376\n      jump\t// in\n        /* \"#utility.yul\":12393:12628   */\n    tag_378:\n        /* \"#utility.yul\":12446:12451   */\n      0x00\n        /* \"#utility.yul\":12499:12502   */\n      dup3\n        /* \"#utility.yul\":12492:12496   */\n      0x1f\n        /* \"#utility.yul\":12484:12490   */\n      dup4\n        /* \"#utility.yul\":12480:12497   */\n      add\n        /* \"#utility.yul\":12476:12503   */\n      slt\n        /* \"#utility.yul\":12466:12521   */\n      tag_487\n      jumpi\n        /* \"#utility.yul\":12517:12518   */\n      0x00\n        /* \"#utility.yul\":12514:12515   */\n      dup1\n        /* \"#utility.yul\":12507:12519   */\n      revert\n        /* \"#utility.yul\":12466:12521   */\n    tag_487:\n        /* \"#utility.yul\":12539:12622   */\n      tag_390\n        /* \"#utility.yul\":12618:12621   */\n      dup4\n        /* \"#utility.yul\":12609:12615   */\n      dup4\n        /* \"#utility.yul\":12603:12616   */\n      mload\n        /* \"#utility.yul\":12596:12600   */\n      0x20\n        /* \"#utility.yul\":12588:12594   */\n      dup6\n        /* \"#utility.yul\":12584:12601   */\n      add\n        /* \"#utility.yul\":12539:12622   */\n      tag_377\n      jump\t// in\n        /* \"#utility.yul\":12633:13769   */\n    tag_281:\n        /* \"#utility.yul\":12776:12782   */\n      0x00\n        /* \"#utility.yul\":12784:12790   */\n      dup1\n        /* \"#utility.yul\":12792:12798   */\n      0x00\n        /* \"#utility.yul\":12800:12806   */\n      dup1\n        /* \"#utility.yul\":12808:12814   */\n      0x00\n        /* \"#utility.yul\":12816:12822   */\n      dup1\n        /* \"#utility.yul\":12869:12872   */\n      0xc0\n        /* \"#utility.yul\":12857:12866   */\n      dup8\n        /* \"#utility.yul\":12848:12855   */\n      dup10\n        /* \"#utility.yul\":12844:12867   */\n      sub\n        /* \"#utility.yul\":12840:12873   */\n      slt\n        /* \"#utility.yul\":12837:12890   */\n      iszero\n      tag_490\n      jumpi\n        /* \"#utility.yul\":12886:12887   */\n      0x00\n        /* \"#utility.yul\":12883:12884   */\n      dup1\n        /* \"#utility.yul\":12876:12888   */\n      revert\n        /* \"#utility.yul\":12837:12890   */\n    tag_490:\n        /* \"#utility.yul\":12915:12924   */\n      dup7\n        /* \"#utility.yul\":12909:12925   */\n      mload\n        /* \"#utility.yul\":12899:12925   */\n      swap6\n      pop\n        /* \"#utility.yul\":12965:12967   */\n      0x20\n        /* \"#utility.yul\":12954:12963   */\n      dup8\n        /* \"#utility.yul\":12950:12968   */\n      add\n        /* \"#utility.yul\":12944:12969   */\n      mload\n        /* \"#utility.yul\":12934:12969   */\n      swap5\n      pop\n        /* \"#utility.yul\":13012:13014   */\n      0x40\n        /* \"#utility.yul\":13001:13010   */\n      dup8\n        /* \"#utility.yul\":12997:13015   */\n      add\n        /* \"#utility.yul\":12991:13016   */\n      mload\n        /* \"#utility.yul\":13025:13056   */\n      tag_491\n        /* \"#utility.yul\":13050:13055   */\n      dup2\n        /* \"#utility.yul\":13025:13056   */\n      tag_370\n      jump\t// in\n    tag_491:\n        /* \"#utility.yul\":13124:13126   */\n      0x60\n        /* \"#utility.yul\":13109:13127   */\n      dup9\n      add\n        /* \"#utility.yul\":13103:13128   */\n      mload\n        /* \"#utility.yul\":13075:13080   */\n      swap1\n      swap5\n      pop\n        /* \"#utility.yul\":13147:13165   */\n      0xffffffffffffffff\n        /* \"#utility.yul\":13177:13191   */\n      dup1\n      dup3\n      gt\n        /* \"#utility.yul\":13174:13208   */\n      iszero\n      tag_492\n      jumpi\n        /* \"#utility.yul\":13204:13205   */\n      0x00\n        /* \"#utility.yul\":13201:13202   */\n      dup1\n        /* \"#utility.yul\":13194:13206   */\n      revert\n        /* \"#utility.yul\":13174:13208   */\n    tag_492:\n        /* \"#utility.yul\":13227:13287   */\n      tag_493\n        /* \"#utility.yul\":13279:13286   */\n      dup11\n        /* \"#utility.yul\":13270:13276   */\n      dup4\n        /* \"#utility.yul\":13259:13268   */\n      dup12\n        /* \"#utility.yul\":13255:13277   */\n      add\n        /* \"#utility.yul\":13227:13287   */\n      tag_378\n      jump\t// in\n    tag_493:\n        /* \"#utility.yul\":13217:13287   */\n      swap5\n      pop\n        /* \"#utility.yul\":13333:13336   */\n      0x80\n        /* \"#utility.yul\":13322:13331   */\n      dup10\n        /* \"#utility.yul\":13318:13337   */\n      add\n        /* \"#utility.yul\":13312:13338   */\n      mload\n        /* \"#utility.yul\":13296:13338   */\n      swap2\n      pop\n        /* \"#utility.yul\":13363:13365   */\n      dup1\n        /* \"#utility.yul\":13353:13361   */\n      dup3\n        /* \"#utility.yul\":13350:13366   */\n      gt\n        /* \"#utility.yul\":13347:13383   */\n      iszero\n      tag_494\n      jumpi\n        /* \"#utility.yul\":13379:13380   */\n      0x00\n        /* \"#utility.yul\":13376:13377   */\n      dup1\n        /* \"#utility.yul\":13369:13381   */\n      revert\n        /* \"#utility.yul\":13347:13383   */\n    tag_494:\n        /* \"#utility.yul\":13402:13464   */\n      tag_495\n        /* \"#utility.yul\":13456:13463   */\n      dup11\n        /* \"#utility.yul\":13445:13453   */\n      dup4\n        /* \"#utility.yul\":13434:13443   */\n      dup12\n        /* \"#utility.yul\":13430:13454   */\n      add\n        /* \"#utility.yul\":13402:13464   */\n      tag_378\n      jump\t// in\n    tag_495:\n        /* \"#utility.yul\":13392:13464   */\n      swap4\n      pop\n        /* \"#utility.yul\":13510:13513   */\n      0xa0\n        /* \"#utility.yul\":13499:13508   */\n      dup10\n        /* \"#utility.yul\":13495:13514   */\n      add\n        /* \"#utility.yul\":13489:13515   */\n      mload\n        /* \"#utility.yul\":13473:13515   */\n      swap2\n      pop\n        /* \"#utility.yul\":13540:13542   */\n      dup1\n        /* \"#utility.yul\":13530:13538   */\n      dup3\n        /* \"#utility.yul\":13527:13543   */\n      gt\n        /* \"#utility.yul\":13524:13560   */\n      iszero\n      tag_496\n      jumpi\n        /* \"#utility.yul\":13556:13557   */\n      0x00\n        /* \"#utility.yul\":13553:13554   */\n      dup1\n        /* \"#utility.yul\":13546:13558   */\n      revert\n        /* \"#utility.yul\":13524:13560   */\n    tag_496:\n      pop\n        /* \"#utility.yul\":13579:13603   */\n      dup8\n      add\n        /* \"#utility.yul\":13634:13638   */\n      0x1f\n        /* \"#utility.yul\":13626:13639   */\n      dup2\n      add\n        /* \"#utility.yul\":13622:13649   */\n      dup10\n      sgt\n        /* \"#utility.yul\":13612:13667   */\n      tag_497\n      jumpi\n        /* \"#utility.yul\":13663:13664   */\n      0x00\n        /* \"#utility.yul\":13660:13661   */\n      dup1\n        /* \"#utility.yul\":13653:13665   */\n      revert\n        /* \"#utility.yul\":13612:13667   */\n    tag_497:\n        /* \"#utility.yul\":13686:13763   */\n      tag_498\n        /* \"#utility.yul\":13755:13762   */\n      dup10\n        /* \"#utility.yul\":13750:13752   */\n      dup3\n        /* \"#utility.yul\":13744:13753   */\n      mload\n        /* \"#utility.yul\":13739:13741   */\n      0x20\n        /* \"#utility.yul\":13735:13737   */\n      dup5\n        /* \"#utility.yul\":13731:13742   */\n      add\n        /* \"#utility.yul\":13686:13763   */\n      tag_377\n      jump\t// in\n    tag_498:\n        /* \"#utility.yul\":13676:13763   */\n      swap2\n      pop\n      pop\n        /* \"#utility.yul\":12633:13769   */\n      swap3\n      swap6\n      pop\n      swap3\n      swap6\n      pop\n      swap3\n      swap6\n      jump\t// out\n        /* \"#utility.yul\":13774:14044   */\n    tag_379:\n        /* \"#utility.yul\":13815:13818   */\n      0x00\n        /* \"#utility.yul\":13853:13858   */\n      dup2\n        /* \"#utility.yul\":13847:13859   */\n      mload\n        /* \"#utility.yul\":13880:13886   */\n      dup1\n        /* \"#utility.yul\":13875:13878   */\n      dup5\n        /* \"#utility.yul\":13868:13887   */\n      mstore\n        /* \"#utility.yul\":13896:13972   */\n      tag_500\n        /* \"#utility.yul\":13965:13971   */\n      dup2\n        /* \"#utility.yul\":13958:13962   */\n      0x20\n        /* \"#utility.yul\":13953:13956   */\n      dup7\n        /* \"#utility.yul\":13949:13963   */\n      add\n        /* \"#utility.yul\":13942:13946   */\n      0x20\n        /* \"#utility.yul\":13935:13940   */\n      dup7\n        /* \"#utility.yul\":13931:13947   */\n      add\n        /* \"#utility.yul\":13896:13972   */\n      tag_376\n      jump\t// in\n    tag_500:\n        /* \"#utility.yul\":14026:14028   */\n      0x1f\n        /* \"#utility.yul\":14005:14020   */\n      add\n      not(0x1f)\n        /* \"#utility.yul\":14001:14030   */\n      and\n        /* \"#utility.yul\":13992:14031   */\n      swap3\n      swap1\n      swap3\n      add\n        /* \"#utility.yul\":14033:14037   */\n      0x20\n        /* \"#utility.yul\":13988:14038   */\n      add\n      swap3\n        /* \"#utility.yul\":13774:14044   */\n      swap2\n      pop\n      pop\n      jump\t// out\n        /* \"#utility.yul\":14049:14613   */\n    tag_289:\n        /* \"#utility.yul\":14344:14345   */\n      0x01\n        /* \"#utility.yul\":14340:14341   */\n      dup1\n        /* \"#utility.yul\":14335:14338   */\n      0xa0\n        /* \"#utility.yul\":14331:14342   */\n      shl\n        /* \"#utility.yul\":14327:14346   */\n      sub\n        /* \"#utility.yul\":14319:14325   */\n      dup6\n        /* \"#utility.yul\":14315:14347   */\n      and\n        /* \"#utility.yul\":14304:14313   */\n      dup2\n        /* \"#utility.yul\":14297:14348   */\n      mstore\n        /* \"#utility.yul\":14384:14390   */\n      dup4\n        /* \"#utility.yul\":14379:14381   */\n      0x20\n        /* \"#utility.yul\":14368:14377   */\n      dup3\n        /* \"#utility.yul\":14364:14382   */\n      add\n        /* \"#utility.yul\":14357:14391   */\n      mstore\n        /* \"#utility.yul\":14427:14430   */\n      0x80\n        /* \"#utility.yul\":14422:14424   */\n      0x40\n        /* \"#utility.yul\":14411:14420   */\n      dup3\n        /* \"#utility.yul\":14407:14425   */\n      add\n        /* \"#utility.yul\":14400:14431   */\n      mstore\n        /* \"#utility.yul\":14278:14282   */\n      0x00\n        /* \"#utility.yul\":14454:14499   */\n      tag_502\n        /* \"#utility.yul\":14494:14497   */\n      0x80\n        /* \"#utility.yul\":14483:14492   */\n      dup4\n        /* \"#utility.yul\":14479:14498   */\n      add\n        /* \"#utility.yul\":14471:14477   */\n      dup6\n        /* \"#utility.yul\":14454:14499   */\n      tag_379\n      jump\t// in\n    tag_502:\n        /* \"#utility.yul\":14547:14556   */\n      dup3\n        /* \"#utility.yul\":14539:14545   */\n      dup2\n        /* \"#utility.yul\":14535:14557   */\n      sub\n        /* \"#utility.yul\":14530:14532   */\n      0x60\n        /* \"#utility.yul\":14519:14528   */\n      dup5\n        /* \"#utility.yul\":14515:14533   */\n      add\n        /* \"#utility.yul\":14508:14558   */\n      mstore\n        /* \"#utility.yul\":14575:14607   */\n      tag_461\n        /* \"#utility.yul\":14600:14606   */\n      dup2\n        /* \"#utility.yul\":14592:14598   */\n      dup6\n        /* \"#utility.yul\":14575:14607   */\n      tag_379\n      jump\t// in\n        /* \"#utility.yul\":14618:14895   */\n    tag_292:\n        /* \"#utility.yul\":14685:14691   */\n      0x00\n        /* \"#utility.yul\":14738:14740   */\n      0x20\n        /* \"#utility.yul\":14726:14735   */\n      dup3\n        /* \"#utility.yul\":14717:14724   */\n      dup5\n        /* \"#utility.yul\":14713:14736   */\n      sub\n        /* \"#utility.yul\":14709:14741   */\n      slt\n        /* \"#utility.yul\":14706:14758   */\n      iszero\n      tag_505\n      jumpi\n        /* \"#utility.yul\":14754:14755   */\n      0x00\n        /* \"#utility.yul\":14751:14752   */\n      dup1\n        /* \"#utility.yul\":14744:14756   */\n      revert\n        /* \"#utility.yul\":14706:14758   */\n    tag_505:\n        /* \"#utility.yul\":14786:14795   */\n      dup2\n        /* \"#utility.yul\":14780:14796   */\n      mload\n        /* \"#utility.yul\":14839:14844   */\n      dup1\n        /* \"#utility.yul\":14832:14845   */\n      iszero\n        /* \"#utility.yul\":14825:14846   */\n      iszero\n        /* \"#utility.yul\":14818:14823   */\n      dup2\n        /* \"#utility.yul\":14815:14847   */\n      eq\n        /* \"#utility.yul\":14805:14865   */\n      tag_390\n      jumpi\n        /* \"#utility.yul\":14861:14862   */\n      0x00\n        /* \"#utility.yul\":14858:14859   */\n      dup1\n        /* \"#utility.yul\":14851:14863   */\n      revert\n        /* \"#utility.yul\":14900:15028   */\n    tag_298:\n        /* \"#utility.yul\":14967:14976   */\n      dup2\n      dup2\n      sub\n        /* \"#utility.yul\":14988:14999   */\n      dup2\n      dup2\n      gt\n        /* \"#utility.yul\":14985:15022   */\n      iszero\n      tag_131\n      jumpi\n        /* \"#utility.yul\":15002:15020   */\n      tag_131\n      tag_373\n      jump\t// in\n        /* \"#utility.yul\":15033:15301   */\n    tag_318:\n        /* \"#utility.yul\":15120:15126   */\n      0x00\n        /* \"#utility.yul\":15173:15175   */\n      0x20\n        /* \"#utility.yul\":15161:15170   */\n      dup3\n        /* \"#utility.yul\":15152:15159   */\n      dup5\n        /* \"#utility.yul\":15148:15171   */\n      sub\n        /* \"#utility.yul\":15144:15176   */\n      slt\n        /* \"#utility.yul\":15141:15193   */\n      iszero\n      tag_511\n      jumpi\n        /* \"#utility.yul\":15189:15190   */\n      0x00\n        /* \"#utility.yul\":15186:15187   */\n      dup1\n        /* \"#utility.yul\":15179:15191   */\n      revert\n        /* \"#utility.yul\":15141:15193   */\n    tag_511:\n        /* \"#utility.yul\":15221:15230   */\n      dup2\n        /* \"#utility.yul\":15215:15231   */\n      mload\n        /* \"#utility.yul\":15240:15271   */\n      tag_390\n        /* \"#utility.yul\":15265:15270   */\n      dup2\n        /* \"#utility.yul\":15240:15271   */\n      tag_370\n      jump\t// in\n\n    auxdata: 0xa26469706673582212207121dd261cccd5df3ed945917028fcad6bed79bbf8c7bd85d55a95cd8cbf183b64736f6c63430008110033\n}\n",
				"bytecode": {
					"linkReferences": {},
					"object": "608060405234801561001057600080fd5b50611abb806100206000396000f3fe608060405234801561001057600080fd5b50600436106101425760003560e01c806384e79842116100b8578063b4f3fcb71161007c578063b4f3fcb7146102c5578063b9209e33146102d6578063e744d789146102e9578063f0eb5e54146102fc578063f11abfd81461030f578063f2fde38b1461032057600080fd5b806384e79842146102495780638da5cb5b1461025c5780638e098ca11461028c57806397a6278e1461029f578063a8d29d1d146102b257600080fd5b8063454a03e01161010a578063454a03e0146101cf5780635dbe47e8146101e2578063653dc9f1146101f5578063670af6a914610208578063715018a61461021b5780637e42683b1461022357600080fd5b8063184b9559146101475780631ffbb0641461015c57806326d941ae146101845780633b239a7f146101975780633b3e12f4146101aa575b600080fd5b61015a6101553660046113d9565b610333565b005b61016f61016a366004611424565b61056a565b60405190151581526020015b60405180910390f35b61015a610192366004611424565b61057c565b61015a6101a5366004611458565b6105ce565b6001546001600160a01b03165b6040516001600160a01b03909116815260200161017b565b61015a6101dd366004611491565b61069a565b61016f6101f0366004611424565b61076d565b61015a61020336600461151d565b610797565b61015a610216366004611424565b610835565b61015a610887565b610236610231366004611424565b61089b565b60405161ffff909116815260200161017b565b61015a610257366004611424565b61090a565b7f9016d09d72d40fdae2fd8ceac6b6234c7706214fd39c1cd1e609a0528c199300546001600160a01b03166101b7565b61015a61029a3660046115b7565b61097a565b61015a6102ad366004611424565b610a50565b61015a6102c0366004611424565b610ac0565b6002546001600160a01b03166101b7565b61016f6102e4366004611424565b610b8d565b61015a6102f7366004611424565b611016565b6101b761030a366004611424565b611068565b6003546001600160a01b03166101b7565b61015a61032e366004611424565b6110d7565b7ff0c57e16840df040f15088dc2f81fe391c3923bec73e23a9662efc9c229c6a008054600160401b810460ff16159067ffffffffffffffff166000811580156103795750825b905060008267ffffffffffffffff1660011480156103965750303b155b9050811580156103a4575080155b156103c25760405163f92ee8a960e01b815260040160405180910390fd5b845467ffffffffffffffff1916600117855583156103ec57845460ff60401b1916600160401b1785555b6001600160a01b0388161580159061040c57506001600160a01b03871615155b801561042057506001600160a01b03861615155b6104455760405162461bcd60e51b815260040161043c906115e5565b60405180910390fd5b600180546001600160a01b03808a166001600160a01b03199283168117909355600280548c831690841617905560038054918a16919092161790556040517f7170bf15b246e880b2369cd7c67d057760d8a35149e8c64dde91efa22bcc76d090600090a26040516001600160a01b038916907f1b98cb79e6f73020175fe87333f1b91ad6a881519c0afe30340c2599b2b4bde090600090a26040516001600160a01b038716907f2fa8b95c1db7afe99e3398f3792f008135cedc1fa26b0bb2ecd2352cd166d53c90600090a261051a33611115565b831561056057845460ff60401b19168555604051600181527fc7f505b2f371ae2175ee4913f4499e1f2633a7b5936321eed1cdaeb6115181d29060200160405180910390a15b5050505050505050565b60006105768183611126565b92915050565b6105846111a9565b600380546001600160a01b0319166001600160a01b0383169081179091556040517f2fa8b95c1db7afe99e3398f3792f008135cedc1fa26b0bb2ecd2352cd166d53c90600090a250565b6105d73361056a565b6105f35760405162461bcd60e51b815260040161043c9061161c565b600354604051639f3418d560e01b81526001600160a01b03848116600483015261ffff8416602483015290911690639f3418d590604401600060405180830381600087803b15801561064457600080fd5b505af1158015610658573d6000803e3d6000fd5b505060405161ffff841692506001600160a01b03851691507f04ed3b726495c2dca1ff1215d9ca54e1a4030abb5e82b0f6ce55702416cee85390600090a35050565b6106a33361056a565b6106bf5760405162461bcd60e51b815260040161043c9061161c565b60035460405163a53410dd60e01b81526001600160a01b038581166004830152848116602483015261ffff841660448301529091169063a53410dd90606401600060405180830381600087803b15801561071857600080fd5b505af115801561072c573d6000803e3d6000fd5b50506040516001600160a01b038086169350861691507f6ae73635c50d24a45af6fbd5e016ac4bed179addbc8bf24e04ff0fcc6d33af1990600090a3505050565b60008061077983611068565b6001600160a01b03160361078f57506000919050565b506001919050565b60005b8581101561082c5761081a8787838181106107b7576107b761166a565b90506020020160208101906107cc9190611424565b8686848181106107de576107de61166a565b90506020020160208101906107f39190611424565b8585858181106108055761080561166a565b90506020020160208101906101dd9190611680565b80610824816116b3565b91505061079a565b50505050505050565b61083d6111a9565b600180546001600160a01b0319166001600160a01b0383169081179091556040517f7170bf15b246e880b2369cd7c67d057760d8a35149e8c64dde91efa22bcc76d090600090a250565b61088f6111a9565b6108996000611204565b565b600354604051631c9f84ef60e21b81526001600160a01b038381166004830152600092169063727e13bc90602401602060405180830381865afa1580156108e6573d6000803e3d6000fd5b505050506040513d601f19601f8201168201806040525081019061057691906116cc565b6109126111a9565b6001600160a01b0381166109385760405162461bcd60e51b815260040161043c906115e5565b610943600082611275565b6040516001600160a01b038216907ff68e73cec97f2d70aa641fb26e87a4383686e2efacb648f2165aeb02ac562ec590600090a250565b6109833361056a565b61099f5760405162461bcd60e51b815260040161043c9061161c565b60006109aa83611068565b600354604051637402e7c360e11b81526001600160a01b038681166004830152858116602483015292935091169063e805cf8690604401600060405180830381600087803b1580156109fb57600080fd5b505af1158015610a0f573d6000803e3d6000fd5b50506040516001600160a01b038086169350841691507fe98082932c8056a0f514da9104e4a66bc2cbaef102ad59d90c4b24220ebf601090600090a3505050565b610a586111a9565b6001600160a01b038116610a7e5760405162461bcd60e51b815260040161043c906115e5565b610a896000826112f1565b6040516001600160a01b038216907fed9c8ad8d5a0a66898ea49d2956929c93ae2e8bd50281b2ed897c5d1a6737e0b90600090a250565b610ac93361056a565b610ae55760405162461bcd60e51b815260040161043c9061161c565b6000610af082611068565b60035460405163cf191bcd60e01b81526001600160a01b03858116600483015292935091169063cf191bcd90602401600060405180830381600087803b158015610b3957600080fd5b505af1158015610b4d573d6000803e3d6000fd5b50506040516001600160a01b038085169350851691507f59d6590e225b81befe259af056324092801080acbb7feab310eb34678871f32790600090a35050565b600080610b9983611068565b6001600160a01b031603610baf57506000919050565b600154604080516337c2758160e21b815290516000926001600160a01b03169163df09d60491600480830192869291908290030181865afa158015610bf8573d6000803e3d6000fd5b505050506040513d6000823e601f3d908101601f19168201604052610c209190810190611754565b90508051600003610c345750600192915050565b600080600060608060005b86518110156110075760025487516000916001600160a01b0316906352c111d1908a9085908110610c7257610c7261166a565b60200260200101516040518263ffffffff1660e01b8152600401610c9891815260200190565b600060405180830381865afa158015610cb5573d6000803e3d6000fd5b505050506040513d6000823e601f3d908101601f19168201604052610cdd91908101906117ea565b90508051600003610cf8575060009998505050505050505050565b6000815167ffffffffffffffff811115610d1457610d146116e9565b604051908082528060200260200182016040528015610d3d578160200160208202803683370190505b50905060005b8251811015610dea57828181518110610d5e57610d5e61166a565b60200260200101518a8581518110610d7857610d7861166a565b6020026020010151604051602001610da59291906001600160a01b03929092168252602082015260400190565b60405160208183030381529060405280519060200120828281518110610dcd57610dcd61166a565b602090810291909101015280610de2816116b3565b915050610d43565b5060005b8151811015610ff157610e008c611068565b6001600160a01b031663c9100bcb838381518110610e2057610e2061166a565b60200260200101516040518263ffffffff1660e01b8152600401610e4691815260200190565b600060405180830381865afa158015610e63573d6000803e3d6000fd5b505050506040513d6000823e601f3d908101601f19168201604052610e8b919081019061190c565b508e51949d50929b50909950975095508a9085908110610ead57610ead61166a565b60200260200101518903610fb957866001600160a01b031663c0969a6e610ed38e611068565b8c8781518110610ee557610ee561166a565b602002602001015189896040518563ffffffff1660e01b8152600401610f0e94939291906119fa565b602060405180830381865afa925050508015610f47575060408051601f3d908101601f19168201909252610f4491810190611a33565b60015b610f765760018251610f599190611a55565b8103610f71575060009b9a5050505050505050505050565b610fdf565b8015610f8157825191505b80158015610f9b575060018351610f989190611a55565b82145b15610fb3575060009c9b505050505050505050505050565b50610fdf565b60018251610fc79190611a55565b8103610fdf575060009b9a5050505050505050505050565b80610fe9816116b3565b915050610dee565b5050508080610fff906116b3565b915050610c3f565b50600198975050505050505050565b61101e6111a9565b600280546001600160a01b0319166001600160a01b0383169081179091556040517f1b98cb79e6f73020175fe87333f1b91ad6a881519c0afe30340c2599b2b4bde090600090a250565b600354604051637988d3a560e01b81526001600160a01b0383811660048301526000921690637988d3a590602401602060405180830381865afa1580156110b3573d6000803e3d6000fd5b505050506040513d601f19601f820116820180604052508101906105769190611a68565b6110df6111a9565b6001600160a01b03811661110957604051631e4fbdf760e01b81526000600482015260240161043c565b61111281611204565b50565b61111d611373565b611112816113bc565b60006001600160a01b0382166111895760405162461bcd60e51b815260206004820152602260248201527f526f6c65733a206163636f756e7420697320746865207a65726f206164647265604482015261737360f01b606482015260840161043c565b506001600160a01b03166000908152602091909152604090205460ff1690565b336111db7f9016d09d72d40fdae2fd8ceac6b6234c7706214fd39c1cd1e609a0528c199300546001600160a01b031690565b6001600160a01b0316146108995760405163118cdaa760e01b815233600482015260240161043c565b7f9016d09d72d40fdae2fd8ceac6b6234c7706214fd39c1cd1e609a0528c19930080546001600160a01b031981166001600160a01b03848116918217845560405192169182907f8be0079c531659141344cd1fd0a4f28419497f9722a3daafe3b4186f6b6457e090600090a3505050565b61127f8282611126565b156112cc5760405162461bcd60e51b815260206004820152601f60248201527f526f6c65733a206163636f756e7420616c72656164792068617320726f6c6500604482015260640161043c565b6001600160a01b0316600090815260209190915260409020805460ff19166001179055565b6112fb8282611126565b6113515760405162461bcd60e51b815260206004820152602160248201527f526f6c65733a206163636f756e7420646f6573206e6f74206861766520726f6c6044820152606560f81b606482015260840161043c565b6001600160a01b0316600090815260209190915260409020805460ff19169055565b7ff0c57e16840df040f15088dc2f81fe391c3923bec73e23a9662efc9c229c6a0054600160401b900460ff1661089957604051631afcd79f60e31b815260040160405180910390fd5b6110df611373565b6001600160a01b038116811461111257600080fd5b6000806000606084860312156113ee57600080fd5b83356113f9816113c4565b92506020840135611409816113c4565b91506040840135611419816113c4565b809150509250925092565b60006020828403121561143657600080fd5b8135611441816113c4565b9392505050565b61ffff8116811461111257600080fd5b6000806040838503121561146b57600080fd5b8235611476816113c4565b9150602083013561148681611448565b809150509250929050565b6000806000606084860312156114a657600080fd5b83356114b1816113c4565b925060208401356114c1816113c4565b9150604084013561141981611448565b60008083601f8401126114e357600080fd5b50813567ffffffffffffffff8111156114fb57600080fd5b6020830191508360208260051b850101111561151657600080fd5b9250929050565b6000806000806000806060878903121561153657600080fd5b863567ffffffffffffffff8082111561154e57600080fd5b61155a8a838b016114d1565b9098509650602089013591508082111561157357600080fd5b61157f8a838b016114d1565b9096509450604089013591508082111561159857600080fd5b506115a589828a016114d1565b979a9699509497509295939492505050565b600080604083850312156115ca57600080fd5b82356115d5816113c4565b91506020830135611486816113c4565b6020808252601f908201527f696e76616c696420617267756d656e74202d207a65726f206164647265737300604082015260600190565b6020808252602e908201527f4167656e74526f6c653a2063616c6c657220646f6573206e6f7420686176652060408201526d746865204167656e7420726f6c6560901b606082015260800190565b634e487b7160e01b600052603260045260246000fd5b60006020828403121561169257600080fd5b813561144181611448565b634e487b7160e01b600052601160045260246000fd5b6000600182016116c5576116c561169d565b5060010190565b6000602082840312156116de57600080fd5b815161144181611448565b634e487b7160e01b600052604160045260246000fd5b604051601f8201601f1916810167ffffffffffffffff81118282101715611728576117286116e9565b604052919050565b600067ffffffffffffffff82111561174a5761174a6116e9565b5060051b60200190565b6000602080838503121561176757600080fd5b825167ffffffffffffffff81111561177e57600080fd5b8301601f8101851361178f57600080fd5b80516117a261179d82611730565b6116ff565b81815260059190911b820183019083810190878311156117c157600080fd5b928401925b828410156117df578351825292840192908401906117c6565b979650505050505050565b600060208083850312156117fd57600080fd5b825167ffffffffffffffff81111561181457600080fd5b8301601f8101851361182557600080fd5b805161183361179d82611730565b81815260059190911b8201830190838101908783111561185257600080fd5b928401925b828410156117df57835161186a816113c4565b82529284019290840190611857565b60005b8381101561189457818101518382015260200161187c565b50506000910152565b600067ffffffffffffffff8311156118b7576118b76116e9565b6118ca601f8401601f19166020016116ff565b90508281528383830111156118de57600080fd5b611441836020830184611879565b600082601f8301126118fd57600080fd5b6114418383516020850161189d565b60008060008060008060c0878903121561192557600080fd5b8651955060208701519450604087015161193e816113c4565b606088015190945067ffffffffffffffff8082111561195c57600080fd5b6119688a838b016118ec565b9450608089015191508082111561197e57600080fd5b61198a8a838b016118ec565b935060a08901519150808211156119a057600080fd5b508701601f810189136119b257600080fd5b6119c18982516020840161189d565b9150509295509295509295565b600081518084526119e6816020860160208601611879565b601f01601f19169290920160200192915050565b60018060a01b0385168152836020820152608060408201526000611a2160808301856119ce565b82810360608401526117df81856119ce565b600060208284031215611a4557600080fd5b8151801515811461144157600080fd5b818103818111156105765761057661169d565b600060208284031215611a7a57600080fd5b8151611441816113c456fea26469706673582212207121dd261cccd5df3ed945917028fcad6bed79bbf8c7bd85d55a95cd8cbf183b64736f6c63430008110033",
					"opcodes": "PUSH1 0x80 PUSH1 0x40 MSTORE CALLVALUE DUP1 ISZERO PUSH2 0x10 JUMPI PUSH1 0x0 DUP1 REVERT JUMPDEST POP PUSH2 0x1ABB DUP1 PUSH2 0x20 PUSH1 0x0 CODECOPY PUSH1 0x0 RETURN INVALID PUSH1 0x80 PUSH1 0x40 MSTORE CALLVALUE DUP1 ISZERO PUSH2 0x10 JUMPI PUSH1 0x0 DUP1 REVERT JUMPDEST POP PUSH1 0x4 CALLDATASIZE LT PUSH2 0x142 JUMPI PUSH1 0x0 CALLDATALOAD PUSH1 0xE0 SHR DUP1 PUSH4 0x84E79842 GT PUSH2 0xB8 JUMPI DUP1 PUSH4 0xB4F3FCB7 GT PUSH2 0x7C JUMPI DUP1 PUSH4 0xB4F3FCB7 EQ PUSH2 0x2C5 JUMPI DUP1 PUSH4 0xB9209E33 EQ PUSH2 0x2D6 JUMPI DUP1 PUSH4 0xE744D789 EQ PUSH2 0x2E9 JUMPI DUP1 PUSH4 0xF0EB5E54 EQ PUSH2 0x2FC JUMPI DUP1 PUSH4 0xF11ABFD8 EQ PUSH2 0x30F JUMPI DUP1 PUSH4 0xF2FDE38B EQ PUSH2 0x320 JUMPI PUSH1 0x0 DUP1 REVERT JUMPDEST DUP1 PUSH4 0x84E79842 EQ PUSH2 0x249 JUMPI DUP1 PUSH4 0x8DA5CB5B EQ PUSH2 0x25C JUMPI DUP1 PUSH4 0x8E098CA1 EQ PUSH2 0x28C JUMPI DUP1 PUSH4 0x97A6278E EQ PUSH2 0x29F JUMPI DUP1 PUSH4 0xA8D29D1D EQ PUSH2 0x2B2 JUMPI PUSH1 0x0 DUP1 REVERT JUMPDEST DUP1 PUSH4 0x454A03E0 GT PUSH2 0x10A JUMPI DUP1 PUSH4 0x454A03E0 EQ PUSH2 0x1CF JUMPI DUP1 PUSH4 0x5DBE47E8 EQ PUSH2 0x1E2 JUMPI DUP1 PUSH4 0x653DC9F1 EQ PUSH2 0x1F5 JUMPI DUP1 PUSH4 0x670AF6A9 EQ PUSH2 0x208 JUMPI DUP1 PUSH4 0x715018A6 EQ PUSH2 0x21B JUMPI DUP1 PUSH4 0x7E42683B EQ PUSH2 0x223 JUMPI PUSH1 0x0 DUP1 REVERT JUMPDEST DUP1 PUSH4 0x184B9559 EQ PUSH2 0x147 JUMPI DUP1 PUSH4 0x1FFBB064 EQ PUSH2 0x15C JUMPI DUP1 PUSH4 0x26D941AE EQ PUSH2 0x184 JUMPI DUP1 PUSH4 0x3B239A7F EQ PUSH2 0x197 JUMPI DUP1 PUSH4 0x3B3E12F4 EQ PUSH2 0x1AA JUMPI JUMPDEST PUSH1 0x0 DUP1 REVERT JUMPDEST PUSH2 0x15A PUSH2 0x155 CALLDATASIZE PUSH1 0x4 PUSH2 0x13D9 JUMP JUMPDEST PUSH2 0x333 JUMP JUMPDEST STOP JUMPDEST PUSH2 0x16F PUSH2 0x16A CALLDATASIZE PUSH1 0x4 PUSH2 0x1424 JUMP JUMPDEST PUSH2 0x56A JUMP JUMPDEST PUSH1 0x40 MLOAD SWAP1 ISZERO ISZERO DUP2 MSTORE PUSH1 0x20 ADD JUMPDEST PUSH1 0x40 MLOAD DUP1 SWAP2 SUB SWAP1 RETURN JUMPDEST PUSH2 0x15A PUSH2 0x192 CALLDATASIZE PUSH1 0x4 PUSH2 0x1424 JUMP JUMPDEST PUSH2 0x57C JUMP JUMPDEST PUSH2 0x15A PUSH2 0x1A5 CALLDATASIZE PUSH1 0x4 PUSH2 0x1458 JUMP JUMPDEST PUSH2 0x5CE JUMP JUMPDEST PUSH1 0x1 SLOAD PUSH1 0x1 PUSH1 0x1 PUSH1 0xA0 SHL SUB AND JUMPDEST PUSH1 0x40 MLOAD PUSH1 0x1 PUSH1 0x1 PUSH1 0xA0 SHL SUB SWAP1 SWAP2 AND DUP2 MSTORE PUSH1 0x20 ADD PUSH2 0x17B JUMP JUMPDEST PUSH2 0x15A PUSH2 0x1DD CALLDATASIZE PUSH1 0x4 PUSH2 0x1491 JUMP JUMPDEST PUSH2 0x69A JUMP JUMPDEST PUSH2 0x16F PUSH2 0x1F0 CALLDATASIZE PUSH1 0x4 PUSH2 0x1424 JUMP JUMPDEST PUSH2 0x76D JUMP JUMPDEST PUSH2 0x15A PUSH2 0x203 CALLDATASIZE PUSH1 0x4 PUSH2 0x151D JUMP JUMPDEST PUSH2 0x797 JUMP JUMPDEST PUSH2 0x15A PUSH2 0x216 CALLDATASIZE PUSH1 0x4 PUSH2 0x1424 JUMP JUMPDEST PUSH2 0x835 JUMP JUMPDEST PUSH2 0x15A PUSH2 0x887 JUMP JUMPDEST PUSH2 0x236 PUSH2 0x231 CALLDATASIZE PUSH1 0x4 PUSH2 0x1424 JUMP JUMPDEST PUSH2 0x89B JUMP JUMPDEST PUSH1 0x40 MLOAD PUSH2 0xFFFF SWAP1 SWAP2 AND DUP2 MSTORE PUSH1 0x20 ADD PUSH2 0x17B JUMP JUMPDEST PUSH2 0x15A PUSH2 0x257 CALLDATASIZE PUSH1 0x4 PUSH2 0x1424 JUMP JUMPDEST PUSH2 0x90A JUMP JUMPDEST PUSH32 0x9016D09D72D40FDAE2FD8CEAC6B6234C7706214FD39C1CD1E609A0528C199300 SLOAD PUSH1 0x1 PUSH1 0x1 PUSH1 0xA0 SHL SUB AND PUSH2 0x1B7 JUMP JUMPDEST PUSH2 0x15A PUSH2 0x29A CALLDATASIZE PUSH1 0x4 PUSH2 0x15B7 JUMP JUMPDEST PUSH2 0x97A JUMP JUMPDEST PUSH2 0x15A PUSH2 0x2AD CALLDATASIZE PUSH1 0x4 PUSH2 0x1424 JUMP JUMPDEST PUSH2 0xA50 JUMP JUMPDEST PUSH2 0x15A PUSH2 0x2C0 CALLDATASIZE PUSH1 0x4 PUSH2 0x1424 JUMP JUMPDEST PUSH2 0xAC0 JUMP JUMPDEST PUSH1 0x2 SLOAD PUSH1 0x1 PUSH1 0x1 PUSH1 0xA0 SHL SUB AND PUSH2 0x1B7 JUMP JUMPDEST PUSH2 0x16F PUSH2 0x2E4 CALLDATASIZE PUSH1 0x4 PUSH2 0x1424 JUMP JUMPDEST PUSH2 0xB8D JUMP JUMPDEST PUSH2 0x15A PUSH2 0x2F7 CALLDATASIZE PUSH1 0x4 PUSH2 0x1424 JUMP JUMPDEST PUSH2 0x1016 JUMP JUMPDEST PUSH2 0x1B7 PUSH2 0x30A CALLDATASIZE PUSH1 0x4 PUSH2 0x1424 JUMP JUMPDEST PUSH2 0x1068 JUMP JUMPDEST PUSH1 0x3 SLOAD PUSH1 0x1 PUSH1 0x1 PUSH1 0xA0 SHL SUB AND PUSH2 0x1B7 JUMP JUMPDEST PUSH2 0x15A PUSH2 0x32E CALLDATASIZE PUSH1 0x4 PUSH2 0x1424 JUMP JUMPDEST PUSH2 0x10D7 JUMP JUMPDEST PUSH32 0xF0C57E16840DF040F15088DC2F81FE391C3923BEC73E23A9662EFC9C229C6A00 DUP1 SLOAD PUSH1 0x1 PUSH1 0x40 SHL DUP2 DIV PUSH1 0xFF AND ISZERO SWAP1 PUSH8 0xFFFFFFFFFFFFFFFF AND PUSH1 0x0 DUP2 ISZERO DUP1 ISZERO PUSH2 0x379 JUMPI POP DUP3 JUMPDEST SWAP1 POP PUSH1 0x0 DUP3 PUSH8 0xFFFFFFFFFFFFFFFF AND PUSH1 0x1 EQ DUP1 ISZERO PUSH2 0x396 JUMPI POP ADDRESS EXTCODESIZE ISZERO JUMPDEST SWAP1 POP DUP2 ISZERO DUP1 ISZERO PUSH2 0x3A4 JUMPI POP DUP1 ISZERO JUMPDEST ISZERO PUSH2 0x3C2 JUMPI PUSH1 0x40 MLOAD PUSH4 0xF92EE8A9 PUSH1 0xE0 SHL DUP2 MSTORE PUSH1 0x4 ADD PUSH1 0x40 MLOAD DUP1 SWAP2 SUB SWAP1 REVERT JUMPDEST DUP5 SLOAD PUSH8 0xFFFFFFFFFFFFFFFF NOT AND PUSH1 0x1 OR DUP6 SSTORE DUP4 ISZERO PUSH2 0x3EC JUMPI DUP5 SLOAD PUSH1 0xFF PUSH1 0x40 SHL NOT AND PUSH1 0x1 PUSH1 0x40 SHL OR DUP6 SSTORE JUMPDEST PUSH1 0x1 PUSH1 0x1 PUSH1 0xA0 SHL SUB DUP9 AND ISZERO DUP1 ISZERO SWAP1 PUSH2 0x40C JUMPI POP PUSH1 0x1 PUSH1 0x1 PUSH1 0xA0 SHL SUB DUP8 AND ISZERO ISZERO JUMPDEST DUP1 ISZERO PUSH2 0x420 JUMPI POP PUSH1 0x1 PUSH1 0x1 PUSH1 0xA0 SHL SUB DUP7 AND ISZERO ISZERO JUMPDEST PUSH2 0x445 JUMPI PUSH1 0x40 MLOAD PUSH3 0x461BCD PUSH1 0xE5 SHL DUP2 MSTORE PUSH1 0x4 ADD PUSH2 0x43C SWAP1 PUSH2 0x15E5 JUMP JUMPDEST PUSH1 0x40 MLOAD DUP1 SWAP2 SUB SWAP1 REVERT JUMPDEST PUSH1 0x1 DUP1 SLOAD PUSH1 0x1 PUSH1 0x1 PUSH1 0xA0 SHL SUB DUP1 DUP11 AND PUSH1 0x1 PUSH1 0x1 PUSH1 0xA0 SHL SUB NOT SWAP3 DUP4 AND DUP2 OR SWAP1 SWAP4 SSTORE PUSH1 0x2 DUP1 SLOAD DUP13 DUP4 AND SWAP1 DUP5 AND OR SWAP1 SSTORE PUSH1 0x3 DUP1 SLOAD SWAP2 DUP11 AND SWAP2 SWAP1 SWAP3 AND OR SWAP1 SSTORE PUSH1 0x40 MLOAD PUSH32 0x7170BF15B246E880B2369CD7C67D057760D8A35149E8C64DDE91EFA22BCC76D0 SWAP1 PUSH1 0x0 SWAP1 LOG2 PUSH1 0x40 MLOAD PUSH1 0x1 PUSH1 0x1 PUSH1 0xA0 SHL SUB DUP10 AND SWAP1 PUSH32 0x1B98CB79E6F73020175FE87333F1B91AD6A881519C0AFE30340C2599B2B4BDE0 SWAP1 PUSH1 0x0 SWAP1 LOG2 PUSH1 0x40 MLOAD PUSH1 0x1 PUSH1 0x1 PUSH1 0xA0 SHL SUB DUP8 AND SWAP1 PUSH32 0x2FA8B95C1DB7AFE99E3398F3792F008135CEDC1FA26B0BB2ECD2352CD166D53C SWAP1 PUSH1 0x0 SWAP1 LOG2 PUSH2 0x51A CALLER PUSH2 0x1115 JUMP JUMPDEST DUP4 ISZERO PUSH2 0x560 JUMPI DUP5 SLOAD PUSH1 0xFF PUSH1 0x40 SHL NOT AND DUP6 SSTORE PUSH1 0x40 MLOAD PUSH1 0x1 DUP2 MSTORE PUSH32 0xC7F505B2F371AE2175EE4913F4499E1F2633A7B5936321EED1CDAEB6115181D2 SWAP1 PUSH1 0x20 ADD PUSH1 0x40 MLOAD DUP1 SWAP2 SUB SWAP1 LOG1 JUMPDEST POP POP POP POP POP POP POP POP JUMP JUMPDEST PUSH1 0x0 PUSH2 0x576 DUP2 DUP4 PUSH2 0x1126 JUMP JUMPDEST SWAP3 SWAP2 POP POP JUMP JUMPDEST PUSH2 0x584 PUSH2 0x11A9 JUMP JUMPDEST PUSH1 0x3 DUP1 SLOAD PUSH1 0x1 PUSH1 0x1 PUSH1 0xA0 SHL SUB NOT AND PUSH1 0x1 PUSH1 0x1 PUSH1 0xA0 SHL SUB DUP4 AND SWAP1 DUP2 OR SWAP1 SWAP2 SSTORE PUSH1 0x40 MLOAD PUSH32 0x2FA8B95C1DB7AFE99E3398F3792F008135CEDC1FA26B0BB2ECD2352CD166D53C SWAP1 PUSH1 0x0 SWAP1 LOG2 POP JUMP JUMPDEST PUSH2 0x5D7 CALLER PUSH2 0x56A JUMP JUMPDEST PUSH2 0x5F3 JUMPI PUSH1 0x40 MLOAD PUSH3 0x461BCD PUSH1 0xE5 SHL DUP2 MSTORE PUSH1 0x4 ADD PUSH2 0x43C SWAP1 PUSH2 0x161C JUMP JUMPDEST PUSH1 0x3 SLOAD PUSH1 0x40 MLOAD PUSH4 0x9F3418D5 PUSH1 0xE0 SHL DUP2 MSTORE PUSH1 0x1 PUSH1 0x1 PUSH1 0xA0 SHL SUB DUP5 DUP2 AND PUSH1 0x4 DUP4 ADD MSTORE PUSH2 0xFFFF DUP5 AND PUSH1 0x24 DUP4 ADD MSTORE SWAP1 SWAP2 AND SWAP1 PUSH4 0x9F3418D5 SWAP1 PUSH1 0x44 ADD PUSH1 0x0 PUSH1 0x40 MLOAD DUP1 DUP4 SUB DUP2 PUSH1 0x0 DUP8 DUP1 EXTCODESIZE ISZERO DUP1 ISZERO PUSH2 0x644 JUMPI PUSH1 0x0 DUP1 REVERT JUMPDEST POP GAS CALL ISZERO DUP1 ISZERO PUSH2 0x658 JUMPI RETURNDATASIZE PUSH1 0x0 DUP1 RETURNDATACOPY RETURNDATASIZE PUSH1 0x0 REVERT JUMPDEST POP POP PUSH1 0x40 MLOAD PUSH2 0xFFFF DUP5 AND SWAP3 POP PUSH1 0x1 PUSH1 0x1 PUSH1 0xA0 SHL SUB DUP6 AND SWAP2 POP PUSH32 0x4ED3B726495C2DCA1FF1215D9CA54E1A4030ABB5E82B0F6CE55702416CEE853 SWAP1 PUSH1 0x0 SWAP1 LOG3 POP POP JUMP JUMPDEST PUSH2 0x6A3 CALLER PUSH2 0x56A JUMP JUMPDEST PUSH2 0x6BF JUMPI PUSH1 0x40 MLOAD PUSH3 0x461BCD PUSH1 0xE5 SHL DUP2 MSTORE PUSH1 0x4 ADD PUSH2 0x43C SWAP1 PUSH2 0x161C JUMP JUMPDEST PUSH1 0x3 SLOAD PUSH1 0x40 MLOAD PUSH4 0xA53410DD PUSH1 0xE0 SHL DUP2 MSTORE PUSH1 0x1 PUSH1 0x1 PUSH1 0xA0 SHL SUB DUP6 DUP2 AND PUSH1 0x4 DUP4 ADD MSTORE DUP5 DUP2 AND PUSH1 0x24 DUP4 ADD MSTORE PUSH2 0xFFFF DUP5 AND PUSH1 0x44 DUP4 ADD MSTORE SWAP1 SWAP2 AND SWAP1 PUSH4 0xA53410DD SWAP1 PUSH1 0x64 ADD PUSH1 0x0 PUSH1 0x40 MLOAD DUP1 DUP4 SUB DUP2 PUSH1 0x0 DUP8 DUP1 EXTCODESIZE ISZERO DUP1 ISZERO PUSH2 0x718 JUMPI PUSH1 0x0 DUP1 REVERT JUMPDEST POP GAS CALL ISZERO DUP1 ISZERO PUSH2 0x72C JUMPI RETURNDATASIZE PUSH1 0x0 DUP1 RETURNDATACOPY RETURNDATASIZE PUSH1 0x0 REVERT JUMPDEST POP POP PUSH1 0x40 MLOAD PUSH1 0x1 PUSH1 0x1 PUSH1 0xA0 SHL SUB DUP1 DUP7 AND SWAP4 POP DUP7 AND SWAP2 POP PUSH32 0x6AE73635C50D24A45AF6FBD5E016AC4BED179ADDBC8BF24E04FF0FCC6D33AF19 SWAP1 PUSH1 0x0 SWAP1 LOG3 POP POP POP JUMP JUMPDEST PUSH1 0x0 DUP1 PUSH2 0x779 DUP4 PUSH2 0x1068 JUMP JUMPDEST PUSH1 0x1 PUSH1 0x1 PUSH1 0xA0 SHL SUB AND SUB PUSH2 0x78F JUMPI POP PUSH1 0x0 SWAP2 SWAP1 POP JUMP JUMPDEST POP PUSH1 0x1 SWAP2 SWAP1 POP JUMP JUMPDEST PUSH1 0x0 JUMPDEST DUP6 DUP2 LT ISZERO PUSH2 0x82C JUMPI PUSH2 0x81A DUP8 DUP8 DUP4 DUP2 DUP2 LT PUSH2 0x7B7 JUMPI PUSH2 0x7B7 PUSH2 0x166A JUMP JUMPDEST SWAP1 POP PUSH1 0x20 MUL ADD PUSH1 0x20 DUP2 ADD SWAP1 PUSH2 0x7CC SWAP2 SWAP1 PUSH2 0x1424 JUMP JUMPDEST DUP7 DUP7 DUP5 DUP2 DUP2 LT PUSH2 0x7DE JUMPI PUSH2 0x7DE PUSH2 0x166A JUMP JUMPDEST SWAP1 POP PUSH1 0x20 MUL ADD PUSH1 0x20 DUP2 ADD SWAP1 PUSH2 0x7F3 SWAP2 SWAP1 PUSH2 0x1424 JUMP JUMPDEST DUP6 DUP6 DUP6 DUP2 DUP2 LT PUSH2 0x805 JUMPI PUSH2 0x805 PUSH2 0x166A JUMP JUMPDEST SWAP1 POP PUSH1 0x20 MUL ADD PUSH1 0x20 DUP2 ADD SWAP1 PUSH2 0x1DD SWAP2 SWAP1 PUSH2 0x1680 JUMP JUMPDEST DUP1 PUSH2 0x824 DUP2 PUSH2 0x16B3 JUMP JUMPDEST SWAP2 POP POP PUSH2 0x79A JUMP JUMPDEST POP POP POP POP POP POP POP JUMP JUMPDEST PUSH2 0x83D PUSH2 0x11A9 JUMP JUMPDEST PUSH1 0x1 DUP1 SLOAD PUSH1 0x1 PUSH1 0x1 PUSH1 0xA0 SHL SUB NOT AND PUSH1 0x1 PUSH1 0x1 PUSH1 0xA0 SHL SUB DUP4 AND SWAP1 DUP2 OR SWAP1 SWAP2 SSTORE PUSH1 0x40 MLOAD PUSH32 0x7170BF15B246E880B2369CD7C67D057760D8A35149E8C64DDE91EFA22BCC76D0 SWAP1 PUSH1 0x0 SWAP1 LOG2 POP JUMP JUMPDEST PUSH2 0x88F PUSH2 0x11A9 JUMP JUMPDEST PUSH2 0x899 PUSH1 0x0 PUSH2 0x1204 JUMP JUMPDEST JUMP JUMPDEST PUSH1 0x3 SLOAD PUSH1 0x40 MLOAD PUSH4 0x1C9F84EF PUSH1 0xE2 SHL DUP2 MSTORE PUSH1 0x1 PUSH1 0x1 PUSH1 0xA0 SHL SUB DUP4 DUP2 AND PUSH1 0x4 DUP4 ADD MSTORE PUSH1 0x0 SWAP3 AND SWAP1 PUSH4 0x727E13BC SWAP1 PUSH1 0x24 ADD PUSH1 0x20 PUSH1 0x40 MLOAD DUP1 DUP4 SUB DUP2 DUP7 GAS STATICCALL ISZERO DUP1 ISZERO PUSH2 0x8E6 JUMPI RETURNDATASIZE PUSH1 0x0 DUP1 RETURNDATACOPY RETURNDATASIZE PUSH1 0x0 REVERT JUMPDEST POP POP POP POP PUSH1 0x40 MLOAD RETURNDATASIZE PUSH1 0x1F NOT PUSH1 0x1F DUP3 ADD AND DUP3 ADD DUP1 PUSH1 0x40 MSTORE POP DUP2 ADD SWAP1 PUSH2 0x576 SWAP2 SWAP1 PUSH2 0x16CC JUMP JUMPDEST PUSH2 0x912 PUSH2 0x11A9 JUMP JUMPDEST PUSH1 0x1 PUSH1 0x1 PUSH1 0xA0 SHL SUB DUP2 AND PUSH2 0x938 JUMPI PUSH1 0x40 MLOAD PUSH3 0x461BCD PUSH1 0xE5 SHL DUP2 MSTORE PUSH1 0x4 ADD PUSH2 0x43C SWAP1 PUSH2 0x15E5 JUMP JUMPDEST PUSH2 0x943 PUSH1 0x0 DUP3 PUSH2 0x1275 JUMP JUMPDEST PUSH1 0x40 MLOAD PUSH1 0x1 PUSH1 0x1 PUSH1 0xA0 SHL SUB DUP3 AND SWAP1 PUSH32 0xF68E73CEC97F2D70AA641FB26E87A4383686E2EFACB648F2165AEB02AC562EC5 SWAP1 PUSH1 0x0 SWAP1 LOG2 POP JUMP JUMPDEST PUSH2 0x983 CALLER PUSH2 0x56A JUMP JUMPDEST PUSH2 0x99F JUMPI PUSH1 0x40 MLOAD PUSH3 0x461BCD PUSH1 0xE5 SHL DUP2 MSTORE PUSH1 0x4 ADD PUSH2 0x43C SWAP1 PUSH2 0x161C JUMP JUMPDEST PUSH1 0x0 PUSH2 0x9AA DUP4 PUSH2 0x1068 JUMP JUMPDEST PUSH1 0x3 SLOAD PUSH1 0x40 MLOAD PUSH4 0x7402E7C3 PUSH1 0xE1 SHL DUP2 MSTORE PUSH1 0x1 PUSH1 0x1 PUSH1 0xA0 SHL SUB DUP7 DUP2 AND PUSH1 0x4 DUP4 ADD MSTORE DUP6 DUP2 AND PUSH1 0x24 DUP4 ADD MSTORE SWAP3 SWAP4 POP SWAP2 AND SWAP1 PUSH4 0xE805CF86 SWAP1 PUSH1 0x44 ADD PUSH1 0x0 PUSH1 0x40 MLOAD DUP1 DUP4 SUB DUP2 PUSH1 0x0 DUP8 DUP1 EXTCODESIZE ISZERO DUP1 ISZERO PUSH2 0x9FB JUMPI PUSH1 0x0 DUP1 REVERT JUMPDEST POP GAS CALL ISZERO DUP1 ISZERO PUSH2 0xA0F JUMPI RETURNDATASIZE PUSH1 0x0 DUP1 RETURNDATACOPY RETURNDATASIZE PUSH1 0x0 REVERT JUMPDEST POP POP PUSH1 0x40 MLOAD PUSH1 0x1 PUSH1 0x1 PUSH1 0xA0 SHL SUB DUP1 DUP7 AND SWAP4 POP DUP5 AND SWAP2 POP PUSH32 0xE98082932C8056A0F514DA9104E4A66BC2CBAEF102AD59D90C4B24220EBF6010 SWAP1 PUSH1 0x0 SWAP1 LOG3 POP POP POP JUMP JUMPDEST PUSH2 0xA58 PUSH2 0x11A9 JUMP JUMPDEST PUSH1 0x1 PUSH1 0x1 PUSH1 0xA0 SHL SUB DUP2 AND PUSH2 0xA7E JUMPI PUSH1 0x40 MLOAD PUSH3 0x461BCD PUSH1 0xE5 SHL DUP2 MSTORE PUSH1 0x4 ADD PUSH2 0x43C SWAP1 PUSH2 0x15E5 JUMP JUMPDEST PUSH2 0xA89 PUSH1 0x0 DUP3 PUSH2 0x12F1 JUMP JUMPDEST PUSH1 0x40 MLOAD PUSH1 0x1 PUSH1 0x1 PUSH1 0xA0 SHL SUB DUP3 AND SWAP1 PUSH32 0xED9C8AD8D5A0A66898EA49D2956929C93AE2E8BD50281B2ED897C5D1A6737E0B SWAP1 PUSH1 0x0 SWAP1 LOG2 POP JUMP JUMPDEST PUSH2 0xAC9 CALLER PUSH2 0x56A JUMP JUMPDEST PUSH2 0xAE5 JUMPI PUSH1 0x40 MLOAD PUSH3 0x461BCD PUSH1 0xE5 SHL DUP2 MSTORE PUSH1 0x4 ADD PUSH2 0x43C SWAP1 PUSH2 0x161C JUMP JUMPDEST PUSH1 0x0 PUSH2 0xAF0 DUP3 PUSH2 0x1068 JUMP JUMPDEST PUSH1 0x3 SLOAD PUSH1 0x40 MLOAD PUSH4 0xCF191BCD PUSH1 0xE0 SHL DUP2 MSTORE PUSH1 0x1 PUSH1 0x1 PUSH1 0xA0 SHL SUB DUP6 DUP2 AND PUSH1 0x4 DUP4 ADD MSTORE SWAP3 SWAP4 POP SWAP2 AND SWAP1 PUSH4 0xCF191BCD SWAP1 PUSH1 0x24 ADD PUSH1 0x0 PUSH1 0x40 MLOAD DUP1 DUP4 SUB DUP2 PUSH1 0x0 DUP8 DUP1 EXTCODESIZE ISZERO DUP1 ISZERO PUSH2 0xB39 JUMPI PUSH1 0x0 DUP1 REVERT JUMPDEST POP GAS CALL ISZERO DUP1 ISZERO PUSH2 0xB4D JUMPI RETURNDATASIZE PUSH1 0x0 DUP1 RETURNDATACOPY RETURNDATASIZE PUSH1 0x0 REVERT JUMPDEST POP POP PUSH1 0x40 MLOAD PUSH1 0x1 PUSH1 0x1 PUSH1 0xA0 SHL SUB DUP1 DUP6 AND SWAP4 POP DUP6 AND SWAP2 POP PUSH32 0x59D6590E225B81BEFE259AF056324092801080ACBB7FEAB310EB34678871F327 SWAP1 PUSH1 0x0 SWAP1 LOG3 POP POP JUMP JUMPDEST PUSH1 0x0 DUP1 PUSH2 0xB99 DUP4 PUSH2 0x1068 JUMP JUMPDEST PUSH1 0x1 PUSH1 0x1 PUSH1 0xA0 SHL SUB AND SUB PUSH2 0xBAF JUMPI POP PUSH1 0x0 SWAP2 SWAP1 POP JUMP JUMPDEST PUSH1 0x1 SLOAD PUSH1 0x40 DUP1 MLOAD PUSH4 0x37C27581 PUSH1 0xE2 SHL DUP2 MSTORE SWAP1 MLOAD PUSH1 0x0 SWAP3 PUSH1 0x1 PUSH1 0x1 PUSH1 0xA0 SHL SUB AND SWAP2 PUSH4 0xDF09D604 SWAP2 PUSH1 0x4 DUP1 DUP4 ADD SWAP3 DUP7 SWAP3 SWAP2 SWAP1 DUP3 SWAP1 SUB ADD DUP2 DUP7 GAS STATICCALL ISZERO DUP1 ISZERO PUSH2 0xBF8 JUMPI RETURNDATASIZE PUSH1 0x0 DUP1 RETURNDATACOPY RETURNDATASIZE PUSH1 0x0 REVERT JUMPDEST POP POP POP POP PUSH1 0x40 MLOAD RETURNDATASIZE PUSH1 0x0 DUP3 RETURNDATACOPY PUSH1 0x1F RETURNDATASIZE SWAP1 DUP2 ADD PUSH1 0x1F NOT AND DUP3 ADD PUSH1 0x40 MSTORE PUSH2 0xC20 SWAP2 SWAP1 DUP2 ADD SWAP1 PUSH2 0x1754 JUMP JUMPDEST SWAP1 POP DUP1 MLOAD PUSH1 0x0 SUB PUSH2 0xC34 JUMPI POP PUSH1 0x1 SWAP3 SWAP2 POP POP JUMP JUMPDEST PUSH1 0x0 DUP1 PUSH1 0x0 PUSH1 0x60 DUP1 PUSH1 0x0 JUMPDEST DUP7 MLOAD DUP2 LT ISZERO PUSH2 0x1007 JUMPI PUSH1 0x2 SLOAD DUP8 MLOAD PUSH1 0x0 SWAP2 PUSH1 0x1 PUSH1 0x1 PUSH1 0xA0 SHL SUB AND SWAP1 PUSH4 0x52C111D1 SWAP1 DUP11 SWAP1 DUP6 SWAP1 DUP2 LT PUSH2 0xC72 JUMPI PUSH2 0xC72 PUSH2 0x166A JUMP JUMPDEST PUSH1 0x20 MUL PUSH1 0x20 ADD ADD MLOAD PUSH1 0x40 MLOAD DUP3 PUSH4 0xFFFFFFFF AND PUSH1 0xE0 SHL DUP2 MSTORE PUSH1 0x4 ADD PUSH2 0xC98 SWAP2 DUP2 MSTORE PUSH1 0x20 ADD SWAP1 JUMP JUMPDEST PUSH1 0x0 PUSH1 0x40 MLOAD DUP1 DUP4 SUB DUP2 DUP7 GAS STATICCALL ISZERO DUP1 ISZERO PUSH2 0xCB5 JUMPI RETURNDATASIZE PUSH1 0x0 DUP1 RETURNDATACOPY RETURNDATASIZE PUSH1 0x0 REVERT JUMPDEST POP POP POP POP PUSH1 0x40 MLOAD RETURNDATASIZE PUSH1 0x0 DUP3 RETURNDATACOPY PUSH1 0x1F RETURNDATASIZE SWAP1 DUP2 ADD PUSH1 0x1F NOT AND DUP3 ADD PUSH1 0x40 MSTORE PUSH2 0xCDD SWAP2 SWAP1 DUP2 ADD SWAP1 PUSH2 0x17EA JUMP JUMPDEST SWAP1 POP DUP1 MLOAD PUSH1 0x0 SUB PUSH2 0xCF8 JUMPI POP PUSH1 0x0 SWAP10 SWAP9 POP POP POP POP POP POP POP POP POP JUMP JUMPDEST PUSH1 0x0 DUP2 MLOAD PUSH8 0xFFFFFFFFFFFFFFFF DUP2 GT ISZERO PUSH2 0xD14 JUMPI PUSH2 0xD14 PUSH2 0x16E9 JUMP JUMPDEST PUSH1 0x40 MLOAD SWAP1 DUP1 DUP3 MSTORE DUP1 PUSH1 0x20 MUL PUSH1 0x20 ADD DUP3 ADD PUSH1 0x40 MSTORE DUP1 ISZERO PUSH2 0xD3D JUMPI DUP2 PUSH1 0x20 ADD PUSH1 0x20 DUP3 MUL DUP1 CALLDATASIZE DUP4 CALLDATACOPY ADD SWAP1 POP JUMPDEST POP SWAP1 POP PUSH1 0x0 JUMPDEST DUP3 MLOAD DUP2 LT ISZERO PUSH2 0xDEA JUMPI DUP3 DUP2 DUP2 MLOAD DUP2 LT PUSH2 0xD5E JUMPI PUSH2 0xD5E PUSH2 0x166A JUMP JUMPDEST PUSH1 0x20 MUL PUSH1 0x20 ADD ADD MLOAD DUP11 DUP6 DUP2 MLOAD DUP2 LT PUSH2 0xD78 JUMPI PUSH2 0xD78 PUSH2 0x166A JUMP JUMPDEST PUSH1 0x20 MUL PUSH1 0x20 ADD ADD MLOAD PUSH1 0x40 MLOAD PUSH1 0x20 ADD PUSH2 0xDA5 SWAP3 SWAP2 SWAP1 PUSH1 0x1 PUSH1 0x1 PUSH1 0xA0 SHL SUB SWAP3 SWAP1 SWAP3 AND DUP3 MSTORE PUSH1 0x20 DUP3 ADD MSTORE PUSH1 0x40 ADD SWAP1 JUMP JUMPDEST PUSH1 0x40 MLOAD PUSH1 0x20 DUP2 DUP4 SUB SUB DUP2 MSTORE SWAP1 PUSH1 0x40 MSTORE DUP1 MLOAD SWAP1 PUSH1 0x20 ADD KECCAK256 DUP3 DUP3 DUP2 MLOAD DUP2 LT PUSH2 0xDCD JUMPI PUSH2 0xDCD PUSH2 0x166A JUMP JUMPDEST PUSH1 0x20 SWAP1 DUP2 MUL SWAP2 SWAP1 SWAP2 ADD ADD MSTORE DUP1 PUSH2 0xDE2 DUP2 PUSH2 0x16B3 JUMP JUMPDEST SWAP2 POP POP PUSH2 0xD43 JUMP JUMPDEST POP PUSH1 0x0 JUMPDEST DUP2 MLOAD DUP2 LT ISZERO PUSH2 0xFF1 JUMPI PUSH2 0xE00 DUP13 PUSH2 0x1068 JUMP JUMPDEST PUSH1 0x1 PUSH1 0x1 PUSH1 0xA0 SHL SUB AND PUSH4 0xC9100BCB DUP4 DUP4 DUP2 MLOAD DUP2 LT PUSH2 0xE20 JUMPI PUSH2 0xE20 PUSH2 0x166A JUMP JUMPDEST PUSH1 0x20 MUL PUSH1 0x20 ADD ADD MLOAD PUSH1 0x40 MLOAD DUP3 PUSH4 0xFFFFFFFF AND PUSH1 0xE0 SHL DUP2 MSTORE PUSH1 0x4 ADD PUSH2 0xE46 SWAP2 DUP2 MSTORE PUSH1 0x20 ADD SWAP1 JUMP JUMPDEST PUSH1 0x0 PUSH1 0x40 MLOAD DUP1 DUP4 SUB DUP2 DUP7 GAS STATICCALL ISZERO DUP1 ISZERO PUSH2 0xE63 JUMPI RETURNDATASIZE PUSH1 0x0 DUP1 RETURNDATACOPY RETURNDATASIZE PUSH1 0x0 REVERT JUMPDEST POP POP POP POP PUSH1 0x40 MLOAD RETURNDATASIZE PUSH1 0x0 DUP3 RETURNDATACOPY PUSH1 0x1F RETURNDATASIZE SWAP1 DUP2 ADD PUSH1 0x1F NOT AND DUP3 ADD PUSH1 0x40 MSTORE PUSH2 0xE8B SWAP2 SWAP1 DUP2 ADD SWAP1 PUSH2 0x190C JUMP JUMPDEST POP DUP15 MLOAD SWAP5 SWAP14 POP SWAP3 SWAP12 POP SWAP1 SWAP10 POP SWAP8 POP SWAP6 POP DUP11 SWAP1 DUP6 SWAP1 DUP2 LT PUSH2 0xEAD JUMPI PUSH2 0xEAD PUSH2 0x166A JUMP JUMPDEST PUSH1 0x20 MUL PUSH1 0x20 ADD ADD MLOAD DUP10 SUB PUSH2 0xFB9 JUMPI DUP7 PUSH1 0x1 PUSH1 0x1 PUSH1 0xA0 SHL SUB AND PUSH4 0xC0969A6E PUSH2 0xED3 DUP15 PUSH2 0x1068 JUMP JUMPDEST DUP13 DUP8 DUP2 MLOAD DUP2 LT PUSH2 0xEE5 JUMPI PUSH2 0xEE5 PUSH2 0x166A JUMP JUMPDEST PUSH1 0x20 MUL PUSH1 0x20 ADD ADD MLOAD DUP10 DUP10 PUSH1 0x40 MLOAD DUP6 PUSH4 0xFFFFFFFF AND PUSH1 0xE0 SHL DUP2 MSTORE PUSH1 0x4 ADD PUSH2 0xF0E SWAP5 SWAP4 SWAP3 SWAP2 SWAP1 PUSH2 0x19FA JUMP JUMPDEST PUSH1 0x20 PUSH1 0x40 MLOAD DUP1 DUP4 SUB DUP2 DUP7 GAS STATICCALL SWAP3 POP POP POP DUP1 ISZERO PUSH2 0xF47 JUMPI POP PUSH1 0x40 DUP1 MLOAD PUSH1 0x1F RETURNDATASIZE SWAP1 DUP2 ADD PUSH1 0x1F NOT AND DUP3 ADD SWAP1 SWAP3 MSTORE PUSH2 0xF44 SWAP2 DUP2 ADD SWAP1 PUSH2 0x1A33 JUMP JUMPDEST PUSH1 0x1 JUMPDEST PUSH2 0xF76 JUMPI PUSH1 0x1 DUP3 MLOAD PUSH2 0xF59 SWAP2 SWAP1 PUSH2 0x1A55 JUMP JUMPDEST DUP2 SUB PUSH2 0xF71 JUMPI POP PUSH1 0x0 SWAP12 SWAP11 POP POP POP POP POP POP POP POP POP POP POP JUMP JUMPDEST PUSH2 0xFDF JUMP JUMPDEST DUP1 ISZERO PUSH2 0xF81 JUMPI DUP3 MLOAD SWAP2 POP JUMPDEST DUP1 ISZERO DUP1 ISZERO PUSH2 0xF9B JUMPI POP PUSH1 0x1 DUP4 MLOAD PUSH2 0xF98 SWAP2 SWAP1 PUSH2 0x1A55 JUMP JUMPDEST DUP3 EQ JUMPDEST ISZERO PUSH2 0xFB3 JUMPI POP PUSH1 0x0 SWAP13 SWAP12 POP POP POP POP POP POP POP POP POP POP POP POP JUMP JUMPDEST POP PUSH2 0xFDF JUMP JUMPDEST PUSH1 0x1 DUP3 MLOAD PUSH2 0xFC7 SWAP2 SWAP1 PUSH2 0x1A55 JUMP JUMPDEST DUP2 SUB PUSH2 0xFDF JUMPI POP PUSH1 0x0 SWAP12 SWAP11 POP POP POP POP POP POP POP POP POP POP POP JUMP JUMPDEST DUP1 PUSH2 0xFE9 DUP2 PUSH2 0x16B3 JUMP JUMPDEST SWAP2 POP POP PUSH2 0xDEE JUMP JUMPDEST POP POP POP DUP1 DUP1 PUSH2 0xFFF SWAP1 PUSH2 0x16B3 JUMP JUMPDEST SWAP2 POP POP PUSH2 0xC3F JUMP JUMPDEST POP PUSH1 0x1 SWAP9 SWAP8 POP POP POP POP POP POP POP POP JUMP JUMPDEST PUSH2 0x101E PUSH2 0x11A9 JUMP JUMPDEST PUSH1 0x2 DUP1 SLOAD PUSH1 0x1 PUSH1 0x1 PUSH1 0xA0 SHL SUB NOT AND PUSH1 0x1 PUSH1 0x1 PUSH1 0xA0 SHL SUB DUP4 AND SWAP1 DUP2 OR SWAP1 SWAP2 SSTORE PUSH1 0x40 MLOAD PUSH32 0x1B98CB79E6F73020175FE87333F1B91AD6A881519C0AFE30340C2599B2B4BDE0 SWAP1 PUSH1 0x0 SWAP1 LOG2 POP JUMP JUMPDEST PUSH1 0x3 SLOAD PUSH1 0x40 MLOAD PUSH4 0x7988D3A5 PUSH1 0xE0 SHL DUP2 MSTORE PUSH1 0x1 PUSH1 0x1 PUSH1 0xA0 SHL SUB DUP4 DUP2 AND PUSH1 0x4 DUP4 ADD MSTORE PUSH1 0x0 SWAP3 AND SWAP1 PUSH4 0x7988D3A5 SWAP1 PUSH1 0x24 ADD PUSH1 0x20 PUSH1 0x40 MLOAD DUP1 DUP4 SUB DUP2 DUP7 GAS STATICCALL ISZERO DUP1 ISZERO PUSH2 0x10B3 JUMPI RETURNDATASIZE PUSH1 0x0 DUP1 RETURNDATACOPY RETURNDATASIZE PUSH1 0x0 REVERT JUMPDEST POP POP POP POP PUSH1 0x40 MLOAD RETURNDATASIZE PUSH1 0x1F NOT PUSH1 0x1F DUP3 ADD AND DUP3 ADD DUP1 PUSH1 0x40 MSTORE POP DUP2 ADD SWAP1 PUSH2 0x576 SWAP2 SWAP1 PUSH2 0x1A68 JUMP JUMPDEST PUSH2 0x10DF PUSH2 0x11A9 JUMP JUMPDEST PUSH1 0x1 PUSH1 0x1 PUSH1 0xA0 SHL SUB DUP2 AND PUSH2 0x1109 JUMPI PUSH1 0x40 MLOAD PUSH4 0x1E4FBDF7 PUSH1 0xE0 SHL DUP2 MSTORE PUSH1 0x0 PUSH1 0x4 DUP3 ADD MSTORE PUSH1 0x24 ADD PUSH2 0x43C JUMP JUMPDEST PUSH2 0x1112 DUP2 PUSH2 0x1204 JUMP JUMPDEST POP JUMP JUMPDEST PUSH2 0x111D PUSH2 0x1373 JUMP JUMPDEST PUSH2 0x1112 DUP2 PUSH2 0x13BC JUMP JUMPDEST PUSH1 0x0 PUSH1 0x1 PUSH1 0x1 PUSH1 0xA0 SHL SUB DUP3 AND PUSH2 0x1189 JUMPI PUSH1 0x40 MLOAD PUSH3 0x461BCD PUSH1 0xE5 SHL DUP2 MSTORE PUSH1 0x20 PUSH1 0x4 DUP3 ADD MSTORE PUSH1 0x22 PUSH1 0x24 DUP3 ADD MSTORE PUSH32 0x526F6C65733A206163636F756E7420697320746865207A65726F206164647265 PUSH1 0x44 DUP3 ADD MSTORE PUSH2 0x7373 PUSH1 0xF0 SHL PUSH1 0x64 DUP3 ADD MSTORE PUSH1 0x84 ADD PUSH2 0x43C JUMP JUMPDEST POP PUSH1 0x1 PUSH1 0x1 PUSH1 0xA0 SHL SUB AND PUSH1 0x0 SWAP1 DUP2 MSTORE PUSH1 0x20 SWAP2 SWAP1 SWAP2 MSTORE PUSH1 0x40 SWAP1 KECCAK256 SLOAD PUSH1 0xFF AND SWAP1 JUMP JUMPDEST CALLER PUSH2 0x11DB PUSH32 0x9016D09D72D40FDAE2FD8CEAC6B6234C7706214FD39C1CD1E609A0528C199300 SLOAD PUSH1 0x1 PUSH1 0x1 PUSH1 0xA0 SHL SUB AND SWAP1 JUMP JUMPDEST PUSH1 0x1 PUSH1 0x1 PUSH1 0xA0 SHL SUB AND EQ PUSH2 0x899 JUMPI PUSH1 0x40 MLOAD PUSH4 0x118CDAA7 PUSH1 0xE0 SHL DUP2 MSTORE CALLER PUSH1 0x4 DUP3 ADD MSTORE PUSH1 0x24 ADD PUSH2 0x43C JUMP JUMPDEST PUSH32 0x9016D09D72D40FDAE2FD8CEAC6B6234C7706214FD39C1CD1E609A0528C199300 DUP1 SLOAD PUSH1 0x1 PUSH1 0x1 PUSH1 0xA0 SHL SUB NOT DUP2 AND PUSH1 0x1 PUSH1 0x1 PUSH1 0xA0 SHL SUB DUP5 DUP2 AND SWAP2 DUP3 OR DUP5 SSTORE PUSH1 0x40 MLOAD SWAP3 AND SWAP2 DUP3 SWAP1 PUSH32 0x8BE0079C531659141344CD1FD0A4F28419497F9722A3DAAFE3B4186F6B6457E0 SWAP1 PUSH1 0x0 SWAP1 LOG3 POP POP POP JUMP JUMPDEST PUSH2 0x127F DUP3 DUP3 PUSH2 0x1126 JUMP JUMPDEST ISZERO PUSH2 0x12CC JUMPI PUSH1 0x40 MLOAD PUSH3 0x461BCD PUSH1 0xE5 SHL DUP2 MSTORE PUSH1 0x20 PUSH1 0x4 DUP3 ADD MSTORE PUSH1 0x1F PUSH1 0x24 DUP3 ADD MSTORE PUSH32 0x526F6C65733A206163636F756E7420616C72656164792068617320726F6C6500 PUSH1 0x44 DUP3 ADD MSTORE PUSH1 0x64 ADD PUSH2 0x43C JUMP JUMPDEST PUSH1 0x1 PUSH1 0x1 PUSH1 0xA0 SHL SUB AND PUSH1 0x0 SWAP1 DUP2 MSTORE PUSH1 0x20 SWAP2 SWAP1 SWAP2 MSTORE PUSH1 0x40 SWAP1 KECCAK256 DUP1 SLOAD PUSH1 0xFF NOT AND PUSH1 0x1 OR SWAP1 SSTORE JUMP JUMPDEST PUSH2 0x12FB DUP3 DUP3 PUSH2 0x1126 JUMP JUMPDEST PUSH2 0x1351 JUMPI PUSH1 0x40 MLOAD PUSH3 0x461BCD PUSH1 0xE5 SHL DUP2 MSTORE PUSH1 0x20 PUSH1 0x4 DUP3 ADD MSTORE PUSH1 0x21 PUSH1 0x24 DUP3 ADD MSTORE PUSH32 0x526F6C65733A206163636F756E7420646F6573206E6F74206861766520726F6C PUSH1 0x44 DUP3 ADD MSTORE PUSH1 0x65 PUSH1 0xF8 SHL PUSH1 0x64 DUP3 ADD MSTORE PUSH1 0x84 ADD PUSH2 0x43C JUMP JUMPDEST PUSH1 0x1 PUSH1 0x1 PUSH1 0xA0 SHL SUB AND PUSH1 0x0 SWAP1 DUP2 MSTORE PUSH1 0x20 SWAP2 SWAP1 SWAP2 MSTORE PUSH1 0x40 SWAP1 KECCAK256 DUP1 SLOAD PUSH1 0xFF NOT AND SWAP1 SSTORE JUMP JUMPDEST PUSH32 0xF0C57E16840DF040F15088DC2F81FE391C3923BEC73E23A9662EFC9C229C6A00 SLOAD PUSH1 0x1 PUSH1 0x40 SHL SWAP1 DIV PUSH1 0xFF AND PUSH2 0x899 JUMPI PUSH1 0x40 MLOAD PUSH4 0x1AFCD79F PUSH1 0xE3 SHL DUP2 MSTORE PUSH1 0x4 ADD PUSH1 0x40 MLOAD DUP1 SWAP2 SUB SWAP1 REVERT JUMPDEST PUSH2 0x10DF PUSH2 0x1373 JUMP JUMPDEST PUSH1 0x1 PUSH1 0x1 PUSH1 0xA0 SHL SUB DUP2 AND DUP2 EQ PUSH2 0x1112 JUMPI PUSH1 0x0 DUP1 REVERT JUMPDEST PUSH1 0x0 DUP1 PUSH1 0x0 PUSH1 0x60 DUP5 DUP7 SUB SLT ISZERO PUSH2 0x13EE JUMPI PUSH1 0x0 DUP1 REVERT JUMPDEST DUP4 CALLDATALOAD PUSH2 0x13F9 DUP2 PUSH2 0x13C4 JUMP JUMPDEST SWAP3 POP PUSH1 0x20 DUP5 ADD CALLDATALOAD PUSH2 0x1409 DUP2 PUSH2 0x13C4 JUMP JUMPDEST SWAP2 POP PUSH1 0x40 DUP5 ADD CALLDATALOAD PUSH2 0x1419 DUP2 PUSH2 0x13C4 JUMP JUMPDEST DUP1 SWAP2 POP POP SWAP3 POP SWAP3 POP SWAP3 JUMP JUMPDEST PUSH1 0x0 PUSH1 0x20 DUP3 DUP5 SUB SLT ISZERO PUSH2 0x1436 JUMPI PUSH1 0x0 DUP1 REVERT JUMPDEST DUP2 CALLDATALOAD PUSH2 0x1441 DUP2 PUSH2 0x13C4 JUMP JUMPDEST SWAP4 SWAP3 POP POP POP JUMP JUMPDEST PUSH2 0xFFFF DUP2 AND DUP2 EQ PUSH2 0x1112 JUMPI PUSH1 0x0 DUP1 REVERT JUMPDEST PUSH1 0x0 DUP1 PUSH1 0x40 DUP4 DUP6 SUB SLT ISZERO PUSH2 0x146B JUMPI PUSH1 0x0 DUP1 REVERT JUMPDEST DUP3 CALLDATALOAD PUSH2 0x1476 DUP2 PUSH2 0x13C4 JUMP JUMPDEST SWAP2 POP PUSH1 0x20 DUP4 ADD CALLDATALOAD PUSH2 0x1486 DUP2 PUSH2 0x1448 JUMP JUMPDEST DUP1 SWAP2 POP POP SWAP3 POP SWAP3 SWAP1 POP JUMP JUMPDEST PUSH1 0x0 DUP1 PUSH1 0x0 PUSH1 0x60 DUP5 DUP7 SUB SLT ISZERO PUSH2 0x14A6 JUMPI PUSH1 0x0 DUP1 REVERT JUMPDEST DUP4 CALLDATALOAD PUSH2 0x14B1 DUP2 PUSH2 0x13C4 JUMP JUMPDEST SWAP3 POP PUSH1 0x20 DUP5 ADD CALLDATALOAD PUSH2 0x14C1 DUP2 PUSH2 0x13C4 JUMP JUMPDEST SWAP2 POP PUSH1 0x40 DUP5 ADD CALLDATALOAD PUSH2 0x1419 DUP2 PUSH2 0x1448 JUMP JUMPDEST PUSH1 0x0 DUP1 DUP4 PUSH1 0x1F DUP5 ADD SLT PUSH2 0x14E3 JUMPI PUSH1 0x0 DUP1 REVERT JUMPDEST POP DUP2 CALLDATALOAD PUSH8 0xFFFFFFFFFFFFFFFF DUP2 GT ISZERO PUSH2 0x14FB JUMPI PUSH1 0x0 DUP1 REVERT JUMPDEST PUSH1 0x20 DUP4 ADD SWAP2 POP DUP4 PUSH1 0x20 DUP3 PUSH1 0x5 SHL DUP6 ADD ADD GT ISZERO PUSH2 0x1516 JUMPI PUSH1 0x0 DUP1 REVERT JUMPDEST SWAP3 POP SWAP3 SWAP1 POP JUMP JUMPDEST PUSH1 0x0 DUP1 PUSH1 0x0 DUP1 PUSH1 0x0 DUP1 PUSH1 0x60 DUP8 DUP10 SUB SLT ISZERO PUSH2 0x1536 JUMPI PUSH1 0x0 DUP1 REVERT JUMPDEST DUP7 CALLDATALOAD PUSH8 0xFFFFFFFFFFFFFFFF DUP1 DUP3 GT ISZERO PUSH2 0x154E JUMPI PUSH1 0x0 DUP1 REVERT JUMPDEST PUSH2 0x155A DUP11 DUP4 DUP12 ADD PUSH2 0x14D1 JUMP JUMPDEST SWAP1 SWAP9 POP SWAP7 POP PUSH1 0x20 DUP10 ADD CALLDATALOAD SWAP2 POP DUP1 DUP3 GT ISZERO PUSH2 0x1573 JUMPI PUSH1 0x0 DUP1 REVERT JUMPDEST PUSH2 0x157F DUP11 DUP4 DUP12 ADD PUSH2 0x14D1 JUMP JUMPDEST SWAP1 SWAP7 POP SWAP5 POP PUSH1 0x40 DUP10 ADD CALLDATALOAD SWAP2 POP DUP1 DUP3 GT ISZERO PUSH2 0x1598 JUMPI PUSH1 0x0 DUP1 REVERT JUMPDEST POP PUSH2 0x15A5 DUP10 DUP3 DUP11 ADD PUSH2 0x14D1 JUMP JUMPDEST SWAP8 SWAP11 SWAP7 SWAP10 POP SWAP5 SWAP8 POP SWAP3 SWAP6 SWAP4 SWAP5 SWAP3 POP POP POP JUMP JUMPDEST PUSH1 0x0 DUP1 PUSH1 0x40 DUP4 DUP6 SUB SLT ISZERO PUSH2 0x15CA JUMPI PUSH1 0x0 DUP1 REVERT JUMPDEST DUP3 CALLDATALOAD PUSH2 0x15D5 DUP2 PUSH2 0x13C4 JUMP JUMPDEST SWAP2 POP PUSH1 0x20 DUP4 ADD CALLDATALOAD PUSH2 0x1486 DUP2 PUSH2 0x13C4 JUMP JUMPDEST PUSH1 0x20 DUP1 DUP3 MSTORE PUSH1 0x1F SWAP1 DUP3 ADD MSTORE PUSH32 0x696E76616C696420617267756D656E74202D207A65726F206164647265737300 PUSH1 0x40 DUP3 ADD MSTORE PUSH1 0x60 ADD SWAP1 JUMP JUMPDEST PUSH1 0x20 DUP1 DUP3 MSTORE PUSH1 0x2E SWAP1 DUP3 ADD MSTORE PUSH32 0x4167656E74526F6C653A2063616C6C657220646F6573206E6F74206861766520 PUSH1 0x40 DUP3 ADD MSTORE PUSH14 0x746865204167656E7420726F6C65 PUSH1 0x90 SHL PUSH1 0x60 DUP3 ADD MSTORE PUSH1 0x80 ADD SWAP1 JUMP JUMPDEST PUSH4 0x4E487B71 PUSH1 0xE0 SHL PUSH1 0x0 MSTORE PUSH1 0x32 PUSH1 0x4 MSTORE PUSH1 0x24 PUSH1 0x0 REVERT JUMPDEST PUSH1 0x0 PUSH1 0x20 DUP3 DUP5 SUB SLT ISZERO PUSH2 0x1692 JUMPI PUSH1 0x0 DUP1 REVERT JUMPDEST DUP2 CALLDATALOAD PUSH2 0x1441 DUP2 PUSH2 0x1448 JUMP JUMPDEST PUSH4 0x4E487B71 PUSH1 0xE0 SHL PUSH1 0x0 MSTORE PUSH1 0x11 PUSH1 0x4 MSTORE PUSH1 0x24 PUSH1 0x0 REVERT JUMPDEST PUSH1 0x0 PUSH1 0x1 DUP3 ADD PUSH2 0x16C5 JUMPI PUSH2 0x16C5 PUSH2 0x169D JUMP JUMPDEST POP PUSH1 0x1 ADD SWAP1 JUMP JUMPDEST PUSH1 0x0 PUSH1 0x20 DUP3 DUP5 SUB SLT ISZERO PUSH2 0x16DE JUMPI PUSH1 0x0 DUP1 REVERT JUMPDEST DUP2 MLOAD PUSH2 0x1441 DUP2 PUSH2 0x1448 JUMP JUMPDEST PUSH4 0x4E487B71 PUSH1 0xE0 SHL PUSH1 0x0 MSTORE PUSH1 0x41 PUSH1 0x4 MSTORE PUSH1 0x24 PUSH1 0x0 REVERT JUMPDEST PUSH1 0x40 MLOAD PUSH1 0x1F DUP3 ADD PUSH1 0x1F NOT AND DUP2 ADD PUSH8 0xFFFFFFFFFFFFFFFF DUP2 GT DUP3 DUP3 LT OR ISZERO PUSH2 0x1728 JUMPI PUSH2 0x1728 PUSH2 0x16E9 JUMP JUMPDEST PUSH1 0x40 MSTORE SWAP2 SWAP1 POP JUMP JUMPDEST PUSH1 0x0 PUSH8 0xFFFFFFFFFFFFFFFF DUP3 GT ISZERO PUSH2 0x174A JUMPI PUSH2 0x174A PUSH2 0x16E9 JUMP JUMPDEST POP PUSH1 0x5 SHL PUSH1 0x20 ADD SWAP1 JUMP JUMPDEST PUSH1 0x0 PUSH1 0x20 DUP1 DUP4 DUP6 SUB SLT ISZERO PUSH2 0x1767 JUMPI PUSH1 0x0 DUP1 REVERT JUMPDEST DUP3 MLOAD PUSH8 0xFFFFFFFFFFFFFFFF DUP2 GT ISZERO PUSH2 0x177E JUMPI PUSH1 0x0 DUP1 REVERT JUMPDEST DUP4 ADD PUSH1 0x1F DUP2 ADD DUP6 SGT PUSH2 0x178F JUMPI PUSH1 0x0 DUP1 REVERT JUMPDEST DUP1 MLOAD PUSH2 0x17A2 PUSH2 0x179D DUP3 PUSH2 0x1730 JUMP JUMPDEST PUSH2 0x16FF JUMP JUMPDEST DUP2 DUP2 MSTORE PUSH1 0x5 SWAP2 SWAP1 SWAP2 SHL DUP3 ADD DUP4 ADD SWAP1 DUP4 DUP2 ADD SWAP1 DUP8 DUP4 GT ISZERO PUSH2 0x17C1 JUMPI PUSH1 0x0 DUP1 REVERT JUMPDEST SWAP3 DUP5 ADD SWAP3 JUMPDEST DUP3 DUP5 LT ISZERO PUSH2 0x17DF JUMPI DUP4 MLOAD DUP3 MSTORE SWAP3 DUP5 ADD SWAP3 SWAP1 DUP5 ADD SWAP1 PUSH2 0x17C6 JUMP JUMPDEST SWAP8 SWAP7 POP POP POP POP POP POP POP JUMP JUMPDEST PUSH1 0x0 PUSH1 0x20 DUP1 DUP4 DUP6 SUB SLT ISZERO PUSH2 0x17FD JUMPI PUSH1 0x0 DUP1 REVERT JUMPDEST DUP3 MLOAD PUSH8 0xFFFFFFFFFFFFFFFF DUP2 GT ISZERO PUSH2 0x1814 JUMPI PUSH1 0x0 DUP1 REVERT JUMPDEST DUP4 ADD PUSH1 0x1F DUP2 ADD DUP6 SGT PUSH2 0x1825 JUMPI PUSH1 0x0 DUP1 REVERT JUMPDEST DUP1 MLOAD PUSH2 0x1833 PUSH2 0x179D DUP3 PUSH2 0x1730 JUMP JUMPDEST DUP2 DUP2 MSTORE PUSH1 0x5 SWAP2 SWAP1 SWAP2 SHL DUP3 ADD DUP4 ADD SWAP1 DUP4 DUP2 ADD SWAP1 DUP8 DUP4 GT ISZERO PUSH2 0x1852 JUMPI PUSH1 0x0 DUP1 REVERT JUMPDEST SWAP3 DUP5 ADD SWAP3 JUMPDEST DUP3 DUP5 LT ISZERO PUSH2 0x17DF JUMPI DUP4 MLOAD PUSH2 0x186A DUP2 PUSH2 0x13C4 JUMP JUMPDEST DUP3 MSTORE SWAP3 DUP5 ADD SWAP3 SWAP1 DUP5 ADD SWAP1 PUSH2 0x1857 JUMP JUMPDEST PUSH1 0x0 JUMPDEST DUP4 DUP2 LT ISZERO PUSH2 0x1894 JUMPI DUP2 DUP2 ADD MLOAD DUP4 DUP3 ADD MSTORE PUSH1 0x20 ADD PUSH2 0x187C JUMP JUMPDEST POP POP PUSH1 0x0 SWAP2 ADD MSTORE JUMP JUMPDEST PUSH1 0x0 PUSH8 0xFFFFFFFFFFFFFFFF DUP4 GT ISZERO PUSH2 0x18B7 JUMPI PUSH2 0x18B7 PUSH2 0x16E9 JUMP JUMPDEST PUSH2 0x18CA PUSH1 0x1F DUP5 ADD PUSH1 0x1F NOT AND PUSH1 0x20 ADD PUSH2 0x16FF JUMP JUMPDEST SWAP1 POP DUP3 DUP2 MSTORE DUP4 DUP4 DUP4 ADD GT ISZERO PUSH2 0x18DE JUMPI PUSH1 0x0 DUP1 REVERT JUMPDEST PUSH2 0x1441 DUP4 PUSH1 0x20 DUP4 ADD DUP5 PUSH2 0x1879 JUMP JUMPDEST PUSH1 0x0 DUP3 PUSH1 0x1F DUP4 ADD SLT PUSH2 0x18FD JUMPI PUSH1 0x0 DUP1 REVERT JUMPDEST PUSH2 0x1441 DUP4 DUP4 MLOAD PUSH1 0x20 DUP6 ADD PUSH2 0x189D JUMP JUMPDEST PUSH1 0x0 DUP1 PUSH1 0x0 DUP1 PUSH1 0x0 DUP1 PUSH1 0xC0 DUP8 DUP10 SUB SLT ISZERO PUSH2 0x1925 JUMPI PUSH1 0x0 DUP1 REVERT JUMPDEST DUP7 MLOAD SWAP6 POP PUSH1 0x20 DUP8 ADD MLOAD SWAP5 POP PUSH1 0x40 DUP8 ADD MLOAD PUSH2 0x193E DUP2 PUSH2 0x13C4 JUMP JUMPDEST PUSH1 0x60 DUP9 ADD MLOAD SWAP1 SWAP5 POP PUSH8 0xFFFFFFFFFFFFFFFF DUP1 DUP3 GT ISZERO PUSH2 0x195C JUMPI PUSH1 0x0 DUP1 REVERT JUMPDEST PUSH2 0x1968 DUP11 DUP4 DUP12 ADD PUSH2 0x18EC JUMP JUMPDEST SWAP5 POP PUSH1 0x80 DUP10 ADD MLOAD SWAP2 POP DUP1 DUP3 GT ISZERO PUSH2 0x197E JUMPI PUSH1 0x0 DUP1 REVERT JUMPDEST PUSH2 0x198A DUP11 DUP4 DUP12 ADD PUSH2 0x18EC JUMP JUMPDEST SWAP4 POP PUSH1 0xA0 DUP10 ADD MLOAD SWAP2 POP DUP1 DUP3 GT ISZERO PUSH2 0x19A0 JUMPI PUSH1 0x0 DUP1 REVERT JUMPDEST POP DUP8 ADD PUSH1 0x1F DUP2 ADD DUP10 SGT PUSH2 0x19B2 JUMPI PUSH1 0x0 DUP1 REVERT JUMPDEST PUSH2 0x19C1 DUP10 DUP3 MLOAD PUSH1 0x20 DUP5 ADD PUSH2 0x189D JUMP JUMPDEST SWAP2 POP POP SWAP3 SWAP6 POP SWAP3 SWAP6 POP SWAP3 SWAP6 JUMP JUMPDEST PUSH1 0x0 DUP2 MLOAD DUP1 DUP5 MSTORE PUSH2 0x19E6 DUP2 PUSH1 0x20 DUP7 ADD PUSH1 0x20 DUP7 ADD PUSH2 0x1879 JUMP JUMPDEST PUSH1 0x1F ADD PUSH1 0x1F NOT AND SWAP3 SWAP1 SWAP3 ADD PUSH1 0x20 ADD SWAP3 SWAP2 POP POP JUMP JUMPDEST PUSH1 0x1 DUP1 PUSH1 0xA0 SHL SUB DUP6 AND DUP2 MSTORE DUP4 PUSH1 0x20 DUP3 ADD MSTORE PUSH1 0x80 PUSH1 0x40 DUP3 ADD MSTORE PUSH1 0x0 PUSH2 0x1A21 PUSH1 0x80 DUP4 ADD DUP6 PUSH2 0x19CE JUMP JUMPDEST DUP3 DUP2 SUB PUSH1 0x60 DUP5 ADD MSTORE PUSH2 0x17DF DUP2 DUP6 PUSH2 0x19CE JUMP JUMPDEST PUSH1 0x0 PUSH1 0x20 DUP3 DUP5 SUB SLT ISZERO PUSH2 0x1A45 JUMPI PUSH1 0x0 DUP1 REVERT JUMPDEST DUP2 MLOAD DUP1 ISZERO ISZERO DUP2 EQ PUSH2 0x1441 JUMPI PUSH1 0x0 DUP1 REVERT JUMPDEST DUP2 DUP2 SUB DUP2 DUP2 GT ISZERO PUSH2 0x576 JUMPI PUSH2 0x576 PUSH2 0x169D JUMP JUMPDEST PUSH1 0x0 PUSH1 0x20 DUP3 DUP5 SUB SLT ISZERO PUSH2 0x1A7A JUMPI PUSH1 0x0 DUP1 REVERT JUMPDEST DUP2 MLOAD PUSH2 0x1441 DUP2 PUSH2 0x13C4 JUMP INVALID LOG2 PUSH5 0x6970667358 0x22 SLT KECCAK256 PUSH18 0x21DD261CCCD5DF3ED945917028FCAD6BED79 0xBB 0xF8 0xC7 0xBD DUP6 0xD5 GAS SWAP6 0xCD DUP13 0xBF XOR EXTCODESIZE PUSH5 0x736F6C6343 STOP ADDMOD GT STOP CALLER "
				},
				"gasEstimates": {
					"creation": {
						"codeDepositCost": "1368600",
						"executionCost": "1424",
						"totalCost": "1370024"
					},
					"external": {
						"addAgent(address)": "30353",
						"batchRegisterIdentity(address[],address[],uint16[])": "infinite",
						"contains(address)": "infinite",
						"deleteIdentity(address)": "infinite",
						"identity(address)": "infinite",
						"identityStorage()": "2441",
						"init(address,address,address)": "infinite",
						"investorCountry(address)": "infinite",
						"isAgent(address)": "2679",
						"isVerified(address)": "infinite",
						"issuersRegistry()": "2353",
						"owner()": "2376",
						"registerIdentity(address,address,uint16)": "infinite",
						"removeAgent(address)": "30410",
						"renounceOwnership()": "infinite",
						"setClaimTopicsRegistry(address)": "27990",
						"setIdentityRegistryStorage(address)": "27969",
						"setTrustedIssuersRegistry(address)": "27967",
						"topicsRegistry()": "2432",
						"transferOwnership(address)": "infinite",
						"updateCountry(address,uint16)": "infinite",
						"updateIdentity(address,address)": "infinite"
					}
				},
				"methodIdentifiers": {
					"addAgent(address)": "84e79842",
					"batchRegisterIdentity(address[],address[],uint16[])": "653dc9f1",
					"contains(address)": "5dbe47e8",
					"deleteIdentity(address)": "a8d29d1d",
					"identity(address)": "f0eb5e54",
					"identityStorage()": "f11abfd8",
					"init(address,address,address)": "184b9559",
					"investorCountry(address)": "7e42683b",
					"isAgent(address)": "1ffbb064",
					"isVerified(address)": "b9209e33",
					"issuersRegistry()": "b4f3fcb7",
					"owner()": "8da5cb5b",
					"registerIdentity(address,address,uint16)": "454a03e0",
					"removeAgent(address)": "97a6278e",
					"renounceOwnership()": "715018a6",
					"setClaimTopicsRegistry(address)": "670af6a9",
					"setIdentityRegistryStorage(address)": "26d941ae",
					"setTrustedIssuersRegistry(address)": "e744d789",
					"topicsRegistry()": "3b3e12f4",
					"transferOwnership(address)": "f2fde38b",
					"updateCountry(address,uint16)": "3b239a7f",
					"updateIdentity(address,address)": "8e098ca1"
				}
			},
			"storageLayout": {
				"storage": [
					{
						"astId": 1907,
						"contract": "contracts t-rex/registry/implementation/IdentityRegistry.sol:IdentityRegistry",
						"label": "_agents",
						"offset": 0,
						"slot": "0",
						"type": "t_struct(Role)2005_storage"
					},
					{
						"astId": 1880,
						"contract": "contracts t-rex/registry/implementation/IdentityRegistry.sol:IdentityRegistry",
						"label": "_tokenTopicsRegistry",
						"offset": 0,
						"slot": "1",
						"type": "t_contract(IClaimTopicsRegistry)1479"
					},
					{
						"astId": 1884,
						"contract": "contracts t-rex/registry/implementation/IdentityRegistry.sol:IdentityRegistry",
						"label": "_tokenIssuersRegistry",
						"offset": 0,
						"slot": "2",
						"type": "t_contract(ITrustedIssuersRegistry)1871"
					},
					{
						"astId": 1888,
						"contract": "contracts t-rex/registry/implementation/IdentityRegistry.sol:IdentityRegistry",
						"label": "_tokenIdentityStorage",
						"offset": 0,
						"slot": "3",
						"type": "t_contract(IIdentityRegistryStorage)1770"
					},
					{
						"astId": 1893,
						"contract": "contracts t-rex/registry/implementation/IdentityRegistry.sol:IdentityRegistry",
						"label": "__gap",
						"offset": 0,
						"slot": "4",
						"type": "t_array(t_uint256)49_storage"
					}
				],
				"types": {
					"t_address": {
						"encoding": "inplace",
						"label": "address",
						"numberOfBytes": "20"
					},
					"t_array(t_uint256)49_storage": {
						"base": "t_uint256",
						"encoding": "inplace",
						"label": "uint256[49]",
						"numberOfBytes": "1568"
					},
					"t_bool": {
						"encoding": "inplace",
						"label": "bool",
						"numberOfBytes": "1"
					},
					"t_contract(IClaimTopicsRegistry)1479": {
						"encoding": "inplace",
						"label": "contract IClaimTopicsRegistry",
						"numberOfBytes": "20"
					},
					"t_contract(IIdentityRegistryStorage)1770": {
						"encoding": "inplace",
						"label": "contract IIdentityRegistryStorage",
						"numberOfBytes": "20"
					},
					"t_contract(ITrustedIssuersRegistry)1871": {
						"encoding": "inplace",
						"label": "contract ITrustedIssuersRegistry",
						"numberOfBytes": "20"
					},
					"t_mapping(t_address,t_bool)": {
						"encoding": "mapping",
						"key": "t_address",
						"label": "mapping(address => bool)",
						"numberOfBytes": "32",
						"value": "t_bool"
					},
					"t_struct(Role)2005_storage": {
						"encoding": "inplace",
						"label": "struct Roles.Role",
						"members": [
							{
								"astId": 2004,
								"contract": "contracts t-rex/registry/implementation/IdentityRegistry.sol:IdentityRegistry",
								"label": "bearer",
								"offset": 0,
								"slot": "0",
								"type": "t_mapping(t_address,t_bool)"
							}
						],
						"numberOfBytes": "32"
					},
					"t_uint256": {
						"encoding": "inplace",
						"label": "uint256",
						"numberOfBytes": "32"
					}
				}
			},
			"userdoc": {
				"events": {
					"ClaimTopicsRegistrySet(address)": {
						"notice": "this event is emitted when the ClaimTopicsRegistry has been set for the IdentityRegistry  the event is emitted by the IdentityRegistry constructor  `claimTopicsRegistry` is the address of the Claim Topics Registry contract"
					},
					"CountryUpdated(address,uint16)": {
						"notice": "this event is emitted when an Identity's country has been updated  the event is emitted by the 'updateCountry' function  `investorAddress` is the address on which the country has been updated  `country` is the numeric code (ISO 3166-1) of the new country"
					},
					"IdentityRegistered(address,address)": {
						"notice": "this event is emitted when an Identity is registered into the Identity Registry.  the event is emitted by the 'registerIdentity' function  `investorAddress` is the address of the investor's wallet  `identity` is the address of the Identity smart contract (onchainID)"
					},
					"IdentityRemoved(address,address)": {
						"notice": "this event is emitted when an Identity is removed from the Identity Registry.  the event is emitted by the 'deleteIdentity' function  `investorAddress` is the address of the investor's wallet  `identity` is the address of the Identity smart contract (onchainID)"
					},
					"IdentityStorageSet(address)": {
						"notice": "this event is emitted when the IdentityRegistryStorage has been set for the IdentityRegistry  the event is emitted by the IdentityRegistry constructor  `identityStorage` is the address of the Identity Registry Storage contract"
					},
					"IdentityUpdated(address,address)": {
						"notice": "this event is emitted when an Identity has been updated  the event is emitted by the 'updateIdentity' function  `oldIdentity` is the old Identity contract's address to update  `newIdentity` is the new Identity contract's"
					},
					"TrustedIssuersRegistrySet(address)": {
						"notice": "this event is emitted when the TrustedIssuersRegistry has been set for the IdentityRegistry  the event is emitted by the IdentityRegistry constructor  `trustedIssuersRegistry` is the address of the Trusted Issuers Registry contract"
					}
				},
				"kind": "user",
				"methods": {},
				"version": 1
			}
		}
	}
}