{
	"contracts/compliance/modular/ModularCompliance.sol": {
		"ModularCompliance": {
			"abi": [
				{
					"inputs": [],
					"name": "InvalidInitialization",
					"type": "error"
				},
				{
					"inputs": [],
					"name": "NotInitializing",
					"type": "error"
				},
				{
					"inputs": [
						{
							"internalType": "address",
							"name": "owner",
							"type": "address"
						}
					],
					"name": "OwnableInvalidOwner",
					"type": "error"
				},
				{
					"inputs": [
						{
							"internalType": "address",
							"name": "account",
							"type": "address"
						}
					],
					"name": "OwnableUnauthorizedAccount",
					"type": "error"
				},
				{
					"anonymous": false,
					"inputs": [
						{
							"indexed": false,
							"internalType": "uint64",
							"name": "version",
							"type": "uint64"
						}
					],
					"name": "Initialized",
					"type": "event"
				},
				{
					"anonymous": false,
					"inputs": [
						{
							"indexed": true,
							"internalType": "address",
							"name": "_module",
							"type": "address"
						}
					],
					"name": "ModuleAdded",
					"type": "event"
				},
				{
					"anonymous": false,
					"inputs": [
						{
							"indexed": true,
							"internalType": "address",
							"name": "target",
							"type": "address"
						},
						{
							"indexed": false,
							"internalType": "bytes4",
							"name": "selector",
							"type": "bytes4"
						}
					],
					"name": "ModuleInteraction",
					"type": "event"
				},
				{
					"anonymous": false,
					"inputs": [
						{
							"indexed": true,
							"internalType": "address",
							"name": "_module",
							"type": "address"
						}
					],
					"name": "ModuleRemoved",
					"type": "event"
				},
				{
					"anonymous": false,
					"inputs": [
						{
							"indexed": true,
							"internalType": "address",
							"name": "previousOwner",
							"type": "address"
						},
						{
							"indexed": true,
							"internalType": "address",
							"name": "newOwner",
							"type": "address"
						}
					],
					"name": "OwnershipTransferred",
					"type": "event"
				},
				{
					"anonymous": false,
					"inputs": [
						{
							"indexed": false,
							"internalType": "address",
							"name": "_token",
							"type": "address"
						}
					],
					"name": "TokenBound",
					"type": "event"
				},
				{
					"anonymous": false,
					"inputs": [
						{
							"indexed": false,
							"internalType": "address",
							"name": "_token",
							"type": "address"
						}
					],
					"name": "TokenUnbound",
					"type": "event"
				},
				{
					"inputs": [
						{
							"internalType": "address",
							"name": "_module",
							"type": "address"
						}
					],
					"name": "addModule",
					"outputs": [],
					"stateMutability": "nonpayable",
					"type": "function"
				},
				{
					"inputs": [
						{
							"internalType": "address",
							"name": "_token",
							"type": "address"
						}
					],
					"name": "bindToken",
					"outputs": [],
					"stateMutability": "nonpayable",
					"type": "function"
				},
				{
					"inputs": [
						{
							"internalType": "bytes",
							"name": "callData",
							"type": "bytes"
						},
						{
							"internalType": "address",
							"name": "_module",
							"type": "address"
						}
					],
					"name": "callModuleFunction",
					"outputs": [],
					"stateMutability": "nonpayable",
					"type": "function"
				},
				{
					"inputs": [
						{
							"internalType": "address",
							"name": "_from",
							"type": "address"
						},
						{
							"internalType": "address",
							"name": "_to",
							"type": "address"
						},
						{
							"internalType": "uint256",
							"name": "_value",
							"type": "uint256"
						}
					],
					"name": "canTransfer",
					"outputs": [
						{
							"internalType": "bool",
							"name": "",
							"type": "bool"
						}
					],
					"stateMutability": "view",
					"type": "function"
				},
				{
					"inputs": [
						{
							"internalType": "address",
							"name": "_to",
							"type": "address"
						},
						{
							"internalType": "uint256",
							"name": "_value",
							"type": "uint256"
						}
					],
					"name": "created",
					"outputs": [],
					"stateMutability": "nonpayable",
					"type": "function"
				},
				{
					"inputs": [
						{
							"internalType": "address",
							"name": "_from",
							"type": "address"
						},
						{
							"internalType": "uint256",
							"name": "_value",
							"type": "uint256"
						}
					],
					"name": "destroyed",
					"outputs": [],
					"stateMutability": "nonpayable",
					"type": "function"
				},
				{
					"inputs": [],
					"name": "getModules",
					"outputs": [
						{
							"internalType": "address[]",
							"name": "",
							"type": "address[]"
						}
					],
					"stateMutability": "view",
					"type": "function"
				},
				{
					"inputs": [],
					"name": "getTokenBound",
					"outputs": [
						{
							"internalType": "address",
							"name": "",
							"type": "address"
						}
					],
					"stateMutability": "view",
					"type": "function"
				},
				{
					"inputs": [],
					"name": "init",
					"outputs": [],
					"stateMutability": "nonpayable",
					"type": "function"
				},
				{
					"inputs": [
						{
							"internalType": "address",
							"name": "_module",
							"type": "address"
						}
					],
					"name": "isModuleBound",
					"outputs": [
						{
							"internalType": "bool",
							"name": "",
							"type": "bool"
						}
					],
					"stateMutability": "view",
					"type": "function"
				},
				{
					"inputs": [],
					"name": "owner",
					"outputs": [
						{
							"internalType": "address",
							"name": "",
							"type": "address"
						}
					],
					"stateMutability": "view",
					"type": "function"
				},
				{
					"inputs": [
						{
							"internalType": "address",
							"name": "_module",
							"type": "address"
						}
					],
					"name": "removeModule",
					"outputs": [],
					"stateMutability": "nonpayable",
					"type": "function"
				},
				{
					"inputs": [],
					"name": "renounceOwnership",
					"outputs": [],
					"stateMutability": "nonpayable",
					"type": "function"
				},
				{
					"inputs": [
						{
							"internalType": "address",
							"name": "newOwner",
							"type": "address"
						}
					],
					"name": "transferOwnership",
					"outputs": [],
					"stateMutability": "nonpayable",
					"type": "function"
				},
				{
					"inputs": [
						{
							"internalType": "address",
							"name": "_from",
							"type": "address"
						},
						{
							"internalType": "address",
							"name": "_to",
							"type": "address"
						},
						{
							"internalType": "uint256",
							"name": "_value",
							"type": "uint256"
						}
					],
					"name": "transferred",
					"outputs": [],
					"stateMutability": "nonpayable",
					"type": "function"
				},
				{
					"inputs": [
						{
							"internalType": "address",
							"name": "_token",
							"type": "address"
						}
					],
					"name": "unbindToken",
					"outputs": [],
					"stateMutability": "nonpayable",
					"type": "function"
				}
			],
			"devdoc": {
				"errors": {
					"InvalidInitialization()": [
						{
							"details": "The contract is already initialized."
						}
					],
					"NotInitializing()": [
						{
							"details": "The contract is not initializing."
						}
					],
					"OwnableInvalidOwner(address)": [
						{
							"details": "The owner is not a valid owner account. (eg. `address(0)`)"
						}
					],
					"OwnableUnauthorizedAccount(address)": [
						{
							"details": "The caller account is not authorized to perform an operation."
						}
					]
				},
				"events": {
					"Initialized(uint64)": {
						"details": "Triggered when the contract has been initialized or reinitialized."
					},
					"ModuleInteraction(address,bytes4)": {
						"details": "Event emitted for each executed interaction with a module contract.  For gas efficiency, only the interaction calldata selector (first 4  bytes) is included in the event. For interactions without calldata or  whose calldata is shorter than 4 bytes, the selector will be `0`."
					}
				},
				"kind": "dev",
				"methods": {
					"addModule(address)": {
						"details": "See {IModularCompliance-addModule}."
					},
					"bindToken(address)": {
						"details": "See {IModularCompliance-bindToken}."
					},
					"callModuleFunction(bytes,address)": {
						"details": "see {IModularCompliance-callModuleFunction}."
					},
					"canTransfer(address,address,uint256)": {
						"details": "See {IModularCompliance-canTransfer}."
					},
					"created(address,uint256)": {
						"details": "See {IModularCompliance-created}."
					},
					"destroyed(address,uint256)": {
						"details": "See {IModularCompliance-destroyed}."
					},
					"getModules()": {
						"details": "See {IModularCompliance-getModules}."
					},
					"getTokenBound()": {
						"details": "See {IModularCompliance-getTokenBound}."
					},
					"isModuleBound(address)": {
						"details": "See {IModularCompliance-isModuleBound}."
					},
					"owner()": {
						"details": "Returns the address of the current owner."
					},
					"removeModule(address)": {
						"details": "See {IModularCompliance-removeModule}."
					},
					"renounceOwnership()": {
						"details": "Leaves the contract without owner. It will not be possible to call `onlyOwner` functions. Can only be called by the current owner. NOTE: Renouncing ownership will leave the contract without an owner, thereby disabling any functionality that is only available to the owner."
					},
					"transferOwnership(address)": {
						"details": "Transfers ownership of the contract to a new account (`newOwner`). Can only be called by the current owner."
					},
					"transferred(address,address,uint256)": {
						"details": "See {IModularCompliance-transferred}."
					},
					"unbindToken(address)": {
						"details": "See {IModularCompliance-unbindToken}."
					}
				},
				"version": 1
			},
			"evm": {
				"assembly": "    /* \"contracts/compliance/modular/ModularCompliance.sol\":4047:11464  contract ModularCompliance is IModularCompliance, OwnableUpgradeable, MCStorage {... */\n  mstore(0x40, 0x80)\n  callvalue\n  dup1\n  iszero\n  tag_1\n  jumpi\n  0x00\n  dup1\n  revert\ntag_1:\n  pop\n  dataSize(sub_0)\n  dup1\n  dataOffset(sub_0)\n  0x00\n  codecopy\n  0x00\n  return\nstop\n\nsub_0: assembly {\n        /* \"contracts/compliance/modular/ModularCompliance.sol\":4047:11464  contract ModularCompliance is IModularCompliance, OwnableUpgradeable, MCStorage {... */\n      mstore(0x40, 0x80)\n      callvalue\n      dup1\n      iszero\n      tag_1\n      jumpi\n      0x00\n      dup1\n      revert\n    tag_1:\n      pop\n      jumpi(tag_2, lt(calldatasize, 0x04))\n      shr(0xe0, calldataload(0x00))\n      dup1\n      0x8da5cb5b\n      gt\n      tag_19\n      jumpi\n      dup1\n      0xe1c7392a\n      gt\n      tag_20\n      jumpi\n      dup1\n      0xe1c7392a\n      eq\n      tag_15\n      jumpi\n      dup1\n      0xe46638e6\n      eq\n      tag_16\n      jumpi\n      dup1\n      0xefb22d33\n      eq\n      tag_17\n      jumpi\n      dup1\n      0xf2fde38b\n      eq\n      tag_18\n      jumpi\n      0x00\n      dup1\n      revert\n    tag_20:\n      dup1\n      0x8da5cb5b\n      eq\n      tag_11\n      jumpi\n      dup1\n      0xa0632461\n      eq\n      tag_12\n      jumpi\n      dup1\n      0xa446d49f\n      eq\n      tag_13\n      jumpi\n      dup1\n      0xb2494df3\n      eq\n      tag_14\n      jumpi\n      0x00\n      dup1\n      revert\n    tag_19:\n      dup1\n      0x6a3edf28\n      gt\n      tag_21\n      jumpi\n      dup1\n      0x6a3edf28\n      eq\n      tag_7\n      jumpi\n      dup1\n      0x715018a6\n      eq\n      tag_8\n      jumpi\n      dup1\n      0x8baf29b4\n      eq\n      tag_9\n      jumpi\n      dup1\n      0x8d2ea772\n      eq\n      tag_10\n      jumpi\n      0x00\n      dup1\n      revert\n    tag_21:\n      dup1\n      0x1ed86f19\n      eq\n      tag_3\n      jumpi\n      dup1\n      0x3ff5aa02\n      eq\n      tag_4\n      jumpi\n      dup1\n      0x40db3b50\n      eq\n      tag_5\n      jumpi\n      dup1\n      0x5f8dead3\n      eq\n      tag_6\n      jumpi\n    tag_2:\n      0x00\n      dup1\n      revert\n        /* \"contracts/compliance/modular/ModularCompliance.sol\":5407:6055  function addModule(address _module) external override onlyOwner {... */\n    tag_3:\n      tag_22\n      tag_23\n      calldatasize\n      0x04\n      tag_24\n      jump\t// in\n    tag_23:\n      tag_25\n      jump\t// in\n    tag_22:\n      stop\n        /* \"contracts/compliance/modular/ModularCompliance.sol\":4570:4902  function bindToken(address _token) external override {... */\n    tag_4:\n      tag_22\n      tag_27\n      calldatasize\n      0x04\n      tag_24\n      jump\t// in\n    tag_27:\n      tag_28\n      jump\t// in\n        /* \"contracts/compliance/modular/ModularCompliance.sol\":4973:5336  function unbindToken(address _token) external override {... */\n    tag_5:\n      tag_22\n      tag_30\n      calldatasize\n      0x04\n      tag_24\n      jump\t// in\n    tag_30:\n      tag_31\n      jump\t// in\n        /* \"contracts/compliance/modular/ModularCompliance.sol\":7369:7749  function created(address _to, uint256 _value) external onlyToken override {... */\n    tag_6:\n      tag_22\n      tag_33\n      calldatasize\n      0x04\n      tag_34\n      jump\t// in\n    tag_33:\n      tag_35\n      jump\t// in\n        /* \"contracts/compliance/modular/ModularCompliance.sol\":9878:9979  function getTokenBound() external view override returns (address) {... */\n    tag_7:\n        /* \"contracts/compliance/modular/ModularCompliance.sol\":9935:9942  address */\n      0x00\n        /* \"contracts/compliance/modular/ModularCompliance.sol\":9961:9972  _tokenBound */\n      sload\n      sub(shl(0xa0, 0x01), 0x01)\n      and\n        /* \"contracts/compliance/modular/ModularCompliance.sol\":9878:9979  function getTokenBound() external view override returns (address) {... */\n    tag_36:\n      mload(0x40)\n      sub(shl(0xa0, 0x01), 0x01)\n        /* \"#utility.yul\":806:838   */\n      swap1\n      swap2\n      and\n        /* \"#utility.yul\":788:839   */\n      dup2\n      mstore\n        /* \"#utility.yul\":776:778   */\n      0x20\n        /* \"#utility.yul\":761:779   */\n      add\n        /* \"contracts/compliance/modular/ModularCompliance.sol\":9878:9979  function getTokenBound() external view override returns (address) {... */\n    tag_38:\n      mload(0x40)\n      dup1\n      swap2\n      sub\n      swap1\n      return\n        /* \"@openzeppelin/contracts-upgradeable/access/OwnableUpgradeable.sol\":3165:3266  function renounceOwnership() public virtual onlyOwner {... */\n    tag_8:\n      tag_22\n      tag_41\n      jump\t// in\n        /* \"contracts/compliance/modular/ModularCompliance.sol\":6829:7300  function transferred(address _from, address _to, uint256 _value) external onlyToken override {... */\n    tag_9:\n      tag_22\n      tag_43\n      calldatasize\n      0x04\n      tag_44\n      jump\t// in\n    tag_43:\n      tag_45\n      jump\t// in\n        /* \"contracts/compliance/modular/ModularCompliance.sol\":7820:8208  function destroyed(address _from, uint256 _value) external onlyToken override {... */\n    tag_10:\n      tag_22\n      tag_47\n      calldatasize\n      0x04\n      tag_34\n      jump\t// in\n    tag_47:\n      tag_48\n      jump\t// in\n        /* \"@openzeppelin/contracts-upgradeable/access/OwnableUpgradeable.sol\":2451:2595  function owner() public view virtual returns (address) {... */\n    tag_11:\n      tag_36\n      tag_50\n      jump\t// in\n        /* \"contracts/compliance/modular/ModularCompliance.sol\":6129:6758  function removeModule(address _module) external override onlyOwner {... */\n    tag_12:\n      tag_22\n      tag_53\n      calldatasize\n      0x04\n      tag_24\n      jump\t// in\n    tag_53:\n      tag_54\n      jump\t// in\n        /* \"contracts/compliance/modular/ModularCompliance.sol\":9504:9627  function isModuleBound(address _module) external view override returns (bool) {... */\n    tag_13:\n      tag_55\n      tag_56\n      calldatasize\n      0x04\n      tag_24\n      jump\t// in\n    tag_56:\n      sub(shl(0xa0, 0x01), 0x01)\n        /* \"contracts/compliance/modular/ModularCompliance.sol\":9599:9620  _moduleBound[_module] */\n      and\n        /* \"contracts/compliance/modular/ModularCompliance.sol\":9576:9580  bool */\n      0x00\n        /* \"contracts/compliance/modular/ModularCompliance.sol\":9599:9620  _moduleBound[_module] */\n      swap1\n      dup2\n      mstore\n        /* \"contracts/compliance/modular/ModularCompliance.sol\":9599:9611  _moduleBound */\n      0x02\n        /* \"contracts/compliance/modular/ModularCompliance.sol\":9599:9620  _moduleBound[_module] */\n      0x20\n      mstore\n      0x40\n      swap1\n      keccak256\n      sload\n      0xff\n      and\n      swap1\n        /* \"contracts/compliance/modular/ModularCompliance.sol\":9504:9627  function isModuleBound(address _module) external view override returns (bool) {... */\n      jump\n    tag_55:\n      mload(0x40)\n        /* \"#utility.yul\":1348:1362   */\n      swap1\n      iszero\n        /* \"#utility.yul\":1341:1363   */\n      iszero\n        /* \"#utility.yul\":1323:1364   */\n      dup2\n      mstore\n        /* \"#utility.yul\":1311:1313   */\n      0x20\n        /* \"#utility.yul\":1296:1314   */\n      add\n        /* \"contracts/compliance/modular/ModularCompliance.sol\":9504:9627  function isModuleBound(address _module) external view override returns (bool) {... */\n      tag_38\n        /* \"#utility.yul\":1183:1370   */\n      jump\n        /* \"contracts/compliance/modular/ModularCompliance.sol\":9699:9803  function getModules() external view override returns (address[] memory) {... */\n    tag_14:\n      tag_60\n      tag_61\n      jump\t// in\n    tag_60:\n      mload(0x40)\n      tag_38\n      swap2\n      swap1\n      tag_63\n      jump\t// in\n        /* \"contracts/compliance/modular/ModularCompliance.sol\":4419:4499  function init() external initializer {... */\n    tag_15:\n      tag_22\n      tag_65\n      jump\t// in\n        /* \"contracts/compliance/modular/ModularCompliance.sol\":10052:10414  function canTransfer(address _from, address _to, uint256 _value) external view override returns (bool) {... */\n    tag_16:\n      tag_55\n      tag_67\n      calldatasize\n      0x04\n      tag_44\n      jump\t// in\n    tag_67:\n      tag_68\n      jump\t// in\n        /* \"contracts/compliance/modular/ModularCompliance.sol\":8288:9429  function callModuleFunction(bytes calldata callData, address _module) external override onlyOwner {... */\n    tag_17:\n      tag_22\n      tag_71\n      calldatasize\n      0x04\n      tag_72\n      jump\t// in\n    tag_71:\n      tag_73\n      jump\t// in\n        /* \"@openzeppelin/contracts-upgradeable/access/OwnableUpgradeable.sol\":3415:3630  function transferOwnership(address newOwner) public virtual onlyOwner {... */\n    tag_18:\n      tag_22\n      tag_75\n      calldatasize\n      0x04\n      tag_24\n      jump\t// in\n    tag_75:\n      tag_76\n      jump\t// in\n        /* \"contracts/compliance/modular/ModularCompliance.sol\":5407:6055  function addModule(address _module) external override onlyOwner {... */\n    tag_25:\n        /* \"@openzeppelin/contracts-upgradeable/access/OwnableUpgradeable.sol\":2344:2357  _checkOwner() */\n      tag_78\n        /* \"@openzeppelin/contracts-upgradeable/access/OwnableUpgradeable.sol\":2344:2355  _checkOwner */\n      tag_79\n        /* \"@openzeppelin/contracts-upgradeable/access/OwnableUpgradeable.sol\":2344:2357  _checkOwner() */\n      jump\t// in\n    tag_78:\n      sub(shl(0xa0, 0x01), 0x01)\n        /* \"contracts/compliance/modular/ModularCompliance.sol\":5489:5510  _module != address(0) */\n      dup2\n      and\n        /* \"contracts/compliance/modular/ModularCompliance.sol\":5481:5546  require(_module != address(0), \"invalid argument - zero address\") */\n      tag_81\n      jumpi\n      mload(0x40)\n      shl(0xe5, 0x461bcd)\n      dup2\n      mstore\n      0x04\n      add\n      tag_82\n      swap1\n      tag_83\n      jump\t// in\n    tag_82:\n      mload(0x40)\n      dup1\n      swap2\n      sub\n      swap1\n      revert\n    tag_81:\n      sub(shl(0xa0, 0x01), 0x01)\n        /* \"contracts/compliance/modular/ModularCompliance.sol\":5565:5586  _moduleBound[_module] */\n      dup2\n      and\n      0x00\n      swap1\n      dup2\n      mstore\n        /* \"contracts/compliance/modular/ModularCompliance.sol\":5565:5577  _moduleBound */\n      0x02\n        /* \"contracts/compliance/modular/ModularCompliance.sol\":5565:5586  _moduleBound[_module] */\n      0x20\n      mstore\n      0x40\n      swap1\n      keccak256\n      sload\n      0xff\n      and\n        /* \"contracts/compliance/modular/ModularCompliance.sol\":5564:5586  !_moduleBound[_module] */\n      iszero\n        /* \"contracts/compliance/modular/ModularCompliance.sol\":5556:5611  require(!_moduleBound[_module], \"module already bound\") */\n      tag_84\n      jumpi\n      mload(0x40)\n      shl(0xe5, 0x461bcd)\n      dup2\n      mstore\n        /* \"#utility.yul\":3276:3278   */\n      0x20\n        /* \"contracts/compliance/modular/ModularCompliance.sol\":5556:5611  require(!_moduleBound[_module], \"module already bound\") */\n      0x04\n      dup3\n      add\n        /* \"#utility.yul\":3258:3279   */\n      mstore\n        /* \"#utility.yul\":3315:3317   */\n      0x14\n        /* \"#utility.yul\":3295:3313   */\n      0x24\n      dup3\n      add\n        /* \"#utility.yul\":3288:3318   */\n      mstore\n      shl(0x62, 0x1b5bd91d5b1948185b1c9958591e48189bdd5b99)\n        /* \"#utility.yul\":3334:3352   */\n      0x44\n      dup3\n      add\n        /* \"#utility.yul\":3327:3377   */\n      mstore\n        /* \"#utility.yul\":3394:3412   */\n      0x64\n      add\n        /* \"contracts/compliance/modular/ModularCompliance.sol\":5556:5611  require(!_moduleBound[_module], \"module already bound\") */\n      tag_82\n        /* \"#utility.yul\":3074:3418   */\n      jump\n        /* \"contracts/compliance/modular/ModularCompliance.sol\":5556:5611  require(!_moduleBound[_module], \"module already bound\") */\n    tag_84:\n        /* \"contracts/compliance/modular/ModularCompliance.sol\":5629:5637  _modules */\n      0x01\n        /* \"contracts/compliance/modular/ModularCompliance.sol\":5629:5644  _modules.length */\n      sload\n        /* \"contracts/compliance/modular/ModularCompliance.sol\":5648:5650  24 */\n      0x18\n      lt\n        /* \"contracts/compliance/modular/ModularCompliance.sol\":5629:5650  _modules.length <= 24 */\n      iszero\n        /* \"contracts/compliance/modular/ModularCompliance.sol\":5621:5686  require(_modules.length <= 24, \"cannot add more than 25 modules\") */\n      tag_87\n      jumpi\n      mload(0x40)\n      shl(0xe5, 0x461bcd)\n      dup2\n      mstore\n        /* \"#utility.yul\":3625:3627   */\n      0x20\n        /* \"contracts/compliance/modular/ModularCompliance.sol\":5621:5686  require(_modules.length <= 24, \"cannot add more than 25 modules\") */\n      0x04\n      dup3\n      add\n        /* \"#utility.yul\":3607:3628   */\n      mstore\n        /* \"#utility.yul\":3664:3666   */\n      0x1f\n        /* \"#utility.yul\":3644:3662   */\n      0x24\n      dup3\n      add\n        /* \"#utility.yul\":3637:3667   */\n      mstore\n        /* \"#utility.yul\":3703:3736   */\n      0x63616e6e6f7420616464206d6f7265207468616e203235206d6f64756c657300\n        /* \"#utility.yul\":3683:3701   */\n      0x44\n      dup3\n      add\n        /* \"#utility.yul\":3676:3737   */\n      mstore\n        /* \"#utility.yul\":3754:3772   */\n      0x64\n      add\n        /* \"contracts/compliance/modular/ModularCompliance.sol\":5621:5686  require(_modules.length <= 24, \"cannot add more than 25 modules\") */\n      tag_82\n        /* \"#utility.yul\":3423:3778   */\n      jump\n        /* \"contracts/compliance/modular/ModularCompliance.sol\":5621:5686  require(_modules.length <= 24, \"cannot add more than 25 modules\") */\n    tag_87:\n        /* \"contracts/compliance/modular/ModularCompliance.sol\":5696:5710  IModule module */\n      0x00\n        /* \"contracts/compliance/modular/ModularCompliance.sol\":5721:5728  _module */\n      dup2\n        /* \"contracts/compliance/modular/ModularCompliance.sol\":5696:5729  IModule module = IModule(_module) */\n      swap1\n      pop\n        /* \"contracts/compliance/modular/ModularCompliance.sol\":5744:5750  module */\n      dup1\n      sub(shl(0xa0, 0x01), 0x01)\n        /* \"contracts/compliance/modular/ModularCompliance.sol\":5744:5764  module.isPlugAndPlay */\n      and\n      0xe6f5e807\n        /* \"contracts/compliance/modular/ModularCompliance.sol\":5744:5766  module.isPlugAndPlay() */\n      mload(0x40)\n      dup2\n      0xffffffff\n      and\n      0xe0\n      shl\n      dup2\n      mstore\n      0x04\n      add\n      0x20\n      mload(0x40)\n      dup1\n      dup4\n      sub\n      dup2\n      dup7\n      gas\n      staticcall\n      iszero\n      dup1\n      iszero\n      tag_91\n      jumpi\n      returndatasize\n      0x00\n      dup1\n      returndatacopy\n      revert(0x00, returndatasize)\n    tag_91:\n      pop\n      pop\n      pop\n      pop\n      mload(0x40)\n      returndatasize\n      not(0x1f)\n      0x1f\n      dup3\n      add\n      and\n      dup3\n      add\n      dup1\n      0x40\n      mstore\n      pop\n      dup2\n      add\n      swap1\n      tag_92\n      swap2\n      swap1\n      tag_93\n      jump\t// in\n    tag_92:\n        /* \"contracts/compliance/modular/ModularCompliance.sol\":5739:5897  if (!module.isPlugAndPlay()) {... */\n      tag_99\n      jumpi\n        /* \"contracts/compliance/modular/ModularCompliance.sol\":5790:5829  module.canComplianceBind(address(this)) */\n      mload(0x40)\n      shl(0xe0, 0xbcc21053)\n      dup2\n      mstore\n        /* \"contracts/compliance/modular/ModularCompliance.sol\":5823:5827  this */\n      address\n        /* \"contracts/compliance/modular/ModularCompliance.sol\":5790:5829  module.canComplianceBind(address(this)) */\n      0x04\n      dup3\n      add\n        /* \"#utility.yul\":788:839   */\n      mstore\n      sub(shl(0xa0, 0x01), 0x01)\n        /* \"contracts/compliance/modular/ModularCompliance.sol\":5790:5814  module.canComplianceBind */\n      dup3\n      and\n      swap1\n      0xbcc21053\n      swap1\n        /* \"#utility.yul\":761:779   */\n      0x24\n      add\n        /* \"contracts/compliance/modular/ModularCompliance.sol\":5790:5829  module.canComplianceBind(address(this)) */\n      0x20\n      mload(0x40)\n      dup1\n      dup4\n      sub\n      dup2\n      dup7\n      gas\n      staticcall\n      iszero\n      dup1\n      iszero\n      tag_97\n      jumpi\n      returndatasize\n      0x00\n      dup1\n      returndatacopy\n      revert(0x00, returndatasize)\n    tag_97:\n      pop\n      pop\n      pop\n      pop\n      mload(0x40)\n      returndatasize\n      not(0x1f)\n      0x1f\n      dup3\n      add\n      and\n      dup3\n      add\n      dup1\n      0x40\n      mstore\n      pop\n      dup2\n      add\n      swap1\n      tag_98\n      swap2\n      swap1\n      tag_93\n      jump\t// in\n    tag_98:\n        /* \"contracts/compliance/modular/ModularCompliance.sol\":5782:5886  require(module.canComplianceBind(address(this)), \"compliance is not suitable for binding to the module\") */\n      tag_99\n      jumpi\n      mload(0x40)\n      shl(0xe5, 0x461bcd)\n      dup2\n      mstore\n        /* \"#utility.yul\":4267:4269   */\n      0x20\n        /* \"contracts/compliance/modular/ModularCompliance.sol\":5782:5886  require(module.canComplianceBind(address(this)), \"compliance is not suitable for binding to the module\") */\n      0x04\n      dup3\n      add\n        /* \"#utility.yul\":4249:4270   */\n      mstore\n        /* \"#utility.yul\":4306:4308   */\n      0x34\n        /* \"#utility.yul\":4286:4304   */\n      0x24\n      dup3\n      add\n        /* \"#utility.yul\":4279:4309   */\n      mstore\n        /* \"#utility.yul\":4345:4379   */\n      0x636f6d706c69616e6365206973206e6f74207375697461626c6520666f722062\n        /* \"#utility.yul\":4325:4343   */\n      0x44\n      dup3\n      add\n        /* \"#utility.yul\":4318:4380   */\n      mstore\n      shl(0x60, 0x696e64696e6720746f20746865206d6f64756c65)\n        /* \"#utility.yul\":4396:4414   */\n      0x64\n      dup3\n      add\n        /* \"#utility.yul\":4389:4439   */\n      mstore\n        /* \"#utility.yul\":4456:4475   */\n      0x84\n      add\n        /* \"contracts/compliance/modular/ModularCompliance.sol\":5782:5886  require(module.canComplianceBind(address(this)), \"compliance is not suitable for binding to the module\") */\n      tag_82\n        /* \"#utility.yul\":4065:4481   */\n      jump\n        /* \"contracts/compliance/modular/ModularCompliance.sol\":5782:5886  require(module.canComplianceBind(address(this)), \"compliance is not suitable for binding to the module\") */\n    tag_99:\n        /* \"contracts/compliance/modular/ModularCompliance.sol\":5907:5943  module.bindCompliance(address(this)) */\n      mload(0x40)\n      shl(0xe2, 0x12a4c951)\n      dup2\n      mstore\n        /* \"contracts/compliance/modular/ModularCompliance.sol\":5937:5941  this */\n      address\n        /* \"contracts/compliance/modular/ModularCompliance.sol\":5907:5943  module.bindCompliance(address(this)) */\n      0x04\n      dup3\n      add\n        /* \"#utility.yul\":788:839   */\n      mstore\n      sub(shl(0xa0, 0x01), 0x01)\n        /* \"contracts/compliance/modular/ModularCompliance.sol\":5907:5928  module.bindCompliance */\n      dup3\n      and\n      swap1\n      0x4a932544\n      swap1\n        /* \"#utility.yul\":761:779   */\n      0x24\n      add\n        /* \"contracts/compliance/modular/ModularCompliance.sol\":5907:5943  module.bindCompliance(address(this)) */\n      0x00\n      mload(0x40)\n      dup1\n      dup4\n      sub\n      dup2\n      0x00\n      dup8\n      dup1\n      extcodesize\n      iszero\n      dup1\n      iszero\n      tag_103\n      jumpi\n      0x00\n      dup1\n      revert\n    tag_103:\n      pop\n      gas\n      call\n      iszero\n      dup1\n      iszero\n      tag_105\n      jumpi\n      returndatasize\n      0x00\n      dup1\n      returndatacopy\n      revert(0x00, returndatasize)\n    tag_105:\n      pop\n      pop\n        /* \"contracts/compliance/modular/ModularCompliance.sol\":5953:5961  _modules */\n      0x01\n        /* \"contracts/compliance/modular/ModularCompliance.sol\":5953:5975  _modules.push(_module) */\n      dup1\n      sload\n      dup1\n      dup3\n      add\n      dup3\n      sstore\n      0xb10e2d527612073b26eecdfd717e6a320cf44b4afac2b0732d9fcbe2b7fa0cf6\n      add\n      dup1\n      sload\n      not(sub(shl(0xa0, 0x01), 0x01))\n      and\n      sub(shl(0xa0, 0x01), 0x01)\n      dup8\n      and\n      swap1\n      dup2\n      or\n      swap1\n      swap2\n      sstore\n      0x00\n        /* \"contracts/compliance/modular/ModularCompliance.sol\":5985:6006  _moduleBound[_module] */\n      dup2\n      dup2\n      mstore\n        /* \"contracts/compliance/modular/ModularCompliance.sol\":5985:5997  _moduleBound */\n      0x02\n        /* \"contracts/compliance/modular/ModularCompliance.sol\":5953:5975  _modules.push(_module) */\n      0x20\n        /* \"contracts/compliance/modular/ModularCompliance.sol\":5985:6006  _moduleBound[_module] */\n      mstore\n      0x40\n      dup1\n      dup3\n      keccak256\n        /* \"contracts/compliance/modular/ModularCompliance.sol\":5985:6013  _moduleBound[_module] = true */\n      dup1\n      sload\n      not(0xff)\n      and\n      swap1\n      swap5\n      or\n      swap1\n      swap4\n      sstore\n        /* \"contracts/compliance/modular/ModularCompliance.sol\":6028:6048  ModuleAdded(_module) */\n      swap2\n      mload\n        /* \"contracts/compliance/modular/ModularCompliance.sol\":5953:5975  _modules.push(_module) */\n      swap1\n      swap4\n      pop\n        /* \"contracts/compliance/modular/ModularCompliance.sol\":6028:6048  ModuleAdded(_module) */\n      0xead6a006345da1073a106d5f32372d2d2204f46cb0b4bca8f5ebafcbbed12b8a\n      swap3\n      pop\n      log2\n        /* \"contracts/compliance/modular/ModularCompliance.sol\":5471:6055  {... */\n      pop\n        /* \"contracts/compliance/modular/ModularCompliance.sol\":5407:6055  function addModule(address _module) external override onlyOwner {... */\n      pop\n      jump\t// out\n        /* \"contracts/compliance/modular/ModularCompliance.sol\":4570:4902  function bindToken(address _token) external override {... */\n    tag_28:\n        /* \"contracts/compliance/modular/ModularCompliance.sol\":4652:4662  msg.sender */\n      caller\n        /* \"contracts/compliance/modular/ModularCompliance.sol\":4641:4648  owner() */\n      tag_108\n        /* \"contracts/compliance/modular/ModularCompliance.sol\":4641:4646  owner */\n      tag_50\n        /* \"contracts/compliance/modular/ModularCompliance.sol\":4641:4648  owner() */\n      jump\t// in\n    tag_108:\n      sub(shl(0xa0, 0x01), 0x01)\n        /* \"contracts/compliance/modular/ModularCompliance.sol\":4641:4662  owner() == msg.sender */\n      and\n      eq\n        /* \"contracts/compliance/modular/ModularCompliance.sol\":4641:4717  owner() == msg.sender || (_tokenBound == address(0) && msg.sender == _token) */\n      dup1\n      tag_110\n      jumpi\n      pop\n        /* \"contracts/compliance/modular/ModularCompliance.sol\":4690:4691  0 */\n      0x00\n        /* \"contracts/compliance/modular/ModularCompliance.sol\":4667:4678  _tokenBound */\n      sload\n      sub(shl(0xa0, 0x01), 0x01)\n      and\n        /* \"contracts/compliance/modular/ModularCompliance.sol\":4667:4692  _tokenBound == address(0) */\n      iszero\n        /* \"contracts/compliance/modular/ModularCompliance.sol\":4667:4716  _tokenBound == address(0) && msg.sender == _token */\n      dup1\n      iszero\n      tag_110\n      jumpi\n      pop\n        /* \"contracts/compliance/modular/ModularCompliance.sol\":4696:4706  msg.sender */\n      caller\n      sub(shl(0xa0, 0x01), 0x01)\n        /* \"contracts/compliance/modular/ModularCompliance.sol\":4696:4716  msg.sender == _token */\n      dup3\n      and\n      eq\n        /* \"contracts/compliance/modular/ModularCompliance.sol\":4667:4716  _tokenBound == address(0) && msg.sender == _token */\n    tag_110:\n        /* \"contracts/compliance/modular/ModularCompliance.sol\":4633:4758  require(owner() == msg.sender || (_tokenBound == address(0) && msg.sender == _token),... */\n      tag_111\n      jumpi\n      mload(0x40)\n      shl(0xe5, 0x461bcd)\n      dup2\n      mstore\n        /* \"#utility.yul\":4688:4690   */\n      0x20\n        /* \"contracts/compliance/modular/ModularCompliance.sol\":4633:4758  require(owner() == msg.sender || (_tokenBound == address(0) && msg.sender == _token),... */\n      0x04\n      dup3\n      add\n        /* \"#utility.yul\":4670:4691   */\n      mstore\n        /* \"#utility.yul\":4727:4729   */\n      0x1c\n        /* \"#utility.yul\":4707:4725   */\n      0x24\n      dup3\n      add\n        /* \"#utility.yul\":4700:4730   */\n      mstore\n        /* \"#utility.yul\":4766:4796   */\n      0x6f6e6c79206f776e6572206f7220746f6b656e2063616e2063616c6c00000000\n        /* \"#utility.yul\":4746:4764   */\n      0x44\n      dup3\n      add\n        /* \"#utility.yul\":4739:4797   */\n      mstore\n        /* \"#utility.yul\":4814:4832   */\n      0x64\n      add\n        /* \"contracts/compliance/modular/ModularCompliance.sol\":4633:4758  require(owner() == msg.sender || (_tokenBound == address(0) && msg.sender == _token),... */\n      tag_82\n        /* \"#utility.yul\":4486:4838   */\n      jump\n        /* \"contracts/compliance/modular/ModularCompliance.sol\":4633:4758  require(owner() == msg.sender || (_tokenBound == address(0) && msg.sender == _token),... */\n    tag_111:\n      sub(shl(0xa0, 0x01), 0x01)\n        /* \"contracts/compliance/modular/ModularCompliance.sol\":4776:4796  _token != address(0) */\n      dup2\n      and\n        /* \"contracts/compliance/modular/ModularCompliance.sol\":4768:4832  require(_token != address(0), \"invalid argument - zero address\") */\n      tag_114\n      jumpi\n      mload(0x40)\n      shl(0xe5, 0x461bcd)\n      dup2\n      mstore\n      0x04\n      add\n      tag_82\n      swap1\n      tag_83\n      jump\t// in\n    tag_114:\n        /* \"contracts/compliance/modular/ModularCompliance.sol\":4842:4853  _tokenBound */\n      0x00\n        /* \"contracts/compliance/modular/ModularCompliance.sol\":4842:4862  _tokenBound = _token */\n      dup1\n      sload\n      not(sub(shl(0xa0, 0x01), 0x01))\n      and\n      sub(shl(0xa0, 0x01), 0x01)\n      dup4\n      and\n      swap1\n      dup2\n      or\n      swap1\n      swap2\n      sstore\n        /* \"contracts/compliance/modular/ModularCompliance.sol\":4877:4895  TokenBound(_token) */\n      mload(0x40)\n        /* \"#utility.yul\":788:839   */\n      swap1\n      dup2\n      mstore\n        /* \"contracts/compliance/modular/ModularCompliance.sol\":4877:4895  TokenBound(_token) */\n      0x2de35142b19ed5a07796cf30791959c592018f70b1d2d7c460eef8ffe713692b\n      swap1\n        /* \"#utility.yul\":776:778   */\n      0x20\n        /* \"#utility.yul\":761:779   */\n      add\n        /* \"contracts/compliance/modular/ModularCompliance.sol\":4877:4895  TokenBound(_token) */\n    tag_116:\n      mload(0x40)\n      dup1\n      swap2\n      sub\n      swap1\n      log1\n        /* \"contracts/compliance/modular/ModularCompliance.sol\":4570:4902  function bindToken(address _token) external override {... */\n      pop\n      jump\t// out\n        /* \"contracts/compliance/modular/ModularCompliance.sol\":4973:5336  function unbindToken(address _token) external override {... */\n    tag_31:\n        /* \"contracts/compliance/modular/ModularCompliance.sol\":5057:5067  msg.sender */\n      caller\n        /* \"contracts/compliance/modular/ModularCompliance.sol\":5046:5053  owner() */\n      tag_118\n        /* \"contracts/compliance/modular/ModularCompliance.sol\":5046:5051  owner */\n      tag_50\n        /* \"contracts/compliance/modular/ModularCompliance.sol\":5046:5053  owner() */\n      jump\t// in\n    tag_118:\n      sub(shl(0xa0, 0x01), 0x01)\n        /* \"contracts/compliance/modular/ModularCompliance.sol\":5046:5067  owner() == msg.sender */\n      and\n      eq\n        /* \"contracts/compliance/modular/ModularCompliance.sol\":5046:5091  owner() == msg.sender || msg.sender == _token */\n      dup1\n      tag_119\n      jumpi\n      pop\n        /* \"contracts/compliance/modular/ModularCompliance.sol\":5071:5081  msg.sender */\n      caller\n      sub(shl(0xa0, 0x01), 0x01)\n        /* \"contracts/compliance/modular/ModularCompliance.sol\":5071:5091  msg.sender == _token */\n      dup3\n      and\n      eq\n        /* \"contracts/compliance/modular/ModularCompliance.sol\":5046:5091  owner() == msg.sender || msg.sender == _token */\n    tag_119:\n        /* \"contracts/compliance/modular/ModularCompliance.sol\":5038:5125  require(owner() == msg.sender || msg.sender == _token , \"only owner or token can call\") */\n      tag_120\n      jumpi\n      mload(0x40)\n      shl(0xe5, 0x461bcd)\n      dup2\n      mstore\n        /* \"#utility.yul\":4688:4690   */\n      0x20\n        /* \"contracts/compliance/modular/ModularCompliance.sol\":5038:5125  require(owner() == msg.sender || msg.sender == _token , \"only owner or token can call\") */\n      0x04\n      dup3\n      add\n        /* \"#utility.yul\":4670:4691   */\n      mstore\n        /* \"#utility.yul\":4727:4729   */\n      0x1c\n        /* \"#utility.yul\":4707:4725   */\n      0x24\n      dup3\n      add\n        /* \"#utility.yul\":4700:4730   */\n      mstore\n        /* \"#utility.yul\":4766:4796   */\n      0x6f6e6c79206f776e6572206f7220746f6b656e2063616e2063616c6c00000000\n        /* \"#utility.yul\":4746:4764   */\n      0x44\n      dup3\n      add\n        /* \"#utility.yul\":4739:4797   */\n      mstore\n        /* \"#utility.yul\":4814:4832   */\n      0x64\n      add\n        /* \"contracts/compliance/modular/ModularCompliance.sol\":5038:5125  require(owner() == msg.sender || msg.sender == _token , \"only owner or token can call\") */\n      tag_82\n        /* \"#utility.yul\":4486:4838   */\n      jump\n        /* \"contracts/compliance/modular/ModularCompliance.sol\":5038:5125  require(owner() == msg.sender || msg.sender == _token , \"only owner or token can call\") */\n    tag_120:\n        /* \"contracts/compliance/modular/ModularCompliance.sol\":5153:5164  _tokenBound */\n      sload(0x00)\n      sub(shl(0xa0, 0x01), 0x01)\n        /* \"contracts/compliance/modular/ModularCompliance.sol\":5143:5164  _token == _tokenBound */\n      dup3\n      dup2\n      and\n        /* \"contracts/compliance/modular/ModularCompliance.sol\":5153:5164  _tokenBound */\n      swap2\n      and\n        /* \"contracts/compliance/modular/ModularCompliance.sol\":5143:5164  _token == _tokenBound */\n      eq\n        /* \"contracts/compliance/modular/ModularCompliance.sol\":5135:5192  require(_token == _tokenBound, \"This token is not bound\") */\n      tag_122\n      jumpi\n      mload(0x40)\n      shl(0xe5, 0x461bcd)\n      dup2\n      mstore\n        /* \"#utility.yul\":5045:5047   */\n      0x20\n        /* \"contracts/compliance/modular/ModularCompliance.sol\":5135:5192  require(_token == _tokenBound, \"This token is not bound\") */\n      0x04\n      dup3\n      add\n        /* \"#utility.yul\":5027:5048   */\n      mstore\n        /* \"#utility.yul\":5084:5086   */\n      0x17\n        /* \"#utility.yul\":5064:5082   */\n      0x24\n      dup3\n      add\n        /* \"#utility.yul\":5057:5087   */\n      mstore\n        /* \"#utility.yul\":5123:5148   */\n      0x5468697320746f6b656e206973206e6f7420626f756e64000000000000000000\n        /* \"#utility.yul\":5103:5121   */\n      0x44\n      dup3\n      add\n        /* \"#utility.yul\":5096:5149   */\n      mstore\n        /* \"#utility.yul\":5166:5184   */\n      0x64\n      add\n        /* \"contracts/compliance/modular/ModularCompliance.sol\":5135:5192  require(_token == _tokenBound, \"This token is not bound\") */\n      tag_82\n        /* \"#utility.yul\":4843:5190   */\n      jump\n        /* \"contracts/compliance/modular/ModularCompliance.sol\":5135:5192  require(_token == _tokenBound, \"This token is not bound\") */\n    tag_122:\n      sub(shl(0xa0, 0x01), 0x01)\n        /* \"contracts/compliance/modular/ModularCompliance.sol\":5210:5230  _token != address(0) */\n      dup2\n      and\n        /* \"contracts/compliance/modular/ModularCompliance.sol\":5202:5266  require(_token != address(0), \"invalid argument - zero address\") */\n      tag_125\n      jumpi\n      mload(0x40)\n      shl(0xe5, 0x461bcd)\n      dup2\n      mstore\n      0x04\n      add\n      tag_82\n      swap1\n      tag_83\n      jump\t// in\n    tag_125:\n        /* \"contracts/compliance/modular/ModularCompliance.sol\":5283:5294  _tokenBound */\n      0x00\n        /* \"contracts/compliance/modular/ModularCompliance.sol\":5276:5294  delete _tokenBound */\n      dup1\n      sload\n      not(sub(shl(0xa0, 0x01), 0x01))\n      and\n      swap1\n      sstore\n        /* \"contracts/compliance/modular/ModularCompliance.sol\":5309:5329  TokenUnbound(_token) */\n      mload(0x40)\n      sub(shl(0xa0, 0x01), 0x01)\n        /* \"#utility.yul\":806:838   */\n      dup3\n      and\n        /* \"#utility.yul\":788:839   */\n      dup2\n      mstore\n        /* \"contracts/compliance/modular/ModularCompliance.sol\":5309:5329  TokenUnbound(_token) */\n      0x28a4ca7134a3b3f9aff286e79ad3daadb4a06d1b43d037a3a98bdc074edd9b7a\n      swap1\n        /* \"#utility.yul\":776:778   */\n      0x20\n        /* \"#utility.yul\":761:779   */\n      add\n        /* \"contracts/compliance/modular/ModularCompliance.sol\":5309:5329  TokenUnbound(_token) */\n      tag_116\n        /* \"#utility.yul\":642:845   */\n      jump\n        /* \"contracts/compliance/modular/ModularCompliance.sol\":7369:7749  function created(address _to, uint256 _value) external onlyToken override {... */\n    tag_35:\n        /* \"contracts/compliance/modular/ModularCompliance.sol\":4311:4322  _tokenBound */\n      and(sub(shl(0xa0, 0x01), 0x01), sload(0x00))\n        /* \"contracts/compliance/modular/ModularCompliance.sol\":4297:4307  msg.sender */\n      caller\n        /* \"contracts/compliance/modular/ModularCompliance.sol\":4297:4322  msg.sender == _tokenBound */\n      eq\n        /* \"contracts/compliance/modular/ModularCompliance.sol\":4289:4395  require(msg.sender == _tokenBound, \"error : this address is not a token bound to the compliance contract\") */\n      tag_129\n      jumpi\n      mload(0x40)\n      shl(0xe5, 0x461bcd)\n      dup2\n      mstore\n      0x04\n      add\n      tag_82\n      swap1\n      tag_131\n      jump\t// in\n    tag_129:\n      sub(shl(0xa0, 0x01), 0x01)\n        /* \"contracts/compliance/modular/ModularCompliance.sol\":7461:7478  _to != address(0) */\n      dup3\n      and\n        /* \"contracts/compliance/modular/ModularCompliance.sol\":7453:7514  require(_to != address(0), \"invalid argument - zero address\") */\n      tag_133\n      jumpi\n      mload(0x40)\n      shl(0xe5, 0x461bcd)\n      dup2\n      mstore\n      0x04\n      add\n      tag_82\n      swap1\n      tag_83\n      jump\t// in\n    tag_133:\n        /* \"contracts/compliance/modular/ModularCompliance.sol\":7541:7542  0 */\n      0x00\n        /* \"contracts/compliance/modular/ModularCompliance.sol\":7532:7538  _value */\n      dup2\n        /* \"contracts/compliance/modular/ModularCompliance.sol\":7532:7542  _value > 0 */\n      gt\n        /* \"contracts/compliance/modular/ModularCompliance.sol\":7524:7579  require(_value > 0, \"invalid argument - no value mint\") */\n      tag_135\n      jumpi\n      mload(0x40)\n      shl(0xe5, 0x461bcd)\n      dup2\n      mstore\n        /* \"#utility.yul\":5874:5876   */\n      0x20\n        /* \"contracts/compliance/modular/ModularCompliance.sol\":7524:7579  require(_value > 0, \"invalid argument - no value mint\") */\n      0x04\n      dup3\n      add\n        /* \"#utility.yul\":5856:5877   */\n      dup2\n      swap1\n      mstore\n        /* \"#utility.yul\":5893:5911   */\n      0x24\n      dup3\n      add\n        /* \"#utility.yul\":5886:5916   */\n      mstore\n        /* \"#utility.yul\":5952:5986   */\n      0x696e76616c696420617267756d656e74202d206e6f2076616c7565206d696e74\n        /* \"#utility.yul\":5932:5950   */\n      0x44\n      dup3\n      add\n        /* \"#utility.yul\":5925:5987   */\n      mstore\n        /* \"#utility.yul\":6004:6022   */\n      0x64\n      add\n        /* \"contracts/compliance/modular/ModularCompliance.sol\":7524:7579  require(_value > 0, \"invalid argument - no value mint\") */\n      tag_82\n        /* \"#utility.yul\":5672:6028   */\n      jump\n        /* \"contracts/compliance/modular/ModularCompliance.sol\":7524:7579  require(_value > 0, \"invalid argument - no value mint\") */\n    tag_135:\n        /* \"contracts/compliance/modular/ModularCompliance.sol\":7606:7614  _modules */\n      0x01\n        /* \"contracts/compliance/modular/ModularCompliance.sol\":7606:7621  _modules.length */\n      sload\n        /* \"contracts/compliance/modular/ModularCompliance.sol\":7589:7603  uint256 length */\n      0x00\n        /* \"contracts/compliance/modular/ModularCompliance.sol\":7631:7743  for (uint256 i = 0; i < length; i++) {... */\n    tag_138:\n        /* \"contracts/compliance/modular/ModularCompliance.sol\":7655:7661  length */\n      dup2\n        /* \"contracts/compliance/modular/ModularCompliance.sol\":7651:7652  i */\n      dup2\n        /* \"contracts/compliance/modular/ModularCompliance.sol\":7651:7661  i < length */\n      lt\n        /* \"contracts/compliance/modular/ModularCompliance.sol\":7631:7743  for (uint256 i = 0; i < length; i++) {... */\n      iszero\n      tag_139\n      jumpi\n        /* \"contracts/compliance/modular/ModularCompliance.sol\":7690:7698  _modules */\n      0x01\n        /* \"contracts/compliance/modular/ModularCompliance.sol\":7699:7700  i */\n      dup2\n        /* \"contracts/compliance/modular/ModularCompliance.sol\":7690:7701  _modules[i] */\n      dup2\n      sload\n      dup2\n      lt\n      tag_142\n      jumpi\n      tag_142\n      tag_143\n      jump\t// in\n    tag_142:\n      0x00\n      swap2\n      dup3\n      mstore\n      0x20\n      swap1\n      swap2\n      keccak256\n      add\n      sload\n        /* \"contracts/compliance/modular/ModularCompliance.sol\":7682:7732  IModule(_modules[i]).moduleMintAction(_to, _value) */\n      mload(0x40)\n      shl(0xe0, 0xf104a8c9)\n      dup2\n      mstore\n      sub(shl(0xa0, 0x01), 0x01)\n        /* \"#utility.yul\":6357:6389   */\n      dup7\n      dup2\n      and\n        /* \"contracts/compliance/modular/ModularCompliance.sol\":7682:7732  IModule(_modules[i]).moduleMintAction(_to, _value) */\n      0x04\n      dup4\n      add\n        /* \"#utility.yul\":6339:6390   */\n      mstore\n        /* \"#utility.yul\":6406:6424   */\n      0x24\n      dup3\n      add\n        /* \"#utility.yul\":6399:6433   */\n      dup7\n      swap1\n      mstore\n        /* \"contracts/compliance/modular/ModularCompliance.sol\":7690:7701  _modules[i] */\n      swap1\n      swap2\n      and\n      swap1\n        /* \"contracts/compliance/modular/ModularCompliance.sol\":7682:7719  IModule(_modules[i]).moduleMintAction */\n      0xf104a8c9\n      swap1\n        /* \"#utility.yul\":6312:6330   */\n      0x44\n      add\n        /* \"contracts/compliance/modular/ModularCompliance.sol\":7682:7732  IModule(_modules[i]).moduleMintAction(_to, _value) */\n      0x00\n      mload(0x40)\n      dup1\n      dup4\n      sub\n      dup2\n      0x00\n      dup8\n      dup1\n      extcodesize\n      iszero\n      dup1\n      iszero\n      tag_147\n      jumpi\n      0x00\n      dup1\n      revert\n    tag_147:\n      pop\n      gas\n      call\n      iszero\n      dup1\n      iszero\n      tag_149\n      jumpi\n      returndatasize\n      0x00\n      dup1\n      returndatacopy\n      revert(0x00, returndatasize)\n    tag_149:\n      pop\n      pop\n      pop\n      pop\n        /* \"contracts/compliance/modular/ModularCompliance.sol\":7663:7666  i++ */\n      dup1\n      dup1\n      tag_150\n      swap1\n      tag_151\n      jump\t// in\n    tag_150:\n      swap2\n      pop\n      pop\n        /* \"contracts/compliance/modular/ModularCompliance.sol\":7631:7743  for (uint256 i = 0; i < length; i++) {... */\n      jump(tag_138)\n    tag_139:\n      pop\n        /* \"contracts/compliance/modular/ModularCompliance.sol\":7443:7749  {... */\n      pop\n        /* \"contracts/compliance/modular/ModularCompliance.sol\":7369:7749  function created(address _to, uint256 _value) external onlyToken override {... */\n      pop\n      pop\n      jump\t// out\n        /* \"@openzeppelin/contracts-upgradeable/access/OwnableUpgradeable.sol\":3165:3266  function renounceOwnership() public virtual onlyOwner {... */\n    tag_41:\n        /* \"@openzeppelin/contracts-upgradeable/access/OwnableUpgradeable.sol\":2344:2357  _checkOwner() */\n      tag_154\n        /* \"@openzeppelin/contracts-upgradeable/access/OwnableUpgradeable.sol\":2344:2355  _checkOwner */\n      tag_79\n        /* \"@openzeppelin/contracts-upgradeable/access/OwnableUpgradeable.sol\":2344:2357  _checkOwner() */\n      jump\t// in\n    tag_154:\n        /* \"@openzeppelin/contracts-upgradeable/access/OwnableUpgradeable.sol\":3229:3259  _transferOwnership(address(0)) */\n      tag_156\n        /* \"@openzeppelin/contracts-upgradeable/access/OwnableUpgradeable.sol\":3256:3257  0 */\n      0x00\n        /* \"@openzeppelin/contracts-upgradeable/access/OwnableUpgradeable.sol\":3229:3247  _transferOwnership */\n      tag_157\n        /* \"@openzeppelin/contracts-upgradeable/access/OwnableUpgradeable.sol\":3229:3259  _transferOwnership(address(0)) */\n      jump\t// in\n    tag_156:\n        /* \"@openzeppelin/contracts-upgradeable/access/OwnableUpgradeable.sol\":3165:3266  function renounceOwnership() public virtual onlyOwner {... */\n      jump\t// out\n        /* \"contracts/compliance/modular/ModularCompliance.sol\":6829:7300  function transferred(address _from, address _to, uint256 _value) external onlyToken override {... */\n    tag_45:\n        /* \"contracts/compliance/modular/ModularCompliance.sol\":4311:4322  _tokenBound */\n      and(sub(shl(0xa0, 0x01), 0x01), sload(0x00))\n        /* \"contracts/compliance/modular/ModularCompliance.sol\":4297:4307  msg.sender */\n      caller\n        /* \"contracts/compliance/modular/ModularCompliance.sol\":4297:4322  msg.sender == _tokenBound */\n      eq\n        /* \"contracts/compliance/modular/ModularCompliance.sol\":4289:4395  require(msg.sender == _tokenBound, \"error : this address is not a token bound to the compliance contract\") */\n      tag_159\n      jumpi\n      mload(0x40)\n      shl(0xe5, 0x461bcd)\n      dup2\n      mstore\n      0x04\n      add\n      tag_82\n      swap1\n      tag_131\n      jump\t// in\n    tag_159:\n      sub(shl(0xa0, 0x01), 0x01)\n        /* \"contracts/compliance/modular/ModularCompliance.sol\":6953:6972  _from != address(0) */\n      dup4\n      and\n      iszero\n      dup1\n      iszero\n      swap1\n        /* \"contracts/compliance/modular/ModularCompliance.sol\":6953:7005  _from != address(0)... */\n      tag_162\n      jumpi\n      pop\n      sub(shl(0xa0, 0x01), 0x01)\n        /* \"contracts/compliance/modular/ModularCompliance.sol\":6988:7005  _to != address(0) */\n      dup3\n      and\n      iszero\n      iszero\n        /* \"contracts/compliance/modular/ModularCompliance.sol\":6953:7005  _from != address(0)... */\n    tag_162:\n        /* \"contracts/compliance/modular/ModularCompliance.sol\":6932:7050  require(... */\n      tag_163\n      jumpi\n      mload(0x40)\n      shl(0xe5, 0x461bcd)\n      dup2\n      mstore\n      0x04\n      add\n      tag_82\n      swap1\n      tag_83\n      jump\t// in\n    tag_163:\n        /* \"contracts/compliance/modular/ModularCompliance.sol\":7077:7078  0 */\n      0x00\n        /* \"contracts/compliance/modular/ModularCompliance.sol\":7068:7074  _value */\n      dup2\n        /* \"contracts/compliance/modular/ModularCompliance.sol\":7068:7078  _value > 0 */\n      gt\n        /* \"contracts/compliance/modular/ModularCompliance.sol\":7060:7119  require(_value > 0, \"invalid argument - no value transfer\") */\n      tag_165\n      jumpi\n      mload(0x40)\n      shl(0xe5, 0x461bcd)\n      dup2\n      mstore\n        /* \"#utility.yul\":6918:6920   */\n      0x20\n        /* \"contracts/compliance/modular/ModularCompliance.sol\":7060:7119  require(_value > 0, \"invalid argument - no value transfer\") */\n      0x04\n      dup3\n      add\n        /* \"#utility.yul\":6900:6921   */\n      mstore\n        /* \"#utility.yul\":6957:6959   */\n      0x24\n        /* \"#utility.yul\":6937:6955   */\n      dup1\n      dup3\n      add\n        /* \"#utility.yul\":6930:6960   */\n      mstore\n        /* \"#utility.yul\":6996:7030   */\n      0x696e76616c696420617267756d656e74202d206e6f2076616c7565207472616e\n        /* \"#utility.yul\":6976:6994   */\n      0x44\n      dup3\n      add\n        /* \"#utility.yul\":6969:7031   */\n      mstore\n      shl(0xe1, 0x39b332b9)\n        /* \"#utility.yul\":7047:7065   */\n      0x64\n      dup3\n      add\n        /* \"#utility.yul\":7040:7074   */\n      mstore\n        /* \"#utility.yul\":7091:7110   */\n      0x84\n      add\n        /* \"contracts/compliance/modular/ModularCompliance.sol\":7060:7119  require(_value > 0, \"invalid argument - no value transfer\") */\n      tag_82\n        /* \"#utility.yul\":6716:7116   */\n      jump\n        /* \"contracts/compliance/modular/ModularCompliance.sol\":7060:7119  require(_value > 0, \"invalid argument - no value transfer\") */\n    tag_165:\n        /* \"contracts/compliance/modular/ModularCompliance.sol\":7146:7154  _modules */\n      0x01\n        /* \"contracts/compliance/modular/ModularCompliance.sol\":7146:7161  _modules.length */\n      sload\n        /* \"contracts/compliance/modular/ModularCompliance.sol\":7129:7143  uint256 length */\n      0x00\n        /* \"contracts/compliance/modular/ModularCompliance.sol\":7171:7294  for (uint256 i = 0; i < length; i++) {... */\n    tag_168:\n        /* \"contracts/compliance/modular/ModularCompliance.sol\":7195:7201  length */\n      dup2\n        /* \"contracts/compliance/modular/ModularCompliance.sol\":7191:7192  i */\n      dup2\n        /* \"contracts/compliance/modular/ModularCompliance.sol\":7191:7201  i < length */\n      lt\n        /* \"contracts/compliance/modular/ModularCompliance.sol\":7171:7294  for (uint256 i = 0; i < length; i++) {... */\n      iszero\n      tag_169\n      jumpi\n        /* \"contracts/compliance/modular/ModularCompliance.sol\":7230:7238  _modules */\n      0x01\n        /* \"contracts/compliance/modular/ModularCompliance.sol\":7239:7240  i */\n      dup2\n        /* \"contracts/compliance/modular/ModularCompliance.sol\":7230:7241  _modules[i] */\n      dup2\n      sload\n      dup2\n      lt\n      tag_172\n      jumpi\n      tag_172\n      tag_143\n      jump\t// in\n    tag_172:\n      0x00\n      swap2\n      dup3\n      mstore\n      0x20\n      swap1\n      swap2\n      keccak256\n      add\n      sload\n        /* \"contracts/compliance/modular/ModularCompliance.sol\":7222:7283  IModule(_modules[i]).moduleTransferAction(_from, _to, _value) */\n      mload(0x40)\n      shl(0xe2, 0x0b2df87b)\n      dup2\n      mstore\n      sub(shl(0xa0, 0x01), 0x01)\n        /* \"#utility.yul\":7379:7394   */\n      dup8\n      dup2\n      and\n        /* \"contracts/compliance/modular/ModularCompliance.sol\":7222:7283  IModule(_modules[i]).moduleTransferAction(_from, _to, _value) */\n      0x04\n      dup4\n      add\n        /* \"#utility.yul\":7361:7395   */\n      mstore\n        /* \"#utility.yul\":7431:7446   */\n      dup7\n      dup2\n      and\n        /* \"#utility.yul\":7411:7429   */\n      0x24\n      dup4\n      add\n        /* \"#utility.yul\":7404:7447   */\n      mstore\n        /* \"#utility.yul\":7463:7481   */\n      0x44\n      dup3\n      add\n        /* \"#utility.yul\":7456:7490   */\n      dup7\n      swap1\n      mstore\n        /* \"contracts/compliance/modular/ModularCompliance.sol\":7230:7241  _modules[i] */\n      swap1\n      swap2\n      and\n      swap1\n        /* \"contracts/compliance/modular/ModularCompliance.sol\":7222:7263  IModule(_modules[i]).moduleTransferAction */\n      0x2cb7e1ec\n      swap1\n        /* \"#utility.yul\":7296:7314   */\n      0x64\n      add\n        /* \"contracts/compliance/modular/ModularCompliance.sol\":7222:7283  IModule(_modules[i]).moduleTransferAction(_from, _to, _value) */\n      0x00\n      mload(0x40)\n      dup1\n      dup4\n      sub\n      dup2\n      0x00\n      dup8\n      dup1\n      extcodesize\n      iszero\n      dup1\n      iszero\n      tag_176\n      jumpi\n      0x00\n      dup1\n      revert\n    tag_176:\n      pop\n      gas\n      call\n      iszero\n      dup1\n      iszero\n      tag_178\n      jumpi\n      returndatasize\n      0x00\n      dup1\n      returndatacopy\n      revert(0x00, returndatasize)\n    tag_178:\n      pop\n      pop\n      pop\n      pop\n        /* \"contracts/compliance/modular/ModularCompliance.sol\":7203:7206  i++ */\n      dup1\n      dup1\n      tag_179\n      swap1\n      tag_151\n      jump\t// in\n    tag_179:\n      swap2\n      pop\n      pop\n        /* \"contracts/compliance/modular/ModularCompliance.sol\":7171:7294  for (uint256 i = 0; i < length; i++) {... */\n      jump(tag_168)\n    tag_169:\n      pop\n        /* \"contracts/compliance/modular/ModularCompliance.sol\":6922:7300  {... */\n      pop\n        /* \"contracts/compliance/modular/ModularCompliance.sol\":6829:7300  function transferred(address _from, address _to, uint256 _value) external onlyToken override {... */\n      pop\n      pop\n      pop\n      jump\t// out\n        /* \"contracts/compliance/modular/ModularCompliance.sol\":7820:8208  function destroyed(address _from, uint256 _value) external onlyToken override {... */\n    tag_48:\n        /* \"contracts/compliance/modular/ModularCompliance.sol\":4311:4322  _tokenBound */\n      and(sub(shl(0xa0, 0x01), 0x01), sload(0x00))\n        /* \"contracts/compliance/modular/ModularCompliance.sol\":4297:4307  msg.sender */\n      caller\n        /* \"contracts/compliance/modular/ModularCompliance.sol\":4297:4322  msg.sender == _tokenBound */\n      eq\n        /* \"contracts/compliance/modular/ModularCompliance.sol\":4289:4395  require(msg.sender == _tokenBound, \"error : this address is not a token bound to the compliance contract\") */\n      tag_181\n      jumpi\n      mload(0x40)\n      shl(0xe5, 0x461bcd)\n      dup2\n      mstore\n      0x04\n      add\n      tag_82\n      swap1\n      tag_131\n      jump\t// in\n    tag_181:\n      sub(shl(0xa0, 0x01), 0x01)\n        /* \"contracts/compliance/modular/ModularCompliance.sol\":7916:7935  _from != address(0) */\n      dup3\n      and\n        /* \"contracts/compliance/modular/ModularCompliance.sol\":7908:7971  require(_from != address(0), \"invalid argument - zero address\") */\n      tag_184\n      jumpi\n      mload(0x40)\n      shl(0xe5, 0x461bcd)\n      dup2\n      mstore\n      0x04\n      add\n      tag_82\n      swap1\n      tag_83\n      jump\t// in\n    tag_184:\n        /* \"contracts/compliance/modular/ModularCompliance.sol\":7998:7999  0 */\n      0x00\n        /* \"contracts/compliance/modular/ModularCompliance.sol\":7989:7995  _value */\n      dup2\n        /* \"contracts/compliance/modular/ModularCompliance.sol\":7989:7999  _value > 0 */\n      gt\n        /* \"contracts/compliance/modular/ModularCompliance.sol\":7981:8036  require(_value > 0, \"invalid argument - no value burn\") */\n      tag_186\n      jumpi\n      mload(0x40)\n      shl(0xe5, 0x461bcd)\n      dup2\n      mstore\n        /* \"#utility.yul\":7703:7705   */\n      0x20\n        /* \"contracts/compliance/modular/ModularCompliance.sol\":7981:8036  require(_value > 0, \"invalid argument - no value burn\") */\n      0x04\n      dup3\n      add\n        /* \"#utility.yul\":7685:7706   */\n      dup2\n      swap1\n      mstore\n        /* \"#utility.yul\":7722:7740   */\n      0x24\n      dup3\n      add\n        /* \"#utility.yul\":7715:7745   */\n      mstore\n        /* \"#utility.yul\":7781:7815   */\n      0x696e76616c696420617267756d656e74202d206e6f2076616c7565206275726e\n        /* \"#utility.yul\":7761:7779   */\n      0x44\n      dup3\n      add\n        /* \"#utility.yul\":7754:7816   */\n      mstore\n        /* \"#utility.yul\":7833:7851   */\n      0x64\n      add\n        /* \"contracts/compliance/modular/ModularCompliance.sol\":7981:8036  require(_value > 0, \"invalid argument - no value burn\") */\n      tag_82\n        /* \"#utility.yul\":7501:7857   */\n      jump\n        /* \"contracts/compliance/modular/ModularCompliance.sol\":7981:8036  require(_value > 0, \"invalid argument - no value burn\") */\n    tag_186:\n        /* \"contracts/compliance/modular/ModularCompliance.sol\":8063:8071  _modules */\n      0x01\n        /* \"contracts/compliance/modular/ModularCompliance.sol\":8063:8078  _modules.length */\n      sload\n        /* \"contracts/compliance/modular/ModularCompliance.sol\":8046:8060  uint256 length */\n      0x00\n        /* \"contracts/compliance/modular/ModularCompliance.sol\":8088:8202  for (uint256 i = 0; i < length; i++) {... */\n    tag_189:\n        /* \"contracts/compliance/modular/ModularCompliance.sol\":8112:8118  length */\n      dup2\n        /* \"contracts/compliance/modular/ModularCompliance.sol\":8108:8109  i */\n      dup2\n        /* \"contracts/compliance/modular/ModularCompliance.sol\":8108:8118  i < length */\n      lt\n        /* \"contracts/compliance/modular/ModularCompliance.sol\":8088:8202  for (uint256 i = 0; i < length; i++) {... */\n      iszero\n      tag_139\n      jumpi\n        /* \"contracts/compliance/modular/ModularCompliance.sol\":8147:8155  _modules */\n      0x01\n        /* \"contracts/compliance/modular/ModularCompliance.sol\":8156:8157  i */\n      dup2\n        /* \"contracts/compliance/modular/ModularCompliance.sol\":8147:8158  _modules[i] */\n      dup2\n      sload\n      dup2\n      lt\n      tag_193\n      jumpi\n      tag_193\n      tag_143\n      jump\t// in\n    tag_193:\n      0x00\n      swap2\n      dup3\n      mstore\n      0x20\n      swap1\n      swap2\n      keccak256\n      add\n      sload\n        /* \"contracts/compliance/modular/ModularCompliance.sol\":8139:8191  IModule(_modules[i]).moduleBurnAction(_from, _value) */\n      mload(0x40)\n      shl(0xe1, 0x1b9248d1)\n      dup2\n      mstore\n      sub(shl(0xa0, 0x01), 0x01)\n        /* \"#utility.yul\":6357:6389   */\n      dup7\n      dup2\n      and\n        /* \"contracts/compliance/modular/ModularCompliance.sol\":8139:8191  IModule(_modules[i]).moduleBurnAction(_from, _value) */\n      0x04\n      dup4\n      add\n        /* \"#utility.yul\":6339:6390   */\n      mstore\n        /* \"#utility.yul\":6406:6424   */\n      0x24\n      dup3\n      add\n        /* \"#utility.yul\":6399:6433   */\n      dup7\n      swap1\n      mstore\n        /* \"contracts/compliance/modular/ModularCompliance.sol\":8147:8158  _modules[i] */\n      swap1\n      swap2\n      and\n      swap1\n        /* \"contracts/compliance/modular/ModularCompliance.sol\":8139:8176  IModule(_modules[i]).moduleBurnAction */\n      0x372491a2\n      swap1\n        /* \"#utility.yul\":6312:6330   */\n      0x44\n      add\n        /* \"contracts/compliance/modular/ModularCompliance.sol\":8139:8191  IModule(_modules[i]).moduleBurnAction(_from, _value) */\n      0x00\n      mload(0x40)\n      dup1\n      dup4\n      sub\n      dup2\n      0x00\n      dup8\n      dup1\n      extcodesize\n      iszero\n      dup1\n      iszero\n      tag_196\n      jumpi\n      0x00\n      dup1\n      revert\n    tag_196:\n      pop\n      gas\n      call\n      iszero\n      dup1\n      iszero\n      tag_198\n      jumpi\n      returndatasize\n      0x00\n      dup1\n      returndatacopy\n      revert(0x00, returndatasize)\n    tag_198:\n      pop\n      pop\n      pop\n      pop\n        /* \"contracts/compliance/modular/ModularCompliance.sol\":8120:8123  i++ */\n      dup1\n      dup1\n      tag_199\n      swap1\n      tag_151\n      jump\t// in\n    tag_199:\n      swap2\n      pop\n      pop\n        /* \"contracts/compliance/modular/ModularCompliance.sol\":8088:8202  for (uint256 i = 0; i < length; i++) {... */\n      jump(tag_189)\n        /* \"@openzeppelin/contracts-upgradeable/access/OwnableUpgradeable.sol\":2451:2595  function owner() public view virtual returns (address) {... */\n    tag_50:\n        /* \"@openzeppelin/contracts-upgradeable/access/OwnableUpgradeable.sol\":1323:1345  OwnableStorageLocation */\n      0x9016d09d72d40fdae2fd8ceac6b6234c7706214fd39c1cd1e609a0528c199300\n        /* \"@openzeppelin/contracts-upgradeable/access/OwnableUpgradeable.sol\":2580:2588  $._owner */\n      sload\n      sub(shl(0xa0, 0x01), 0x01)\n      and\n      swap1\n        /* \"@openzeppelin/contracts-upgradeable/access/OwnableUpgradeable.sol\":2451:2595  function owner() public view virtual returns (address) {... */\n      jump\t// out\n        /* \"contracts/compliance/modular/ModularCompliance.sol\":6129:6758  function removeModule(address _module) external override onlyOwner {... */\n    tag_54:\n        /* \"@openzeppelin/contracts-upgradeable/access/OwnableUpgradeable.sol\":2344:2357  _checkOwner() */\n      tag_204\n        /* \"@openzeppelin/contracts-upgradeable/access/OwnableUpgradeable.sol\":2344:2355  _checkOwner */\n      tag_79\n        /* \"@openzeppelin/contracts-upgradeable/access/OwnableUpgradeable.sol\":2344:2357  _checkOwner() */\n      jump\t// in\n    tag_204:\n      sub(shl(0xa0, 0x01), 0x01)\n        /* \"contracts/compliance/modular/ModularCompliance.sol\":6214:6235  _module != address(0) */\n      dup2\n      and\n        /* \"contracts/compliance/modular/ModularCompliance.sol\":6206:6271  require(_module != address(0), \"invalid argument - zero address\") */\n      tag_206\n      jumpi\n      mload(0x40)\n      shl(0xe5, 0x461bcd)\n      dup2\n      mstore\n      0x04\n      add\n      tag_82\n      swap1\n      tag_83\n      jump\t// in\n    tag_206:\n      sub(shl(0xa0, 0x01), 0x01)\n        /* \"contracts/compliance/modular/ModularCompliance.sol\":6289:6310  _moduleBound[_module] */\n      dup2\n      and\n      0x00\n      swap1\n      dup2\n      mstore\n        /* \"contracts/compliance/modular/ModularCompliance.sol\":6289:6301  _moduleBound */\n      0x02\n        /* \"contracts/compliance/modular/ModularCompliance.sol\":6289:6310  _moduleBound[_module] */\n      0x20\n      mstore\n      0x40\n      swap1\n      keccak256\n      sload\n      0xff\n      and\n        /* \"contracts/compliance/modular/ModularCompliance.sol\":6281:6331  require(_moduleBound[_module], \"module not bound\") */\n      tag_208\n      jumpi\n      mload(0x40)\n      shl(0xe5, 0x461bcd)\n      dup2\n      mstore\n        /* \"#utility.yul\":8064:8066   */\n      0x20\n        /* \"contracts/compliance/modular/ModularCompliance.sol\":6281:6331  require(_moduleBound[_module], \"module not bound\") */\n      0x04\n      dup3\n      add\n        /* \"#utility.yul\":8046:8067   */\n      mstore\n        /* \"#utility.yul\":8103:8105   */\n      0x10\n        /* \"#utility.yul\":8083:8101   */\n      0x24\n      dup3\n      add\n        /* \"#utility.yul\":8076:8106   */\n      mstore\n      shl(0x82, 0x1b5bd91d5b19481b9bdd08189bdd5b99)\n        /* \"#utility.yul\":8122:8140   */\n      0x44\n      dup3\n      add\n        /* \"#utility.yul\":8115:8161   */\n      mstore\n        /* \"#utility.yul\":8178:8196   */\n      0x64\n      add\n        /* \"contracts/compliance/modular/ModularCompliance.sol\":6281:6331  require(_moduleBound[_module], \"module not bound\") */\n      tag_82\n        /* \"#utility.yul\":7862:8202   */\n      jump\n        /* \"contracts/compliance/modular/ModularCompliance.sol\":6281:6331  require(_moduleBound[_module], \"module not bound\") */\n    tag_208:\n        /* \"contracts/compliance/modular/ModularCompliance.sol\":6358:6366  _modules */\n      0x01\n        /* \"contracts/compliance/modular/ModularCompliance.sol\":6358:6373  _modules.length */\n      sload\n        /* \"contracts/compliance/modular/ModularCompliance.sol\":6341:6355  uint256 length */\n      0x00\n        /* \"contracts/compliance/modular/ModularCompliance.sol\":6383:6752  for (uint256 i = 0; i < length; i++) {... */\n    tag_211:\n        /* \"contracts/compliance/modular/ModularCompliance.sol\":6407:6413  length */\n      dup2\n        /* \"contracts/compliance/modular/ModularCompliance.sol\":6403:6404  i */\n      dup2\n        /* \"contracts/compliance/modular/ModularCompliance.sol\":6403:6413  i < length */\n      lt\n        /* \"contracts/compliance/modular/ModularCompliance.sol\":6383:6752  for (uint256 i = 0; i < length; i++) {... */\n      iszero\n      tag_212\n      jumpi\n        /* \"contracts/compliance/modular/ModularCompliance.sol\":6453:6460  _module */\n      dup3\n      sub(shl(0xa0, 0x01), 0x01)\n        /* \"contracts/compliance/modular/ModularCompliance.sol\":6438:6460  _modules[i] == _module */\n      and\n        /* \"contracts/compliance/modular/ModularCompliance.sol\":6438:6446  _modules */\n      0x01\n        /* \"contracts/compliance/modular/ModularCompliance.sol\":6447:6448  i */\n      dup3\n        /* \"contracts/compliance/modular/ModularCompliance.sol\":6438:6449  _modules[i] */\n      dup2\n      sload\n      dup2\n      lt\n      tag_215\n      jumpi\n      tag_215\n      tag_143\n      jump\t// in\n    tag_215:\n      0x00\n      swap2\n      dup3\n      mstore\n      0x20\n      swap1\n      swap2\n      keccak256\n      add\n      sload\n      sub(shl(0xa0, 0x01), 0x01)\n      and\n        /* \"contracts/compliance/modular/ModularCompliance.sol\":6438:6460  _modules[i] == _module */\n      sub\n        /* \"contracts/compliance/modular/ModularCompliance.sol\":6434:6742  if (_modules[i] == _module) {... */\n      tag_217\n      jumpi\n        /* \"contracts/compliance/modular/ModularCompliance.sol\":6480:6528  IModule(_module).unbindCompliance(address(this)) */\n      mload(0x40)\n      shl(0xe0, 0x0694a5fb)\n      dup2\n      mstore\n        /* \"contracts/compliance/modular/ModularCompliance.sol\":6522:6526  this */\n      address\n        /* \"contracts/compliance/modular/ModularCompliance.sol\":6480:6528  IModule(_module).unbindCompliance(address(this)) */\n      0x04\n      dup3\n      add\n        /* \"#utility.yul\":788:839   */\n      mstore\n      sub(shl(0xa0, 0x01), 0x01)\n        /* \"contracts/compliance/modular/ModularCompliance.sol\":6480:6513  IModule(_module).unbindCompliance */\n      dup5\n      and\n      swap1\n      0x0694a5fb\n      swap1\n        /* \"#utility.yul\":761:779   */\n      0x24\n      add\n        /* \"contracts/compliance/modular/ModularCompliance.sol\":6480:6528  IModule(_module).unbindCompliance(address(this)) */\n      0x00\n      mload(0x40)\n      dup1\n      dup4\n      sub\n      dup2\n      0x00\n      dup8\n      dup1\n      extcodesize\n      iszero\n      dup1\n      iszero\n      tag_219\n      jumpi\n      0x00\n      dup1\n      revert\n    tag_219:\n      pop\n      gas\n      call\n      iszero\n      dup1\n      iszero\n      tag_221\n      jumpi\n      returndatasize\n      0x00\n      dup1\n      returndatacopy\n      revert(0x00, returndatasize)\n    tag_221:\n      pop\n      pop\n      pop\n      pop\n        /* \"contracts/compliance/modular/ModularCompliance.sol\":6560:6568  _modules */\n      0x01\n        /* \"contracts/compliance/modular/ModularCompliance.sol\":6578:6579  1 */\n      dup1\n        /* \"contracts/compliance/modular/ModularCompliance.sol\":6569:6575  length */\n      dup4\n        /* \"contracts/compliance/modular/ModularCompliance.sol\":6569:6579  length - 1 */\n      tag_222\n      swap2\n      swap1\n      tag_223\n      jump\t// in\n    tag_222:\n        /* \"contracts/compliance/modular/ModularCompliance.sol\":6560:6580  _modules[length - 1] */\n      dup2\n      sload\n      dup2\n      lt\n      tag_225\n      jumpi\n      tag_225\n      tag_143\n      jump\t// in\n    tag_225:\n      0x00\n      swap2\n      dup3\n      mstore\n      0x20\n      swap1\n      swap2\n      keccak256\n      add\n      sload\n      0x01\n        /* \"contracts/compliance/modular/ModularCompliance.sol\":6546:6557  _modules[i] */\n      dup1\n      sload\n      sub(shl(0xa0, 0x01), 0x01)\n        /* \"contracts/compliance/modular/ModularCompliance.sol\":6560:6580  _modules[length - 1] */\n      swap1\n      swap3\n      and\n      swap2\n        /* \"contracts/compliance/modular/ModularCompliance.sol\":6555:6556  i */\n      dup4\n      swap1\n        /* \"contracts/compliance/modular/ModularCompliance.sol\":6546:6557  _modules[i] */\n      dup2\n      lt\n      tag_228\n      jumpi\n      tag_228\n      tag_143\n      jump\t// in\n    tag_228:\n      swap1\n      0x00\n      mstore\n      keccak256(0x00, 0x20)\n      add\n      0x00\n        /* \"contracts/compliance/modular/ModularCompliance.sol\":6546:6580  _modules[i] = _modules[length - 1] */\n      0x0100\n      exp\n      dup2\n      sload\n      dup2\n      sub(shl(0xa0, 0x01), 0x01)\n      mul\n      not\n      and\n      swap1\n      dup4\n      sub(shl(0xa0, 0x01), 0x01)\n      and\n      mul\n      or\n      swap1\n      sstore\n      pop\n        /* \"contracts/compliance/modular/ModularCompliance.sol\":6598:6606  _modules */\n      0x01\n        /* \"contracts/compliance/modular/ModularCompliance.sol\":6598:6612  _modules.pop() */\n      dup1\n      sload\n      dup1\n      tag_231\n      jumpi\n      tag_231\n      tag_232\n      jump\t// in\n    tag_231:\n      0x00\n      dup3\n      dup2\n      mstore\n      0x20\n      dup1\n      dup3\n      keccak256\n      dup4\n      add\n      not(0x00)\n      swap1\n      dup2\n      add\n      dup1\n      sload\n      not(sub(shl(0xa0, 0x01), 0x01))\n      and\n      swap1\n      sstore\n      swap1\n      swap3\n      add\n      swap1\n      swap3\n      sstore\n      sub(shl(0xa0, 0x01), 0x01)\n        /* \"contracts/compliance/modular/ModularCompliance.sol\":6630:6651  _moduleBound[_module] */\n      dup6\n      and\n      dup1\n      dup4\n      mstore\n        /* \"contracts/compliance/modular/ModularCompliance.sol\":6630:6642  _moduleBound */\n      0x02\n        /* \"contracts/compliance/modular/ModularCompliance.sol\":6630:6651  _moduleBound[_module] */\n      swap1\n      swap2\n      mstore\n      0x40\n      dup1\n      dup4\n      keccak256\n        /* \"contracts/compliance/modular/ModularCompliance.sol\":6630:6659  _moduleBound[_module] = false */\n      dup1\n      sload\n      not(0xff)\n      and\n      swap1\n      sstore\n        /* \"contracts/compliance/modular/ModularCompliance.sol\":6682:6704  ModuleRemoved(_module) */\n      mload\n        /* \"contracts/compliance/modular/ModularCompliance.sol\":6630:6651  _moduleBound[_module] */\n      swap1\n      swap2\n        /* \"contracts/compliance/modular/ModularCompliance.sol\":6682:6704  ModuleRemoved(_module) */\n      0x0a1ee69f55c33d8467c69ca59ce2007a737a88603d75392972520bf67cb513b8\n      swap2\n      log2\n        /* \"contracts/compliance/modular/ModularCompliance.sol\":6383:6752  for (uint256 i = 0; i < length; i++) {... */\n      pop\n        /* \"contracts/compliance/modular/ModularCompliance.sol\":6196:6758  {... */\n      pop\n        /* \"contracts/compliance/modular/ModularCompliance.sol\":6129:6758  function removeModule(address _module) external override onlyOwner {... */\n      pop\n      jump\t// out\n        /* \"contracts/compliance/modular/ModularCompliance.sol\":6434:6742  if (_modules[i] == _module) {... */\n    tag_217:\n        /* \"contracts/compliance/modular/ModularCompliance.sol\":6415:6418  i++ */\n      dup1\n      tag_234\n      dup2\n      tag_151\n      jump\t// in\n    tag_234:\n      swap2\n      pop\n      pop\n        /* \"contracts/compliance/modular/ModularCompliance.sol\":6383:6752  for (uint256 i = 0; i < length; i++) {... */\n      jump(tag_211)\n    tag_212:\n      pop\n        /* \"contracts/compliance/modular/ModularCompliance.sol\":6196:6758  {... */\n      pop\n        /* \"contracts/compliance/modular/ModularCompliance.sol\":6129:6758  function removeModule(address _module) external override onlyOwner {... */\n      pop\n      jump\t// out\n        /* \"contracts/compliance/modular/ModularCompliance.sol\":9699:9803  function getModules() external view override returns (address[] memory) {... */\n    tag_61:\n        /* \"contracts/compliance/modular/ModularCompliance.sol\":9753:9769  address[] memory */\n      0x60\n        /* \"contracts/compliance/modular/ModularCompliance.sol\":9788:9796  _modules */\n      0x01\n        /* \"contracts/compliance/modular/ModularCompliance.sol\":9781:9796  return _modules */\n      dup1\n      sload\n      dup1\n      0x20\n      mul\n      0x20\n      add\n      mload(0x40)\n      swap1\n      dup2\n      add\n      0x40\n      mstore\n      dup1\n      swap3\n      swap2\n      swap1\n      dup2\n      dup2\n      mstore\n      0x20\n      add\n      dup3\n      dup1\n      sload\n      dup1\n      iszero\n      tag_237\n      jumpi\n      0x20\n      mul\n      dup3\n      add\n      swap2\n      swap1\n      0x00\n      mstore\n      keccak256(0x00, 0x20)\n      swap1\n    tag_238:\n      dup2\n      sload\n      sub(shl(0xa0, 0x01), 0x01)\n      and\n      dup2\n      mstore\n      0x01\n      swap1\n      swap2\n      add\n      swap1\n      0x20\n      add\n      dup1\n      dup4\n      gt\n      tag_238\n      jumpi\n    tag_237:\n      pop\n      pop\n      pop\n      pop\n      pop\n      swap1\n      pop\n        /* \"contracts/compliance/modular/ModularCompliance.sol\":9699:9803  function getModules() external view override returns (address[] memory) {... */\n      swap1\n      jump\t// out\n        /* \"contracts/compliance/modular/ModularCompliance.sol\":4419:4499  function init() external initializer {... */\n    tag_65:\n        /* \"@openzeppelin/contracts-upgradeable/proxy/utils/Initializable.sol\":8870:8891  INITIALIZABLE_STORAGE */\n      0xf0c57e16840df040f15088dc2f81fe391c3923bec73e23a9662efc9c229c6a00\n        /* \"@openzeppelin/contracts-upgradeable/proxy/utils/Initializable.sol\":4302:4317  $._initializing */\n      dup1\n      sload\n      shl(0x40, 0x01)\n      dup2\n      div\n      0xff\n      and\n        /* \"@openzeppelin/contracts-upgradeable/proxy/utils/Initializable.sol\":4301:4317  !$._initializing */\n      iszero\n      swap1\n        /* \"@openzeppelin/contracts-upgradeable/proxy/utils/Initializable.sol\":4348:4362  $._initialized */\n      0xffffffffffffffff\n      and\n        /* \"@openzeppelin/contracts-upgradeable/proxy/utils/Initializable.sol\":4158:4188  InitializableStorage storage $ */\n      0x00\n        /* \"@openzeppelin/contracts-upgradeable/proxy/utils/Initializable.sol\":4726:4742  initialized == 0 */\n      dup2\n      iszero\n        /* \"@openzeppelin/contracts-upgradeable/proxy/utils/Initializable.sol\":4726:4760  initialized == 0 && isTopLevelCall */\n      dup1\n      iszero\n      tag_242\n      jumpi\n      pop\n        /* \"@openzeppelin/contracts-upgradeable/proxy/utils/Initializable.sol\":4746:4760  isTopLevelCall */\n      dup3\n        /* \"@openzeppelin/contracts-upgradeable/proxy/utils/Initializable.sol\":4726:4760  initialized == 0 && isTopLevelCall */\n    tag_242:\n        /* \"@openzeppelin/contracts-upgradeable/proxy/utils/Initializable.sol\":4706:4760  bool initialSetup = initialized == 0 && isTopLevelCall */\n      swap1\n      pop\n        /* \"@openzeppelin/contracts-upgradeable/proxy/utils/Initializable.sol\":4770:4787  bool construction */\n      0x00\n        /* \"@openzeppelin/contracts-upgradeable/proxy/utils/Initializable.sol\":4790:4801  initialized */\n      dup3\n        /* \"@openzeppelin/contracts-upgradeable/proxy/utils/Initializable.sol\":4790:4806  initialized == 1 */\n      0xffffffffffffffff\n      and\n        /* \"@openzeppelin/contracts-upgradeable/proxy/utils/Initializable.sol\":4805:4806  1 */\n      0x01\n        /* \"@openzeppelin/contracts-upgradeable/proxy/utils/Initializable.sol\":4790:4806  initialized == 1 */\n      eq\n        /* \"@openzeppelin/contracts-upgradeable/proxy/utils/Initializable.sol\":4790:4840  initialized == 1 && address(this).code.length == 0 */\n      dup1\n      iszero\n      tag_243\n      jumpi\n      pop\n        /* \"@openzeppelin/contracts-upgradeable/proxy/utils/Initializable.sol\":4818:4822  this */\n      address\n        /* \"@openzeppelin/contracts-upgradeable/proxy/utils/Initializable.sol\":4810:4835  address(this).code.length */\n      extcodesize\n        /* \"@openzeppelin/contracts-upgradeable/proxy/utils/Initializable.sol\":4810:4840  address(this).code.length == 0 */\n      iszero\n        /* \"@openzeppelin/contracts-upgradeable/proxy/utils/Initializable.sol\":4790:4840  initialized == 1 && address(this).code.length == 0 */\n    tag_243:\n        /* \"@openzeppelin/contracts-upgradeable/proxy/utils/Initializable.sol\":4770:4840  bool construction = initialized == 1 && address(this).code.length == 0 */\n      swap1\n      pop\n        /* \"@openzeppelin/contracts-upgradeable/proxy/utils/Initializable.sol\":4856:4868  initialSetup */\n      dup2\n        /* \"@openzeppelin/contracts-upgradeable/proxy/utils/Initializable.sol\":4855:4868  !initialSetup */\n      iszero\n        /* \"@openzeppelin/contracts-upgradeable/proxy/utils/Initializable.sol\":4855:4885  !initialSetup && !construction */\n      dup1\n      iszero\n      tag_244\n      jumpi\n      pop\n        /* \"@openzeppelin/contracts-upgradeable/proxy/utils/Initializable.sol\":4873:4885  construction */\n      dup1\n        /* \"@openzeppelin/contracts-upgradeable/proxy/utils/Initializable.sol\":4872:4885  !construction */\n      iszero\n        /* \"@openzeppelin/contracts-upgradeable/proxy/utils/Initializable.sol\":4855:4885  !initialSetup && !construction */\n    tag_244:\n        /* \"@openzeppelin/contracts-upgradeable/proxy/utils/Initializable.sol\":4851:4942  if (!initialSetup && !construction) {... */\n      iszero\n      tag_245\n      jumpi\n        /* \"@openzeppelin/contracts-upgradeable/proxy/utils/Initializable.sol\":4908:4931  InvalidInitialization() */\n      mload(0x40)\n      shl(0xe0, 0xf92ee8a9)\n      dup2\n      mstore\n      0x04\n      add\n      mload(0x40)\n      dup1\n      swap2\n      sub\n      swap1\n      revert\n        /* \"@openzeppelin/contracts-upgradeable/proxy/utils/Initializable.sol\":4851:4942  if (!initialSetup && !construction) {... */\n    tag_245:\n        /* \"@openzeppelin/contracts-upgradeable/proxy/utils/Initializable.sol\":4951:4969  $._initialized = 1 */\n      dup5\n      sload\n      not(0xffffffffffffffff)\n      and\n        /* \"@openzeppelin/contracts-upgradeable/proxy/utils/Initializable.sol\":4968:4969  1 */\n      0x01\n        /* \"@openzeppelin/contracts-upgradeable/proxy/utils/Initializable.sol\":4951:4969  $._initialized = 1 */\n      or\n      dup6\n      sstore\n        /* \"@openzeppelin/contracts-upgradeable/proxy/utils/Initializable.sol\":4979:5046  if (isTopLevelCall) {... */\n      dup4\n      iszero\n      tag_246\n      jumpi\n        /* \"@openzeppelin/contracts-upgradeable/proxy/utils/Initializable.sol\":5013:5035  $._initializing = true */\n      dup5\n      sload\n      not(shl(0x40, 0xff))\n      and\n      shl(0x40, 0x01)\n      or\n      dup6\n      sstore\n        /* \"@openzeppelin/contracts-upgradeable/proxy/utils/Initializable.sol\":4979:5046  if (isTopLevelCall) {... */\n    tag_246:\n        /* \"contracts/compliance/modular/ModularCompliance.sol\":4466:4492  __Ownable_init(msg.sender) */\n      tag_248\n        /* \"contracts/compliance/modular/ModularCompliance.sol\":4481:4491  msg.sender */\n      caller\n        /* \"contracts/compliance/modular/ModularCompliance.sol\":4466:4480  __Ownable_init */\n      tag_249\n        /* \"contracts/compliance/modular/ModularCompliance.sol\":4466:4492  __Ownable_init(msg.sender) */\n      jump\t// in\n    tag_248:\n        /* \"@openzeppelin/contracts-upgradeable/proxy/utils/Initializable.sol\":5070:5084  isTopLevelCall */\n      dup4\n        /* \"@openzeppelin/contracts-upgradeable/proxy/utils/Initializable.sol\":5066:5167  if (isTopLevelCall) {... */\n      iszero\n      tag_169\n      jumpi\n        /* \"@openzeppelin/contracts-upgradeable/proxy/utils/Initializable.sol\":5100:5123  $._initializing = false */\n      dup5\n      sload\n      not(shl(0x40, 0xff))\n      and\n      dup6\n      sstore\n        /* \"@openzeppelin/contracts-upgradeable/proxy/utils/Initializable.sol\":5142:5156  Initialized(1) */\n      mload(0x40)\n      0x01\n        /* \"#utility.yul\":8625:8675   */\n      dup2\n      mstore\n        /* \"@openzeppelin/contracts-upgradeable/proxy/utils/Initializable.sol\":5142:5156  Initialized(1) */\n      0xc7f505b2f371ae2175ee4913f4499e1f2633a7b5936321eed1cdaeb6115181d2\n      swap1\n        /* \"#utility.yul\":8613:8615   */\n      0x20\n        /* \"#utility.yul\":8598:8616   */\n      add\n        /* \"@openzeppelin/contracts-upgradeable/proxy/utils/Initializable.sol\":5142:5156  Initialized(1) */\n      mload(0x40)\n      dup1\n      swap2\n      sub\n      swap1\n      log1\n        /* \"@openzeppelin/contracts-upgradeable/proxy/utils/Initializable.sol\":4092:5173  {... */\n      pop\n      pop\n      pop\n      pop\n      pop\n        /* \"contracts/compliance/modular/ModularCompliance.sol\":4419:4499  function init() external initializer {... */\n      jump\t// out\n        /* \"contracts/compliance/modular/ModularCompliance.sol\":10052:10414  function canTransfer(address _from, address _to, uint256 _value) external view override returns (bool) {... */\n    tag_68:\n        /* \"contracts/compliance/modular/ModularCompliance.sol\":10182:10190  _modules */\n      0x01\n        /* \"contracts/compliance/modular/ModularCompliance.sol\":10182:10197  _modules.length */\n      sload\n        /* \"contracts/compliance/modular/ModularCompliance.sol\":10149:10153  bool */\n      0x00\n      swap1\n      dup2\n        /* \"contracts/compliance/modular/ModularCompliance.sol\":10207:10387  for (uint256 i = 0; i < length; i++) {... */\n    tag_254:\n        /* \"contracts/compliance/modular/ModularCompliance.sol\":10231:10237  length */\n      dup2\n        /* \"contracts/compliance/modular/ModularCompliance.sol\":10227:10228  i */\n      dup2\n        /* \"contracts/compliance/modular/ModularCompliance.sol\":10227:10237  i < length */\n      lt\n        /* \"contracts/compliance/modular/ModularCompliance.sol\":10207:10387  for (uint256 i = 0; i < length; i++) {... */\n      iszero\n      tag_255\n      jumpi\n        /* \"contracts/compliance/modular/ModularCompliance.sol\":10271:10279  _modules */\n      0x01\n        /* \"contracts/compliance/modular/ModularCompliance.sol\":10280:10281  i */\n      dup2\n        /* \"contracts/compliance/modular/ModularCompliance.sol\":10271:10282  _modules[i] */\n      dup2\n      sload\n      dup2\n      lt\n      tag_258\n      jumpi\n      tag_258\n      tag_143\n      jump\t// in\n    tag_258:\n      0x00\n      swap2\n      dup3\n      mstore\n      0x20\n      swap1\n      swap2\n      keccak256\n      add\n      sload\n        /* \"contracts/compliance/modular/ModularCompliance.sol\":10263:10330  IModule(_modules[i]).moduleCheck(_from, _to, _value, address(this)) */\n      mload(0x40)\n      shl(0xe2, 0x4edf39)\n      dup2\n      mstore\n      sub(shl(0xa0, 0x01), 0x01)\n        /* \"#utility.yul\":8973:8988   */\n      dup9\n      dup2\n      and\n        /* \"contracts/compliance/modular/ModularCompliance.sol\":10263:10330  IModule(_modules[i]).moduleCheck(_from, _to, _value, address(this)) */\n      0x04\n      dup4\n      add\n        /* \"#utility.yul\":8955:8989   */\n      mstore\n        /* \"#utility.yul\":9025:9040   */\n      dup8\n      dup2\n      and\n        /* \"#utility.yul\":9005:9023   */\n      0x24\n      dup4\n      add\n        /* \"#utility.yul\":8998:9041   */\n      mstore\n        /* \"#utility.yul\":9057:9075   */\n      0x44\n      dup3\n      add\n        /* \"#utility.yul\":9050:9084   */\n      dup8\n      swap1\n      mstore\n        /* \"contracts/compliance/modular/ModularCompliance.sol\":10324:10328  this */\n      address\n        /* \"#utility.yul\":9100:9118   */\n      0x64\n      dup4\n      add\n        /* \"#utility.yul\":9093:9136   */\n      mstore\n        /* \"contracts/compliance/modular/ModularCompliance.sol\":10271:10282  _modules[i] */\n      swap1\n      swap2\n      and\n      swap1\n        /* \"contracts/compliance/modular/ModularCompliance.sol\":10263:10295  IModule(_modules[i]).moduleCheck */\n      0x013b7ce4\n      swap1\n        /* \"#utility.yul\":8889:8908   */\n      0x84\n      add\n        /* \"contracts/compliance/modular/ModularCompliance.sol\":10263:10330  IModule(_modules[i]).moduleCheck(_from, _to, _value, address(this)) */\n      0x20\n      mload(0x40)\n      dup1\n      dup4\n      sub\n      dup2\n      dup7\n      gas\n      staticcall\n      iszero\n      dup1\n      iszero\n      tag_263\n      jumpi\n      returndatasize\n      0x00\n      dup1\n      returndatacopy\n      revert(0x00, returndatasize)\n    tag_263:\n      pop\n      pop\n      pop\n      pop\n      mload(0x40)\n      returndatasize\n      not(0x1f)\n      0x1f\n      dup3\n      add\n      and\n      dup3\n      add\n      dup1\n      0x40\n      mstore\n      pop\n      dup2\n      add\n      swap1\n      tag_264\n      swap2\n      swap1\n      tag_93\n      jump\t// in\n    tag_264:\n        /* \"contracts/compliance/modular/ModularCompliance.sol\":10258:10377  if (!IModule(_modules[i]).moduleCheck(_from, _to, _value, address(this))) {... */\n      tag_265\n      jumpi\n        /* \"contracts/compliance/modular/ModularCompliance.sol\":10357:10362  false */\n      0x00\n        /* \"contracts/compliance/modular/ModularCompliance.sol\":10350:10362  return false */\n      swap3\n      pop\n      pop\n      pop\n      jump(tag_253)\n        /* \"contracts/compliance/modular/ModularCompliance.sol\":10258:10377  if (!IModule(_modules[i]).moduleCheck(_from, _to, _value, address(this))) {... */\n    tag_265:\n        /* \"contracts/compliance/modular/ModularCompliance.sol\":10239:10242  i++ */\n      dup1\n      tag_266\n      dup2\n      tag_151\n      jump\t// in\n    tag_266:\n      swap2\n      pop\n      pop\n        /* \"contracts/compliance/modular/ModularCompliance.sol\":10207:10387  for (uint256 i = 0; i < length; i++) {... */\n      jump(tag_254)\n    tag_255:\n      pop\n        /* \"contracts/compliance/modular/ModularCompliance.sol\":10403:10407  true */\n      0x01\n        /* \"contracts/compliance/modular/ModularCompliance.sol\":10396:10407  return true */\n      swap2\n      pop\n      pop\n        /* \"contracts/compliance/modular/ModularCompliance.sol\":10052:10414  function canTransfer(address _from, address _to, uint256 _value) external view override returns (bool) {... */\n    tag_253:\n      swap4\n      swap3\n      pop\n      pop\n      pop\n      jump\t// out\n        /* \"contracts/compliance/modular/ModularCompliance.sol\":8288:9429  function callModuleFunction(bytes calldata callData, address _module) external override onlyOwner {... */\n    tag_73:\n        /* \"@openzeppelin/contracts-upgradeable/access/OwnableUpgradeable.sol\":2344:2357  _checkOwner() */\n      tag_268\n        /* \"@openzeppelin/contracts-upgradeable/access/OwnableUpgradeable.sol\":2344:2355  _checkOwner */\n      tag_79\n        /* \"@openzeppelin/contracts-upgradeable/access/OwnableUpgradeable.sol\":2344:2357  _checkOwner() */\n      jump\t// in\n    tag_268:\n      sub(shl(0xa0, 0x01), 0x01)\n        /* \"contracts/compliance/modular/ModularCompliance.sol\":8404:8425  _moduleBound[_module] */\n      dup2\n      and\n      0x00\n      swap1\n      dup2\n      mstore\n        /* \"contracts/compliance/modular/ModularCompliance.sol\":8404:8416  _moduleBound */\n      0x02\n        /* \"contracts/compliance/modular/ModularCompliance.sol\":8404:8425  _moduleBound[_module] */\n      0x20\n      mstore\n      0x40\n      swap1\n      keccak256\n      sload\n      0xff\n      and\n        /* \"contracts/compliance/modular/ModularCompliance.sol\":8396:8455  require(_moduleBound[_module], \"call only on bound module\") */\n      tag_270\n      jumpi\n      mload(0x40)\n      shl(0xe5, 0x461bcd)\n      dup2\n      mstore\n        /* \"#utility.yul\":9349:9351   */\n      0x20\n        /* \"contracts/compliance/modular/ModularCompliance.sol\":8396:8455  require(_moduleBound[_module], \"call only on bound module\") */\n      0x04\n      dup3\n      add\n        /* \"#utility.yul\":9331:9352   */\n      mstore\n        /* \"#utility.yul\":9388:9390   */\n      0x19\n        /* \"#utility.yul\":9368:9386   */\n      0x24\n      dup3\n      add\n        /* \"#utility.yul\":9361:9391   */\n      mstore\n        /* \"#utility.yul\":9427:9454   */\n      0x63616c6c206f6e6c79206f6e20626f756e64206d6f64756c6500000000000000\n        /* \"#utility.yul\":9407:9425   */\n      0x44\n      dup3\n      add\n        /* \"#utility.yul\":9400:9455   */\n      mstore\n        /* \"#utility.yul\":9472:9490   */\n      0x64\n      add\n        /* \"contracts/compliance/modular/ModularCompliance.sol\":8396:8455  require(_moduleBound[_module], \"call only on bound module\") */\n      tag_82\n        /* \"#utility.yul\":9147:9496   */\n      jump\n        /* \"contracts/compliance/modular/ModularCompliance.sol\":8396:8455  require(_moduleBound[_module], \"call only on bound module\") */\n    tag_270:\n        /* \"contracts/compliance/modular/ModularCompliance.sol\":8939:8943  0x40 */\n      0x40\n        /* \"contracts/compliance/modular/ModularCompliance.sol\":8933:8944  mload(0x40) */\n      mload\n        /* \"contracts/compliance/modular/ModularCompliance.sol\":9006:9021  callData.length */\n      dup3\n        /* \"contracts/compliance/modular/ModularCompliance.sol\":8989:9004  callData.offset */\n      dup5\n        /* \"contracts/compliance/modular/ModularCompliance.sol\":8970:8987  freeMemoryPointer */\n      dup3\n        /* \"contracts/compliance/modular/ModularCompliance.sol\":8957:9022  calldatacopy(freeMemoryPointer, callData.offset, callData.length) */\n      calldatacopy\n        /* \"contracts/compliance/modular/ModularCompliance.sol\":9206:9207  0 */\n      0x00\n        /* \"contracts/compliance/modular/ModularCompliance.sol\":9191:9192  0 */\n      dup1\n        /* \"contracts/compliance/modular/ModularCompliance.sol\":9162:9177  callData.length */\n      dup5\n        /* \"contracts/compliance/modular/ModularCompliance.sol\":9131:9148  freeMemoryPointer */\n      dup4\n        /* \"contracts/compliance/modular/ModularCompliance.sol\":9116:9117  0 */\n      0x00\n        /* \"contracts/compliance/modular/ModularCompliance.sol\":9095:9102  _module */\n      dup7\n        /* \"contracts/compliance/modular/ModularCompliance.sol\":9076:9081  gas() */\n      gas\n        /* \"contracts/compliance/modular/ModularCompliance.sol\":9058:9221  call(... */\n      call\n        /* \"contracts/compliance/modular/ModularCompliance.sol\":9035:9349  if iszero(... */\n      tag_273\n      jumpi\n        /* \"contracts/compliance/modular/ModularCompliance.sol\":9274:9290  returndatasize() */\n      returndatasize\n        /* \"contracts/compliance/modular/ModularCompliance.sol\":9271:9272  0 */\n      0x00\n        /* \"contracts/compliance/modular/ModularCompliance.sol\":9268:9269  0 */\n      dup1\n        /* \"contracts/compliance/modular/ModularCompliance.sol\":9253:9291  returndatacopy(0, 0, returndatasize()) */\n      returndatacopy\n        /* \"contracts/compliance/modular/ModularCompliance.sol\":9318:9334  returndatasize() */\n      returndatasize\n        /* \"contracts/compliance/modular/ModularCompliance.sol\":9315:9316  0 */\n      0x00\n        /* \"contracts/compliance/modular/ModularCompliance.sol\":9308:9335  revert(0, returndatasize()) */\n      revert\n        /* \"contracts/compliance/modular/ModularCompliance.sol\":9035:9349  if iszero(... */\n    tag_273:\n      pop\n        /* \"contracts/compliance/modular/ModularCompliance.sol\":9392:9399  _module */\n      dup1\n      sub(shl(0xa0, 0x01), 0x01)\n        /* \"contracts/compliance/modular/ModularCompliance.sol\":9374:9421  ModuleInteraction(_module, _selector(callData)) */\n      and\n      0x20d79de70adcc6e9353d8a9a5646b46dc352710d0a310b1ad1f67faeca7ef891\n        /* \"contracts/compliance/modular/ModularCompliance.sol\":9401:9420  _selector(callData) */\n      tag_274\n        /* \"contracts/compliance/modular/ModularCompliance.sol\":9411:9419  callData */\n      dup6\n      dup6\n        /* \"contracts/compliance/modular/ModularCompliance.sol\":9401:9410  _selector */\n      tag_275\n        /* \"contracts/compliance/modular/ModularCompliance.sol\":9401:9420  _selector(callData) */\n      jump\t// in\n    tag_274:\n        /* \"contracts/compliance/modular/ModularCompliance.sol\":9374:9421  ModuleInteraction(_module, _selector(callData)) */\n      mload(0x40)\n      not(sub(shl(0xe0, 0x01), 0x01))\n        /* \"#utility.yul\":9663:9696   */\n      swap1\n      swap2\n      and\n        /* \"#utility.yul\":9645:9697   */\n      dup2\n      mstore\n        /* \"#utility.yul\":9633:9635   */\n      0x20\n        /* \"#utility.yul\":9618:9636   */\n      add\n        /* \"contracts/compliance/modular/ModularCompliance.sol\":9374:9421  ModuleInteraction(_module, _selector(callData)) */\n      mload(0x40)\n      dup1\n      swap2\n      sub\n      swap1\n      log2\n        /* \"contracts/compliance/modular/ModularCompliance.sol\":8288:9429  function callModuleFunction(bytes calldata callData, address _module) external override onlyOwner {... */\n      pop\n      pop\n      pop\n      jump\t// out\n        /* \"@openzeppelin/contracts-upgradeable/access/OwnableUpgradeable.sol\":3415:3630  function transferOwnership(address newOwner) public virtual onlyOwner {... */\n    tag_76:\n        /* \"@openzeppelin/contracts-upgradeable/access/OwnableUpgradeable.sol\":2344:2357  _checkOwner() */\n      tag_279\n        /* \"@openzeppelin/contracts-upgradeable/access/OwnableUpgradeable.sol\":2344:2355  _checkOwner */\n      tag_79\n        /* \"@openzeppelin/contracts-upgradeable/access/OwnableUpgradeable.sol\":2344:2357  _checkOwner() */\n      jump\t// in\n    tag_279:\n      sub(shl(0xa0, 0x01), 0x01)\n        /* \"@openzeppelin/contracts-upgradeable/access/OwnableUpgradeable.sol\":3499:3521  newOwner == address(0) */\n      dup2\n      and\n        /* \"@openzeppelin/contracts-upgradeable/access/OwnableUpgradeable.sol\":3495:3586  if (newOwner == address(0)) {... */\n      tag_281\n      jumpi\n        /* \"@openzeppelin/contracts-upgradeable/access/OwnableUpgradeable.sol\":3544:3575  OwnableInvalidOwner(address(0)) */\n      mload(0x40)\n      shl(0xe0, 0x1e4fbdf7)\n      dup2\n      mstore\n        /* \"@openzeppelin/contracts-upgradeable/access/OwnableUpgradeable.sol\":3572:3573  0 */\n      0x00\n        /* \"@openzeppelin/contracts-upgradeable/access/OwnableUpgradeable.sol\":3544:3575  OwnableInvalidOwner(address(0)) */\n      0x04\n      dup3\n      add\n        /* \"#utility.yul\":788:839   */\n      mstore\n        /* \"#utility.yul\":761:779   */\n      0x24\n      add\n        /* \"@openzeppelin/contracts-upgradeable/access/OwnableUpgradeable.sol\":3544:3575  OwnableInvalidOwner(address(0)) */\n      tag_82\n        /* \"#utility.yul\":642:845   */\n      jump\n        /* \"@openzeppelin/contracts-upgradeable/access/OwnableUpgradeable.sol\":3495:3586  if (newOwner == address(0)) {... */\n    tag_281:\n        /* \"@openzeppelin/contracts-upgradeable/access/OwnableUpgradeable.sol\":3595:3623  _transferOwnership(newOwner) */\n      tag_283\n        /* \"@openzeppelin/contracts-upgradeable/access/OwnableUpgradeable.sol\":3614:3622  newOwner */\n      dup2\n        /* \"@openzeppelin/contracts-upgradeable/access/OwnableUpgradeable.sol\":3595:3613  _transferOwnership */\n      tag_157\n        /* \"@openzeppelin/contracts-upgradeable/access/OwnableUpgradeable.sol\":3595:3623  _transferOwnership(newOwner) */\n      jump\t// in\n    tag_283:\n        /* \"@openzeppelin/contracts-upgradeable/access/OwnableUpgradeable.sol\":3415:3630  function transferOwnership(address newOwner) public virtual onlyOwner {... */\n      pop\n      jump\t// out\n        /* \"@openzeppelin/contracts-upgradeable/access/OwnableUpgradeable.sol\":2668:2830  function _checkOwner() internal view virtual {... */\n    tag_79:\n        /* \"@openzeppelin/contracts-upgradeable/utils/ContextUpgradeable.sol\":966:976  msg.sender */\n      caller\n        /* \"@openzeppelin/contracts-upgradeable/access/OwnableUpgradeable.sol\":2727:2734  owner() */\n      tag_287\n        /* \"@openzeppelin/contracts-upgradeable/access/OwnableUpgradeable.sol\":2727:2732  owner */\n      tag_50\n        /* \"@openzeppelin/contracts-upgradeable/access/OwnableUpgradeable.sol\":2727:2734  owner() */\n      jump\t// in\n    tag_287:\n      sub(shl(0xa0, 0x01), 0x01)\n        /* \"@openzeppelin/contracts-upgradeable/access/OwnableUpgradeable.sol\":2727:2750  owner() != _msgSender() */\n      and\n      eq\n        /* \"@openzeppelin/contracts-upgradeable/access/OwnableUpgradeable.sol\":2723:2824  if (owner() != _msgSender()) {... */\n      tag_156\n      jumpi\n        /* \"@openzeppelin/contracts-upgradeable/access/OwnableUpgradeable.sol\":2773:2813  OwnableUnauthorizedAccount(_msgSender()) */\n      mload(0x40)\n      shl(0xe0, 0x118cdaa7)\n      dup2\n      mstore\n        /* \"@openzeppelin/contracts-upgradeable/utils/ContextUpgradeable.sol\":966:976  msg.sender */\n      caller\n        /* \"@openzeppelin/contracts-upgradeable/access/OwnableUpgradeable.sol\":2773:2813  OwnableUnauthorizedAccount(_msgSender()) */\n      0x04\n      dup3\n      add\n        /* \"#utility.yul\":788:839   */\n      mstore\n        /* \"#utility.yul\":761:779   */\n      0x24\n      add\n        /* \"@openzeppelin/contracts-upgradeable/access/OwnableUpgradeable.sol\":2773:2813  OwnableUnauthorizedAccount(_msgSender()) */\n      tag_82\n        /* \"#utility.yul\":642:845   */\n      jump\n        /* \"@openzeppelin/contracts-upgradeable/access/OwnableUpgradeable.sol\":3784:4032  function _transferOwnership(address newOwner) internal virtual {... */\n    tag_157:\n        /* \"@openzeppelin/contracts-upgradeable/access/OwnableUpgradeable.sol\":1323:1345  OwnableStorageLocation */\n      0x9016d09d72d40fdae2fd8ceac6b6234c7706214fd39c1cd1e609a0528c199300\n        /* \"@openzeppelin/contracts-upgradeable/access/OwnableUpgradeable.sol\":3933:3941  $._owner */\n      dup1\n      sload\n      not(sub(shl(0xa0, 0x01), 0x01))\n        /* \"@openzeppelin/contracts-upgradeable/access/OwnableUpgradeable.sol\":3951:3970  $._owner = newOwner */\n      dup2\n      and\n      sub(shl(0xa0, 0x01), 0x01)\n      dup5\n      dup2\n      and\n      swap2\n      dup3\n      or\n      dup5\n      sstore\n        /* \"@openzeppelin/contracts-upgradeable/access/OwnableUpgradeable.sol\":3985:4025  OwnershipTransferred(oldOwner, newOwner) */\n      mload(0x40)\n        /* \"@openzeppelin/contracts-upgradeable/access/OwnableUpgradeable.sol\":3933:3941  $._owner */\n      swap3\n      and\n      swap2\n      dup3\n      swap1\n        /* \"@openzeppelin/contracts-upgradeable/access/OwnableUpgradeable.sol\":3985:4025  OwnershipTransferred(oldOwner, newOwner) */\n      0x8be0079c531659141344cd1fd0a4f28419497f9722a3daafe3b4186f6b6457e0\n      swap1\n        /* \"@openzeppelin/contracts-upgradeable/access/OwnableUpgradeable.sol\":3857:3881  OwnableStorage storage $ */\n      0x00\n      swap1\n        /* \"@openzeppelin/contracts-upgradeable/access/OwnableUpgradeable.sol\":3985:4025  OwnershipTransferred(oldOwner, newOwner) */\n      log3\n        /* \"@openzeppelin/contracts-upgradeable/access/OwnableUpgradeable.sol\":3847:4032  {... */\n      pop\n      pop\n        /* \"@openzeppelin/contracts-upgradeable/access/OwnableUpgradeable.sol\":3784:4032  function _transferOwnership(address newOwner) internal virtual {... */\n      pop\n      jump\t// out\n        /* \"@openzeppelin/contracts-upgradeable/access/OwnableUpgradeable.sol\":1857:1984  function __Ownable_init(address initialOwner) internal onlyInitializing {... */\n    tag_249:\n        /* \"@openzeppelin/contracts-upgradeable/proxy/utils/Initializable.sol\":6931:6951  _checkInitializing() */\n      tag_296\n        /* \"@openzeppelin/contracts-upgradeable/proxy/utils/Initializable.sol\":6931:6949  _checkInitializing */\n      tag_297\n        /* \"@openzeppelin/contracts-upgradeable/proxy/utils/Initializable.sol\":6931:6951  _checkInitializing() */\n      jump\t// in\n    tag_296:\n        /* \"@openzeppelin/contracts-upgradeable/access/OwnableUpgradeable.sol\":1939:1977  __Ownable_init_unchained(initialOwner) */\n      tag_283\n        /* \"@openzeppelin/contracts-upgradeable/access/OwnableUpgradeable.sol\":1964:1976  initialOwner */\n      dup2\n        /* \"@openzeppelin/contracts-upgradeable/access/OwnableUpgradeable.sol\":1939:1963  __Ownable_init_unchained */\n      tag_300\n        /* \"@openzeppelin/contracts-upgradeable/access/OwnableUpgradeable.sol\":1939:1977  __Ownable_init_unchained(initialOwner) */\n      jump\t// in\n        /* \"contracts/compliance/modular/ModularCompliance.sol\":10642:11462  function _selector(bytes calldata callData) internal pure returns (bytes4 result) {... */\n    tag_275:\n        /* \"contracts/compliance/modular/ModularCompliance.sol\":10709:10722  bytes4 result */\n      0x00\n        /* \"contracts/compliance/modular/ModularCompliance.sol\":10757:10758  4 */\n      0x04\n        /* \"contracts/compliance/modular/ModularCompliance.sol\":10738:10758  callData.length >= 4 */\n      dup3\n      lt\n        /* \"contracts/compliance/modular/ModularCompliance.sol\":10734:11456  if (callData.length >= 4) {... */\n      tag_302\n      jumpi\n      pop\n        /* \"contracts/compliance/modular/ModularCompliance.sol\":11403:11432  calldataload(callData.offset) */\n      dup2\n      calldataload\n        /* \"contracts/compliance/modular/ModularCompliance.sol\":10734:11456  if (callData.length >= 4) {... */\n    tag_302:\n        /* \"contracts/compliance/modular/ModularCompliance.sol\":10642:11462  function _selector(bytes calldata callData) internal pure returns (bytes4 result) {... */\n      swap3\n      swap2\n      pop\n      pop\n      jump\t// out\n        /* \"@openzeppelin/contracts-upgradeable/proxy/utils/Initializable.sol\":7084:7225  function _checkInitializing() internal view virtual {... */\n    tag_297:\n        /* \"@openzeppelin/contracts-upgradeable/proxy/utils/Initializable.sol\":8870:8891  INITIALIZABLE_STORAGE */\n      0xf0c57e16840df040f15088dc2f81fe391c3923bec73e23a9662efc9c229c6a00\n        /* \"@openzeppelin/contracts-upgradeable/proxy/utils/Initializable.sol\":8560:8600  _getInitializableStorage()._initializing */\n      sload\n      shl(0x40, 0x01)\n      swap1\n      div\n      0xff\n      and\n        /* \"@openzeppelin/contracts-upgradeable/proxy/utils/Initializable.sol\":7146:7219  if (!_isInitializing()) {... */\n      tag_156\n      jumpi\n        /* \"@openzeppelin/contracts-upgradeable/proxy/utils/Initializable.sol\":7191:7208  NotInitializing() */\n      mload(0x40)\n      shl(0xe3, 0x1afcd79f)\n      dup2\n      mstore\n      0x04\n      add\n      mload(0x40)\n      dup1\n      swap2\n      sub\n      swap1\n      revert\n        /* \"@openzeppelin/contracts-upgradeable/access/OwnableUpgradeable.sol\":1990:2225  function __Ownable_init_unchained(address initialOwner) internal onlyInitializing {... */\n    tag_300:\n        /* \"@openzeppelin/contracts-upgradeable/proxy/utils/Initializable.sol\":6931:6951  _checkInitializing() */\n      tag_279\n        /* \"@openzeppelin/contracts-upgradeable/proxy/utils/Initializable.sol\":6931:6949  _checkInitializing */\n      tag_297\n        /* \"@openzeppelin/contracts-upgradeable/proxy/utils/Initializable.sol\":6931:6951  _checkInitializing() */\n      jump\t// in\n        /* \"#utility.yul\":14:187   */\n    tag_316:\n        /* \"#utility.yul\":82:102   */\n      dup1\n      calldataload\n      sub(shl(0xa0, 0x01), 0x01)\n        /* \"#utility.yul\":131:162   */\n      dup2\n      and\n        /* \"#utility.yul\":121:163   */\n      dup2\n      eq\n        /* \"#utility.yul\":111:181   */\n      tag_320\n      jumpi\n        /* \"#utility.yul\":177:178   */\n      0x00\n        /* \"#utility.yul\":174:175   */\n      dup1\n        /* \"#utility.yul\":167:179   */\n      revert\n        /* \"#utility.yul\":111:181   */\n    tag_320:\n        /* \"#utility.yul\":14:187   */\n      swap2\n      swap1\n      pop\n      jump\t// out\n        /* \"#utility.yul\":192:378   */\n    tag_24:\n        /* \"#utility.yul\":251:257   */\n      0x00\n        /* \"#utility.yul\":304:306   */\n      0x20\n        /* \"#utility.yul\":292:301   */\n      dup3\n        /* \"#utility.yul\":283:290   */\n      dup5\n        /* \"#utility.yul\":279:302   */\n      sub\n        /* \"#utility.yul\":275:307   */\n      slt\n        /* \"#utility.yul\":272:324   */\n      iszero\n      tag_322\n      jumpi\n        /* \"#utility.yul\":320:321   */\n      0x00\n        /* \"#utility.yul\":317:318   */\n      dup1\n        /* \"#utility.yul\":310:322   */\n      revert\n        /* \"#utility.yul\":272:324   */\n    tag_322:\n        /* \"#utility.yul\":343:372   */\n      tag_253\n        /* \"#utility.yul\":362:371   */\n      dup3\n        /* \"#utility.yul\":343:372   */\n      tag_316\n      jump\t// in\n        /* \"#utility.yul\":383:637   */\n    tag_34:\n        /* \"#utility.yul\":451:457   */\n      0x00\n        /* \"#utility.yul\":459:465   */\n      dup1\n        /* \"#utility.yul\":512:514   */\n      0x40\n        /* \"#utility.yul\":500:509   */\n      dup4\n        /* \"#utility.yul\":491:498   */\n      dup6\n        /* \"#utility.yul\":487:510   */\n      sub\n        /* \"#utility.yul\":483:515   */\n      slt\n        /* \"#utility.yul\":480:532   */\n      iszero\n      tag_325\n      jumpi\n        /* \"#utility.yul\":528:529   */\n      0x00\n        /* \"#utility.yul\":525:526   */\n      dup1\n        /* \"#utility.yul\":518:530   */\n      revert\n        /* \"#utility.yul\":480:532   */\n    tag_325:\n        /* \"#utility.yul\":551:580   */\n      tag_326\n        /* \"#utility.yul\":570:579   */\n      dup4\n        /* \"#utility.yul\":551:580   */\n      tag_316\n      jump\t// in\n    tag_326:\n        /* \"#utility.yul\":541:580   */\n      swap5\n        /* \"#utility.yul\":627:629   */\n      0x20\n        /* \"#utility.yul\":612:630   */\n      swap4\n      swap1\n      swap4\n      add\n        /* \"#utility.yul\":599:631   */\n      calldataload\n      swap4\n      pop\n      pop\n      pop\n        /* \"#utility.yul\":383:637   */\n      jump\t// out\n        /* \"#utility.yul\":850:1178   */\n    tag_44:\n        /* \"#utility.yul\":927:933   */\n      0x00\n        /* \"#utility.yul\":935:941   */\n      dup1\n        /* \"#utility.yul\":943:949   */\n      0x00\n        /* \"#utility.yul\":996:998   */\n      0x60\n        /* \"#utility.yul\":984:993   */\n      dup5\n        /* \"#utility.yul\":975:982   */\n      dup7\n        /* \"#utility.yul\":971:994   */\n      sub\n        /* \"#utility.yul\":967:999   */\n      slt\n        /* \"#utility.yul\":964:1016   */\n      iszero\n      tag_329\n      jumpi\n        /* \"#utility.yul\":1012:1013   */\n      0x00\n        /* \"#utility.yul\":1009:1010   */\n      dup1\n        /* \"#utility.yul\":1002:1014   */\n      revert\n        /* \"#utility.yul\":964:1016   */\n    tag_329:\n        /* \"#utility.yul\":1035:1064   */\n      tag_330\n        /* \"#utility.yul\":1054:1063   */\n      dup5\n        /* \"#utility.yul\":1035:1064   */\n      tag_316\n      jump\t// in\n    tag_330:\n        /* \"#utility.yul\":1025:1064   */\n      swap3\n      pop\n        /* \"#utility.yul\":1083:1121   */\n      tag_331\n        /* \"#utility.yul\":1117:1119   */\n      0x20\n        /* \"#utility.yul\":1106:1115   */\n      dup6\n        /* \"#utility.yul\":1102:1120   */\n      add\n        /* \"#utility.yul\":1083:1121   */\n      tag_316\n      jump\t// in\n    tag_331:\n        /* \"#utility.yul\":1073:1121   */\n      swap2\n      pop\n        /* \"#utility.yul\":1168:1170   */\n      0x40\n        /* \"#utility.yul\":1157:1166   */\n      dup5\n        /* \"#utility.yul\":1153:1171   */\n      add\n        /* \"#utility.yul\":1140:1172   */\n      calldataload\n        /* \"#utility.yul\":1130:1172   */\n      swap1\n      pop\n        /* \"#utility.yul\":850:1178   */\n      swap3\n      pop\n      swap3\n      pop\n      swap3\n      jump\t// out\n        /* \"#utility.yul\":1375:2033   */\n    tag_63:\n        /* \"#utility.yul\":1546:1548   */\n      0x20\n        /* \"#utility.yul\":1598:1619   */\n      dup1\n      dup3\n      mstore\n        /* \"#utility.yul\":1668:1681   */\n      dup3\n      mload\n        /* \"#utility.yul\":1571:1589   */\n      dup3\n      dup3\n      add\n        /* \"#utility.yul\":1690:1712   */\n      dup2\n      swap1\n      mstore\n        /* \"#utility.yul\":1517:1521   */\n      0x00\n      swap2\n        /* \"#utility.yul\":1546:1548   */\n      swap1\n        /* \"#utility.yul\":1769:1784   */\n      dup5\n      dup3\n      add\n      swap1\n        /* \"#utility.yul\":1743:1745   */\n      0x40\n        /* \"#utility.yul\":1728:1746   */\n      dup6\n      add\n      swap1\n        /* \"#utility.yul\":1517:1521   */\n      dup5\n        /* \"#utility.yul\":1812:2007   */\n    tag_334:\n        /* \"#utility.yul\":1826:1832   */\n      dup2\n        /* \"#utility.yul\":1823:1824   */\n      dup2\n        /* \"#utility.yul\":1820:1833   */\n      lt\n        /* \"#utility.yul\":1812:2007   */\n      iszero\n      tag_336\n      jumpi\n        /* \"#utility.yul\":1891:1904   */\n      dup4\n      mload\n      sub(shl(0xa0, 0x01), 0x01)\n        /* \"#utility.yul\":1887:1926   */\n      and\n        /* \"#utility.yul\":1875:1927   */\n      dup4\n      mstore\n        /* \"#utility.yul\":1982:1997   */\n      swap3\n      dup5\n      add\n      swap3\n        /* \"#utility.yul\":1947:1959   */\n      swap2\n      dup5\n      add\n      swap2\n        /* \"#utility.yul\":1923:1924   */\n      0x01\n        /* \"#utility.yul\":1841:1850   */\n      add\n        /* \"#utility.yul\":1812:2007   */\n      jump(tag_334)\n    tag_336:\n      pop\n        /* \"#utility.yul\":2024:2027   */\n      swap1\n      swap7\n        /* \"#utility.yul\":1375:2033   */\n      swap6\n      pop\n      pop\n      pop\n      pop\n      pop\n      pop\n      jump\t// out\n        /* \"#utility.yul\":2038:2709   */\n    tag_72:\n        /* \"#utility.yul\":2117:2123   */\n      0x00\n        /* \"#utility.yul\":2125:2131   */\n      dup1\n        /* \"#utility.yul\":2133:2139   */\n      0x00\n        /* \"#utility.yul\":2186:2188   */\n      0x40\n        /* \"#utility.yul\":2174:2183   */\n      dup5\n        /* \"#utility.yul\":2165:2172   */\n      dup7\n        /* \"#utility.yul\":2161:2184   */\n      sub\n        /* \"#utility.yul\":2157:2189   */\n      slt\n        /* \"#utility.yul\":2154:2206   */\n      iszero\n      tag_338\n      jumpi\n        /* \"#utility.yul\":2202:2203   */\n      0x00\n        /* \"#utility.yul\":2199:2200   */\n      dup1\n        /* \"#utility.yul\":2192:2204   */\n      revert\n        /* \"#utility.yul\":2154:2206   */\n    tag_338:\n        /* \"#utility.yul\":2242:2251   */\n      dup4\n        /* \"#utility.yul\":2229:2252   */\n      calldataload\n        /* \"#utility.yul\":2271:2289   */\n      0xffffffffffffffff\n        /* \"#utility.yul\":2312:2314   */\n      dup1\n        /* \"#utility.yul\":2304:2310   */\n      dup3\n        /* \"#utility.yul\":2301:2315   */\n      gt\n        /* \"#utility.yul\":2298:2332   */\n      iszero\n      tag_339\n      jumpi\n        /* \"#utility.yul\":2328:2329   */\n      0x00\n        /* \"#utility.yul\":2325:2326   */\n      dup1\n        /* \"#utility.yul\":2318:2330   */\n      revert\n        /* \"#utility.yul\":2298:2332   */\n    tag_339:\n        /* \"#utility.yul\":2366:2372   */\n      dup2\n        /* \"#utility.yul\":2355:2364   */\n      dup7\n        /* \"#utility.yul\":2351:2373   */\n      add\n        /* \"#utility.yul\":2341:2373   */\n      swap2\n      pop\n        /* \"#utility.yul\":2411:2418   */\n      dup7\n        /* \"#utility.yul\":2404:2408   */\n      0x1f\n        /* \"#utility.yul\":2400:2402   */\n      dup4\n        /* \"#utility.yul\":2396:2409   */\n      add\n        /* \"#utility.yul\":2392:2419   */\n      slt\n        /* \"#utility.yul\":2382:2437   */\n      tag_340\n      jumpi\n        /* \"#utility.yul\":2433:2434   */\n      0x00\n        /* \"#utility.yul\":2430:2431   */\n      dup1\n        /* \"#utility.yul\":2423:2435   */\n      revert\n        /* \"#utility.yul\":2382:2437   */\n    tag_340:\n        /* \"#utility.yul\":2473:2475   */\n      dup2\n        /* \"#utility.yul\":2460:2476   */\n      calldataload\n        /* \"#utility.yul\":2499:2501   */\n      dup2\n        /* \"#utility.yul\":2491:2497   */\n      dup2\n        /* \"#utility.yul\":2488:2502   */\n      gt\n        /* \"#utility.yul\":2485:2519   */\n      iszero\n      tag_341\n      jumpi\n        /* \"#utility.yul\":2515:2516   */\n      0x00\n        /* \"#utility.yul\":2512:2513   */\n      dup1\n        /* \"#utility.yul\":2505:2517   */\n      revert\n        /* \"#utility.yul\":2485:2519   */\n    tag_341:\n        /* \"#utility.yul\":2562:2569   */\n      dup8\n        /* \"#utility.yul\":2555:2559   */\n      0x20\n        /* \"#utility.yul\":2546:2552   */\n      dup3\n        /* \"#utility.yul\":2542:2544   */\n      dup6\n        /* \"#utility.yul\":2538:2553   */\n      add\n        /* \"#utility.yul\":2534:2560   */\n      add\n        /* \"#utility.yul\":2531:2570   */\n      gt\n        /* \"#utility.yul\":2528:2587   */\n      iszero\n      tag_342\n      jumpi\n        /* \"#utility.yul\":2583:2584   */\n      0x00\n        /* \"#utility.yul\":2580:2581   */\n      dup1\n        /* \"#utility.yul\":2573:2585   */\n      revert\n        /* \"#utility.yul\":2528:2587   */\n    tag_342:\n        /* \"#utility.yul\":2614:2618   */\n      0x20\n        /* \"#utility.yul\":2606:2619   */\n      swap3\n      dup4\n      add\n      swap6\n      pop\n        /* \"#utility.yul\":2638:2644   */\n      swap4\n      pop\n        /* \"#utility.yul\":2663:2703   */\n      tag_343\n      swap2\n        /* \"#utility.yul\":2682:2702   */\n      dup7\n      add\n      swap1\n      pop\n        /* \"#utility.yul\":2663:2703   */\n      tag_316\n      jump\t// in\n    tag_343:\n        /* \"#utility.yul\":2653:2703   */\n      swap1\n      pop\n        /* \"#utility.yul\":2038:2709   */\n      swap3\n      pop\n      swap3\n      pop\n      swap3\n      jump\t// out\n        /* \"#utility.yul\":2714:3069   */\n    tag_83:\n        /* \"#utility.yul\":2916:2918   */\n      0x20\n        /* \"#utility.yul\":2898:2919   */\n      dup1\n      dup3\n      mstore\n        /* \"#utility.yul\":2955:2957   */\n      0x1f\n        /* \"#utility.yul\":2935:2953   */\n      swap1\n      dup3\n      add\n        /* \"#utility.yul\":2928:2958   */\n      mstore\n        /* \"#utility.yul\":2994:3027   */\n      0x696e76616c696420617267756d656e74202d207a65726f206164647265737300\n        /* \"#utility.yul\":2989:2991   */\n      0x40\n        /* \"#utility.yul\":2974:2992   */\n      dup3\n      add\n        /* \"#utility.yul\":2967:3028   */\n      mstore\n        /* \"#utility.yul\":3060:3062   */\n      0x60\n        /* \"#utility.yul\":3045:3063   */\n      add\n      swap1\n        /* \"#utility.yul\":2714:3069   */\n      jump\t// out\n        /* \"#utility.yul\":3783:4060   */\n    tag_93:\n        /* \"#utility.yul\":3850:3856   */\n      0x00\n        /* \"#utility.yul\":3903:3905   */\n      0x20\n        /* \"#utility.yul\":3891:3900   */\n      dup3\n        /* \"#utility.yul\":3882:3889   */\n      dup5\n        /* \"#utility.yul\":3878:3901   */\n      sub\n        /* \"#utility.yul\":3874:3906   */\n      slt\n        /* \"#utility.yul\":3871:3923   */\n      iszero\n      tag_348\n      jumpi\n        /* \"#utility.yul\":3919:3920   */\n      0x00\n        /* \"#utility.yul\":3916:3917   */\n      dup1\n        /* \"#utility.yul\":3909:3921   */\n      revert\n        /* \"#utility.yul\":3871:3923   */\n    tag_348:\n        /* \"#utility.yul\":3951:3960   */\n      dup2\n        /* \"#utility.yul\":3945:3961   */\n      mload\n        /* \"#utility.yul\":4004:4009   */\n      dup1\n        /* \"#utility.yul\":3997:4010   */\n      iszero\n        /* \"#utility.yul\":3990:4011   */\n      iszero\n        /* \"#utility.yul\":3983:3988   */\n      dup2\n        /* \"#utility.yul\":3980:4012   */\n      eq\n        /* \"#utility.yul\":3970:4030   */\n      tag_253\n      jumpi\n        /* \"#utility.yul\":4026:4027   */\n      0x00\n        /* \"#utility.yul\":4023:4024   */\n      dup1\n        /* \"#utility.yul\":4016:4028   */\n      revert\n        /* \"#utility.yul\":5195:5667   */\n    tag_131:\n        /* \"#utility.yul\":5397:5399   */\n      0x20\n        /* \"#utility.yul\":5379:5400   */\n      dup1\n      dup3\n      mstore\n        /* \"#utility.yul\":5436:5438   */\n      0x44\n        /* \"#utility.yul\":5416:5434   */\n      swap1\n      dup3\n      add\n        /* \"#utility.yul\":5409:5439   */\n      mstore\n        /* \"#utility.yul\":5475:5509   */\n      0x6572726f72203a20746869732061646472657373206973206e6f74206120746f\n        /* \"#utility.yul\":5470:5472   */\n      0x40\n        /* \"#utility.yul\":5455:5473   */\n      dup3\n      add\n        /* \"#utility.yul\":5448:5510   */\n      mstore\n        /* \"#utility.yul\":5546:5580   */\n      0x6b656e20626f756e6420746f2074686520636f6d706c69616e636520636f6e74\n        /* \"#utility.yul\":5541:5543   */\n      0x60\n        /* \"#utility.yul\":5526:5544   */\n      dup3\n      add\n        /* \"#utility.yul\":5519:5581   */\n      mstore\n      shl(0xe2, 0x1c9858dd)\n        /* \"#utility.yul\":5612:5615   */\n      0x80\n        /* \"#utility.yul\":5597:5616   */\n      dup3\n      add\n        /* \"#utility.yul\":5590:5625   */\n      mstore\n        /* \"#utility.yul\":5657:5660   */\n      0xa0\n        /* \"#utility.yul\":5642:5661   */\n      add\n      swap1\n        /* \"#utility.yul\":5195:5667   */\n      jump\t// out\n        /* \"#utility.yul\":6033:6160   */\n    tag_143:\n        /* \"#utility.yul\":6094:6104   */\n      0x4e487b71\n        /* \"#utility.yul\":6089:6092   */\n      0xe0\n        /* \"#utility.yul\":6085:6105   */\n      shl\n        /* \"#utility.yul\":6082:6083   */\n      0x00\n        /* \"#utility.yul\":6075:6106   */\n      mstore\n        /* \"#utility.yul\":6125:6129   */\n      0x32\n        /* \"#utility.yul\":6122:6123   */\n      0x04\n        /* \"#utility.yul\":6115:6130   */\n      mstore\n        /* \"#utility.yul\":6149:6153   */\n      0x24\n        /* \"#utility.yul\":6146:6147   */\n      0x00\n        /* \"#utility.yul\":6139:6154   */\n      revert\n        /* \"#utility.yul\":6444:6571   */\n    tag_317:\n        /* \"#utility.yul\":6505:6515   */\n      0x4e487b71\n        /* \"#utility.yul\":6500:6503   */\n      0xe0\n        /* \"#utility.yul\":6496:6516   */\n      shl\n        /* \"#utility.yul\":6493:6494   */\n      0x00\n        /* \"#utility.yul\":6486:6517   */\n      mstore\n        /* \"#utility.yul\":6536:6540   */\n      0x11\n        /* \"#utility.yul\":6533:6534   */\n      0x04\n        /* \"#utility.yul\":6526:6541   */\n      mstore\n        /* \"#utility.yul\":6560:6564   */\n      0x24\n        /* \"#utility.yul\":6557:6558   */\n      0x00\n        /* \"#utility.yul\":6550:6565   */\n      revert\n        /* \"#utility.yul\":6576:6711   */\n    tag_151:\n        /* \"#utility.yul\":6615:6618   */\n      0x00\n        /* \"#utility.yul\":6636:6653   */\n      0x01\n      dup3\n      add\n        /* \"#utility.yul\":6633:6676   */\n      tag_360\n      jumpi\n        /* \"#utility.yul\":6656:6674   */\n      tag_360\n      tag_317\n      jump\t// in\n    tag_360:\n      pop\n        /* \"#utility.yul\":6703:6704   */\n      0x01\n        /* \"#utility.yul\":6692:6705   */\n      add\n      swap1\n        /* \"#utility.yul\":6576:6711   */\n      jump\t// out\n        /* \"#utility.yul\":8207:8335   */\n    tag_223:\n        /* \"#utility.yul\":8274:8283   */\n      dup2\n      dup2\n      sub\n        /* \"#utility.yul\":8295:8306   */\n      dup2\n      dup2\n      gt\n        /* \"#utility.yul\":8292:8329   */\n      iszero\n      tag_302\n      jumpi\n        /* \"#utility.yul\":8309:8327   */\n      tag_302\n      tag_317\n      jump\t// in\n        /* \"#utility.yul\":8340:8467   */\n    tag_232:\n        /* \"#utility.yul\":8401:8411   */\n      0x4e487b71\n        /* \"#utility.yul\":8396:8399   */\n      0xe0\n        /* \"#utility.yul\":8392:8412   */\n      shl\n        /* \"#utility.yul\":8389:8390   */\n      0x00\n        /* \"#utility.yul\":8382:8413   */\n      mstore\n        /* \"#utility.yul\":8432:8436   */\n      0x31\n        /* \"#utility.yul\":8429:8430   */\n      0x04\n        /* \"#utility.yul\":8422:8437   */\n      mstore\n        /* \"#utility.yul\":8456:8460   */\n      0x24\n        /* \"#utility.yul\":8453:8454   */\n      0x00\n        /* \"#utility.yul\":8446:8461   */\n      revert\n\n    auxdata: 0xa26469706673582212203865869d8a353e8d5d5fe35303f5f11d2af122d09457b9bbb51e9bd3d5b8e03264736f6c63430008140033\n}\n",
				"bytecode": {
					"linkReferences": {},
					"object": "608060405234801561000f575f80fd5b5061150b8061001d5f395ff3fe608060405234801561000f575f80fd5b50600436106100fb575f3560e01c80638da5cb5b11610093578063e1c7392a11610063578063e1c7392a1461020f578063e46638e614610217578063efb22d331461022a578063f2fde38b1461023d575f80fd5b80638da5cb5b146101a4578063a0632461146101ac578063a446d49f146101bf578063b2494df3146101fa575f80fd5b80636a3edf28116100ce5780636a3edf281461014d578063715018a6146101765780638baf29b41461017e5780638d2ea77214610191575f80fd5b80631ed86f19146100ff5780633ff5aa021461011457806340db3b50146101275780635f8dead31461013a575b5f80fd5b61011261010d36600461126e565b610250565b005b61011261012236600461126e565b610550565b61011261013536600461126e565b61064f565b610112610148366004611287565b61078b565b5f546001600160a01b03165b6040516001600160a01b0390911681526020015b60405180910390f35b6101126108cb565b61011261018c3660046112af565b6108de565b61011261019f366004611287565b610a49565b610159610b83565b6101126101ba36600461126e565b610bb1565b6101ea6101cd36600461126e565b6001600160a01b03165f9081526002602052604090205460ff1690565b604051901515815260200161016d565b610202610dda565b60405161016d91906112e8565b610112610e3a565b6101ea6102253660046112af565b610f46565b610112610238366004611334565b61101e565b61011261024b36600461126e565b6110ff565b61025861113c565b6001600160a01b0381166102875760405162461bcd60e51b815260040161027e906113ae565b60405180910390fd5b6001600160a01b0381165f9081526002602052604090205460ff16156102e65760405162461bcd60e51b81526020600482015260146024820152731b5bd91d5b1948185b1c9958591e48189bdd5b9960621b604482015260640161027e565b600154601810156103395760405162461bcd60e51b815260206004820152601f60248201527f63616e6e6f7420616464206d6f7265207468616e203235206d6f64756c657300604482015260640161027e565b5f819050806001600160a01b031663e6f5e8076040518163ffffffff1660e01b8152600401602060405180830381865afa158015610379573d5f803e3d5ffd5b505050506040513d601f19601f8201168201806040525081019061039d91906113e5565b6104705760405163bcc2105360e01b81523060048201526001600160a01b0382169063bcc2105390602401602060405180830381865afa1580156103e3573d5f803e3d5ffd5b505050506040513d601f19601f8201168201806040525081019061040791906113e5565b6104705760405162461bcd60e51b815260206004820152603460248201527f636f6d706c69616e6365206973206e6f74207375697461626c6520666f722062604482015273696e64696e6720746f20746865206d6f64756c6560601b606482015260840161027e565b6040516312a4c95160e21b81523060048201526001600160a01b03821690634a932544906024015f604051808303815f87803b1580156104ae575f80fd5b505af11580156104c0573d5f803e3d5ffd5b50506001805480820182557fb10e2d527612073b26eecdfd717e6a320cf44b4afac2b0732d9fcbe2b7fa0cf60180546001600160a01b0319166001600160a01b0387169081179091555f81815260026020526040808220805460ff191690941790935591519093507fead6a006345da1073a106d5f32372d2d2204f46cb0b4bca8f5ebafcbbed12b8a9250a25050565b33610559610b83565b6001600160a01b0316148061058957505f546001600160a01b03161580156105895750336001600160a01b038216145b6105d55760405162461bcd60e51b815260206004820152601c60248201527f6f6e6c79206f776e6572206f7220746f6b656e2063616e2063616c6c00000000604482015260640161027e565b6001600160a01b0381166105fb5760405162461bcd60e51b815260040161027e906113ae565b5f80546001600160a01b0319166001600160a01b0383169081179091556040519081527f2de35142b19ed5a07796cf30791959c592018f70b1d2d7c460eef8ffe713692b906020015b60405180910390a150565b33610658610b83565b6001600160a01b031614806106755750336001600160a01b038216145b6106c15760405162461bcd60e51b815260206004820152601c60248201527f6f6e6c79206f776e6572206f7220746f6b656e2063616e2063616c6c00000000604482015260640161027e565b5f546001600160a01b0382811691161461071d5760405162461bcd60e51b815260206004820152601760248201527f5468697320746f6b656e206973206e6f7420626f756e64000000000000000000604482015260640161027e565b6001600160a01b0381166107435760405162461bcd60e51b815260040161027e906113ae565b5f80546001600160a01b03191690556040516001600160a01b03821681527f28a4ca7134a3b3f9aff286e79ad3daadb4a06d1b43d037a3a98bdc074edd9b7a90602001610644565b5f546001600160a01b031633146107b45760405162461bcd60e51b815260040161027e90611404565b6001600160a01b0382166107da5760405162461bcd60e51b815260040161027e906113ae565b5f81116108295760405162461bcd60e51b815260206004820181905260248201527f696e76616c696420617267756d656e74202d206e6f2076616c7565206d696e74604482015260640161027e565b6001545f5b818110156108c557600181815481106108495761084961146e565b5f9182526020909120015460405163f104a8c960e01b81526001600160a01b038681166004830152602482018690529091169063f104a8c9906044015f604051808303815f87803b15801561089c575f80fd5b505af11580156108ae573d5f803e3d5ffd5b5050505080806108bd90611496565b91505061082e565b50505050565b6108d361113c565b6108dc5f61116e565b565b5f546001600160a01b031633146109075760405162461bcd60e51b815260040161027e90611404565b6001600160a01b0383161580159061092757506001600160a01b03821615155b6109435760405162461bcd60e51b815260040161027e906113ae565b5f811161099e5760405162461bcd60e51b8152602060048201526024808201527f696e76616c696420617267756d656e74202d206e6f2076616c7565207472616e60448201526339b332b960e11b606482015260840161027e565b6001545f5b81811015610a4257600181815481106109be576109be61146e565b5f91825260209091200154604051630b2df87b60e21b81526001600160a01b03878116600483015286811660248301526044820186905290911690632cb7e1ec906064015f604051808303815f87803b158015610a19575f80fd5b505af1158015610a2b573d5f803e3d5ffd5b505050508080610a3a90611496565b9150506109a3565b5050505050565b5f546001600160a01b03163314610a725760405162461bcd60e51b815260040161027e90611404565b6001600160a01b038216610a985760405162461bcd60e51b815260040161027e906113ae565b5f8111610ae75760405162461bcd60e51b815260206004820181905260248201527f696e76616c696420617267756d656e74202d206e6f2076616c7565206275726e604482015260640161027e565b6001545f5b818110156108c55760018181548110610b0757610b0761146e565b5f91825260209091200154604051631b9248d160e11b81526001600160a01b038681166004830152602482018690529091169063372491a2906044015f604051808303815f87803b158015610b5a575f80fd5b505af1158015610b6c573d5f803e3d5ffd5b505050508080610b7b90611496565b915050610aec565b7f9016d09d72d40fdae2fd8ceac6b6234c7706214fd39c1cd1e609a0528c199300546001600160a01b031690565b610bb961113c565b6001600160a01b038116610bdf5760405162461bcd60e51b815260040161027e906113ae565b6001600160a01b0381165f9081526002602052604090205460ff16610c395760405162461bcd60e51b815260206004820152601060248201526f1b5bd91d5b19481b9bdd08189bdd5b9960821b604482015260640161027e565b6001545f5b81811015610dd557826001600160a01b031660018281548110610c6357610c6361146e565b5f918252602090912001546001600160a01b031603610dc357604051630694a5fb60e01b81523060048201526001600160a01b03841690630694a5fb906024015f604051808303815f87803b158015610cba575f80fd5b505af1158015610ccc573d5f803e3d5ffd5b5050505060018083610cde91906114ae565b81548110610cee57610cee61146e565b5f91825260209091200154600180546001600160a01b039092169183908110610d1957610d1961146e565b905f5260205f20015f6101000a8154816001600160a01b0302191690836001600160a01b031602179055506001805480610d5557610d556114c1565b5f828152602080822083015f1990810180546001600160a01b03191690559092019092556001600160a01b03851680835260029091526040808320805460ff191690555190917f0a1ee69f55c33d8467c69ca59ce2007a737a88603d75392972520bf67cb513b891a2505050565b80610dcd81611496565b915050610c3e565b505050565b60606001805480602002602001604051908101604052809291908181526020018280548015610e3057602002820191905f5260205f20905b81546001600160a01b03168152600190910190602001808311610e12575b5050505050905090565b7ff0c57e16840df040f15088dc2f81fe391c3923bec73e23a9662efc9c229c6a008054600160401b810460ff16159067ffffffffffffffff165f81158015610e7f5750825b90505f8267ffffffffffffffff166001148015610e9b5750303b155b905081158015610ea9575080155b15610ec75760405163f92ee8a960e01b815260040160405180910390fd5b845467ffffffffffffffff191660011785558315610ef157845460ff60401b1916600160401b1785555b610efa336111de565b8315610a4257845460ff60401b19168555604051600181527fc7f505b2f371ae2175ee4913f4499e1f2633a7b5936321eed1cdaeb6115181d29060200160405180910390a15050505050565b6001545f90815b818110156110105760018181548110610f6857610f6861146e565b5f91825260209091200154604051624edf3960e21b81526001600160a01b0388811660048301528781166024830152604482018790523060648301529091169063013b7ce490608401602060405180830381865afa158015610fcc573d5f803e3d5ffd5b505050506040513d601f19601f82011682018060405250810190610ff091906113e5565b610ffe575f92505050611017565b8061100881611496565b915050610f4d565b5060019150505b9392505050565b61102661113c565b6001600160a01b0381165f9081526002602052604090205460ff1661108d5760405162461bcd60e51b815260206004820152601960248201527f63616c6c206f6e6c79206f6e20626f756e64206d6f64756c6500000000000000604482015260640161027e565b604051828482375f8084835f865af16110a8573d5f803e3d5ffd5b50806001600160a01b03167f20d79de70adcc6e9353d8a9a5646b46dc352710d0a310b1ad1f67faeca7ef8916110de85856111ef565b6040516001600160e01b0319909116815260200160405180910390a2505050565b61110761113c565b6001600160a01b03811661113057604051631e4fbdf760e01b81525f600482015260240161027e565b6111398161116e565b50565b33611145610b83565b6001600160a01b0316146108dc5760405163118cdaa760e01b815233600482015260240161027e565b7f9016d09d72d40fdae2fd8ceac6b6234c7706214fd39c1cd1e609a0528c19930080546001600160a01b031981166001600160a01b03848116918217845560405192169182907f8be0079c531659141344cd1fd0a4f28419497f9722a3daafe3b4186f6b6457e0905f90a3505050565b6111e6611202565b6111398161124b565b5f600482106111fc575081355b92915050565b7ff0c57e16840df040f15088dc2f81fe391c3923bec73e23a9662efc9c229c6a0054600160401b900460ff166108dc57604051631afcd79f60e31b815260040160405180910390fd5b611107611202565b80356001600160a01b0381168114611269575f80fd5b919050565b5f6020828403121561127e575f80fd5b61101782611253565b5f8060408385031215611298575f80fd5b6112a183611253565b946020939093013593505050565b5f805f606084860312156112c1575f80fd5b6112ca84611253565b92506112d860208501611253565b9150604084013590509250925092565b602080825282518282018190525f9190848201906040850190845b818110156113285783516001600160a01b031683529284019291840191600101611303565b50909695505050505050565b5f805f60408486031215611346575f80fd5b833567ffffffffffffffff8082111561135d575f80fd5b818601915086601f830112611370575f80fd5b81358181111561137e575f80fd5b87602082850101111561138f575f80fd5b6020928301955093506113a59186019050611253565b90509250925092565b6020808252601f908201527f696e76616c696420617267756d656e74202d207a65726f206164647265737300604082015260600190565b5f602082840312156113f5575f80fd5b81518015158114611017575f80fd5b60208082526044908201527f6572726f72203a20746869732061646472657373206973206e6f74206120746f60408201527f6b656e20626f756e6420746f2074686520636f6d706c69616e636520636f6e746060820152631c9858dd60e21b608082015260a00190565b634e487b7160e01b5f52603260045260245ffd5b634e487b7160e01b5f52601160045260245ffd5b5f600182016114a7576114a7611482565b5060010190565b818103818111156111fc576111fc611482565b634e487b7160e01b5f52603160045260245ffdfea26469706673582212203865869d8a353e8d5d5fe35303f5f11d2af122d09457b9bbb51e9bd3d5b8e03264736f6c63430008140033",
					"opcodes": "PUSH1 0x80 PUSH1 0x40 MSTORE CALLVALUE DUP1 ISZERO PUSH2 0xF JUMPI PUSH0 DUP1 REVERT JUMPDEST POP PUSH2 0x150B DUP1 PUSH2 0x1D PUSH0 CODECOPY PUSH0 RETURN INVALID PUSH1 0x80 PUSH1 0x40 MSTORE CALLVALUE DUP1 ISZERO PUSH2 0xF JUMPI PUSH0 DUP1 REVERT JUMPDEST POP PUSH1 0x4 CALLDATASIZE LT PUSH2 0xFB JUMPI PUSH0 CALLDATALOAD PUSH1 0xE0 SHR DUP1 PUSH4 0x8DA5CB5B GT PUSH2 0x93 JUMPI DUP1 PUSH4 0xE1C7392A GT PUSH2 0x63 JUMPI DUP1 PUSH4 0xE1C7392A EQ PUSH2 0x20F JUMPI DUP1 PUSH4 0xE46638E6 EQ PUSH2 0x217 JUMPI DUP1 PUSH4 0xEFB22D33 EQ PUSH2 0x22A JUMPI DUP1 PUSH4 0xF2FDE38B EQ PUSH2 0x23D JUMPI PUSH0 DUP1 REVERT JUMPDEST DUP1 PUSH4 0x8DA5CB5B EQ PUSH2 0x1A4 JUMPI DUP1 PUSH4 0xA0632461 EQ PUSH2 0x1AC JUMPI DUP1 PUSH4 0xA446D49F EQ PUSH2 0x1BF JUMPI DUP1 PUSH4 0xB2494DF3 EQ PUSH2 0x1FA JUMPI PUSH0 DUP1 REVERT JUMPDEST DUP1 PUSH4 0x6A3EDF28 GT PUSH2 0xCE JUMPI DUP1 PUSH4 0x6A3EDF28 EQ PUSH2 0x14D JUMPI DUP1 PUSH4 0x715018A6 EQ PUSH2 0x176 JUMPI DUP1 PUSH4 0x8BAF29B4 EQ PUSH2 0x17E JUMPI DUP1 PUSH4 0x8D2EA772 EQ PUSH2 0x191 JUMPI PUSH0 DUP1 REVERT JUMPDEST DUP1 PUSH4 0x1ED86F19 EQ PUSH2 0xFF JUMPI DUP1 PUSH4 0x3FF5AA02 EQ PUSH2 0x114 JUMPI DUP1 PUSH4 0x40DB3B50 EQ PUSH2 0x127 JUMPI DUP1 PUSH4 0x5F8DEAD3 EQ PUSH2 0x13A JUMPI JUMPDEST PUSH0 DUP1 REVERT JUMPDEST PUSH2 0x112 PUSH2 0x10D CALLDATASIZE PUSH1 0x4 PUSH2 0x126E JUMP JUMPDEST PUSH2 0x250 JUMP JUMPDEST STOP JUMPDEST PUSH2 0x112 PUSH2 0x122 CALLDATASIZE PUSH1 0x4 PUSH2 0x126E JUMP JUMPDEST PUSH2 0x550 JUMP JUMPDEST PUSH2 0x112 PUSH2 0x135 CALLDATASIZE PUSH1 0x4 PUSH2 0x126E JUMP JUMPDEST PUSH2 0x64F JUMP JUMPDEST PUSH2 0x112 PUSH2 0x148 CALLDATASIZE PUSH1 0x4 PUSH2 0x1287 JUMP JUMPDEST PUSH2 0x78B JUMP JUMPDEST PUSH0 SLOAD PUSH1 0x1 PUSH1 0x1 PUSH1 0xA0 SHL SUB AND JUMPDEST PUSH1 0x40 MLOAD PUSH1 0x1 PUSH1 0x1 PUSH1 0xA0 SHL SUB SWAP1 SWAP2 AND DUP2 MSTORE PUSH1 0x20 ADD JUMPDEST PUSH1 0x40 MLOAD DUP1 SWAP2 SUB SWAP1 RETURN JUMPDEST PUSH2 0x112 PUSH2 0x8CB JUMP JUMPDEST PUSH2 0x112 PUSH2 0x18C CALLDATASIZE PUSH1 0x4 PUSH2 0x12AF JUMP JUMPDEST PUSH2 0x8DE JUMP JUMPDEST PUSH2 0x112 PUSH2 0x19F CALLDATASIZE PUSH1 0x4 PUSH2 0x1287 JUMP JUMPDEST PUSH2 0xA49 JUMP JUMPDEST PUSH2 0x159 PUSH2 0xB83 JUMP JUMPDEST PUSH2 0x112 PUSH2 0x1BA CALLDATASIZE PUSH1 0x4 PUSH2 0x126E JUMP JUMPDEST PUSH2 0xBB1 JUMP JUMPDEST PUSH2 0x1EA PUSH2 0x1CD CALLDATASIZE PUSH1 0x4 PUSH2 0x126E JUMP JUMPDEST PUSH1 0x1 PUSH1 0x1 PUSH1 0xA0 SHL SUB AND PUSH0 SWAP1 DUP2 MSTORE PUSH1 0x2 PUSH1 0x20 MSTORE PUSH1 0x40 SWAP1 KECCAK256 SLOAD PUSH1 0xFF AND SWAP1 JUMP JUMPDEST PUSH1 0x40 MLOAD SWAP1 ISZERO ISZERO DUP2 MSTORE PUSH1 0x20 ADD PUSH2 0x16D JUMP JUMPDEST PUSH2 0x202 PUSH2 0xDDA JUMP JUMPDEST PUSH1 0x40 MLOAD PUSH2 0x16D SWAP2 SWAP1 PUSH2 0x12E8 JUMP JUMPDEST PUSH2 0x112 PUSH2 0xE3A JUMP JUMPDEST PUSH2 0x1EA PUSH2 0x225 CALLDATASIZE PUSH1 0x4 PUSH2 0x12AF JUMP JUMPDEST PUSH2 0xF46 JUMP JUMPDEST PUSH2 0x112 PUSH2 0x238 CALLDATASIZE PUSH1 0x4 PUSH2 0x1334 JUMP JUMPDEST PUSH2 0x101E JUMP JUMPDEST PUSH2 0x112 PUSH2 0x24B CALLDATASIZE PUSH1 0x4 PUSH2 0x126E JUMP JUMPDEST PUSH2 0x10FF JUMP JUMPDEST PUSH2 0x258 PUSH2 0x113C JUMP JUMPDEST PUSH1 0x1 PUSH1 0x1 PUSH1 0xA0 SHL SUB DUP2 AND PUSH2 0x287 JUMPI PUSH1 0x40 MLOAD PUSH3 0x461BCD PUSH1 0xE5 SHL DUP2 MSTORE PUSH1 0x4 ADD PUSH2 0x27E SWAP1 PUSH2 0x13AE JUMP JUMPDEST PUSH1 0x40 MLOAD DUP1 SWAP2 SUB SWAP1 REVERT JUMPDEST PUSH1 0x1 PUSH1 0x1 PUSH1 0xA0 SHL SUB DUP2 AND PUSH0 SWAP1 DUP2 MSTORE PUSH1 0x2 PUSH1 0x20 MSTORE PUSH1 0x40 SWAP1 KECCAK256 SLOAD PUSH1 0xFF AND ISZERO PUSH2 0x2E6 JUMPI PUSH1 0x40 MLOAD PUSH3 0x461BCD PUSH1 0xE5 SHL DUP2 MSTORE PUSH1 0x20 PUSH1 0x4 DUP3 ADD MSTORE PUSH1 0x14 PUSH1 0x24 DUP3 ADD MSTORE PUSH20 0x1B5BD91D5B1948185B1C9958591E48189BDD5B99 PUSH1 0x62 SHL PUSH1 0x44 DUP3 ADD MSTORE PUSH1 0x64 ADD PUSH2 0x27E JUMP JUMPDEST PUSH1 0x1 SLOAD PUSH1 0x18 LT ISZERO PUSH2 0x339 JUMPI PUSH1 0x40 MLOAD PUSH3 0x461BCD PUSH1 0xE5 SHL DUP2 MSTORE PUSH1 0x20 PUSH1 0x4 DUP3 ADD MSTORE PUSH1 0x1F PUSH1 0x24 DUP3 ADD MSTORE PUSH32 0x63616E6E6F7420616464206D6F7265207468616E203235206D6F64756C657300 PUSH1 0x44 DUP3 ADD MSTORE PUSH1 0x64 ADD PUSH2 0x27E JUMP JUMPDEST PUSH0 DUP2 SWAP1 POP DUP1 PUSH1 0x1 PUSH1 0x1 PUSH1 0xA0 SHL SUB AND PUSH4 0xE6F5E807 PUSH1 0x40 MLOAD DUP2 PUSH4 0xFFFFFFFF AND PUSH1 0xE0 SHL DUP2 MSTORE PUSH1 0x4 ADD PUSH1 0x20 PUSH1 0x40 MLOAD DUP1 DUP4 SUB DUP2 DUP7 GAS STATICCALL ISZERO DUP1 ISZERO PUSH2 0x379 JUMPI RETURNDATASIZE PUSH0 DUP1 RETURNDATACOPY RETURNDATASIZE PUSH0 REVERT JUMPDEST POP POP POP POP PUSH1 0x40 MLOAD RETURNDATASIZE PUSH1 0x1F NOT PUSH1 0x1F DUP3 ADD AND DUP3 ADD DUP1 PUSH1 0x40 MSTORE POP DUP2 ADD SWAP1 PUSH2 0x39D SWAP2 SWAP1 PUSH2 0x13E5 JUMP JUMPDEST PUSH2 0x470 JUMPI PUSH1 0x40 MLOAD PUSH4 0xBCC21053 PUSH1 0xE0 SHL DUP2 MSTORE ADDRESS PUSH1 0x4 DUP3 ADD MSTORE PUSH1 0x1 PUSH1 0x1 PUSH1 0xA0 SHL SUB DUP3 AND SWAP1 PUSH4 0xBCC21053 SWAP1 PUSH1 0x24 ADD PUSH1 0x20 PUSH1 0x40 MLOAD DUP1 DUP4 SUB DUP2 DUP7 GAS STATICCALL ISZERO DUP1 ISZERO PUSH2 0x3E3 JUMPI RETURNDATASIZE PUSH0 DUP1 RETURNDATACOPY RETURNDATASIZE PUSH0 REVERT JUMPDEST POP POP POP POP PUSH1 0x40 MLOAD RETURNDATASIZE PUSH1 0x1F NOT PUSH1 0x1F DUP3 ADD AND DUP3 ADD DUP1 PUSH1 0x40 MSTORE POP DUP2 ADD SWAP1 PUSH2 0x407 SWAP2 SWAP1 PUSH2 0x13E5 JUMP JUMPDEST PUSH2 0x470 JUMPI PUSH1 0x40 MLOAD PUSH3 0x461BCD PUSH1 0xE5 SHL DUP2 MSTORE PUSH1 0x20 PUSH1 0x4 DUP3 ADD MSTORE PUSH1 0x34 PUSH1 0x24 DUP3 ADD MSTORE PUSH32 0x636F6D706C69616E6365206973206E6F74207375697461626C6520666F722062 PUSH1 0x44 DUP3 ADD MSTORE PUSH20 0x696E64696E6720746F20746865206D6F64756C65 PUSH1 0x60 SHL PUSH1 0x64 DUP3 ADD MSTORE PUSH1 0x84 ADD PUSH2 0x27E JUMP JUMPDEST PUSH1 0x40 MLOAD PUSH4 0x12A4C951 PUSH1 0xE2 SHL DUP2 MSTORE ADDRESS PUSH1 0x4 DUP3 ADD MSTORE PUSH1 0x1 PUSH1 0x1 PUSH1 0xA0 SHL SUB DUP3 AND SWAP1 PUSH4 0x4A932544 SWAP1 PUSH1 0x24 ADD PUSH0 PUSH1 0x40 MLOAD DUP1 DUP4 SUB DUP2 PUSH0 DUP8 DUP1 EXTCODESIZE ISZERO DUP1 ISZERO PUSH2 0x4AE JUMPI PUSH0 DUP1 REVERT JUMPDEST POP GAS CALL ISZERO DUP1 ISZERO PUSH2 0x4C0 JUMPI RETURNDATASIZE PUSH0 DUP1 RETURNDATACOPY RETURNDATASIZE PUSH0 REVERT JUMPDEST POP POP PUSH1 0x1 DUP1 SLOAD DUP1 DUP3 ADD DUP3 SSTORE PUSH32 0xB10E2D527612073B26EECDFD717E6A320CF44B4AFAC2B0732D9FCBE2B7FA0CF6 ADD DUP1 SLOAD PUSH1 0x1 PUSH1 0x1 PUSH1 0xA0 SHL SUB NOT AND PUSH1 0x1 PUSH1 0x1 PUSH1 0xA0 SHL SUB DUP8 AND SWAP1 DUP2 OR SWAP1 SWAP2 SSTORE PUSH0 DUP2 DUP2 MSTORE PUSH1 0x2 PUSH1 0x20 MSTORE PUSH1 0x40 DUP1 DUP3 KECCAK256 DUP1 SLOAD PUSH1 0xFF NOT AND SWAP1 SWAP5 OR SWAP1 SWAP4 SSTORE SWAP2 MLOAD SWAP1 SWAP4 POP PUSH32 0xEAD6A006345DA1073A106D5F32372D2D2204F46CB0B4BCA8F5EBAFCBBED12B8A SWAP3 POP LOG2 POP POP JUMP JUMPDEST CALLER PUSH2 0x559 PUSH2 0xB83 JUMP JUMPDEST PUSH1 0x1 PUSH1 0x1 PUSH1 0xA0 SHL SUB AND EQ DUP1 PUSH2 0x589 JUMPI POP PUSH0 SLOAD PUSH1 0x1 PUSH1 0x1 PUSH1 0xA0 SHL SUB AND ISZERO DUP1 ISZERO PUSH2 0x589 JUMPI POP CALLER PUSH1 0x1 PUSH1 0x1 PUSH1 0xA0 SHL SUB DUP3 AND EQ JUMPDEST PUSH2 0x5D5 JUMPI PUSH1 0x40 MLOAD PUSH3 0x461BCD PUSH1 0xE5 SHL DUP2 MSTORE PUSH1 0x20 PUSH1 0x4 DUP3 ADD MSTORE PUSH1 0x1C PUSH1 0x24 DUP3 ADD MSTORE PUSH32 0x6F6E6C79206F776E6572206F7220746F6B656E2063616E2063616C6C00000000 PUSH1 0x44 DUP3 ADD MSTORE PUSH1 0x64 ADD PUSH2 0x27E JUMP JUMPDEST PUSH1 0x1 PUSH1 0x1 PUSH1 0xA0 SHL SUB DUP2 AND PUSH2 0x5FB JUMPI PUSH1 0x40 MLOAD PUSH3 0x461BCD PUSH1 0xE5 SHL DUP2 MSTORE PUSH1 0x4 ADD PUSH2 0x27E SWAP1 PUSH2 0x13AE JUMP JUMPDEST PUSH0 DUP1 SLOAD PUSH1 0x1 PUSH1 0x1 PUSH1 0xA0 SHL SUB NOT AND PUSH1 0x1 PUSH1 0x1 PUSH1 0xA0 SHL SUB DUP4 AND SWAP1 DUP2 OR SWAP1 SWAP2 SSTORE PUSH1 0x40 MLOAD SWAP1 DUP2 MSTORE PUSH32 0x2DE35142B19ED5A07796CF30791959C592018F70B1D2D7C460EEF8FFE713692B SWAP1 PUSH1 0x20 ADD JUMPDEST PUSH1 0x40 MLOAD DUP1 SWAP2 SUB SWAP1 LOG1 POP JUMP JUMPDEST CALLER PUSH2 0x658 PUSH2 0xB83 JUMP JUMPDEST PUSH1 0x1 PUSH1 0x1 PUSH1 0xA0 SHL SUB AND EQ DUP1 PUSH2 0x675 JUMPI POP CALLER PUSH1 0x1 PUSH1 0x1 PUSH1 0xA0 SHL SUB DUP3 AND EQ JUMPDEST PUSH2 0x6C1 JUMPI PUSH1 0x40 MLOAD PUSH3 0x461BCD PUSH1 0xE5 SHL DUP2 MSTORE PUSH1 0x20 PUSH1 0x4 DUP3 ADD MSTORE PUSH1 0x1C PUSH1 0x24 DUP3 ADD MSTORE PUSH32 0x6F6E6C79206F776E6572206F7220746F6B656E2063616E2063616C6C00000000 PUSH1 0x44 DUP3 ADD MSTORE PUSH1 0x64 ADD PUSH2 0x27E JUMP JUMPDEST PUSH0 SLOAD PUSH1 0x1 PUSH1 0x1 PUSH1 0xA0 SHL SUB DUP3 DUP2 AND SWAP2 AND EQ PUSH2 0x71D JUMPI PUSH1 0x40 MLOAD PUSH3 0x461BCD PUSH1 0xE5 SHL DUP2 MSTORE PUSH1 0x20 PUSH1 0x4 DUP3 ADD MSTORE PUSH1 0x17 PUSH1 0x24 DUP3 ADD MSTORE PUSH32 0x5468697320746F6B656E206973206E6F7420626F756E64000000000000000000 PUSH1 0x44 DUP3 ADD MSTORE PUSH1 0x64 ADD PUSH2 0x27E JUMP JUMPDEST PUSH1 0x1 PUSH1 0x1 PUSH1 0xA0 SHL SUB DUP2 AND PUSH2 0x743 JUMPI PUSH1 0x40 MLOAD PUSH3 0x461BCD PUSH1 0xE5 SHL DUP2 MSTORE PUSH1 0x4 ADD PUSH2 0x27E SWAP1 PUSH2 0x13AE JUMP JUMPDEST PUSH0 DUP1 SLOAD PUSH1 0x1 PUSH1 0x1 PUSH1 0xA0 SHL SUB NOT AND SWAP1 SSTORE PUSH1 0x40 MLOAD PUSH1 0x1 PUSH1 0x1 PUSH1 0xA0 SHL SUB DUP3 AND DUP2 MSTORE PUSH32 0x28A4CA7134A3B3F9AFF286E79AD3DAADB4A06D1B43D037A3A98BDC074EDD9B7A SWAP1 PUSH1 0x20 ADD PUSH2 0x644 JUMP JUMPDEST PUSH0 SLOAD PUSH1 0x1 PUSH1 0x1 PUSH1 0xA0 SHL SUB AND CALLER EQ PUSH2 0x7B4 JUMPI PUSH1 0x40 MLOAD PUSH3 0x461BCD PUSH1 0xE5 SHL DUP2 MSTORE PUSH1 0x4 ADD PUSH2 0x27E SWAP1 PUSH2 0x1404 JUMP JUMPDEST PUSH1 0x1 PUSH1 0x1 PUSH1 0xA0 SHL SUB DUP3 AND PUSH2 0x7DA JUMPI PUSH1 0x40 MLOAD PUSH3 0x461BCD PUSH1 0xE5 SHL DUP2 MSTORE PUSH1 0x4 ADD PUSH2 0x27E SWAP1 PUSH2 0x13AE JUMP JUMPDEST PUSH0 DUP2 GT PUSH2 0x829 JUMPI PUSH1 0x40 MLOAD PUSH3 0x461BCD PUSH1 0xE5 SHL DUP2 MSTORE PUSH1 0x20 PUSH1 0x4 DUP3 ADD DUP2 SWAP1 MSTORE PUSH1 0x24 DUP3 ADD MSTORE PUSH32 0x696E76616C696420617267756D656E74202D206E6F2076616C7565206D696E74 PUSH1 0x44 DUP3 ADD MSTORE PUSH1 0x64 ADD PUSH2 0x27E JUMP JUMPDEST PUSH1 0x1 SLOAD PUSH0 JUMPDEST DUP2 DUP2 LT ISZERO PUSH2 0x8C5 JUMPI PUSH1 0x1 DUP2 DUP2 SLOAD DUP2 LT PUSH2 0x849 JUMPI PUSH2 0x849 PUSH2 0x146E JUMP JUMPDEST PUSH0 SWAP2 DUP3 MSTORE PUSH1 0x20 SWAP1 SWAP2 KECCAK256 ADD SLOAD PUSH1 0x40 MLOAD PUSH4 0xF104A8C9 PUSH1 0xE0 SHL DUP2 MSTORE PUSH1 0x1 PUSH1 0x1 PUSH1 0xA0 SHL SUB DUP7 DUP2 AND PUSH1 0x4 DUP4 ADD MSTORE PUSH1 0x24 DUP3 ADD DUP7 SWAP1 MSTORE SWAP1 SWAP2 AND SWAP1 PUSH4 0xF104A8C9 SWAP1 PUSH1 0x44 ADD PUSH0 PUSH1 0x40 MLOAD DUP1 DUP4 SUB DUP2 PUSH0 DUP8 DUP1 EXTCODESIZE ISZERO DUP1 ISZERO PUSH2 0x89C JUMPI PUSH0 DUP1 REVERT JUMPDEST POP GAS CALL ISZERO DUP1 ISZERO PUSH2 0x8AE JUMPI RETURNDATASIZE PUSH0 DUP1 RETURNDATACOPY RETURNDATASIZE PUSH0 REVERT JUMPDEST POP POP POP POP DUP1 DUP1 PUSH2 0x8BD SWAP1 PUSH2 0x1496 JUMP JUMPDEST SWAP2 POP POP PUSH2 0x82E JUMP JUMPDEST POP POP POP POP JUMP JUMPDEST PUSH2 0x8D3 PUSH2 0x113C JUMP JUMPDEST PUSH2 0x8DC PUSH0 PUSH2 0x116E JUMP JUMPDEST JUMP JUMPDEST PUSH0 SLOAD PUSH1 0x1 PUSH1 0x1 PUSH1 0xA0 SHL SUB AND CALLER EQ PUSH2 0x907 JUMPI PUSH1 0x40 MLOAD PUSH3 0x461BCD PUSH1 0xE5 SHL DUP2 MSTORE PUSH1 0x4 ADD PUSH2 0x27E SWAP1 PUSH2 0x1404 JUMP JUMPDEST PUSH1 0x1 PUSH1 0x1 PUSH1 0xA0 SHL SUB DUP4 AND ISZERO DUP1 ISZERO SWAP1 PUSH2 0x927 JUMPI POP PUSH1 0x1 PUSH1 0x1 PUSH1 0xA0 SHL SUB DUP3 AND ISZERO ISZERO JUMPDEST PUSH2 0x943 JUMPI PUSH1 0x40 MLOAD PUSH3 0x461BCD PUSH1 0xE5 SHL DUP2 MSTORE PUSH1 0x4 ADD PUSH2 0x27E SWAP1 PUSH2 0x13AE JUMP JUMPDEST PUSH0 DUP2 GT PUSH2 0x99E JUMPI PUSH1 0x40 MLOAD PUSH3 0x461BCD PUSH1 0xE5 SHL DUP2 MSTORE PUSH1 0x20 PUSH1 0x4 DUP3 ADD MSTORE PUSH1 0x24 DUP1 DUP3 ADD MSTORE PUSH32 0x696E76616C696420617267756D656E74202D206E6F2076616C7565207472616E PUSH1 0x44 DUP3 ADD MSTORE PUSH4 0x39B332B9 PUSH1 0xE1 SHL PUSH1 0x64 DUP3 ADD MSTORE PUSH1 0x84 ADD PUSH2 0x27E JUMP JUMPDEST PUSH1 0x1 SLOAD PUSH0 JUMPDEST DUP2 DUP2 LT ISZERO PUSH2 0xA42 JUMPI PUSH1 0x1 DUP2 DUP2 SLOAD DUP2 LT PUSH2 0x9BE JUMPI PUSH2 0x9BE PUSH2 0x146E JUMP JUMPDEST PUSH0 SWAP2 DUP3 MSTORE PUSH1 0x20 SWAP1 SWAP2 KECCAK256 ADD SLOAD PUSH1 0x40 MLOAD PUSH4 0xB2DF87B PUSH1 0xE2 SHL DUP2 MSTORE PUSH1 0x1 PUSH1 0x1 PUSH1 0xA0 SHL SUB DUP8 DUP2 AND PUSH1 0x4 DUP4 ADD MSTORE DUP7 DUP2 AND PUSH1 0x24 DUP4 ADD MSTORE PUSH1 0x44 DUP3 ADD DUP7 SWAP1 MSTORE SWAP1 SWAP2 AND SWAP1 PUSH4 0x2CB7E1EC SWAP1 PUSH1 0x64 ADD PUSH0 PUSH1 0x40 MLOAD DUP1 DUP4 SUB DUP2 PUSH0 DUP8 DUP1 EXTCODESIZE ISZERO DUP1 ISZERO PUSH2 0xA19 JUMPI PUSH0 DUP1 REVERT JUMPDEST POP GAS CALL ISZERO DUP1 ISZERO PUSH2 0xA2B JUMPI RETURNDATASIZE PUSH0 DUP1 RETURNDATACOPY RETURNDATASIZE PUSH0 REVERT JUMPDEST POP POP POP POP DUP1 DUP1 PUSH2 0xA3A SWAP1 PUSH2 0x1496 JUMP JUMPDEST SWAP2 POP POP PUSH2 0x9A3 JUMP JUMPDEST POP POP POP POP POP JUMP JUMPDEST PUSH0 SLOAD PUSH1 0x1 PUSH1 0x1 PUSH1 0xA0 SHL SUB AND CALLER EQ PUSH2 0xA72 JUMPI PUSH1 0x40 MLOAD PUSH3 0x461BCD PUSH1 0xE5 SHL DUP2 MSTORE PUSH1 0x4 ADD PUSH2 0x27E SWAP1 PUSH2 0x1404 JUMP JUMPDEST PUSH1 0x1 PUSH1 0x1 PUSH1 0xA0 SHL SUB DUP3 AND PUSH2 0xA98 JUMPI PUSH1 0x40 MLOAD PUSH3 0x461BCD PUSH1 0xE5 SHL DUP2 MSTORE PUSH1 0x4 ADD PUSH2 0x27E SWAP1 PUSH2 0x13AE JUMP JUMPDEST PUSH0 DUP2 GT PUSH2 0xAE7 JUMPI PUSH1 0x40 MLOAD PUSH3 0x461BCD PUSH1 0xE5 SHL DUP2 MSTORE PUSH1 0x20 PUSH1 0x4 DUP3 ADD DUP2 SWAP1 MSTORE PUSH1 0x24 DUP3 ADD MSTORE PUSH32 0x696E76616C696420617267756D656E74202D206E6F2076616C7565206275726E PUSH1 0x44 DUP3 ADD MSTORE PUSH1 0x64 ADD PUSH2 0x27E JUMP JUMPDEST PUSH1 0x1 SLOAD PUSH0 JUMPDEST DUP2 DUP2 LT ISZERO PUSH2 0x8C5 JUMPI PUSH1 0x1 DUP2 DUP2 SLOAD DUP2 LT PUSH2 0xB07 JUMPI PUSH2 0xB07 PUSH2 0x146E JUMP JUMPDEST PUSH0 SWAP2 DUP3 MSTORE PUSH1 0x20 SWAP1 SWAP2 KECCAK256 ADD SLOAD PUSH1 0x40 MLOAD PUSH4 0x1B9248D1 PUSH1 0xE1 SHL DUP2 MSTORE PUSH1 0x1 PUSH1 0x1 PUSH1 0xA0 SHL SUB DUP7 DUP2 AND PUSH1 0x4 DUP4 ADD MSTORE PUSH1 0x24 DUP3 ADD DUP7 SWAP1 MSTORE SWAP1 SWAP2 AND SWAP1 PUSH4 0x372491A2 SWAP1 PUSH1 0x44 ADD PUSH0 PUSH1 0x40 MLOAD DUP1 DUP4 SUB DUP2 PUSH0 DUP8 DUP1 EXTCODESIZE ISZERO DUP1 ISZERO PUSH2 0xB5A JUMPI PUSH0 DUP1 REVERT JUMPDEST POP GAS CALL ISZERO DUP1 ISZERO PUSH2 0xB6C JUMPI RETURNDATASIZE PUSH0 DUP1 RETURNDATACOPY RETURNDATASIZE PUSH0 REVERT JUMPDEST POP POP POP POP DUP1 DUP1 PUSH2 0xB7B SWAP1 PUSH2 0x1496 JUMP JUMPDEST SWAP2 POP POP PUSH2 0xAEC JUMP JUMPDEST PUSH32 0x9016D09D72D40FDAE2FD8CEAC6B6234C7706214FD39C1CD1E609A0528C199300 SLOAD PUSH1 0x1 PUSH1 0x1 PUSH1 0xA0 SHL SUB AND SWAP1 JUMP JUMPDEST PUSH2 0xBB9 PUSH2 0x113C JUMP JUMPDEST PUSH1 0x1 PUSH1 0x1 PUSH1 0xA0 SHL SUB DUP2 AND PUSH2 0xBDF JUMPI PUSH1 0x40 MLOAD PUSH3 0x461BCD PUSH1 0xE5 SHL DUP2 MSTORE PUSH1 0x4 ADD PUSH2 0x27E SWAP1 PUSH2 0x13AE JUMP JUMPDEST PUSH1 0x1 PUSH1 0x1 PUSH1 0xA0 SHL SUB DUP2 AND PUSH0 SWAP1 DUP2 MSTORE PUSH1 0x2 PUSH1 0x20 MSTORE PUSH1 0x40 SWAP1 KECCAK256 SLOAD PUSH1 0xFF AND PUSH2 0xC39 JUMPI PUSH1 0x40 MLOAD PUSH3 0x461BCD PUSH1 0xE5 SHL DUP2 MSTORE PUSH1 0x20 PUSH1 0x4 DUP3 ADD MSTORE PUSH1 0x10 PUSH1 0x24 DUP3 ADD MSTORE PUSH16 0x1B5BD91D5B19481B9BDD08189BDD5B99 PUSH1 0x82 SHL PUSH1 0x44 DUP3 ADD MSTORE PUSH1 0x64 ADD PUSH2 0x27E JUMP JUMPDEST PUSH1 0x1 SLOAD PUSH0 JUMPDEST DUP2 DUP2 LT ISZERO PUSH2 0xDD5 JUMPI DUP3 PUSH1 0x1 PUSH1 0x1 PUSH1 0xA0 SHL SUB AND PUSH1 0x1 DUP3 DUP2 SLOAD DUP2 LT PUSH2 0xC63 JUMPI PUSH2 0xC63 PUSH2 0x146E JUMP JUMPDEST PUSH0 SWAP2 DUP3 MSTORE PUSH1 0x20 SWAP1 SWAP2 KECCAK256 ADD SLOAD PUSH1 0x1 PUSH1 0x1 PUSH1 0xA0 SHL SUB AND SUB PUSH2 0xDC3 JUMPI PUSH1 0x40 MLOAD PUSH4 0x694A5FB PUSH1 0xE0 SHL DUP2 MSTORE ADDRESS PUSH1 0x4 DUP3 ADD MSTORE PUSH1 0x1 PUSH1 0x1 PUSH1 0xA0 SHL SUB DUP5 AND SWAP1 PUSH4 0x694A5FB SWAP1 PUSH1 0x24 ADD PUSH0 PUSH1 0x40 MLOAD DUP1 DUP4 SUB DUP2 PUSH0 DUP8 DUP1 EXTCODESIZE ISZERO DUP1 ISZERO PUSH2 0xCBA JUMPI PUSH0 DUP1 REVERT JUMPDEST POP GAS CALL ISZERO DUP1 ISZERO PUSH2 0xCCC JUMPI RETURNDATASIZE PUSH0 DUP1 RETURNDATACOPY RETURNDATASIZE PUSH0 REVERT JUMPDEST POP POP POP POP PUSH1 0x1 DUP1 DUP4 PUSH2 0xCDE SWAP2 SWAP1 PUSH2 0x14AE JUMP JUMPDEST DUP2 SLOAD DUP2 LT PUSH2 0xCEE JUMPI PUSH2 0xCEE PUSH2 0x146E JUMP JUMPDEST PUSH0 SWAP2 DUP3 MSTORE PUSH1 0x20 SWAP1 SWAP2 KECCAK256 ADD SLOAD PUSH1 0x1 DUP1 SLOAD PUSH1 0x1 PUSH1 0x1 PUSH1 0xA0 SHL SUB SWAP1 SWAP3 AND SWAP2 DUP4 SWAP1 DUP2 LT PUSH2 0xD19 JUMPI PUSH2 0xD19 PUSH2 0x146E JUMP JUMPDEST SWAP1 PUSH0 MSTORE PUSH1 0x20 PUSH0 KECCAK256 ADD PUSH0 PUSH2 0x100 EXP DUP2 SLOAD DUP2 PUSH1 0x1 PUSH1 0x1 PUSH1 0xA0 SHL SUB MUL NOT AND SWAP1 DUP4 PUSH1 0x1 PUSH1 0x1 PUSH1 0xA0 SHL SUB AND MUL OR SWAP1 SSTORE POP PUSH1 0x1 DUP1 SLOAD DUP1 PUSH2 0xD55 JUMPI PUSH2 0xD55 PUSH2 0x14C1 JUMP JUMPDEST PUSH0 DUP3 DUP2 MSTORE PUSH1 0x20 DUP1 DUP3 KECCAK256 DUP4 ADD PUSH0 NOT SWAP1 DUP2 ADD DUP1 SLOAD PUSH1 0x1 PUSH1 0x1 PUSH1 0xA0 SHL SUB NOT AND SWAP1 SSTORE SWAP1 SWAP3 ADD SWAP1 SWAP3 SSTORE PUSH1 0x1 PUSH1 0x1 PUSH1 0xA0 SHL SUB DUP6 AND DUP1 DUP4 MSTORE PUSH1 0x2 SWAP1 SWAP2 MSTORE PUSH1 0x40 DUP1 DUP4 KECCAK256 DUP1 SLOAD PUSH1 0xFF NOT AND SWAP1 SSTORE MLOAD SWAP1 SWAP2 PUSH32 0xA1EE69F55C33D8467C69CA59CE2007A737A88603D75392972520BF67CB513B8 SWAP2 LOG2 POP POP POP JUMP JUMPDEST DUP1 PUSH2 0xDCD DUP2 PUSH2 0x1496 JUMP JUMPDEST SWAP2 POP POP PUSH2 0xC3E JUMP JUMPDEST POP POP POP JUMP JUMPDEST PUSH1 0x60 PUSH1 0x1 DUP1 SLOAD DUP1 PUSH1 0x20 MUL PUSH1 0x20 ADD PUSH1 0x40 MLOAD SWAP1 DUP2 ADD PUSH1 0x40 MSTORE DUP1 SWAP3 SWAP2 SWAP1 DUP2 DUP2 MSTORE PUSH1 0x20 ADD DUP3 DUP1 SLOAD DUP1 ISZERO PUSH2 0xE30 JUMPI PUSH1 0x20 MUL DUP3 ADD SWAP2 SWAP1 PUSH0 MSTORE PUSH1 0x20 PUSH0 KECCAK256 SWAP1 JUMPDEST DUP2 SLOAD PUSH1 0x1 PUSH1 0x1 PUSH1 0xA0 SHL SUB AND DUP2 MSTORE PUSH1 0x1 SWAP1 SWAP2 ADD SWAP1 PUSH1 0x20 ADD DUP1 DUP4 GT PUSH2 0xE12 JUMPI JUMPDEST POP POP POP POP POP SWAP1 POP SWAP1 JUMP JUMPDEST PUSH32 0xF0C57E16840DF040F15088DC2F81FE391C3923BEC73E23A9662EFC9C229C6A00 DUP1 SLOAD PUSH1 0x1 PUSH1 0x40 SHL DUP2 DIV PUSH1 0xFF AND ISZERO SWAP1 PUSH8 0xFFFFFFFFFFFFFFFF AND PUSH0 DUP2 ISZERO DUP1 ISZERO PUSH2 0xE7F JUMPI POP DUP3 JUMPDEST SWAP1 POP PUSH0 DUP3 PUSH8 0xFFFFFFFFFFFFFFFF AND PUSH1 0x1 EQ DUP1 ISZERO PUSH2 0xE9B JUMPI POP ADDRESS EXTCODESIZE ISZERO JUMPDEST SWAP1 POP DUP2 ISZERO DUP1 ISZERO PUSH2 0xEA9 JUMPI POP DUP1 ISZERO JUMPDEST ISZERO PUSH2 0xEC7 JUMPI PUSH1 0x40 MLOAD PUSH4 0xF92EE8A9 PUSH1 0xE0 SHL DUP2 MSTORE PUSH1 0x4 ADD PUSH1 0x40 MLOAD DUP1 SWAP2 SUB SWAP1 REVERT JUMPDEST DUP5 SLOAD PUSH8 0xFFFFFFFFFFFFFFFF NOT AND PUSH1 0x1 OR DUP6 SSTORE DUP4 ISZERO PUSH2 0xEF1 JUMPI DUP5 SLOAD PUSH1 0xFF PUSH1 0x40 SHL NOT AND PUSH1 0x1 PUSH1 0x40 SHL OR DUP6 SSTORE JUMPDEST PUSH2 0xEFA CALLER PUSH2 0x11DE JUMP JUMPDEST DUP4 ISZERO PUSH2 0xA42 JUMPI DUP5 SLOAD PUSH1 0xFF PUSH1 0x40 SHL NOT AND DUP6 SSTORE PUSH1 0x40 MLOAD PUSH1 0x1 DUP2 MSTORE PUSH32 0xC7F505B2F371AE2175EE4913F4499E1F2633A7B5936321EED1CDAEB6115181D2 SWAP1 PUSH1 0x20 ADD PUSH1 0x40 MLOAD DUP1 SWAP2 SUB SWAP1 LOG1 POP POP POP POP POP JUMP JUMPDEST PUSH1 0x1 SLOAD PUSH0 SWAP1 DUP2 JUMPDEST DUP2 DUP2 LT ISZERO PUSH2 0x1010 JUMPI PUSH1 0x1 DUP2 DUP2 SLOAD DUP2 LT PUSH2 0xF68 JUMPI PUSH2 0xF68 PUSH2 0x146E JUMP JUMPDEST PUSH0 SWAP2 DUP3 MSTORE PUSH1 0x20 SWAP1 SWAP2 KECCAK256 ADD SLOAD PUSH1 0x40 MLOAD PUSH3 0x4EDF39 PUSH1 0xE2 SHL DUP2 MSTORE PUSH1 0x1 PUSH1 0x1 PUSH1 0xA0 SHL SUB DUP9 DUP2 AND PUSH1 0x4 DUP4 ADD MSTORE DUP8 DUP2 AND PUSH1 0x24 DUP4 ADD MSTORE PUSH1 0x44 DUP3 ADD DUP8 SWAP1 MSTORE ADDRESS PUSH1 0x64 DUP4 ADD MSTORE SWAP1 SWAP2 AND SWAP1 PUSH4 0x13B7CE4 SWAP1 PUSH1 0x84 ADD PUSH1 0x20 PUSH1 0x40 MLOAD DUP1 DUP4 SUB DUP2 DUP7 GAS STATICCALL ISZERO DUP1 ISZERO PUSH2 0xFCC JUMPI RETURNDATASIZE PUSH0 DUP1 RETURNDATACOPY RETURNDATASIZE PUSH0 REVERT JUMPDEST POP POP POP POP PUSH1 0x40 MLOAD RETURNDATASIZE PUSH1 0x1F NOT PUSH1 0x1F DUP3 ADD AND DUP3 ADD DUP1 PUSH1 0x40 MSTORE POP DUP2 ADD SWAP1 PUSH2 0xFF0 SWAP2 SWAP1 PUSH2 0x13E5 JUMP JUMPDEST PUSH2 0xFFE JUMPI PUSH0 SWAP3 POP POP POP PUSH2 0x1017 JUMP JUMPDEST DUP1 PUSH2 0x1008 DUP2 PUSH2 0x1496 JUMP JUMPDEST SWAP2 POP POP PUSH2 0xF4D JUMP JUMPDEST POP PUSH1 0x1 SWAP2 POP POP JUMPDEST SWAP4 SWAP3 POP POP POP JUMP JUMPDEST PUSH2 0x1026 PUSH2 0x113C JUMP JUMPDEST PUSH1 0x1 PUSH1 0x1 PUSH1 0xA0 SHL SUB DUP2 AND PUSH0 SWAP1 DUP2 MSTORE PUSH1 0x2 PUSH1 0x20 MSTORE PUSH1 0x40 SWAP1 KECCAK256 SLOAD PUSH1 0xFF AND PUSH2 0x108D JUMPI PUSH1 0x40 MLOAD PUSH3 0x461BCD PUSH1 0xE5 SHL DUP2 MSTORE PUSH1 0x20 PUSH1 0x4 DUP3 ADD MSTORE PUSH1 0x19 PUSH1 0x24 DUP3 ADD MSTORE PUSH32 0x63616C6C206F6E6C79206F6E20626F756E64206D6F64756C6500000000000000 PUSH1 0x44 DUP3 ADD MSTORE PUSH1 0x64 ADD PUSH2 0x27E JUMP JUMPDEST PUSH1 0x40 MLOAD DUP3 DUP5 DUP3 CALLDATACOPY PUSH0 DUP1 DUP5 DUP4 PUSH0 DUP7 GAS CALL PUSH2 0x10A8 JUMPI RETURNDATASIZE PUSH0 DUP1 RETURNDATACOPY RETURNDATASIZE PUSH0 REVERT JUMPDEST POP DUP1 PUSH1 0x1 PUSH1 0x1 PUSH1 0xA0 SHL SUB AND PUSH32 0x20D79DE70ADCC6E9353D8A9A5646B46DC352710D0A310B1AD1F67FAECA7EF891 PUSH2 0x10DE DUP6 DUP6 PUSH2 0x11EF JUMP JUMPDEST PUSH1 0x40 MLOAD PUSH1 0x1 PUSH1 0x1 PUSH1 0xE0 SHL SUB NOT SWAP1 SWAP2 AND DUP2 MSTORE PUSH1 0x20 ADD PUSH1 0x40 MLOAD DUP1 SWAP2 SUB SWAP1 LOG2 POP POP POP JUMP JUMPDEST PUSH2 0x1107 PUSH2 0x113C JUMP JUMPDEST PUSH1 0x1 PUSH1 0x1 PUSH1 0xA0 SHL SUB DUP2 AND PUSH2 0x1130 JUMPI PUSH1 0x40 MLOAD PUSH4 0x1E4FBDF7 PUSH1 0xE0 SHL DUP2 MSTORE PUSH0 PUSH1 0x4 DUP3 ADD MSTORE PUSH1 0x24 ADD PUSH2 0x27E JUMP JUMPDEST PUSH2 0x1139 DUP2 PUSH2 0x116E JUMP JUMPDEST POP JUMP JUMPDEST CALLER PUSH2 0x1145 PUSH2 0xB83 JUMP JUMPDEST PUSH1 0x1 PUSH1 0x1 PUSH1 0xA0 SHL SUB AND EQ PUSH2 0x8DC JUMPI PUSH1 0x40 MLOAD PUSH4 0x118CDAA7 PUSH1 0xE0 SHL DUP2 MSTORE CALLER PUSH1 0x4 DUP3 ADD MSTORE PUSH1 0x24 ADD PUSH2 0x27E JUMP JUMPDEST PUSH32 0x9016D09D72D40FDAE2FD8CEAC6B6234C7706214FD39C1CD1E609A0528C199300 DUP1 SLOAD PUSH1 0x1 PUSH1 0x1 PUSH1 0xA0 SHL SUB NOT DUP2 AND PUSH1 0x1 PUSH1 0x1 PUSH1 0xA0 SHL SUB DUP5 DUP2 AND SWAP2 DUP3 OR DUP5 SSTORE PUSH1 0x40 MLOAD SWAP3 AND SWAP2 DUP3 SWAP1 PUSH32 0x8BE0079C531659141344CD1FD0A4F28419497F9722A3DAAFE3B4186F6B6457E0 SWAP1 PUSH0 SWAP1 LOG3 POP POP POP JUMP JUMPDEST PUSH2 0x11E6 PUSH2 0x1202 JUMP JUMPDEST PUSH2 0x1139 DUP2 PUSH2 0x124B JUMP JUMPDEST PUSH0 PUSH1 0x4 DUP3 LT PUSH2 0x11FC JUMPI POP DUP2 CALLDATALOAD JUMPDEST SWAP3 SWAP2 POP POP JUMP JUMPDEST PUSH32 0xF0C57E16840DF040F15088DC2F81FE391C3923BEC73E23A9662EFC9C229C6A00 SLOAD PUSH1 0x1 PUSH1 0x40 SHL SWAP1 DIV PUSH1 0xFF AND PUSH2 0x8DC JUMPI PUSH1 0x40 MLOAD PUSH4 0x1AFCD79F PUSH1 0xE3 SHL DUP2 MSTORE PUSH1 0x4 ADD PUSH1 0x40 MLOAD DUP1 SWAP2 SUB SWAP1 REVERT JUMPDEST PUSH2 0x1107 PUSH2 0x1202 JUMP JUMPDEST DUP1 CALLDATALOAD PUSH1 0x1 PUSH1 0x1 PUSH1 0xA0 SHL SUB DUP2 AND DUP2 EQ PUSH2 0x1269 JUMPI PUSH0 DUP1 REVERT JUMPDEST SWAP2 SWAP1 POP JUMP JUMPDEST PUSH0 PUSH1 0x20 DUP3 DUP5 SUB SLT ISZERO PUSH2 0x127E JUMPI PUSH0 DUP1 REVERT JUMPDEST PUSH2 0x1017 DUP3 PUSH2 0x1253 JUMP JUMPDEST PUSH0 DUP1 PUSH1 0x40 DUP4 DUP6 SUB SLT ISZERO PUSH2 0x1298 JUMPI PUSH0 DUP1 REVERT JUMPDEST PUSH2 0x12A1 DUP4 PUSH2 0x1253 JUMP JUMPDEST SWAP5 PUSH1 0x20 SWAP4 SWAP1 SWAP4 ADD CALLDATALOAD SWAP4 POP POP POP JUMP JUMPDEST PUSH0 DUP1 PUSH0 PUSH1 0x60 DUP5 DUP7 SUB SLT ISZERO PUSH2 0x12C1 JUMPI PUSH0 DUP1 REVERT JUMPDEST PUSH2 0x12CA DUP5 PUSH2 0x1253 JUMP JUMPDEST SWAP3 POP PUSH2 0x12D8 PUSH1 0x20 DUP6 ADD PUSH2 0x1253 JUMP JUMPDEST SWAP2 POP PUSH1 0x40 DUP5 ADD CALLDATALOAD SWAP1 POP SWAP3 POP SWAP3 POP SWAP3 JUMP JUMPDEST PUSH1 0x20 DUP1 DUP3 MSTORE DUP3 MLOAD DUP3 DUP3 ADD DUP2 SWAP1 MSTORE PUSH0 SWAP2 SWAP1 DUP5 DUP3 ADD SWAP1 PUSH1 0x40 DUP6 ADD SWAP1 DUP5 JUMPDEST DUP2 DUP2 LT ISZERO PUSH2 0x1328 JUMPI DUP4 MLOAD PUSH1 0x1 PUSH1 0x1 PUSH1 0xA0 SHL SUB AND DUP4 MSTORE SWAP3 DUP5 ADD SWAP3 SWAP2 DUP5 ADD SWAP2 PUSH1 0x1 ADD PUSH2 0x1303 JUMP JUMPDEST POP SWAP1 SWAP7 SWAP6 POP POP POP POP POP POP JUMP JUMPDEST PUSH0 DUP1 PUSH0 PUSH1 0x40 DUP5 DUP7 SUB SLT ISZERO PUSH2 0x1346 JUMPI PUSH0 DUP1 REVERT JUMPDEST DUP4 CALLDATALOAD PUSH8 0xFFFFFFFFFFFFFFFF DUP1 DUP3 GT ISZERO PUSH2 0x135D JUMPI PUSH0 DUP1 REVERT JUMPDEST DUP2 DUP7 ADD SWAP2 POP DUP7 PUSH1 0x1F DUP4 ADD SLT PUSH2 0x1370 JUMPI PUSH0 DUP1 REVERT JUMPDEST DUP2 CALLDATALOAD DUP2 DUP2 GT ISZERO PUSH2 0x137E JUMPI PUSH0 DUP1 REVERT JUMPDEST DUP8 PUSH1 0x20 DUP3 DUP6 ADD ADD GT ISZERO PUSH2 0x138F JUMPI PUSH0 DUP1 REVERT JUMPDEST PUSH1 0x20 SWAP3 DUP4 ADD SWAP6 POP SWAP4 POP PUSH2 0x13A5 SWAP2 DUP7 ADD SWAP1 POP PUSH2 0x1253 JUMP JUMPDEST SWAP1 POP SWAP3 POP SWAP3 POP SWAP3 JUMP JUMPDEST PUSH1 0x20 DUP1 DUP3 MSTORE PUSH1 0x1F SWAP1 DUP3 ADD MSTORE PUSH32 0x696E76616C696420617267756D656E74202D207A65726F206164647265737300 PUSH1 0x40 DUP3 ADD MSTORE PUSH1 0x60 ADD SWAP1 JUMP JUMPDEST PUSH0 PUSH1 0x20 DUP3 DUP5 SUB SLT ISZERO PUSH2 0x13F5 JUMPI PUSH0 DUP1 REVERT JUMPDEST DUP2 MLOAD DUP1 ISZERO ISZERO DUP2 EQ PUSH2 0x1017 JUMPI PUSH0 DUP1 REVERT JUMPDEST PUSH1 0x20 DUP1 DUP3 MSTORE PUSH1 0x44 SWAP1 DUP3 ADD MSTORE PUSH32 0x6572726F72203A20746869732061646472657373206973206E6F74206120746F PUSH1 0x40 DUP3 ADD MSTORE PUSH32 0x6B656E20626F756E6420746F2074686520636F6D706C69616E636520636F6E74 PUSH1 0x60 DUP3 ADD MSTORE PUSH4 0x1C9858DD PUSH1 0xE2 SHL PUSH1 0x80 DUP3 ADD MSTORE PUSH1 0xA0 ADD SWAP1 JUMP JUMPDEST PUSH4 0x4E487B71 PUSH1 0xE0 SHL PUSH0 MSTORE PUSH1 0x32 PUSH1 0x4 MSTORE PUSH1 0x24 PUSH0 REVERT JUMPDEST PUSH4 0x4E487B71 PUSH1 0xE0 SHL PUSH0 MSTORE PUSH1 0x11 PUSH1 0x4 MSTORE PUSH1 0x24 PUSH0 REVERT JUMPDEST PUSH0 PUSH1 0x1 DUP3 ADD PUSH2 0x14A7 JUMPI PUSH2 0x14A7 PUSH2 0x1482 JUMP JUMPDEST POP PUSH1 0x1 ADD SWAP1 JUMP JUMPDEST DUP2 DUP2 SUB DUP2 DUP2 GT ISZERO PUSH2 0x11FC JUMPI PUSH2 0x11FC PUSH2 0x1482 JUMP JUMPDEST PUSH4 0x4E487B71 PUSH1 0xE0 SHL PUSH0 MSTORE PUSH1 0x31 PUSH1 0x4 MSTORE PUSH1 0x24 PUSH0 REVERT INVALID LOG2 PUSH5 0x6970667358 0x22 SLT KECCAK256 CODESIZE PUSH6 0x869D8A353E8D 0x5D PUSH0 0xE3 MSTORE8 SUB CREATE2 CALL SAR 0x2A CALL 0x22 0xD0 SWAP5 JUMPI 0xB9 0xBB 0xB5 0x1E SWAP12 0xD3 0xD5 0xB8 0xE0 ORIGIN PUSH5 0x736F6C6343 STOP ADDMOD EQ STOP CALLER "
				},
				"gasEstimates": {
					"creation": {
						"codeDepositCost": "1077400",
						"executionCost": "1118",
						"totalCost": "1078518"
					},
					"external": {
						"addModule(address)": "infinite",
						"bindToken(address)": "30077",
						"callModuleFunction(bytes,address)": "infinite",
						"canTransfer(address,address,uint256)": "infinite",
						"created(address,uint256)": "infinite",
						"destroyed(address,uint256)": "infinite",
						"getModules()": "infinite",
						"getTokenBound()": "2330",
						"init()": "infinite",
						"isModuleBound(address)": "2613",
						"owner()": "2357",
						"removeModule(address)": "infinite",
						"renounceOwnership()": "infinite",
						"transferOwnership(address)": "28465",
						"transferred(address,address,uint256)": "infinite",
						"unbindToken(address)": "30100"
					},
					"internal": {
						"_selector(bytes calldata)": "52"
					}
				},
				"methodIdentifiers": {
					"addModule(address)": "1ed86f19",
					"bindToken(address)": "3ff5aa02",
					"callModuleFunction(bytes,address)": "efb22d33",
					"canTransfer(address,address,uint256)": "e46638e6",
					"created(address,uint256)": "5f8dead3",
					"destroyed(address,uint256)": "8d2ea772",
					"getModules()": "b2494df3",
					"getTokenBound()": "6a3edf28",
					"init()": "e1c7392a",
					"isModuleBound(address)": "a446d49f",
					"owner()": "8da5cb5b",
					"removeModule(address)": "a0632461",
					"renounceOwnership()": "715018a6",
					"transferOwnership(address)": "f2fde38b",
					"transferred(address,address,uint256)": "8baf29b4",
					"unbindToken(address)": "40db3b50"
				}
			},
			"storageLayout": {
				"storage": [
					{
						"astId": 1023,
						"contract": "contracts/compliance/modular/ModularCompliance.sol:ModularCompliance",
						"label": "_tokenBound",
						"offset": 0,
						"slot": "0",
						"type": "t_address"
					},
					{
						"astId": 1027,
						"contract": "contracts/compliance/modular/ModularCompliance.sol:ModularCompliance",
						"label": "_modules",
						"offset": 0,
						"slot": "1",
						"type": "t_array(t_address)dyn_storage"
					},
					{
						"astId": 1032,
						"contract": "contracts/compliance/modular/ModularCompliance.sol:ModularCompliance",
						"label": "_moduleBound",
						"offset": 0,
						"slot": "2",
						"type": "t_mapping(t_address,t_bool)"
					},
					{
						"astId": 1037,
						"contract": "contracts/compliance/modular/ModularCompliance.sol:ModularCompliance",
						"label": "__gap",
						"offset": 0,
						"slot": "3",
						"type": "t_array(t_uint256)49_storage"
					}
				],
				"types": {
					"t_address": {
						"encoding": "inplace",
						"label": "address",
						"numberOfBytes": "20"
					},
					"t_array(t_address)dyn_storage": {
						"base": "t_address",
						"encoding": "dynamic_array",
						"label": "address[]",
						"numberOfBytes": "32"
					},
					"t_array(t_uint256)49_storage": {
						"base": "t_uint256",
						"encoding": "inplace",
						"label": "uint256[49]",
						"numberOfBytes": "1568"
					},
					"t_bool": {
						"encoding": "inplace",
						"label": "bool",
						"numberOfBytes": "1"
					},
					"t_mapping(t_address,t_bool)": {
						"encoding": "mapping",
						"key": "t_address",
						"label": "mapping(address => bool)",
						"numberOfBytes": "32",
						"value": "t_bool"
					},
					"t_uint256": {
						"encoding": "inplace",
						"label": "uint256",
						"numberOfBytes": "32"
					}
				}
			},
			"userdoc": {
				"events": {
					"ModuleAdded(address)": {
						"notice": "this event is emitted when a module has been added to the list of modules bound to the compliance contract  the event is emitted by the addModule function  `_module` is the address of the compliance module"
					},
					"ModuleRemoved(address)": {
						"notice": "this event is emitted when a module has been removed from the list of modules bound to the compliance contract  the event is emitted by the removeModule function  `_module` is the address of the compliance module"
					},
					"TokenBound(address)": {
						"notice": "this event is emitted when a token has been bound to the compliance contract  the event is emitted by the bindToken function  `_token` is the address of the token to bind"
					},
					"TokenUnbound(address)": {
						"notice": "this event is emitted when a token has been unbound from the compliance contract  the event is emitted by the unbindToken function  `_token` is the address of the token to unbind"
					}
				},
				"kind": "user",
				"methods": {},
				"version": 1
			}
		}
	}
}